{"abi":[{"inputs":[{"internalType":"uint256","name":"_bet","type":"uint256"}],"stateMutability":"nonpayable","type":"constructor"},{"inputs":[],"name":"acceptWinner","outputs":[],"stateMutability":"payable","type":"function"},{"inputs":[],"name":"bet","outputs":[{"internalType":"uint256","name":"","type":"uint256"}],"stateMutability":"view","type":"function"},{"inputs":[],"name":"calculateResults","outputs":[],"stateMutability":"nonpayable","type":"function"},{"inputs":[],"name":"checoWins","outputs":[{"internalType":"uint8","name":"","type":"uint8"}],"stateMutability":"view","type":"function"},{"inputs":[],"name":"enterBet","outputs":[],"stateMutability":"payable","type":"function"},{"inputs":[],"name":"getContestansCPoints","outputs":[{"internalType":"uint256","name":"","type":"uint256"}],"stateMutability":"view","type":"function"},{"inputs":[],"name":"getContestansChPoints","outputs":[{"internalType":"uint256","name":"","type":"uint256"}],"stateMutability":"view","type":"function"},{"inputs":[],"name":"getContestansDPoints","outputs":[{"internalType":"uint256","name":"","type":"uint256"}],"stateMutability":"view","type":"function"},{"inputs":[],"name":"getContestansTPoints","outputs":[{"internalType":"uint256","name":"","type":"uint256"}],"stateMutability":"view","type":"function"},{"inputs":[],"name":"getContestants","outputs":[{"internalType":"address[]","name":"","type":"address[]"}],"stateMutability":"view","type":"function"},{"inputs":[],"name":"manager","outputs":[{"internalType":"address","name":"","type":"address"}],"stateMutability":"view","type":"function"},{"inputs":[{"internalType":"uint8","name":"_checoWin","type":"uint8"}],"name":"predictChecoWins","outputs":[],"stateMutability":"nonpayable","type":"function"},{"inputs":[{"internalType":"string[]","name":"_constructorsP","type":"string[]"}],"name":"predictConstructorsTable","outputs":[],"stateMutability":"nonpayable","type":"function"},{"inputs":[{"internalType":"string[]","name":"_driversP","type":"string[]"}],"name":"predictDriversTable","outputs":[],"stateMutability":"nonpayable","type":"function"},{"inputs":[{"internalType":"uint8","name":"_wins","type":"uint8"}],"name":"setChecoWins","outputs":[],"stateMutability":"nonpayable","type":"function"},{"inputs":[{"internalType":"string[]","name":"_constructors","type":"string[]"}],"name":"setConstructorsTable","outputs":[],"stateMutability":"nonpayable","type":"function"},{"inputs":[{"internalType":"string[]","name":"_drivers","type":"string[]"}],"name":"setDriversTable","outputs":[],"stateMutability":"nonpayable","type":"function"},{"inputs":[],"name":"winner","outputs":[{"internalType":"address payable","name":"","type":"address"}],"stateMutability":"view","type":"function"}],"devdoc":{"kind":"dev","methods":{},"version":1},"evm":{"assembly":"    /* \"/home/rocha/Proyects/Solidity/F1Bet/ethereum/contracts/F1.sol\":34:10554  contract FormulaBet{... */\n  mstore(0x40, 0x80)\n    /* \"/home/rocha/Proyects/Solidity/F1Bet/ethereum/contracts/F1.sol\":626:707  constructor(uint _bet)  {... */\n  callvalue\n  dup1\n  iszero\n  tag_1\n  jumpi\n  0x00\n  dup1\n  revert\ntag_1:\n  pop\n  mload(0x40)\n  sub(codesize, bytecodeSize)\n  dup1\n  bytecodeSize\n  dup4\n  codecopy\n  dup2\n  dup2\n  add\n  0x40\n  mstore\n  dup2\n  add\n  swap1\n  tag_2\n  swap2\n  swap1\n  tag_3\n  jump\t// in\ntag_2:\n    /* \"/home/rocha/Proyects/Solidity/F1Bet/ethereum/contracts/F1.sol\":670:680  msg.sender */\n  caller\n    /* \"/home/rocha/Proyects/Solidity/F1Bet/ethereum/contracts/F1.sol\":660:667  manager */\n  0x06\n  0x01\n    /* \"/home/rocha/Proyects/Solidity/F1Bet/ethereum/contracts/F1.sol\":660:680  manager = msg.sender */\n  0x0100\n  exp\n  dup2\n  sload\n  dup2\n  0xffffffffffffffffffffffffffffffffffffffff\n  mul\n  not\n  and\n  swap1\n  dup4\n  0xffffffffffffffffffffffffffffffffffffffff\n  and\n  mul\n  or\n  swap1\n  sstore\n  pop\n    /* \"/home/rocha/Proyects/Solidity/F1Bet/ethereum/contracts/F1.sol\":696:700  _bet */\n  dup1\n    /* \"/home/rocha/Proyects/Solidity/F1Bet/ethereum/contracts/F1.sol\":690:693  bet */\n  0x07\n    /* \"/home/rocha/Proyects/Solidity/F1Bet/ethereum/contracts/F1.sol\":690:700  bet = _bet */\n  dup2\n  swap1\n  sstore\n  pop\n    /* \"/home/rocha/Proyects/Solidity/F1Bet/ethereum/contracts/F1.sol\":626:707  constructor(uint _bet)  {... */\n  pop\n    /* \"/home/rocha/Proyects/Solidity/F1Bet/ethereum/contracts/F1.sol\":34:10554  contract FormulaBet{... */\n  jump(tag_6)\n    /* \"#utility.yul\":88:205   */\ntag_8:\n    /* \"#utility.yul\":197:198   */\n  0x00\n    /* \"#utility.yul\":194:195   */\n  dup1\n    /* \"#utility.yul\":187:199   */\n  revert\n    /* \"#utility.yul\":334:411   */\ntag_10:\n    /* \"#utility.yul\":371:378   */\n  0x00\n    /* \"#utility.yul\":400:405   */\n  dup2\n    /* \"#utility.yul\":389:405   */\n  swap1\n  pop\n    /* \"#utility.yul\":334:411   */\n  swap2\n  swap1\n  pop\n  jump\t// out\n    /* \"#utility.yul\":417:539   */\ntag_11:\n    /* \"#utility.yul\":490:514   */\n  tag_19\n    /* \"#utility.yul\":508:513   */\n  dup2\n    /* \"#utility.yul\":490:514   */\n  tag_10\n  jump\t// in\ntag_19:\n    /* \"#utility.yul\":483:488   */\n  dup2\n    /* \"#utility.yul\":480:515   */\n  eq\n    /* \"#utility.yul\":470:533   */\n  tag_20\n  jumpi\n    /* \"#utility.yul\":529:530   */\n  0x00\n    /* \"#utility.yul\":526:527   */\n  dup1\n    /* \"#utility.yul\":519:531   */\n  revert\n    /* \"#utility.yul\":470:533   */\ntag_20:\n    /* \"#utility.yul\":417:539   */\n  pop\n  jump\t// out\n    /* \"#utility.yul\":545:688   */\ntag_12:\n    /* \"#utility.yul\":602:607   */\n  0x00\n    /* \"#utility.yul\":633:639   */\n  dup2\n    /* \"#utility.yul\":627:640   */\n  mload\n    /* \"#utility.yul\":618:640   */\n  swap1\n  pop\n    /* \"#utility.yul\":649:682   */\n  tag_22\n    /* \"#utility.yul\":676:681   */\n  dup2\n    /* \"#utility.yul\":649:682   */\n  tag_11\n  jump\t// in\ntag_22:\n    /* \"#utility.yul\":545:688   */\n  swap3\n  swap2\n  pop\n  pop\n  jump\t// out\n    /* \"#utility.yul\":694:1045   */\ntag_3:\n    /* \"#utility.yul\":764:770   */\n  0x00\n    /* \"#utility.yul\":813:815   */\n  0x20\n    /* \"#utility.yul\":801:810   */\n  dup3\n    /* \"#utility.yul\":792:799   */\n  dup5\n    /* \"#utility.yul\":788:811   */\n  sub\n    /* \"#utility.yul\":784:816   */\n  slt\n    /* \"#utility.yul\":781:900   */\n  iszero\n  tag_24\n  jumpi\n    /* \"#utility.yul\":819:898   */\n  tag_25\n  tag_8\n  jump\t// in\ntag_25:\n    /* \"#utility.yul\":781:900   */\ntag_24:\n    /* \"#utility.yul\":939:940   */\n  0x00\n    /* \"#utility.yul\":964:1028   */\n  tag_26\n    /* \"#utility.yul\":1020:1027   */\n  dup5\n    /* \"#utility.yul\":1011:1017   */\n  dup3\n    /* \"#utility.yul\":1000:1009   */\n  dup6\n    /* \"#utility.yul\":996:1018   */\n  add\n    /* \"#utility.yul\":964:1028   */\n  tag_12\n  jump\t// in\ntag_26:\n    /* \"#utility.yul\":954:1028   */\n  swap2\n  pop\n    /* \"#utility.yul\":910:1038   */\n  pop\n    /* \"#utility.yul\":694:1045   */\n  swap3\n  swap2\n  pop\n  pop\n  jump\t// out\n    /* \"/home/rocha/Proyects/Solidity/F1Bet/ethereum/contracts/F1.sol\":34:10554  contract FormulaBet{... */\ntag_6:\n  dataSize(sub_0)\n  dup1\n  dataOffset(sub_0)\n  0x00\n  codecopy\n  0x00\n  return\nstop\n\nsub_0: assembly {\n        /* \"/home/rocha/Proyects/Solidity/F1Bet/ethereum/contracts/F1.sol\":34:10554  contract FormulaBet{... */\n      mstore(0x40, 0x80)\n      jumpi(tag_1, lt(calldatasize, 0x04))\n      shr(0xe0, calldataload(0x00))\n      dup1\n      0x7f36ea24\n      gt\n      tag_20\n      jumpi\n      dup1\n      0xc10196fa\n      gt\n      tag_21\n      jumpi\n      dup1\n      0xc10196fa\n      eq\n      tag_15\n      jumpi\n      dup1\n      0xc8fe2134\n      eq\n      tag_16\n      jumpi\n      dup1\n      0xdfbf53ae\n      eq\n      tag_17\n      jumpi\n      dup1\n      0xef9884e4\n      eq\n      tag_18\n      jumpi\n      dup1\n      0xf1d78c84\n      eq\n      tag_19\n      jumpi\n      jump(tag_1)\n    tag_21:\n      dup1\n      0x7f36ea24\n      eq\n      tag_11\n      jumpi\n      dup1\n      0xa388d1cd\n      eq\n      tag_12\n      jumpi\n      dup1\n      0xb12038f4\n      eq\n      tag_13\n      jumpi\n      dup1\n      0xbb427d8a\n      eq\n      tag_14\n      jumpi\n      jump(tag_1)\n    tag_20:\n      dup1\n      0x481c6a75\n      gt\n      tag_22\n      jumpi\n      dup1\n      0x481c6a75\n      eq\n      tag_6\n      jumpi\n      dup1\n      0x55db72ea\n      eq\n      tag_7\n      jumpi\n      dup1\n      0x65046e8c\n      eq\n      tag_8\n      jumpi\n      dup1\n      0x77bc91f5\n      eq\n      tag_9\n      jumpi\n      dup1\n      0x7af448f2\n      eq\n      tag_10\n      jumpi\n      jump(tag_1)\n    tag_22:\n      dup1\n      0x09221b3a\n      eq\n      tag_2\n      jumpi\n      dup1\n      0x096c705d\n      eq\n      tag_3\n      jumpi\n      dup1\n      0x11610c25\n      eq\n      tag_4\n      jumpi\n      dup1\n      0x2ccb0d1e\n      eq\n      tag_5\n      jumpi\n    tag_1:\n      0x00\n      dup1\n      revert\n        /* \"/home/rocha/Proyects/Solidity/F1Bet/ethereum/contracts/F1.sol\":1867:2129  function predictConstructorsTable(string[] memory _constructorsP)public isOnBet{... */\n    tag_2:\n      callvalue\n      dup1\n      iszero\n      tag_23\n      jumpi\n      0x00\n      dup1\n      revert\n    tag_23:\n      pop\n      tag_24\n      0x04\n      dup1\n      calldatasize\n      sub\n      dup2\n      add\n      swap1\n      tag_25\n      swap2\n      swap1\n      tag_26\n      jump\t// in\n    tag_25:\n      tag_27\n      jump\t// in\n    tag_24:\n      stop\n        /* \"/home/rocha/Proyects/Solidity/F1Bet/ethereum/contracts/F1.sol\":10164:10291  function getContestansDPoints() public view isOnBet returns(uint){... */\n    tag_3:\n      callvalue\n      dup1\n      iszero\n      tag_28\n      jumpi\n      0x00\n      dup1\n      revert\n    tag_28:\n      pop\n      tag_29\n      tag_30\n      jump\t// in\n    tag_29:\n      mload(0x40)\n      tag_31\n      swap2\n      swap1\n      tag_32\n      jump\t// in\n    tag_31:\n      mload(0x40)\n      dup1\n      swap2\n      sub\n      swap1\n      return\n        /* \"/home/rocha/Proyects/Solidity/F1Bet/ethereum/contracts/F1.sol\":542:557  uint public bet */\n    tag_4:\n      callvalue\n      dup1\n      iszero\n      tag_33\n      jumpi\n      0x00\n      dup1\n      revert\n    tag_33:\n      pop\n      tag_34\n      tag_35\n      jump\t// in\n    tag_34:\n      mload(0x40)\n      tag_36\n      swap2\n      swap1\n      tag_32\n      jump\t// in\n    tag_36:\n      mload(0x40)\n      dup1\n      swap2\n      sub\n      swap1\n      return\n        /* \"/home/rocha/Proyects/Solidity/F1Bet/ethereum/contracts/F1.sol\":9836:10021  function calculateResults() public isOnBet {... */\n    tag_5:\n      callvalue\n      dup1\n      iszero\n      tag_37\n      jumpi\n      0x00\n      dup1\n      revert\n    tag_37:\n      pop\n      tag_38\n      tag_39\n      jump\t// in\n    tag_38:\n      stop\n        /* \"/home/rocha/Proyects/Solidity/F1Bet/ethereum/contracts/F1.sol\":514:536  address public manager */\n    tag_6:\n      callvalue\n      dup1\n      iszero\n      tag_40\n      jumpi\n      0x00\n      dup1\n      revert\n    tag_40:\n      pop\n      tag_41\n      tag_42\n      jump\t// in\n    tag_41:\n      mload(0x40)\n      tag_43\n      swap2\n      swap1\n      tag_44\n      jump\t// in\n    tag_43:\n      mload(0x40)\n      dup1\n      swap2\n      sub\n      swap1\n      return\n        /* \"/home/rocha/Proyects/Solidity/F1Bet/ethereum/contracts/F1.sol\":1515:1599  function setChecoWins(uint8 _wins)public isManager{... */\n    tag_7:\n      callvalue\n      dup1\n      iszero\n      tag_45\n      jumpi\n      0x00\n      dup1\n      revert\n    tag_45:\n      pop\n      tag_46\n      0x04\n      dup1\n      calldatasize\n      sub\n      dup2\n      add\n      swap1\n      tag_47\n      swap2\n      swap1\n      tag_48\n      jump\t// in\n    tag_47:\n      tag_49\n      jump\t// in\n    tag_46:\n      stop\n        /* \"/home/rocha/Proyects/Solidity/F1Bet/ethereum/contracts/F1.sol\":1409:1510  function setDriversTable(string[] memory _drivers)public isManager{... */\n    tag_8:\n      callvalue\n      dup1\n      iszero\n      tag_50\n      jumpi\n      0x00\n      dup1\n      revert\n    tag_50:\n      pop\n      tag_51\n      0x04\n      dup1\n      calldatasize\n      sub\n      dup2\n      add\n      swap1\n      tag_52\n      swap2\n      swap1\n      tag_26\n      jump\t// in\n    tag_52:\n      tag_53\n      jump\t// in\n    tag_51:\n      stop\n        /* \"/home/rocha/Proyects/Solidity/F1Bet/ethereum/contracts/F1.sol\":2372:2523  function predictChecoWins(uint8 _checoWin)public isOnBet{... */\n    tag_9:\n      callvalue\n      dup1\n      iszero\n      tag_54\n      jumpi\n      0x00\n      dup1\n      revert\n    tag_54:\n      pop\n      tag_55\n      0x04\n      dup1\n      calldatasize\n      sub\n      dup2\n      add\n      swap1\n      tag_56\n      swap2\n      swap1\n      tag_48\n      jump\t// in\n    tag_56:\n      tag_57\n      jump\t// in\n    tag_55:\n      stop\n        /* \"/home/rocha/Proyects/Solidity/F1Bet/ethereum/contracts/F1.sol\":10027:10159  function getContestansCPoints() public view isOnBet returns(uint){... */\n    tag_10:\n      callvalue\n      dup1\n      iszero\n      tag_58\n      jumpi\n      0x00\n      dup1\n      revert\n    tag_58:\n      pop\n      tag_59\n      tag_60\n      jump\t// in\n    tag_59:\n      mload(0x40)\n      tag_61\n      swap2\n      swap1\n      tag_32\n      jump\t// in\n    tag_61:\n      mload(0x40)\n      dup1\n      swap2\n      sub\n      swap1\n      return\n        /* \"/home/rocha/Proyects/Solidity/F1Bet/ethereum/contracts/F1.sol\":9557:9827  function acceptWinner() public payable isOnBet{... */\n    tag_11:\n      tag_62\n      tag_63\n      jump\t// in\n    tag_62:\n      stop\n        /* \"/home/rocha/Proyects/Solidity/F1Bet/ethereum/contracts/F1.sol\":10296:10422  function getContestansChPoints() public view isOnBet returns(uint){... */\n    tag_12:\n      callvalue\n      dup1\n      iszero\n      tag_64\n      jumpi\n      0x00\n      dup1\n      revert\n    tag_64:\n      pop\n      tag_65\n      tag_66\n      jump\t// in\n    tag_65:\n      mload(0x40)\n      tag_67\n      swap2\n      swap1\n      tag_32\n      jump\t// in\n    tag_67:\n      mload(0x40)\n      dup1\n      swap2\n      sub\n      swap1\n      return\n        /* \"/home/rocha/Proyects/Solidity/F1Bet/ethereum/contracts/F1.sol\":2135:2367  function predictDriversTable(string[] memory _driversP)public isOnBet{... */\n    tag_13:\n      callvalue\n      dup1\n      iszero\n      tag_68\n      jumpi\n      0x00\n      dup1\n      revert\n    tag_68:\n      pop\n      tag_69\n      0x04\n      dup1\n      calldatasize\n      sub\n      dup2\n      add\n      swap1\n      tag_70\n      swap2\n      swap1\n      tag_26\n      jump\t// in\n    tag_70:\n      tag_71\n      jump\t// in\n    tag_69:\n      stop\n        /* \"/home/rocha/Proyects/Solidity/F1Bet/ethereum/contracts/F1.sol\":1605:1756  function enterBet()  public payable notOnBet{... */\n    tag_14:\n      tag_72\n      tag_73\n      jump\t// in\n    tag_72:\n      stop\n        /* \"/home/rocha/Proyects/Solidity/F1Bet/ethereum/contracts/F1.sol\":1762:1861  function getContestants() public view returns( address[] memory){... */\n    tag_15:\n      callvalue\n      dup1\n      iszero\n      tag_74\n      jumpi\n      0x00\n      dup1\n      revert\n    tag_74:\n      pop\n      tag_75\n      tag_76\n      jump\t// in\n    tag_75:\n      mload(0x40)\n      tag_77\n      swap2\n      swap1\n      tag_78\n      jump\t// in\n    tag_77:\n      mload(0x40)\n      dup1\n      swap2\n      sub\n      swap1\n      return\n        /* \"/home/rocha/Proyects/Solidity/F1Bet/ethereum/contracts/F1.sol\":1283:1404  function setConstructorsTable(string[] memory _constructors)public isManager{... */\n    tag_16:\n      callvalue\n      dup1\n      iszero\n      tag_79\n      jumpi\n      0x00\n      dup1\n      revert\n    tag_79:\n      pop\n      tag_80\n      0x04\n      dup1\n      calldatasize\n      sub\n      dup2\n      add\n      swap1\n      tag_81\n      swap2\n      swap1\n      tag_26\n      jump\t// in\n    tag_81:\n      tag_82\n      jump\t// in\n    tag_80:\n      stop\n        /* \"/home/rocha/Proyects/Solidity/F1Bet/ethereum/contracts/F1.sol\":386:415  address payable public winner */\n    tag_17:\n      callvalue\n      dup1\n      iszero\n      tag_83\n      jumpi\n      0x00\n      dup1\n      revert\n    tag_83:\n      pop\n      tag_84\n      tag_85\n      jump\t// in\n    tag_84:\n      mload(0x40)\n      tag_86\n      swap2\n      swap1\n      tag_87\n      jump\t// in\n    tag_86:\n      mload(0x40)\n      dup1\n      swap2\n      sub\n      swap1\n      return\n        /* \"/home/rocha/Proyects/Solidity/F1Bet/ethereum/contracts/F1.sol\":10427:10552  function getContestansTPoints() public view isOnBet returns(uint){... */\n    tag_18:\n      callvalue\n      dup1\n      iszero\n      tag_88\n      jumpi\n      0x00\n      dup1\n      revert\n    tag_88:\n      pop\n      tag_89\n      tag_90\n      jump\t// in\n    tag_89:\n      mload(0x40)\n      tag_91\n      swap2\n      swap1\n      tag_32\n      jump\t// in\n    tag_91:\n      mload(0x40)\n      dup1\n      swap2\n      sub\n      swap1\n      return\n        /* \"/home/rocha/Proyects/Solidity/F1Bet/ethereum/contracts/F1.sol\":486:508  uint8 public checoWins */\n    tag_19:\n      callvalue\n      dup1\n      iszero\n      tag_92\n      jumpi\n      0x00\n      dup1\n      revert\n    tag_92:\n      pop\n      tag_93\n      tag_94\n      jump\t// in\n    tag_93:\n      mload(0x40)\n      tag_95\n      swap2\n      swap1\n      tag_96\n      jump\t// in\n    tag_95:\n      mload(0x40)\n      dup1\n      swap2\n      sub\n      swap1\n      return\n        /* \"/home/rocha/Proyects/Solidity/F1Bet/ethereum/contracts/F1.sol\":1867:2129  function predictConstructorsTable(string[] memory _constructorsP)public isOnBet{... */\n    tag_27:\n        /* \"/home/rocha/Proyects/Solidity/F1Bet/ethereum/contracts/F1.sol\":966:983  bool isContestant */\n      0x00\n        /* \"/home/rocha/Proyects/Solidity/F1Bet/ethereum/contracts/F1.sol\":998:1005  uint8 i */\n      dup1\n        /* \"/home/rocha/Proyects/Solidity/F1Bet/ethereum/contracts/F1.sol\":1008:1009  0 */\n      0x00\n        /* \"/home/rocha/Proyects/Solidity/F1Bet/ethereum/contracts/F1.sol\":998:1009  uint8 i = 0 */\n      swap1\n      pop\n        /* \"/home/rocha/Proyects/Solidity/F1Bet/ethereum/contracts/F1.sol\":993:1145  for (uint8 i = 0; i < contestants.length; ++i) {... */\n    tag_98:\n        /* \"/home/rocha/Proyects/Solidity/F1Bet/ethereum/contracts/F1.sol\":1015:1026  contestants */\n      0x01\n        /* \"/home/rocha/Proyects/Solidity/F1Bet/ethereum/contracts/F1.sol\":1015:1033  contestants.length */\n      dup1\n      sload\n      swap1\n      pop\n        /* \"/home/rocha/Proyects/Solidity/F1Bet/ethereum/contracts/F1.sol\":1011:1012  i */\n      dup2\n        /* \"/home/rocha/Proyects/Solidity/F1Bet/ethereum/contracts/F1.sol\":1011:1033  i < contestants.length */\n      0xff\n      and\n      lt\n        /* \"/home/rocha/Proyects/Solidity/F1Bet/ethereum/contracts/F1.sol\":993:1145  for (uint8 i = 0; i < contestants.length; ++i) {... */\n      iszero\n      tag_99\n      jumpi\n        /* \"/home/rocha/Proyects/Solidity/F1Bet/ethereum/contracts/F1.sol\":1073:1083  msg.sender */\n      caller\n        /* \"/home/rocha/Proyects/Solidity/F1Bet/ethereum/contracts/F1.sol\":1057:1083  contestants[i]==msg.sender */\n      0xffffffffffffffffffffffffffffffffffffffff\n      and\n        /* \"/home/rocha/Proyects/Solidity/F1Bet/ethereum/contracts/F1.sol\":1057:1068  contestants */\n      0x01\n        /* \"/home/rocha/Proyects/Solidity/F1Bet/ethereum/contracts/F1.sol\":1069:1070  i */\n      dup3\n        /* \"/home/rocha/Proyects/Solidity/F1Bet/ethereum/contracts/F1.sol\":1057:1071  contestants[i] */\n      0xff\n      and\n      dup2\n      sload\n      dup2\n      lt\n      tag_101\n      jumpi\n      tag_102\n      tag_103\n      jump\t// in\n    tag_102:\n    tag_101:\n      swap1\n      0x00\n      mstore\n      keccak256(0x00, 0x20)\n      add\n      0x00\n      swap1\n      sload\n      swap1\n      0x0100\n      exp\n      swap1\n      div\n      0xffffffffffffffffffffffffffffffffffffffff\n      and\n        /* \"/home/rocha/Proyects/Solidity/F1Bet/ethereum/contracts/F1.sol\":1057:1083  contestants[i]==msg.sender */\n      0xffffffffffffffffffffffffffffffffffffffff\n      and\n      eq\n        /* \"/home/rocha/Proyects/Solidity/F1Bet/ethereum/contracts/F1.sol\":1054:1135  if(contestants[i]==msg.sender){... */\n      iszero\n      tag_105\n      jumpi\n        /* \"/home/rocha/Proyects/Solidity/F1Bet/ethereum/contracts/F1.sol\":1116:1120  true */\n      0x01\n        /* \"/home/rocha/Proyects/Solidity/F1Bet/ethereum/contracts/F1.sol\":1101:1120  isContestant = true */\n      swap2\n      pop\n        /* \"/home/rocha/Proyects/Solidity/F1Bet/ethereum/contracts/F1.sol\":1054:1135  if(contestants[i]==msg.sender){... */\n    tag_105:\n        /* \"/home/rocha/Proyects/Solidity/F1Bet/ethereum/contracts/F1.sol\":1035:1038  ++i */\n      dup1\n      tag_106\n      swap1\n      tag_107\n      jump\t// in\n    tag_106:\n      swap1\n      pop\n        /* \"/home/rocha/Proyects/Solidity/F1Bet/ethereum/contracts/F1.sol\":993:1145  for (uint8 i = 0; i < contestants.length; ++i) {... */\n      jump(tag_98)\n    tag_99:\n      pop\n        /* \"/home/rocha/Proyects/Solidity/F1Bet/ethereum/contracts/F1.sol\":1162:1174  isContestant */\n      dup1\n        /* \"/home/rocha/Proyects/Solidity/F1Bet/ethereum/contracts/F1.sol\":1154:1175  require(isContestant) */\n      tag_108\n      jumpi\n      0x00\n      dup1\n      revert\n    tag_108:\n        /* \"/home/rocha/Proyects/Solidity/F1Bet/ethereum/contracts/F1.sol\":1989:1991  10 */\n      0x0a\n        /* \"/home/rocha/Proyects/Solidity/F1Bet/ethereum/contracts/F1.sol\":1964:1978  _constructorsP */\n      dup3\n        /* \"/home/rocha/Proyects/Solidity/F1Bet/ethereum/contracts/F1.sol\":1964:1985  _constructorsP.length */\n      mload\n        /* \"/home/rocha/Proyects/Solidity/F1Bet/ethereum/contracts/F1.sol\":1964:1991  _constructorsP.length == 10 */\n      eq\n        /* \"/home/rocha/Proyects/Solidity/F1Bet/ethereum/contracts/F1.sol\":1956:1992  require(_constructorsP.length == 10) */\n      tag_110\n      jumpi\n      0x00\n      dup1\n      revert\n    tag_110:\n        /* \"/home/rocha/Proyects/Solidity/F1Bet/ethereum/contracts/F1.sol\":2057:2058  0 */\n      0x00\n        /* \"/home/rocha/Proyects/Solidity/F1Bet/ethereum/contracts/F1.sol\":2010:2021  predictions */\n      dup1\n        /* \"/home/rocha/Proyects/Solidity/F1Bet/ethereum/contracts/F1.sol\":2010:2033  predictions[msg.sender] */\n      0x00\n        /* \"/home/rocha/Proyects/Solidity/F1Bet/ethereum/contracts/F1.sol\":2022:2032  msg.sender */\n      caller\n        /* \"/home/rocha/Proyects/Solidity/F1Bet/ethereum/contracts/F1.sol\":2010:2033  predictions[msg.sender] */\n      0xffffffffffffffffffffffffffffffffffffffff\n      and\n      0xffffffffffffffffffffffffffffffffffffffff\n      and\n      dup2\n      mstore\n      0x20\n      add\n      swap1\n      dup2\n      mstore\n      0x20\n      add\n      0x00\n      keccak256\n        /* \"/home/rocha/Proyects/Solidity/F1Bet/ethereum/contracts/F1.sol\":2010:2046  predictions[msg.sender].constructors */\n      0x00\n      add\n        /* \"/home/rocha/Proyects/Solidity/F1Bet/ethereum/contracts/F1.sol\":2010:2053  predictions[msg.sender].constructors.length */\n      dup1\n      sload\n      swap1\n      pop\n        /* \"/home/rocha/Proyects/Solidity/F1Bet/ethereum/contracts/F1.sol\":2010:2058  predictions[msg.sender].constructors.length == 0 */\n      eq\n        /* \"/home/rocha/Proyects/Solidity/F1Bet/ethereum/contracts/F1.sol\":2002:2059  require(predictions[msg.sender].constructors.length == 0) */\n      tag_111\n      jumpi\n      0x00\n      dup1\n      revert\n    tag_111:\n        /* \"/home/rocha/Proyects/Solidity/F1Bet/ethereum/contracts/F1.sol\":2108:2122  _constructorsP */\n      dup2\n        /* \"/home/rocha/Proyects/Solidity/F1Bet/ethereum/contracts/F1.sol\":2069:2080  predictions */\n      0x00\n        /* \"/home/rocha/Proyects/Solidity/F1Bet/ethereum/contracts/F1.sol\":2069:2092  predictions[msg.sender] */\n      dup1\n        /* \"/home/rocha/Proyects/Solidity/F1Bet/ethereum/contracts/F1.sol\":2081:2091  msg.sender */\n      caller\n        /* \"/home/rocha/Proyects/Solidity/F1Bet/ethereum/contracts/F1.sol\":2069:2092  predictions[msg.sender] */\n      0xffffffffffffffffffffffffffffffffffffffff\n      and\n      0xffffffffffffffffffffffffffffffffffffffff\n      and\n      dup2\n      mstore\n      0x20\n      add\n      swap1\n      dup2\n      mstore\n      0x20\n      add\n      0x00\n      keccak256\n        /* \"/home/rocha/Proyects/Solidity/F1Bet/ethereum/contracts/F1.sol\":2069:2105  predictions[msg.sender].constructors */\n      0x00\n      add\n        /* \"/home/rocha/Proyects/Solidity/F1Bet/ethereum/contracts/F1.sol\":2069:2122  predictions[msg.sender].constructors = _constructorsP */\n      swap1\n      dup1\n      mload\n      swap1\n      0x20\n      add\n      swap1\n      tag_112\n      swap3\n      swap2\n      swap1\n      tag_113\n      jump\t// in\n    tag_112:\n      pop\n        /* \"/home/rocha/Proyects/Solidity/F1Bet/ethereum/contracts/F1.sol\":956:1193  {... */\n      pop\n        /* \"/home/rocha/Proyects/Solidity/F1Bet/ethereum/contracts/F1.sol\":1867:2129  function predictConstructorsTable(string[] memory _constructorsP)public isOnBet{... */\n      pop\n      jump\t// out\n        /* \"/home/rocha/Proyects/Solidity/F1Bet/ethereum/contracts/F1.sol\":10164:10291  function getContestansDPoints() public view isOnBet returns(uint){... */\n    tag_30:\n        /* \"/home/rocha/Proyects/Solidity/F1Bet/ethereum/contracts/F1.sol\":10224:10228  uint */\n      0x00\n        /* \"/home/rocha/Proyects/Solidity/F1Bet/ethereum/contracts/F1.sol\":966:983  bool isContestant */\n      dup1\n        /* \"/home/rocha/Proyects/Solidity/F1Bet/ethereum/contracts/F1.sol\":998:1005  uint8 i */\n      0x00\n        /* \"/home/rocha/Proyects/Solidity/F1Bet/ethereum/contracts/F1.sol\":993:1145  for (uint8 i = 0; i < contestants.length; ++i) {... */\n    tag_115:\n        /* \"/home/rocha/Proyects/Solidity/F1Bet/ethereum/contracts/F1.sol\":1015:1026  contestants */\n      0x01\n        /* \"/home/rocha/Proyects/Solidity/F1Bet/ethereum/contracts/F1.sol\":1015:1033  contestants.length */\n      dup1\n      sload\n      swap1\n      pop\n        /* \"/home/rocha/Proyects/Solidity/F1Bet/ethereum/contracts/F1.sol\":1011:1012  i */\n      dup2\n        /* \"/home/rocha/Proyects/Solidity/F1Bet/ethereum/contracts/F1.sol\":1011:1033  i < contestants.length */\n      0xff\n      and\n      lt\n        /* \"/home/rocha/Proyects/Solidity/F1Bet/ethereum/contracts/F1.sol\":993:1145  for (uint8 i = 0; i < contestants.length; ++i) {... */\n      iszero\n      tag_116\n      jumpi\n        /* \"/home/rocha/Proyects/Solidity/F1Bet/ethereum/contracts/F1.sol\":1073:1083  msg.sender */\n      caller\n        /* \"/home/rocha/Proyects/Solidity/F1Bet/ethereum/contracts/F1.sol\":1057:1083  contestants[i]==msg.sender */\n      0xffffffffffffffffffffffffffffffffffffffff\n      and\n        /* \"/home/rocha/Proyects/Solidity/F1Bet/ethereum/contracts/F1.sol\":1057:1068  contestants */\n      0x01\n        /* \"/home/rocha/Proyects/Solidity/F1Bet/ethereum/contracts/F1.sol\":1069:1070  i */\n      dup3\n        /* \"/home/rocha/Proyects/Solidity/F1Bet/ethereum/contracts/F1.sol\":1057:1071  contestants[i] */\n      0xff\n      and\n      dup2\n      sload\n      dup2\n      lt\n      tag_118\n      jumpi\n      tag_119\n      tag_103\n      jump\t// in\n    tag_119:\n    tag_118:\n      swap1\n      0x00\n      mstore\n      keccak256(0x00, 0x20)\n      add\n      0x00\n      swap1\n      sload\n      swap1\n      0x0100\n      exp\n      swap1\n      div\n      0xffffffffffffffffffffffffffffffffffffffff\n      and\n        /* \"/home/rocha/Proyects/Solidity/F1Bet/ethereum/contracts/F1.sol\":1057:1083  contestants[i]==msg.sender */\n      0xffffffffffffffffffffffffffffffffffffffff\n      and\n      eq\n        /* \"/home/rocha/Proyects/Solidity/F1Bet/ethereum/contracts/F1.sol\":1054:1135  if(contestants[i]==msg.sender){... */\n      iszero\n      tag_121\n      jumpi\n        /* \"/home/rocha/Proyects/Solidity/F1Bet/ethereum/contracts/F1.sol\":1116:1120  true */\n      0x01\n        /* \"/home/rocha/Proyects/Solidity/F1Bet/ethereum/contracts/F1.sol\":1101:1120  isContestant = true */\n      swap2\n      pop\n        /* \"/home/rocha/Proyects/Solidity/F1Bet/ethereum/contracts/F1.sol\":1054:1135  if(contestants[i]==msg.sender){... */\n    tag_121:\n        /* \"/home/rocha/Proyects/Solidity/F1Bet/ethereum/contracts/F1.sol\":1035:1038  ++i */\n      dup1\n      tag_122\n      swap1\n      tag_107\n      jump\t// in\n    tag_122:\n      swap1\n      pop\n        /* \"/home/rocha/Proyects/Solidity/F1Bet/ethereum/contracts/F1.sol\":993:1145  for (uint8 i = 0; i < contestants.length; ++i) {... */\n      jump(tag_115)\n    tag_116:\n      pop\n        /* \"/home/rocha/Proyects/Solidity/F1Bet/ethereum/contracts/F1.sol\":1162:1174  isContestant */\n      dup1\n        /* \"/home/rocha/Proyects/Solidity/F1Bet/ethereum/contracts/F1.sol\":1154:1175  require(isContestant) */\n      tag_123\n      jumpi\n      0x00\n      dup1\n      revert\n    tag_123:\n        /* \"/home/rocha/Proyects/Solidity/F1Bet/ethereum/contracts/F1.sol\":10247:10258  predictions */\n      0x00\n        /* \"/home/rocha/Proyects/Solidity/F1Bet/ethereum/contracts/F1.sol\":10247:10270  predictions[msg.sender] */\n      dup1\n        /* \"/home/rocha/Proyects/Solidity/F1Bet/ethereum/contracts/F1.sol\":10259:10269  msg.sender */\n      caller\n        /* \"/home/rocha/Proyects/Solidity/F1Bet/ethereum/contracts/F1.sol\":10247:10270  predictions[msg.sender] */\n      0xffffffffffffffffffffffffffffffffffffffff\n      and\n      0xffffffffffffffffffffffffffffffffffffffff\n      and\n      dup2\n      mstore\n      0x20\n      add\n      swap1\n      dup2\n      mstore\n      0x20\n      add\n      0x00\n      keccak256\n        /* \"/home/rocha/Proyects/Solidity/F1Bet/ethereum/contracts/F1.sol\":10247:10284  predictions[msg.sender].driversPoints */\n      0x04\n      add\n      sload\n        /* \"/home/rocha/Proyects/Solidity/F1Bet/ethereum/contracts/F1.sol\":10239:10284  return  predictions[msg.sender].driversPoints */\n      swap2\n      pop\n        /* \"/home/rocha/Proyects/Solidity/F1Bet/ethereum/contracts/F1.sol\":956:1193  {... */\n      pop\n        /* \"/home/rocha/Proyects/Solidity/F1Bet/ethereum/contracts/F1.sol\":10164:10291  function getContestansDPoints() public view isOnBet returns(uint){... */\n      swap1\n      jump\t// out\n        /* \"/home/rocha/Proyects/Solidity/F1Bet/ethereum/contracts/F1.sol\":542:557  uint public bet */\n    tag_35:\n      sload(0x07)\n      dup2\n      jump\t// out\n        /* \"/home/rocha/Proyects/Solidity/F1Bet/ethereum/contracts/F1.sol\":9836:10021  function calculateResults() public isOnBet {... */\n    tag_39:\n        /* \"/home/rocha/Proyects/Solidity/F1Bet/ethereum/contracts/F1.sol\":966:983  bool isContestant */\n      0x00\n        /* \"/home/rocha/Proyects/Solidity/F1Bet/ethereum/contracts/F1.sol\":998:1005  uint8 i */\n      dup1\n        /* \"/home/rocha/Proyects/Solidity/F1Bet/ethereum/contracts/F1.sol\":1008:1009  0 */\n      0x00\n        /* \"/home/rocha/Proyects/Solidity/F1Bet/ethereum/contracts/F1.sol\":998:1009  uint8 i = 0 */\n      swap1\n      pop\n        /* \"/home/rocha/Proyects/Solidity/F1Bet/ethereum/contracts/F1.sol\":993:1145  for (uint8 i = 0; i < contestants.length; ++i) {... */\n    tag_126:\n        /* \"/home/rocha/Proyects/Solidity/F1Bet/ethereum/contracts/F1.sol\":1015:1026  contestants */\n      0x01\n        /* \"/home/rocha/Proyects/Solidity/F1Bet/ethereum/contracts/F1.sol\":1015:1033  contestants.length */\n      dup1\n      sload\n      swap1\n      pop\n        /* \"/home/rocha/Proyects/Solidity/F1Bet/ethereum/contracts/F1.sol\":1011:1012  i */\n      dup2\n        /* \"/home/rocha/Proyects/Solidity/F1Bet/ethereum/contracts/F1.sol\":1011:1033  i < contestants.length */\n      0xff\n      and\n      lt\n        /* \"/home/rocha/Proyects/Solidity/F1Bet/ethereum/contracts/F1.sol\":993:1145  for (uint8 i = 0; i < contestants.length; ++i) {... */\n      iszero\n      tag_127\n      jumpi\n        /* \"/home/rocha/Proyects/Solidity/F1Bet/ethereum/contracts/F1.sol\":1073:1083  msg.sender */\n      caller\n        /* \"/home/rocha/Proyects/Solidity/F1Bet/ethereum/contracts/F1.sol\":1057:1083  contestants[i]==msg.sender */\n      0xffffffffffffffffffffffffffffffffffffffff\n      and\n        /* \"/home/rocha/Proyects/Solidity/F1Bet/ethereum/contracts/F1.sol\":1057:1068  contestants */\n      0x01\n        /* \"/home/rocha/Proyects/Solidity/F1Bet/ethereum/contracts/F1.sol\":1069:1070  i */\n      dup3\n        /* \"/home/rocha/Proyects/Solidity/F1Bet/ethereum/contracts/F1.sol\":1057:1071  contestants[i] */\n      0xff\n      and\n      dup2\n      sload\n      dup2\n      lt\n      tag_129\n      jumpi\n      tag_130\n      tag_103\n      jump\t// in\n    tag_130:\n    tag_129:\n      swap1\n      0x00\n      mstore\n      keccak256(0x00, 0x20)\n      add\n      0x00\n      swap1\n      sload\n      swap1\n      0x0100\n      exp\n      swap1\n      div\n      0xffffffffffffffffffffffffffffffffffffffff\n      and\n        /* \"/home/rocha/Proyects/Solidity/F1Bet/ethereum/contracts/F1.sol\":1057:1083  contestants[i]==msg.sender */\n      0xffffffffffffffffffffffffffffffffffffffff\n      and\n      eq\n        /* \"/home/rocha/Proyects/Solidity/F1Bet/ethereum/contracts/F1.sol\":1054:1135  if(contestants[i]==msg.sender){... */\n      iszero\n      tag_132\n      jumpi\n        /* \"/home/rocha/Proyects/Solidity/F1Bet/ethereum/contracts/F1.sol\":1116:1120  true */\n      0x01\n        /* \"/home/rocha/Proyects/Solidity/F1Bet/ethereum/contracts/F1.sol\":1101:1120  isContestant = true */\n      swap2\n      pop\n        /* \"/home/rocha/Proyects/Solidity/F1Bet/ethereum/contracts/F1.sol\":1054:1135  if(contestants[i]==msg.sender){... */\n    tag_132:\n        /* \"/home/rocha/Proyects/Solidity/F1Bet/ethereum/contracts/F1.sol\":1035:1038  ++i */\n      dup1\n      tag_133\n      swap1\n      tag_107\n      jump\t// in\n    tag_133:\n      swap1\n      pop\n        /* \"/home/rocha/Proyects/Solidity/F1Bet/ethereum/contracts/F1.sol\":993:1145  for (uint8 i = 0; i < contestants.length; ++i) {... */\n      jump(tag_126)\n    tag_127:\n      pop\n        /* \"/home/rocha/Proyects/Solidity/F1Bet/ethereum/contracts/F1.sol\":1162:1174  isContestant */\n      dup1\n        /* \"/home/rocha/Proyects/Solidity/F1Bet/ethereum/contracts/F1.sol\":1154:1175  require(isContestant) */\n      tag_134\n      jumpi\n      0x00\n      dup1\n      revert\n    tag_134:\n        /* \"/home/rocha/Proyects/Solidity/F1Bet/ethereum/contracts/F1.sol\":9889:9917  calculateConstructorsTable() */\n      tag_136\n        /* \"/home/rocha/Proyects/Solidity/F1Bet/ethereum/contracts/F1.sol\":9889:9915  calculateConstructorsTable */\n      tag_137\n        /* \"/home/rocha/Proyects/Solidity/F1Bet/ethereum/contracts/F1.sol\":9889:9917  calculateConstructorsTable() */\n      jump\t// in\n    tag_136:\n        /* \"/home/rocha/Proyects/Solidity/F1Bet/ethereum/contracts/F1.sol\":9927:9950  calculateDriversTable() */\n      tag_138\n        /* \"/home/rocha/Proyects/Solidity/F1Bet/ethereum/contracts/F1.sol\":9927:9948  calculateDriversTable */\n      tag_139\n        /* \"/home/rocha/Proyects/Solidity/F1Bet/ethereum/contracts/F1.sol\":9927:9950  calculateDriversTable() */\n      jump\t// in\n    tag_138:\n        /* \"/home/rocha/Proyects/Solidity/F1Bet/ethereum/contracts/F1.sol\":9960:9982  calculateChecoPoints() */\n      tag_140\n        /* \"/home/rocha/Proyects/Solidity/F1Bet/ethereum/contracts/F1.sol\":9960:9980  calculateChecoPoints */\n      tag_141\n        /* \"/home/rocha/Proyects/Solidity/F1Bet/ethereum/contracts/F1.sol\":9960:9982  calculateChecoPoints() */\n      jump\t// in\n    tag_140:\n        /* \"/home/rocha/Proyects/Solidity/F1Bet/ethereum/contracts/F1.sol\":9992:10014  calculateFinalPoints() */\n      tag_142\n        /* \"/home/rocha/Proyects/Solidity/F1Bet/ethereum/contracts/F1.sol\":9992:10012  calculateFinalPoints */\n      tag_143\n        /* \"/home/rocha/Proyects/Solidity/F1Bet/ethereum/contracts/F1.sol\":9992:10014  calculateFinalPoints() */\n      jump\t// in\n    tag_142:\n        /* \"/home/rocha/Proyects/Solidity/F1Bet/ethereum/contracts/F1.sol\":956:1193  {... */\n      pop\n        /* \"/home/rocha/Proyects/Solidity/F1Bet/ethereum/contracts/F1.sol\":9836:10021  function calculateResults() public isOnBet {... */\n      jump\t// out\n        /* \"/home/rocha/Proyects/Solidity/F1Bet/ethereum/contracts/F1.sol\":514:536  address public manager */\n    tag_42:\n      0x06\n      0x01\n      swap1\n      sload\n      swap1\n      0x0100\n      exp\n      swap1\n      div\n      0xffffffffffffffffffffffffffffffffffffffff\n      and\n      dup2\n      jump\t// out\n        /* \"/home/rocha/Proyects/Solidity/F1Bet/ethereum/contracts/F1.sol\":1515:1599  function setChecoWins(uint8 _wins)public isManager{... */\n    tag_49:\n        /* \"/home/rocha/Proyects/Solidity/F1Bet/ethereum/contracts/F1.sol\":1251:1258  manager */\n      0x06\n      0x01\n      swap1\n      sload\n      swap1\n      0x0100\n      exp\n      swap1\n      div\n      0xffffffffffffffffffffffffffffffffffffffff\n      and\n        /* \"/home/rocha/Proyects/Solidity/F1Bet/ethereum/contracts/F1.sol\":1237:1258  msg.sender == manager */\n      0xffffffffffffffffffffffffffffffffffffffff\n      and\n        /* \"/home/rocha/Proyects/Solidity/F1Bet/ethereum/contracts/F1.sol\":1237:1247  msg.sender */\n      caller\n        /* \"/home/rocha/Proyects/Solidity/F1Bet/ethereum/contracts/F1.sol\":1237:1258  msg.sender == manager */\n      0xffffffffffffffffffffffffffffffffffffffff\n      and\n      eq\n        /* \"/home/rocha/Proyects/Solidity/F1Bet/ethereum/contracts/F1.sol\":1229:1259  require(msg.sender == manager) */\n      tag_145\n      jumpi\n      0x00\n      dup1\n      revert\n    tag_145:\n        /* \"/home/rocha/Proyects/Solidity/F1Bet/ethereum/contracts/F1.sol\":1587:1592  _wins */\n      dup1\n        /* \"/home/rocha/Proyects/Solidity/F1Bet/ethereum/contracts/F1.sol\":1575:1584  checoWins */\n      0x06\n      0x00\n        /* \"/home/rocha/Proyects/Solidity/F1Bet/ethereum/contracts/F1.sol\":1575:1592  checoWins = _wins */\n      0x0100\n      exp\n      dup2\n      sload\n      dup2\n      0xff\n      mul\n      not\n      and\n      swap1\n      dup4\n      0xff\n      and\n      mul\n      or\n      swap1\n      sstore\n      pop\n        /* \"/home/rocha/Proyects/Solidity/F1Bet/ethereum/contracts/F1.sol\":1515:1599  function setChecoWins(uint8 _wins)public isManager{... */\n      pop\n      jump\t// out\n        /* \"/home/rocha/Proyects/Solidity/F1Bet/ethereum/contracts/F1.sol\":1409:1510  function setDriversTable(string[] memory _drivers)public isManager{... */\n    tag_53:\n        /* \"/home/rocha/Proyects/Solidity/F1Bet/ethereum/contracts/F1.sol\":1251:1258  manager */\n      0x06\n      0x01\n      swap1\n      sload\n      swap1\n      0x0100\n      exp\n      swap1\n      div\n      0xffffffffffffffffffffffffffffffffffffffff\n      and\n        /* \"/home/rocha/Proyects/Solidity/F1Bet/ethereum/contracts/F1.sol\":1237:1258  msg.sender == manager */\n      0xffffffffffffffffffffffffffffffffffffffff\n      and\n        /* \"/home/rocha/Proyects/Solidity/F1Bet/ethereum/contracts/F1.sol\":1237:1247  msg.sender */\n      caller\n        /* \"/home/rocha/Proyects/Solidity/F1Bet/ethereum/contracts/F1.sol\":1237:1258  msg.sender == manager */\n      0xffffffffffffffffffffffffffffffffffffffff\n      and\n      eq\n        /* \"/home/rocha/Proyects/Solidity/F1Bet/ethereum/contracts/F1.sol\":1229:1259  require(msg.sender == manager) */\n      tag_148\n      jumpi\n      0x00\n      dup1\n      revert\n    tag_148:\n        /* \"/home/rocha/Proyects/Solidity/F1Bet/ethereum/contracts/F1.sol\":1495:1503  _drivers */\n      dup1\n        /* \"/home/rocha/Proyects/Solidity/F1Bet/ethereum/contracts/F1.sol\":1485:1492  drivers */\n      0x05\n        /* \"/home/rocha/Proyects/Solidity/F1Bet/ethereum/contracts/F1.sol\":1485:1503  drivers = _drivers */\n      swap1\n      dup1\n      mload\n      swap1\n      0x20\n      add\n      swap1\n      tag_150\n      swap3\n      swap2\n      swap1\n      tag_113\n      jump\t// in\n    tag_150:\n      pop\n        /* \"/home/rocha/Proyects/Solidity/F1Bet/ethereum/contracts/F1.sol\":1409:1510  function setDriversTable(string[] memory _drivers)public isManager{... */\n      pop\n      jump\t// out\n        /* \"/home/rocha/Proyects/Solidity/F1Bet/ethereum/contracts/F1.sol\":2372:2523  function predictChecoWins(uint8 _checoWin)public isOnBet{... */\n    tag_57:\n        /* \"/home/rocha/Proyects/Solidity/F1Bet/ethereum/contracts/F1.sol\":966:983  bool isContestant */\n      0x00\n        /* \"/home/rocha/Proyects/Solidity/F1Bet/ethereum/contracts/F1.sol\":998:1005  uint8 i */\n      dup1\n        /* \"/home/rocha/Proyects/Solidity/F1Bet/ethereum/contracts/F1.sol\":1008:1009  0 */\n      0x00\n        /* \"/home/rocha/Proyects/Solidity/F1Bet/ethereum/contracts/F1.sol\":998:1009  uint8 i = 0 */\n      swap1\n      pop\n        /* \"/home/rocha/Proyects/Solidity/F1Bet/ethereum/contracts/F1.sol\":993:1145  for (uint8 i = 0; i < contestants.length; ++i) {... */\n    tag_152:\n        /* \"/home/rocha/Proyects/Solidity/F1Bet/ethereum/contracts/F1.sol\":1015:1026  contestants */\n      0x01\n        /* \"/home/rocha/Proyects/Solidity/F1Bet/ethereum/contracts/F1.sol\":1015:1033  contestants.length */\n      dup1\n      sload\n      swap1\n      pop\n        /* \"/home/rocha/Proyects/Solidity/F1Bet/ethereum/contracts/F1.sol\":1011:1012  i */\n      dup2\n        /* \"/home/rocha/Proyects/Solidity/F1Bet/ethereum/contracts/F1.sol\":1011:1033  i < contestants.length */\n      0xff\n      and\n      lt\n        /* \"/home/rocha/Proyects/Solidity/F1Bet/ethereum/contracts/F1.sol\":993:1145  for (uint8 i = 0; i < contestants.length; ++i) {... */\n      iszero\n      tag_153\n      jumpi\n        /* \"/home/rocha/Proyects/Solidity/F1Bet/ethereum/contracts/F1.sol\":1073:1083  msg.sender */\n      caller\n        /* \"/home/rocha/Proyects/Solidity/F1Bet/ethereum/contracts/F1.sol\":1057:1083  contestants[i]==msg.sender */\n      0xffffffffffffffffffffffffffffffffffffffff\n      and\n        /* \"/home/rocha/Proyects/Solidity/F1Bet/ethereum/contracts/F1.sol\":1057:1068  contestants */\n      0x01\n        /* \"/home/rocha/Proyects/Solidity/F1Bet/ethereum/contracts/F1.sol\":1069:1070  i */\n      dup3\n        /* \"/home/rocha/Proyects/Solidity/F1Bet/ethereum/contracts/F1.sol\":1057:1071  contestants[i] */\n      0xff\n      and\n      dup2\n      sload\n      dup2\n      lt\n      tag_155\n      jumpi\n      tag_156\n      tag_103\n      jump\t// in\n    tag_156:\n    tag_155:\n      swap1\n      0x00\n      mstore\n      keccak256(0x00, 0x20)\n      add\n      0x00\n      swap1\n      sload\n      swap1\n      0x0100\n      exp\n      swap1\n      div\n      0xffffffffffffffffffffffffffffffffffffffff\n      and\n        /* \"/home/rocha/Proyects/Solidity/F1Bet/ethereum/contracts/F1.sol\":1057:1083  contestants[i]==msg.sender */\n      0xffffffffffffffffffffffffffffffffffffffff\n      and\n      eq\n        /* \"/home/rocha/Proyects/Solidity/F1Bet/ethereum/contracts/F1.sol\":1054:1135  if(contestants[i]==msg.sender){... */\n      iszero\n      tag_158\n      jumpi\n        /* \"/home/rocha/Proyects/Solidity/F1Bet/ethereum/contracts/F1.sol\":1116:1120  true */\n      0x01\n        /* \"/home/rocha/Proyects/Solidity/F1Bet/ethereum/contracts/F1.sol\":1101:1120  isContestant = true */\n      swap2\n      pop\n        /* \"/home/rocha/Proyects/Solidity/F1Bet/ethereum/contracts/F1.sol\":1054:1135  if(contestants[i]==msg.sender){... */\n    tag_158:\n        /* \"/home/rocha/Proyects/Solidity/F1Bet/ethereum/contracts/F1.sol\":1035:1038  ++i */\n      dup1\n      tag_159\n      swap1\n      tag_107\n      jump\t// in\n    tag_159:\n      swap1\n      pop\n        /* \"/home/rocha/Proyects/Solidity/F1Bet/ethereum/contracts/F1.sol\":993:1145  for (uint8 i = 0; i < contestants.length; ++i) {... */\n      jump(tag_152)\n    tag_153:\n      pop\n        /* \"/home/rocha/Proyects/Solidity/F1Bet/ethereum/contracts/F1.sol\":1162:1174  isContestant */\n      dup1\n        /* \"/home/rocha/Proyects/Solidity/F1Bet/ethereum/contracts/F1.sol\":1154:1175  require(isContestant) */\n      tag_160\n      jumpi\n      0x00\n      dup1\n      revert\n    tag_160:\n        /* \"/home/rocha/Proyects/Solidity/F1Bet/ethereum/contracts/F1.sol\":2459:2460  0 */\n      0x00\n        /* \"/home/rocha/Proyects/Solidity/F1Bet/ethereum/contracts/F1.sol\":2446:2455  _checoWin */\n      dup3\n        /* \"/home/rocha/Proyects/Solidity/F1Bet/ethereum/contracts/F1.sol\":2446:2460  _checoWin >= 0 */\n      0xff\n      and\n      lt\n      iszero\n        /* \"/home/rocha/Proyects/Solidity/F1Bet/ethereum/contracts/F1.sol\":2438:2461  require(_checoWin >= 0) */\n      tag_162\n      jumpi\n      0x00\n      dup1\n      revert\n    tag_162:\n        /* \"/home/rocha/Proyects/Solidity/F1Bet/ethereum/contracts/F1.sol\":2507:2516  _checoWin */\n      dup2\n        /* \"/home/rocha/Proyects/Solidity/F1Bet/ethereum/contracts/F1.sol\":2471:2482  predictions */\n      0x00\n        /* \"/home/rocha/Proyects/Solidity/F1Bet/ethereum/contracts/F1.sol\":2471:2494  predictions[msg.sender] */\n      dup1\n        /* \"/home/rocha/Proyects/Solidity/F1Bet/ethereum/contracts/F1.sol\":2483:2493  msg.sender */\n      caller\n        /* \"/home/rocha/Proyects/Solidity/F1Bet/ethereum/contracts/F1.sol\":2471:2494  predictions[msg.sender] */\n      0xffffffffffffffffffffffffffffffffffffffff\n      and\n      0xffffffffffffffffffffffffffffffffffffffff\n      and\n      dup2\n      mstore\n      0x20\n      add\n      swap1\n      dup2\n      mstore\n      0x20\n      add\n      0x00\n      keccak256\n        /* \"/home/rocha/Proyects/Solidity/F1Bet/ethereum/contracts/F1.sol\":2471:2504  predictions[msg.sender].checoWins */\n      0x02\n      add\n      0x00\n        /* \"/home/rocha/Proyects/Solidity/F1Bet/ethereum/contracts/F1.sol\":2471:2516  predictions[msg.sender].checoWins = _checoWin */\n      0x0100\n      exp\n      dup2\n      sload\n      dup2\n      0xff\n      mul\n      not\n      and\n      swap1\n      dup4\n      0xff\n      and\n      mul\n      or\n      swap1\n      sstore\n      pop\n        /* \"/home/rocha/Proyects/Solidity/F1Bet/ethereum/contracts/F1.sol\":956:1193  {... */\n      pop\n        /* \"/home/rocha/Proyects/Solidity/F1Bet/ethereum/contracts/F1.sol\":2372:2523  function predictChecoWins(uint8 _checoWin)public isOnBet{... */\n      pop\n      jump\t// out\n        /* \"/home/rocha/Proyects/Solidity/F1Bet/ethereum/contracts/F1.sol\":10027:10159  function getContestansCPoints() public view isOnBet returns(uint){... */\n    tag_60:\n        /* \"/home/rocha/Proyects/Solidity/F1Bet/ethereum/contracts/F1.sol\":10087:10091  uint */\n      0x00\n        /* \"/home/rocha/Proyects/Solidity/F1Bet/ethereum/contracts/F1.sol\":966:983  bool isContestant */\n      dup1\n        /* \"/home/rocha/Proyects/Solidity/F1Bet/ethereum/contracts/F1.sol\":998:1005  uint8 i */\n      0x00\n        /* \"/home/rocha/Proyects/Solidity/F1Bet/ethereum/contracts/F1.sol\":993:1145  for (uint8 i = 0; i < contestants.length; ++i) {... */\n    tag_164:\n        /* \"/home/rocha/Proyects/Solidity/F1Bet/ethereum/contracts/F1.sol\":1015:1026  contestants */\n      0x01\n        /* \"/home/rocha/Proyects/Solidity/F1Bet/ethereum/contracts/F1.sol\":1015:1033  contestants.length */\n      dup1\n      sload\n      swap1\n      pop\n        /* \"/home/rocha/Proyects/Solidity/F1Bet/ethereum/contracts/F1.sol\":1011:1012  i */\n      dup2\n        /* \"/home/rocha/Proyects/Solidity/F1Bet/ethereum/contracts/F1.sol\":1011:1033  i < contestants.length */\n      0xff\n      and\n      lt\n        /* \"/home/rocha/Proyects/Solidity/F1Bet/ethereum/contracts/F1.sol\":993:1145  for (uint8 i = 0; i < contestants.length; ++i) {... */\n      iszero\n      tag_165\n      jumpi\n        /* \"/home/rocha/Proyects/Solidity/F1Bet/ethereum/contracts/F1.sol\":1073:1083  msg.sender */\n      caller\n        /* \"/home/rocha/Proyects/Solidity/F1Bet/ethereum/contracts/F1.sol\":1057:1083  contestants[i]==msg.sender */\n      0xffffffffffffffffffffffffffffffffffffffff\n      and\n        /* \"/home/rocha/Proyects/Solidity/F1Bet/ethereum/contracts/F1.sol\":1057:1068  contestants */\n      0x01\n        /* \"/home/rocha/Proyects/Solidity/F1Bet/ethereum/contracts/F1.sol\":1069:1070  i */\n      dup3\n        /* \"/home/rocha/Proyects/Solidity/F1Bet/ethereum/contracts/F1.sol\":1057:1071  contestants[i] */\n      0xff\n      and\n      dup2\n      sload\n      dup2\n      lt\n      tag_167\n      jumpi\n      tag_168\n      tag_103\n      jump\t// in\n    tag_168:\n    tag_167:\n      swap1\n      0x00\n      mstore\n      keccak256(0x00, 0x20)\n      add\n      0x00\n      swap1\n      sload\n      swap1\n      0x0100\n      exp\n      swap1\n      div\n      0xffffffffffffffffffffffffffffffffffffffff\n      and\n        /* \"/home/rocha/Proyects/Solidity/F1Bet/ethereum/contracts/F1.sol\":1057:1083  contestants[i]==msg.sender */\n      0xffffffffffffffffffffffffffffffffffffffff\n      and\n      eq\n        /* \"/home/rocha/Proyects/Solidity/F1Bet/ethereum/contracts/F1.sol\":1054:1135  if(contestants[i]==msg.sender){... */\n      iszero\n      tag_170\n      jumpi\n        /* \"/home/rocha/Proyects/Solidity/F1Bet/ethereum/contracts/F1.sol\":1116:1120  true */\n      0x01\n        /* \"/home/rocha/Proyects/Solidity/F1Bet/ethereum/contracts/F1.sol\":1101:1120  isContestant = true */\n      swap2\n      pop\n        /* \"/home/rocha/Proyects/Solidity/F1Bet/ethereum/contracts/F1.sol\":1054:1135  if(contestants[i]==msg.sender){... */\n    tag_170:\n        /* \"/home/rocha/Proyects/Solidity/F1Bet/ethereum/contracts/F1.sol\":1035:1038  ++i */\n      dup1\n      tag_171\n      swap1\n      tag_107\n      jump\t// in\n    tag_171:\n      swap1\n      pop\n        /* \"/home/rocha/Proyects/Solidity/F1Bet/ethereum/contracts/F1.sol\":993:1145  for (uint8 i = 0; i < contestants.length; ++i) {... */\n      jump(tag_164)\n    tag_165:\n      pop\n        /* \"/home/rocha/Proyects/Solidity/F1Bet/ethereum/contracts/F1.sol\":1162:1174  isContestant */\n      dup1\n        /* \"/home/rocha/Proyects/Solidity/F1Bet/ethereum/contracts/F1.sol\":1154:1175  require(isContestant) */\n      tag_172\n      jumpi\n      0x00\n      dup1\n      revert\n    tag_172:\n        /* \"/home/rocha/Proyects/Solidity/F1Bet/ethereum/contracts/F1.sol\":10110:10121  predictions */\n      0x00\n        /* \"/home/rocha/Proyects/Solidity/F1Bet/ethereum/contracts/F1.sol\":10110:10133  predictions[msg.sender] */\n      dup1\n        /* \"/home/rocha/Proyects/Solidity/F1Bet/ethereum/contracts/F1.sol\":10122:10132  msg.sender */\n      caller\n        /* \"/home/rocha/Proyects/Solidity/F1Bet/ethereum/contracts/F1.sol\":10110:10133  predictions[msg.sender] */\n      0xffffffffffffffffffffffffffffffffffffffff\n      and\n      0xffffffffffffffffffffffffffffffffffffffff\n      and\n      dup2\n      mstore\n      0x20\n      add\n      swap1\n      dup2\n      mstore\n      0x20\n      add\n      0x00\n      keccak256\n        /* \"/home/rocha/Proyects/Solidity/F1Bet/ethereum/contracts/F1.sol\":10110:10152  predictions[msg.sender].constructorsPoints */\n      0x03\n      add\n      sload\n        /* \"/home/rocha/Proyects/Solidity/F1Bet/ethereum/contracts/F1.sol\":10102:10152  return  predictions[msg.sender].constructorsPoints */\n      swap2\n      pop\n        /* \"/home/rocha/Proyects/Solidity/F1Bet/ethereum/contracts/F1.sol\":956:1193  {... */\n      pop\n        /* \"/home/rocha/Proyects/Solidity/F1Bet/ethereum/contracts/F1.sol\":10027:10159  function getContestansCPoints() public view isOnBet returns(uint){... */\n      swap1\n      jump\t// out\n        /* \"/home/rocha/Proyects/Solidity/F1Bet/ethereum/contracts/F1.sol\":9557:9827  function acceptWinner() public payable isOnBet{... */\n    tag_63:\n        /* \"/home/rocha/Proyects/Solidity/F1Bet/ethereum/contracts/F1.sol\":966:983  bool isContestant */\n      0x00\n        /* \"/home/rocha/Proyects/Solidity/F1Bet/ethereum/contracts/F1.sol\":998:1005  uint8 i */\n      dup1\n        /* \"/home/rocha/Proyects/Solidity/F1Bet/ethereum/contracts/F1.sol\":1008:1009  0 */\n      0x00\n        /* \"/home/rocha/Proyects/Solidity/F1Bet/ethereum/contracts/F1.sol\":998:1009  uint8 i = 0 */\n      swap1\n      pop\n        /* \"/home/rocha/Proyects/Solidity/F1Bet/ethereum/contracts/F1.sol\":993:1145  for (uint8 i = 0; i < contestants.length; ++i) {... */\n    tag_175:\n        /* \"/home/rocha/Proyects/Solidity/F1Bet/ethereum/contracts/F1.sol\":1015:1026  contestants */\n      0x01\n        /* \"/home/rocha/Proyects/Solidity/F1Bet/ethereum/contracts/F1.sol\":1015:1033  contestants.length */\n      dup1\n      sload\n      swap1\n      pop\n        /* \"/home/rocha/Proyects/Solidity/F1Bet/ethereum/contracts/F1.sol\":1011:1012  i */\n      dup2\n        /* \"/home/rocha/Proyects/Solidity/F1Bet/ethereum/contracts/F1.sol\":1011:1033  i < contestants.length */\n      0xff\n      and\n      lt\n        /* \"/home/rocha/Proyects/Solidity/F1Bet/ethereum/contracts/F1.sol\":993:1145  for (uint8 i = 0; i < contestants.length; ++i) {... */\n      iszero\n      tag_176\n      jumpi\n        /* \"/home/rocha/Proyects/Solidity/F1Bet/ethereum/contracts/F1.sol\":1073:1083  msg.sender */\n      caller\n        /* \"/home/rocha/Proyects/Solidity/F1Bet/ethereum/contracts/F1.sol\":1057:1083  contestants[i]==msg.sender */\n      0xffffffffffffffffffffffffffffffffffffffff\n      and\n        /* \"/home/rocha/Proyects/Solidity/F1Bet/ethereum/contracts/F1.sol\":1057:1068  contestants */\n      0x01\n        /* \"/home/rocha/Proyects/Solidity/F1Bet/ethereum/contracts/F1.sol\":1069:1070  i */\n      dup3\n        /* \"/home/rocha/Proyects/Solidity/F1Bet/ethereum/contracts/F1.sol\":1057:1071  contestants[i] */\n      0xff\n      and\n      dup2\n      sload\n      dup2\n      lt\n      tag_178\n      jumpi\n      tag_179\n      tag_103\n      jump\t// in\n    tag_179:\n    tag_178:\n      swap1\n      0x00\n      mstore\n      keccak256(0x00, 0x20)\n      add\n      0x00\n      swap1\n      sload\n      swap1\n      0x0100\n      exp\n      swap1\n      div\n      0xffffffffffffffffffffffffffffffffffffffff\n      and\n        /* \"/home/rocha/Proyects/Solidity/F1Bet/ethereum/contracts/F1.sol\":1057:1083  contestants[i]==msg.sender */\n      0xffffffffffffffffffffffffffffffffffffffff\n      and\n      eq\n        /* \"/home/rocha/Proyects/Solidity/F1Bet/ethereum/contracts/F1.sol\":1054:1135  if(contestants[i]==msg.sender){... */\n      iszero\n      tag_181\n      jumpi\n        /* \"/home/rocha/Proyects/Solidity/F1Bet/ethereum/contracts/F1.sol\":1116:1120  true */\n      0x01\n        /* \"/home/rocha/Proyects/Solidity/F1Bet/ethereum/contracts/F1.sol\":1101:1120  isContestant = true */\n      swap2\n      pop\n        /* \"/home/rocha/Proyects/Solidity/F1Bet/ethereum/contracts/F1.sol\":1054:1135  if(contestants[i]==msg.sender){... */\n    tag_181:\n        /* \"/home/rocha/Proyects/Solidity/F1Bet/ethereum/contracts/F1.sol\":1035:1038  ++i */\n      dup1\n      tag_182\n      swap1\n      tag_107\n      jump\t// in\n    tag_182:\n      swap1\n      pop\n        /* \"/home/rocha/Proyects/Solidity/F1Bet/ethereum/contracts/F1.sol\":993:1145  for (uint8 i = 0; i < contestants.length; ++i) {... */\n      jump(tag_175)\n    tag_176:\n      pop\n        /* \"/home/rocha/Proyects/Solidity/F1Bet/ethereum/contracts/F1.sol\":1162:1174  isContestant */\n      dup1\n        /* \"/home/rocha/Proyects/Solidity/F1Bet/ethereum/contracts/F1.sol\":1154:1175  require(isContestant) */\n      tag_183\n      jumpi\n      0x00\n      dup1\n      revert\n    tag_183:\n        /* \"/home/rocha/Proyects/Solidity/F1Bet/ethereum/contracts/F1.sol\":9645:9650  false */\n      0x00\n        /* \"/home/rocha/Proyects/Solidity/F1Bet/ethereum/contracts/F1.sol\":9621:9650  hasVoted[msg.sender] == false */\n      iszero\n      iszero\n        /* \"/home/rocha/Proyects/Solidity/F1Bet/ethereum/contracts/F1.sol\":9621:9629  hasVoted */\n      0x08\n        /* \"/home/rocha/Proyects/Solidity/F1Bet/ethereum/contracts/F1.sol\":9621:9641  hasVoted[msg.sender] */\n      0x00\n        /* \"/home/rocha/Proyects/Solidity/F1Bet/ethereum/contracts/F1.sol\":9630:9640  msg.sender */\n      caller\n        /* \"/home/rocha/Proyects/Solidity/F1Bet/ethereum/contracts/F1.sol\":9621:9641  hasVoted[msg.sender] */\n      0xffffffffffffffffffffffffffffffffffffffff\n      and\n      0xffffffffffffffffffffffffffffffffffffffff\n      and\n      dup2\n      mstore\n      0x20\n      add\n      swap1\n      dup2\n      mstore\n      0x20\n      add\n      0x00\n      keccak256\n      0x00\n      swap1\n      sload\n      swap1\n      0x0100\n      exp\n      swap1\n      div\n      0xff\n      and\n        /* \"/home/rocha/Proyects/Solidity/F1Bet/ethereum/contracts/F1.sol\":9621:9650  hasVoted[msg.sender] == false */\n      iszero\n      iszero\n      eq\n        /* \"/home/rocha/Proyects/Solidity/F1Bet/ethereum/contracts/F1.sol\":9613:9651  require(hasVoted[msg.sender] == false) */\n      tag_185\n      jumpi\n      0x00\n      dup1\n      revert\n    tag_185:\n        /* \"/home/rocha/Proyects/Solidity/F1Bet/ethereum/contracts/F1.sol\":9674:9675  1 */\n      0x01\n        /* \"/home/rocha/Proyects/Solidity/F1Bet/ethereum/contracts/F1.sol\":9661:9670  approvers */\n      0x09\n      0x00\n        /* \"/home/rocha/Proyects/Solidity/F1Bet/ethereum/contracts/F1.sol\":9661:9675  approvers += 1 */\n      dup3\n      dup3\n      sload\n      tag_186\n      swap2\n      swap1\n      tag_187\n      jump\t// in\n    tag_186:\n      swap3\n      pop\n      pop\n      dup2\n      swap1\n      sstore\n      pop\n        /* \"/home/rocha/Proyects/Solidity/F1Bet/ethereum/contracts/F1.sol\":9708:9712  true */\n      0x01\n        /* \"/home/rocha/Proyects/Solidity/F1Bet/ethereum/contracts/F1.sol\":9685:9693  hasVoted */\n      0x08\n        /* \"/home/rocha/Proyects/Solidity/F1Bet/ethereum/contracts/F1.sol\":9685:9705  hasVoted[msg.sender] */\n      0x00\n        /* \"/home/rocha/Proyects/Solidity/F1Bet/ethereum/contracts/F1.sol\":9694:9704  msg.sender */\n      caller\n        /* \"/home/rocha/Proyects/Solidity/F1Bet/ethereum/contracts/F1.sol\":9685:9705  hasVoted[msg.sender] */\n      0xffffffffffffffffffffffffffffffffffffffff\n      and\n      0xffffffffffffffffffffffffffffffffffffffff\n      and\n      dup2\n      mstore\n      0x20\n      add\n      swap1\n      dup2\n      mstore\n      0x20\n      add\n      0x00\n      keccak256\n      0x00\n        /* \"/home/rocha/Proyects/Solidity/F1Bet/ethereum/contracts/F1.sol\":9685:9712  hasVoted[msg.sender] = true */\n      0x0100\n      exp\n      dup2\n      sload\n      dup2\n      0xff\n      mul\n      not\n      and\n      swap1\n      dup4\n      iszero\n      iszero\n      mul\n      or\n      swap1\n      sstore\n      pop\n        /* \"/home/rocha/Proyects/Solidity/F1Bet/ethereum/contracts/F1.sol\":9756:9757  2 */\n      0x02\n        /* \"/home/rocha/Proyects/Solidity/F1Bet/ethereum/contracts/F1.sol\":9737:9748  contestants */\n      0x01\n        /* \"/home/rocha/Proyects/Solidity/F1Bet/ethereum/contracts/F1.sol\":9737:9755  contestants.length */\n      dup1\n      sload\n      swap1\n      pop\n        /* \"/home/rocha/Proyects/Solidity/F1Bet/ethereum/contracts/F1.sol\":9737:9757  contestants.length/2 */\n      tag_188\n      swap2\n      swap1\n      tag_189\n      jump\t// in\n    tag_188:\n        /* \"/home/rocha/Proyects/Solidity/F1Bet/ethereum/contracts/F1.sol\":9725:9734  approvers */\n      sload(0x09)\n        /* \"/home/rocha/Proyects/Solidity/F1Bet/ethereum/contracts/F1.sol\":9725:9757  approvers > contestants.length/2 */\n      gt\n        /* \"/home/rocha/Proyects/Solidity/F1Bet/ethereum/contracts/F1.sol\":9722:9821  if(approvers > contestants.length/2){... */\n      iszero\n      tag_190\n      jumpi\n        /* \"/home/rocha/Proyects/Solidity/F1Bet/ethereum/contracts/F1.sol\":9772:9778  winner */\n      0x02\n      0x00\n      swap1\n      sload\n      swap1\n      0x0100\n      exp\n      swap1\n      div\n      0xffffffffffffffffffffffffffffffffffffffff\n      and\n        /* \"/home/rocha/Proyects/Solidity/F1Bet/ethereum/contracts/F1.sol\":9772:9787  winner.transfer */\n      0xffffffffffffffffffffffffffffffffffffffff\n      and\n        /* \"/home/rocha/Proyects/Solidity/F1Bet/ethereum/contracts/F1.sol\":9772:9810  winner.transfer(address(this).balance) */\n      0x08fc\n        /* \"/home/rocha/Proyects/Solidity/F1Bet/ethereum/contracts/F1.sol\":9788:9809  address(this).balance */\n      selfbalance\n        /* \"/home/rocha/Proyects/Solidity/F1Bet/ethereum/contracts/F1.sol\":9772:9810  winner.transfer(address(this).balance) */\n      swap1\n      dup2\n      iszero\n      mul\n      swap1\n      mload(0x40)\n      0x00\n      mload(0x40)\n      dup1\n      dup4\n      sub\n      dup2\n      dup6\n      dup9\n      dup9\n      call\n      swap4\n      pop\n      pop\n      pop\n      pop\n      iszero\n      dup1\n      iszero\n      tag_192\n      jumpi\n      returndatasize\n      0x00\n      dup1\n      returndatacopy\n      revert(0x00, returndatasize)\n    tag_192:\n      pop\n        /* \"/home/rocha/Proyects/Solidity/F1Bet/ethereum/contracts/F1.sol\":9722:9821  if(approvers > contestants.length/2){... */\n    tag_190:\n        /* \"/home/rocha/Proyects/Solidity/F1Bet/ethereum/contracts/F1.sol\":956:1193  {... */\n      pop\n        /* \"/home/rocha/Proyects/Solidity/F1Bet/ethereum/contracts/F1.sol\":9557:9827  function acceptWinner() public payable isOnBet{... */\n      jump\t// out\n        /* \"/home/rocha/Proyects/Solidity/F1Bet/ethereum/contracts/F1.sol\":10296:10422  function getContestansChPoints() public view isOnBet returns(uint){... */\n    tag_66:\n        /* \"/home/rocha/Proyects/Solidity/F1Bet/ethereum/contracts/F1.sol\":10357:10361  uint */\n      0x00\n        /* \"/home/rocha/Proyects/Solidity/F1Bet/ethereum/contracts/F1.sol\":966:983  bool isContestant */\n      dup1\n        /* \"/home/rocha/Proyects/Solidity/F1Bet/ethereum/contracts/F1.sol\":998:1005  uint8 i */\n      0x00\n        /* \"/home/rocha/Proyects/Solidity/F1Bet/ethereum/contracts/F1.sol\":993:1145  for (uint8 i = 0; i < contestants.length; ++i) {... */\n    tag_194:\n        /* \"/home/rocha/Proyects/Solidity/F1Bet/ethereum/contracts/F1.sol\":1015:1026  contestants */\n      0x01\n        /* \"/home/rocha/Proyects/Solidity/F1Bet/ethereum/contracts/F1.sol\":1015:1033  contestants.length */\n      dup1\n      sload\n      swap1\n      pop\n        /* \"/home/rocha/Proyects/Solidity/F1Bet/ethereum/contracts/F1.sol\":1011:1012  i */\n      dup2\n        /* \"/home/rocha/Proyects/Solidity/F1Bet/ethereum/contracts/F1.sol\":1011:1033  i < contestants.length */\n      0xff\n      and\n      lt\n        /* \"/home/rocha/Proyects/Solidity/F1Bet/ethereum/contracts/F1.sol\":993:1145  for (uint8 i = 0; i < contestants.length; ++i) {... */\n      iszero\n      tag_195\n      jumpi\n        /* \"/home/rocha/Proyects/Solidity/F1Bet/ethereum/contracts/F1.sol\":1073:1083  msg.sender */\n      caller\n        /* \"/home/rocha/Proyects/Solidity/F1Bet/ethereum/contracts/F1.sol\":1057:1083  contestants[i]==msg.sender */\n      0xffffffffffffffffffffffffffffffffffffffff\n      and\n        /* \"/home/rocha/Proyects/Solidity/F1Bet/ethereum/contracts/F1.sol\":1057:1068  contestants */\n      0x01\n        /* \"/home/rocha/Proyects/Solidity/F1Bet/ethereum/contracts/F1.sol\":1069:1070  i */\n      dup3\n        /* \"/home/rocha/Proyects/Solidity/F1Bet/ethereum/contracts/F1.sol\":1057:1071  contestants[i] */\n      0xff\n      and\n      dup2\n      sload\n      dup2\n      lt\n      tag_197\n      jumpi\n      tag_198\n      tag_103\n      jump\t// in\n    tag_198:\n    tag_197:\n      swap1\n      0x00\n      mstore\n      keccak256(0x00, 0x20)\n      add\n      0x00\n      swap1\n      sload\n      swap1\n      0x0100\n      exp\n      swap1\n      div\n      0xffffffffffffffffffffffffffffffffffffffff\n      and\n        /* \"/home/rocha/Proyects/Solidity/F1Bet/ethereum/contracts/F1.sol\":1057:1083  contestants[i]==msg.sender */\n      0xffffffffffffffffffffffffffffffffffffffff\n      and\n      eq\n        /* \"/home/rocha/Proyects/Solidity/F1Bet/ethereum/contracts/F1.sol\":1054:1135  if(contestants[i]==msg.sender){... */\n      iszero\n      tag_200\n      jumpi\n        /* \"/home/rocha/Proyects/Solidity/F1Bet/ethereum/contracts/F1.sol\":1116:1120  true */\n      0x01\n        /* \"/home/rocha/Proyects/Solidity/F1Bet/ethereum/contracts/F1.sol\":1101:1120  isContestant = true */\n      swap2\n      pop\n        /* \"/home/rocha/Proyects/Solidity/F1Bet/ethereum/contracts/F1.sol\":1054:1135  if(contestants[i]==msg.sender){... */\n    tag_200:\n        /* \"/home/rocha/Proyects/Solidity/F1Bet/ethereum/contracts/F1.sol\":1035:1038  ++i */\n      dup1\n      tag_201\n      swap1\n      tag_107\n      jump\t// in\n    tag_201:\n      swap1\n      pop\n        /* \"/home/rocha/Proyects/Solidity/F1Bet/ethereum/contracts/F1.sol\":993:1145  for (uint8 i = 0; i < contestants.length; ++i) {... */\n      jump(tag_194)\n    tag_195:\n      pop\n        /* \"/home/rocha/Proyects/Solidity/F1Bet/ethereum/contracts/F1.sol\":1162:1174  isContestant */\n      dup1\n        /* \"/home/rocha/Proyects/Solidity/F1Bet/ethereum/contracts/F1.sol\":1154:1175  require(isContestant) */\n      tag_202\n      jumpi\n      0x00\n      dup1\n      revert\n    tag_202:\n        /* \"/home/rocha/Proyects/Solidity/F1Bet/ethereum/contracts/F1.sol\":10380:10391  predictions */\n      0x00\n        /* \"/home/rocha/Proyects/Solidity/F1Bet/ethereum/contracts/F1.sol\":10380:10403  predictions[msg.sender] */\n      dup1\n        /* \"/home/rocha/Proyects/Solidity/F1Bet/ethereum/contracts/F1.sol\":10392:10402  msg.sender */\n      caller\n        /* \"/home/rocha/Proyects/Solidity/F1Bet/ethereum/contracts/F1.sol\":10380:10403  predictions[msg.sender] */\n      0xffffffffffffffffffffffffffffffffffffffff\n      and\n      0xffffffffffffffffffffffffffffffffffffffff\n      and\n      dup2\n      mstore\n      0x20\n      add\n      swap1\n      dup2\n      mstore\n      0x20\n      add\n      0x00\n      keccak256\n        /* \"/home/rocha/Proyects/Solidity/F1Bet/ethereum/contracts/F1.sol\":10380:10415  predictions[msg.sender].checoPoints */\n      0x05\n      add\n      sload\n        /* \"/home/rocha/Proyects/Solidity/F1Bet/ethereum/contracts/F1.sol\":10372:10415  return  predictions[msg.sender].checoPoints */\n      swap2\n      pop\n        /* \"/home/rocha/Proyects/Solidity/F1Bet/ethereum/contracts/F1.sol\":956:1193  {... */\n      pop\n        /* \"/home/rocha/Proyects/Solidity/F1Bet/ethereum/contracts/F1.sol\":10296:10422  function getContestansChPoints() public view isOnBet returns(uint){... */\n      swap1\n      jump\t// out\n        /* \"/home/rocha/Proyects/Solidity/F1Bet/ethereum/contracts/F1.sol\":2135:2367  function predictDriversTable(string[] memory _driversP)public isOnBet{... */\n    tag_71:\n        /* \"/home/rocha/Proyects/Solidity/F1Bet/ethereum/contracts/F1.sol\":966:983  bool isContestant */\n      0x00\n        /* \"/home/rocha/Proyects/Solidity/F1Bet/ethereum/contracts/F1.sol\":998:1005  uint8 i */\n      dup1\n        /* \"/home/rocha/Proyects/Solidity/F1Bet/ethereum/contracts/F1.sol\":1008:1009  0 */\n      0x00\n        /* \"/home/rocha/Proyects/Solidity/F1Bet/ethereum/contracts/F1.sol\":998:1009  uint8 i = 0 */\n      swap1\n      pop\n        /* \"/home/rocha/Proyects/Solidity/F1Bet/ethereum/contracts/F1.sol\":993:1145  for (uint8 i = 0; i < contestants.length; ++i) {... */\n    tag_205:\n        /* \"/home/rocha/Proyects/Solidity/F1Bet/ethereum/contracts/F1.sol\":1015:1026  contestants */\n      0x01\n        /* \"/home/rocha/Proyects/Solidity/F1Bet/ethereum/contracts/F1.sol\":1015:1033  contestants.length */\n      dup1\n      sload\n      swap1\n      pop\n        /* \"/home/rocha/Proyects/Solidity/F1Bet/ethereum/contracts/F1.sol\":1011:1012  i */\n      dup2\n        /* \"/home/rocha/Proyects/Solidity/F1Bet/ethereum/contracts/F1.sol\":1011:1033  i < contestants.length */\n      0xff\n      and\n      lt\n        /* \"/home/rocha/Proyects/Solidity/F1Bet/ethereum/contracts/F1.sol\":993:1145  for (uint8 i = 0; i < contestants.length; ++i) {... */\n      iszero\n      tag_206\n      jumpi\n        /* \"/home/rocha/Proyects/Solidity/F1Bet/ethereum/contracts/F1.sol\":1073:1083  msg.sender */\n      caller\n        /* \"/home/rocha/Proyects/Solidity/F1Bet/ethereum/contracts/F1.sol\":1057:1083  contestants[i]==msg.sender */\n      0xffffffffffffffffffffffffffffffffffffffff\n      and\n        /* \"/home/rocha/Proyects/Solidity/F1Bet/ethereum/contracts/F1.sol\":1057:1068  contestants */\n      0x01\n        /* \"/home/rocha/Proyects/Solidity/F1Bet/ethereum/contracts/F1.sol\":1069:1070  i */\n      dup3\n        /* \"/home/rocha/Proyects/Solidity/F1Bet/ethereum/contracts/F1.sol\":1057:1071  contestants[i] */\n      0xff\n      and\n      dup2\n      sload\n      dup2\n      lt\n      tag_208\n      jumpi\n      tag_209\n      tag_103\n      jump\t// in\n    tag_209:\n    tag_208:\n      swap1\n      0x00\n      mstore\n      keccak256(0x00, 0x20)\n      add\n      0x00\n      swap1\n      sload\n      swap1\n      0x0100\n      exp\n      swap1\n      div\n      0xffffffffffffffffffffffffffffffffffffffff\n      and\n        /* \"/home/rocha/Proyects/Solidity/F1Bet/ethereum/contracts/F1.sol\":1057:1083  contestants[i]==msg.sender */\n      0xffffffffffffffffffffffffffffffffffffffff\n      and\n      eq\n        /* \"/home/rocha/Proyects/Solidity/F1Bet/ethereum/contracts/F1.sol\":1054:1135  if(contestants[i]==msg.sender){... */\n      iszero\n      tag_211\n      jumpi\n        /* \"/home/rocha/Proyects/Solidity/F1Bet/ethereum/contracts/F1.sol\":1116:1120  true */\n      0x01\n        /* \"/home/rocha/Proyects/Solidity/F1Bet/ethereum/contracts/F1.sol\":1101:1120  isContestant = true */\n      swap2\n      pop\n        /* \"/home/rocha/Proyects/Solidity/F1Bet/ethereum/contracts/F1.sol\":1054:1135  if(contestants[i]==msg.sender){... */\n    tag_211:\n        /* \"/home/rocha/Proyects/Solidity/F1Bet/ethereum/contracts/F1.sol\":1035:1038  ++i */\n      dup1\n      tag_212\n      swap1\n      tag_107\n      jump\t// in\n    tag_212:\n      swap1\n      pop\n        /* \"/home/rocha/Proyects/Solidity/F1Bet/ethereum/contracts/F1.sol\":993:1145  for (uint8 i = 0; i < contestants.length; ++i) {... */\n      jump(tag_205)\n    tag_206:\n      pop\n        /* \"/home/rocha/Proyects/Solidity/F1Bet/ethereum/contracts/F1.sol\":1162:1174  isContestant */\n      dup1\n        /* \"/home/rocha/Proyects/Solidity/F1Bet/ethereum/contracts/F1.sol\":1154:1175  require(isContestant) */\n      tag_213\n      jumpi\n      0x00\n      dup1\n      revert\n    tag_213:\n        /* \"/home/rocha/Proyects/Solidity/F1Bet/ethereum/contracts/F1.sol\":2242:2244  20 */\n      0x14\n        /* \"/home/rocha/Proyects/Solidity/F1Bet/ethereum/contracts/F1.sol\":2222:2231  _driversP */\n      dup3\n        /* \"/home/rocha/Proyects/Solidity/F1Bet/ethereum/contracts/F1.sol\":2222:2238  _driversP.length */\n      mload\n        /* \"/home/rocha/Proyects/Solidity/F1Bet/ethereum/contracts/F1.sol\":2222:2244  _driversP.length == 20 */\n      eq\n        /* \"/home/rocha/Proyects/Solidity/F1Bet/ethereum/contracts/F1.sol\":2214:2245  require(_driversP.length == 20) */\n      tag_215\n      jumpi\n      0x00\n      dup1\n      revert\n    tag_215:\n        /* \"/home/rocha/Proyects/Solidity/F1Bet/ethereum/contracts/F1.sol\":2305:2306  0 */\n      0x00\n        /* \"/home/rocha/Proyects/Solidity/F1Bet/ethereum/contracts/F1.sol\":2263:2274  predictions */\n      dup1\n        /* \"/home/rocha/Proyects/Solidity/F1Bet/ethereum/contracts/F1.sol\":2263:2286  predictions[msg.sender] */\n      0x00\n        /* \"/home/rocha/Proyects/Solidity/F1Bet/ethereum/contracts/F1.sol\":2275:2285  msg.sender */\n      caller\n        /* \"/home/rocha/Proyects/Solidity/F1Bet/ethereum/contracts/F1.sol\":2263:2286  predictions[msg.sender] */\n      0xffffffffffffffffffffffffffffffffffffffff\n      and\n      0xffffffffffffffffffffffffffffffffffffffff\n      and\n      dup2\n      mstore\n      0x20\n      add\n      swap1\n      dup2\n      mstore\n      0x20\n      add\n      0x00\n      keccak256\n        /* \"/home/rocha/Proyects/Solidity/F1Bet/ethereum/contracts/F1.sol\":2263:2294  predictions[msg.sender].drivers */\n      0x01\n      add\n        /* \"/home/rocha/Proyects/Solidity/F1Bet/ethereum/contracts/F1.sol\":2263:2301  predictions[msg.sender].drivers.length */\n      dup1\n      sload\n      swap1\n      pop\n        /* \"/home/rocha/Proyects/Solidity/F1Bet/ethereum/contracts/F1.sol\":2263:2306  predictions[msg.sender].drivers.length == 0 */\n      eq\n        /* \"/home/rocha/Proyects/Solidity/F1Bet/ethereum/contracts/F1.sol\":2255:2307  require(predictions[msg.sender].drivers.length == 0) */\n      tag_216\n      jumpi\n      0x00\n      dup1\n      revert\n    tag_216:\n        /* \"/home/rocha/Proyects/Solidity/F1Bet/ethereum/contracts/F1.sol\":2351:2360  _driversP */\n      dup2\n        /* \"/home/rocha/Proyects/Solidity/F1Bet/ethereum/contracts/F1.sol\":2317:2328  predictions */\n      0x00\n        /* \"/home/rocha/Proyects/Solidity/F1Bet/ethereum/contracts/F1.sol\":2317:2340  predictions[msg.sender] */\n      dup1\n        /* \"/home/rocha/Proyects/Solidity/F1Bet/ethereum/contracts/F1.sol\":2329:2339  msg.sender */\n      caller\n        /* \"/home/rocha/Proyects/Solidity/F1Bet/ethereum/contracts/F1.sol\":2317:2340  predictions[msg.sender] */\n      0xffffffffffffffffffffffffffffffffffffffff\n      and\n      0xffffffffffffffffffffffffffffffffffffffff\n      and\n      dup2\n      mstore\n      0x20\n      add\n      swap1\n      dup2\n      mstore\n      0x20\n      add\n      0x00\n      keccak256\n        /* \"/home/rocha/Proyects/Solidity/F1Bet/ethereum/contracts/F1.sol\":2317:2348  predictions[msg.sender].drivers */\n      0x01\n      add\n        /* \"/home/rocha/Proyects/Solidity/F1Bet/ethereum/contracts/F1.sol\":2317:2360  predictions[msg.sender].drivers = _driversP */\n      swap1\n      dup1\n      mload\n      swap1\n      0x20\n      add\n      swap1\n      tag_217\n      swap3\n      swap2\n      swap1\n      tag_113\n      jump\t// in\n    tag_217:\n      pop\n        /* \"/home/rocha/Proyects/Solidity/F1Bet/ethereum/contracts/F1.sol\":956:1193  {... */\n      pop\n        /* \"/home/rocha/Proyects/Solidity/F1Bet/ethereum/contracts/F1.sol\":2135:2367  function predictDriversTable(string[] memory _driversP)public isOnBet{... */\n      pop\n      jump\t// out\n        /* \"/home/rocha/Proyects/Solidity/F1Bet/ethereum/contracts/F1.sol\":1605:1756  function enterBet()  public payable notOnBet{... */\n    tag_73:\n        /* \"/home/rocha/Proyects/Solidity/F1Bet/ethereum/contracts/F1.sol\":746:753  uint8 i */\n      0x00\n        /* \"/home/rocha/Proyects/Solidity/F1Bet/ethereum/contracts/F1.sol\":741:916  for (uint8 i = 0; i < contestants.length; ++i) {... */\n    tag_219:\n        /* \"/home/rocha/Proyects/Solidity/F1Bet/ethereum/contracts/F1.sol\":763:774  contestants */\n      0x01\n        /* \"/home/rocha/Proyects/Solidity/F1Bet/ethereum/contracts/F1.sol\":763:781  contestants.length */\n      dup1\n      sload\n      swap1\n      pop\n        /* \"/home/rocha/Proyects/Solidity/F1Bet/ethereum/contracts/F1.sol\":759:760  i */\n      dup2\n        /* \"/home/rocha/Proyects/Solidity/F1Bet/ethereum/contracts/F1.sol\":759:781  i < contestants.length */\n      0xff\n      and\n      lt\n        /* \"/home/rocha/Proyects/Solidity/F1Bet/ethereum/contracts/F1.sol\":741:916  for (uint8 i = 0; i < contestants.length; ++i) {... */\n      iszero\n      tag_220\n      jumpi\n        /* \"/home/rocha/Proyects/Solidity/F1Bet/ethereum/contracts/F1.sol\":821:831  msg.sender */\n      caller\n        /* \"/home/rocha/Proyects/Solidity/F1Bet/ethereum/contracts/F1.sol\":805:831  contestants[i]==msg.sender */\n      0xffffffffffffffffffffffffffffffffffffffff\n      and\n        /* \"/home/rocha/Proyects/Solidity/F1Bet/ethereum/contracts/F1.sol\":805:816  contestants */\n      0x01\n        /* \"/home/rocha/Proyects/Solidity/F1Bet/ethereum/contracts/F1.sol\":817:818  i */\n      dup3\n        /* \"/home/rocha/Proyects/Solidity/F1Bet/ethereum/contracts/F1.sol\":805:819  contestants[i] */\n      0xff\n      and\n      dup2\n      sload\n      dup2\n      lt\n      tag_222\n      jumpi\n      tag_223\n      tag_103\n      jump\t// in\n    tag_223:\n    tag_222:\n      swap1\n      0x00\n      mstore\n      keccak256(0x00, 0x20)\n      add\n      0x00\n      swap1\n      sload\n      swap1\n      0x0100\n      exp\n      swap1\n      div\n      0xffffffffffffffffffffffffffffffffffffffff\n      and\n        /* \"/home/rocha/Proyects/Solidity/F1Bet/ethereum/contracts/F1.sol\":805:831  contestants[i]==msg.sender */\n      0xffffffffffffffffffffffffffffffffffffffff\n      and\n      eq\n        /* \"/home/rocha/Proyects/Solidity/F1Bet/ethereum/contracts/F1.sol\":802:906  if(contestants[i]==msg.sender){... */\n      iszero\n      tag_225\n      jumpi\n        /* \"/home/rocha/Proyects/Solidity/F1Bet/ethereum/contracts/F1.sol\":850:891  revert(\"Contestant is alrady in the bet\") */\n      mload(0x40)\n      0x08c379a000000000000000000000000000000000000000000000000000000000\n      dup2\n      mstore\n      0x04\n      add\n      tag_226\n      swap1\n      tag_227\n      jump\t// in\n    tag_226:\n      mload(0x40)\n      dup1\n      swap2\n      sub\n      swap1\n      revert\n        /* \"/home/rocha/Proyects/Solidity/F1Bet/ethereum/contracts/F1.sol\":802:906  if(contestants[i]==msg.sender){... */\n    tag_225:\n        /* \"/home/rocha/Proyects/Solidity/F1Bet/ethereum/contracts/F1.sol\":783:786  ++i */\n      dup1\n      tag_228\n      swap1\n      tag_107\n      jump\t// in\n    tag_228:\n      swap1\n      pop\n        /* \"/home/rocha/Proyects/Solidity/F1Bet/ethereum/contracts/F1.sol\":741:916  for (uint8 i = 0; i < contestants.length; ++i) {... */\n      jump(tag_219)\n    tag_220:\n      pop\n        /* \"/home/rocha/Proyects/Solidity/F1Bet/ethereum/contracts/F1.sol\":1679:1682  bet */\n      sload(0x07)\n        /* \"/home/rocha/Proyects/Solidity/F1Bet/ethereum/contracts/F1.sol\":1667:1676  msg.value */\n      callvalue\n        /* \"/home/rocha/Proyects/Solidity/F1Bet/ethereum/contracts/F1.sol\":1667:1682  msg.value > bet */\n      gt\n        /* \"/home/rocha/Proyects/Solidity/F1Bet/ethereum/contracts/F1.sol\":1659:1683  require(msg.value > bet) */\n      tag_230\n      jumpi\n      0x00\n      dup1\n      revert\n    tag_230:\n        /* \"/home/rocha/Proyects/Solidity/F1Bet/ethereum/contracts/F1.sol\":1702:1711  msg.value */\n      callvalue\n        /* \"/home/rocha/Proyects/Solidity/F1Bet/ethereum/contracts/F1.sol\":1693:1698  price */\n      0x03\n      0x00\n        /* \"/home/rocha/Proyects/Solidity/F1Bet/ethereum/contracts/F1.sol\":1693:1711  price += msg.value */\n      dup3\n      dup3\n      sload\n      tag_231\n      swap2\n      swap1\n      tag_187\n      jump\t// in\n    tag_231:\n      swap3\n      pop\n      pop\n      dup2\n      swap1\n      sstore\n      pop\n        /* \"/home/rocha/Proyects/Solidity/F1Bet/ethereum/contracts/F1.sol\":1721:1732  contestants */\n      0x01\n        /* \"/home/rocha/Proyects/Solidity/F1Bet/ethereum/contracts/F1.sol\":1738:1748  msg.sender */\n      caller\n        /* \"/home/rocha/Proyects/Solidity/F1Bet/ethereum/contracts/F1.sol\":1721:1749  contestants.push(msg.sender) */\n      swap1\n      dup1\n      0x01\n      dup2\n      sload\n      add\n      dup1\n      dup3\n      sstore\n      dup1\n      swap2\n      pop\n      pop\n      0x01\n      swap1\n      sub\n      swap1\n      0x00\n      mstore\n      keccak256(0x00, 0x20)\n      add\n      0x00\n      swap1\n      swap2\n      swap1\n      swap2\n      swap1\n      swap2\n      0x0100\n      exp\n      dup2\n      sload\n      dup2\n      0xffffffffffffffffffffffffffffffffffffffff\n      mul\n      not\n      and\n      swap1\n      dup4\n      0xffffffffffffffffffffffffffffffffffffffff\n      and\n      mul\n      or\n      swap1\n      sstore\n      pop\n        /* \"/home/rocha/Proyects/Solidity/F1Bet/ethereum/contracts/F1.sol\":1605:1756  function enterBet()  public payable notOnBet{... */\n      jump\t// out\n        /* \"/home/rocha/Proyects/Solidity/F1Bet/ethereum/contracts/F1.sol\":1762:1861  function getContestants() public view returns( address[] memory){... */\n    tag_76:\n        /* \"/home/rocha/Proyects/Solidity/F1Bet/ethereum/contracts/F1.sol\":1809:1825  address[] memory */\n      0x60\n        /* \"/home/rocha/Proyects/Solidity/F1Bet/ethereum/contracts/F1.sol\":1843:1854  contestants */\n      0x01\n        /* \"/home/rocha/Proyects/Solidity/F1Bet/ethereum/contracts/F1.sol\":1836:1854  return contestants */\n      dup1\n      sload\n      dup1\n      0x20\n      mul\n      0x20\n      add\n      mload(0x40)\n      swap1\n      dup2\n      add\n      0x40\n      mstore\n      dup1\n      swap3\n      swap2\n      swap1\n      dup2\n      dup2\n      mstore\n      0x20\n      add\n      dup3\n      dup1\n      sload\n      dup1\n      iszero\n      tag_234\n      jumpi\n      0x20\n      mul\n      dup3\n      add\n      swap2\n      swap1\n      0x00\n      mstore\n      keccak256(0x00, 0x20)\n      swap1\n    tag_235:\n      dup2\n      0x00\n      swap1\n      sload\n      swap1\n      0x0100\n      exp\n      swap1\n      div\n      0xffffffffffffffffffffffffffffffffffffffff\n      and\n      0xffffffffffffffffffffffffffffffffffffffff\n      and\n      dup2\n      mstore\n      0x20\n      add\n      swap1\n      0x01\n      add\n      swap1\n      dup1\n      dup4\n      gt\n      tag_235\n      jumpi\n    tag_234:\n      pop\n      pop\n      pop\n      pop\n      pop\n      swap1\n      pop\n        /* \"/home/rocha/Proyects/Solidity/F1Bet/ethereum/contracts/F1.sol\":1762:1861  function getContestants() public view returns( address[] memory){... */\n      swap1\n      jump\t// out\n        /* \"/home/rocha/Proyects/Solidity/F1Bet/ethereum/contracts/F1.sol\":1283:1404  function setConstructorsTable(string[] memory _constructors)public isManager{... */\n    tag_82:\n        /* \"/home/rocha/Proyects/Solidity/F1Bet/ethereum/contracts/F1.sol\":1251:1258  manager */\n      0x06\n      0x01\n      swap1\n      sload\n      swap1\n      0x0100\n      exp\n      swap1\n      div\n      0xffffffffffffffffffffffffffffffffffffffff\n      and\n        /* \"/home/rocha/Proyects/Solidity/F1Bet/ethereum/contracts/F1.sol\":1237:1258  msg.sender == manager */\n      0xffffffffffffffffffffffffffffffffffffffff\n      and\n        /* \"/home/rocha/Proyects/Solidity/F1Bet/ethereum/contracts/F1.sol\":1237:1247  msg.sender */\n      caller\n        /* \"/home/rocha/Proyects/Solidity/F1Bet/ethereum/contracts/F1.sol\":1237:1258  msg.sender == manager */\n      0xffffffffffffffffffffffffffffffffffffffff\n      and\n      eq\n        /* \"/home/rocha/Proyects/Solidity/F1Bet/ethereum/contracts/F1.sol\":1229:1259  require(msg.sender == manager) */\n      tag_237\n      jumpi\n      0x00\n      dup1\n      revert\n    tag_237:\n        /* \"/home/rocha/Proyects/Solidity/F1Bet/ethereum/contracts/F1.sol\":1384:1397  _constructors */\n      dup1\n        /* \"/home/rocha/Proyects/Solidity/F1Bet/ethereum/contracts/F1.sol\":1369:1381  constructors */\n      0x04\n        /* \"/home/rocha/Proyects/Solidity/F1Bet/ethereum/contracts/F1.sol\":1369:1397  constructors = _constructors */\n      swap1\n      dup1\n      mload\n      swap1\n      0x20\n      add\n      swap1\n      tag_239\n      swap3\n      swap2\n      swap1\n      tag_113\n      jump\t// in\n    tag_239:\n      pop\n        /* \"/home/rocha/Proyects/Solidity/F1Bet/ethereum/contracts/F1.sol\":1283:1404  function setConstructorsTable(string[] memory _constructors)public isManager{... */\n      pop\n      jump\t// out\n        /* \"/home/rocha/Proyects/Solidity/F1Bet/ethereum/contracts/F1.sol\":386:415  address payable public winner */\n    tag_85:\n      0x02\n      0x00\n      swap1\n      sload\n      swap1\n      0x0100\n      exp\n      swap1\n      div\n      0xffffffffffffffffffffffffffffffffffffffff\n      and\n      dup2\n      jump\t// out\n        /* \"/home/rocha/Proyects/Solidity/F1Bet/ethereum/contracts/F1.sol\":10427:10552  function getContestansTPoints() public view isOnBet returns(uint){... */\n    tag_90:\n        /* \"/home/rocha/Proyects/Solidity/F1Bet/ethereum/contracts/F1.sol\":10487:10491  uint */\n      0x00\n        /* \"/home/rocha/Proyects/Solidity/F1Bet/ethereum/contracts/F1.sol\":966:983  bool isContestant */\n      dup1\n        /* \"/home/rocha/Proyects/Solidity/F1Bet/ethereum/contracts/F1.sol\":998:1005  uint8 i */\n      0x00\n        /* \"/home/rocha/Proyects/Solidity/F1Bet/ethereum/contracts/F1.sol\":993:1145  for (uint8 i = 0; i < contestants.length; ++i) {... */\n    tag_241:\n        /* \"/home/rocha/Proyects/Solidity/F1Bet/ethereum/contracts/F1.sol\":1015:1026  contestants */\n      0x01\n        /* \"/home/rocha/Proyects/Solidity/F1Bet/ethereum/contracts/F1.sol\":1015:1033  contestants.length */\n      dup1\n      sload\n      swap1\n      pop\n        /* \"/home/rocha/Proyects/Solidity/F1Bet/ethereum/contracts/F1.sol\":1011:1012  i */\n      dup2\n        /* \"/home/rocha/Proyects/Solidity/F1Bet/ethereum/contracts/F1.sol\":1011:1033  i < contestants.length */\n      0xff\n      and\n      lt\n        /* \"/home/rocha/Proyects/Solidity/F1Bet/ethereum/contracts/F1.sol\":993:1145  for (uint8 i = 0; i < contestants.length; ++i) {... */\n      iszero\n      tag_242\n      jumpi\n        /* \"/home/rocha/Proyects/Solidity/F1Bet/ethereum/contracts/F1.sol\":1073:1083  msg.sender */\n      caller\n        /* \"/home/rocha/Proyects/Solidity/F1Bet/ethereum/contracts/F1.sol\":1057:1083  contestants[i]==msg.sender */\n      0xffffffffffffffffffffffffffffffffffffffff\n      and\n        /* \"/home/rocha/Proyects/Solidity/F1Bet/ethereum/contracts/F1.sol\":1057:1068  contestants */\n      0x01\n        /* \"/home/rocha/Proyects/Solidity/F1Bet/ethereum/contracts/F1.sol\":1069:1070  i */\n      dup3\n        /* \"/home/rocha/Proyects/Solidity/F1Bet/ethereum/contracts/F1.sol\":1057:1071  contestants[i] */\n      0xff\n      and\n      dup2\n      sload\n      dup2\n      lt\n      tag_244\n      jumpi\n      tag_245\n      tag_103\n      jump\t// in\n    tag_245:\n    tag_244:\n      swap1\n      0x00\n      mstore\n      keccak256(0x00, 0x20)\n      add\n      0x00\n      swap1\n      sload\n      swap1\n      0x0100\n      exp\n      swap1\n      div\n      0xffffffffffffffffffffffffffffffffffffffff\n      and\n        /* \"/home/rocha/Proyects/Solidity/F1Bet/ethereum/contracts/F1.sol\":1057:1083  contestants[i]==msg.sender */\n      0xffffffffffffffffffffffffffffffffffffffff\n      and\n      eq\n        /* \"/home/rocha/Proyects/Solidity/F1Bet/ethereum/contracts/F1.sol\":1054:1135  if(contestants[i]==msg.sender){... */\n      iszero\n      tag_247\n      jumpi\n        /* \"/home/rocha/Proyects/Solidity/F1Bet/ethereum/contracts/F1.sol\":1116:1120  true */\n      0x01\n        /* \"/home/rocha/Proyects/Solidity/F1Bet/ethereum/contracts/F1.sol\":1101:1120  isContestant = true */\n      swap2\n      pop\n        /* \"/home/rocha/Proyects/Solidity/F1Bet/ethereum/contracts/F1.sol\":1054:1135  if(contestants[i]==msg.sender){... */\n    tag_247:\n        /* \"/home/rocha/Proyects/Solidity/F1Bet/ethereum/contracts/F1.sol\":1035:1038  ++i */\n      dup1\n      tag_248\n      swap1\n      tag_107\n      jump\t// in\n    tag_248:\n      swap1\n      pop\n        /* \"/home/rocha/Proyects/Solidity/F1Bet/ethereum/contracts/F1.sol\":993:1145  for (uint8 i = 0; i < contestants.length; ++i) {... */\n      jump(tag_241)\n    tag_242:\n      pop\n        /* \"/home/rocha/Proyects/Solidity/F1Bet/ethereum/contracts/F1.sol\":1162:1174  isContestant */\n      dup1\n        /* \"/home/rocha/Proyects/Solidity/F1Bet/ethereum/contracts/F1.sol\":1154:1175  require(isContestant) */\n      tag_249\n      jumpi\n      0x00\n      dup1\n      revert\n    tag_249:\n        /* \"/home/rocha/Proyects/Solidity/F1Bet/ethereum/contracts/F1.sol\":10510:10521  predictions */\n      0x00\n        /* \"/home/rocha/Proyects/Solidity/F1Bet/ethereum/contracts/F1.sol\":10510:10533  predictions[msg.sender] */\n      dup1\n        /* \"/home/rocha/Proyects/Solidity/F1Bet/ethereum/contracts/F1.sol\":10522:10532  msg.sender */\n      caller\n        /* \"/home/rocha/Proyects/Solidity/F1Bet/ethereum/contracts/F1.sol\":10510:10533  predictions[msg.sender] */\n      0xffffffffffffffffffffffffffffffffffffffff\n      and\n      0xffffffffffffffffffffffffffffffffffffffff\n      and\n      dup2\n      mstore\n      0x20\n      add\n      swap1\n      dup2\n      mstore\n      0x20\n      add\n      0x00\n      keccak256\n        /* \"/home/rocha/Proyects/Solidity/F1Bet/ethereum/contracts/F1.sol\":10510:10545  predictions[msg.sender].totalPoints */\n      0x06\n      add\n      sload\n        /* \"/home/rocha/Proyects/Solidity/F1Bet/ethereum/contracts/F1.sol\":10502:10545  return  predictions[msg.sender].totalPoints */\n      swap2\n      pop\n        /* \"/home/rocha/Proyects/Solidity/F1Bet/ethereum/contracts/F1.sol\":956:1193  {... */\n      pop\n        /* \"/home/rocha/Proyects/Solidity/F1Bet/ethereum/contracts/F1.sol\":10427:10552  function getContestansTPoints() public view isOnBet returns(uint){... */\n      swap1\n      jump\t// out\n        /* \"/home/rocha/Proyects/Solidity/F1Bet/ethereum/contracts/F1.sol\":486:508  uint8 public checoWins */\n    tag_94:\n      0x06\n      0x00\n      swap1\n      sload\n      swap1\n      0x0100\n      exp\n      swap1\n      div\n      0xff\n      and\n      dup2\n      jump\t// out\n        /* \"/home/rocha/Proyects/Solidity/F1Bet/ethereum/contracts/F1.sol\":2767:5700  function calculateConstructorsTable() private {... */\n    tag_137:\n        /* \"/home/rocha/Proyects/Solidity/F1Bet/ethereum/contracts/F1.sol\":2827:2834  uint8 i */\n      0x00\n        /* \"/home/rocha/Proyects/Solidity/F1Bet/ethereum/contracts/F1.sol\":2823:5689  for(uint8 i; i<contestants.length;i++){... */\n    tag_252:\n        /* \"/home/rocha/Proyects/Solidity/F1Bet/ethereum/contracts/F1.sol\":2838:2849  contestants */\n      0x01\n        /* \"/home/rocha/Proyects/Solidity/F1Bet/ethereum/contracts/F1.sol\":2838:2856  contestants.length */\n      dup1\n      sload\n      swap1\n      pop\n        /* \"/home/rocha/Proyects/Solidity/F1Bet/ethereum/contracts/F1.sol\":2836:2837  i */\n      dup2\n        /* \"/home/rocha/Proyects/Solidity/F1Bet/ethereum/contracts/F1.sol\":2836:2856  i<contestants.length */\n      0xff\n      and\n      lt\n        /* \"/home/rocha/Proyects/Solidity/F1Bet/ethereum/contracts/F1.sol\":2823:5689  for(uint8 i; i<contestants.length;i++){... */\n      iszero\n      tag_253\n      jumpi\n        /* \"/home/rocha/Proyects/Solidity/F1Bet/ethereum/contracts/F1.sol\":2875:2911  string[] memory contestantPrediction */\n      0x00\n        /* \"/home/rocha/Proyects/Solidity/F1Bet/ethereum/contracts/F1.sol\":2914:2925  predictions */\n      dup1\n        /* \"/home/rocha/Proyects/Solidity/F1Bet/ethereum/contracts/F1.sol\":2914:2941  predictions[contestants[i]] */\n      0x00\n        /* \"/home/rocha/Proyects/Solidity/F1Bet/ethereum/contracts/F1.sol\":2926:2937  contestants */\n      0x01\n        /* \"/home/rocha/Proyects/Solidity/F1Bet/ethereum/contracts/F1.sol\":2938:2939  i */\n      dup5\n        /* \"/home/rocha/Proyects/Solidity/F1Bet/ethereum/contracts/F1.sol\":2926:2940  contestants[i] */\n      0xff\n      and\n      dup2\n      sload\n      dup2\n      lt\n      tag_255\n      jumpi\n      tag_256\n      tag_103\n      jump\t// in\n    tag_256:\n    tag_255:\n      swap1\n      0x00\n      mstore\n      keccak256(0x00, 0x20)\n      add\n      0x00\n      swap1\n      sload\n      swap1\n      0x0100\n      exp\n      swap1\n      div\n      0xffffffffffffffffffffffffffffffffffffffff\n      and\n        /* \"/home/rocha/Proyects/Solidity/F1Bet/ethereum/contracts/F1.sol\":2914:2941  predictions[contestants[i]] */\n      0xffffffffffffffffffffffffffffffffffffffff\n      and\n      0xffffffffffffffffffffffffffffffffffffffff\n      and\n      dup2\n      mstore\n      0x20\n      add\n      swap1\n      dup2\n      mstore\n      0x20\n      add\n      0x00\n      keccak256\n        /* \"/home/rocha/Proyects/Solidity/F1Bet/ethereum/contracts/F1.sol\":2914:2954  predictions[contestants[i]].constructors */\n      0x00\n      add\n        /* \"/home/rocha/Proyects/Solidity/F1Bet/ethereum/contracts/F1.sol\":2875:2954  string[] memory contestantPrediction = predictions[contestants[i]].constructors */\n      dup1\n      sload\n      dup1\n      0x20\n      mul\n      0x20\n      add\n      mload(0x40)\n      swap1\n      dup2\n      add\n      0x40\n      mstore\n      dup1\n      swap3\n      swap2\n      swap1\n      dup2\n      dup2\n      mstore\n      0x20\n      add\n      0x00\n      swap1\n    tag_258:\n      dup3\n      dup3\n      lt\n      iszero\n      tag_259\n      jumpi\n      dup4\n      dup3\n      swap1\n      0x00\n      mstore\n      keccak256(0x00, 0x20)\n      add\n      dup1\n      sload\n      tag_261\n      swap1\n      tag_262\n      jump\t// in\n    tag_261:\n      dup1\n      0x1f\n      add\n      0x20\n      dup1\n      swap2\n      div\n      mul\n      0x20\n      add\n      mload(0x40)\n      swap1\n      dup2\n      add\n      0x40\n      mstore\n      dup1\n      swap3\n      swap2\n      swap1\n      dup2\n      dup2\n      mstore\n      0x20\n      add\n      dup3\n      dup1\n      sload\n      tag_263\n      swap1\n      tag_262\n      jump\t// in\n    tag_263:\n      dup1\n      iszero\n      tag_264\n      jumpi\n      dup1\n      0x1f\n      lt\n      tag_265\n      jumpi\n      0x0100\n      dup1\n      dup4\n      sload\n      div\n      mul\n      dup4\n      mstore\n      swap2\n      0x20\n      add\n      swap2\n      jump(tag_264)\n    tag_265:\n      dup3\n      add\n      swap2\n      swap1\n      0x00\n      mstore\n      keccak256(0x00, 0x20)\n      swap1\n    tag_266:\n      dup2\n      sload\n      dup2\n      mstore\n      swap1\n      0x01\n      add\n      swap1\n      0x20\n      add\n      dup1\n      dup4\n      gt\n      tag_266\n      jumpi\n      dup3\n      swap1\n      sub\n      0x1f\n      and\n      dup3\n      add\n      swap2\n    tag_264:\n      pop\n      pop\n      pop\n      pop\n      pop\n      dup2\n      mstore\n      0x20\n      add\n      swap1\n      0x01\n      add\n      swap1\n      jump(tag_258)\n    tag_259:\n      pop\n      pop\n      pop\n      pop\n      swap1\n      pop\n        /* \"/home/rocha/Proyects/Solidity/F1Bet/ethereum/contracts/F1.sol\":2968:2979  uint points */\n      0x00\n        /* \"/home/rocha/Proyects/Solidity/F1Bet/ethereum/contracts/F1.sol\":2997:3004  uint8 j */\n      dup1\n        /* \"/home/rocha/Proyects/Solidity/F1Bet/ethereum/contracts/F1.sol\":2993:5610  for(uint8 j; j<constructors.length;j++){... */\n    tag_267:\n        /* \"/home/rocha/Proyects/Solidity/F1Bet/ethereum/contracts/F1.sol\":3008:3020  constructors */\n      0x04\n        /* \"/home/rocha/Proyects/Solidity/F1Bet/ethereum/contracts/F1.sol\":3008:3027  constructors.length */\n      dup1\n      sload\n      swap1\n      pop\n        /* \"/home/rocha/Proyects/Solidity/F1Bet/ethereum/contracts/F1.sol\":3006:3007  j */\n      dup2\n        /* \"/home/rocha/Proyects/Solidity/F1Bet/ethereum/contracts/F1.sol\":3006:3027  j<constructors.length */\n      0xff\n      and\n      lt\n        /* \"/home/rocha/Proyects/Solidity/F1Bet/ethereum/contracts/F1.sol\":2993:5610  for(uint8 j; j<constructors.length;j++){... */\n      iszero\n      tag_268\n      jumpi\n        /* \"/home/rocha/Proyects/Solidity/F1Bet/ethereum/contracts/F1.sol\":3055:3056  1 */\n      0x01\n        /* \"/home/rocha/Proyects/Solidity/F1Bet/ethereum/contracts/F1.sol\":3053:3054  j */\n      dup2\n        /* \"/home/rocha/Proyects/Solidity/F1Bet/ethereum/contracts/F1.sol\":3053:3056  j<1 */\n      0xff\n      and\n      lt\n        /* \"/home/rocha/Proyects/Solidity/F1Bet/ethereum/contracts/F1.sol\":3050:5596  if(j<1){... */\n      iszero\n      tag_270\n      jumpi\n        /* \"/home/rocha/Proyects/Solidity/F1Bet/ethereum/contracts/F1.sol\":3082:3141  checkStingEquality(contestantPrediction[j],constructors[j]) */\n      tag_271\n        /* \"/home/rocha/Proyects/Solidity/F1Bet/ethereum/contracts/F1.sol\":3101:3121  contestantPrediction */\n      dup4\n        /* \"/home/rocha/Proyects/Solidity/F1Bet/ethereum/contracts/F1.sol\":3122:3123  j */\n      dup3\n        /* \"/home/rocha/Proyects/Solidity/F1Bet/ethereum/contracts/F1.sol\":3101:3124  contestantPrediction[j] */\n      0xff\n      and\n      dup2\n      mload\n      dup2\n      lt\n      tag_272\n      jumpi\n      tag_273\n      tag_103\n      jump\t// in\n    tag_273:\n    tag_272:\n      0x20\n      mul\n      0x20\n      add\n      add\n      mload\n        /* \"/home/rocha/Proyects/Solidity/F1Bet/ethereum/contracts/F1.sol\":3125:3137  constructors */\n      0x04\n        /* \"/home/rocha/Proyects/Solidity/F1Bet/ethereum/contracts/F1.sol\":3138:3139  j */\n      dup4\n        /* \"/home/rocha/Proyects/Solidity/F1Bet/ethereum/contracts/F1.sol\":3125:3140  constructors[j] */\n      0xff\n      and\n      dup2\n      sload\n      dup2\n      lt\n      tag_274\n      jumpi\n      tag_275\n      tag_103\n      jump\t// in\n    tag_275:\n    tag_274:\n      swap1\n      0x00\n      mstore\n      keccak256(0x00, 0x20)\n      add\n        /* \"/home/rocha/Proyects/Solidity/F1Bet/ethereum/contracts/F1.sol\":3082:3141  checkStingEquality(contestantPrediction[j],constructors[j]) */\n      dup1\n      sload\n      tag_277\n      swap1\n      tag_262\n      jump\t// in\n    tag_277:\n      dup1\n      0x1f\n      add\n      0x20\n      dup1\n      swap2\n      div\n      mul\n      0x20\n      add\n      mload(0x40)\n      swap1\n      dup2\n      add\n      0x40\n      mstore\n      dup1\n      swap3\n      swap2\n      swap1\n      dup2\n      dup2\n      mstore\n      0x20\n      add\n      dup3\n      dup1\n      sload\n      tag_278\n      swap1\n      tag_262\n      jump\t// in\n    tag_278:\n      dup1\n      iszero\n      tag_279\n      jumpi\n      dup1\n      0x1f\n      lt\n      tag_280\n      jumpi\n      0x0100\n      dup1\n      dup4\n      sload\n      div\n      mul\n      dup4\n      mstore\n      swap2\n      0x20\n      add\n      swap2\n      jump(tag_279)\n    tag_280:\n      dup3\n      add\n      swap2\n      swap1\n      0x00\n      mstore\n      keccak256(0x00, 0x20)\n      swap1\n    tag_281:\n      dup2\n      sload\n      dup2\n      mstore\n      swap1\n      0x01\n      add\n      swap1\n      0x20\n      add\n      dup1\n      dup4\n      gt\n      tag_281\n      jumpi\n      dup3\n      swap1\n      sub\n      0x1f\n      and\n      dup3\n      add\n      swap2\n    tag_279:\n      pop\n      pop\n      pop\n      pop\n      pop\n        /* \"/home/rocha/Proyects/Solidity/F1Bet/ethereum/contracts/F1.sol\":3082:3100  checkStingEquality */\n      tag_282\n        /* \"/home/rocha/Proyects/Solidity/F1Bet/ethereum/contracts/F1.sol\":3082:3141  checkStingEquality(contestantPrediction[j],constructors[j]) */\n      jump\t// in\n    tag_271:\n        /* \"/home/rocha/Proyects/Solidity/F1Bet/ethereum/contracts/F1.sol\":3079:3479  if(checkStingEquality(contestantPrediction[j],constructors[j])){... */\n      iszero\n      tag_283\n      jumpi\n        /* \"/home/rocha/Proyects/Solidity/F1Bet/ethereum/contracts/F1.sol\":3177:3178  5 */\n      0x05\n        /* \"/home/rocha/Proyects/Solidity/F1Bet/ethereum/contracts/F1.sol\":3168:3178  points+= 5 */\n      dup3\n      tag_284\n      swap2\n      swap1\n      tag_187\n      jump\t// in\n    tag_284:\n      swap2\n      pop\n        /* \"/home/rocha/Proyects/Solidity/F1Bet/ethereum/contracts/F1.sol\":3079:3479  if(checkStingEquality(contestantPrediction[j],constructors[j])){... */\n      jump(tag_285)\n    tag_283:\n        /* \"/home/rocha/Proyects/Solidity/F1Bet/ethereum/contracts/F1.sol\":3210:3271  checkStingEquality(contestantPrediction[j+1],constructors[j]) */\n      tag_286\n        /* \"/home/rocha/Proyects/Solidity/F1Bet/ethereum/contracts/F1.sol\":3229:3249  contestantPrediction */\n      dup4\n        /* \"/home/rocha/Proyects/Solidity/F1Bet/ethereum/contracts/F1.sol\":3252:3253  1 */\n      0x01\n        /* \"/home/rocha/Proyects/Solidity/F1Bet/ethereum/contracts/F1.sol\":3250:3251  j */\n      dup4\n        /* \"/home/rocha/Proyects/Solidity/F1Bet/ethereum/contracts/F1.sol\":3250:3253  j+1 */\n      tag_287\n      swap2\n      swap1\n      tag_288\n      jump\t// in\n    tag_287:\n        /* \"/home/rocha/Proyects/Solidity/F1Bet/ethereum/contracts/F1.sol\":3229:3254  contestantPrediction[j+1] */\n      0xff\n      and\n      dup2\n      mload\n      dup2\n      lt\n      tag_289\n      jumpi\n      tag_290\n      tag_103\n      jump\t// in\n    tag_290:\n    tag_289:\n      0x20\n      mul\n      0x20\n      add\n      add\n      mload\n        /* \"/home/rocha/Proyects/Solidity/F1Bet/ethereum/contracts/F1.sol\":3255:3267  constructors */\n      0x04\n        /* \"/home/rocha/Proyects/Solidity/F1Bet/ethereum/contracts/F1.sol\":3268:3269  j */\n      dup4\n        /* \"/home/rocha/Proyects/Solidity/F1Bet/ethereum/contracts/F1.sol\":3255:3270  constructors[j] */\n      0xff\n      and\n      dup2\n      sload\n      dup2\n      lt\n      tag_291\n      jumpi\n      tag_292\n      tag_103\n      jump\t// in\n    tag_292:\n    tag_291:\n      swap1\n      0x00\n      mstore\n      keccak256(0x00, 0x20)\n      add\n        /* \"/home/rocha/Proyects/Solidity/F1Bet/ethereum/contracts/F1.sol\":3210:3271  checkStingEquality(contestantPrediction[j+1],constructors[j]) */\n      dup1\n      sload\n      tag_294\n      swap1\n      tag_262\n      jump\t// in\n    tag_294:\n      dup1\n      0x1f\n      add\n      0x20\n      dup1\n      swap2\n      div\n      mul\n      0x20\n      add\n      mload(0x40)\n      swap1\n      dup2\n      add\n      0x40\n      mstore\n      dup1\n      swap3\n      swap2\n      swap1\n      dup2\n      dup2\n      mstore\n      0x20\n      add\n      dup3\n      dup1\n      sload\n      tag_295\n      swap1\n      tag_262\n      jump\t// in\n    tag_295:\n      dup1\n      iszero\n      tag_296\n      jumpi\n      dup1\n      0x1f\n      lt\n      tag_297\n      jumpi\n      0x0100\n      dup1\n      dup4\n      sload\n      div\n      mul\n      dup4\n      mstore\n      swap2\n      0x20\n      add\n      swap2\n      jump(tag_296)\n    tag_297:\n      dup3\n      add\n      swap2\n      swap1\n      0x00\n      mstore\n      keccak256(0x00, 0x20)\n      swap1\n    tag_298:\n      dup2\n      sload\n      dup2\n      mstore\n      swap1\n      0x01\n      add\n      swap1\n      0x20\n      add\n      dup1\n      dup4\n      gt\n      tag_298\n      jumpi\n      dup3\n      swap1\n      sub\n      0x1f\n      and\n      dup3\n      add\n      swap2\n    tag_296:\n      pop\n      pop\n      pop\n      pop\n      pop\n        /* \"/home/rocha/Proyects/Solidity/F1Bet/ethereum/contracts/F1.sol\":3210:3228  checkStingEquality */\n      tag_282\n        /* \"/home/rocha/Proyects/Solidity/F1Bet/ethereum/contracts/F1.sol\":3210:3271  checkStingEquality(contestantPrediction[j+1],constructors[j]) */\n      jump\t// in\n    tag_286:\n        /* \"/home/rocha/Proyects/Solidity/F1Bet/ethereum/contracts/F1.sol\":3206:3479  if( checkStingEquality(contestantPrediction[j+1],constructors[j])){... */\n      iszero\n      tag_299\n      jumpi\n        /* \"/home/rocha/Proyects/Solidity/F1Bet/ethereum/contracts/F1.sol\":3306:3307  3 */\n      0x03\n        /* \"/home/rocha/Proyects/Solidity/F1Bet/ethereum/contracts/F1.sol\":3298:3307  points+=3 */\n      dup3\n      tag_300\n      swap2\n      swap1\n      tag_187\n      jump\t// in\n    tag_300:\n      swap2\n      pop\n        /* \"/home/rocha/Proyects/Solidity/F1Bet/ethereum/contracts/F1.sol\":3206:3479  if( checkStingEquality(contestantPrediction[j+1],constructors[j])){... */\n      jump(tag_301)\n    tag_299:\n        /* \"/home/rocha/Proyects/Solidity/F1Bet/ethereum/contracts/F1.sol\":3359:3420  checkStingEquality(contestantPrediction[j+2],constructors[j]) */\n      tag_302\n        /* \"/home/rocha/Proyects/Solidity/F1Bet/ethereum/contracts/F1.sol\":3378:3398  contestantPrediction */\n      dup4\n        /* \"/home/rocha/Proyects/Solidity/F1Bet/ethereum/contracts/F1.sol\":3401:3402  2 */\n      0x02\n        /* \"/home/rocha/Proyects/Solidity/F1Bet/ethereum/contracts/F1.sol\":3399:3400  j */\n      dup4\n        /* \"/home/rocha/Proyects/Solidity/F1Bet/ethereum/contracts/F1.sol\":3399:3402  j+2 */\n      tag_303\n      swap2\n      swap1\n      tag_288\n      jump\t// in\n    tag_303:\n        /* \"/home/rocha/Proyects/Solidity/F1Bet/ethereum/contracts/F1.sol\":3378:3403  contestantPrediction[j+2] */\n      0xff\n      and\n      dup2\n      mload\n      dup2\n      lt\n      tag_304\n      jumpi\n      tag_305\n      tag_103\n      jump\t// in\n    tag_305:\n    tag_304:\n      0x20\n      mul\n      0x20\n      add\n      add\n      mload\n        /* \"/home/rocha/Proyects/Solidity/F1Bet/ethereum/contracts/F1.sol\":3404:3416  constructors */\n      0x04\n        /* \"/home/rocha/Proyects/Solidity/F1Bet/ethereum/contracts/F1.sol\":3417:3418  j */\n      dup4\n        /* \"/home/rocha/Proyects/Solidity/F1Bet/ethereum/contracts/F1.sol\":3404:3419  constructors[j] */\n      0xff\n      and\n      dup2\n      sload\n      dup2\n      lt\n      tag_306\n      jumpi\n      tag_307\n      tag_103\n      jump\t// in\n    tag_307:\n    tag_306:\n      swap1\n      0x00\n      mstore\n      keccak256(0x00, 0x20)\n      add\n        /* \"/home/rocha/Proyects/Solidity/F1Bet/ethereum/contracts/F1.sol\":3359:3420  checkStingEquality(contestantPrediction[j+2],constructors[j]) */\n      dup1\n      sload\n      tag_309\n      swap1\n      tag_262\n      jump\t// in\n    tag_309:\n      dup1\n      0x1f\n      add\n      0x20\n      dup1\n      swap2\n      div\n      mul\n      0x20\n      add\n      mload(0x40)\n      swap1\n      dup2\n      add\n      0x40\n      mstore\n      dup1\n      swap3\n      swap2\n      swap1\n      dup2\n      dup2\n      mstore\n      0x20\n      add\n      dup3\n      dup1\n      sload\n      tag_310\n      swap1\n      tag_262\n      jump\t// in\n    tag_310:\n      dup1\n      iszero\n      tag_311\n      jumpi\n      dup1\n      0x1f\n      lt\n      tag_312\n      jumpi\n      0x0100\n      dup1\n      dup4\n      sload\n      div\n      mul\n      dup4\n      mstore\n      swap2\n      0x20\n      add\n      swap2\n      jump(tag_311)\n    tag_312:\n      dup3\n      add\n      swap2\n      swap1\n      0x00\n      mstore\n      keccak256(0x00, 0x20)\n      swap1\n    tag_313:\n      dup2\n      sload\n      dup2\n      mstore\n      swap1\n      0x01\n      add\n      swap1\n      0x20\n      add\n      dup1\n      dup4\n      gt\n      tag_313\n      jumpi\n      dup3\n      swap1\n      sub\n      0x1f\n      and\n      dup3\n      add\n      swap2\n    tag_311:\n      pop\n      pop\n      pop\n      pop\n      pop\n        /* \"/home/rocha/Proyects/Solidity/F1Bet/ethereum/contracts/F1.sol\":3359:3377  checkStingEquality */\n      tag_282\n        /* \"/home/rocha/Proyects/Solidity/F1Bet/ethereum/contracts/F1.sol\":3359:3420  checkStingEquality(contestantPrediction[j+2],constructors[j]) */\n      jump\t// in\n    tag_302:\n        /* \"/home/rocha/Proyects/Solidity/F1Bet/ethereum/contracts/F1.sol\":3356:3479  if(checkStingEquality(contestantPrediction[j+2],constructors[j])){... */\n      iszero\n      tag_314\n      jumpi\n        /* \"/home/rocha/Proyects/Solidity/F1Bet/ethereum/contracts/F1.sol\":3455:3456  1 */\n      0x01\n        /* \"/home/rocha/Proyects/Solidity/F1Bet/ethereum/contracts/F1.sol\":3447:3456  points+=1 */\n      dup3\n      tag_315\n      swap2\n      swap1\n      tag_187\n      jump\t// in\n    tag_315:\n      swap2\n      pop\n        /* \"/home/rocha/Proyects/Solidity/F1Bet/ethereum/contracts/F1.sol\":3356:3479  if(checkStingEquality(contestantPrediction[j+2],constructors[j])){... */\n    tag_314:\n        /* \"/home/rocha/Proyects/Solidity/F1Bet/ethereum/contracts/F1.sol\":3206:3479  if( checkStingEquality(contestantPrediction[j+1],constructors[j])){... */\n    tag_301:\n        /* \"/home/rocha/Proyects/Solidity/F1Bet/ethereum/contracts/F1.sol\":3079:3479  if(checkStingEquality(contestantPrediction[j],constructors[j])){... */\n    tag_285:\n        /* \"/home/rocha/Proyects/Solidity/F1Bet/ethereum/contracts/F1.sol\":3050:5596  if(j<1){... */\n      jump(tag_316)\n    tag_270:\n        /* \"/home/rocha/Proyects/Solidity/F1Bet/ethereum/contracts/F1.sol\":3507:3508  2 */\n      0x02\n        /* \"/home/rocha/Proyects/Solidity/F1Bet/ethereum/contracts/F1.sol\":3505:3506  j */\n      dup2\n        /* \"/home/rocha/Proyects/Solidity/F1Bet/ethereum/contracts/F1.sol\":3505:3508  j<2 */\n      0xff\n      and\n      lt\n        /* \"/home/rocha/Proyects/Solidity/F1Bet/ethereum/contracts/F1.sol\":3502:5596  if(j<2){... */\n      iszero\n      tag_317\n      jumpi\n        /* \"/home/rocha/Proyects/Solidity/F1Bet/ethereum/contracts/F1.sol\":3534:3593  checkStingEquality(contestantPrediction[j],constructors[j]) */\n      tag_318\n        /* \"/home/rocha/Proyects/Solidity/F1Bet/ethereum/contracts/F1.sol\":3553:3573  contestantPrediction */\n      dup4\n        /* \"/home/rocha/Proyects/Solidity/F1Bet/ethereum/contracts/F1.sol\":3574:3575  j */\n      dup3\n        /* \"/home/rocha/Proyects/Solidity/F1Bet/ethereum/contracts/F1.sol\":3553:3576  contestantPrediction[j] */\n      0xff\n      and\n      dup2\n      mload\n      dup2\n      lt\n      tag_319\n      jumpi\n      tag_320\n      tag_103\n      jump\t// in\n    tag_320:\n    tag_319:\n      0x20\n      mul\n      0x20\n      add\n      add\n      mload\n        /* \"/home/rocha/Proyects/Solidity/F1Bet/ethereum/contracts/F1.sol\":3577:3589  constructors */\n      0x04\n        /* \"/home/rocha/Proyects/Solidity/F1Bet/ethereum/contracts/F1.sol\":3590:3591  j */\n      dup4\n        /* \"/home/rocha/Proyects/Solidity/F1Bet/ethereum/contracts/F1.sol\":3577:3592  constructors[j] */\n      0xff\n      and\n      dup2\n      sload\n      dup2\n      lt\n      tag_321\n      jumpi\n      tag_322\n      tag_103\n      jump\t// in\n    tag_322:\n    tag_321:\n      swap1\n      0x00\n      mstore\n      keccak256(0x00, 0x20)\n      add\n        /* \"/home/rocha/Proyects/Solidity/F1Bet/ethereum/contracts/F1.sol\":3534:3593  checkStingEquality(contestantPrediction[j],constructors[j]) */\n      dup1\n      sload\n      tag_324\n      swap1\n      tag_262\n      jump\t// in\n    tag_324:\n      dup1\n      0x1f\n      add\n      0x20\n      dup1\n      swap2\n      div\n      mul\n      0x20\n      add\n      mload(0x40)\n      swap1\n      dup2\n      add\n      0x40\n      mstore\n      dup1\n      swap3\n      swap2\n      swap1\n      dup2\n      dup2\n      mstore\n      0x20\n      add\n      dup3\n      dup1\n      sload\n      tag_325\n      swap1\n      tag_262\n      jump\t// in\n    tag_325:\n      dup1\n      iszero\n      tag_326\n      jumpi\n      dup1\n      0x1f\n      lt\n      tag_327\n      jumpi\n      0x0100\n      dup1\n      dup4\n      sload\n      div\n      mul\n      dup4\n      mstore\n      swap2\n      0x20\n      add\n      swap2\n      jump(tag_326)\n    tag_327:\n      dup3\n      add\n      swap2\n      swap1\n      0x00\n      mstore\n      keccak256(0x00, 0x20)\n      swap1\n    tag_328:\n      dup2\n      sload\n      dup2\n      mstore\n      swap1\n      0x01\n      add\n      swap1\n      0x20\n      add\n      dup1\n      dup4\n      gt\n      tag_328\n      jumpi\n      dup3\n      swap1\n      sub\n      0x1f\n      and\n      dup3\n      add\n      swap2\n    tag_326:\n      pop\n      pop\n      pop\n      pop\n      pop\n        /* \"/home/rocha/Proyects/Solidity/F1Bet/ethereum/contracts/F1.sol\":3534:3552  checkStingEquality */\n      tag_282\n        /* \"/home/rocha/Proyects/Solidity/F1Bet/ethereum/contracts/F1.sol\":3534:3593  checkStingEquality(contestantPrediction[j],constructors[j]) */\n      jump\t// in\n    tag_318:\n        /* \"/home/rocha/Proyects/Solidity/F1Bet/ethereum/contracts/F1.sol\":3531:3996  if(checkStingEquality(contestantPrediction[j],constructors[j])){... */\n      iszero\n      tag_329\n      jumpi\n        /* \"/home/rocha/Proyects/Solidity/F1Bet/ethereum/contracts/F1.sol\":3629:3630  5 */\n      0x05\n        /* \"/home/rocha/Proyects/Solidity/F1Bet/ethereum/contracts/F1.sol\":3620:3630  points+= 5 */\n      dup3\n      tag_330\n      swap2\n      swap1\n      tag_187\n      jump\t// in\n    tag_330:\n      swap2\n      pop\n        /* \"/home/rocha/Proyects/Solidity/F1Bet/ethereum/contracts/F1.sol\":3531:3996  if(checkStingEquality(contestantPrediction[j],constructors[j])){... */\n      jump(tag_331)\n    tag_329:\n        /* \"/home/rocha/Proyects/Solidity/F1Bet/ethereum/contracts/F1.sol\":3661:3722  checkStingEquality(contestantPrediction[j-1],constructors[j]) */\n      tag_332\n        /* \"/home/rocha/Proyects/Solidity/F1Bet/ethereum/contracts/F1.sol\":3680:3700  contestantPrediction */\n      dup4\n        /* \"/home/rocha/Proyects/Solidity/F1Bet/ethereum/contracts/F1.sol\":3703:3704  1 */\n      0x01\n        /* \"/home/rocha/Proyects/Solidity/F1Bet/ethereum/contracts/F1.sol\":3701:3702  j */\n      dup4\n        /* \"/home/rocha/Proyects/Solidity/F1Bet/ethereum/contracts/F1.sol\":3701:3704  j-1 */\n      tag_333\n      swap2\n      swap1\n      tag_334\n      jump\t// in\n    tag_333:\n        /* \"/home/rocha/Proyects/Solidity/F1Bet/ethereum/contracts/F1.sol\":3680:3705  contestantPrediction[j-1] */\n      0xff\n      and\n      dup2\n      mload\n      dup2\n      lt\n      tag_335\n      jumpi\n      tag_336\n      tag_103\n      jump\t// in\n    tag_336:\n    tag_335:\n      0x20\n      mul\n      0x20\n      add\n      add\n      mload\n        /* \"/home/rocha/Proyects/Solidity/F1Bet/ethereum/contracts/F1.sol\":3706:3718  constructors */\n      0x04\n        /* \"/home/rocha/Proyects/Solidity/F1Bet/ethereum/contracts/F1.sol\":3719:3720  j */\n      dup4\n        /* \"/home/rocha/Proyects/Solidity/F1Bet/ethereum/contracts/F1.sol\":3706:3721  constructors[j] */\n      0xff\n      and\n      dup2\n      sload\n      dup2\n      lt\n      tag_337\n      jumpi\n      tag_338\n      tag_103\n      jump\t// in\n    tag_338:\n    tag_337:\n      swap1\n      0x00\n      mstore\n      keccak256(0x00, 0x20)\n      add\n        /* \"/home/rocha/Proyects/Solidity/F1Bet/ethereum/contracts/F1.sol\":3661:3722  checkStingEquality(contestantPrediction[j-1],constructors[j]) */\n      dup1\n      sload\n      tag_340\n      swap1\n      tag_262\n      jump\t// in\n    tag_340:\n      dup1\n      0x1f\n      add\n      0x20\n      dup1\n      swap2\n      div\n      mul\n      0x20\n      add\n      mload(0x40)\n      swap1\n      dup2\n      add\n      0x40\n      mstore\n      dup1\n      swap3\n      swap2\n      swap1\n      dup2\n      dup2\n      mstore\n      0x20\n      add\n      dup3\n      dup1\n      sload\n      tag_341\n      swap1\n      tag_262\n      jump\t// in\n    tag_341:\n      dup1\n      iszero\n      tag_342\n      jumpi\n      dup1\n      0x1f\n      lt\n      tag_343\n      jumpi\n      0x0100\n      dup1\n      dup4\n      sload\n      div\n      mul\n      dup4\n      mstore\n      swap2\n      0x20\n      add\n      swap2\n      jump(tag_342)\n    tag_343:\n      dup3\n      add\n      swap2\n      swap1\n      0x00\n      mstore\n      keccak256(0x00, 0x20)\n      swap1\n    tag_344:\n      dup2\n      sload\n      dup2\n      mstore\n      swap1\n      0x01\n      add\n      swap1\n      0x20\n      add\n      dup1\n      dup4\n      gt\n      tag_344\n      jumpi\n      dup3\n      swap1\n      sub\n      0x1f\n      and\n      dup3\n      add\n      swap2\n    tag_342:\n      pop\n      pop\n      pop\n      pop\n      pop\n        /* \"/home/rocha/Proyects/Solidity/F1Bet/ethereum/contracts/F1.sol\":3661:3679  checkStingEquality */\n      tag_282\n        /* \"/home/rocha/Proyects/Solidity/F1Bet/ethereum/contracts/F1.sol\":3661:3722  checkStingEquality(contestantPrediction[j-1],constructors[j]) */\n      jump\t// in\n    tag_332:\n        /* \"/home/rocha/Proyects/Solidity/F1Bet/ethereum/contracts/F1.sol\":3661:3787  checkStingEquality(contestantPrediction[j-1],constructors[j]) || checkStingEquality(contestantPrediction[j+1],constructors[j]) */\n      dup1\n      tag_345\n      jumpi\n      pop\n        /* \"/home/rocha/Proyects/Solidity/F1Bet/ethereum/contracts/F1.sol\":3726:3787  checkStingEquality(contestantPrediction[j+1],constructors[j]) */\n      tag_346\n        /* \"/home/rocha/Proyects/Solidity/F1Bet/ethereum/contracts/F1.sol\":3745:3765  contestantPrediction */\n      dup4\n        /* \"/home/rocha/Proyects/Solidity/F1Bet/ethereum/contracts/F1.sol\":3768:3769  1 */\n      0x01\n        /* \"/home/rocha/Proyects/Solidity/F1Bet/ethereum/contracts/F1.sol\":3766:3767  j */\n      dup4\n        /* \"/home/rocha/Proyects/Solidity/F1Bet/ethereum/contracts/F1.sol\":3766:3769  j+1 */\n      tag_347\n      swap2\n      swap1\n      tag_288\n      jump\t// in\n    tag_347:\n        /* \"/home/rocha/Proyects/Solidity/F1Bet/ethereum/contracts/F1.sol\":3745:3770  contestantPrediction[j+1] */\n      0xff\n      and\n      dup2\n      mload\n      dup2\n      lt\n      tag_348\n      jumpi\n      tag_349\n      tag_103\n      jump\t// in\n    tag_349:\n    tag_348:\n      0x20\n      mul\n      0x20\n      add\n      add\n      mload\n        /* \"/home/rocha/Proyects/Solidity/F1Bet/ethereum/contracts/F1.sol\":3771:3783  constructors */\n      0x04\n        /* \"/home/rocha/Proyects/Solidity/F1Bet/ethereum/contracts/F1.sol\":3784:3785  j */\n      dup4\n        /* \"/home/rocha/Proyects/Solidity/F1Bet/ethereum/contracts/F1.sol\":3771:3786  constructors[j] */\n      0xff\n      and\n      dup2\n      sload\n      dup2\n      lt\n      tag_350\n      jumpi\n      tag_351\n      tag_103\n      jump\t// in\n    tag_351:\n    tag_350:\n      swap1\n      0x00\n      mstore\n      keccak256(0x00, 0x20)\n      add\n        /* \"/home/rocha/Proyects/Solidity/F1Bet/ethereum/contracts/F1.sol\":3726:3787  checkStingEquality(contestantPrediction[j+1],constructors[j]) */\n      dup1\n      sload\n      tag_353\n      swap1\n      tag_262\n      jump\t// in\n    tag_353:\n      dup1\n      0x1f\n      add\n      0x20\n      dup1\n      swap2\n      div\n      mul\n      0x20\n      add\n      mload(0x40)\n      swap1\n      dup2\n      add\n      0x40\n      mstore\n      dup1\n      swap3\n      swap2\n      swap1\n      dup2\n      dup2\n      mstore\n      0x20\n      add\n      dup3\n      dup1\n      sload\n      tag_354\n      swap1\n      tag_262\n      jump\t// in\n    tag_354:\n      dup1\n      iszero\n      tag_355\n      jumpi\n      dup1\n      0x1f\n      lt\n      tag_356\n      jumpi\n      0x0100\n      dup1\n      dup4\n      sload\n      div\n      mul\n      dup4\n      mstore\n      swap2\n      0x20\n      add\n      swap2\n      jump(tag_355)\n    tag_356:\n      dup3\n      add\n      swap2\n      swap1\n      0x00\n      mstore\n      keccak256(0x00, 0x20)\n      swap1\n    tag_357:\n      dup2\n      sload\n      dup2\n      mstore\n      swap1\n      0x01\n      add\n      swap1\n      0x20\n      add\n      dup1\n      dup4\n      gt\n      tag_357\n      jumpi\n      dup3\n      swap1\n      sub\n      0x1f\n      and\n      dup3\n      add\n      swap2\n    tag_355:\n      pop\n      pop\n      pop\n      pop\n      pop\n        /* \"/home/rocha/Proyects/Solidity/F1Bet/ethereum/contracts/F1.sol\":3726:3744  checkStingEquality */\n      tag_282\n        /* \"/home/rocha/Proyects/Solidity/F1Bet/ethereum/contracts/F1.sol\":3726:3787  checkStingEquality(contestantPrediction[j+1],constructors[j]) */\n      jump\t// in\n    tag_346:\n        /* \"/home/rocha/Proyects/Solidity/F1Bet/ethereum/contracts/F1.sol\":3661:3787  checkStingEquality(contestantPrediction[j-1],constructors[j]) || checkStingEquality(contestantPrediction[j+1],constructors[j]) */\n    tag_345:\n        /* \"/home/rocha/Proyects/Solidity/F1Bet/ethereum/contracts/F1.sol\":3658:3996  if(checkStingEquality(contestantPrediction[j-1],constructors[j]) || checkStingEquality(contestantPrediction[j+1],constructors[j])){... */\n      iszero\n      tag_358\n      jumpi\n        /* \"/home/rocha/Proyects/Solidity/F1Bet/ethereum/contracts/F1.sol\":3822:3823  3 */\n      0x03\n        /* \"/home/rocha/Proyects/Solidity/F1Bet/ethereum/contracts/F1.sol\":3814:3823  points+=3 */\n      dup3\n      tag_359\n      swap2\n      swap1\n      tag_187\n      jump\t// in\n    tag_359:\n      swap2\n      pop\n        /* \"/home/rocha/Proyects/Solidity/F1Bet/ethereum/contracts/F1.sol\":3658:3996  if(checkStingEquality(contestantPrediction[j-1],constructors[j]) || checkStingEquality(contestantPrediction[j+1],constructors[j])){... */\n      jump(tag_360)\n    tag_358:\n        /* \"/home/rocha/Proyects/Solidity/F1Bet/ethereum/contracts/F1.sol\":3876:3937  checkStingEquality(contestantPrediction[j+2],constructors[j]) */\n      tag_361\n        /* \"/home/rocha/Proyects/Solidity/F1Bet/ethereum/contracts/F1.sol\":3895:3915  contestantPrediction */\n      dup4\n        /* \"/home/rocha/Proyects/Solidity/F1Bet/ethereum/contracts/F1.sol\":3918:3919  2 */\n      0x02\n        /* \"/home/rocha/Proyects/Solidity/F1Bet/ethereum/contracts/F1.sol\":3916:3917  j */\n      dup4\n        /* \"/home/rocha/Proyects/Solidity/F1Bet/ethereum/contracts/F1.sol\":3916:3919  j+2 */\n      tag_362\n      swap2\n      swap1\n      tag_288\n      jump\t// in\n    tag_362:\n        /* \"/home/rocha/Proyects/Solidity/F1Bet/ethereum/contracts/F1.sol\":3895:3920  contestantPrediction[j+2] */\n      0xff\n      and\n      dup2\n      mload\n      dup2\n      lt\n      tag_363\n      jumpi\n      tag_364\n      tag_103\n      jump\t// in\n    tag_364:\n    tag_363:\n      0x20\n      mul\n      0x20\n      add\n      add\n      mload\n        /* \"/home/rocha/Proyects/Solidity/F1Bet/ethereum/contracts/F1.sol\":3921:3933  constructors */\n      0x04\n        /* \"/home/rocha/Proyects/Solidity/F1Bet/ethereum/contracts/F1.sol\":3934:3935  j */\n      dup4\n        /* \"/home/rocha/Proyects/Solidity/F1Bet/ethereum/contracts/F1.sol\":3921:3936  constructors[j] */\n      0xff\n      and\n      dup2\n      sload\n      dup2\n      lt\n      tag_365\n      jumpi\n      tag_366\n      tag_103\n      jump\t// in\n    tag_366:\n    tag_365:\n      swap1\n      0x00\n      mstore\n      keccak256(0x00, 0x20)\n      add\n        /* \"/home/rocha/Proyects/Solidity/F1Bet/ethereum/contracts/F1.sol\":3876:3937  checkStingEquality(contestantPrediction[j+2],constructors[j]) */\n      dup1\n      sload\n      tag_368\n      swap1\n      tag_262\n      jump\t// in\n    tag_368:\n      dup1\n      0x1f\n      add\n      0x20\n      dup1\n      swap2\n      div\n      mul\n      0x20\n      add\n      mload(0x40)\n      swap1\n      dup2\n      add\n      0x40\n      mstore\n      dup1\n      swap3\n      swap2\n      swap1\n      dup2\n      dup2\n      mstore\n      0x20\n      add\n      dup3\n      dup1\n      sload\n      tag_369\n      swap1\n      tag_262\n      jump\t// in\n    tag_369:\n      dup1\n      iszero\n      tag_370\n      jumpi\n      dup1\n      0x1f\n      lt\n      tag_371\n      jumpi\n      0x0100\n      dup1\n      dup4\n      sload\n      div\n      mul\n      dup4\n      mstore\n      swap2\n      0x20\n      add\n      swap2\n      jump(tag_370)\n    tag_371:\n      dup3\n      add\n      swap2\n      swap1\n      0x00\n      mstore\n      keccak256(0x00, 0x20)\n      swap1\n    tag_372:\n      dup2\n      sload\n      dup2\n      mstore\n      swap1\n      0x01\n      add\n      swap1\n      0x20\n      add\n      dup1\n      dup4\n      gt\n      tag_372\n      jumpi\n      dup3\n      swap1\n      sub\n      0x1f\n      and\n      dup3\n      add\n      swap2\n    tag_370:\n      pop\n      pop\n      pop\n      pop\n      pop\n        /* \"/home/rocha/Proyects/Solidity/F1Bet/ethereum/contracts/F1.sol\":3876:3894  checkStingEquality */\n      tag_282\n        /* \"/home/rocha/Proyects/Solidity/F1Bet/ethereum/contracts/F1.sol\":3876:3937  checkStingEquality(contestantPrediction[j+2],constructors[j]) */\n      jump\t// in\n    tag_361:\n        /* \"/home/rocha/Proyects/Solidity/F1Bet/ethereum/contracts/F1.sol\":3872:3996  if( checkStingEquality(contestantPrediction[j+2],constructors[j])){... */\n      iszero\n      tag_373\n      jumpi\n        /* \"/home/rocha/Proyects/Solidity/F1Bet/ethereum/contracts/F1.sol\":3972:3973  1 */\n      0x01\n        /* \"/home/rocha/Proyects/Solidity/F1Bet/ethereum/contracts/F1.sol\":3964:3973  points+=1 */\n      dup3\n      tag_374\n      swap2\n      swap1\n      tag_187\n      jump\t// in\n    tag_374:\n      swap2\n      pop\n        /* \"/home/rocha/Proyects/Solidity/F1Bet/ethereum/contracts/F1.sol\":3872:3996  if( checkStingEquality(contestantPrediction[j+2],constructors[j])){... */\n    tag_373:\n        /* \"/home/rocha/Proyects/Solidity/F1Bet/ethereum/contracts/F1.sol\":3658:3996  if(checkStingEquality(contestantPrediction[j-1],constructors[j]) || checkStingEquality(contestantPrediction[j+1],constructors[j])){... */\n    tag_360:\n        /* \"/home/rocha/Proyects/Solidity/F1Bet/ethereum/contracts/F1.sol\":3531:3996  if(checkStingEquality(contestantPrediction[j],constructors[j])){... */\n    tag_331:\n        /* \"/home/rocha/Proyects/Solidity/F1Bet/ethereum/contracts/F1.sol\":3502:5596  if(j<2){... */\n      jump(tag_375)\n    tag_317:\n        /* \"/home/rocha/Proyects/Solidity/F1Bet/ethereum/contracts/F1.sol\":4045:4046  2 */\n      0x02\n        /* \"/home/rocha/Proyects/Solidity/F1Bet/ethereum/contracts/F1.sol\":4025:4037  constructors */\n      0x04\n        /* \"/home/rocha/Proyects/Solidity/F1Bet/ethereum/contracts/F1.sol\":4025:4044  constructors.length */\n      dup1\n      sload\n      swap1\n      pop\n        /* \"/home/rocha/Proyects/Solidity/F1Bet/ethereum/contracts/F1.sol\":4025:4046  constructors.length-2 */\n      tag_376\n      swap2\n      swap1\n      tag_377\n      jump\t// in\n    tag_376:\n        /* \"/home/rocha/Proyects/Solidity/F1Bet/ethereum/contracts/F1.sol\":4022:4023  j */\n      dup2\n        /* \"/home/rocha/Proyects/Solidity/F1Bet/ethereum/contracts/F1.sol\":4022:4046  j==constructors.length-2 */\n      0xff\n      and\n      eq\n        /* \"/home/rocha/Proyects/Solidity/F1Bet/ethereum/contracts/F1.sol\":4019:5596  if(j==constructors.length-2){... */\n      iszero\n      tag_378\n      jumpi\n        /* \"/home/rocha/Proyects/Solidity/F1Bet/ethereum/contracts/F1.sol\":4072:4131  checkStingEquality(contestantPrediction[j],constructors[j]) */\n      tag_379\n        /* \"/home/rocha/Proyects/Solidity/F1Bet/ethereum/contracts/F1.sol\":4091:4111  contestantPrediction */\n      dup4\n        /* \"/home/rocha/Proyects/Solidity/F1Bet/ethereum/contracts/F1.sol\":4112:4113  j */\n      dup3\n        /* \"/home/rocha/Proyects/Solidity/F1Bet/ethereum/contracts/F1.sol\":4091:4114  contestantPrediction[j] */\n      0xff\n      and\n      dup2\n      mload\n      dup2\n      lt\n      tag_380\n      jumpi\n      tag_381\n      tag_103\n      jump\t// in\n    tag_381:\n    tag_380:\n      0x20\n      mul\n      0x20\n      add\n      add\n      mload\n        /* \"/home/rocha/Proyects/Solidity/F1Bet/ethereum/contracts/F1.sol\":4115:4127  constructors */\n      0x04\n        /* \"/home/rocha/Proyects/Solidity/F1Bet/ethereum/contracts/F1.sol\":4128:4129  j */\n      dup4\n        /* \"/home/rocha/Proyects/Solidity/F1Bet/ethereum/contracts/F1.sol\":4115:4130  constructors[j] */\n      0xff\n      and\n      dup2\n      sload\n      dup2\n      lt\n      tag_382\n      jumpi\n      tag_383\n      tag_103\n      jump\t// in\n    tag_383:\n    tag_382:\n      swap1\n      0x00\n      mstore\n      keccak256(0x00, 0x20)\n      add\n        /* \"/home/rocha/Proyects/Solidity/F1Bet/ethereum/contracts/F1.sol\":4072:4131  checkStingEquality(contestantPrediction[j],constructors[j]) */\n      dup1\n      sload\n      tag_385\n      swap1\n      tag_262\n      jump\t// in\n    tag_385:\n      dup1\n      0x1f\n      add\n      0x20\n      dup1\n      swap2\n      div\n      mul\n      0x20\n      add\n      mload(0x40)\n      swap1\n      dup2\n      add\n      0x40\n      mstore\n      dup1\n      swap3\n      swap2\n      swap1\n      dup2\n      dup2\n      mstore\n      0x20\n      add\n      dup3\n      dup1\n      sload\n      tag_386\n      swap1\n      tag_262\n      jump\t// in\n    tag_386:\n      dup1\n      iszero\n      tag_387\n      jumpi\n      dup1\n      0x1f\n      lt\n      tag_388\n      jumpi\n      0x0100\n      dup1\n      dup4\n      sload\n      div\n      mul\n      dup4\n      mstore\n      swap2\n      0x20\n      add\n      swap2\n      jump(tag_387)\n    tag_388:\n      dup3\n      add\n      swap2\n      swap1\n      0x00\n      mstore\n      keccak256(0x00, 0x20)\n      swap1\n    tag_389:\n      dup2\n      sload\n      dup2\n      mstore\n      swap1\n      0x01\n      add\n      swap1\n      0x20\n      add\n      dup1\n      dup4\n      gt\n      tag_389\n      jumpi\n      dup3\n      swap1\n      sub\n      0x1f\n      and\n      dup3\n      add\n      swap2\n    tag_387:\n      pop\n      pop\n      pop\n      pop\n      pop\n        /* \"/home/rocha/Proyects/Solidity/F1Bet/ethereum/contracts/F1.sol\":4072:4090  checkStingEquality */\n      tag_282\n        /* \"/home/rocha/Proyects/Solidity/F1Bet/ethereum/contracts/F1.sol\":4072:4131  checkStingEquality(contestantPrediction[j],constructors[j]) */\n      jump\t// in\n    tag_379:\n        /* \"/home/rocha/Proyects/Solidity/F1Bet/ethereum/contracts/F1.sol\":4069:4533  if(checkStingEquality(contestantPrediction[j],constructors[j])){... */\n      iszero\n      tag_390\n      jumpi\n        /* \"/home/rocha/Proyects/Solidity/F1Bet/ethereum/contracts/F1.sol\":4167:4168  5 */\n      0x05\n        /* \"/home/rocha/Proyects/Solidity/F1Bet/ethereum/contracts/F1.sol\":4158:4168  points+= 5 */\n      dup3\n      tag_391\n      swap2\n      swap1\n      tag_187\n      jump\t// in\n    tag_391:\n      swap2\n      pop\n        /* \"/home/rocha/Proyects/Solidity/F1Bet/ethereum/contracts/F1.sol\":4069:4533  if(checkStingEquality(contestantPrediction[j],constructors[j])){... */\n      jump(tag_392)\n    tag_390:\n        /* \"/home/rocha/Proyects/Solidity/F1Bet/ethereum/contracts/F1.sol\":4199:4260  checkStingEquality(contestantPrediction[j-1],constructors[j]) */\n      tag_393\n        /* \"/home/rocha/Proyects/Solidity/F1Bet/ethereum/contracts/F1.sol\":4218:4238  contestantPrediction */\n      dup4\n        /* \"/home/rocha/Proyects/Solidity/F1Bet/ethereum/contracts/F1.sol\":4241:4242  1 */\n      0x01\n        /* \"/home/rocha/Proyects/Solidity/F1Bet/ethereum/contracts/F1.sol\":4239:4240  j */\n      dup4\n        /* \"/home/rocha/Proyects/Solidity/F1Bet/ethereum/contracts/F1.sol\":4239:4242  j-1 */\n      tag_394\n      swap2\n      swap1\n      tag_334\n      jump\t// in\n    tag_394:\n        /* \"/home/rocha/Proyects/Solidity/F1Bet/ethereum/contracts/F1.sol\":4218:4243  contestantPrediction[j-1] */\n      0xff\n      and\n      dup2\n      mload\n      dup2\n      lt\n      tag_395\n      jumpi\n      tag_396\n      tag_103\n      jump\t// in\n    tag_396:\n    tag_395:\n      0x20\n      mul\n      0x20\n      add\n      add\n      mload\n        /* \"/home/rocha/Proyects/Solidity/F1Bet/ethereum/contracts/F1.sol\":4244:4256  constructors */\n      0x04\n        /* \"/home/rocha/Proyects/Solidity/F1Bet/ethereum/contracts/F1.sol\":4257:4258  j */\n      dup4\n        /* \"/home/rocha/Proyects/Solidity/F1Bet/ethereum/contracts/F1.sol\":4244:4259  constructors[j] */\n      0xff\n      and\n      dup2\n      sload\n      dup2\n      lt\n      tag_397\n      jumpi\n      tag_398\n      tag_103\n      jump\t// in\n    tag_398:\n    tag_397:\n      swap1\n      0x00\n      mstore\n      keccak256(0x00, 0x20)\n      add\n        /* \"/home/rocha/Proyects/Solidity/F1Bet/ethereum/contracts/F1.sol\":4199:4260  checkStingEquality(contestantPrediction[j-1],constructors[j]) */\n      dup1\n      sload\n      tag_400\n      swap1\n      tag_262\n      jump\t// in\n    tag_400:\n      dup1\n      0x1f\n      add\n      0x20\n      dup1\n      swap2\n      div\n      mul\n      0x20\n      add\n      mload(0x40)\n      swap1\n      dup2\n      add\n      0x40\n      mstore\n      dup1\n      swap3\n      swap2\n      swap1\n      dup2\n      dup2\n      mstore\n      0x20\n      add\n      dup3\n      dup1\n      sload\n      tag_401\n      swap1\n      tag_262\n      jump\t// in\n    tag_401:\n      dup1\n      iszero\n      tag_402\n      jumpi\n      dup1\n      0x1f\n      lt\n      tag_403\n      jumpi\n      0x0100\n      dup1\n      dup4\n      sload\n      div\n      mul\n      dup4\n      mstore\n      swap2\n      0x20\n      add\n      swap2\n      jump(tag_402)\n    tag_403:\n      dup3\n      add\n      swap2\n      swap1\n      0x00\n      mstore\n      keccak256(0x00, 0x20)\n      swap1\n    tag_404:\n      dup2\n      sload\n      dup2\n      mstore\n      swap1\n      0x01\n      add\n      swap1\n      0x20\n      add\n      dup1\n      dup4\n      gt\n      tag_404\n      jumpi\n      dup3\n      swap1\n      sub\n      0x1f\n      and\n      dup3\n      add\n      swap2\n    tag_402:\n      pop\n      pop\n      pop\n      pop\n      pop\n        /* \"/home/rocha/Proyects/Solidity/F1Bet/ethereum/contracts/F1.sol\":4199:4217  checkStingEquality */\n      tag_282\n        /* \"/home/rocha/Proyects/Solidity/F1Bet/ethereum/contracts/F1.sol\":4199:4260  checkStingEquality(contestantPrediction[j-1],constructors[j]) */\n      jump\t// in\n    tag_393:\n        /* \"/home/rocha/Proyects/Solidity/F1Bet/ethereum/contracts/F1.sol\":4199:4325  checkStingEquality(contestantPrediction[j-1],constructors[j]) || checkStingEquality(contestantPrediction[j+1],constructors[j]) */\n      dup1\n      tag_405\n      jumpi\n      pop\n        /* \"/home/rocha/Proyects/Solidity/F1Bet/ethereum/contracts/F1.sol\":4264:4325  checkStingEquality(contestantPrediction[j+1],constructors[j]) */\n      tag_406\n        /* \"/home/rocha/Proyects/Solidity/F1Bet/ethereum/contracts/F1.sol\":4283:4303  contestantPrediction */\n      dup4\n        /* \"/home/rocha/Proyects/Solidity/F1Bet/ethereum/contracts/F1.sol\":4306:4307  1 */\n      0x01\n        /* \"/home/rocha/Proyects/Solidity/F1Bet/ethereum/contracts/F1.sol\":4304:4305  j */\n      dup4\n        /* \"/home/rocha/Proyects/Solidity/F1Bet/ethereum/contracts/F1.sol\":4304:4307  j+1 */\n      tag_407\n      swap2\n      swap1\n      tag_288\n      jump\t// in\n    tag_407:\n        /* \"/home/rocha/Proyects/Solidity/F1Bet/ethereum/contracts/F1.sol\":4283:4308  contestantPrediction[j+1] */\n      0xff\n      and\n      dup2\n      mload\n      dup2\n      lt\n      tag_408\n      jumpi\n      tag_409\n      tag_103\n      jump\t// in\n    tag_409:\n    tag_408:\n      0x20\n      mul\n      0x20\n      add\n      add\n      mload\n        /* \"/home/rocha/Proyects/Solidity/F1Bet/ethereum/contracts/F1.sol\":4309:4321  constructors */\n      0x04\n        /* \"/home/rocha/Proyects/Solidity/F1Bet/ethereum/contracts/F1.sol\":4322:4323  j */\n      dup4\n        /* \"/home/rocha/Proyects/Solidity/F1Bet/ethereum/contracts/F1.sol\":4309:4324  constructors[j] */\n      0xff\n      and\n      dup2\n      sload\n      dup2\n      lt\n      tag_410\n      jumpi\n      tag_411\n      tag_103\n      jump\t// in\n    tag_411:\n    tag_410:\n      swap1\n      0x00\n      mstore\n      keccak256(0x00, 0x20)\n      add\n        /* \"/home/rocha/Proyects/Solidity/F1Bet/ethereum/contracts/F1.sol\":4264:4325  checkStingEquality(contestantPrediction[j+1],constructors[j]) */\n      dup1\n      sload\n      tag_413\n      swap1\n      tag_262\n      jump\t// in\n    tag_413:\n      dup1\n      0x1f\n      add\n      0x20\n      dup1\n      swap2\n      div\n      mul\n      0x20\n      add\n      mload(0x40)\n      swap1\n      dup2\n      add\n      0x40\n      mstore\n      dup1\n      swap3\n      swap2\n      swap1\n      dup2\n      dup2\n      mstore\n      0x20\n      add\n      dup3\n      dup1\n      sload\n      tag_414\n      swap1\n      tag_262\n      jump\t// in\n    tag_414:\n      dup1\n      iszero\n      tag_415\n      jumpi\n      dup1\n      0x1f\n      lt\n      tag_416\n      jumpi\n      0x0100\n      dup1\n      dup4\n      sload\n      div\n      mul\n      dup4\n      mstore\n      swap2\n      0x20\n      add\n      swap2\n      jump(tag_415)\n    tag_416:\n      dup3\n      add\n      swap2\n      swap1\n      0x00\n      mstore\n      keccak256(0x00, 0x20)\n      swap1\n    tag_417:\n      dup2\n      sload\n      dup2\n      mstore\n      swap1\n      0x01\n      add\n      swap1\n      0x20\n      add\n      dup1\n      dup4\n      gt\n      tag_417\n      jumpi\n      dup3\n      swap1\n      sub\n      0x1f\n      and\n      dup3\n      add\n      swap2\n    tag_415:\n      pop\n      pop\n      pop\n      pop\n      pop\n        /* \"/home/rocha/Proyects/Solidity/F1Bet/ethereum/contracts/F1.sol\":4264:4282  checkStingEquality */\n      tag_282\n        /* \"/home/rocha/Proyects/Solidity/F1Bet/ethereum/contracts/F1.sol\":4264:4325  checkStingEquality(contestantPrediction[j+1],constructors[j]) */\n      jump\t// in\n    tag_406:\n        /* \"/home/rocha/Proyects/Solidity/F1Bet/ethereum/contracts/F1.sol\":4199:4325  checkStingEquality(contestantPrediction[j-1],constructors[j]) || checkStingEquality(contestantPrediction[j+1],constructors[j]) */\n    tag_405:\n        /* \"/home/rocha/Proyects/Solidity/F1Bet/ethereum/contracts/F1.sol\":4196:4533  if(checkStingEquality(contestantPrediction[j-1],constructors[j]) || checkStingEquality(contestantPrediction[j+1],constructors[j])){... */\n      iszero\n      tag_418\n      jumpi\n        /* \"/home/rocha/Proyects/Solidity/F1Bet/ethereum/contracts/F1.sol\":4360:4361  3 */\n      0x03\n        /* \"/home/rocha/Proyects/Solidity/F1Bet/ethereum/contracts/F1.sol\":4352:4361  points+=3 */\n      dup3\n      tag_419\n      swap2\n      swap1\n      tag_187\n      jump\t// in\n    tag_419:\n      swap2\n      pop\n        /* \"/home/rocha/Proyects/Solidity/F1Bet/ethereum/contracts/F1.sol\":4196:4533  if(checkStingEquality(contestantPrediction[j-1],constructors[j]) || checkStingEquality(contestantPrediction[j+1],constructors[j])){... */\n      jump(tag_420)\n    tag_418:\n        /* \"/home/rocha/Proyects/Solidity/F1Bet/ethereum/contracts/F1.sol\":4413:4474  checkStingEquality(contestantPrediction[j-2],constructors[j]) */\n      tag_421\n        /* \"/home/rocha/Proyects/Solidity/F1Bet/ethereum/contracts/F1.sol\":4432:4452  contestantPrediction */\n      dup4\n        /* \"/home/rocha/Proyects/Solidity/F1Bet/ethereum/contracts/F1.sol\":4455:4456  2 */\n      0x02\n        /* \"/home/rocha/Proyects/Solidity/F1Bet/ethereum/contracts/F1.sol\":4453:4454  j */\n      dup4\n        /* \"/home/rocha/Proyects/Solidity/F1Bet/ethereum/contracts/F1.sol\":4453:4456  j-2 */\n      tag_422\n      swap2\n      swap1\n      tag_334\n      jump\t// in\n    tag_422:\n        /* \"/home/rocha/Proyects/Solidity/F1Bet/ethereum/contracts/F1.sol\":4432:4457  contestantPrediction[j-2] */\n      0xff\n      and\n      dup2\n      mload\n      dup2\n      lt\n      tag_423\n      jumpi\n      tag_424\n      tag_103\n      jump\t// in\n    tag_424:\n    tag_423:\n      0x20\n      mul\n      0x20\n      add\n      add\n      mload\n        /* \"/home/rocha/Proyects/Solidity/F1Bet/ethereum/contracts/F1.sol\":4458:4470  constructors */\n      0x04\n        /* \"/home/rocha/Proyects/Solidity/F1Bet/ethereum/contracts/F1.sol\":4471:4472  j */\n      dup4\n        /* \"/home/rocha/Proyects/Solidity/F1Bet/ethereum/contracts/F1.sol\":4458:4473  constructors[j] */\n      0xff\n      and\n      dup2\n      sload\n      dup2\n      lt\n      tag_425\n      jumpi\n      tag_426\n      tag_103\n      jump\t// in\n    tag_426:\n    tag_425:\n      swap1\n      0x00\n      mstore\n      keccak256(0x00, 0x20)\n      add\n        /* \"/home/rocha/Proyects/Solidity/F1Bet/ethereum/contracts/F1.sol\":4413:4474  checkStingEquality(contestantPrediction[j-2],constructors[j]) */\n      dup1\n      sload\n      tag_428\n      swap1\n      tag_262\n      jump\t// in\n    tag_428:\n      dup1\n      0x1f\n      add\n      0x20\n      dup1\n      swap2\n      div\n      mul\n      0x20\n      add\n      mload(0x40)\n      swap1\n      dup2\n      add\n      0x40\n      mstore\n      dup1\n      swap3\n      swap2\n      swap1\n      dup2\n      dup2\n      mstore\n      0x20\n      add\n      dup3\n      dup1\n      sload\n      tag_429\n      swap1\n      tag_262\n      jump\t// in\n    tag_429:\n      dup1\n      iszero\n      tag_430\n      jumpi\n      dup1\n      0x1f\n      lt\n      tag_431\n      jumpi\n      0x0100\n      dup1\n      dup4\n      sload\n      div\n      mul\n      dup4\n      mstore\n      swap2\n      0x20\n      add\n      swap2\n      jump(tag_430)\n    tag_431:\n      dup3\n      add\n      swap2\n      swap1\n      0x00\n      mstore\n      keccak256(0x00, 0x20)\n      swap1\n    tag_432:\n      dup2\n      sload\n      dup2\n      mstore\n      swap1\n      0x01\n      add\n      swap1\n      0x20\n      add\n      dup1\n      dup4\n      gt\n      tag_432\n      jumpi\n      dup3\n      swap1\n      sub\n      0x1f\n      and\n      dup3\n      add\n      swap2\n    tag_430:\n      pop\n      pop\n      pop\n      pop\n      pop\n        /* \"/home/rocha/Proyects/Solidity/F1Bet/ethereum/contracts/F1.sol\":4413:4431  checkStingEquality */\n      tag_282\n        /* \"/home/rocha/Proyects/Solidity/F1Bet/ethereum/contracts/F1.sol\":4413:4474  checkStingEquality(contestantPrediction[j-2],constructors[j]) */\n      jump\t// in\n    tag_421:\n        /* \"/home/rocha/Proyects/Solidity/F1Bet/ethereum/contracts/F1.sol\":4410:4533  if(checkStingEquality(contestantPrediction[j-2],constructors[j])){... */\n      iszero\n      tag_433\n      jumpi\n        /* \"/home/rocha/Proyects/Solidity/F1Bet/ethereum/contracts/F1.sol\":4509:4510  1 */\n      0x01\n        /* \"/home/rocha/Proyects/Solidity/F1Bet/ethereum/contracts/F1.sol\":4501:4510  points+=1 */\n      dup3\n      tag_434\n      swap2\n      swap1\n      tag_187\n      jump\t// in\n    tag_434:\n      swap2\n      pop\n        /* \"/home/rocha/Proyects/Solidity/F1Bet/ethereum/contracts/F1.sol\":4410:4533  if(checkStingEquality(contestantPrediction[j-2],constructors[j])){... */\n    tag_433:\n        /* \"/home/rocha/Proyects/Solidity/F1Bet/ethereum/contracts/F1.sol\":4196:4533  if(checkStingEquality(contestantPrediction[j-1],constructors[j]) || checkStingEquality(contestantPrediction[j+1],constructors[j])){... */\n    tag_420:\n        /* \"/home/rocha/Proyects/Solidity/F1Bet/ethereum/contracts/F1.sol\":4069:4533  if(checkStingEquality(contestantPrediction[j],constructors[j])){... */\n    tag_392:\n        /* \"/home/rocha/Proyects/Solidity/F1Bet/ethereum/contracts/F1.sol\":4019:5596  if(j==constructors.length-2){... */\n      jump(tag_435)\n    tag_378:\n        /* \"/home/rocha/Proyects/Solidity/F1Bet/ethereum/contracts/F1.sol\":4582:4583  1 */\n      0x01\n        /* \"/home/rocha/Proyects/Solidity/F1Bet/ethereum/contracts/F1.sol\":4562:4574  constructors */\n      0x04\n        /* \"/home/rocha/Proyects/Solidity/F1Bet/ethereum/contracts/F1.sol\":4562:4581  constructors.length */\n      dup1\n      sload\n      swap1\n      pop\n        /* \"/home/rocha/Proyects/Solidity/F1Bet/ethereum/contracts/F1.sol\":4562:4583  constructors.length-1 */\n      tag_436\n      swap2\n      swap1\n      tag_377\n      jump\t// in\n    tag_436:\n        /* \"/home/rocha/Proyects/Solidity/F1Bet/ethereum/contracts/F1.sol\":4559:4560  j */\n      dup2\n        /* \"/home/rocha/Proyects/Solidity/F1Bet/ethereum/contracts/F1.sol\":4559:4583  j==constructors.length-1 */\n      0xff\n      and\n      eq\n        /* \"/home/rocha/Proyects/Solidity/F1Bet/ethereum/contracts/F1.sol\":4556:5596  if(j==constructors.length-1){... */\n      iszero\n      tag_437\n      jumpi\n        /* \"/home/rocha/Proyects/Solidity/F1Bet/ethereum/contracts/F1.sol\":4609:4668  checkStingEquality(contestantPrediction[j],constructors[j]) */\n      tag_438\n        /* \"/home/rocha/Proyects/Solidity/F1Bet/ethereum/contracts/F1.sol\":4628:4648  contestantPrediction */\n      dup4\n        /* \"/home/rocha/Proyects/Solidity/F1Bet/ethereum/contracts/F1.sol\":4649:4650  j */\n      dup3\n        /* \"/home/rocha/Proyects/Solidity/F1Bet/ethereum/contracts/F1.sol\":4628:4651  contestantPrediction[j] */\n      0xff\n      and\n      dup2\n      mload\n      dup2\n      lt\n      tag_439\n      jumpi\n      tag_440\n      tag_103\n      jump\t// in\n    tag_440:\n    tag_439:\n      0x20\n      mul\n      0x20\n      add\n      add\n      mload\n        /* \"/home/rocha/Proyects/Solidity/F1Bet/ethereum/contracts/F1.sol\":4652:4664  constructors */\n      0x04\n        /* \"/home/rocha/Proyects/Solidity/F1Bet/ethereum/contracts/F1.sol\":4665:4666  j */\n      dup4\n        /* \"/home/rocha/Proyects/Solidity/F1Bet/ethereum/contracts/F1.sol\":4652:4667  constructors[j] */\n      0xff\n      and\n      dup2\n      sload\n      dup2\n      lt\n      tag_441\n      jumpi\n      tag_442\n      tag_103\n      jump\t// in\n    tag_442:\n    tag_441:\n      swap1\n      0x00\n      mstore\n      keccak256(0x00, 0x20)\n      add\n        /* \"/home/rocha/Proyects/Solidity/F1Bet/ethereum/contracts/F1.sol\":4609:4668  checkStingEquality(contestantPrediction[j],constructors[j]) */\n      dup1\n      sload\n      tag_444\n      swap1\n      tag_262\n      jump\t// in\n    tag_444:\n      dup1\n      0x1f\n      add\n      0x20\n      dup1\n      swap2\n      div\n      mul\n      0x20\n      add\n      mload(0x40)\n      swap1\n      dup2\n      add\n      0x40\n      mstore\n      dup1\n      swap3\n      swap2\n      swap1\n      dup2\n      dup2\n      mstore\n      0x20\n      add\n      dup3\n      dup1\n      sload\n      tag_445\n      swap1\n      tag_262\n      jump\t// in\n    tag_445:\n      dup1\n      iszero\n      tag_446\n      jumpi\n      dup1\n      0x1f\n      lt\n      tag_447\n      jumpi\n      0x0100\n      dup1\n      dup4\n      sload\n      div\n      mul\n      dup4\n      mstore\n      swap2\n      0x20\n      add\n      swap2\n      jump(tag_446)\n    tag_447:\n      dup3\n      add\n      swap2\n      swap1\n      0x00\n      mstore\n      keccak256(0x00, 0x20)\n      swap1\n    tag_448:\n      dup2\n      sload\n      dup2\n      mstore\n      swap1\n      0x01\n      add\n      swap1\n      0x20\n      add\n      dup1\n      dup4\n      gt\n      tag_448\n      jumpi\n      dup3\n      swap1\n      sub\n      0x1f\n      and\n      dup3\n      add\n      swap2\n    tag_446:\n      pop\n      pop\n      pop\n      pop\n      pop\n        /* \"/home/rocha/Proyects/Solidity/F1Bet/ethereum/contracts/F1.sol\":4609:4627  checkStingEquality */\n      tag_282\n        /* \"/home/rocha/Proyects/Solidity/F1Bet/ethereum/contracts/F1.sol\":4609:4668  checkStingEquality(contestantPrediction[j],constructors[j]) */\n      jump\t// in\n    tag_438:\n        /* \"/home/rocha/Proyects/Solidity/F1Bet/ethereum/contracts/F1.sol\":4606:5005  if(checkStingEquality(contestantPrediction[j],constructors[j])){... */\n      iszero\n      tag_449\n      jumpi\n        /* \"/home/rocha/Proyects/Solidity/F1Bet/ethereum/contracts/F1.sol\":4704:4705  5 */\n      0x05\n        /* \"/home/rocha/Proyects/Solidity/F1Bet/ethereum/contracts/F1.sol\":4695:4705  points+= 5 */\n      dup3\n      tag_450\n      swap2\n      swap1\n      tag_187\n      jump\t// in\n    tag_450:\n      swap2\n      pop\n        /* \"/home/rocha/Proyects/Solidity/F1Bet/ethereum/contracts/F1.sol\":4606:5005  if(checkStingEquality(contestantPrediction[j],constructors[j])){... */\n      jump(tag_451)\n    tag_449:\n        /* \"/home/rocha/Proyects/Solidity/F1Bet/ethereum/contracts/F1.sol\":4736:4797  checkStingEquality(contestantPrediction[j-1],constructors[j]) */\n      tag_452\n        /* \"/home/rocha/Proyects/Solidity/F1Bet/ethereum/contracts/F1.sol\":4755:4775  contestantPrediction */\n      dup4\n        /* \"/home/rocha/Proyects/Solidity/F1Bet/ethereum/contracts/F1.sol\":4778:4779  1 */\n      0x01\n        /* \"/home/rocha/Proyects/Solidity/F1Bet/ethereum/contracts/F1.sol\":4776:4777  j */\n      dup4\n        /* \"/home/rocha/Proyects/Solidity/F1Bet/ethereum/contracts/F1.sol\":4776:4779  j-1 */\n      tag_453\n      swap2\n      swap1\n      tag_334\n      jump\t// in\n    tag_453:\n        /* \"/home/rocha/Proyects/Solidity/F1Bet/ethereum/contracts/F1.sol\":4755:4780  contestantPrediction[j-1] */\n      0xff\n      and\n      dup2\n      mload\n      dup2\n      lt\n      tag_454\n      jumpi\n      tag_455\n      tag_103\n      jump\t// in\n    tag_455:\n    tag_454:\n      0x20\n      mul\n      0x20\n      add\n      add\n      mload\n        /* \"/home/rocha/Proyects/Solidity/F1Bet/ethereum/contracts/F1.sol\":4781:4793  constructors */\n      0x04\n        /* \"/home/rocha/Proyects/Solidity/F1Bet/ethereum/contracts/F1.sol\":4794:4795  j */\n      dup4\n        /* \"/home/rocha/Proyects/Solidity/F1Bet/ethereum/contracts/F1.sol\":4781:4796  constructors[j] */\n      0xff\n      and\n      dup2\n      sload\n      dup2\n      lt\n      tag_456\n      jumpi\n      tag_457\n      tag_103\n      jump\t// in\n    tag_457:\n    tag_456:\n      swap1\n      0x00\n      mstore\n      keccak256(0x00, 0x20)\n      add\n        /* \"/home/rocha/Proyects/Solidity/F1Bet/ethereum/contracts/F1.sol\":4736:4797  checkStingEquality(contestantPrediction[j-1],constructors[j]) */\n      dup1\n      sload\n      tag_459\n      swap1\n      tag_262\n      jump\t// in\n    tag_459:\n      dup1\n      0x1f\n      add\n      0x20\n      dup1\n      swap2\n      div\n      mul\n      0x20\n      add\n      mload(0x40)\n      swap1\n      dup2\n      add\n      0x40\n      mstore\n      dup1\n      swap3\n      swap2\n      swap1\n      dup2\n      dup2\n      mstore\n      0x20\n      add\n      dup3\n      dup1\n      sload\n      tag_460\n      swap1\n      tag_262\n      jump\t// in\n    tag_460:\n      dup1\n      iszero\n      tag_461\n      jumpi\n      dup1\n      0x1f\n      lt\n      tag_462\n      jumpi\n      0x0100\n      dup1\n      dup4\n      sload\n      div\n      mul\n      dup4\n      mstore\n      swap2\n      0x20\n      add\n      swap2\n      jump(tag_461)\n    tag_462:\n      dup3\n      add\n      swap2\n      swap1\n      0x00\n      mstore\n      keccak256(0x00, 0x20)\n      swap1\n    tag_463:\n      dup2\n      sload\n      dup2\n      mstore\n      swap1\n      0x01\n      add\n      swap1\n      0x20\n      add\n      dup1\n      dup4\n      gt\n      tag_463\n      jumpi\n      dup3\n      swap1\n      sub\n      0x1f\n      and\n      dup3\n      add\n      swap2\n    tag_461:\n      pop\n      pop\n      pop\n      pop\n      pop\n        /* \"/home/rocha/Proyects/Solidity/F1Bet/ethereum/contracts/F1.sol\":4736:4754  checkStingEquality */\n      tag_282\n        /* \"/home/rocha/Proyects/Solidity/F1Bet/ethereum/contracts/F1.sol\":4736:4797  checkStingEquality(contestantPrediction[j-1],constructors[j]) */\n      jump\t// in\n    tag_452:\n        /* \"/home/rocha/Proyects/Solidity/F1Bet/ethereum/contracts/F1.sol\":4733:5005  if(checkStingEquality(contestantPrediction[j-1],constructors[j])){... */\n      iszero\n      tag_464\n      jumpi\n        /* \"/home/rocha/Proyects/Solidity/F1Bet/ethereum/contracts/F1.sol\":4832:4833  3 */\n      0x03\n        /* \"/home/rocha/Proyects/Solidity/F1Bet/ethereum/contracts/F1.sol\":4824:4833  points+=3 */\n      dup3\n      tag_465\n      swap2\n      swap1\n      tag_187\n      jump\t// in\n    tag_465:\n      swap2\n      pop\n        /* \"/home/rocha/Proyects/Solidity/F1Bet/ethereum/contracts/F1.sol\":4733:5005  if(checkStingEquality(contestantPrediction[j-1],constructors[j])){... */\n      jump(tag_466)\n    tag_464:\n        /* \"/home/rocha/Proyects/Solidity/F1Bet/ethereum/contracts/F1.sol\":4885:4946  checkStingEquality(contestantPrediction[j-2],constructors[j]) */\n      tag_467\n        /* \"/home/rocha/Proyects/Solidity/F1Bet/ethereum/contracts/F1.sol\":4904:4924  contestantPrediction */\n      dup4\n        /* \"/home/rocha/Proyects/Solidity/F1Bet/ethereum/contracts/F1.sol\":4927:4928  2 */\n      0x02\n        /* \"/home/rocha/Proyects/Solidity/F1Bet/ethereum/contracts/F1.sol\":4925:4926  j */\n      dup4\n        /* \"/home/rocha/Proyects/Solidity/F1Bet/ethereum/contracts/F1.sol\":4925:4928  j-2 */\n      tag_468\n      swap2\n      swap1\n      tag_334\n      jump\t// in\n    tag_468:\n        /* \"/home/rocha/Proyects/Solidity/F1Bet/ethereum/contracts/F1.sol\":4904:4929  contestantPrediction[j-2] */\n      0xff\n      and\n      dup2\n      mload\n      dup2\n      lt\n      tag_469\n      jumpi\n      tag_470\n      tag_103\n      jump\t// in\n    tag_470:\n    tag_469:\n      0x20\n      mul\n      0x20\n      add\n      add\n      mload\n        /* \"/home/rocha/Proyects/Solidity/F1Bet/ethereum/contracts/F1.sol\":4930:4942  constructors */\n      0x04\n        /* \"/home/rocha/Proyects/Solidity/F1Bet/ethereum/contracts/F1.sol\":4943:4944  j */\n      dup4\n        /* \"/home/rocha/Proyects/Solidity/F1Bet/ethereum/contracts/F1.sol\":4930:4945  constructors[j] */\n      0xff\n      and\n      dup2\n      sload\n      dup2\n      lt\n      tag_471\n      jumpi\n      tag_472\n      tag_103\n      jump\t// in\n    tag_472:\n    tag_471:\n      swap1\n      0x00\n      mstore\n      keccak256(0x00, 0x20)\n      add\n        /* \"/home/rocha/Proyects/Solidity/F1Bet/ethereum/contracts/F1.sol\":4885:4946  checkStingEquality(contestantPrediction[j-2],constructors[j]) */\n      dup1\n      sload\n      tag_474\n      swap1\n      tag_262\n      jump\t// in\n    tag_474:\n      dup1\n      0x1f\n      add\n      0x20\n      dup1\n      swap2\n      div\n      mul\n      0x20\n      add\n      mload(0x40)\n      swap1\n      dup2\n      add\n      0x40\n      mstore\n      dup1\n      swap3\n      swap2\n      swap1\n      dup2\n      dup2\n      mstore\n      0x20\n      add\n      dup3\n      dup1\n      sload\n      tag_475\n      swap1\n      tag_262\n      jump\t// in\n    tag_475:\n      dup1\n      iszero\n      tag_476\n      jumpi\n      dup1\n      0x1f\n      lt\n      tag_477\n      jumpi\n      0x0100\n      dup1\n      dup4\n      sload\n      div\n      mul\n      dup4\n      mstore\n      swap2\n      0x20\n      add\n      swap2\n      jump(tag_476)\n    tag_477:\n      dup3\n      add\n      swap2\n      swap1\n      0x00\n      mstore\n      keccak256(0x00, 0x20)\n      swap1\n    tag_478:\n      dup2\n      sload\n      dup2\n      mstore\n      swap1\n      0x01\n      add\n      swap1\n      0x20\n      add\n      dup1\n      dup4\n      gt\n      tag_478\n      jumpi\n      dup3\n      swap1\n      sub\n      0x1f\n      and\n      dup3\n      add\n      swap2\n    tag_476:\n      pop\n      pop\n      pop\n      pop\n      pop\n        /* \"/home/rocha/Proyects/Solidity/F1Bet/ethereum/contracts/F1.sol\":4885:4903  checkStingEquality */\n      tag_282\n        /* \"/home/rocha/Proyects/Solidity/F1Bet/ethereum/contracts/F1.sol\":4885:4946  checkStingEquality(contestantPrediction[j-2],constructors[j]) */\n      jump\t// in\n    tag_467:\n        /* \"/home/rocha/Proyects/Solidity/F1Bet/ethereum/contracts/F1.sol\":4882:5005  if(checkStingEquality(contestantPrediction[j-2],constructors[j])){... */\n      iszero\n      tag_479\n      jumpi\n        /* \"/home/rocha/Proyects/Solidity/F1Bet/ethereum/contracts/F1.sol\":4981:4982  1 */\n      0x01\n        /* \"/home/rocha/Proyects/Solidity/F1Bet/ethereum/contracts/F1.sol\":4973:4982  points+=1 */\n      dup3\n      tag_480\n      swap2\n      swap1\n      tag_187\n      jump\t// in\n    tag_480:\n      swap2\n      pop\n        /* \"/home/rocha/Proyects/Solidity/F1Bet/ethereum/contracts/F1.sol\":4882:5005  if(checkStingEquality(contestantPrediction[j-2],constructors[j])){... */\n    tag_479:\n        /* \"/home/rocha/Proyects/Solidity/F1Bet/ethereum/contracts/F1.sol\":4733:5005  if(checkStingEquality(contestantPrediction[j-1],constructors[j])){... */\n    tag_466:\n        /* \"/home/rocha/Proyects/Solidity/F1Bet/ethereum/contracts/F1.sol\":4606:5005  if(checkStingEquality(contestantPrediction[j],constructors[j])){... */\n    tag_451:\n        /* \"/home/rocha/Proyects/Solidity/F1Bet/ethereum/contracts/F1.sol\":4556:5596  if(j==constructors.length-1){... */\n      jump(tag_481)\n    tag_437:\n        /* \"/home/rocha/Proyects/Solidity/F1Bet/ethereum/contracts/F1.sol\":5052:5111  checkStingEquality(contestantPrediction[j],constructors[j]) */\n      tag_482\n        /* \"/home/rocha/Proyects/Solidity/F1Bet/ethereum/contracts/F1.sol\":5071:5091  contestantPrediction */\n      dup4\n        /* \"/home/rocha/Proyects/Solidity/F1Bet/ethereum/contracts/F1.sol\":5092:5093  j */\n      dup3\n        /* \"/home/rocha/Proyects/Solidity/F1Bet/ethereum/contracts/F1.sol\":5071:5094  contestantPrediction[j] */\n      0xff\n      and\n      dup2\n      mload\n      dup2\n      lt\n      tag_483\n      jumpi\n      tag_484\n      tag_103\n      jump\t// in\n    tag_484:\n    tag_483:\n      0x20\n      mul\n      0x20\n      add\n      add\n      mload\n        /* \"/home/rocha/Proyects/Solidity/F1Bet/ethereum/contracts/F1.sol\":5095:5107  constructors */\n      0x04\n        /* \"/home/rocha/Proyects/Solidity/F1Bet/ethereum/contracts/F1.sol\":5108:5109  j */\n      dup4\n        /* \"/home/rocha/Proyects/Solidity/F1Bet/ethereum/contracts/F1.sol\":5095:5110  constructors[j] */\n      0xff\n      and\n      dup2\n      sload\n      dup2\n      lt\n      tag_485\n      jumpi\n      tag_486\n      tag_103\n      jump\t// in\n    tag_486:\n    tag_485:\n      swap1\n      0x00\n      mstore\n      keccak256(0x00, 0x20)\n      add\n        /* \"/home/rocha/Proyects/Solidity/F1Bet/ethereum/contracts/F1.sol\":5052:5111  checkStingEquality(contestantPrediction[j],constructors[j]) */\n      dup1\n      sload\n      tag_488\n      swap1\n      tag_262\n      jump\t// in\n    tag_488:\n      dup1\n      0x1f\n      add\n      0x20\n      dup1\n      swap2\n      div\n      mul\n      0x20\n      add\n      mload(0x40)\n      swap1\n      dup2\n      add\n      0x40\n      mstore\n      dup1\n      swap3\n      swap2\n      swap1\n      dup2\n      dup2\n      mstore\n      0x20\n      add\n      dup3\n      dup1\n      sload\n      tag_489\n      swap1\n      tag_262\n      jump\t// in\n    tag_489:\n      dup1\n      iszero\n      tag_490\n      jumpi\n      dup1\n      0x1f\n      lt\n      tag_491\n      jumpi\n      0x0100\n      dup1\n      dup4\n      sload\n      div\n      mul\n      dup4\n      mstore\n      swap2\n      0x20\n      add\n      swap2\n      jump(tag_490)\n    tag_491:\n      dup3\n      add\n      swap2\n      swap1\n      0x00\n      mstore\n      keccak256(0x00, 0x20)\n      swap1\n    tag_492:\n      dup2\n      sload\n      dup2\n      mstore\n      swap1\n      0x01\n      add\n      swap1\n      0x20\n      add\n      dup1\n      dup4\n      gt\n      tag_492\n      jumpi\n      dup3\n      swap1\n      sub\n      0x1f\n      and\n      dup3\n      add\n      swap2\n    tag_490:\n      pop\n      pop\n      pop\n      pop\n      pop\n        /* \"/home/rocha/Proyects/Solidity/F1Bet/ethereum/contracts/F1.sol\":5052:5070  checkStingEquality */\n      tag_282\n        /* \"/home/rocha/Proyects/Solidity/F1Bet/ethereum/contracts/F1.sol\":5052:5111  checkStingEquality(contestantPrediction[j],constructors[j]) */\n      jump\t// in\n    tag_482:\n        /* \"/home/rocha/Proyects/Solidity/F1Bet/ethereum/contracts/F1.sol\":5049:5578  if(checkStingEquality(contestantPrediction[j],constructors[j])){... */\n      iszero\n      tag_493\n      jumpi\n        /* \"/home/rocha/Proyects/Solidity/F1Bet/ethereum/contracts/F1.sol\":5147:5148  5 */\n      0x05\n        /* \"/home/rocha/Proyects/Solidity/F1Bet/ethereum/contracts/F1.sol\":5138:5148  points+= 5 */\n      dup3\n      tag_494\n      swap2\n      swap1\n      tag_187\n      jump\t// in\n    tag_494:\n      swap2\n      pop\n        /* \"/home/rocha/Proyects/Solidity/F1Bet/ethereum/contracts/F1.sol\":5049:5578  if(checkStingEquality(contestantPrediction[j],constructors[j])){... */\n      jump(tag_495)\n    tag_493:\n        /* \"/home/rocha/Proyects/Solidity/F1Bet/ethereum/contracts/F1.sol\":5179:5240  checkStingEquality(contestantPrediction[j-1],constructors[j]) */\n      tag_496\n        /* \"/home/rocha/Proyects/Solidity/F1Bet/ethereum/contracts/F1.sol\":5198:5218  contestantPrediction */\n      dup4\n        /* \"/home/rocha/Proyects/Solidity/F1Bet/ethereum/contracts/F1.sol\":5221:5222  1 */\n      0x01\n        /* \"/home/rocha/Proyects/Solidity/F1Bet/ethereum/contracts/F1.sol\":5219:5220  j */\n      dup4\n        /* \"/home/rocha/Proyects/Solidity/F1Bet/ethereum/contracts/F1.sol\":5219:5222  j-1 */\n      tag_497\n      swap2\n      swap1\n      tag_334\n      jump\t// in\n    tag_497:\n        /* \"/home/rocha/Proyects/Solidity/F1Bet/ethereum/contracts/F1.sol\":5198:5223  contestantPrediction[j-1] */\n      0xff\n      and\n      dup2\n      mload\n      dup2\n      lt\n      tag_498\n      jumpi\n      tag_499\n      tag_103\n      jump\t// in\n    tag_499:\n    tag_498:\n      0x20\n      mul\n      0x20\n      add\n      add\n      mload\n        /* \"/home/rocha/Proyects/Solidity/F1Bet/ethereum/contracts/F1.sol\":5224:5236  constructors */\n      0x04\n        /* \"/home/rocha/Proyects/Solidity/F1Bet/ethereum/contracts/F1.sol\":5237:5238  j */\n      dup4\n        /* \"/home/rocha/Proyects/Solidity/F1Bet/ethereum/contracts/F1.sol\":5224:5239  constructors[j] */\n      0xff\n      and\n      dup2\n      sload\n      dup2\n      lt\n      tag_500\n      jumpi\n      tag_501\n      tag_103\n      jump\t// in\n    tag_501:\n    tag_500:\n      swap1\n      0x00\n      mstore\n      keccak256(0x00, 0x20)\n      add\n        /* \"/home/rocha/Proyects/Solidity/F1Bet/ethereum/contracts/F1.sol\":5179:5240  checkStingEquality(contestantPrediction[j-1],constructors[j]) */\n      dup1\n      sload\n      tag_503\n      swap1\n      tag_262\n      jump\t// in\n    tag_503:\n      dup1\n      0x1f\n      add\n      0x20\n      dup1\n      swap2\n      div\n      mul\n      0x20\n      add\n      mload(0x40)\n      swap1\n      dup2\n      add\n      0x40\n      mstore\n      dup1\n      swap3\n      swap2\n      swap1\n      dup2\n      dup2\n      mstore\n      0x20\n      add\n      dup3\n      dup1\n      sload\n      tag_504\n      swap1\n      tag_262\n      jump\t// in\n    tag_504:\n      dup1\n      iszero\n      tag_505\n      jumpi\n      dup1\n      0x1f\n      lt\n      tag_506\n      jumpi\n      0x0100\n      dup1\n      dup4\n      sload\n      div\n      mul\n      dup4\n      mstore\n      swap2\n      0x20\n      add\n      swap2\n      jump(tag_505)\n    tag_506:\n      dup3\n      add\n      swap2\n      swap1\n      0x00\n      mstore\n      keccak256(0x00, 0x20)\n      swap1\n    tag_507:\n      dup2\n      sload\n      dup2\n      mstore\n      swap1\n      0x01\n      add\n      swap1\n      0x20\n      add\n      dup1\n      dup4\n      gt\n      tag_507\n      jumpi\n      dup3\n      swap1\n      sub\n      0x1f\n      and\n      dup3\n      add\n      swap2\n    tag_505:\n      pop\n      pop\n      pop\n      pop\n      pop\n        /* \"/home/rocha/Proyects/Solidity/F1Bet/ethereum/contracts/F1.sol\":5179:5197  checkStingEquality */\n      tag_282\n        /* \"/home/rocha/Proyects/Solidity/F1Bet/ethereum/contracts/F1.sol\":5179:5240  checkStingEquality(contestantPrediction[j-1],constructors[j]) */\n      jump\t// in\n    tag_496:\n        /* \"/home/rocha/Proyects/Solidity/F1Bet/ethereum/contracts/F1.sol\":5179:5305  checkStingEquality(contestantPrediction[j-1],constructors[j]) || checkStingEquality(contestantPrediction[j+1],constructors[j]) */\n      dup1\n      tag_508\n      jumpi\n      pop\n        /* \"/home/rocha/Proyects/Solidity/F1Bet/ethereum/contracts/F1.sol\":5244:5305  checkStingEquality(contestantPrediction[j+1],constructors[j]) */\n      tag_509\n        /* \"/home/rocha/Proyects/Solidity/F1Bet/ethereum/contracts/F1.sol\":5263:5283  contestantPrediction */\n      dup4\n        /* \"/home/rocha/Proyects/Solidity/F1Bet/ethereum/contracts/F1.sol\":5286:5287  1 */\n      0x01\n        /* \"/home/rocha/Proyects/Solidity/F1Bet/ethereum/contracts/F1.sol\":5284:5285  j */\n      dup4\n        /* \"/home/rocha/Proyects/Solidity/F1Bet/ethereum/contracts/F1.sol\":5284:5287  j+1 */\n      tag_510\n      swap2\n      swap1\n      tag_288\n      jump\t// in\n    tag_510:\n        /* \"/home/rocha/Proyects/Solidity/F1Bet/ethereum/contracts/F1.sol\":5263:5288  contestantPrediction[j+1] */\n      0xff\n      and\n      dup2\n      mload\n      dup2\n      lt\n      tag_511\n      jumpi\n      tag_512\n      tag_103\n      jump\t// in\n    tag_512:\n    tag_511:\n      0x20\n      mul\n      0x20\n      add\n      add\n      mload\n        /* \"/home/rocha/Proyects/Solidity/F1Bet/ethereum/contracts/F1.sol\":5289:5301  constructors */\n      0x04\n        /* \"/home/rocha/Proyects/Solidity/F1Bet/ethereum/contracts/F1.sol\":5302:5303  j */\n      dup4\n        /* \"/home/rocha/Proyects/Solidity/F1Bet/ethereum/contracts/F1.sol\":5289:5304  constructors[j] */\n      0xff\n      and\n      dup2\n      sload\n      dup2\n      lt\n      tag_513\n      jumpi\n      tag_514\n      tag_103\n      jump\t// in\n    tag_514:\n    tag_513:\n      swap1\n      0x00\n      mstore\n      keccak256(0x00, 0x20)\n      add\n        /* \"/home/rocha/Proyects/Solidity/F1Bet/ethereum/contracts/F1.sol\":5244:5305  checkStingEquality(contestantPrediction[j+1],constructors[j]) */\n      dup1\n      sload\n      tag_516\n      swap1\n      tag_262\n      jump\t// in\n    tag_516:\n      dup1\n      0x1f\n      add\n      0x20\n      dup1\n      swap2\n      div\n      mul\n      0x20\n      add\n      mload(0x40)\n      swap1\n      dup2\n      add\n      0x40\n      mstore\n      dup1\n      swap3\n      swap2\n      swap1\n      dup2\n      dup2\n      mstore\n      0x20\n      add\n      dup3\n      dup1\n      sload\n      tag_517\n      swap1\n      tag_262\n      jump\t// in\n    tag_517:\n      dup1\n      iszero\n      tag_518\n      jumpi\n      dup1\n      0x1f\n      lt\n      tag_519\n      jumpi\n      0x0100\n      dup1\n      dup4\n      sload\n      div\n      mul\n      dup4\n      mstore\n      swap2\n      0x20\n      add\n      swap2\n      jump(tag_518)\n    tag_519:\n      dup3\n      add\n      swap2\n      swap1\n      0x00\n      mstore\n      keccak256(0x00, 0x20)\n      swap1\n    tag_520:\n      dup2\n      sload\n      dup2\n      mstore\n      swap1\n      0x01\n      add\n      swap1\n      0x20\n      add\n      dup1\n      dup4\n      gt\n      tag_520\n      jumpi\n      dup3\n      swap1\n      sub\n      0x1f\n      and\n      dup3\n      add\n      swap2\n    tag_518:\n      pop\n      pop\n      pop\n      pop\n      pop\n        /* \"/home/rocha/Proyects/Solidity/F1Bet/ethereum/contracts/F1.sol\":5244:5262  checkStingEquality */\n      tag_282\n        /* \"/home/rocha/Proyects/Solidity/F1Bet/ethereum/contracts/F1.sol\":5244:5305  checkStingEquality(contestantPrediction[j+1],constructors[j]) */\n      jump\t// in\n    tag_509:\n        /* \"/home/rocha/Proyects/Solidity/F1Bet/ethereum/contracts/F1.sol\":5179:5305  checkStingEquality(contestantPrediction[j-1],constructors[j]) || checkStingEquality(contestantPrediction[j+1],constructors[j]) */\n    tag_508:\n        /* \"/home/rocha/Proyects/Solidity/F1Bet/ethereum/contracts/F1.sol\":5176:5578  if(checkStingEquality(contestantPrediction[j-1],constructors[j]) || checkStingEquality(contestantPrediction[j+1],constructors[j])){... */\n      iszero\n      tag_521\n      jumpi\n        /* \"/home/rocha/Proyects/Solidity/F1Bet/ethereum/contracts/F1.sol\":5340:5341  3 */\n      0x03\n        /* \"/home/rocha/Proyects/Solidity/F1Bet/ethereum/contracts/F1.sol\":5332:5341  points+=3 */\n      dup3\n      tag_522\n      swap2\n      swap1\n      tag_187\n      jump\t// in\n    tag_522:\n      swap2\n      pop\n        /* \"/home/rocha/Proyects/Solidity/F1Bet/ethereum/contracts/F1.sol\":5176:5578  if(checkStingEquality(contestantPrediction[j-1],constructors[j]) || checkStingEquality(contestantPrediction[j+1],constructors[j])){... */\n      jump(tag_523)\n    tag_521:\n        /* \"/home/rocha/Proyects/Solidity/F1Bet/ethereum/contracts/F1.sol\":5393:5454  checkStingEquality(contestantPrediction[j-2],constructors[j]) */\n      tag_524\n        /* \"/home/rocha/Proyects/Solidity/F1Bet/ethereum/contracts/F1.sol\":5412:5432  contestantPrediction */\n      dup4\n        /* \"/home/rocha/Proyects/Solidity/F1Bet/ethereum/contracts/F1.sol\":5435:5436  2 */\n      0x02\n        /* \"/home/rocha/Proyects/Solidity/F1Bet/ethereum/contracts/F1.sol\":5433:5434  j */\n      dup4\n        /* \"/home/rocha/Proyects/Solidity/F1Bet/ethereum/contracts/F1.sol\":5433:5436  j-2 */\n      tag_525\n      swap2\n      swap1\n      tag_334\n      jump\t// in\n    tag_525:\n        /* \"/home/rocha/Proyects/Solidity/F1Bet/ethereum/contracts/F1.sol\":5412:5437  contestantPrediction[j-2] */\n      0xff\n      and\n      dup2\n      mload\n      dup2\n      lt\n      tag_526\n      jumpi\n      tag_527\n      tag_103\n      jump\t// in\n    tag_527:\n    tag_526:\n      0x20\n      mul\n      0x20\n      add\n      add\n      mload\n        /* \"/home/rocha/Proyects/Solidity/F1Bet/ethereum/contracts/F1.sol\":5438:5450  constructors */\n      0x04\n        /* \"/home/rocha/Proyects/Solidity/F1Bet/ethereum/contracts/F1.sol\":5451:5452  j */\n      dup4\n        /* \"/home/rocha/Proyects/Solidity/F1Bet/ethereum/contracts/F1.sol\":5438:5453  constructors[j] */\n      0xff\n      and\n      dup2\n      sload\n      dup2\n      lt\n      tag_528\n      jumpi\n      tag_529\n      tag_103\n      jump\t// in\n    tag_529:\n    tag_528:\n      swap1\n      0x00\n      mstore\n      keccak256(0x00, 0x20)\n      add\n        /* \"/home/rocha/Proyects/Solidity/F1Bet/ethereum/contracts/F1.sol\":5393:5454  checkStingEquality(contestantPrediction[j-2],constructors[j]) */\n      dup1\n      sload\n      tag_531\n      swap1\n      tag_262\n      jump\t// in\n    tag_531:\n      dup1\n      0x1f\n      add\n      0x20\n      dup1\n      swap2\n      div\n      mul\n      0x20\n      add\n      mload(0x40)\n      swap1\n      dup2\n      add\n      0x40\n      mstore\n      dup1\n      swap3\n      swap2\n      swap1\n      dup2\n      dup2\n      mstore\n      0x20\n      add\n      dup3\n      dup1\n      sload\n      tag_532\n      swap1\n      tag_262\n      jump\t// in\n    tag_532:\n      dup1\n      iszero\n      tag_533\n      jumpi\n      dup1\n      0x1f\n      lt\n      tag_534\n      jumpi\n      0x0100\n      dup1\n      dup4\n      sload\n      div\n      mul\n      dup4\n      mstore\n      swap2\n      0x20\n      add\n      swap2\n      jump(tag_533)\n    tag_534:\n      dup3\n      add\n      swap2\n      swap1\n      0x00\n      mstore\n      keccak256(0x00, 0x20)\n      swap1\n    tag_535:\n      dup2\n      sload\n      dup2\n      mstore\n      swap1\n      0x01\n      add\n      swap1\n      0x20\n      add\n      dup1\n      dup4\n      gt\n      tag_535\n      jumpi\n      dup3\n      swap1\n      sub\n      0x1f\n      and\n      dup3\n      add\n      swap2\n    tag_533:\n      pop\n      pop\n      pop\n      pop\n      pop\n        /* \"/home/rocha/Proyects/Solidity/F1Bet/ethereum/contracts/F1.sol\":5393:5411  checkStingEquality */\n      tag_282\n        /* \"/home/rocha/Proyects/Solidity/F1Bet/ethereum/contracts/F1.sol\":5393:5454  checkStingEquality(contestantPrediction[j-2],constructors[j]) */\n      jump\t// in\n    tag_524:\n        /* \"/home/rocha/Proyects/Solidity/F1Bet/ethereum/contracts/F1.sol\":5393:5519  checkStingEquality(contestantPrediction[j-2],constructors[j]) || checkStingEquality(contestantPrediction[j+2],constructors[j]) */\n      dup1\n      tag_536\n      jumpi\n      pop\n        /* \"/home/rocha/Proyects/Solidity/F1Bet/ethereum/contracts/F1.sol\":5458:5519  checkStingEquality(contestantPrediction[j+2],constructors[j]) */\n      tag_537\n        /* \"/home/rocha/Proyects/Solidity/F1Bet/ethereum/contracts/F1.sol\":5477:5497  contestantPrediction */\n      dup4\n        /* \"/home/rocha/Proyects/Solidity/F1Bet/ethereum/contracts/F1.sol\":5500:5501  2 */\n      0x02\n        /* \"/home/rocha/Proyects/Solidity/F1Bet/ethereum/contracts/F1.sol\":5498:5499  j */\n      dup4\n        /* \"/home/rocha/Proyects/Solidity/F1Bet/ethereum/contracts/F1.sol\":5498:5501  j+2 */\n      tag_538\n      swap2\n      swap1\n      tag_288\n      jump\t// in\n    tag_538:\n        /* \"/home/rocha/Proyects/Solidity/F1Bet/ethereum/contracts/F1.sol\":5477:5502  contestantPrediction[j+2] */\n      0xff\n      and\n      dup2\n      mload\n      dup2\n      lt\n      tag_539\n      jumpi\n      tag_540\n      tag_103\n      jump\t// in\n    tag_540:\n    tag_539:\n      0x20\n      mul\n      0x20\n      add\n      add\n      mload\n        /* \"/home/rocha/Proyects/Solidity/F1Bet/ethereum/contracts/F1.sol\":5503:5515  constructors */\n      0x04\n        /* \"/home/rocha/Proyects/Solidity/F1Bet/ethereum/contracts/F1.sol\":5516:5517  j */\n      dup4\n        /* \"/home/rocha/Proyects/Solidity/F1Bet/ethereum/contracts/F1.sol\":5503:5518  constructors[j] */\n      0xff\n      and\n      dup2\n      sload\n      dup2\n      lt\n      tag_541\n      jumpi\n      tag_542\n      tag_103\n      jump\t// in\n    tag_542:\n    tag_541:\n      swap1\n      0x00\n      mstore\n      keccak256(0x00, 0x20)\n      add\n        /* \"/home/rocha/Proyects/Solidity/F1Bet/ethereum/contracts/F1.sol\":5458:5519  checkStingEquality(contestantPrediction[j+2],constructors[j]) */\n      dup1\n      sload\n      tag_544\n      swap1\n      tag_262\n      jump\t// in\n    tag_544:\n      dup1\n      0x1f\n      add\n      0x20\n      dup1\n      swap2\n      div\n      mul\n      0x20\n      add\n      mload(0x40)\n      swap1\n      dup2\n      add\n      0x40\n      mstore\n      dup1\n      swap3\n      swap2\n      swap1\n      dup2\n      dup2\n      mstore\n      0x20\n      add\n      dup3\n      dup1\n      sload\n      tag_545\n      swap1\n      tag_262\n      jump\t// in\n    tag_545:\n      dup1\n      iszero\n      tag_546\n      jumpi\n      dup1\n      0x1f\n      lt\n      tag_547\n      jumpi\n      0x0100\n      dup1\n      dup4\n      sload\n      div\n      mul\n      dup4\n      mstore\n      swap2\n      0x20\n      add\n      swap2\n      jump(tag_546)\n    tag_547:\n      dup3\n      add\n      swap2\n      swap1\n      0x00\n      mstore\n      keccak256(0x00, 0x20)\n      swap1\n    tag_548:\n      dup2\n      sload\n      dup2\n      mstore\n      swap1\n      0x01\n      add\n      swap1\n      0x20\n      add\n      dup1\n      dup4\n      gt\n      tag_548\n      jumpi\n      dup3\n      swap1\n      sub\n      0x1f\n      and\n      dup3\n      add\n      swap2\n    tag_546:\n      pop\n      pop\n      pop\n      pop\n      pop\n        /* \"/home/rocha/Proyects/Solidity/F1Bet/ethereum/contracts/F1.sol\":5458:5476  checkStingEquality */\n      tag_282\n        /* \"/home/rocha/Proyects/Solidity/F1Bet/ethereum/contracts/F1.sol\":5458:5519  checkStingEquality(contestantPrediction[j+2],constructors[j]) */\n      jump\t// in\n    tag_537:\n        /* \"/home/rocha/Proyects/Solidity/F1Bet/ethereum/contracts/F1.sol\":5393:5519  checkStingEquality(contestantPrediction[j-2],constructors[j]) || checkStingEquality(contestantPrediction[j+2],constructors[j]) */\n    tag_536:\n        /* \"/home/rocha/Proyects/Solidity/F1Bet/ethereum/contracts/F1.sol\":5390:5578  if(checkStingEquality(contestantPrediction[j-2],constructors[j]) || checkStingEquality(contestantPrediction[j+2],constructors[j])){... */\n      iszero\n      tag_549\n      jumpi\n        /* \"/home/rocha/Proyects/Solidity/F1Bet/ethereum/contracts/F1.sol\":5554:5555  1 */\n      0x01\n        /* \"/home/rocha/Proyects/Solidity/F1Bet/ethereum/contracts/F1.sol\":5546:5555  points+=1 */\n      dup3\n      tag_550\n      swap2\n      swap1\n      tag_187\n      jump\t// in\n    tag_550:\n      swap2\n      pop\n        /* \"/home/rocha/Proyects/Solidity/F1Bet/ethereum/contracts/F1.sol\":5390:5578  if(checkStingEquality(contestantPrediction[j-2],constructors[j]) || checkStingEquality(contestantPrediction[j+2],constructors[j])){... */\n    tag_549:\n        /* \"/home/rocha/Proyects/Solidity/F1Bet/ethereum/contracts/F1.sol\":5176:5578  if(checkStingEquality(contestantPrediction[j-1],constructors[j]) || checkStingEquality(contestantPrediction[j+1],constructors[j])){... */\n    tag_523:\n        /* \"/home/rocha/Proyects/Solidity/F1Bet/ethereum/contracts/F1.sol\":5049:5578  if(checkStingEquality(contestantPrediction[j],constructors[j])){... */\n    tag_495:\n        /* \"/home/rocha/Proyects/Solidity/F1Bet/ethereum/contracts/F1.sol\":4556:5596  if(j==constructors.length-1){... */\n    tag_481:\n        /* \"/home/rocha/Proyects/Solidity/F1Bet/ethereum/contracts/F1.sol\":4019:5596  if(j==constructors.length-2){... */\n    tag_435:\n        /* \"/home/rocha/Proyects/Solidity/F1Bet/ethereum/contracts/F1.sol\":3502:5596  if(j<2){... */\n    tag_375:\n        /* \"/home/rocha/Proyects/Solidity/F1Bet/ethereum/contracts/F1.sol\":3050:5596  if(j<1){... */\n    tag_316:\n        /* \"/home/rocha/Proyects/Solidity/F1Bet/ethereum/contracts/F1.sol\":3028:3031  j++ */\n      dup1\n      dup1\n      tag_551\n      swap1\n      tag_107\n      jump\t// in\n    tag_551:\n      swap2\n      pop\n      pop\n        /* \"/home/rocha/Proyects/Solidity/F1Bet/ethereum/contracts/F1.sol\":2993:5610  for(uint8 j; j<constructors.length;j++){... */\n      jump(tag_267)\n    tag_268:\n      pop\n        /* \"/home/rocha/Proyects/Solidity/F1Bet/ethereum/contracts/F1.sol\":5672:5678  points */\n      dup1\n        /* \"/home/rocha/Proyects/Solidity/F1Bet/ethereum/contracts/F1.sol\":5623:5634  predictions */\n      0x00\n        /* \"/home/rocha/Proyects/Solidity/F1Bet/ethereum/contracts/F1.sol\":5623:5650  predictions[contestants[i]] */\n      dup1\n        /* \"/home/rocha/Proyects/Solidity/F1Bet/ethereum/contracts/F1.sol\":5635:5646  contestants */\n      0x01\n        /* \"/home/rocha/Proyects/Solidity/F1Bet/ethereum/contracts/F1.sol\":5647:5648  i */\n      dup7\n        /* \"/home/rocha/Proyects/Solidity/F1Bet/ethereum/contracts/F1.sol\":5635:5649  contestants[i] */\n      0xff\n      and\n      dup2\n      sload\n      dup2\n      lt\n      tag_552\n      jumpi\n      tag_553\n      tag_103\n      jump\t// in\n    tag_553:\n    tag_552:\n      swap1\n      0x00\n      mstore\n      keccak256(0x00, 0x20)\n      add\n      0x00\n      swap1\n      sload\n      swap1\n      0x0100\n      exp\n      swap1\n      div\n      0xffffffffffffffffffffffffffffffffffffffff\n      and\n        /* \"/home/rocha/Proyects/Solidity/F1Bet/ethereum/contracts/F1.sol\":5623:5650  predictions[contestants[i]] */\n      0xffffffffffffffffffffffffffffffffffffffff\n      and\n      0xffffffffffffffffffffffffffffffffffffffff\n      and\n      dup2\n      mstore\n      0x20\n      add\n      swap1\n      dup2\n      mstore\n      0x20\n      add\n      0x00\n      keccak256\n        /* \"/home/rocha/Proyects/Solidity/F1Bet/ethereum/contracts/F1.sol\":5623:5669  predictions[contestants[i]].constructorsPoints */\n      0x03\n      add\n        /* \"/home/rocha/Proyects/Solidity/F1Bet/ethereum/contracts/F1.sol\":5623:5678  predictions[contestants[i]].constructorsPoints = points */\n      dup2\n      swap1\n      sstore\n      pop\n        /* \"/home/rocha/Proyects/Solidity/F1Bet/ethereum/contracts/F1.sol\":2861:5689  {... */\n      pop\n      pop\n        /* \"/home/rocha/Proyects/Solidity/F1Bet/ethereum/contracts/F1.sol\":2857:2860  i++ */\n      dup1\n      dup1\n      tag_555\n      swap1\n      tag_107\n      jump\t// in\n    tag_555:\n      swap2\n      pop\n      pop\n        /* \"/home/rocha/Proyects/Solidity/F1Bet/ethereum/contracts/F1.sol\":2823:5689  for(uint8 i; i<contestants.length;i++){... */\n      jump(tag_252)\n    tag_253:\n      pop\n        /* \"/home/rocha/Proyects/Solidity/F1Bet/ethereum/contracts/F1.sol\":2767:5700  function calculateConstructorsTable() private {... */\n      jump\t// out\n        /* \"/home/rocha/Proyects/Solidity/F1Bet/ethereum/contracts/F1.sol\":5705:8648  function calculateDriversTable() private {... */\n    tag_139:\n        /* \"/home/rocha/Proyects/Solidity/F1Bet/ethereum/contracts/F1.sol\":5760:5767  uint8 i */\n      0x00\n        /* \"/home/rocha/Proyects/Solidity/F1Bet/ethereum/contracts/F1.sol\":5756:8642  for(uint8 i; i<contestants.length;i++){... */\n    tag_557:\n        /* \"/home/rocha/Proyects/Solidity/F1Bet/ethereum/contracts/F1.sol\":5771:5782  contestants */\n      0x01\n        /* \"/home/rocha/Proyects/Solidity/F1Bet/ethereum/contracts/F1.sol\":5771:5789  contestants.length */\n      dup1\n      sload\n      swap1\n      pop\n        /* \"/home/rocha/Proyects/Solidity/F1Bet/ethereum/contracts/F1.sol\":5769:5770  i */\n      dup2\n        /* \"/home/rocha/Proyects/Solidity/F1Bet/ethereum/contracts/F1.sol\":5769:5789  i<contestants.length */\n      0xff\n      and\n      lt\n        /* \"/home/rocha/Proyects/Solidity/F1Bet/ethereum/contracts/F1.sol\":5756:8642  for(uint8 i; i<contestants.length;i++){... */\n      iszero\n      tag_558\n      jumpi\n        /* \"/home/rocha/Proyects/Solidity/F1Bet/ethereum/contracts/F1.sol\":5808:5851  string[] memory contestantDriversPrediction */\n      0x00\n        /* \"/home/rocha/Proyects/Solidity/F1Bet/ethereum/contracts/F1.sol\":5854:5865  predictions */\n      dup1\n        /* \"/home/rocha/Proyects/Solidity/F1Bet/ethereum/contracts/F1.sol\":5854:5881  predictions[contestants[i]] */\n      0x00\n        /* \"/home/rocha/Proyects/Solidity/F1Bet/ethereum/contracts/F1.sol\":5866:5877  contestants */\n      0x01\n        /* \"/home/rocha/Proyects/Solidity/F1Bet/ethereum/contracts/F1.sol\":5878:5879  i */\n      dup5\n        /* \"/home/rocha/Proyects/Solidity/F1Bet/ethereum/contracts/F1.sol\":5866:5880  contestants[i] */\n      0xff\n      and\n      dup2\n      sload\n      dup2\n      lt\n      tag_560\n      jumpi\n      tag_561\n      tag_103\n      jump\t// in\n    tag_561:\n    tag_560:\n      swap1\n      0x00\n      mstore\n      keccak256(0x00, 0x20)\n      add\n      0x00\n      swap1\n      sload\n      swap1\n      0x0100\n      exp\n      swap1\n      div\n      0xffffffffffffffffffffffffffffffffffffffff\n      and\n        /* \"/home/rocha/Proyects/Solidity/F1Bet/ethereum/contracts/F1.sol\":5854:5881  predictions[contestants[i]] */\n      0xffffffffffffffffffffffffffffffffffffffff\n      and\n      0xffffffffffffffffffffffffffffffffffffffff\n      and\n      dup2\n      mstore\n      0x20\n      add\n      swap1\n      dup2\n      mstore\n      0x20\n      add\n      0x00\n      keccak256\n        /* \"/home/rocha/Proyects/Solidity/F1Bet/ethereum/contracts/F1.sol\":5854:5889  predictions[contestants[i]].drivers */\n      0x01\n      add\n        /* \"/home/rocha/Proyects/Solidity/F1Bet/ethereum/contracts/F1.sol\":5808:5889  string[] memory contestantDriversPrediction = predictions[contestants[i]].drivers */\n      dup1\n      sload\n      dup1\n      0x20\n      mul\n      0x20\n      add\n      mload(0x40)\n      swap1\n      dup2\n      add\n      0x40\n      mstore\n      dup1\n      swap3\n      swap2\n      swap1\n      dup2\n      dup2\n      mstore\n      0x20\n      add\n      0x00\n      swap1\n    tag_563:\n      dup3\n      dup3\n      lt\n      iszero\n      tag_564\n      jumpi\n      dup4\n      dup3\n      swap1\n      0x00\n      mstore\n      keccak256(0x00, 0x20)\n      add\n      dup1\n      sload\n      tag_566\n      swap1\n      tag_262\n      jump\t// in\n    tag_566:\n      dup1\n      0x1f\n      add\n      0x20\n      dup1\n      swap2\n      div\n      mul\n      0x20\n      add\n      mload(0x40)\n      swap1\n      dup2\n      add\n      0x40\n      mstore\n      dup1\n      swap3\n      swap2\n      swap1\n      dup2\n      dup2\n      mstore\n      0x20\n      add\n      dup3\n      dup1\n      sload\n      tag_567\n      swap1\n      tag_262\n      jump\t// in\n    tag_567:\n      dup1\n      iszero\n      tag_568\n      jumpi\n      dup1\n      0x1f\n      lt\n      tag_569\n      jumpi\n      0x0100\n      dup1\n      dup4\n      sload\n      div\n      mul\n      dup4\n      mstore\n      swap2\n      0x20\n      add\n      swap2\n      jump(tag_568)\n    tag_569:\n      dup3\n      add\n      swap2\n      swap1\n      0x00\n      mstore\n      keccak256(0x00, 0x20)\n      swap1\n    tag_570:\n      dup2\n      sload\n      dup2\n      mstore\n      swap1\n      0x01\n      add\n      swap1\n      0x20\n      add\n      dup1\n      dup4\n      gt\n      tag_570\n      jumpi\n      dup3\n      swap1\n      sub\n      0x1f\n      and\n      dup3\n      add\n      swap2\n    tag_568:\n      pop\n      pop\n      pop\n      pop\n      pop\n      dup2\n      mstore\n      0x20\n      add\n      swap1\n      0x01\n      add\n      swap1\n      jump(tag_563)\n    tag_564:\n      pop\n      pop\n      pop\n      pop\n      swap1\n      pop\n        /* \"/home/rocha/Proyects/Solidity/F1Bet/ethereum/contracts/F1.sol\":5903:5914  uint points */\n      0x00\n        /* \"/home/rocha/Proyects/Solidity/F1Bet/ethereum/contracts/F1.sol\":5932:5939  uint8 j */\n      dup1\n        /* \"/home/rocha/Proyects/Solidity/F1Bet/ethereum/contracts/F1.sol\":5928:8568  for(uint8 j; j<drivers.length;j++){... */\n    tag_571:\n        /* \"/home/rocha/Proyects/Solidity/F1Bet/ethereum/contracts/F1.sol\":5943:5950  drivers */\n      0x05\n        /* \"/home/rocha/Proyects/Solidity/F1Bet/ethereum/contracts/F1.sol\":5943:5957  drivers.length */\n      dup1\n      sload\n      swap1\n      pop\n        /* \"/home/rocha/Proyects/Solidity/F1Bet/ethereum/contracts/F1.sol\":5941:5942  j */\n      dup2\n        /* \"/home/rocha/Proyects/Solidity/F1Bet/ethereum/contracts/F1.sol\":5941:5957  j<drivers.length */\n      0xff\n      and\n      lt\n        /* \"/home/rocha/Proyects/Solidity/F1Bet/ethereum/contracts/F1.sol\":5928:8568  for(uint8 j; j<drivers.length;j++){... */\n      iszero\n      tag_572\n      jumpi\n        /* \"/home/rocha/Proyects/Solidity/F1Bet/ethereum/contracts/F1.sol\":5985:5986  1 */\n      0x01\n        /* \"/home/rocha/Proyects/Solidity/F1Bet/ethereum/contracts/F1.sol\":5983:5984  j */\n      dup2\n        /* \"/home/rocha/Proyects/Solidity/F1Bet/ethereum/contracts/F1.sol\":5983:5986  j<1 */\n      0xff\n      and\n      lt\n        /* \"/home/rocha/Proyects/Solidity/F1Bet/ethereum/contracts/F1.sol\":5980:8554  if(j<1){... */\n      iszero\n      tag_574\n      jumpi\n        /* \"/home/rocha/Proyects/Solidity/F1Bet/ethereum/contracts/F1.sol\":6012:6073  checkStingEquality(contestantDriversPrediction[j],drivers[j]) */\n      tag_575\n        /* \"/home/rocha/Proyects/Solidity/F1Bet/ethereum/contracts/F1.sol\":6031:6058  contestantDriversPrediction */\n      dup4\n        /* \"/home/rocha/Proyects/Solidity/F1Bet/ethereum/contracts/F1.sol\":6059:6060  j */\n      dup3\n        /* \"/home/rocha/Proyects/Solidity/F1Bet/ethereum/contracts/F1.sol\":6031:6061  contestantDriversPrediction[j] */\n      0xff\n      and\n      dup2\n      mload\n      dup2\n      lt\n      tag_576\n      jumpi\n      tag_577\n      tag_103\n      jump\t// in\n    tag_577:\n    tag_576:\n      0x20\n      mul\n      0x20\n      add\n      add\n      mload\n        /* \"/home/rocha/Proyects/Solidity/F1Bet/ethereum/contracts/F1.sol\":6062:6069  drivers */\n      0x05\n        /* \"/home/rocha/Proyects/Solidity/F1Bet/ethereum/contracts/F1.sol\":6070:6071  j */\n      dup4\n        /* \"/home/rocha/Proyects/Solidity/F1Bet/ethereum/contracts/F1.sol\":6062:6072  drivers[j] */\n      0xff\n      and\n      dup2\n      sload\n      dup2\n      lt\n      tag_578\n      jumpi\n      tag_579\n      tag_103\n      jump\t// in\n    tag_579:\n    tag_578:\n      swap1\n      0x00\n      mstore\n      keccak256(0x00, 0x20)\n      add\n        /* \"/home/rocha/Proyects/Solidity/F1Bet/ethereum/contracts/F1.sol\":6012:6073  checkStingEquality(contestantDriversPrediction[j],drivers[j]) */\n      dup1\n      sload\n      tag_581\n      swap1\n      tag_262\n      jump\t// in\n    tag_581:\n      dup1\n      0x1f\n      add\n      0x20\n      dup1\n      swap2\n      div\n      mul\n      0x20\n      add\n      mload(0x40)\n      swap1\n      dup2\n      add\n      0x40\n      mstore\n      dup1\n      swap3\n      swap2\n      swap1\n      dup2\n      dup2\n      mstore\n      0x20\n      add\n      dup3\n      dup1\n      sload\n      tag_582\n      swap1\n      tag_262\n      jump\t// in\n    tag_582:\n      dup1\n      iszero\n      tag_583\n      jumpi\n      dup1\n      0x1f\n      lt\n      tag_584\n      jumpi\n      0x0100\n      dup1\n      dup4\n      sload\n      div\n      mul\n      dup4\n      mstore\n      swap2\n      0x20\n      add\n      swap2\n      jump(tag_583)\n    tag_584:\n      dup3\n      add\n      swap2\n      swap1\n      0x00\n      mstore\n      keccak256(0x00, 0x20)\n      swap1\n    tag_585:\n      dup2\n      sload\n      dup2\n      mstore\n      swap1\n      0x01\n      add\n      swap1\n      0x20\n      add\n      dup1\n      dup4\n      gt\n      tag_585\n      jumpi\n      dup3\n      swap1\n      sub\n      0x1f\n      and\n      dup3\n      add\n      swap2\n    tag_583:\n      pop\n      pop\n      pop\n      pop\n      pop\n        /* \"/home/rocha/Proyects/Solidity/F1Bet/ethereum/contracts/F1.sol\":6012:6030  checkStingEquality */\n      tag_282\n        /* \"/home/rocha/Proyects/Solidity/F1Bet/ethereum/contracts/F1.sol\":6012:6073  checkStingEquality(contestantDriversPrediction[j],drivers[j]) */\n      jump\t// in\n    tag_575:\n        /* \"/home/rocha/Proyects/Solidity/F1Bet/ethereum/contracts/F1.sol\":6009:6415  if(checkStingEquality(contestantDriversPrediction[j],drivers[j])){... */\n      iszero\n      tag_586\n      jumpi\n        /* \"/home/rocha/Proyects/Solidity/F1Bet/ethereum/contracts/F1.sol\":6109:6110  5 */\n      0x05\n        /* \"/home/rocha/Proyects/Solidity/F1Bet/ethereum/contracts/F1.sol\":6100:6110  points+= 5 */\n      dup3\n      tag_587\n      swap2\n      swap1\n      tag_187\n      jump\t// in\n    tag_587:\n      swap2\n      pop\n        /* \"/home/rocha/Proyects/Solidity/F1Bet/ethereum/contracts/F1.sol\":6009:6415  if(checkStingEquality(contestantDriversPrediction[j],drivers[j])){... */\n      jump(tag_588)\n    tag_586:\n        /* \"/home/rocha/Proyects/Solidity/F1Bet/ethereum/contracts/F1.sol\":6142:6205  checkStingEquality(contestantDriversPrediction[j+1],drivers[j]) */\n      tag_589\n        /* \"/home/rocha/Proyects/Solidity/F1Bet/ethereum/contracts/F1.sol\":6161:6188  contestantDriversPrediction */\n      dup4\n        /* \"/home/rocha/Proyects/Solidity/F1Bet/ethereum/contracts/F1.sol\":6191:6192  1 */\n      0x01\n        /* \"/home/rocha/Proyects/Solidity/F1Bet/ethereum/contracts/F1.sol\":6189:6190  j */\n      dup4\n        /* \"/home/rocha/Proyects/Solidity/F1Bet/ethereum/contracts/F1.sol\":6189:6192  j+1 */\n      tag_590\n      swap2\n      swap1\n      tag_288\n      jump\t// in\n    tag_590:\n        /* \"/home/rocha/Proyects/Solidity/F1Bet/ethereum/contracts/F1.sol\":6161:6193  contestantDriversPrediction[j+1] */\n      0xff\n      and\n      dup2\n      mload\n      dup2\n      lt\n      tag_591\n      jumpi\n      tag_592\n      tag_103\n      jump\t// in\n    tag_592:\n    tag_591:\n      0x20\n      mul\n      0x20\n      add\n      add\n      mload\n        /* \"/home/rocha/Proyects/Solidity/F1Bet/ethereum/contracts/F1.sol\":6194:6201  drivers */\n      0x05\n        /* \"/home/rocha/Proyects/Solidity/F1Bet/ethereum/contracts/F1.sol\":6202:6203  j */\n      dup4\n        /* \"/home/rocha/Proyects/Solidity/F1Bet/ethereum/contracts/F1.sol\":6194:6204  drivers[j] */\n      0xff\n      and\n      dup2\n      sload\n      dup2\n      lt\n      tag_593\n      jumpi\n      tag_594\n      tag_103\n      jump\t// in\n    tag_594:\n    tag_593:\n      swap1\n      0x00\n      mstore\n      keccak256(0x00, 0x20)\n      add\n        /* \"/home/rocha/Proyects/Solidity/F1Bet/ethereum/contracts/F1.sol\":6142:6205  checkStingEquality(contestantDriversPrediction[j+1],drivers[j]) */\n      dup1\n      sload\n      tag_596\n      swap1\n      tag_262\n      jump\t// in\n    tag_596:\n      dup1\n      0x1f\n      add\n      0x20\n      dup1\n      swap2\n      div\n      mul\n      0x20\n      add\n      mload(0x40)\n      swap1\n      dup2\n      add\n      0x40\n      mstore\n      dup1\n      swap3\n      swap2\n      swap1\n      dup2\n      dup2\n      mstore\n      0x20\n      add\n      dup3\n      dup1\n      sload\n      tag_597\n      swap1\n      tag_262\n      jump\t// in\n    tag_597:\n      dup1\n      iszero\n      tag_598\n      jumpi\n      dup1\n      0x1f\n      lt\n      tag_599\n      jumpi\n      0x0100\n      dup1\n      dup4\n      sload\n      div\n      mul\n      dup4\n      mstore\n      swap2\n      0x20\n      add\n      swap2\n      jump(tag_598)\n    tag_599:\n      dup3\n      add\n      swap2\n      swap1\n      0x00\n      mstore\n      keccak256(0x00, 0x20)\n      swap1\n    tag_600:\n      dup2\n      sload\n      dup2\n      mstore\n      swap1\n      0x01\n      add\n      swap1\n      0x20\n      add\n      dup1\n      dup4\n      gt\n      tag_600\n      jumpi\n      dup3\n      swap1\n      sub\n      0x1f\n      and\n      dup3\n      add\n      swap2\n    tag_598:\n      pop\n      pop\n      pop\n      pop\n      pop\n        /* \"/home/rocha/Proyects/Solidity/F1Bet/ethereum/contracts/F1.sol\":6142:6160  checkStingEquality */\n      tag_282\n        /* \"/home/rocha/Proyects/Solidity/F1Bet/ethereum/contracts/F1.sol\":6142:6205  checkStingEquality(contestantDriversPrediction[j+1],drivers[j]) */\n      jump\t// in\n    tag_589:\n        /* \"/home/rocha/Proyects/Solidity/F1Bet/ethereum/contracts/F1.sol\":6138:6415  if( checkStingEquality(contestantDriversPrediction[j+1],drivers[j])){... */\n      iszero\n      tag_601\n      jumpi\n        /* \"/home/rocha/Proyects/Solidity/F1Bet/ethereum/contracts/F1.sol\":6240:6241  3 */\n      0x03\n        /* \"/home/rocha/Proyects/Solidity/F1Bet/ethereum/contracts/F1.sol\":6232:6241  points+=3 */\n      dup3\n      tag_602\n      swap2\n      swap1\n      tag_187\n      jump\t// in\n    tag_602:\n      swap2\n      pop\n        /* \"/home/rocha/Proyects/Solidity/F1Bet/ethereum/contracts/F1.sol\":6138:6415  if( checkStingEquality(contestantDriversPrediction[j+1],drivers[j])){... */\n      jump(tag_603)\n    tag_601:\n        /* \"/home/rocha/Proyects/Solidity/F1Bet/ethereum/contracts/F1.sol\":6293:6356  checkStingEquality(contestantDriversPrediction[j+2],drivers[j]) */\n      tag_604\n        /* \"/home/rocha/Proyects/Solidity/F1Bet/ethereum/contracts/F1.sol\":6312:6339  contestantDriversPrediction */\n      dup4\n        /* \"/home/rocha/Proyects/Solidity/F1Bet/ethereum/contracts/F1.sol\":6342:6343  2 */\n      0x02\n        /* \"/home/rocha/Proyects/Solidity/F1Bet/ethereum/contracts/F1.sol\":6340:6341  j */\n      dup4\n        /* \"/home/rocha/Proyects/Solidity/F1Bet/ethereum/contracts/F1.sol\":6340:6343  j+2 */\n      tag_605\n      swap2\n      swap1\n      tag_288\n      jump\t// in\n    tag_605:\n        /* \"/home/rocha/Proyects/Solidity/F1Bet/ethereum/contracts/F1.sol\":6312:6344  contestantDriversPrediction[j+2] */\n      0xff\n      and\n      dup2\n      mload\n      dup2\n      lt\n      tag_606\n      jumpi\n      tag_607\n      tag_103\n      jump\t// in\n    tag_607:\n    tag_606:\n      0x20\n      mul\n      0x20\n      add\n      add\n      mload\n        /* \"/home/rocha/Proyects/Solidity/F1Bet/ethereum/contracts/F1.sol\":6345:6352  drivers */\n      0x05\n        /* \"/home/rocha/Proyects/Solidity/F1Bet/ethereum/contracts/F1.sol\":6353:6354  j */\n      dup4\n        /* \"/home/rocha/Proyects/Solidity/F1Bet/ethereum/contracts/F1.sol\":6345:6355  drivers[j] */\n      0xff\n      and\n      dup2\n      sload\n      dup2\n      lt\n      tag_608\n      jumpi\n      tag_609\n      tag_103\n      jump\t// in\n    tag_609:\n    tag_608:\n      swap1\n      0x00\n      mstore\n      keccak256(0x00, 0x20)\n      add\n        /* \"/home/rocha/Proyects/Solidity/F1Bet/ethereum/contracts/F1.sol\":6293:6356  checkStingEquality(contestantDriversPrediction[j+2],drivers[j]) */\n      dup1\n      sload\n      tag_611\n      swap1\n      tag_262\n      jump\t// in\n    tag_611:\n      dup1\n      0x1f\n      add\n      0x20\n      dup1\n      swap2\n      div\n      mul\n      0x20\n      add\n      mload(0x40)\n      swap1\n      dup2\n      add\n      0x40\n      mstore\n      dup1\n      swap3\n      swap2\n      swap1\n      dup2\n      dup2\n      mstore\n      0x20\n      add\n      dup3\n      dup1\n      sload\n      tag_612\n      swap1\n      tag_262\n      jump\t// in\n    tag_612:\n      dup1\n      iszero\n      tag_613\n      jumpi\n      dup1\n      0x1f\n      lt\n      tag_614\n      jumpi\n      0x0100\n      dup1\n      dup4\n      sload\n      div\n      mul\n      dup4\n      mstore\n      swap2\n      0x20\n      add\n      swap2\n      jump(tag_613)\n    tag_614:\n      dup3\n      add\n      swap2\n      swap1\n      0x00\n      mstore\n      keccak256(0x00, 0x20)\n      swap1\n    tag_615:\n      dup2\n      sload\n      dup2\n      mstore\n      swap1\n      0x01\n      add\n      swap1\n      0x20\n      add\n      dup1\n      dup4\n      gt\n      tag_615\n      jumpi\n      dup3\n      swap1\n      sub\n      0x1f\n      and\n      dup3\n      add\n      swap2\n    tag_613:\n      pop\n      pop\n      pop\n      pop\n      pop\n        /* \"/home/rocha/Proyects/Solidity/F1Bet/ethereum/contracts/F1.sol\":6293:6311  checkStingEquality */\n      tag_282\n        /* \"/home/rocha/Proyects/Solidity/F1Bet/ethereum/contracts/F1.sol\":6293:6356  checkStingEquality(contestantDriversPrediction[j+2],drivers[j]) */\n      jump\t// in\n    tag_604:\n        /* \"/home/rocha/Proyects/Solidity/F1Bet/ethereum/contracts/F1.sol\":6290:6415  if(checkStingEquality(contestantDriversPrediction[j+2],drivers[j])){... */\n      iszero\n      tag_616\n      jumpi\n        /* \"/home/rocha/Proyects/Solidity/F1Bet/ethereum/contracts/F1.sol\":6391:6392  1 */\n      0x01\n        /* \"/home/rocha/Proyects/Solidity/F1Bet/ethereum/contracts/F1.sol\":6383:6392  points+=1 */\n      dup3\n      tag_617\n      swap2\n      swap1\n      tag_187\n      jump\t// in\n    tag_617:\n      swap2\n      pop\n        /* \"/home/rocha/Proyects/Solidity/F1Bet/ethereum/contracts/F1.sol\":6290:6415  if(checkStingEquality(contestantDriversPrediction[j+2],drivers[j])){... */\n    tag_616:\n        /* \"/home/rocha/Proyects/Solidity/F1Bet/ethereum/contracts/F1.sol\":6138:6415  if( checkStingEquality(contestantDriversPrediction[j+1],drivers[j])){... */\n    tag_603:\n        /* \"/home/rocha/Proyects/Solidity/F1Bet/ethereum/contracts/F1.sol\":6009:6415  if(checkStingEquality(contestantDriversPrediction[j],drivers[j])){... */\n    tag_588:\n        /* \"/home/rocha/Proyects/Solidity/F1Bet/ethereum/contracts/F1.sol\":5980:8554  if(j<1){... */\n      jump(tag_618)\n    tag_574:\n        /* \"/home/rocha/Proyects/Solidity/F1Bet/ethereum/contracts/F1.sol\":6443:6444  2 */\n      0x02\n        /* \"/home/rocha/Proyects/Solidity/F1Bet/ethereum/contracts/F1.sol\":6441:6442  j */\n      dup2\n        /* \"/home/rocha/Proyects/Solidity/F1Bet/ethereum/contracts/F1.sol\":6441:6444  j<2 */\n      0xff\n      and\n      lt\n        /* \"/home/rocha/Proyects/Solidity/F1Bet/ethereum/contracts/F1.sol\":6438:8554  if(j<2){... */\n      iszero\n      tag_619\n      jumpi\n        /* \"/home/rocha/Proyects/Solidity/F1Bet/ethereum/contracts/F1.sol\":6470:6531  checkStingEquality(contestantDriversPrediction[j],drivers[j]) */\n      tag_620\n        /* \"/home/rocha/Proyects/Solidity/F1Bet/ethereum/contracts/F1.sol\":6489:6516  contestantDriversPrediction */\n      dup4\n        /* \"/home/rocha/Proyects/Solidity/F1Bet/ethereum/contracts/F1.sol\":6517:6518  j */\n      dup3\n        /* \"/home/rocha/Proyects/Solidity/F1Bet/ethereum/contracts/F1.sol\":6489:6519  contestantDriversPrediction[j] */\n      0xff\n      and\n      dup2\n      mload\n      dup2\n      lt\n      tag_621\n      jumpi\n      tag_622\n      tag_103\n      jump\t// in\n    tag_622:\n    tag_621:\n      0x20\n      mul\n      0x20\n      add\n      add\n      mload\n        /* \"/home/rocha/Proyects/Solidity/F1Bet/ethereum/contracts/F1.sol\":6520:6527  drivers */\n      0x05\n        /* \"/home/rocha/Proyects/Solidity/F1Bet/ethereum/contracts/F1.sol\":6528:6529  j */\n      dup4\n        /* \"/home/rocha/Proyects/Solidity/F1Bet/ethereum/contracts/F1.sol\":6520:6530  drivers[j] */\n      0xff\n      and\n      dup2\n      sload\n      dup2\n      lt\n      tag_623\n      jumpi\n      tag_624\n      tag_103\n      jump\t// in\n    tag_624:\n    tag_623:\n      swap1\n      0x00\n      mstore\n      keccak256(0x00, 0x20)\n      add\n        /* \"/home/rocha/Proyects/Solidity/F1Bet/ethereum/contracts/F1.sol\":6470:6531  checkStingEquality(contestantDriversPrediction[j],drivers[j]) */\n      dup1\n      sload\n      tag_626\n      swap1\n      tag_262\n      jump\t// in\n    tag_626:\n      dup1\n      0x1f\n      add\n      0x20\n      dup1\n      swap2\n      div\n      mul\n      0x20\n      add\n      mload(0x40)\n      swap1\n      dup2\n      add\n      0x40\n      mstore\n      dup1\n      swap3\n      swap2\n      swap1\n      dup2\n      dup2\n      mstore\n      0x20\n      add\n      dup3\n      dup1\n      sload\n      tag_627\n      swap1\n      tag_262\n      jump\t// in\n    tag_627:\n      dup1\n      iszero\n      tag_628\n      jumpi\n      dup1\n      0x1f\n      lt\n      tag_629\n      jumpi\n      0x0100\n      dup1\n      dup4\n      sload\n      div\n      mul\n      dup4\n      mstore\n      swap2\n      0x20\n      add\n      swap2\n      jump(tag_628)\n    tag_629:\n      dup3\n      add\n      swap2\n      swap1\n      0x00\n      mstore\n      keccak256(0x00, 0x20)\n      swap1\n    tag_630:\n      dup2\n      sload\n      dup2\n      mstore\n      swap1\n      0x01\n      add\n      swap1\n      0x20\n      add\n      dup1\n      dup4\n      gt\n      tag_630\n      jumpi\n      dup3\n      swap1\n      sub\n      0x1f\n      and\n      dup3\n      add\n      swap2\n    tag_628:\n      pop\n      pop\n      pop\n      pop\n      pop\n        /* \"/home/rocha/Proyects/Solidity/F1Bet/ethereum/contracts/F1.sol\":6470:6488  checkStingEquality */\n      tag_282\n        /* \"/home/rocha/Proyects/Solidity/F1Bet/ethereum/contracts/F1.sol\":6470:6531  checkStingEquality(contestantDriversPrediction[j],drivers[j]) */\n      jump\t// in\n    tag_620:\n        /* \"/home/rocha/Proyects/Solidity/F1Bet/ethereum/contracts/F1.sol\":6467:6940  if(checkStingEquality(contestantDriversPrediction[j],drivers[j])){... */\n      iszero\n      tag_631\n      jumpi\n        /* \"/home/rocha/Proyects/Solidity/F1Bet/ethereum/contracts/F1.sol\":6567:6568  5 */\n      0x05\n        /* \"/home/rocha/Proyects/Solidity/F1Bet/ethereum/contracts/F1.sol\":6558:6568  points+= 5 */\n      dup3\n      tag_632\n      swap2\n      swap1\n      tag_187\n      jump\t// in\n    tag_632:\n      swap2\n      pop\n        /* \"/home/rocha/Proyects/Solidity/F1Bet/ethereum/contracts/F1.sol\":6467:6940  if(checkStingEquality(contestantDriversPrediction[j],drivers[j])){... */\n      jump(tag_633)\n    tag_631:\n        /* \"/home/rocha/Proyects/Solidity/F1Bet/ethereum/contracts/F1.sol\":6599:6662  checkStingEquality(contestantDriversPrediction[j-1],drivers[j]) */\n      tag_634\n        /* \"/home/rocha/Proyects/Solidity/F1Bet/ethereum/contracts/F1.sol\":6618:6645  contestantDriversPrediction */\n      dup4\n        /* \"/home/rocha/Proyects/Solidity/F1Bet/ethereum/contracts/F1.sol\":6648:6649  1 */\n      0x01\n        /* \"/home/rocha/Proyects/Solidity/F1Bet/ethereum/contracts/F1.sol\":6646:6647  j */\n      dup4\n        /* \"/home/rocha/Proyects/Solidity/F1Bet/ethereum/contracts/F1.sol\":6646:6649  j-1 */\n      tag_635\n      swap2\n      swap1\n      tag_334\n      jump\t// in\n    tag_635:\n        /* \"/home/rocha/Proyects/Solidity/F1Bet/ethereum/contracts/F1.sol\":6618:6650  contestantDriversPrediction[j-1] */\n      0xff\n      and\n      dup2\n      mload\n      dup2\n      lt\n      tag_636\n      jumpi\n      tag_637\n      tag_103\n      jump\t// in\n    tag_637:\n    tag_636:\n      0x20\n      mul\n      0x20\n      add\n      add\n      mload\n        /* \"/home/rocha/Proyects/Solidity/F1Bet/ethereum/contracts/F1.sol\":6651:6658  drivers */\n      0x05\n        /* \"/home/rocha/Proyects/Solidity/F1Bet/ethereum/contracts/F1.sol\":6659:6660  j */\n      dup4\n        /* \"/home/rocha/Proyects/Solidity/F1Bet/ethereum/contracts/F1.sol\":6651:6661  drivers[j] */\n      0xff\n      and\n      dup2\n      sload\n      dup2\n      lt\n      tag_638\n      jumpi\n      tag_639\n      tag_103\n      jump\t// in\n    tag_639:\n    tag_638:\n      swap1\n      0x00\n      mstore\n      keccak256(0x00, 0x20)\n      add\n        /* \"/home/rocha/Proyects/Solidity/F1Bet/ethereum/contracts/F1.sol\":6599:6662  checkStingEquality(contestantDriversPrediction[j-1],drivers[j]) */\n      dup1\n      sload\n      tag_641\n      swap1\n      tag_262\n      jump\t// in\n    tag_641:\n      dup1\n      0x1f\n      add\n      0x20\n      dup1\n      swap2\n      div\n      mul\n      0x20\n      add\n      mload(0x40)\n      swap1\n      dup2\n      add\n      0x40\n      mstore\n      dup1\n      swap3\n      swap2\n      swap1\n      dup2\n      dup2\n      mstore\n      0x20\n      add\n      dup3\n      dup1\n      sload\n      tag_642\n      swap1\n      tag_262\n      jump\t// in\n    tag_642:\n      dup1\n      iszero\n      tag_643\n      jumpi\n      dup1\n      0x1f\n      lt\n      tag_644\n      jumpi\n      0x0100\n      dup1\n      dup4\n      sload\n      div\n      mul\n      dup4\n      mstore\n      swap2\n      0x20\n      add\n      swap2\n      jump(tag_643)\n    tag_644:\n      dup3\n      add\n      swap2\n      swap1\n      0x00\n      mstore\n      keccak256(0x00, 0x20)\n      swap1\n    tag_645:\n      dup2\n      sload\n      dup2\n      mstore\n      swap1\n      0x01\n      add\n      swap1\n      0x20\n      add\n      dup1\n      dup4\n      gt\n      tag_645\n      jumpi\n      dup3\n      swap1\n      sub\n      0x1f\n      and\n      dup3\n      add\n      swap2\n    tag_643:\n      pop\n      pop\n      pop\n      pop\n      pop\n        /* \"/home/rocha/Proyects/Solidity/F1Bet/ethereum/contracts/F1.sol\":6599:6617  checkStingEquality */\n      tag_282\n        /* \"/home/rocha/Proyects/Solidity/F1Bet/ethereum/contracts/F1.sol\":6599:6662  checkStingEquality(contestantDriversPrediction[j-1],drivers[j]) */\n      jump\t// in\n    tag_634:\n        /* \"/home/rocha/Proyects/Solidity/F1Bet/ethereum/contracts/F1.sol\":6599:6729  checkStingEquality(contestantDriversPrediction[j-1],drivers[j]) || checkStingEquality(contestantDriversPrediction[j+1],drivers[j]) */\n      dup1\n      tag_646\n      jumpi\n      pop\n        /* \"/home/rocha/Proyects/Solidity/F1Bet/ethereum/contracts/F1.sol\":6666:6729  checkStingEquality(contestantDriversPrediction[j+1],drivers[j]) */\n      tag_647\n        /* \"/home/rocha/Proyects/Solidity/F1Bet/ethereum/contracts/F1.sol\":6685:6712  contestantDriversPrediction */\n      dup4\n        /* \"/home/rocha/Proyects/Solidity/F1Bet/ethereum/contracts/F1.sol\":6715:6716  1 */\n      0x01\n        /* \"/home/rocha/Proyects/Solidity/F1Bet/ethereum/contracts/F1.sol\":6713:6714  j */\n      dup4\n        /* \"/home/rocha/Proyects/Solidity/F1Bet/ethereum/contracts/F1.sol\":6713:6716  j+1 */\n      tag_648\n      swap2\n      swap1\n      tag_288\n      jump\t// in\n    tag_648:\n        /* \"/home/rocha/Proyects/Solidity/F1Bet/ethereum/contracts/F1.sol\":6685:6717  contestantDriversPrediction[j+1] */\n      0xff\n      and\n      dup2\n      mload\n      dup2\n      lt\n      tag_649\n      jumpi\n      tag_650\n      tag_103\n      jump\t// in\n    tag_650:\n    tag_649:\n      0x20\n      mul\n      0x20\n      add\n      add\n      mload\n        /* \"/home/rocha/Proyects/Solidity/F1Bet/ethereum/contracts/F1.sol\":6718:6725  drivers */\n      0x05\n        /* \"/home/rocha/Proyects/Solidity/F1Bet/ethereum/contracts/F1.sol\":6726:6727  j */\n      dup4\n        /* \"/home/rocha/Proyects/Solidity/F1Bet/ethereum/contracts/F1.sol\":6718:6728  drivers[j] */\n      0xff\n      and\n      dup2\n      sload\n      dup2\n      lt\n      tag_651\n      jumpi\n      tag_652\n      tag_103\n      jump\t// in\n    tag_652:\n    tag_651:\n      swap1\n      0x00\n      mstore\n      keccak256(0x00, 0x20)\n      add\n        /* \"/home/rocha/Proyects/Solidity/F1Bet/ethereum/contracts/F1.sol\":6666:6729  checkStingEquality(contestantDriversPrediction[j+1],drivers[j]) */\n      dup1\n      sload\n      tag_654\n      swap1\n      tag_262\n      jump\t// in\n    tag_654:\n      dup1\n      0x1f\n      add\n      0x20\n      dup1\n      swap2\n      div\n      mul\n      0x20\n      add\n      mload(0x40)\n      swap1\n      dup2\n      add\n      0x40\n      mstore\n      dup1\n      swap3\n      swap2\n      swap1\n      dup2\n      dup2\n      mstore\n      0x20\n      add\n      dup3\n      dup1\n      sload\n      tag_655\n      swap1\n      tag_262\n      jump\t// in\n    tag_655:\n      dup1\n      iszero\n      tag_656\n      jumpi\n      dup1\n      0x1f\n      lt\n      tag_657\n      jumpi\n      0x0100\n      dup1\n      dup4\n      sload\n      div\n      mul\n      dup4\n      mstore\n      swap2\n      0x20\n      add\n      swap2\n      jump(tag_656)\n    tag_657:\n      dup3\n      add\n      swap2\n      swap1\n      0x00\n      mstore\n      keccak256(0x00, 0x20)\n      swap1\n    tag_658:\n      dup2\n      sload\n      dup2\n      mstore\n      swap1\n      0x01\n      add\n      swap1\n      0x20\n      add\n      dup1\n      dup4\n      gt\n      tag_658\n      jumpi\n      dup3\n      swap1\n      sub\n      0x1f\n      and\n      dup3\n      add\n      swap2\n    tag_656:\n      pop\n      pop\n      pop\n      pop\n      pop\n        /* \"/home/rocha/Proyects/Solidity/F1Bet/ethereum/contracts/F1.sol\":6666:6684  checkStingEquality */\n      tag_282\n        /* \"/home/rocha/Proyects/Solidity/F1Bet/ethereum/contracts/F1.sol\":6666:6729  checkStingEquality(contestantDriversPrediction[j+1],drivers[j]) */\n      jump\t// in\n    tag_647:\n        /* \"/home/rocha/Proyects/Solidity/F1Bet/ethereum/contracts/F1.sol\":6599:6729  checkStingEquality(contestantDriversPrediction[j-1],drivers[j]) || checkStingEquality(contestantDriversPrediction[j+1],drivers[j]) */\n    tag_646:\n        /* \"/home/rocha/Proyects/Solidity/F1Bet/ethereum/contracts/F1.sol\":6596:6940  if(checkStingEquality(contestantDriversPrediction[j-1],drivers[j]) || checkStingEquality(contestantDriversPrediction[j+1],drivers[j])){... */\n      iszero\n      tag_659\n      jumpi\n        /* \"/home/rocha/Proyects/Solidity/F1Bet/ethereum/contracts/F1.sol\":6764:6765  3 */\n      0x03\n        /* \"/home/rocha/Proyects/Solidity/F1Bet/ethereum/contracts/F1.sol\":6756:6765  points+=3 */\n      dup3\n      tag_660\n      swap2\n      swap1\n      tag_187\n      jump\t// in\n    tag_660:\n      swap2\n      pop\n        /* \"/home/rocha/Proyects/Solidity/F1Bet/ethereum/contracts/F1.sol\":6596:6940  if(checkStingEquality(contestantDriversPrediction[j-1],drivers[j]) || checkStingEquality(contestantDriversPrediction[j+1],drivers[j])){... */\n      jump(tag_661)\n    tag_659:\n        /* \"/home/rocha/Proyects/Solidity/F1Bet/ethereum/contracts/F1.sol\":6818:6881  checkStingEquality(contestantDriversPrediction[j+2],drivers[j]) */\n      tag_662\n        /* \"/home/rocha/Proyects/Solidity/F1Bet/ethereum/contracts/F1.sol\":6837:6864  contestantDriversPrediction */\n      dup4\n        /* \"/home/rocha/Proyects/Solidity/F1Bet/ethereum/contracts/F1.sol\":6867:6868  2 */\n      0x02\n        /* \"/home/rocha/Proyects/Solidity/F1Bet/ethereum/contracts/F1.sol\":6865:6866  j */\n      dup4\n        /* \"/home/rocha/Proyects/Solidity/F1Bet/ethereum/contracts/F1.sol\":6865:6868  j+2 */\n      tag_663\n      swap2\n      swap1\n      tag_288\n      jump\t// in\n    tag_663:\n        /* \"/home/rocha/Proyects/Solidity/F1Bet/ethereum/contracts/F1.sol\":6837:6869  contestantDriversPrediction[j+2] */\n      0xff\n      and\n      dup2\n      mload\n      dup2\n      lt\n      tag_664\n      jumpi\n      tag_665\n      tag_103\n      jump\t// in\n    tag_665:\n    tag_664:\n      0x20\n      mul\n      0x20\n      add\n      add\n      mload\n        /* \"/home/rocha/Proyects/Solidity/F1Bet/ethereum/contracts/F1.sol\":6870:6877  drivers */\n      0x05\n        /* \"/home/rocha/Proyects/Solidity/F1Bet/ethereum/contracts/F1.sol\":6878:6879  j */\n      dup4\n        /* \"/home/rocha/Proyects/Solidity/F1Bet/ethereum/contracts/F1.sol\":6870:6880  drivers[j] */\n      0xff\n      and\n      dup2\n      sload\n      dup2\n      lt\n      tag_666\n      jumpi\n      tag_667\n      tag_103\n      jump\t// in\n    tag_667:\n    tag_666:\n      swap1\n      0x00\n      mstore\n      keccak256(0x00, 0x20)\n      add\n        /* \"/home/rocha/Proyects/Solidity/F1Bet/ethereum/contracts/F1.sol\":6818:6881  checkStingEquality(contestantDriversPrediction[j+2],drivers[j]) */\n      dup1\n      sload\n      tag_669\n      swap1\n      tag_262\n      jump\t// in\n    tag_669:\n      dup1\n      0x1f\n      add\n      0x20\n      dup1\n      swap2\n      div\n      mul\n      0x20\n      add\n      mload(0x40)\n      swap1\n      dup2\n      add\n      0x40\n      mstore\n      dup1\n      swap3\n      swap2\n      swap1\n      dup2\n      dup2\n      mstore\n      0x20\n      add\n      dup3\n      dup1\n      sload\n      tag_670\n      swap1\n      tag_262\n      jump\t// in\n    tag_670:\n      dup1\n      iszero\n      tag_671\n      jumpi\n      dup1\n      0x1f\n      lt\n      tag_672\n      jumpi\n      0x0100\n      dup1\n      dup4\n      sload\n      div\n      mul\n      dup4\n      mstore\n      swap2\n      0x20\n      add\n      swap2\n      jump(tag_671)\n    tag_672:\n      dup3\n      add\n      swap2\n      swap1\n      0x00\n      mstore\n      keccak256(0x00, 0x20)\n      swap1\n    tag_673:\n      dup2\n      sload\n      dup2\n      mstore\n      swap1\n      0x01\n      add\n      swap1\n      0x20\n      add\n      dup1\n      dup4\n      gt\n      tag_673\n      jumpi\n      dup3\n      swap1\n      sub\n      0x1f\n      and\n      dup3\n      add\n      swap2\n    tag_671:\n      pop\n      pop\n      pop\n      pop\n      pop\n        /* \"/home/rocha/Proyects/Solidity/F1Bet/ethereum/contracts/F1.sol\":6818:6836  checkStingEquality */\n      tag_282\n        /* \"/home/rocha/Proyects/Solidity/F1Bet/ethereum/contracts/F1.sol\":6818:6881  checkStingEquality(contestantDriversPrediction[j+2],drivers[j]) */\n      jump\t// in\n    tag_662:\n        /* \"/home/rocha/Proyects/Solidity/F1Bet/ethereum/contracts/F1.sol\":6814:6940  if( checkStingEquality(contestantDriversPrediction[j+2],drivers[j])){... */\n      iszero\n      tag_674\n      jumpi\n        /* \"/home/rocha/Proyects/Solidity/F1Bet/ethereum/contracts/F1.sol\":6916:6917  1 */\n      0x01\n        /* \"/home/rocha/Proyects/Solidity/F1Bet/ethereum/contracts/F1.sol\":6908:6917  points+=1 */\n      dup3\n      tag_675\n      swap2\n      swap1\n      tag_187\n      jump\t// in\n    tag_675:\n      swap2\n      pop\n        /* \"/home/rocha/Proyects/Solidity/F1Bet/ethereum/contracts/F1.sol\":6814:6940  if( checkStingEquality(contestantDriversPrediction[j+2],drivers[j])){... */\n    tag_674:\n        /* \"/home/rocha/Proyects/Solidity/F1Bet/ethereum/contracts/F1.sol\":6596:6940  if(checkStingEquality(contestantDriversPrediction[j-1],drivers[j]) || checkStingEquality(contestantDriversPrediction[j+1],drivers[j])){... */\n    tag_661:\n        /* \"/home/rocha/Proyects/Solidity/F1Bet/ethereum/contracts/F1.sol\":6467:6940  if(checkStingEquality(contestantDriversPrediction[j],drivers[j])){... */\n    tag_633:\n        /* \"/home/rocha/Proyects/Solidity/F1Bet/ethereum/contracts/F1.sol\":6438:8554  if(j<2){... */\n      jump(tag_676)\n    tag_619:\n        /* \"/home/rocha/Proyects/Solidity/F1Bet/ethereum/contracts/F1.sol\":6984:6985  2 */\n      0x02\n        /* \"/home/rocha/Proyects/Solidity/F1Bet/ethereum/contracts/F1.sol\":6969:6976  drivers */\n      0x05\n        /* \"/home/rocha/Proyects/Solidity/F1Bet/ethereum/contracts/F1.sol\":6969:6983  drivers.length */\n      dup1\n      sload\n      swap1\n      pop\n        /* \"/home/rocha/Proyects/Solidity/F1Bet/ethereum/contracts/F1.sol\":6969:6985  drivers.length-2 */\n      tag_677\n      swap2\n      swap1\n      tag_377\n      jump\t// in\n    tag_677:\n        /* \"/home/rocha/Proyects/Solidity/F1Bet/ethereum/contracts/F1.sol\":6966:6967  j */\n      dup2\n        /* \"/home/rocha/Proyects/Solidity/F1Bet/ethereum/contracts/F1.sol\":6966:6985  j==drivers.length-2 */\n      0xff\n      and\n      eq\n        /* \"/home/rocha/Proyects/Solidity/F1Bet/ethereum/contracts/F1.sol\":6963:8554  if(j==drivers.length-2){... */\n      iszero\n      tag_678\n      jumpi\n        /* \"/home/rocha/Proyects/Solidity/F1Bet/ethereum/contracts/F1.sol\":7011:7072  checkStingEquality(contestantDriversPrediction[j],drivers[j]) */\n      tag_679\n        /* \"/home/rocha/Proyects/Solidity/F1Bet/ethereum/contracts/F1.sol\":7030:7057  contestantDriversPrediction */\n      dup4\n        /* \"/home/rocha/Proyects/Solidity/F1Bet/ethereum/contracts/F1.sol\":7058:7059  j */\n      dup3\n        /* \"/home/rocha/Proyects/Solidity/F1Bet/ethereum/contracts/F1.sol\":7030:7060  contestantDriversPrediction[j] */\n      0xff\n      and\n      dup2\n      mload\n      dup2\n      lt\n      tag_680\n      jumpi\n      tag_681\n      tag_103\n      jump\t// in\n    tag_681:\n    tag_680:\n      0x20\n      mul\n      0x20\n      add\n      add\n      mload\n        /* \"/home/rocha/Proyects/Solidity/F1Bet/ethereum/contracts/F1.sol\":7061:7068  drivers */\n      0x05\n        /* \"/home/rocha/Proyects/Solidity/F1Bet/ethereum/contracts/F1.sol\":7069:7070  j */\n      dup4\n        /* \"/home/rocha/Proyects/Solidity/F1Bet/ethereum/contracts/F1.sol\":7061:7071  drivers[j] */\n      0xff\n      and\n      dup2\n      sload\n      dup2\n      lt\n      tag_682\n      jumpi\n      tag_683\n      tag_103\n      jump\t// in\n    tag_683:\n    tag_682:\n      swap1\n      0x00\n      mstore\n      keccak256(0x00, 0x20)\n      add\n        /* \"/home/rocha/Proyects/Solidity/F1Bet/ethereum/contracts/F1.sol\":7011:7072  checkStingEquality(contestantDriversPrediction[j],drivers[j]) */\n      dup1\n      sload\n      tag_685\n      swap1\n      tag_262\n      jump\t// in\n    tag_685:\n      dup1\n      0x1f\n      add\n      0x20\n      dup1\n      swap2\n      div\n      mul\n      0x20\n      add\n      mload(0x40)\n      swap1\n      dup2\n      add\n      0x40\n      mstore\n      dup1\n      swap3\n      swap2\n      swap1\n      dup2\n      dup2\n      mstore\n      0x20\n      add\n      dup3\n      dup1\n      sload\n      tag_686\n      swap1\n      tag_262\n      jump\t// in\n    tag_686:\n      dup1\n      iszero\n      tag_687\n      jumpi\n      dup1\n      0x1f\n      lt\n      tag_688\n      jumpi\n      0x0100\n      dup1\n      dup4\n      sload\n      div\n      mul\n      dup4\n      mstore\n      swap2\n      0x20\n      add\n      swap2\n      jump(tag_687)\n    tag_688:\n      dup3\n      add\n      swap2\n      swap1\n      0x00\n      mstore\n      keccak256(0x00, 0x20)\n      swap1\n    tag_689:\n      dup2\n      sload\n      dup2\n      mstore\n      swap1\n      0x01\n      add\n      swap1\n      0x20\n      add\n      dup1\n      dup4\n      gt\n      tag_689\n      jumpi\n      dup3\n      swap1\n      sub\n      0x1f\n      and\n      dup3\n      add\n      swap2\n    tag_687:\n      pop\n      pop\n      pop\n      pop\n      pop\n        /* \"/home/rocha/Proyects/Solidity/F1Bet/ethereum/contracts/F1.sol\":7011:7029  checkStingEquality */\n      tag_282\n        /* \"/home/rocha/Proyects/Solidity/F1Bet/ethereum/contracts/F1.sol\":7011:7072  checkStingEquality(contestantDriversPrediction[j],drivers[j]) */\n      jump\t// in\n    tag_679:\n        /* \"/home/rocha/Proyects/Solidity/F1Bet/ethereum/contracts/F1.sol\":7008:7480  if(checkStingEquality(contestantDriversPrediction[j],drivers[j])){... */\n      iszero\n      tag_690\n      jumpi\n        /* \"/home/rocha/Proyects/Solidity/F1Bet/ethereum/contracts/F1.sol\":7108:7109  5 */\n      0x05\n        /* \"/home/rocha/Proyects/Solidity/F1Bet/ethereum/contracts/F1.sol\":7099:7109  points+= 5 */\n      dup3\n      tag_691\n      swap2\n      swap1\n      tag_187\n      jump\t// in\n    tag_691:\n      swap2\n      pop\n        /* \"/home/rocha/Proyects/Solidity/F1Bet/ethereum/contracts/F1.sol\":7008:7480  if(checkStingEquality(contestantDriversPrediction[j],drivers[j])){... */\n      jump(tag_692)\n    tag_690:\n        /* \"/home/rocha/Proyects/Solidity/F1Bet/ethereum/contracts/F1.sol\":7140:7203  checkStingEquality(contestantDriversPrediction[j-1],drivers[j]) */\n      tag_693\n        /* \"/home/rocha/Proyects/Solidity/F1Bet/ethereum/contracts/F1.sol\":7159:7186  contestantDriversPrediction */\n      dup4\n        /* \"/home/rocha/Proyects/Solidity/F1Bet/ethereum/contracts/F1.sol\":7189:7190  1 */\n      0x01\n        /* \"/home/rocha/Proyects/Solidity/F1Bet/ethereum/contracts/F1.sol\":7187:7188  j */\n      dup4\n        /* \"/home/rocha/Proyects/Solidity/F1Bet/ethereum/contracts/F1.sol\":7187:7190  j-1 */\n      tag_694\n      swap2\n      swap1\n      tag_334\n      jump\t// in\n    tag_694:\n        /* \"/home/rocha/Proyects/Solidity/F1Bet/ethereum/contracts/F1.sol\":7159:7191  contestantDriversPrediction[j-1] */\n      0xff\n      and\n      dup2\n      mload\n      dup2\n      lt\n      tag_695\n      jumpi\n      tag_696\n      tag_103\n      jump\t// in\n    tag_696:\n    tag_695:\n      0x20\n      mul\n      0x20\n      add\n      add\n      mload\n        /* \"/home/rocha/Proyects/Solidity/F1Bet/ethereum/contracts/F1.sol\":7192:7199  drivers */\n      0x05\n        /* \"/home/rocha/Proyects/Solidity/F1Bet/ethereum/contracts/F1.sol\":7200:7201  j */\n      dup4\n        /* \"/home/rocha/Proyects/Solidity/F1Bet/ethereum/contracts/F1.sol\":7192:7202  drivers[j] */\n      0xff\n      and\n      dup2\n      sload\n      dup2\n      lt\n      tag_697\n      jumpi\n      tag_698\n      tag_103\n      jump\t// in\n    tag_698:\n    tag_697:\n      swap1\n      0x00\n      mstore\n      keccak256(0x00, 0x20)\n      add\n        /* \"/home/rocha/Proyects/Solidity/F1Bet/ethereum/contracts/F1.sol\":7140:7203  checkStingEquality(contestantDriversPrediction[j-1],drivers[j]) */\n      dup1\n      sload\n      tag_700\n      swap1\n      tag_262\n      jump\t// in\n    tag_700:\n      dup1\n      0x1f\n      add\n      0x20\n      dup1\n      swap2\n      div\n      mul\n      0x20\n      add\n      mload(0x40)\n      swap1\n      dup2\n      add\n      0x40\n      mstore\n      dup1\n      swap3\n      swap2\n      swap1\n      dup2\n      dup2\n      mstore\n      0x20\n      add\n      dup3\n      dup1\n      sload\n      tag_701\n      swap1\n      tag_262\n      jump\t// in\n    tag_701:\n      dup1\n      iszero\n      tag_702\n      jumpi\n      dup1\n      0x1f\n      lt\n      tag_703\n      jumpi\n      0x0100\n      dup1\n      dup4\n      sload\n      div\n      mul\n      dup4\n      mstore\n      swap2\n      0x20\n      add\n      swap2\n      jump(tag_702)\n    tag_703:\n      dup3\n      add\n      swap2\n      swap1\n      0x00\n      mstore\n      keccak256(0x00, 0x20)\n      swap1\n    tag_704:\n      dup2\n      sload\n      dup2\n      mstore\n      swap1\n      0x01\n      add\n      swap1\n      0x20\n      add\n      dup1\n      dup4\n      gt\n      tag_704\n      jumpi\n      dup3\n      swap1\n      sub\n      0x1f\n      and\n      dup3\n      add\n      swap2\n    tag_702:\n      pop\n      pop\n      pop\n      pop\n      pop\n        /* \"/home/rocha/Proyects/Solidity/F1Bet/ethereum/contracts/F1.sol\":7140:7158  checkStingEquality */\n      tag_282\n        /* \"/home/rocha/Proyects/Solidity/F1Bet/ethereum/contracts/F1.sol\":7140:7203  checkStingEquality(contestantDriversPrediction[j-1],drivers[j]) */\n      jump\t// in\n    tag_693:\n        /* \"/home/rocha/Proyects/Solidity/F1Bet/ethereum/contracts/F1.sol\":7140:7270  checkStingEquality(contestantDriversPrediction[j-1],drivers[j]) || checkStingEquality(contestantDriversPrediction[j+1],drivers[j]) */\n      dup1\n      tag_705\n      jumpi\n      pop\n        /* \"/home/rocha/Proyects/Solidity/F1Bet/ethereum/contracts/F1.sol\":7207:7270  checkStingEquality(contestantDriversPrediction[j+1],drivers[j]) */\n      tag_706\n        /* \"/home/rocha/Proyects/Solidity/F1Bet/ethereum/contracts/F1.sol\":7226:7253  contestantDriversPrediction */\n      dup4\n        /* \"/home/rocha/Proyects/Solidity/F1Bet/ethereum/contracts/F1.sol\":7256:7257  1 */\n      0x01\n        /* \"/home/rocha/Proyects/Solidity/F1Bet/ethereum/contracts/F1.sol\":7254:7255  j */\n      dup4\n        /* \"/home/rocha/Proyects/Solidity/F1Bet/ethereum/contracts/F1.sol\":7254:7257  j+1 */\n      tag_707\n      swap2\n      swap1\n      tag_288\n      jump\t// in\n    tag_707:\n        /* \"/home/rocha/Proyects/Solidity/F1Bet/ethereum/contracts/F1.sol\":7226:7258  contestantDriversPrediction[j+1] */\n      0xff\n      and\n      dup2\n      mload\n      dup2\n      lt\n      tag_708\n      jumpi\n      tag_709\n      tag_103\n      jump\t// in\n    tag_709:\n    tag_708:\n      0x20\n      mul\n      0x20\n      add\n      add\n      mload\n        /* \"/home/rocha/Proyects/Solidity/F1Bet/ethereum/contracts/F1.sol\":7259:7266  drivers */\n      0x05\n        /* \"/home/rocha/Proyects/Solidity/F1Bet/ethereum/contracts/F1.sol\":7267:7268  j */\n      dup4\n        /* \"/home/rocha/Proyects/Solidity/F1Bet/ethereum/contracts/F1.sol\":7259:7269  drivers[j] */\n      0xff\n      and\n      dup2\n      sload\n      dup2\n      lt\n      tag_710\n      jumpi\n      tag_711\n      tag_103\n      jump\t// in\n    tag_711:\n    tag_710:\n      swap1\n      0x00\n      mstore\n      keccak256(0x00, 0x20)\n      add\n        /* \"/home/rocha/Proyects/Solidity/F1Bet/ethereum/contracts/F1.sol\":7207:7270  checkStingEquality(contestantDriversPrediction[j+1],drivers[j]) */\n      dup1\n      sload\n      tag_713\n      swap1\n      tag_262\n      jump\t// in\n    tag_713:\n      dup1\n      0x1f\n      add\n      0x20\n      dup1\n      swap2\n      div\n      mul\n      0x20\n      add\n      mload(0x40)\n      swap1\n      dup2\n      add\n      0x40\n      mstore\n      dup1\n      swap3\n      swap2\n      swap1\n      dup2\n      dup2\n      mstore\n      0x20\n      add\n      dup3\n      dup1\n      sload\n      tag_714\n      swap1\n      tag_262\n      jump\t// in\n    tag_714:\n      dup1\n      iszero\n      tag_715\n      jumpi\n      dup1\n      0x1f\n      lt\n      tag_716\n      jumpi\n      0x0100\n      dup1\n      dup4\n      sload\n      div\n      mul\n      dup4\n      mstore\n      swap2\n      0x20\n      add\n      swap2\n      jump(tag_715)\n    tag_716:\n      dup3\n      add\n      swap2\n      swap1\n      0x00\n      mstore\n      keccak256(0x00, 0x20)\n      swap1\n    tag_717:\n      dup2\n      sload\n      dup2\n      mstore\n      swap1\n      0x01\n      add\n      swap1\n      0x20\n      add\n      dup1\n      dup4\n      gt\n      tag_717\n      jumpi\n      dup3\n      swap1\n      sub\n      0x1f\n      and\n      dup3\n      add\n      swap2\n    tag_715:\n      pop\n      pop\n      pop\n      pop\n      pop\n        /* \"/home/rocha/Proyects/Solidity/F1Bet/ethereum/contracts/F1.sol\":7207:7225  checkStingEquality */\n      tag_282\n        /* \"/home/rocha/Proyects/Solidity/F1Bet/ethereum/contracts/F1.sol\":7207:7270  checkStingEquality(contestantDriversPrediction[j+1],drivers[j]) */\n      jump\t// in\n    tag_706:\n        /* \"/home/rocha/Proyects/Solidity/F1Bet/ethereum/contracts/F1.sol\":7140:7270  checkStingEquality(contestantDriversPrediction[j-1],drivers[j]) || checkStingEquality(contestantDriversPrediction[j+1],drivers[j]) */\n    tag_705:\n        /* \"/home/rocha/Proyects/Solidity/F1Bet/ethereum/contracts/F1.sol\":7137:7480  if(checkStingEquality(contestantDriversPrediction[j-1],drivers[j]) || checkStingEquality(contestantDriversPrediction[j+1],drivers[j])){... */\n      iszero\n      tag_718\n      jumpi\n        /* \"/home/rocha/Proyects/Solidity/F1Bet/ethereum/contracts/F1.sol\":7305:7306  3 */\n      0x03\n        /* \"/home/rocha/Proyects/Solidity/F1Bet/ethereum/contracts/F1.sol\":7297:7306  points+=3 */\n      dup3\n      tag_719\n      swap2\n      swap1\n      tag_187\n      jump\t// in\n    tag_719:\n      swap2\n      pop\n        /* \"/home/rocha/Proyects/Solidity/F1Bet/ethereum/contracts/F1.sol\":7137:7480  if(checkStingEquality(contestantDriversPrediction[j-1],drivers[j]) || checkStingEquality(contestantDriversPrediction[j+1],drivers[j])){... */\n      jump(tag_720)\n    tag_718:\n        /* \"/home/rocha/Proyects/Solidity/F1Bet/ethereum/contracts/F1.sol\":7358:7421  checkStingEquality(contestantDriversPrediction[j-2],drivers[j]) */\n      tag_721\n        /* \"/home/rocha/Proyects/Solidity/F1Bet/ethereum/contracts/F1.sol\":7377:7404  contestantDriversPrediction */\n      dup4\n        /* \"/home/rocha/Proyects/Solidity/F1Bet/ethereum/contracts/F1.sol\":7407:7408  2 */\n      0x02\n        /* \"/home/rocha/Proyects/Solidity/F1Bet/ethereum/contracts/F1.sol\":7405:7406  j */\n      dup4\n        /* \"/home/rocha/Proyects/Solidity/F1Bet/ethereum/contracts/F1.sol\":7405:7408  j-2 */\n      tag_722\n      swap2\n      swap1\n      tag_334\n      jump\t// in\n    tag_722:\n        /* \"/home/rocha/Proyects/Solidity/F1Bet/ethereum/contracts/F1.sol\":7377:7409  contestantDriversPrediction[j-2] */\n      0xff\n      and\n      dup2\n      mload\n      dup2\n      lt\n      tag_723\n      jumpi\n      tag_724\n      tag_103\n      jump\t// in\n    tag_724:\n    tag_723:\n      0x20\n      mul\n      0x20\n      add\n      add\n      mload\n        /* \"/home/rocha/Proyects/Solidity/F1Bet/ethereum/contracts/F1.sol\":7410:7417  drivers */\n      0x05\n        /* \"/home/rocha/Proyects/Solidity/F1Bet/ethereum/contracts/F1.sol\":7418:7419  j */\n      dup4\n        /* \"/home/rocha/Proyects/Solidity/F1Bet/ethereum/contracts/F1.sol\":7410:7420  drivers[j] */\n      0xff\n      and\n      dup2\n      sload\n      dup2\n      lt\n      tag_725\n      jumpi\n      tag_726\n      tag_103\n      jump\t// in\n    tag_726:\n    tag_725:\n      swap1\n      0x00\n      mstore\n      keccak256(0x00, 0x20)\n      add\n        /* \"/home/rocha/Proyects/Solidity/F1Bet/ethereum/contracts/F1.sol\":7358:7421  checkStingEquality(contestantDriversPrediction[j-2],drivers[j]) */\n      dup1\n      sload\n      tag_728\n      swap1\n      tag_262\n      jump\t// in\n    tag_728:\n      dup1\n      0x1f\n      add\n      0x20\n      dup1\n      swap2\n      div\n      mul\n      0x20\n      add\n      mload(0x40)\n      swap1\n      dup2\n      add\n      0x40\n      mstore\n      dup1\n      swap3\n      swap2\n      swap1\n      dup2\n      dup2\n      mstore\n      0x20\n      add\n      dup3\n      dup1\n      sload\n      tag_729\n      swap1\n      tag_262\n      jump\t// in\n    tag_729:\n      dup1\n      iszero\n      tag_730\n      jumpi\n      dup1\n      0x1f\n      lt\n      tag_731\n      jumpi\n      0x0100\n      dup1\n      dup4\n      sload\n      div\n      mul\n      dup4\n      mstore\n      swap2\n      0x20\n      add\n      swap2\n      jump(tag_730)\n    tag_731:\n      dup3\n      add\n      swap2\n      swap1\n      0x00\n      mstore\n      keccak256(0x00, 0x20)\n      swap1\n    tag_732:\n      dup2\n      sload\n      dup2\n      mstore\n      swap1\n      0x01\n      add\n      swap1\n      0x20\n      add\n      dup1\n      dup4\n      gt\n      tag_732\n      jumpi\n      dup3\n      swap1\n      sub\n      0x1f\n      and\n      dup3\n      add\n      swap2\n    tag_730:\n      pop\n      pop\n      pop\n      pop\n      pop\n        /* \"/home/rocha/Proyects/Solidity/F1Bet/ethereum/contracts/F1.sol\":7358:7376  checkStingEquality */\n      tag_282\n        /* \"/home/rocha/Proyects/Solidity/F1Bet/ethereum/contracts/F1.sol\":7358:7421  checkStingEquality(contestantDriversPrediction[j-2],drivers[j]) */\n      jump\t// in\n    tag_721:\n        /* \"/home/rocha/Proyects/Solidity/F1Bet/ethereum/contracts/F1.sol\":7355:7480  if(checkStingEquality(contestantDriversPrediction[j-2],drivers[j])){... */\n      iszero\n      tag_733\n      jumpi\n        /* \"/home/rocha/Proyects/Solidity/F1Bet/ethereum/contracts/F1.sol\":7456:7457  1 */\n      0x01\n        /* \"/home/rocha/Proyects/Solidity/F1Bet/ethereum/contracts/F1.sol\":7448:7457  points+=1 */\n      dup3\n      tag_734\n      swap2\n      swap1\n      tag_187\n      jump\t// in\n    tag_734:\n      swap2\n      pop\n        /* \"/home/rocha/Proyects/Solidity/F1Bet/ethereum/contracts/F1.sol\":7355:7480  if(checkStingEquality(contestantDriversPrediction[j-2],drivers[j])){... */\n    tag_733:\n        /* \"/home/rocha/Proyects/Solidity/F1Bet/ethereum/contracts/F1.sol\":7137:7480  if(checkStingEquality(contestantDriversPrediction[j-1],drivers[j]) || checkStingEquality(contestantDriversPrediction[j+1],drivers[j])){... */\n    tag_720:\n        /* \"/home/rocha/Proyects/Solidity/F1Bet/ethereum/contracts/F1.sol\":7008:7480  if(checkStingEquality(contestantDriversPrediction[j],drivers[j])){... */\n    tag_692:\n        /* \"/home/rocha/Proyects/Solidity/F1Bet/ethereum/contracts/F1.sol\":6963:8554  if(j==drivers.length-2){... */\n      jump(tag_735)\n    tag_678:\n        /* \"/home/rocha/Proyects/Solidity/F1Bet/ethereum/contracts/F1.sol\":7524:7525  1 */\n      0x01\n        /* \"/home/rocha/Proyects/Solidity/F1Bet/ethereum/contracts/F1.sol\":7509:7516  drivers */\n      0x05\n        /* \"/home/rocha/Proyects/Solidity/F1Bet/ethereum/contracts/F1.sol\":7509:7523  drivers.length */\n      dup1\n      sload\n      swap1\n      pop\n        /* \"/home/rocha/Proyects/Solidity/F1Bet/ethereum/contracts/F1.sol\":7509:7525  drivers.length-1 */\n      tag_736\n      swap2\n      swap1\n      tag_377\n      jump\t// in\n    tag_736:\n        /* \"/home/rocha/Proyects/Solidity/F1Bet/ethereum/contracts/F1.sol\":7506:7507  j */\n      dup2\n        /* \"/home/rocha/Proyects/Solidity/F1Bet/ethereum/contracts/F1.sol\":7506:7525  j==drivers.length-1 */\n      0xff\n      and\n      eq\n        /* \"/home/rocha/Proyects/Solidity/F1Bet/ethereum/contracts/F1.sol\":7503:8554  if(j==drivers.length-1){... */\n      iszero\n      tag_737\n      jumpi\n        /* \"/home/rocha/Proyects/Solidity/F1Bet/ethereum/contracts/F1.sol\":7551:7612  checkStingEquality(contestantDriversPrediction[j],drivers[j]) */\n      tag_738\n        /* \"/home/rocha/Proyects/Solidity/F1Bet/ethereum/contracts/F1.sol\":7570:7597  contestantDriversPrediction */\n      dup4\n        /* \"/home/rocha/Proyects/Solidity/F1Bet/ethereum/contracts/F1.sol\":7598:7599  j */\n      dup3\n        /* \"/home/rocha/Proyects/Solidity/F1Bet/ethereum/contracts/F1.sol\":7570:7600  contestantDriversPrediction[j] */\n      0xff\n      and\n      dup2\n      mload\n      dup2\n      lt\n      tag_739\n      jumpi\n      tag_740\n      tag_103\n      jump\t// in\n    tag_740:\n    tag_739:\n      0x20\n      mul\n      0x20\n      add\n      add\n      mload\n        /* \"/home/rocha/Proyects/Solidity/F1Bet/ethereum/contracts/F1.sol\":7601:7608  drivers */\n      0x05\n        /* \"/home/rocha/Proyects/Solidity/F1Bet/ethereum/contracts/F1.sol\":7609:7610  j */\n      dup4\n        /* \"/home/rocha/Proyects/Solidity/F1Bet/ethereum/contracts/F1.sol\":7601:7611  drivers[j] */\n      0xff\n      and\n      dup2\n      sload\n      dup2\n      lt\n      tag_741\n      jumpi\n      tag_742\n      tag_103\n      jump\t// in\n    tag_742:\n    tag_741:\n      swap1\n      0x00\n      mstore\n      keccak256(0x00, 0x20)\n      add\n        /* \"/home/rocha/Proyects/Solidity/F1Bet/ethereum/contracts/F1.sol\":7551:7612  checkStingEquality(contestantDriversPrediction[j],drivers[j]) */\n      dup1\n      sload\n      tag_744\n      swap1\n      tag_262\n      jump\t// in\n    tag_744:\n      dup1\n      0x1f\n      add\n      0x20\n      dup1\n      swap2\n      div\n      mul\n      0x20\n      add\n      mload(0x40)\n      swap1\n      dup2\n      add\n      0x40\n      mstore\n      dup1\n      swap3\n      swap2\n      swap1\n      dup2\n      dup2\n      mstore\n      0x20\n      add\n      dup3\n      dup1\n      sload\n      tag_745\n      swap1\n      tag_262\n      jump\t// in\n    tag_745:\n      dup1\n      iszero\n      tag_746\n      jumpi\n      dup1\n      0x1f\n      lt\n      tag_747\n      jumpi\n      0x0100\n      dup1\n      dup4\n      sload\n      div\n      mul\n      dup4\n      mstore\n      swap2\n      0x20\n      add\n      swap2\n      jump(tag_746)\n    tag_747:\n      dup3\n      add\n      swap2\n      swap1\n      0x00\n      mstore\n      keccak256(0x00, 0x20)\n      swap1\n    tag_748:\n      dup2\n      sload\n      dup2\n      mstore\n      swap1\n      0x01\n      add\n      swap1\n      0x20\n      add\n      dup1\n      dup4\n      gt\n      tag_748\n      jumpi\n      dup3\n      swap1\n      sub\n      0x1f\n      and\n      dup3\n      add\n      swap2\n    tag_746:\n      pop\n      pop\n      pop\n      pop\n      pop\n        /* \"/home/rocha/Proyects/Solidity/F1Bet/ethereum/contracts/F1.sol\":7551:7569  checkStingEquality */\n      tag_282\n        /* \"/home/rocha/Proyects/Solidity/F1Bet/ethereum/contracts/F1.sol\":7551:7612  checkStingEquality(contestantDriversPrediction[j],drivers[j]) */\n      jump\t// in\n    tag_738:\n        /* \"/home/rocha/Proyects/Solidity/F1Bet/ethereum/contracts/F1.sol\":7548:7953  if(checkStingEquality(contestantDriversPrediction[j],drivers[j])){... */\n      iszero\n      tag_749\n      jumpi\n        /* \"/home/rocha/Proyects/Solidity/F1Bet/ethereum/contracts/F1.sol\":7648:7649  5 */\n      0x05\n        /* \"/home/rocha/Proyects/Solidity/F1Bet/ethereum/contracts/F1.sol\":7639:7649  points+= 5 */\n      dup3\n      tag_750\n      swap2\n      swap1\n      tag_187\n      jump\t// in\n    tag_750:\n      swap2\n      pop\n        /* \"/home/rocha/Proyects/Solidity/F1Bet/ethereum/contracts/F1.sol\":7548:7953  if(checkStingEquality(contestantDriversPrediction[j],drivers[j])){... */\n      jump(tag_751)\n    tag_749:\n        /* \"/home/rocha/Proyects/Solidity/F1Bet/ethereum/contracts/F1.sol\":7680:7743  checkStingEquality(contestantDriversPrediction[j-1],drivers[j]) */\n      tag_752\n        /* \"/home/rocha/Proyects/Solidity/F1Bet/ethereum/contracts/F1.sol\":7699:7726  contestantDriversPrediction */\n      dup4\n        /* \"/home/rocha/Proyects/Solidity/F1Bet/ethereum/contracts/F1.sol\":7729:7730  1 */\n      0x01\n        /* \"/home/rocha/Proyects/Solidity/F1Bet/ethereum/contracts/F1.sol\":7727:7728  j */\n      dup4\n        /* \"/home/rocha/Proyects/Solidity/F1Bet/ethereum/contracts/F1.sol\":7727:7730  j-1 */\n      tag_753\n      swap2\n      swap1\n      tag_334\n      jump\t// in\n    tag_753:\n        /* \"/home/rocha/Proyects/Solidity/F1Bet/ethereum/contracts/F1.sol\":7699:7731  contestantDriversPrediction[j-1] */\n      0xff\n      and\n      dup2\n      mload\n      dup2\n      lt\n      tag_754\n      jumpi\n      tag_755\n      tag_103\n      jump\t// in\n    tag_755:\n    tag_754:\n      0x20\n      mul\n      0x20\n      add\n      add\n      mload\n        /* \"/home/rocha/Proyects/Solidity/F1Bet/ethereum/contracts/F1.sol\":7732:7739  drivers */\n      0x05\n        /* \"/home/rocha/Proyects/Solidity/F1Bet/ethereum/contracts/F1.sol\":7740:7741  j */\n      dup4\n        /* \"/home/rocha/Proyects/Solidity/F1Bet/ethereum/contracts/F1.sol\":7732:7742  drivers[j] */\n      0xff\n      and\n      dup2\n      sload\n      dup2\n      lt\n      tag_756\n      jumpi\n      tag_757\n      tag_103\n      jump\t// in\n    tag_757:\n    tag_756:\n      swap1\n      0x00\n      mstore\n      keccak256(0x00, 0x20)\n      add\n        /* \"/home/rocha/Proyects/Solidity/F1Bet/ethereum/contracts/F1.sol\":7680:7743  checkStingEquality(contestantDriversPrediction[j-1],drivers[j]) */\n      dup1\n      sload\n      tag_759\n      swap1\n      tag_262\n      jump\t// in\n    tag_759:\n      dup1\n      0x1f\n      add\n      0x20\n      dup1\n      swap2\n      div\n      mul\n      0x20\n      add\n      mload(0x40)\n      swap1\n      dup2\n      add\n      0x40\n      mstore\n      dup1\n      swap3\n      swap2\n      swap1\n      dup2\n      dup2\n      mstore\n      0x20\n      add\n      dup3\n      dup1\n      sload\n      tag_760\n      swap1\n      tag_262\n      jump\t// in\n    tag_760:\n      dup1\n      iszero\n      tag_761\n      jumpi\n      dup1\n      0x1f\n      lt\n      tag_762\n      jumpi\n      0x0100\n      dup1\n      dup4\n      sload\n      div\n      mul\n      dup4\n      mstore\n      swap2\n      0x20\n      add\n      swap2\n      jump(tag_761)\n    tag_762:\n      dup3\n      add\n      swap2\n      swap1\n      0x00\n      mstore\n      keccak256(0x00, 0x20)\n      swap1\n    tag_763:\n      dup2\n      sload\n      dup2\n      mstore\n      swap1\n      0x01\n      add\n      swap1\n      0x20\n      add\n      dup1\n      dup4\n      gt\n      tag_763\n      jumpi\n      dup3\n      swap1\n      sub\n      0x1f\n      and\n      dup3\n      add\n      swap2\n    tag_761:\n      pop\n      pop\n      pop\n      pop\n      pop\n        /* \"/home/rocha/Proyects/Solidity/F1Bet/ethereum/contracts/F1.sol\":7680:7698  checkStingEquality */\n      tag_282\n        /* \"/home/rocha/Proyects/Solidity/F1Bet/ethereum/contracts/F1.sol\":7680:7743  checkStingEquality(contestantDriversPrediction[j-1],drivers[j]) */\n      jump\t// in\n    tag_752:\n        /* \"/home/rocha/Proyects/Solidity/F1Bet/ethereum/contracts/F1.sol\":7677:7953  if(checkStingEquality(contestantDriversPrediction[j-1],drivers[j])){... */\n      iszero\n      tag_764\n      jumpi\n        /* \"/home/rocha/Proyects/Solidity/F1Bet/ethereum/contracts/F1.sol\":7778:7779  3 */\n      0x03\n        /* \"/home/rocha/Proyects/Solidity/F1Bet/ethereum/contracts/F1.sol\":7770:7779  points+=3 */\n      dup3\n      tag_765\n      swap2\n      swap1\n      tag_187\n      jump\t// in\n    tag_765:\n      swap2\n      pop\n        /* \"/home/rocha/Proyects/Solidity/F1Bet/ethereum/contracts/F1.sol\":7677:7953  if(checkStingEquality(contestantDriversPrediction[j-1],drivers[j])){... */\n      jump(tag_766)\n    tag_764:\n        /* \"/home/rocha/Proyects/Solidity/F1Bet/ethereum/contracts/F1.sol\":7831:7894  checkStingEquality(contestantDriversPrediction[j-2],drivers[j]) */\n      tag_767\n        /* \"/home/rocha/Proyects/Solidity/F1Bet/ethereum/contracts/F1.sol\":7850:7877  contestantDriversPrediction */\n      dup4\n        /* \"/home/rocha/Proyects/Solidity/F1Bet/ethereum/contracts/F1.sol\":7880:7881  2 */\n      0x02\n        /* \"/home/rocha/Proyects/Solidity/F1Bet/ethereum/contracts/F1.sol\":7878:7879  j */\n      dup4\n        /* \"/home/rocha/Proyects/Solidity/F1Bet/ethereum/contracts/F1.sol\":7878:7881  j-2 */\n      tag_768\n      swap2\n      swap1\n      tag_334\n      jump\t// in\n    tag_768:\n        /* \"/home/rocha/Proyects/Solidity/F1Bet/ethereum/contracts/F1.sol\":7850:7882  contestantDriversPrediction[j-2] */\n      0xff\n      and\n      dup2\n      mload\n      dup2\n      lt\n      tag_769\n      jumpi\n      tag_770\n      tag_103\n      jump\t// in\n    tag_770:\n    tag_769:\n      0x20\n      mul\n      0x20\n      add\n      add\n      mload\n        /* \"/home/rocha/Proyects/Solidity/F1Bet/ethereum/contracts/F1.sol\":7883:7890  drivers */\n      0x05\n        /* \"/home/rocha/Proyects/Solidity/F1Bet/ethereum/contracts/F1.sol\":7891:7892  j */\n      dup4\n        /* \"/home/rocha/Proyects/Solidity/F1Bet/ethereum/contracts/F1.sol\":7883:7893  drivers[j] */\n      0xff\n      and\n      dup2\n      sload\n      dup2\n      lt\n      tag_771\n      jumpi\n      tag_772\n      tag_103\n      jump\t// in\n    tag_772:\n    tag_771:\n      swap1\n      0x00\n      mstore\n      keccak256(0x00, 0x20)\n      add\n        /* \"/home/rocha/Proyects/Solidity/F1Bet/ethereum/contracts/F1.sol\":7831:7894  checkStingEquality(contestantDriversPrediction[j-2],drivers[j]) */\n      dup1\n      sload\n      tag_774\n      swap1\n      tag_262\n      jump\t// in\n    tag_774:\n      dup1\n      0x1f\n      add\n      0x20\n      dup1\n      swap2\n      div\n      mul\n      0x20\n      add\n      mload(0x40)\n      swap1\n      dup2\n      add\n      0x40\n      mstore\n      dup1\n      swap3\n      swap2\n      swap1\n      dup2\n      dup2\n      mstore\n      0x20\n      add\n      dup3\n      dup1\n      sload\n      tag_775\n      swap1\n      tag_262\n      jump\t// in\n    tag_775:\n      dup1\n      iszero\n      tag_776\n      jumpi\n      dup1\n      0x1f\n      lt\n      tag_777\n      jumpi\n      0x0100\n      dup1\n      dup4\n      sload\n      div\n      mul\n      dup4\n      mstore\n      swap2\n      0x20\n      add\n      swap2\n      jump(tag_776)\n    tag_777:\n      dup3\n      add\n      swap2\n      swap1\n      0x00\n      mstore\n      keccak256(0x00, 0x20)\n      swap1\n    tag_778:\n      dup2\n      sload\n      dup2\n      mstore\n      swap1\n      0x01\n      add\n      swap1\n      0x20\n      add\n      dup1\n      dup4\n      gt\n      tag_778\n      jumpi\n      dup3\n      swap1\n      sub\n      0x1f\n      and\n      dup3\n      add\n      swap2\n    tag_776:\n      pop\n      pop\n      pop\n      pop\n      pop\n        /* \"/home/rocha/Proyects/Solidity/F1Bet/ethereum/contracts/F1.sol\":7831:7849  checkStingEquality */\n      tag_282\n        /* \"/home/rocha/Proyects/Solidity/F1Bet/ethereum/contracts/F1.sol\":7831:7894  checkStingEquality(contestantDriversPrediction[j-2],drivers[j]) */\n      jump\t// in\n    tag_767:\n        /* \"/home/rocha/Proyects/Solidity/F1Bet/ethereum/contracts/F1.sol\":7828:7953  if(checkStingEquality(contestantDriversPrediction[j-2],drivers[j])){... */\n      iszero\n      tag_779\n      jumpi\n        /* \"/home/rocha/Proyects/Solidity/F1Bet/ethereum/contracts/F1.sol\":7929:7930  1 */\n      0x01\n        /* \"/home/rocha/Proyects/Solidity/F1Bet/ethereum/contracts/F1.sol\":7921:7930  points+=1 */\n      dup3\n      tag_780\n      swap2\n      swap1\n      tag_187\n      jump\t// in\n    tag_780:\n      swap2\n      pop\n        /* \"/home/rocha/Proyects/Solidity/F1Bet/ethereum/contracts/F1.sol\":7828:7953  if(checkStingEquality(contestantDriversPrediction[j-2],drivers[j])){... */\n    tag_779:\n        /* \"/home/rocha/Proyects/Solidity/F1Bet/ethereum/contracts/F1.sol\":7677:7953  if(checkStingEquality(contestantDriversPrediction[j-1],drivers[j])){... */\n    tag_766:\n        /* \"/home/rocha/Proyects/Solidity/F1Bet/ethereum/contracts/F1.sol\":7548:7953  if(checkStingEquality(contestantDriversPrediction[j],drivers[j])){... */\n    tag_751:\n        /* \"/home/rocha/Proyects/Solidity/F1Bet/ethereum/contracts/F1.sol\":7503:8554  if(j==drivers.length-1){... */\n      jump(tag_781)\n    tag_737:\n        /* \"/home/rocha/Proyects/Solidity/F1Bet/ethereum/contracts/F1.sol\":8000:8061  checkStingEquality(contestantDriversPrediction[j],drivers[j]) */\n      tag_782\n        /* \"/home/rocha/Proyects/Solidity/F1Bet/ethereum/contracts/F1.sol\":8019:8046  contestantDriversPrediction */\n      dup4\n        /* \"/home/rocha/Proyects/Solidity/F1Bet/ethereum/contracts/F1.sol\":8047:8048  j */\n      dup3\n        /* \"/home/rocha/Proyects/Solidity/F1Bet/ethereum/contracts/F1.sol\":8019:8049  contestantDriversPrediction[j] */\n      0xff\n      and\n      dup2\n      mload\n      dup2\n      lt\n      tag_783\n      jumpi\n      tag_784\n      tag_103\n      jump\t// in\n    tag_784:\n    tag_783:\n      0x20\n      mul\n      0x20\n      add\n      add\n      mload\n        /* \"/home/rocha/Proyects/Solidity/F1Bet/ethereum/contracts/F1.sol\":8050:8057  drivers */\n      0x05\n        /* \"/home/rocha/Proyects/Solidity/F1Bet/ethereum/contracts/F1.sol\":8058:8059  j */\n      dup4\n        /* \"/home/rocha/Proyects/Solidity/F1Bet/ethereum/contracts/F1.sol\":8050:8060  drivers[j] */\n      0xff\n      and\n      dup2\n      sload\n      dup2\n      lt\n      tag_785\n      jumpi\n      tag_786\n      tag_103\n      jump\t// in\n    tag_786:\n    tag_785:\n      swap1\n      0x00\n      mstore\n      keccak256(0x00, 0x20)\n      add\n        /* \"/home/rocha/Proyects/Solidity/F1Bet/ethereum/contracts/F1.sol\":8000:8061  checkStingEquality(contestantDriversPrediction[j],drivers[j]) */\n      dup1\n      sload\n      tag_788\n      swap1\n      tag_262\n      jump\t// in\n    tag_788:\n      dup1\n      0x1f\n      add\n      0x20\n      dup1\n      swap2\n      div\n      mul\n      0x20\n      add\n      mload(0x40)\n      swap1\n      dup2\n      add\n      0x40\n      mstore\n      dup1\n      swap3\n      swap2\n      swap1\n      dup2\n      dup2\n      mstore\n      0x20\n      add\n      dup3\n      dup1\n      sload\n      tag_789\n      swap1\n      tag_262\n      jump\t// in\n    tag_789:\n      dup1\n      iszero\n      tag_790\n      jumpi\n      dup1\n      0x1f\n      lt\n      tag_791\n      jumpi\n      0x0100\n      dup1\n      dup4\n      sload\n      div\n      mul\n      dup4\n      mstore\n      swap2\n      0x20\n      add\n      swap2\n      jump(tag_790)\n    tag_791:\n      dup3\n      add\n      swap2\n      swap1\n      0x00\n      mstore\n      keccak256(0x00, 0x20)\n      swap1\n    tag_792:\n      dup2\n      sload\n      dup2\n      mstore\n      swap1\n      0x01\n      add\n      swap1\n      0x20\n      add\n      dup1\n      dup4\n      gt\n      tag_792\n      jumpi\n      dup3\n      swap1\n      sub\n      0x1f\n      and\n      dup3\n      add\n      swap2\n    tag_790:\n      pop\n      pop\n      pop\n      pop\n      pop\n        /* \"/home/rocha/Proyects/Solidity/F1Bet/ethereum/contracts/F1.sol\":8000:8018  checkStingEquality */\n      tag_282\n        /* \"/home/rocha/Proyects/Solidity/F1Bet/ethereum/contracts/F1.sol\":8000:8061  checkStingEquality(contestantDriversPrediction[j],drivers[j]) */\n      jump\t// in\n    tag_782:\n        /* \"/home/rocha/Proyects/Solidity/F1Bet/ethereum/contracts/F1.sol\":7997:8536  if(checkStingEquality(contestantDriversPrediction[j],drivers[j])){... */\n      iszero\n      tag_793\n      jumpi\n        /* \"/home/rocha/Proyects/Solidity/F1Bet/ethereum/contracts/F1.sol\":8097:8098  5 */\n      0x05\n        /* \"/home/rocha/Proyects/Solidity/F1Bet/ethereum/contracts/F1.sol\":8088:8098  points+= 5 */\n      dup3\n      tag_794\n      swap2\n      swap1\n      tag_187\n      jump\t// in\n    tag_794:\n      swap2\n      pop\n        /* \"/home/rocha/Proyects/Solidity/F1Bet/ethereum/contracts/F1.sol\":7997:8536  if(checkStingEquality(contestantDriversPrediction[j],drivers[j])){... */\n      jump(tag_795)\n    tag_793:\n        /* \"/home/rocha/Proyects/Solidity/F1Bet/ethereum/contracts/F1.sol\":8129:8192  checkStingEquality(contestantDriversPrediction[j-1],drivers[j]) */\n      tag_796\n        /* \"/home/rocha/Proyects/Solidity/F1Bet/ethereum/contracts/F1.sol\":8148:8175  contestantDriversPrediction */\n      dup4\n        /* \"/home/rocha/Proyects/Solidity/F1Bet/ethereum/contracts/F1.sol\":8178:8179  1 */\n      0x01\n        /* \"/home/rocha/Proyects/Solidity/F1Bet/ethereum/contracts/F1.sol\":8176:8177  j */\n      dup4\n        /* \"/home/rocha/Proyects/Solidity/F1Bet/ethereum/contracts/F1.sol\":8176:8179  j-1 */\n      tag_797\n      swap2\n      swap1\n      tag_334\n      jump\t// in\n    tag_797:\n        /* \"/home/rocha/Proyects/Solidity/F1Bet/ethereum/contracts/F1.sol\":8148:8180  contestantDriversPrediction[j-1] */\n      0xff\n      and\n      dup2\n      mload\n      dup2\n      lt\n      tag_798\n      jumpi\n      tag_799\n      tag_103\n      jump\t// in\n    tag_799:\n    tag_798:\n      0x20\n      mul\n      0x20\n      add\n      add\n      mload\n        /* \"/home/rocha/Proyects/Solidity/F1Bet/ethereum/contracts/F1.sol\":8181:8188  drivers */\n      0x05\n        /* \"/home/rocha/Proyects/Solidity/F1Bet/ethereum/contracts/F1.sol\":8189:8190  j */\n      dup4\n        /* \"/home/rocha/Proyects/Solidity/F1Bet/ethereum/contracts/F1.sol\":8181:8191  drivers[j] */\n      0xff\n      and\n      dup2\n      sload\n      dup2\n      lt\n      tag_800\n      jumpi\n      tag_801\n      tag_103\n      jump\t// in\n    tag_801:\n    tag_800:\n      swap1\n      0x00\n      mstore\n      keccak256(0x00, 0x20)\n      add\n        /* \"/home/rocha/Proyects/Solidity/F1Bet/ethereum/contracts/F1.sol\":8129:8192  checkStingEquality(contestantDriversPrediction[j-1],drivers[j]) */\n      dup1\n      sload\n      tag_803\n      swap1\n      tag_262\n      jump\t// in\n    tag_803:\n      dup1\n      0x1f\n      add\n      0x20\n      dup1\n      swap2\n      div\n      mul\n      0x20\n      add\n      mload(0x40)\n      swap1\n      dup2\n      add\n      0x40\n      mstore\n      dup1\n      swap3\n      swap2\n      swap1\n      dup2\n      dup2\n      mstore\n      0x20\n      add\n      dup3\n      dup1\n      sload\n      tag_804\n      swap1\n      tag_262\n      jump\t// in\n    tag_804:\n      dup1\n      iszero\n      tag_805\n      jumpi\n      dup1\n      0x1f\n      lt\n      tag_806\n      jumpi\n      0x0100\n      dup1\n      dup4\n      sload\n      div\n      mul\n      dup4\n      mstore\n      swap2\n      0x20\n      add\n      swap2\n      jump(tag_805)\n    tag_806:\n      dup3\n      add\n      swap2\n      swap1\n      0x00\n      mstore\n      keccak256(0x00, 0x20)\n      swap1\n    tag_807:\n      dup2\n      sload\n      dup2\n      mstore\n      swap1\n      0x01\n      add\n      swap1\n      0x20\n      add\n      dup1\n      dup4\n      gt\n      tag_807\n      jumpi\n      dup3\n      swap1\n      sub\n      0x1f\n      and\n      dup3\n      add\n      swap2\n    tag_805:\n      pop\n      pop\n      pop\n      pop\n      pop\n        /* \"/home/rocha/Proyects/Solidity/F1Bet/ethereum/contracts/F1.sol\":8129:8147  checkStingEquality */\n      tag_282\n        /* \"/home/rocha/Proyects/Solidity/F1Bet/ethereum/contracts/F1.sol\":8129:8192  checkStingEquality(contestantDriversPrediction[j-1],drivers[j]) */\n      jump\t// in\n    tag_796:\n        /* \"/home/rocha/Proyects/Solidity/F1Bet/ethereum/contracts/F1.sol\":8129:8259  checkStingEquality(contestantDriversPrediction[j-1],drivers[j]) || checkStingEquality(contestantDriversPrediction[j+1],drivers[j]) */\n      dup1\n      tag_808\n      jumpi\n      pop\n        /* \"/home/rocha/Proyects/Solidity/F1Bet/ethereum/contracts/F1.sol\":8196:8259  checkStingEquality(contestantDriversPrediction[j+1],drivers[j]) */\n      tag_809\n        /* \"/home/rocha/Proyects/Solidity/F1Bet/ethereum/contracts/F1.sol\":8215:8242  contestantDriversPrediction */\n      dup4\n        /* \"/home/rocha/Proyects/Solidity/F1Bet/ethereum/contracts/F1.sol\":8245:8246  1 */\n      0x01\n        /* \"/home/rocha/Proyects/Solidity/F1Bet/ethereum/contracts/F1.sol\":8243:8244  j */\n      dup4\n        /* \"/home/rocha/Proyects/Solidity/F1Bet/ethereum/contracts/F1.sol\":8243:8246  j+1 */\n      tag_810\n      swap2\n      swap1\n      tag_288\n      jump\t// in\n    tag_810:\n        /* \"/home/rocha/Proyects/Solidity/F1Bet/ethereum/contracts/F1.sol\":8215:8247  contestantDriversPrediction[j+1] */\n      0xff\n      and\n      dup2\n      mload\n      dup2\n      lt\n      tag_811\n      jumpi\n      tag_812\n      tag_103\n      jump\t// in\n    tag_812:\n    tag_811:\n      0x20\n      mul\n      0x20\n      add\n      add\n      mload\n        /* \"/home/rocha/Proyects/Solidity/F1Bet/ethereum/contracts/F1.sol\":8248:8255  drivers */\n      0x05\n        /* \"/home/rocha/Proyects/Solidity/F1Bet/ethereum/contracts/F1.sol\":8256:8257  j */\n      dup4\n        /* \"/home/rocha/Proyects/Solidity/F1Bet/ethereum/contracts/F1.sol\":8248:8258  drivers[j] */\n      0xff\n      and\n      dup2\n      sload\n      dup2\n      lt\n      tag_813\n      jumpi\n      tag_814\n      tag_103\n      jump\t// in\n    tag_814:\n    tag_813:\n      swap1\n      0x00\n      mstore\n      keccak256(0x00, 0x20)\n      add\n        /* \"/home/rocha/Proyects/Solidity/F1Bet/ethereum/contracts/F1.sol\":8196:8259  checkStingEquality(contestantDriversPrediction[j+1],drivers[j]) */\n      dup1\n      sload\n      tag_816\n      swap1\n      tag_262\n      jump\t// in\n    tag_816:\n      dup1\n      0x1f\n      add\n      0x20\n      dup1\n      swap2\n      div\n      mul\n      0x20\n      add\n      mload(0x40)\n      swap1\n      dup2\n      add\n      0x40\n      mstore\n      dup1\n      swap3\n      swap2\n      swap1\n      dup2\n      dup2\n      mstore\n      0x20\n      add\n      dup3\n      dup1\n      sload\n      tag_817\n      swap1\n      tag_262\n      jump\t// in\n    tag_817:\n      dup1\n      iszero\n      tag_818\n      jumpi\n      dup1\n      0x1f\n      lt\n      tag_819\n      jumpi\n      0x0100\n      dup1\n      dup4\n      sload\n      div\n      mul\n      dup4\n      mstore\n      swap2\n      0x20\n      add\n      swap2\n      jump(tag_818)\n    tag_819:\n      dup3\n      add\n      swap2\n      swap1\n      0x00\n      mstore\n      keccak256(0x00, 0x20)\n      swap1\n    tag_820:\n      dup2\n      sload\n      dup2\n      mstore\n      swap1\n      0x01\n      add\n      swap1\n      0x20\n      add\n      dup1\n      dup4\n      gt\n      tag_820\n      jumpi\n      dup3\n      swap1\n      sub\n      0x1f\n      and\n      dup3\n      add\n      swap2\n    tag_818:\n      pop\n      pop\n      pop\n      pop\n      pop\n        /* \"/home/rocha/Proyects/Solidity/F1Bet/ethereum/contracts/F1.sol\":8196:8214  checkStingEquality */\n      tag_282\n        /* \"/home/rocha/Proyects/Solidity/F1Bet/ethereum/contracts/F1.sol\":8196:8259  checkStingEquality(contestantDriversPrediction[j+1],drivers[j]) */\n      jump\t// in\n    tag_809:\n        /* \"/home/rocha/Proyects/Solidity/F1Bet/ethereum/contracts/F1.sol\":8129:8259  checkStingEquality(contestantDriversPrediction[j-1],drivers[j]) || checkStingEquality(contestantDriversPrediction[j+1],drivers[j]) */\n    tag_808:\n        /* \"/home/rocha/Proyects/Solidity/F1Bet/ethereum/contracts/F1.sol\":8126:8536  if(checkStingEquality(contestantDriversPrediction[j-1],drivers[j]) || checkStingEquality(contestantDriversPrediction[j+1],drivers[j])){... */\n      iszero\n      tag_821\n      jumpi\n        /* \"/home/rocha/Proyects/Solidity/F1Bet/ethereum/contracts/F1.sol\":8294:8295  3 */\n      0x03\n        /* \"/home/rocha/Proyects/Solidity/F1Bet/ethereum/contracts/F1.sol\":8286:8295  points+=3 */\n      dup3\n      tag_822\n      swap2\n      swap1\n      tag_187\n      jump\t// in\n    tag_822:\n      swap2\n      pop\n        /* \"/home/rocha/Proyects/Solidity/F1Bet/ethereum/contracts/F1.sol\":8126:8536  if(checkStingEquality(contestantDriversPrediction[j-1],drivers[j]) || checkStingEquality(contestantDriversPrediction[j+1],drivers[j])){... */\n      jump(tag_823)\n    tag_821:\n        /* \"/home/rocha/Proyects/Solidity/F1Bet/ethereum/contracts/F1.sol\":8347:8410  checkStingEquality(contestantDriversPrediction[j-2],drivers[j]) */\n      tag_824\n        /* \"/home/rocha/Proyects/Solidity/F1Bet/ethereum/contracts/F1.sol\":8366:8393  contestantDriversPrediction */\n      dup4\n        /* \"/home/rocha/Proyects/Solidity/F1Bet/ethereum/contracts/F1.sol\":8396:8397  2 */\n      0x02\n        /* \"/home/rocha/Proyects/Solidity/F1Bet/ethereum/contracts/F1.sol\":8394:8395  j */\n      dup4\n        /* \"/home/rocha/Proyects/Solidity/F1Bet/ethereum/contracts/F1.sol\":8394:8397  j-2 */\n      tag_825\n      swap2\n      swap1\n      tag_334\n      jump\t// in\n    tag_825:\n        /* \"/home/rocha/Proyects/Solidity/F1Bet/ethereum/contracts/F1.sol\":8366:8398  contestantDriversPrediction[j-2] */\n      0xff\n      and\n      dup2\n      mload\n      dup2\n      lt\n      tag_826\n      jumpi\n      tag_827\n      tag_103\n      jump\t// in\n    tag_827:\n    tag_826:\n      0x20\n      mul\n      0x20\n      add\n      add\n      mload\n        /* \"/home/rocha/Proyects/Solidity/F1Bet/ethereum/contracts/F1.sol\":8399:8406  drivers */\n      0x05\n        /* \"/home/rocha/Proyects/Solidity/F1Bet/ethereum/contracts/F1.sol\":8407:8408  j */\n      dup4\n        /* \"/home/rocha/Proyects/Solidity/F1Bet/ethereum/contracts/F1.sol\":8399:8409  drivers[j] */\n      0xff\n      and\n      dup2\n      sload\n      dup2\n      lt\n      tag_828\n      jumpi\n      tag_829\n      tag_103\n      jump\t// in\n    tag_829:\n    tag_828:\n      swap1\n      0x00\n      mstore\n      keccak256(0x00, 0x20)\n      add\n        /* \"/home/rocha/Proyects/Solidity/F1Bet/ethereum/contracts/F1.sol\":8347:8410  checkStingEquality(contestantDriversPrediction[j-2],drivers[j]) */\n      dup1\n      sload\n      tag_831\n      swap1\n      tag_262\n      jump\t// in\n    tag_831:\n      dup1\n      0x1f\n      add\n      0x20\n      dup1\n      swap2\n      div\n      mul\n      0x20\n      add\n      mload(0x40)\n      swap1\n      dup2\n      add\n      0x40\n      mstore\n      dup1\n      swap3\n      swap2\n      swap1\n      dup2\n      dup2\n      mstore\n      0x20\n      add\n      dup3\n      dup1\n      sload\n      tag_832\n      swap1\n      tag_262\n      jump\t// in\n    tag_832:\n      dup1\n      iszero\n      tag_833\n      jumpi\n      dup1\n      0x1f\n      lt\n      tag_834\n      jumpi\n      0x0100\n      dup1\n      dup4\n      sload\n      div\n      mul\n      dup4\n      mstore\n      swap2\n      0x20\n      add\n      swap2\n      jump(tag_833)\n    tag_834:\n      dup3\n      add\n      swap2\n      swap1\n      0x00\n      mstore\n      keccak256(0x00, 0x20)\n      swap1\n    tag_835:\n      dup2\n      sload\n      dup2\n      mstore\n      swap1\n      0x01\n      add\n      swap1\n      0x20\n      add\n      dup1\n      dup4\n      gt\n      tag_835\n      jumpi\n      dup3\n      swap1\n      sub\n      0x1f\n      and\n      dup3\n      add\n      swap2\n    tag_833:\n      pop\n      pop\n      pop\n      pop\n      pop\n        /* \"/home/rocha/Proyects/Solidity/F1Bet/ethereum/contracts/F1.sol\":8347:8365  checkStingEquality */\n      tag_282\n        /* \"/home/rocha/Proyects/Solidity/F1Bet/ethereum/contracts/F1.sol\":8347:8410  checkStingEquality(contestantDriversPrediction[j-2],drivers[j]) */\n      jump\t// in\n    tag_824:\n        /* \"/home/rocha/Proyects/Solidity/F1Bet/ethereum/contracts/F1.sol\":8347:8477  checkStingEquality(contestantDriversPrediction[j-2],drivers[j]) || checkStingEquality(contestantDriversPrediction[j+2],drivers[j]) */\n      dup1\n      tag_836\n      jumpi\n      pop\n        /* \"/home/rocha/Proyects/Solidity/F1Bet/ethereum/contracts/F1.sol\":8414:8477  checkStingEquality(contestantDriversPrediction[j+2],drivers[j]) */\n      tag_837\n        /* \"/home/rocha/Proyects/Solidity/F1Bet/ethereum/contracts/F1.sol\":8433:8460  contestantDriversPrediction */\n      dup4\n        /* \"/home/rocha/Proyects/Solidity/F1Bet/ethereum/contracts/F1.sol\":8463:8464  2 */\n      0x02\n        /* \"/home/rocha/Proyects/Solidity/F1Bet/ethereum/contracts/F1.sol\":8461:8462  j */\n      dup4\n        /* \"/home/rocha/Proyects/Solidity/F1Bet/ethereum/contracts/F1.sol\":8461:8464  j+2 */\n      tag_838\n      swap2\n      swap1\n      tag_288\n      jump\t// in\n    tag_838:\n        /* \"/home/rocha/Proyects/Solidity/F1Bet/ethereum/contracts/F1.sol\":8433:8465  contestantDriversPrediction[j+2] */\n      0xff\n      and\n      dup2\n      mload\n      dup2\n      lt\n      tag_839\n      jumpi\n      tag_840\n      tag_103\n      jump\t// in\n    tag_840:\n    tag_839:\n      0x20\n      mul\n      0x20\n      add\n      add\n      mload\n        /* \"/home/rocha/Proyects/Solidity/F1Bet/ethereum/contracts/F1.sol\":8466:8473  drivers */\n      0x05\n        /* \"/home/rocha/Proyects/Solidity/F1Bet/ethereum/contracts/F1.sol\":8474:8475  j */\n      dup4\n        /* \"/home/rocha/Proyects/Solidity/F1Bet/ethereum/contracts/F1.sol\":8466:8476  drivers[j] */\n      0xff\n      and\n      dup2\n      sload\n      dup2\n      lt\n      tag_841\n      jumpi\n      tag_842\n      tag_103\n      jump\t// in\n    tag_842:\n    tag_841:\n      swap1\n      0x00\n      mstore\n      keccak256(0x00, 0x20)\n      add\n        /* \"/home/rocha/Proyects/Solidity/F1Bet/ethereum/contracts/F1.sol\":8414:8477  checkStingEquality(contestantDriversPrediction[j+2],drivers[j]) */\n      dup1\n      sload\n      tag_844\n      swap1\n      tag_262\n      jump\t// in\n    tag_844:\n      dup1\n      0x1f\n      add\n      0x20\n      dup1\n      swap2\n      div\n      mul\n      0x20\n      add\n      mload(0x40)\n      swap1\n      dup2\n      add\n      0x40\n      mstore\n      dup1\n      swap3\n      swap2\n      swap1\n      dup2\n      dup2\n      mstore\n      0x20\n      add\n      dup3\n      dup1\n      sload\n      tag_845\n      swap1\n      tag_262\n      jump\t// in\n    tag_845:\n      dup1\n      iszero\n      tag_846\n      jumpi\n      dup1\n      0x1f\n      lt\n      tag_847\n      jumpi\n      0x0100\n      dup1\n      dup4\n      sload\n      div\n      mul\n      dup4\n      mstore\n      swap2\n      0x20\n      add\n      swap2\n      jump(tag_846)\n    tag_847:\n      dup3\n      add\n      swap2\n      swap1\n      0x00\n      mstore\n      keccak256(0x00, 0x20)\n      swap1\n    tag_848:\n      dup2\n      sload\n      dup2\n      mstore\n      swap1\n      0x01\n      add\n      swap1\n      0x20\n      add\n      dup1\n      dup4\n      gt\n      tag_848\n      jumpi\n      dup3\n      swap1\n      sub\n      0x1f\n      and\n      dup3\n      add\n      swap2\n    tag_846:\n      pop\n      pop\n      pop\n      pop\n      pop\n        /* \"/home/rocha/Proyects/Solidity/F1Bet/ethereum/contracts/F1.sol\":8414:8432  checkStingEquality */\n      tag_282\n        /* \"/home/rocha/Proyects/Solidity/F1Bet/ethereum/contracts/F1.sol\":8414:8477  checkStingEquality(contestantDriversPrediction[j+2],drivers[j]) */\n      jump\t// in\n    tag_837:\n        /* \"/home/rocha/Proyects/Solidity/F1Bet/ethereum/contracts/F1.sol\":8347:8477  checkStingEquality(contestantDriversPrediction[j-2],drivers[j]) || checkStingEquality(contestantDriversPrediction[j+2],drivers[j]) */\n    tag_836:\n        /* \"/home/rocha/Proyects/Solidity/F1Bet/ethereum/contracts/F1.sol\":8344:8536  if(checkStingEquality(contestantDriversPrediction[j-2],drivers[j]) || checkStingEquality(contestantDriversPrediction[j+2],drivers[j])){... */\n      iszero\n      tag_849\n      jumpi\n        /* \"/home/rocha/Proyects/Solidity/F1Bet/ethereum/contracts/F1.sol\":8512:8513  1 */\n      0x01\n        /* \"/home/rocha/Proyects/Solidity/F1Bet/ethereum/contracts/F1.sol\":8504:8513  points+=1 */\n      dup3\n      tag_850\n      swap2\n      swap1\n      tag_187\n      jump\t// in\n    tag_850:\n      swap2\n      pop\n        /* \"/home/rocha/Proyects/Solidity/F1Bet/ethereum/contracts/F1.sol\":8344:8536  if(checkStingEquality(contestantDriversPrediction[j-2],drivers[j]) || checkStingEquality(contestantDriversPrediction[j+2],drivers[j])){... */\n    tag_849:\n        /* \"/home/rocha/Proyects/Solidity/F1Bet/ethereum/contracts/F1.sol\":8126:8536  if(checkStingEquality(contestantDriversPrediction[j-1],drivers[j]) || checkStingEquality(contestantDriversPrediction[j+1],drivers[j])){... */\n    tag_823:\n        /* \"/home/rocha/Proyects/Solidity/F1Bet/ethereum/contracts/F1.sol\":7997:8536  if(checkStingEquality(contestantDriversPrediction[j],drivers[j])){... */\n    tag_795:\n        /* \"/home/rocha/Proyects/Solidity/F1Bet/ethereum/contracts/F1.sol\":7503:8554  if(j==drivers.length-1){... */\n    tag_781:\n        /* \"/home/rocha/Proyects/Solidity/F1Bet/ethereum/contracts/F1.sol\":6963:8554  if(j==drivers.length-2){... */\n    tag_735:\n        /* \"/home/rocha/Proyects/Solidity/F1Bet/ethereum/contracts/F1.sol\":6438:8554  if(j<2){... */\n    tag_676:\n        /* \"/home/rocha/Proyects/Solidity/F1Bet/ethereum/contracts/F1.sol\":5980:8554  if(j<1){... */\n    tag_618:\n        /* \"/home/rocha/Proyects/Solidity/F1Bet/ethereum/contracts/F1.sol\":5958:5961  j++ */\n      dup1\n      dup1\n      tag_851\n      swap1\n      tag_107\n      jump\t// in\n    tag_851:\n      swap2\n      pop\n      pop\n        /* \"/home/rocha/Proyects/Solidity/F1Bet/ethereum/contracts/F1.sol\":5928:8568  for(uint8 j; j<drivers.length;j++){... */\n      jump(tag_571)\n    tag_572:\n      pop\n        /* \"/home/rocha/Proyects/Solidity/F1Bet/ethereum/contracts/F1.sol\":8625:8631  points */\n      dup1\n        /* \"/home/rocha/Proyects/Solidity/F1Bet/ethereum/contracts/F1.sol\":8581:8592  predictions */\n      0x00\n        /* \"/home/rocha/Proyects/Solidity/F1Bet/ethereum/contracts/F1.sol\":8581:8608  predictions[contestants[i]] */\n      dup1\n        /* \"/home/rocha/Proyects/Solidity/F1Bet/ethereum/contracts/F1.sol\":8593:8604  contestants */\n      0x01\n        /* \"/home/rocha/Proyects/Solidity/F1Bet/ethereum/contracts/F1.sol\":8605:8606  i */\n      dup7\n        /* \"/home/rocha/Proyects/Solidity/F1Bet/ethereum/contracts/F1.sol\":8593:8607  contestants[i] */\n      0xff\n      and\n      dup2\n      sload\n      dup2\n      lt\n      tag_852\n      jumpi\n      tag_853\n      tag_103\n      jump\t// in\n    tag_853:\n    tag_852:\n      swap1\n      0x00\n      mstore\n      keccak256(0x00, 0x20)\n      add\n      0x00\n      swap1\n      sload\n      swap1\n      0x0100\n      exp\n      swap1\n      div\n      0xffffffffffffffffffffffffffffffffffffffff\n      and\n        /* \"/home/rocha/Proyects/Solidity/F1Bet/ethereum/contracts/F1.sol\":8581:8608  predictions[contestants[i]] */\n      0xffffffffffffffffffffffffffffffffffffffff\n      and\n      0xffffffffffffffffffffffffffffffffffffffff\n      and\n      dup2\n      mstore\n      0x20\n      add\n      swap1\n      dup2\n      mstore\n      0x20\n      add\n      0x00\n      keccak256\n        /* \"/home/rocha/Proyects/Solidity/F1Bet/ethereum/contracts/F1.sol\":8581:8622  predictions[contestants[i]].driversPoints */\n      0x04\n      add\n        /* \"/home/rocha/Proyects/Solidity/F1Bet/ethereum/contracts/F1.sol\":8581:8631  predictions[contestants[i]].driversPoints = points */\n      dup2\n      swap1\n      sstore\n      pop\n        /* \"/home/rocha/Proyects/Solidity/F1Bet/ethereum/contracts/F1.sol\":5794:8642  {... */\n      pop\n      pop\n        /* \"/home/rocha/Proyects/Solidity/F1Bet/ethereum/contracts/F1.sol\":5790:5793  i++ */\n      dup1\n      dup1\n      tag_855\n      swap1\n      tag_107\n      jump\t// in\n    tag_855:\n      swap2\n      pop\n      pop\n        /* \"/home/rocha/Proyects/Solidity/F1Bet/ethereum/contracts/F1.sol\":5756:8642  for(uint8 i; i<contestants.length;i++){... */\n      jump(tag_557)\n    tag_558:\n      pop\n        /* \"/home/rocha/Proyects/Solidity/F1Bet/ethereum/contracts/F1.sol\":5705:8648  function calculateDriversTable() private {... */\n      jump\t// out\n        /* \"/home/rocha/Proyects/Solidity/F1Bet/ethereum/contracts/F1.sol\":8653:8974  function calculateChecoPoints() private {... */\n    tag_141:\n        /* \"/home/rocha/Proyects/Solidity/F1Bet/ethereum/contracts/F1.sol\":8707:8714  uint8 i */\n      0x00\n        /* \"/home/rocha/Proyects/Solidity/F1Bet/ethereum/contracts/F1.sol\":8703:8968  for(uint8 i; i<contestants.length;i++){... */\n    tag_857:\n        /* \"/home/rocha/Proyects/Solidity/F1Bet/ethereum/contracts/F1.sol\":8718:8729  contestants */\n      0x01\n        /* \"/home/rocha/Proyects/Solidity/F1Bet/ethereum/contracts/F1.sol\":8718:8736  contestants.length */\n      dup1\n      sload\n      swap1\n      pop\n        /* \"/home/rocha/Proyects/Solidity/F1Bet/ethereum/contracts/F1.sol\":8716:8717  i */\n      dup2\n        /* \"/home/rocha/Proyects/Solidity/F1Bet/ethereum/contracts/F1.sol\":8716:8736  i<contestants.length */\n      0xff\n      and\n      lt\n        /* \"/home/rocha/Proyects/Solidity/F1Bet/ethereum/contracts/F1.sol\":8703:8968  for(uint8 i; i<contestants.length;i++){... */\n      iszero\n      tag_858\n      jumpi\n        /* \"/home/rocha/Proyects/Solidity/F1Bet/ethereum/contracts/F1.sol\":8755:8786  uint8 contestantChecoPrediction */\n      0x00\n        /* \"/home/rocha/Proyects/Solidity/F1Bet/ethereum/contracts/F1.sol\":8789:8800  predictions */\n      dup1\n        /* \"/home/rocha/Proyects/Solidity/F1Bet/ethereum/contracts/F1.sol\":8789:8816  predictions[contestants[i]] */\n      0x00\n        /* \"/home/rocha/Proyects/Solidity/F1Bet/ethereum/contracts/F1.sol\":8801:8812  contestants */\n      0x01\n        /* \"/home/rocha/Proyects/Solidity/F1Bet/ethereum/contracts/F1.sol\":8813:8814  i */\n      dup5\n        /* \"/home/rocha/Proyects/Solidity/F1Bet/ethereum/contracts/F1.sol\":8801:8815  contestants[i] */\n      0xff\n      and\n      dup2\n      sload\n      dup2\n      lt\n      tag_860\n      jumpi\n      tag_861\n      tag_103\n      jump\t// in\n    tag_861:\n    tag_860:\n      swap1\n      0x00\n      mstore\n      keccak256(0x00, 0x20)\n      add\n      0x00\n      swap1\n      sload\n      swap1\n      0x0100\n      exp\n      swap1\n      div\n      0xffffffffffffffffffffffffffffffffffffffff\n      and\n        /* \"/home/rocha/Proyects/Solidity/F1Bet/ethereum/contracts/F1.sol\":8789:8816  predictions[contestants[i]] */\n      0xffffffffffffffffffffffffffffffffffffffff\n      and\n      0xffffffffffffffffffffffffffffffffffffffff\n      and\n      dup2\n      mstore\n      0x20\n      add\n      swap1\n      dup2\n      mstore\n      0x20\n      add\n      0x00\n      keccak256\n        /* \"/home/rocha/Proyects/Solidity/F1Bet/ethereum/contracts/F1.sol\":8789:8826  predictions[contestants[i]].checoWins */\n      0x02\n      add\n      0x00\n      swap1\n      sload\n      swap1\n      0x0100\n      exp\n      swap1\n      div\n      0xff\n      and\n        /* \"/home/rocha/Proyects/Solidity/F1Bet/ethereum/contracts/F1.sol\":8755:8826  uint8 contestantChecoPrediction = predictions[contestants[i]].checoWins */\n      swap1\n      pop\n        /* \"/home/rocha/Proyects/Solidity/F1Bet/ethereum/contracts/F1.sol\":8856:8881  contestantChecoPrediction */\n      dup1\n        /* \"/home/rocha/Proyects/Solidity/F1Bet/ethereum/contracts/F1.sol\":8843:8881  checoWins == contestantChecoPrediction */\n      0xff\n      and\n        /* \"/home/rocha/Proyects/Solidity/F1Bet/ethereum/contracts/F1.sol\":8843:8852  checoWins */\n      0x06\n      0x00\n      swap1\n      sload\n      swap1\n      0x0100\n      exp\n      swap1\n      div\n      0xff\n      and\n        /* \"/home/rocha/Proyects/Solidity/F1Bet/ethereum/contracts/F1.sol\":8843:8881  checoWins == contestantChecoPrediction */\n      0xff\n      and\n      eq\n        /* \"/home/rocha/Proyects/Solidity/F1Bet/ethereum/contracts/F1.sol\":8840:8958  if(checoWins == contestantChecoPrediction){... */\n      iszero\n      tag_863\n      jumpi\n        /* \"/home/rocha/Proyects/Solidity/F1Bet/ethereum/contracts/F1.sol\":8942:8943  4 */\n      0x04\n        /* \"/home/rocha/Proyects/Solidity/F1Bet/ethereum/contracts/F1.sol\":8900:8911  predictions */\n      0x00\n        /* \"/home/rocha/Proyects/Solidity/F1Bet/ethereum/contracts/F1.sol\":8900:8927  predictions[contestants[i]] */\n      dup1\n        /* \"/home/rocha/Proyects/Solidity/F1Bet/ethereum/contracts/F1.sol\":8912:8923  contestants */\n      0x01\n        /* \"/home/rocha/Proyects/Solidity/F1Bet/ethereum/contracts/F1.sol\":8924:8925  i */\n      dup6\n        /* \"/home/rocha/Proyects/Solidity/F1Bet/ethereum/contracts/F1.sol\":8912:8926  contestants[i] */\n      0xff\n      and\n      dup2\n      sload\n      dup2\n      lt\n      tag_864\n      jumpi\n      tag_865\n      tag_103\n      jump\t// in\n    tag_865:\n    tag_864:\n      swap1\n      0x00\n      mstore\n      keccak256(0x00, 0x20)\n      add\n      0x00\n      swap1\n      sload\n      swap1\n      0x0100\n      exp\n      swap1\n      div\n      0xffffffffffffffffffffffffffffffffffffffff\n      and\n        /* \"/home/rocha/Proyects/Solidity/F1Bet/ethereum/contracts/F1.sol\":8900:8927  predictions[contestants[i]] */\n      0xffffffffffffffffffffffffffffffffffffffff\n      and\n      0xffffffffffffffffffffffffffffffffffffffff\n      and\n      dup2\n      mstore\n      0x20\n      add\n      swap1\n      dup2\n      mstore\n      0x20\n      add\n      0x00\n      keccak256\n        /* \"/home/rocha/Proyects/Solidity/F1Bet/ethereum/contracts/F1.sol\":8900:8939  predictions[contestants[i]].checoPoints */\n      0x05\n      add\n        /* \"/home/rocha/Proyects/Solidity/F1Bet/ethereum/contracts/F1.sol\":8900:8943  predictions[contestants[i]].checoPoints = 4 */\n      dup2\n      swap1\n      sstore\n      pop\n        /* \"/home/rocha/Proyects/Solidity/F1Bet/ethereum/contracts/F1.sol\":8840:8958  if(checoWins == contestantChecoPrediction){... */\n    tag_863:\n        /* \"/home/rocha/Proyects/Solidity/F1Bet/ethereum/contracts/F1.sol\":8741:8968  {... */\n      pop\n        /* \"/home/rocha/Proyects/Solidity/F1Bet/ethereum/contracts/F1.sol\":8737:8740  i++ */\n      dup1\n      dup1\n      tag_867\n      swap1\n      tag_107\n      jump\t// in\n    tag_867:\n      swap2\n      pop\n      pop\n        /* \"/home/rocha/Proyects/Solidity/F1Bet/ethereum/contracts/F1.sol\":8703:8968  for(uint8 i; i<contestants.length;i++){... */\n      jump(tag_857)\n    tag_858:\n      pop\n        /* \"/home/rocha/Proyects/Solidity/F1Bet/ethereum/contracts/F1.sol\":8653:8974  function calculateChecoPoints() private {... */\n      jump\t// out\n        /* \"/home/rocha/Proyects/Solidity/F1Bet/ethereum/contracts/F1.sol\":8979:9552  function calculateFinalPoints() private {... */\n    tag_143:\n        /* \"/home/rocha/Proyects/Solidity/F1Bet/ethereum/contracts/F1.sol\":9030:9044  uint maxPoints */\n      0x00\n        /* \"/home/rocha/Proyects/Solidity/F1Bet/ethereum/contracts/F1.sol\":9059:9066  uint8 i */\n      dup1\n        /* \"/home/rocha/Proyects/Solidity/F1Bet/ethereum/contracts/F1.sol\":9055:9545  for(uint8 i; i<contestants.length;i++){... */\n    tag_869:\n        /* \"/home/rocha/Proyects/Solidity/F1Bet/ethereum/contracts/F1.sol\":9070:9081  contestants */\n      0x01\n        /* \"/home/rocha/Proyects/Solidity/F1Bet/ethereum/contracts/F1.sol\":9070:9088  contestants.length */\n      dup1\n      sload\n      swap1\n      pop\n        /* \"/home/rocha/Proyects/Solidity/F1Bet/ethereum/contracts/F1.sol\":9068:9069  i */\n      dup2\n        /* \"/home/rocha/Proyects/Solidity/F1Bet/ethereum/contracts/F1.sol\":9068:9088  i<contestants.length */\n      0xff\n      and\n      lt\n        /* \"/home/rocha/Proyects/Solidity/F1Bet/ethereum/contracts/F1.sol\":9055:9545  for(uint8 i; i<contestants.length;i++){... */\n      iszero\n      tag_870\n      jumpi\n        /* \"/home/rocha/Proyects/Solidity/F1Bet/ethereum/contracts/F1.sol\":9107:9123  uint finalPoints */\n      0x00\n        /* \"/home/rocha/Proyects/Solidity/F1Bet/ethereum/contracts/F1.sol\":9219:9230  predictions */\n      dup1\n        /* \"/home/rocha/Proyects/Solidity/F1Bet/ethereum/contracts/F1.sol\":9219:9246  predictions[contestants[i]] */\n      0x00\n        /* \"/home/rocha/Proyects/Solidity/F1Bet/ethereum/contracts/F1.sol\":9231:9242  contestants */\n      0x01\n        /* \"/home/rocha/Proyects/Solidity/F1Bet/ethereum/contracts/F1.sol\":9243:9244  i */\n      dup5\n        /* \"/home/rocha/Proyects/Solidity/F1Bet/ethereum/contracts/F1.sol\":9231:9245  contestants[i] */\n      0xff\n      and\n      dup2\n      sload\n      dup2\n      lt\n      tag_872\n      jumpi\n      tag_873\n      tag_103\n      jump\t// in\n    tag_873:\n    tag_872:\n      swap1\n      0x00\n      mstore\n      keccak256(0x00, 0x20)\n      add\n      0x00\n      swap1\n      sload\n      swap1\n      0x0100\n      exp\n      swap1\n      div\n      0xffffffffffffffffffffffffffffffffffffffff\n      and\n        /* \"/home/rocha/Proyects/Solidity/F1Bet/ethereum/contracts/F1.sol\":9219:9246  predictions[contestants[i]] */\n      0xffffffffffffffffffffffffffffffffffffffff\n      and\n      0xffffffffffffffffffffffffffffffffffffffff\n      and\n      dup2\n      mstore\n      0x20\n      add\n      swap1\n      dup2\n      mstore\n      0x20\n      add\n      0x00\n      keccak256\n        /* \"/home/rocha/Proyects/Solidity/F1Bet/ethereum/contracts/F1.sol\":9219:9258  predictions[contestants[i]].checoPoints */\n      0x05\n      add\n      sload\n        /* \"/home/rocha/Proyects/Solidity/F1Bet/ethereum/contracts/F1.sol\":9175:9186  predictions */\n      0x00\n        /* \"/home/rocha/Proyects/Solidity/F1Bet/ethereum/contracts/F1.sol\":9175:9202  predictions[contestants[i]] */\n      dup1\n        /* \"/home/rocha/Proyects/Solidity/F1Bet/ethereum/contracts/F1.sol\":9187:9198  contestants */\n      0x01\n        /* \"/home/rocha/Proyects/Solidity/F1Bet/ethereum/contracts/F1.sol\":9199:9200  i */\n      dup6\n        /* \"/home/rocha/Proyects/Solidity/F1Bet/ethereum/contracts/F1.sol\":9187:9201  contestants[i] */\n      0xff\n      and\n      dup2\n      sload\n      dup2\n      lt\n      tag_875\n      jumpi\n      tag_876\n      tag_103\n      jump\t// in\n    tag_876:\n    tag_875:\n      swap1\n      0x00\n      mstore\n      keccak256(0x00, 0x20)\n      add\n      0x00\n      swap1\n      sload\n      swap1\n      0x0100\n      exp\n      swap1\n      div\n      0xffffffffffffffffffffffffffffffffffffffff\n      and\n        /* \"/home/rocha/Proyects/Solidity/F1Bet/ethereum/contracts/F1.sol\":9175:9202  predictions[contestants[i]] */\n      0xffffffffffffffffffffffffffffffffffffffff\n      and\n      0xffffffffffffffffffffffffffffffffffffffff\n      and\n      dup2\n      mstore\n      0x20\n      add\n      swap1\n      dup2\n      mstore\n      0x20\n      add\n      0x00\n      keccak256\n        /* \"/home/rocha/Proyects/Solidity/F1Bet/ethereum/contracts/F1.sol\":9175:9216  predictions[contestants[i]].driversPoints */\n      0x04\n      add\n      sload\n        /* \"/home/rocha/Proyects/Solidity/F1Bet/ethereum/contracts/F1.sol\":9126:9137  predictions */\n      0x00\n        /* \"/home/rocha/Proyects/Solidity/F1Bet/ethereum/contracts/F1.sol\":9126:9153  predictions[contestants[i]] */\n      dup1\n        /* \"/home/rocha/Proyects/Solidity/F1Bet/ethereum/contracts/F1.sol\":9138:9149  contestants */\n      0x01\n        /* \"/home/rocha/Proyects/Solidity/F1Bet/ethereum/contracts/F1.sol\":9150:9151  i */\n      dup7\n        /* \"/home/rocha/Proyects/Solidity/F1Bet/ethereum/contracts/F1.sol\":9138:9152  contestants[i] */\n      0xff\n      and\n      dup2\n      sload\n      dup2\n      lt\n      tag_878\n      jumpi\n      tag_879\n      tag_103\n      jump\t// in\n    tag_879:\n    tag_878:\n      swap1\n      0x00\n      mstore\n      keccak256(0x00, 0x20)\n      add\n      0x00\n      swap1\n      sload\n      swap1\n      0x0100\n      exp\n      swap1\n      div\n      0xffffffffffffffffffffffffffffffffffffffff\n      and\n        /* \"/home/rocha/Proyects/Solidity/F1Bet/ethereum/contracts/F1.sol\":9126:9153  predictions[contestants[i]] */\n      0xffffffffffffffffffffffffffffffffffffffff\n      and\n      0xffffffffffffffffffffffffffffffffffffffff\n      and\n      dup2\n      mstore\n      0x20\n      add\n      swap1\n      dup2\n      mstore\n      0x20\n      add\n      0x00\n      keccak256\n        /* \"/home/rocha/Proyects/Solidity/F1Bet/ethereum/contracts/F1.sol\":9126:9172  predictions[contestants[i]].constructorsPoints */\n      0x03\n      add\n      sload\n        /* \"/home/rocha/Proyects/Solidity/F1Bet/ethereum/contracts/F1.sol\":9126:9216  predictions[contestants[i]].constructorsPoints + predictions[contestants[i]].driversPoints */\n      tag_881\n      swap2\n      swap1\n      tag_187\n      jump\t// in\n    tag_881:\n        /* \"/home/rocha/Proyects/Solidity/F1Bet/ethereum/contracts/F1.sol\":9126:9258  predictions[contestants[i]].constructorsPoints + predictions[contestants[i]].driversPoints + predictions[contestants[i]].checoPoints */\n      tag_882\n      swap2\n      swap1\n      tag_187\n      jump\t// in\n    tag_882:\n        /* \"/home/rocha/Proyects/Solidity/F1Bet/ethereum/contracts/F1.sol\":9107:9258  uint finalPoints = predictions[contestants[i]].constructorsPoints + predictions[contestants[i]].driversPoints + predictions[contestants[i]].checoPoints */\n      swap1\n      pop\n        /* \"/home/rocha/Proyects/Solidity/F1Bet/ethereum/contracts/F1.sol\":9314:9325  finalPoints */\n      dup1\n        /* \"/home/rocha/Proyects/Solidity/F1Bet/ethereum/contracts/F1.sol\":9272:9283  predictions */\n      0x00\n        /* \"/home/rocha/Proyects/Solidity/F1Bet/ethereum/contracts/F1.sol\":9272:9299  predictions[contestants[i]] */\n      dup1\n        /* \"/home/rocha/Proyects/Solidity/F1Bet/ethereum/contracts/F1.sol\":9284:9295  contestants */\n      0x01\n        /* \"/home/rocha/Proyects/Solidity/F1Bet/ethereum/contracts/F1.sol\":9296:9297  i */\n      dup6\n        /* \"/home/rocha/Proyects/Solidity/F1Bet/ethereum/contracts/F1.sol\":9284:9298  contestants[i] */\n      0xff\n      and\n      dup2\n      sload\n      dup2\n      lt\n      tag_883\n      jumpi\n      tag_884\n      tag_103\n      jump\t// in\n    tag_884:\n    tag_883:\n      swap1\n      0x00\n      mstore\n      keccak256(0x00, 0x20)\n      add\n      0x00\n      swap1\n      sload\n      swap1\n      0x0100\n      exp\n      swap1\n      div\n      0xffffffffffffffffffffffffffffffffffffffff\n      and\n        /* \"/home/rocha/Proyects/Solidity/F1Bet/ethereum/contracts/F1.sol\":9272:9299  predictions[contestants[i]] */\n      0xffffffffffffffffffffffffffffffffffffffff\n      and\n      0xffffffffffffffffffffffffffffffffffffffff\n      and\n      dup2\n      mstore\n      0x20\n      add\n      swap1\n      dup2\n      mstore\n      0x20\n      add\n      0x00\n      keccak256\n        /* \"/home/rocha/Proyects/Solidity/F1Bet/ethereum/contracts/F1.sol\":9272:9311  predictions[contestants[i]].totalPoints */\n      0x06\n      add\n        /* \"/home/rocha/Proyects/Solidity/F1Bet/ethereum/contracts/F1.sol\":9272:9325  predictions[contestants[i]].totalPoints = finalPoints */\n      dup2\n      swap1\n      sstore\n      pop\n        /* \"/home/rocha/Proyects/Solidity/F1Bet/ethereum/contracts/F1.sol\":9354:9365  finalPoints */\n      dup1\n        /* \"/home/rocha/Proyects/Solidity/F1Bet/ethereum/contracts/F1.sol\":9342:9351  maxPoints */\n      dup4\n        /* \"/home/rocha/Proyects/Solidity/F1Bet/ethereum/contracts/F1.sol\":9342:9365  maxPoints < finalPoints */\n      lt\n        /* \"/home/rocha/Proyects/Solidity/F1Bet/ethereum/contracts/F1.sol\":9339:9535  if(maxPoints < finalPoints){... */\n      iszero\n      tag_886\n      jumpi\n        /* \"/home/rocha/Proyects/Solidity/F1Bet/ethereum/contracts/F1.sol\":9396:9407  finalPoints */\n      dup1\n        /* \"/home/rocha/Proyects/Solidity/F1Bet/ethereum/contracts/F1.sol\":9384:9407  maxPoints = finalPoints */\n      swap3\n      pop\n        /* \"/home/rocha/Proyects/Solidity/F1Bet/ethereum/contracts/F1.sol\":9425:9454  address payable payableWinner */\n      0x00\n        /* \"/home/rocha/Proyects/Solidity/F1Bet/ethereum/contracts/F1.sol\":9465:9476  contestants */\n      0x01\n        /* \"/home/rocha/Proyects/Solidity/F1Bet/ethereum/contracts/F1.sol\":9477:9478  i */\n      dup4\n        /* \"/home/rocha/Proyects/Solidity/F1Bet/ethereum/contracts/F1.sol\":9465:9479  contestants[i] */\n      0xff\n      and\n      dup2\n      sload\n      dup2\n      lt\n      tag_887\n      jumpi\n      tag_888\n      tag_103\n      jump\t// in\n    tag_888:\n    tag_887:\n      swap1\n      0x00\n      mstore\n      keccak256(0x00, 0x20)\n      add\n      0x00\n      swap1\n      sload\n      swap1\n      0x0100\n      exp\n      swap1\n      div\n      0xffffffffffffffffffffffffffffffffffffffff\n      and\n        /* \"/home/rocha/Proyects/Solidity/F1Bet/ethereum/contracts/F1.sol\":9425:9480  address payable payableWinner = payable(contestants[i]) */\n      swap1\n      pop\n        /* \"/home/rocha/Proyects/Solidity/F1Bet/ethereum/contracts/F1.sol\":9507:9520  payableWinner */\n      dup1\n        /* \"/home/rocha/Proyects/Solidity/F1Bet/ethereum/contracts/F1.sol\":9498:9504  winner */\n      0x02\n      0x00\n        /* \"/home/rocha/Proyects/Solidity/F1Bet/ethereum/contracts/F1.sol\":9498:9520  winner = payableWinner */\n      0x0100\n      exp\n      dup2\n      sload\n      dup2\n      0xffffffffffffffffffffffffffffffffffffffff\n      mul\n      not\n      and\n      swap1\n      dup4\n      0xffffffffffffffffffffffffffffffffffffffff\n      and\n      mul\n      or\n      swap1\n      sstore\n      pop\n        /* \"/home/rocha/Proyects/Solidity/F1Bet/ethereum/contracts/F1.sol\":9366:9535  {... */\n      pop\n        /* \"/home/rocha/Proyects/Solidity/F1Bet/ethereum/contracts/F1.sol\":9339:9535  if(maxPoints < finalPoints){... */\n    tag_886:\n        /* \"/home/rocha/Proyects/Solidity/F1Bet/ethereum/contracts/F1.sol\":9093:9545  {... */\n      pop\n        /* \"/home/rocha/Proyects/Solidity/F1Bet/ethereum/contracts/F1.sol\":9089:9092  i++ */\n      dup1\n      dup1\n      tag_890\n      swap1\n      tag_107\n      jump\t// in\n    tag_890:\n      swap2\n      pop\n      pop\n        /* \"/home/rocha/Proyects/Solidity/F1Bet/ethereum/contracts/F1.sol\":9055:9545  for(uint8 i; i<contestants.length;i++){... */\n      jump(tag_869)\n    tag_870:\n      pop\n        /* \"/home/rocha/Proyects/Solidity/F1Bet/ethereum/contracts/F1.sol\":9019:9552  {... */\n      pop\n        /* \"/home/rocha/Proyects/Solidity/F1Bet/ethereum/contracts/F1.sol\":8979:9552  function calculateFinalPoints() private {... */\n      jump\t// out\n        /* \"/home/rocha/Proyects/Solidity/F1Bet/ethereum/contracts/F1.sol\":2528:2762  function checkStingEquality(string memory s1, string memory s2) private pure returns(bool){... */\n    tag_282:\n        /* \"/home/rocha/Proyects/Solidity/F1Bet/ethereum/contracts/F1.sol\":2613:2617  bool */\n      0x00\n        /* \"/home/rocha/Proyects/Solidity/F1Bet/ethereum/contracts/F1.sol\":2693:2695  s2 */\n      dup2\n        /* \"/home/rocha/Proyects/Solidity/F1Bet/ethereum/contracts/F1.sol\":2676:2696  abi.encodePacked(s2) */\n      add(0x20, mload(0x40))\n      tag_892\n      swap2\n      swap1\n      tag_893\n      jump\t// in\n    tag_892:\n      mload(0x40)\n      0x20\n      dup2\n      dup4\n      sub\n      sub\n      dup2\n      mstore\n      swap1\n      0x40\n      mstore\n        /* \"/home/rocha/Proyects/Solidity/F1Bet/ethereum/contracts/F1.sol\":2666:2697  keccak256(abi.encodePacked(s2)) */\n      dup1\n      mload\n      swap1\n      0x20\n      add\n      keccak256\n        /* \"/home/rocha/Proyects/Solidity/F1Bet/ethereum/contracts/F1.sol\":2658:2660  s1 */\n      dup4\n        /* \"/home/rocha/Proyects/Solidity/F1Bet/ethereum/contracts/F1.sol\":2641:2661  abi.encodePacked(s1) */\n      add(0x20, mload(0x40))\n      tag_894\n      swap2\n      swap1\n      tag_893\n      jump\t// in\n    tag_894:\n      mload(0x40)\n      0x20\n      dup2\n      dup4\n      sub\n      sub\n      dup2\n      mstore\n      swap1\n      0x40\n      mstore\n        /* \"/home/rocha/Proyects/Solidity/F1Bet/ethereum/contracts/F1.sol\":2631:2662  keccak256(abi.encodePacked(s1)) */\n      dup1\n      mload\n      swap1\n      0x20\n      add\n      keccak256\n        /* \"/home/rocha/Proyects/Solidity/F1Bet/ethereum/contracts/F1.sol\":2631:2697  keccak256(abi.encodePacked(s1)) == keccak256(abi.encodePacked(s2)) */\n      eq\n        /* \"/home/rocha/Proyects/Solidity/F1Bet/ethereum/contracts/F1.sol\":2628:2734  if(keccak256(abi.encodePacked(s1)) == keccak256(abi.encodePacked(s2))){... */\n      iszero\n      tag_895\n      jumpi\n        /* \"/home/rocha/Proyects/Solidity/F1Bet/ethereum/contracts/F1.sol\":2719:2723  true */\n      0x01\n        /* \"/home/rocha/Proyects/Solidity/F1Bet/ethereum/contracts/F1.sol\":2712:2723  return true */\n      swap1\n      pop\n      jump(tag_891)\n        /* \"/home/rocha/Proyects/Solidity/F1Bet/ethereum/contracts/F1.sol\":2628:2734  if(keccak256(abi.encodePacked(s1)) == keccak256(abi.encodePacked(s2))){... */\n    tag_895:\n        /* \"/home/rocha/Proyects/Solidity/F1Bet/ethereum/contracts/F1.sol\":2750:2755  false */\n      0x00\n        /* \"/home/rocha/Proyects/Solidity/F1Bet/ethereum/contracts/F1.sol\":2743:2755  return false */\n      swap1\n      pop\n        /* \"/home/rocha/Proyects/Solidity/F1Bet/ethereum/contracts/F1.sol\":2528:2762  function checkStingEquality(string memory s1, string memory s2) private pure returns(bool){... */\n    tag_891:\n      swap3\n      swap2\n      pop\n      pop\n      jump\t// out\n    tag_113:\n      dup3\n      dup1\n      sload\n      dup3\n      dup3\n      sstore\n      swap1\n      0x00\n      mstore\n      keccak256(0x00, 0x20)\n      swap1\n      dup2\n      add\n      swap3\n      dup3\n      iszero\n      tag_896\n      jumpi\n      swap2\n      0x20\n      mul\n      dup3\n      add\n    tag_897:\n      dup3\n      dup2\n      gt\n      iszero\n      tag_898\n      jumpi\n      dup3\n      mload\n      dup3\n      swap1\n      dup1\n      mload\n      swap1\n      0x20\n      add\n      swap1\n      tag_899\n      swap3\n      swap2\n      swap1\n      tag_900\n      jump\t// in\n    tag_899:\n      pop\n      swap2\n      0x20\n      add\n      swap2\n      swap1\n      0x01\n      add\n      swap1\n      jump(tag_897)\n    tag_898:\n    tag_896:\n      pop\n      swap1\n      pop\n      tag_901\n      swap2\n      swap1\n      tag_902\n      jump\t// in\n    tag_901:\n      pop\n      swap1\n      jump\t// out\n    tag_900:\n      dup3\n      dup1\n      sload\n      tag_903\n      swap1\n      tag_262\n      jump\t// in\n    tag_903:\n      swap1\n      0x00\n      mstore\n      keccak256(0x00, 0x20)\n      swap1\n      0x1f\n      add\n      0x20\n      swap1\n      div\n      dup2\n      add\n      swap3\n      dup3\n      tag_905\n      jumpi\n      0x00\n      dup6\n      sstore\n      jump(tag_904)\n    tag_905:\n      dup3\n      0x1f\n      lt\n      tag_906\n      jumpi\n      dup1\n      mload\n      not(0xff)\n      and\n      dup4\n      dup1\n      add\n      or\n      dup6\n      sstore\n      jump(tag_904)\n    tag_906:\n      dup3\n      dup1\n      add\n      0x01\n      add\n      dup6\n      sstore\n      dup3\n      iszero\n      tag_904\n      jumpi\n      swap2\n      dup3\n      add\n    tag_907:\n      dup3\n      dup2\n      gt\n      iszero\n      tag_908\n      jumpi\n      dup3\n      mload\n      dup3\n      sstore\n      swap2\n      0x20\n      add\n      swap2\n      swap1\n      0x01\n      add\n      swap1\n      jump(tag_907)\n    tag_908:\n    tag_904:\n      pop\n      swap1\n      pop\n      tag_909\n      swap2\n      swap1\n      tag_910\n      jump\t// in\n    tag_909:\n      pop\n      swap1\n      jump\t// out\n    tag_902:\n    tag_911:\n      dup1\n      dup3\n      gt\n      iszero\n      tag_912\n      jumpi\n      0x00\n      dup2\n      dup2\n      tag_913\n      swap2\n      swap1\n      tag_914\n      jump\t// in\n    tag_913:\n      pop\n      0x01\n      add\n      jump(tag_911)\n    tag_912:\n      pop\n      swap1\n      jump\t// out\n    tag_910:\n    tag_915:\n      dup1\n      dup3\n      gt\n      iszero\n      tag_916\n      jumpi\n      0x00\n      dup2\n      0x00\n      swap1\n      sstore\n      pop\n      0x01\n      add\n      jump(tag_915)\n    tag_916:\n      pop\n      swap1\n      jump\t// out\n    tag_914:\n      pop\n      dup1\n      sload\n      tag_917\n      swap1\n      tag_262\n      jump\t// in\n    tag_917:\n      0x00\n      dup3\n      sstore\n      dup1\n      0x1f\n      lt\n      tag_919\n      jumpi\n      pop\n      jump(tag_918)\n    tag_919:\n      0x1f\n      add\n      0x20\n      swap1\n      div\n      swap1\n      0x00\n      mstore\n      keccak256(0x00, 0x20)\n      swap1\n      dup2\n      add\n      swap1\n      tag_920\n      swap2\n      swap1\n      tag_910\n      jump\t// in\n    tag_920:\n    tag_918:\n      pop\n      jump\t// out\n        /* \"#utility.yul\":7:82   */\n    tag_921:\n        /* \"#utility.yul\":40:46   */\n      0x00\n        /* \"#utility.yul\":73:75   */\n      0x40\n        /* \"#utility.yul\":67:76   */\n      mload\n        /* \"#utility.yul\":57:76   */\n      swap1\n      pop\n        /* \"#utility.yul\":7:82   */\n      swap1\n      jump\t// out\n        /* \"#utility.yul\":88:205   */\n    tag_922:\n        /* \"#utility.yul\":197:198   */\n      0x00\n        /* \"#utility.yul\":194:195   */\n      dup1\n        /* \"#utility.yul\":187:199   */\n      revert\n        /* \"#utility.yul\":211:328   */\n    tag_923:\n        /* \"#utility.yul\":320:321   */\n      0x00\n        /* \"#utility.yul\":317:318   */\n      dup1\n        /* \"#utility.yul\":310:322   */\n      revert\n        /* \"#utility.yul\":334:451   */\n    tag_924:\n        /* \"#utility.yul\":443:444   */\n      0x00\n        /* \"#utility.yul\":440:441   */\n      dup1\n        /* \"#utility.yul\":433:445   */\n      revert\n        /* \"#utility.yul\":457:559   */\n    tag_925:\n        /* \"#utility.yul\":498:504   */\n      0x00\n        /* \"#utility.yul\":549:551   */\n      0x1f\n        /* \"#utility.yul\":545:552   */\n      not\n        /* \"#utility.yul\":540:542   */\n      0x1f\n        /* \"#utility.yul\":533:538   */\n      dup4\n        /* \"#utility.yul\":529:543   */\n      add\n        /* \"#utility.yul\":525:553   */\n      and\n        /* \"#utility.yul\":515:553   */\n      swap1\n      pop\n        /* \"#utility.yul\":457:559   */\n      swap2\n      swap1\n      pop\n      jump\t// out\n        /* \"#utility.yul\":565:745   */\n    tag_926:\n        /* \"#utility.yul\":613:690   */\n      0x4e487b7100000000000000000000000000000000000000000000000000000000\n        /* \"#utility.yul\":610:611   */\n      0x00\n        /* \"#utility.yul\":603:691   */\n      mstore\n        /* \"#utility.yul\":710:714   */\n      0x41\n        /* \"#utility.yul\":707:708   */\n      0x04\n        /* \"#utility.yul\":700:715   */\n      mstore\n        /* \"#utility.yul\":734:738   */\n      0x24\n        /* \"#utility.yul\":731:732   */\n      0x00\n        /* \"#utility.yul\":724:739   */\n      revert\n        /* \"#utility.yul\":751:1032   */\n    tag_927:\n        /* \"#utility.yul\":834:861   */\n      tag_974\n        /* \"#utility.yul\":856:860   */\n      dup3\n        /* \"#utility.yul\":834:861   */\n      tag_925\n      jump\t// in\n    tag_974:\n        /* \"#utility.yul\":826:832   */\n      dup2\n        /* \"#utility.yul\":822:862   */\n      add\n        /* \"#utility.yul\":964:970   */\n      dup2\n        /* \"#utility.yul\":952:962   */\n      dup2\n        /* \"#utility.yul\":949:971   */\n      lt\n        /* \"#utility.yul\":928:946   */\n      0xffffffffffffffff\n        /* \"#utility.yul\":916:926   */\n      dup3\n        /* \"#utility.yul\":913:947   */\n      gt\n        /* \"#utility.yul\":910:972   */\n      or\n        /* \"#utility.yul\":907:995   */\n      iszero\n      tag_975\n      jumpi\n        /* \"#utility.yul\":975:993   */\n      tag_976\n      tag_926\n      jump\t// in\n    tag_976:\n        /* \"#utility.yul\":907:995   */\n    tag_975:\n        /* \"#utility.yul\":1015:1025   */\n      dup1\n        /* \"#utility.yul\":1011:1013   */\n      0x40\n        /* \"#utility.yul\":1004:1026   */\n      mstore\n        /* \"#utility.yul\":794:1032   */\n      pop\n        /* \"#utility.yul\":751:1032   */\n      pop\n      pop\n      jump\t// out\n        /* \"#utility.yul\":1038:1167   */\n    tag_928:\n        /* \"#utility.yul\":1072:1078   */\n      0x00\n        /* \"#utility.yul\":1099:1119   */\n      tag_978\n      tag_921\n      jump\t// in\n    tag_978:\n        /* \"#utility.yul\":1089:1119   */\n      swap1\n      pop\n        /* \"#utility.yul\":1128:1161   */\n      tag_979\n        /* \"#utility.yul\":1156:1160   */\n      dup3\n        /* \"#utility.yul\":1148:1154   */\n      dup3\n        /* \"#utility.yul\":1128:1161   */\n      tag_927\n      jump\t// in\n    tag_979:\n        /* \"#utility.yul\":1038:1167   */\n      swap2\n      swap1\n      pop\n      jump\t// out\n        /* \"#utility.yul\":1173:1494   */\n    tag_929:\n        /* \"#utility.yul\":1260:1264   */\n      0x00\n        /* \"#utility.yul\":1350:1368   */\n      0xffffffffffffffff\n        /* \"#utility.yul\":1342:1348   */\n      dup3\n        /* \"#utility.yul\":1339:1369   */\n      gt\n        /* \"#utility.yul\":1336:1392   */\n      iszero\n      tag_981\n      jumpi\n        /* \"#utility.yul\":1372:1390   */\n      tag_982\n      tag_926\n      jump\t// in\n    tag_982:\n        /* \"#utility.yul\":1336:1392   */\n    tag_981:\n        /* \"#utility.yul\":1422:1426   */\n      0x20\n        /* \"#utility.yul\":1414:1420   */\n      dup3\n        /* \"#utility.yul\":1410:1427   */\n      mul\n        /* \"#utility.yul\":1402:1427   */\n      swap1\n      pop\n        /* \"#utility.yul\":1482:1486   */\n      0x20\n        /* \"#utility.yul\":1476:1480   */\n      dup2\n        /* \"#utility.yul\":1472:1487   */\n      add\n        /* \"#utility.yul\":1464:1487   */\n      swap1\n      pop\n        /* \"#utility.yul\":1173:1494   */\n      swap2\n      swap1\n      pop\n      jump\t// out\n        /* \"#utility.yul\":1500:1617   */\n    tag_930:\n        /* \"#utility.yul\":1609:1610   */\n      0x00\n        /* \"#utility.yul\":1606:1607   */\n      dup1\n        /* \"#utility.yul\":1599:1611   */\n      revert\n        /* \"#utility.yul\":1623:1740   */\n    tag_931:\n        /* \"#utility.yul\":1732:1733   */\n      0x00\n        /* \"#utility.yul\":1729:1730   */\n      dup1\n        /* \"#utility.yul\":1722:1734   */\n      revert\n        /* \"#utility.yul\":1746:2054   */\n    tag_932:\n        /* \"#utility.yul\":1808:1812   */\n      0x00\n        /* \"#utility.yul\":1898:1916   */\n      0xffffffffffffffff\n        /* \"#utility.yul\":1890:1896   */\n      dup3\n        /* \"#utility.yul\":1887:1917   */\n      gt\n        /* \"#utility.yul\":1884:1940   */\n      iszero\n      tag_986\n      jumpi\n        /* \"#utility.yul\":1920:1938   */\n      tag_987\n      tag_926\n      jump\t// in\n    tag_987:\n        /* \"#utility.yul\":1884:1940   */\n    tag_986:\n        /* \"#utility.yul\":1958:1987   */\n      tag_988\n        /* \"#utility.yul\":1980:1986   */\n      dup3\n        /* \"#utility.yul\":1958:1987   */\n      tag_925\n      jump\t// in\n    tag_988:\n        /* \"#utility.yul\":1950:1987   */\n      swap1\n      pop\n        /* \"#utility.yul\":2042:2046   */\n      0x20\n        /* \"#utility.yul\":2036:2040   */\n      dup2\n        /* \"#utility.yul\":2032:2047   */\n      add\n        /* \"#utility.yul\":2024:2047   */\n      swap1\n      pop\n        /* \"#utility.yul\":1746:2054   */\n      swap2\n      swap1\n      pop\n      jump\t// out\n        /* \"#utility.yul\":2060:2214   */\n    tag_933:\n        /* \"#utility.yul\":2144:2150   */\n      dup3\n        /* \"#utility.yul\":2139:2142   */\n      dup2\n        /* \"#utility.yul\":2134:2137   */\n      dup4\n        /* \"#utility.yul\":2121:2151   */\n      calldatacopy\n        /* \"#utility.yul\":2206:2207   */\n      0x00\n        /* \"#utility.yul\":2197:2203   */\n      dup4\n        /* \"#utility.yul\":2192:2195   */\n      dup4\n        /* \"#utility.yul\":2188:2204   */\n      add\n        /* \"#utility.yul\":2181:2208   */\n      mstore\n        /* \"#utility.yul\":2060:2214   */\n      pop\n      pop\n      pop\n      jump\t// out\n        /* \"#utility.yul\":2220:2632   */\n    tag_934:\n        /* \"#utility.yul\":2298:2303   */\n      0x00\n        /* \"#utility.yul\":2323:2389   */\n      tag_991\n        /* \"#utility.yul\":2339:2388   */\n      tag_992\n        /* \"#utility.yul\":2381:2387   */\n      dup5\n        /* \"#utility.yul\":2339:2388   */\n      tag_932\n      jump\t// in\n    tag_992:\n        /* \"#utility.yul\":2323:2389   */\n      tag_928\n      jump\t// in\n    tag_991:\n        /* \"#utility.yul\":2314:2389   */\n      swap1\n      pop\n        /* \"#utility.yul\":2412:2418   */\n      dup3\n        /* \"#utility.yul\":2405:2410   */\n      dup2\n        /* \"#utility.yul\":2398:2419   */\n      mstore\n        /* \"#utility.yul\":2450:2454   */\n      0x20\n        /* \"#utility.yul\":2443:2448   */\n      dup2\n        /* \"#utility.yul\":2439:2455   */\n      add\n        /* \"#utility.yul\":2488:2491   */\n      dup5\n        /* \"#utility.yul\":2479:2485   */\n      dup5\n        /* \"#utility.yul\":2474:2477   */\n      dup5\n        /* \"#utility.yul\":2470:2486   */\n      add\n        /* \"#utility.yul\":2467:2492   */\n      gt\n        /* \"#utility.yul\":2464:2576   */\n      iszero\n      tag_993\n      jumpi\n        /* \"#utility.yul\":2495:2574   */\n      tag_994\n      tag_931\n      jump\t// in\n    tag_994:\n        /* \"#utility.yul\":2464:2576   */\n    tag_993:\n        /* \"#utility.yul\":2585:2626   */\n      tag_995\n        /* \"#utility.yul\":2619:2625   */\n      dup5\n        /* \"#utility.yul\":2614:2617   */\n      dup3\n        /* \"#utility.yul\":2609:2612   */\n      dup6\n        /* \"#utility.yul\":2585:2626   */\n      tag_933\n      jump\t// in\n    tag_995:\n        /* \"#utility.yul\":2304:2632   */\n      pop\n        /* \"#utility.yul\":2220:2632   */\n      swap4\n      swap3\n      pop\n      pop\n      pop\n      jump\t// out\n        /* \"#utility.yul\":2652:2992   */\n    tag_935:\n        /* \"#utility.yul\":2708:2713   */\n      0x00\n        /* \"#utility.yul\":2757:2760   */\n      dup3\n        /* \"#utility.yul\":2750:2754   */\n      0x1f\n        /* \"#utility.yul\":2742:2748   */\n      dup4\n        /* \"#utility.yul\":2738:2755   */\n      add\n        /* \"#utility.yul\":2734:2761   */\n      slt\n        /* \"#utility.yul\":2724:2846   */\n      tag_997\n      jumpi\n        /* \"#utility.yul\":2765:2844   */\n      tag_998\n      tag_924\n      jump\t// in\n    tag_998:\n        /* \"#utility.yul\":2724:2846   */\n    tag_997:\n        /* \"#utility.yul\":2882:2888   */\n      dup2\n        /* \"#utility.yul\":2869:2889   */\n      calldataload\n        /* \"#utility.yul\":2907:2986   */\n      tag_999\n        /* \"#utility.yul\":2982:2985   */\n      dup5\n        /* \"#utility.yul\":2974:2980   */\n      dup3\n        /* \"#utility.yul\":2967:2971   */\n      0x20\n        /* \"#utility.yul\":2959:2965   */\n      dup7\n        /* \"#utility.yul\":2955:2972   */\n      add\n        /* \"#utility.yul\":2907:2986   */\n      tag_934\n      jump\t// in\n    tag_999:\n        /* \"#utility.yul\":2898:2986   */\n      swap2\n      pop\n        /* \"#utility.yul\":2714:2992   */\n      pop\n        /* \"#utility.yul\":2652:2992   */\n      swap3\n      swap2\n      pop\n      pop\n      jump\t// out\n        /* \"#utility.yul\":3014:3959   */\n    tag_936:\n        /* \"#utility.yul\":3120:3125   */\n      0x00\n        /* \"#utility.yul\":3145:3236   */\n      tag_1001\n        /* \"#utility.yul\":3161:3235   */\n      tag_1002\n        /* \"#utility.yul\":3228:3234   */\n      dup5\n        /* \"#utility.yul\":3161:3235   */\n      tag_929\n      jump\t// in\n    tag_1002:\n        /* \"#utility.yul\":3145:3236   */\n      tag_928\n      jump\t// in\n    tag_1001:\n        /* \"#utility.yul\":3136:3236   */\n      swap1\n      pop\n        /* \"#utility.yul\":3256:3261   */\n      dup1\n        /* \"#utility.yul\":3285:3291   */\n      dup4\n        /* \"#utility.yul\":3278:3283   */\n      dup3\n        /* \"#utility.yul\":3271:3292   */\n      mstore\n        /* \"#utility.yul\":3319:3323   */\n      0x20\n        /* \"#utility.yul\":3312:3317   */\n      dup3\n        /* \"#utility.yul\":3308:3324   */\n      add\n        /* \"#utility.yul\":3301:3324   */\n      swap1\n      pop\n        /* \"#utility.yul\":3372:3376   */\n      0x20\n        /* \"#utility.yul\":3364:3370   */\n      dup5\n        /* \"#utility.yul\":3360:3377   */\n      mul\n        /* \"#utility.yul\":3352:3358   */\n      dup4\n        /* \"#utility.yul\":3348:3378   */\n      add\n        /* \"#utility.yul\":3401:3404   */\n      dup6\n        /* \"#utility.yul\":3393:3399   */\n      dup2\n        /* \"#utility.yul\":3390:3405   */\n      gt\n        /* \"#utility.yul\":3387:3509   */\n      iszero\n      tag_1003\n      jumpi\n        /* \"#utility.yul\":3420:3499   */\n      tag_1004\n      tag_930\n      jump\t// in\n    tag_1004:\n        /* \"#utility.yul\":3387:3509   */\n    tag_1003:\n        /* \"#utility.yul\":3535:3541   */\n      dup4\n        /* \"#utility.yul\":3518:3953   */\n    tag_1005:\n        /* \"#utility.yul\":3552:3558   */\n      dup2\n        /* \"#utility.yul\":3547:3550   */\n      dup2\n        /* \"#utility.yul\":3544:3559   */\n      lt\n        /* \"#utility.yul\":3518:3953   */\n      iszero\n      tag_1007\n      jumpi\n        /* \"#utility.yul\":3641:3644   */\n      dup1\n        /* \"#utility.yul\":3628:3645   */\n      calldataload\n        /* \"#utility.yul\":3677:3695   */\n      0xffffffffffffffff\n        /* \"#utility.yul\":3664:3675   */\n      dup2\n        /* \"#utility.yul\":3661:3696   */\n      gt\n        /* \"#utility.yul\":3658:3780   */\n      iszero\n      tag_1008\n      jumpi\n        /* \"#utility.yul\":3699:3778   */\n      tag_1009\n      tag_924\n      jump\t// in\n    tag_1009:\n        /* \"#utility.yul\":3658:3780   */\n    tag_1008:\n        /* \"#utility.yul\":3823:3834   */\n      dup1\n        /* \"#utility.yul\":3815:3821   */\n      dup7\n        /* \"#utility.yul\":3811:3835   */\n      add\n        /* \"#utility.yul\":3861:3908   */\n      tag_1010\n        /* \"#utility.yul\":3904:3907   */\n      dup10\n        /* \"#utility.yul\":3892:3902   */\n      dup3\n        /* \"#utility.yul\":3861:3908   */\n      tag_935\n      jump\t// in\n    tag_1010:\n        /* \"#utility.yul\":3856:3859   */\n      dup6\n        /* \"#utility.yul\":3849:3909   */\n      mstore\n        /* \"#utility.yul\":3938:3942   */\n      0x20\n        /* \"#utility.yul\":3933:3936   */\n      dup6\n        /* \"#utility.yul\":3929:3943   */\n      add\n        /* \"#utility.yul\":3922:3943   */\n      swap5\n      pop\n        /* \"#utility.yul\":3594:3953   */\n      pop\n      pop\n        /* \"#utility.yul\":3578:3582   */\n      0x20\n        /* \"#utility.yul\":3573:3576   */\n      dup2\n        /* \"#utility.yul\":3569:3583   */\n      add\n        /* \"#utility.yul\":3562:3583   */\n      swap1\n      pop\n        /* \"#utility.yul\":3518:3953   */\n      jump(tag_1005)\n    tag_1007:\n        /* \"#utility.yul\":3522:3543   */\n      pop\n        /* \"#utility.yul\":3126:3959   */\n      pop\n      pop\n        /* \"#utility.yul\":3014:3959   */\n      swap4\n      swap3\n      pop\n      pop\n      pop\n      jump\t// out\n        /* \"#utility.yul\":3981:4371   */\n    tag_937:\n        /* \"#utility.yul\":4062:4067   */\n      0x00\n        /* \"#utility.yul\":4111:4114   */\n      dup3\n        /* \"#utility.yul\":4104:4108   */\n      0x1f\n        /* \"#utility.yul\":4096:4102   */\n      dup4\n        /* \"#utility.yul\":4092:4109   */\n      add\n        /* \"#utility.yul\":4088:4115   */\n      slt\n        /* \"#utility.yul\":4078:4200   */\n      tag_1012\n      jumpi\n        /* \"#utility.yul\":4119:4198   */\n      tag_1013\n      tag_924\n      jump\t// in\n    tag_1013:\n        /* \"#utility.yul\":4078:4200   */\n    tag_1012:\n        /* \"#utility.yul\":4236:4242   */\n      dup2\n        /* \"#utility.yul\":4223:4243   */\n      calldataload\n        /* \"#utility.yul\":4261:4365   */\n      tag_1014\n        /* \"#utility.yul\":4361:4364   */\n      dup5\n        /* \"#utility.yul\":4353:4359   */\n      dup3\n        /* \"#utility.yul\":4346:4350   */\n      0x20\n        /* \"#utility.yul\":4338:4344   */\n      dup7\n        /* \"#utility.yul\":4334:4351   */\n      add\n        /* \"#utility.yul\":4261:4365   */\n      tag_936\n      jump\t// in\n    tag_1014:\n        /* \"#utility.yul\":4252:4365   */\n      swap2\n      pop\n        /* \"#utility.yul\":4068:4371   */\n      pop\n        /* \"#utility.yul\":3981:4371   */\n      swap3\n      swap2\n      pop\n      pop\n      jump\t// out\n        /* \"#utility.yul\":4377:4936   */\n    tag_26:\n        /* \"#utility.yul\":4471:4477   */\n      0x00\n        /* \"#utility.yul\":4520:4522   */\n      0x20\n        /* \"#utility.yul\":4508:4517   */\n      dup3\n        /* \"#utility.yul\":4499:4506   */\n      dup5\n        /* \"#utility.yul\":4495:4518   */\n      sub\n        /* \"#utility.yul\":4491:4523   */\n      slt\n        /* \"#utility.yul\":4488:4607   */\n      iszero\n      tag_1016\n      jumpi\n        /* \"#utility.yul\":4526:4605   */\n      tag_1017\n      tag_922\n      jump\t// in\n    tag_1017:\n        /* \"#utility.yul\":4488:4607   */\n    tag_1016:\n        /* \"#utility.yul\":4674:4675   */\n      0x00\n        /* \"#utility.yul\":4663:4672   */\n      dup3\n        /* \"#utility.yul\":4659:4676   */\n      add\n        /* \"#utility.yul\":4646:4677   */\n      calldataload\n        /* \"#utility.yul\":4704:4722   */\n      0xffffffffffffffff\n        /* \"#utility.yul\":4696:4702   */\n      dup2\n        /* \"#utility.yul\":4693:4723   */\n      gt\n        /* \"#utility.yul\":4690:4807   */\n      iszero\n      tag_1018\n      jumpi\n        /* \"#utility.yul\":4726:4805   */\n      tag_1019\n      tag_923\n      jump\t// in\n    tag_1019:\n        /* \"#utility.yul\":4690:4807   */\n    tag_1018:\n        /* \"#utility.yul\":4831:4919   */\n      tag_1020\n        /* \"#utility.yul\":4911:4918   */\n      dup5\n        /* \"#utility.yul\":4902:4908   */\n      dup3\n        /* \"#utility.yul\":4891:4900   */\n      dup6\n        /* \"#utility.yul\":4887:4909   */\n      add\n        /* \"#utility.yul\":4831:4919   */\n      tag_937\n      jump\t// in\n    tag_1020:\n        /* \"#utility.yul\":4821:4919   */\n      swap2\n      pop\n        /* \"#utility.yul\":4617:4929   */\n      pop\n        /* \"#utility.yul\":4377:4936   */\n      swap3\n      swap2\n      pop\n      pop\n      jump\t// out\n        /* \"#utility.yul\":4942:5019   */\n    tag_938:\n        /* \"#utility.yul\":4979:4986   */\n      0x00\n        /* \"#utility.yul\":5008:5013   */\n      dup2\n        /* \"#utility.yul\":4997:5013   */\n      swap1\n      pop\n        /* \"#utility.yul\":4942:5019   */\n      swap2\n      swap1\n      pop\n      jump\t// out\n        /* \"#utility.yul\":5025:5143   */\n    tag_939:\n        /* \"#utility.yul\":5112:5136   */\n      tag_1023\n        /* \"#utility.yul\":5130:5135   */\n      dup2\n        /* \"#utility.yul\":5112:5136   */\n      tag_938\n      jump\t// in\n    tag_1023:\n        /* \"#utility.yul\":5107:5110   */\n      dup3\n        /* \"#utility.yul\":5100:5137   */\n      mstore\n        /* \"#utility.yul\":5025:5143   */\n      pop\n      pop\n      jump\t// out\n        /* \"#utility.yul\":5149:5371   */\n    tag_32:\n        /* \"#utility.yul\":5242:5246   */\n      0x00\n        /* \"#utility.yul\":5280:5282   */\n      0x20\n        /* \"#utility.yul\":5269:5278   */\n      dup3\n        /* \"#utility.yul\":5265:5283   */\n      add\n        /* \"#utility.yul\":5257:5283   */\n      swap1\n      pop\n        /* \"#utility.yul\":5293:5364   */\n      tag_1025\n        /* \"#utility.yul\":5361:5362   */\n      0x00\n        /* \"#utility.yul\":5350:5359   */\n      dup4\n        /* \"#utility.yul\":5346:5363   */\n      add\n        /* \"#utility.yul\":5337:5343   */\n      dup5\n        /* \"#utility.yul\":5293:5364   */\n      tag_939\n      jump\t// in\n    tag_1025:\n        /* \"#utility.yul\":5149:5371   */\n      swap3\n      swap2\n      pop\n      pop\n      jump\t// out\n        /* \"#utility.yul\":5377:5503   */\n    tag_940:\n        /* \"#utility.yul\":5414:5421   */\n      0x00\n        /* \"#utility.yul\":5454:5496   */\n      0xffffffffffffffffffffffffffffffffffffffff\n        /* \"#utility.yul\":5447:5452   */\n      dup3\n        /* \"#utility.yul\":5443:5497   */\n      and\n        /* \"#utility.yul\":5432:5497   */\n      swap1\n      pop\n        /* \"#utility.yul\":5377:5503   */\n      swap2\n      swap1\n      pop\n      jump\t// out\n        /* \"#utility.yul\":5509:5605   */\n    tag_941:\n        /* \"#utility.yul\":5546:5553   */\n      0x00\n        /* \"#utility.yul\":5575:5599   */\n      tag_1028\n        /* \"#utility.yul\":5593:5598   */\n      dup3\n        /* \"#utility.yul\":5575:5599   */\n      tag_940\n      jump\t// in\n    tag_1028:\n        /* \"#utility.yul\":5564:5599   */\n      swap1\n      pop\n        /* \"#utility.yul\":5509:5605   */\n      swap2\n      swap1\n      pop\n      jump\t// out\n        /* \"#utility.yul\":5611:5729   */\n    tag_942:\n        /* \"#utility.yul\":5698:5722   */\n      tag_1030\n        /* \"#utility.yul\":5716:5721   */\n      dup2\n        /* \"#utility.yul\":5698:5722   */\n      tag_941\n      jump\t// in\n    tag_1030:\n        /* \"#utility.yul\":5693:5696   */\n      dup3\n        /* \"#utility.yul\":5686:5723   */\n      mstore\n        /* \"#utility.yul\":5611:5729   */\n      pop\n      pop\n      jump\t// out\n        /* \"#utility.yul\":5735:5957   */\n    tag_44:\n        /* \"#utility.yul\":5828:5832   */\n      0x00\n        /* \"#utility.yul\":5866:5868   */\n      0x20\n        /* \"#utility.yul\":5855:5864   */\n      dup3\n        /* \"#utility.yul\":5851:5869   */\n      add\n        /* \"#utility.yul\":5843:5869   */\n      swap1\n      pop\n        /* \"#utility.yul\":5879:5950   */\n      tag_1032\n        /* \"#utility.yul\":5947:5948   */\n      0x00\n        /* \"#utility.yul\":5936:5945   */\n      dup4\n        /* \"#utility.yul\":5932:5949   */\n      add\n        /* \"#utility.yul\":5923:5929   */\n      dup5\n        /* \"#utility.yul\":5879:5950   */\n      tag_942\n      jump\t// in\n    tag_1032:\n        /* \"#utility.yul\":5735:5957   */\n      swap3\n      swap2\n      pop\n      pop\n      jump\t// out\n        /* \"#utility.yul\":5963:6049   */\n    tag_943:\n        /* \"#utility.yul\":5998:6005   */\n      0x00\n        /* \"#utility.yul\":6038:6042   */\n      0xff\n        /* \"#utility.yul\":6031:6036   */\n      dup3\n        /* \"#utility.yul\":6027:6043   */\n      and\n        /* \"#utility.yul\":6016:6043   */\n      swap1\n      pop\n        /* \"#utility.yul\":5963:6049   */\n      swap2\n      swap1\n      pop\n      jump\t// out\n        /* \"#utility.yul\":6055:6173   */\n    tag_944:\n        /* \"#utility.yul\":6126:6148   */\n      tag_1035\n        /* \"#utility.yul\":6142:6147   */\n      dup2\n        /* \"#utility.yul\":6126:6148   */\n      tag_943\n      jump\t// in\n    tag_1035:\n        /* \"#utility.yul\":6119:6124   */\n      dup2\n        /* \"#utility.yul\":6116:6149   */\n      eq\n        /* \"#utility.yul\":6106:6167   */\n      tag_1036\n      jumpi\n        /* \"#utility.yul\":6163:6164   */\n      0x00\n        /* \"#utility.yul\":6160:6161   */\n      dup1\n        /* \"#utility.yul\":6153:6165   */\n      revert\n        /* \"#utility.yul\":6106:6167   */\n    tag_1036:\n        /* \"#utility.yul\":6055:6173   */\n      pop\n      jump\t// out\n        /* \"#utility.yul\":6179:6314   */\n    tag_945:\n        /* \"#utility.yul\":6223:6228   */\n      0x00\n        /* \"#utility.yul\":6261:6267   */\n      dup2\n        /* \"#utility.yul\":6248:6268   */\n      calldataload\n        /* \"#utility.yul\":6239:6268   */\n      swap1\n      pop\n        /* \"#utility.yul\":6277:6308   */\n      tag_1038\n        /* \"#utility.yul\":6302:6307   */\n      dup2\n        /* \"#utility.yul\":6277:6308   */\n      tag_944\n      jump\t// in\n    tag_1038:\n        /* \"#utility.yul\":6179:6314   */\n      swap3\n      swap2\n      pop\n      pop\n      jump\t// out\n        /* \"#utility.yul\":6320:6645   */\n    tag_48:\n        /* \"#utility.yul\":6377:6383   */\n      0x00\n        /* \"#utility.yul\":6426:6428   */\n      0x20\n        /* \"#utility.yul\":6414:6423   */\n      dup3\n        /* \"#utility.yul\":6405:6412   */\n      dup5\n        /* \"#utility.yul\":6401:6424   */\n      sub\n        /* \"#utility.yul\":6397:6429   */\n      slt\n        /* \"#utility.yul\":6394:6513   */\n      iszero\n      tag_1040\n      jumpi\n        /* \"#utility.yul\":6432:6511   */\n      tag_1041\n      tag_922\n      jump\t// in\n    tag_1041:\n        /* \"#utility.yul\":6394:6513   */\n    tag_1040:\n        /* \"#utility.yul\":6552:6553   */\n      0x00\n        /* \"#utility.yul\":6577:6628   */\n      tag_1042\n        /* \"#utility.yul\":6620:6627   */\n      dup5\n        /* \"#utility.yul\":6611:6617   */\n      dup3\n        /* \"#utility.yul\":6600:6609   */\n      dup6\n        /* \"#utility.yul\":6596:6618   */\n      add\n        /* \"#utility.yul\":6577:6628   */\n      tag_945\n      jump\t// in\n    tag_1042:\n        /* \"#utility.yul\":6567:6628   */\n      swap2\n      pop\n        /* \"#utility.yul\":6523:6638   */\n      pop\n        /* \"#utility.yul\":6320:6645   */\n      swap3\n      swap2\n      pop\n      pop\n      jump\t// out\n        /* \"#utility.yul\":6651:6765   */\n    tag_946:\n        /* \"#utility.yul\":6718:6724   */\n      0x00\n        /* \"#utility.yul\":6752:6757   */\n      dup2\n        /* \"#utility.yul\":6746:6758   */\n      mload\n        /* \"#utility.yul\":6736:6758   */\n      swap1\n      pop\n        /* \"#utility.yul\":6651:6765   */\n      swap2\n      swap1\n      pop\n      jump\t// out\n        /* \"#utility.yul\":6771:6955   */\n    tag_947:\n        /* \"#utility.yul\":6870:6881   */\n      0x00\n        /* \"#utility.yul\":6904:6910   */\n      dup3\n        /* \"#utility.yul\":6899:6902   */\n      dup3\n        /* \"#utility.yul\":6892:6911   */\n      mstore\n        /* \"#utility.yul\":6944:6948   */\n      0x20\n        /* \"#utility.yul\":6939:6942   */\n      dup3\n        /* \"#utility.yul\":6935:6949   */\n      add\n        /* \"#utility.yul\":6920:6949   */\n      swap1\n      pop\n        /* \"#utility.yul\":6771:6955   */\n      swap3\n      swap2\n      pop\n      pop\n      jump\t// out\n        /* \"#utility.yul\":6961:7093   */\n    tag_948:\n        /* \"#utility.yul\":7028:7032   */\n      0x00\n        /* \"#utility.yul\":7051:7054   */\n      dup2\n        /* \"#utility.yul\":7043:7054   */\n      swap1\n      pop\n        /* \"#utility.yul\":7081:7085   */\n      0x20\n        /* \"#utility.yul\":7076:7079   */\n      dup3\n        /* \"#utility.yul\":7072:7086   */\n      add\n        /* \"#utility.yul\":7064:7086   */\n      swap1\n      pop\n        /* \"#utility.yul\":6961:7093   */\n      swap2\n      swap1\n      pop\n      jump\t// out\n        /* \"#utility.yul\":7099:7207   */\n    tag_949:\n        /* \"#utility.yul\":7176:7200   */\n      tag_1047\n        /* \"#utility.yul\":7194:7199   */\n      dup2\n        /* \"#utility.yul\":7176:7200   */\n      tag_941\n      jump\t// in\n    tag_1047:\n        /* \"#utility.yul\":7171:7174   */\n      dup3\n        /* \"#utility.yul\":7164:7201   */\n      mstore\n        /* \"#utility.yul\":7099:7207   */\n      pop\n      pop\n      jump\t// out\n        /* \"#utility.yul\":7213:7392   */\n    tag_950:\n        /* \"#utility.yul\":7282:7292   */\n      0x00\n        /* \"#utility.yul\":7303:7349   */\n      tag_1049\n        /* \"#utility.yul\":7345:7348   */\n      dup4\n        /* \"#utility.yul\":7337:7343   */\n      dup4\n        /* \"#utility.yul\":7303:7349   */\n      tag_949\n      jump\t// in\n    tag_1049:\n        /* \"#utility.yul\":7381:7385   */\n      0x20\n        /* \"#utility.yul\":7376:7379   */\n      dup4\n        /* \"#utility.yul\":7372:7386   */\n      add\n        /* \"#utility.yul\":7358:7386   */\n      swap1\n      pop\n        /* \"#utility.yul\":7213:7392   */\n      swap3\n      swap2\n      pop\n      pop\n      jump\t// out\n        /* \"#utility.yul\":7398:7511   */\n    tag_951:\n        /* \"#utility.yul\":7468:7472   */\n      0x00\n        /* \"#utility.yul\":7500:7504   */\n      0x20\n        /* \"#utility.yul\":7495:7498   */\n      dup3\n        /* \"#utility.yul\":7491:7505   */\n      add\n        /* \"#utility.yul\":7483:7505   */\n      swap1\n      pop\n        /* \"#utility.yul\":7398:7511   */\n      swap2\n      swap1\n      pop\n      jump\t// out\n        /* \"#utility.yul\":7547:8279   */\n    tag_952:\n        /* \"#utility.yul\":7666:7669   */\n      0x00\n        /* \"#utility.yul\":7695:7749   */\n      tag_1052\n        /* \"#utility.yul\":7743:7748   */\n      dup3\n        /* \"#utility.yul\":7695:7749   */\n      tag_946\n      jump\t// in\n    tag_1052:\n        /* \"#utility.yul\":7765:7851   */\n      tag_1053\n        /* \"#utility.yul\":7844:7850   */\n      dup2\n        /* \"#utility.yul\":7839:7842   */\n      dup6\n        /* \"#utility.yul\":7765:7851   */\n      tag_947\n      jump\t// in\n    tag_1053:\n        /* \"#utility.yul\":7758:7851   */\n      swap4\n      pop\n        /* \"#utility.yul\":7875:7931   */\n      tag_1054\n        /* \"#utility.yul\":7925:7930   */\n      dup4\n        /* \"#utility.yul\":7875:7931   */\n      tag_948\n      jump\t// in\n    tag_1054:\n        /* \"#utility.yul\":7954:7961   */\n      dup1\n        /* \"#utility.yul\":7985:7986   */\n      0x00\n        /* \"#utility.yul\":7970:8254   */\n    tag_1055:\n        /* \"#utility.yul\":7995:8001   */\n      dup4\n        /* \"#utility.yul\":7992:7993   */\n      dup2\n        /* \"#utility.yul\":7989:8002   */\n      lt\n        /* \"#utility.yul\":7970:8254   */\n      iszero\n      tag_1057\n      jumpi\n        /* \"#utility.yul\":8071:8077   */\n      dup2\n        /* \"#utility.yul\":8065:8078   */\n      mload\n        /* \"#utility.yul\":8098:8161   */\n      tag_1058\n        /* \"#utility.yul\":8157:8160   */\n      dup9\n        /* \"#utility.yul\":8142:8155   */\n      dup3\n        /* \"#utility.yul\":8098:8161   */\n      tag_950\n      jump\t// in\n    tag_1058:\n        /* \"#utility.yul\":8091:8161   */\n      swap8\n      pop\n        /* \"#utility.yul\":8184:8244   */\n      tag_1059\n        /* \"#utility.yul\":8237:8243   */\n      dup4\n        /* \"#utility.yul\":8184:8244   */\n      tag_951\n      jump\t// in\n    tag_1059:\n        /* \"#utility.yul\":8174:8244   */\n      swap3\n      pop\n        /* \"#utility.yul\":8030:8254   */\n      pop\n        /* \"#utility.yul\":8017:8018   */\n      0x01\n        /* \"#utility.yul\":8014:8015   */\n      dup2\n        /* \"#utility.yul\":8010:8019   */\n      add\n        /* \"#utility.yul\":8005:8019   */\n      swap1\n      pop\n        /* \"#utility.yul\":7970:8254   */\n      jump(tag_1055)\n    tag_1057:\n        /* \"#utility.yul\":7974:7988   */\n      pop\n        /* \"#utility.yul\":8270:8273   */\n      dup6\n        /* \"#utility.yul\":8263:8273   */\n      swap4\n      pop\n        /* \"#utility.yul\":7671:8279   */\n      pop\n      pop\n      pop\n        /* \"#utility.yul\":7547:8279   */\n      swap3\n      swap2\n      pop\n      pop\n      jump\t// out\n        /* \"#utility.yul\":8285:8658   */\n    tag_78:\n        /* \"#utility.yul\":8428:8432   */\n      0x00\n        /* \"#utility.yul\":8466:8468   */\n      0x20\n        /* \"#utility.yul\":8455:8464   */\n      dup3\n        /* \"#utility.yul\":8451:8469   */\n      add\n        /* \"#utility.yul\":8443:8469   */\n      swap1\n      pop\n        /* \"#utility.yul\":8515:8524   */\n      dup2\n        /* \"#utility.yul\":8509:8513   */\n      dup2\n        /* \"#utility.yul\":8505:8525   */\n      sub\n        /* \"#utility.yul\":8501:8502   */\n      0x00\n        /* \"#utility.yul\":8490:8499   */\n      dup4\n        /* \"#utility.yul\":8486:8503   */\n      add\n        /* \"#utility.yul\":8479:8526   */\n      mstore\n        /* \"#utility.yul\":8543:8651   */\n      tag_1061\n        /* \"#utility.yul\":8646:8650   */\n      dup2\n        /* \"#utility.yul\":8637:8643   */\n      dup5\n        /* \"#utility.yul\":8543:8651   */\n      tag_952\n      jump\t// in\n    tag_1061:\n        /* \"#utility.yul\":8535:8651   */\n      swap1\n      pop\n        /* \"#utility.yul\":8285:8658   */\n      swap3\n      swap2\n      pop\n      pop\n      jump\t// out\n        /* \"#utility.yul\":8664:8768   */\n    tag_953:\n        /* \"#utility.yul\":8709:8716   */\n      0x00\n        /* \"#utility.yul\":8738:8762   */\n      tag_1063\n        /* \"#utility.yul\":8756:8761   */\n      dup3\n        /* \"#utility.yul\":8738:8762   */\n      tag_940\n      jump\t// in\n    tag_1063:\n        /* \"#utility.yul\":8727:8762   */\n      swap1\n      pop\n        /* \"#utility.yul\":8664:8768   */\n      swap2\n      swap1\n      pop\n      jump\t// out\n        /* \"#utility.yul\":8774:8916   */\n    tag_954:\n        /* \"#utility.yul\":8877:8909   */\n      tag_1065\n        /* \"#utility.yul\":8903:8908   */\n      dup2\n        /* \"#utility.yul\":8877:8909   */\n      tag_953\n      jump\t// in\n    tag_1065:\n        /* \"#utility.yul\":8872:8875   */\n      dup3\n        /* \"#utility.yul\":8865:8910   */\n      mstore\n        /* \"#utility.yul\":8774:8916   */\n      pop\n      pop\n      jump\t// out\n        /* \"#utility.yul\":8922:9176   */\n    tag_87:\n        /* \"#utility.yul\":9031:9035   */\n      0x00\n        /* \"#utility.yul\":9069:9071   */\n      0x20\n        /* \"#utility.yul\":9058:9067   */\n      dup3\n        /* \"#utility.yul\":9054:9072   */\n      add\n        /* \"#utility.yul\":9046:9072   */\n      swap1\n      pop\n        /* \"#utility.yul\":9082:9169   */\n      tag_1067\n        /* \"#utility.yul\":9166:9167   */\n      0x00\n        /* \"#utility.yul\":9155:9164   */\n      dup4\n        /* \"#utility.yul\":9151:9168   */\n      add\n        /* \"#utility.yul\":9142:9148   */\n      dup5\n        /* \"#utility.yul\":9082:9169   */\n      tag_954\n      jump\t// in\n    tag_1067:\n        /* \"#utility.yul\":8922:9176   */\n      swap3\n      swap2\n      pop\n      pop\n      jump\t// out\n        /* \"#utility.yul\":9182:9294   */\n    tag_955:\n        /* \"#utility.yul\":9265:9287   */\n      tag_1069\n        /* \"#utility.yul\":9281:9286   */\n      dup2\n        /* \"#utility.yul\":9265:9287   */\n      tag_943\n      jump\t// in\n    tag_1069:\n        /* \"#utility.yul\":9260:9263   */\n      dup3\n        /* \"#utility.yul\":9253:9288   */\n      mstore\n        /* \"#utility.yul\":9182:9294   */\n      pop\n      pop\n      jump\t// out\n        /* \"#utility.yul\":9300:9514   */\n    tag_96:\n        /* \"#utility.yul\":9389:9393   */\n      0x00\n        /* \"#utility.yul\":9427:9429   */\n      0x20\n        /* \"#utility.yul\":9416:9425   */\n      dup3\n        /* \"#utility.yul\":9412:9430   */\n      add\n        /* \"#utility.yul\":9404:9430   */\n      swap1\n      pop\n        /* \"#utility.yul\":9440:9507   */\n      tag_1071\n        /* \"#utility.yul\":9504:9505   */\n      0x00\n        /* \"#utility.yul\":9493:9502   */\n      dup4\n        /* \"#utility.yul\":9489:9506   */\n      add\n        /* \"#utility.yul\":9480:9486   */\n      dup5\n        /* \"#utility.yul\":9440:9507   */\n      tag_955\n      jump\t// in\n    tag_1071:\n        /* \"#utility.yul\":9300:9514   */\n      swap3\n      swap2\n      pop\n      pop\n      jump\t// out\n        /* \"#utility.yul\":9520:9700   */\n    tag_103:\n        /* \"#utility.yul\":9568:9645   */\n      0x4e487b7100000000000000000000000000000000000000000000000000000000\n        /* \"#utility.yul\":9565:9566   */\n      0x00\n        /* \"#utility.yul\":9558:9646   */\n      mstore\n        /* \"#utility.yul\":9665:9669   */\n      0x32\n        /* \"#utility.yul\":9662:9663   */\n      0x04\n        /* \"#utility.yul\":9655:9670   */\n      mstore\n        /* \"#utility.yul\":9689:9693   */\n      0x24\n        /* \"#utility.yul\":9686:9687   */\n      0x00\n        /* \"#utility.yul\":9679:9694   */\n      revert\n        /* \"#utility.yul\":9706:9886   */\n    tag_956:\n        /* \"#utility.yul\":9754:9831   */\n      0x4e487b7100000000000000000000000000000000000000000000000000000000\n        /* \"#utility.yul\":9751:9752   */\n      0x00\n        /* \"#utility.yul\":9744:9832   */\n      mstore\n        /* \"#utility.yul\":9851:9855   */\n      0x11\n        /* \"#utility.yul\":9848:9849   */\n      0x04\n        /* \"#utility.yul\":9841:9856   */\n      mstore\n        /* \"#utility.yul\":9875:9879   */\n      0x24\n        /* \"#utility.yul\":9872:9873   */\n      0x00\n        /* \"#utility.yul\":9865:9880   */\n      revert\n        /* \"#utility.yul\":9892:10059   */\n    tag_107:\n        /* \"#utility.yul\":9929:9932   */\n      0x00\n        /* \"#utility.yul\":9952:9974   */\n      tag_1075\n        /* \"#utility.yul\":9968:9973   */\n      dup3\n        /* \"#utility.yul\":9952:9974   */\n      tag_943\n      jump\t// in\n    tag_1075:\n        /* \"#utility.yul\":9943:9974   */\n      swap2\n      pop\n        /* \"#utility.yul\":9996:10000   */\n      0xff\n        /* \"#utility.yul\":9989:9994   */\n      dup3\n        /* \"#utility.yul\":9986:10001   */\n      eq\n        /* \"#utility.yul\":9983:10024   */\n      iszero\n      tag_1076\n      jumpi\n        /* \"#utility.yul\":10004:10022   */\n      tag_1077\n      tag_956\n      jump\t// in\n    tag_1077:\n        /* \"#utility.yul\":9983:10024   */\n    tag_1076:\n        /* \"#utility.yul\":10051:10052   */\n      0x01\n        /* \"#utility.yul\":10044:10049   */\n      dup3\n        /* \"#utility.yul\":10040:10053   */\n      add\n        /* \"#utility.yul\":10033:10053   */\n      swap1\n      pop\n        /* \"#utility.yul\":9892:10059   */\n      swap2\n      swap1\n      pop\n      jump\t// out\n        /* \"#utility.yul\":10065:10370   */\n    tag_187:\n        /* \"#utility.yul\":10105:10108   */\n      0x00\n        /* \"#utility.yul\":10124:10144   */\n      tag_1079\n        /* \"#utility.yul\":10142:10143   */\n      dup3\n        /* \"#utility.yul\":10124:10144   */\n      tag_938\n      jump\t// in\n    tag_1079:\n        /* \"#utility.yul\":10119:10144   */\n      swap2\n      pop\n        /* \"#utility.yul\":10158:10178   */\n      tag_1080\n        /* \"#utility.yul\":10176:10177   */\n      dup4\n        /* \"#utility.yul\":10158:10178   */\n      tag_938\n      jump\t// in\n    tag_1080:\n        /* \"#utility.yul\":10153:10178   */\n      swap3\n      pop\n        /* \"#utility.yul\":10312:10313   */\n      dup3\n        /* \"#utility.yul\":10244:10310   */\n      0xffffffffffffffffffffffffffffffffffffffffffffffffffffffffffffffff\n        /* \"#utility.yul\":10240:10314   */\n      sub\n        /* \"#utility.yul\":10237:10238   */\n      dup3\n        /* \"#utility.yul\":10234:10315   */\n      gt\n        /* \"#utility.yul\":10231:10338   */\n      iszero\n      tag_1081\n      jumpi\n        /* \"#utility.yul\":10318:10336   */\n      tag_1082\n      tag_956\n      jump\t// in\n    tag_1082:\n        /* \"#utility.yul\":10231:10338   */\n    tag_1081:\n        /* \"#utility.yul\":10362:10363   */\n      dup3\n        /* \"#utility.yul\":10359:10360   */\n      dup3\n        /* \"#utility.yul\":10355:10364   */\n      add\n        /* \"#utility.yul\":10348:10364   */\n      swap1\n      pop\n        /* \"#utility.yul\":10065:10370   */\n      swap3\n      swap2\n      pop\n      pop\n      jump\t// out\n        /* \"#utility.yul\":10376:10556   */\n    tag_957:\n        /* \"#utility.yul\":10424:10501   */\n      0x4e487b7100000000000000000000000000000000000000000000000000000000\n        /* \"#utility.yul\":10421:10422   */\n      0x00\n        /* \"#utility.yul\":10414:10502   */\n      mstore\n        /* \"#utility.yul\":10521:10525   */\n      0x12\n        /* \"#utility.yul\":10518:10519   */\n      0x04\n        /* \"#utility.yul\":10511:10526   */\n      mstore\n        /* \"#utility.yul\":10545:10549   */\n      0x24\n        /* \"#utility.yul\":10542:10543   */\n      0x00\n        /* \"#utility.yul\":10535:10550   */\n      revert\n        /* \"#utility.yul\":10562:10747   */\n    tag_189:\n        /* \"#utility.yul\":10602:10603   */\n      0x00\n        /* \"#utility.yul\":10619:10639   */\n      tag_1085\n        /* \"#utility.yul\":10637:10638   */\n      dup3\n        /* \"#utility.yul\":10619:10639   */\n      tag_938\n      jump\t// in\n    tag_1085:\n        /* \"#utility.yul\":10614:10639   */\n      swap2\n      pop\n        /* \"#utility.yul\":10653:10673   */\n      tag_1086\n        /* \"#utility.yul\":10671:10672   */\n      dup4\n        /* \"#utility.yul\":10653:10673   */\n      tag_938\n      jump\t// in\n    tag_1086:\n        /* \"#utility.yul\":10648:10673   */\n      swap3\n      pop\n        /* \"#utility.yul\":10692:10693   */\n      dup3\n        /* \"#utility.yul\":10682:10717   */\n      tag_1087\n      jumpi\n        /* \"#utility.yul\":10697:10715   */\n      tag_1088\n      tag_957\n      jump\t// in\n    tag_1088:\n        /* \"#utility.yul\":10682:10717   */\n    tag_1087:\n        /* \"#utility.yul\":10739:10740   */\n      dup3\n        /* \"#utility.yul\":10736:10737   */\n      dup3\n        /* \"#utility.yul\":10732:10741   */\n      div\n        /* \"#utility.yul\":10727:10741   */\n      swap1\n      pop\n        /* \"#utility.yul\":10562:10747   */\n      swap3\n      swap2\n      pop\n      pop\n      jump\t// out\n        /* \"#utility.yul\":10753:10922   */\n    tag_958:\n        /* \"#utility.yul\":10837:10848   */\n      0x00\n        /* \"#utility.yul\":10871:10877   */\n      dup3\n        /* \"#utility.yul\":10866:10869   */\n      dup3\n        /* \"#utility.yul\":10859:10878   */\n      mstore\n        /* \"#utility.yul\":10911:10915   */\n      0x20\n        /* \"#utility.yul\":10906:10909   */\n      dup3\n        /* \"#utility.yul\":10902:10916   */\n      add\n        /* \"#utility.yul\":10887:10916   */\n      swap1\n      pop\n        /* \"#utility.yul\":10753:10922   */\n      swap3\n      swap2\n      pop\n      pop\n      jump\t// out\n        /* \"#utility.yul\":10928:11109   */\n    tag_959:\n        /* \"#utility.yul\":11068:11101   */\n      0x436f6e74657374616e7420697320616c7261647920696e207468652062657400\n        /* \"#utility.yul\":11064:11065   */\n      0x00\n        /* \"#utility.yul\":11056:11062   */\n      dup3\n        /* \"#utility.yul\":11052:11066   */\n      add\n        /* \"#utility.yul\":11045:11102   */\n      mstore\n        /* \"#utility.yul\":10928:11109   */\n      pop\n      jump\t// out\n        /* \"#utility.yul\":11115:11481   */\n    tag_960:\n        /* \"#utility.yul\":11257:11260   */\n      0x00\n        /* \"#utility.yul\":11278:11345   */\n      tag_1092\n        /* \"#utility.yul\":11342:11344   */\n      0x1f\n        /* \"#utility.yul\":11337:11340   */\n      dup4\n        /* \"#utility.yul\":11278:11345   */\n      tag_958\n      jump\t// in\n    tag_1092:\n        /* \"#utility.yul\":11271:11345   */\n      swap2\n      pop\n        /* \"#utility.yul\":11354:11447   */\n      tag_1093\n        /* \"#utility.yul\":11443:11446   */\n      dup3\n        /* \"#utility.yul\":11354:11447   */\n      tag_959\n      jump\t// in\n    tag_1093:\n        /* \"#utility.yul\":11472:11474   */\n      0x20\n        /* \"#utility.yul\":11467:11470   */\n      dup3\n        /* \"#utility.yul\":11463:11475   */\n      add\n        /* \"#utility.yul\":11456:11475   */\n      swap1\n      pop\n        /* \"#utility.yul\":11115:11481   */\n      swap2\n      swap1\n      pop\n      jump\t// out\n        /* \"#utility.yul\":11487:11906   */\n    tag_227:\n        /* \"#utility.yul\":11653:11657   */\n      0x00\n        /* \"#utility.yul\":11691:11693   */\n      0x20\n        /* \"#utility.yul\":11680:11689   */\n      dup3\n        /* \"#utility.yul\":11676:11694   */\n      add\n        /* \"#utility.yul\":11668:11694   */\n      swap1\n      pop\n        /* \"#utility.yul\":11740:11749   */\n      dup2\n        /* \"#utility.yul\":11734:11738   */\n      dup2\n        /* \"#utility.yul\":11730:11750   */\n      sub\n        /* \"#utility.yul\":11726:11727   */\n      0x00\n        /* \"#utility.yul\":11715:11724   */\n      dup4\n        /* \"#utility.yul\":11711:11728   */\n      add\n        /* \"#utility.yul\":11704:11751   */\n      mstore\n        /* \"#utility.yul\":11768:11899   */\n      tag_1095\n        /* \"#utility.yul\":11894:11898   */\n      dup2\n        /* \"#utility.yul\":11768:11899   */\n      tag_960\n      jump\t// in\n    tag_1095:\n        /* \"#utility.yul\":11760:11899   */\n      swap1\n      pop\n        /* \"#utility.yul\":11487:11906   */\n      swap2\n      swap1\n      pop\n      jump\t// out\n        /* \"#utility.yul\":11912:12092   */\n    tag_961:\n        /* \"#utility.yul\":11960:12037   */\n      0x4e487b7100000000000000000000000000000000000000000000000000000000\n        /* \"#utility.yul\":11957:11958   */\n      0x00\n        /* \"#utility.yul\":11950:12038   */\n      mstore\n        /* \"#utility.yul\":12057:12061   */\n      0x22\n        /* \"#utility.yul\":12054:12055   */\n      0x04\n        /* \"#utility.yul\":12047:12062   */\n      mstore\n        /* \"#utility.yul\":12081:12085   */\n      0x24\n        /* \"#utility.yul\":12078:12079   */\n      0x00\n        /* \"#utility.yul\":12071:12086   */\n      revert\n        /* \"#utility.yul\":12098:12418   */\n    tag_262:\n        /* \"#utility.yul\":12142:12148   */\n      0x00\n        /* \"#utility.yul\":12179:12180   */\n      0x02\n        /* \"#utility.yul\":12173:12177   */\n      dup3\n        /* \"#utility.yul\":12169:12181   */\n      div\n        /* \"#utility.yul\":12159:12181   */\n      swap1\n      pop\n        /* \"#utility.yul\":12226:12227   */\n      0x01\n        /* \"#utility.yul\":12220:12224   */\n      dup3\n        /* \"#utility.yul\":12216:12228   */\n      and\n        /* \"#utility.yul\":12247:12265   */\n      dup1\n        /* \"#utility.yul\":12237:12318   */\n      tag_1098\n      jumpi\n        /* \"#utility.yul\":12303:12307   */\n      0x7f\n        /* \"#utility.yul\":12295:12301   */\n      dup3\n        /* \"#utility.yul\":12291:12308   */\n      and\n        /* \"#utility.yul\":12281:12308   */\n      swap2\n      pop\n        /* \"#utility.yul\":12237:12318   */\n    tag_1098:\n        /* \"#utility.yul\":12365:12367   */\n      0x20\n        /* \"#utility.yul\":12357:12363   */\n      dup3\n        /* \"#utility.yul\":12354:12368   */\n      lt\n        /* \"#utility.yul\":12334:12352   */\n      dup2\n        /* \"#utility.yul\":12331:12369   */\n      eq\n        /* \"#utility.yul\":12328:12412   */\n      iszero\n      tag_1099\n      jumpi\n        /* \"#utility.yul\":12384:12402   */\n      tag_1100\n      tag_961\n      jump\t// in\n    tag_1100:\n        /* \"#utility.yul\":12328:12412   */\n    tag_1099:\n        /* \"#utility.yul\":12149:12418   */\n      pop\n        /* \"#utility.yul\":12098:12418   */\n      swap2\n      swap1\n      pop\n      jump\t// out\n        /* \"#utility.yul\":12424:12661   */\n    tag_288:\n        /* \"#utility.yul\":12462:12465   */\n      0x00\n        /* \"#utility.yul\":12481:12499   */\n      tag_1102\n        /* \"#utility.yul\":12497:12498   */\n      dup3\n        /* \"#utility.yul\":12481:12499   */\n      tag_943\n      jump\t// in\n    tag_1102:\n        /* \"#utility.yul\":12476:12499   */\n      swap2\n      pop\n        /* \"#utility.yul\":12513:12531   */\n      tag_1103\n        /* \"#utility.yul\":12529:12530   */\n      dup4\n        /* \"#utility.yul\":12513:12531   */\n      tag_943\n      jump\t// in\n    tag_1103:\n        /* \"#utility.yul\":12508:12531   */\n      swap3\n      pop\n        /* \"#utility.yul\":12603:12604   */\n      dup3\n        /* \"#utility.yul\":12597:12601   */\n      0xff\n        /* \"#utility.yul\":12593:12605   */\n      sub\n        /* \"#utility.yul\":12590:12591   */\n      dup3\n        /* \"#utility.yul\":12587:12606   */\n      gt\n        /* \"#utility.yul\":12584:12629   */\n      iszero\n      tag_1104\n      jumpi\n        /* \"#utility.yul\":12609:12627   */\n      tag_1105\n      tag_956\n      jump\t// in\n    tag_1105:\n        /* \"#utility.yul\":12584:12629   */\n    tag_1104:\n        /* \"#utility.yul\":12653:12654   */\n      dup3\n        /* \"#utility.yul\":12650:12651   */\n      dup3\n        /* \"#utility.yul\":12646:12655   */\n      add\n        /* \"#utility.yul\":12639:12655   */\n      swap1\n      pop\n        /* \"#utility.yul\":12424:12661   */\n      swap3\n      swap2\n      pop\n      pop\n      jump\t// out\n        /* \"#utility.yul\":12667:12852   */\n    tag_334:\n        /* \"#utility.yul\":12705:12709   */\n      0x00\n        /* \"#utility.yul\":12725:12743   */\n      tag_1107\n        /* \"#utility.yul\":12741:12742   */\n      dup3\n        /* \"#utility.yul\":12725:12743   */\n      tag_943\n      jump\t// in\n    tag_1107:\n        /* \"#utility.yul\":12720:12743   */\n      swap2\n      pop\n        /* \"#utility.yul\":12757:12775   */\n      tag_1108\n        /* \"#utility.yul\":12773:12774   */\n      dup4\n        /* \"#utility.yul\":12757:12775   */\n      tag_943\n      jump\t// in\n    tag_1108:\n        /* \"#utility.yul\":12752:12775   */\n      swap3\n      pop\n        /* \"#utility.yul\":12794:12795   */\n      dup3\n        /* \"#utility.yul\":12791:12792   */\n      dup3\n        /* \"#utility.yul\":12788:12796   */\n      lt\n        /* \"#utility.yul\":12785:12819   */\n      iszero\n      tag_1109\n      jumpi\n        /* \"#utility.yul\":12799:12817   */\n      tag_1110\n      tag_956\n      jump\t// in\n    tag_1110:\n        /* \"#utility.yul\":12785:12819   */\n    tag_1109:\n        /* \"#utility.yul\":12844:12845   */\n      dup3\n        /* \"#utility.yul\":12841:12842   */\n      dup3\n        /* \"#utility.yul\":12837:12846   */\n      sub\n        /* \"#utility.yul\":12829:12846   */\n      swap1\n      pop\n        /* \"#utility.yul\":12667:12852   */\n      swap3\n      swap2\n      pop\n      pop\n      jump\t// out\n        /* \"#utility.yul\":12858:13049   */\n    tag_377:\n        /* \"#utility.yul\":12898:12902   */\n      0x00\n        /* \"#utility.yul\":12918:12938   */\n      tag_1112\n        /* \"#utility.yul\":12936:12937   */\n      dup3\n        /* \"#utility.yul\":12918:12938   */\n      tag_938\n      jump\t// in\n    tag_1112:\n        /* \"#utility.yul\":12913:12938   */\n      swap2\n      pop\n        /* \"#utility.yul\":12952:12972   */\n      tag_1113\n        /* \"#utility.yul\":12970:12971   */\n      dup4\n        /* \"#utility.yul\":12952:12972   */\n      tag_938\n      jump\t// in\n    tag_1113:\n        /* \"#utility.yul\":12947:12972   */\n      swap3\n      pop\n        /* \"#utility.yul\":12991:12992   */\n      dup3\n        /* \"#utility.yul\":12988:12989   */\n      dup3\n        /* \"#utility.yul\":12985:12993   */\n      lt\n        /* \"#utility.yul\":12982:13016   */\n      iszero\n      tag_1114\n      jumpi\n        /* \"#utility.yul\":12996:13014   */\n      tag_1115\n      tag_956\n      jump\t// in\n    tag_1115:\n        /* \"#utility.yul\":12982:13016   */\n    tag_1114:\n        /* \"#utility.yul\":13041:13042   */\n      dup3\n        /* \"#utility.yul\":13038:13039   */\n      dup3\n        /* \"#utility.yul\":13034:13043   */\n      sub\n        /* \"#utility.yul\":13026:13043   */\n      swap1\n      pop\n        /* \"#utility.yul\":12858:13049   */\n      swap3\n      swap2\n      pop\n      pop\n      jump\t// out\n        /* \"#utility.yul\":13055:13154   */\n    tag_962:\n        /* \"#utility.yul\":13107:13113   */\n      0x00\n        /* \"#utility.yul\":13141:13146   */\n      dup2\n        /* \"#utility.yul\":13135:13147   */\n      mload\n        /* \"#utility.yul\":13125:13147   */\n      swap1\n      pop\n        /* \"#utility.yul\":13055:13154   */\n      swap2\n      swap1\n      pop\n      jump\t// out\n        /* \"#utility.yul\":13160:13308   */\n    tag_963:\n        /* \"#utility.yul\":13262:13273   */\n      0x00\n        /* \"#utility.yul\":13299:13302   */\n      dup2\n        /* \"#utility.yul\":13284:13302   */\n      swap1\n      pop\n        /* \"#utility.yul\":13160:13308   */\n      swap3\n      swap2\n      pop\n      pop\n      jump\t// out\n        /* \"#utility.yul\":13314:13621   */\n    tag_964:\n        /* \"#utility.yul\":13382:13383   */\n      0x00\n        /* \"#utility.yul\":13392:13505   */\n    tag_1119:\n        /* \"#utility.yul\":13406:13412   */\n      dup4\n        /* \"#utility.yul\":13403:13404   */\n      dup2\n        /* \"#utility.yul\":13400:13413   */\n      lt\n        /* \"#utility.yul\":13392:13505   */\n      iszero\n      tag_1121\n      jumpi\n        /* \"#utility.yul\":13491:13492   */\n      dup1\n        /* \"#utility.yul\":13486:13489   */\n      dup3\n        /* \"#utility.yul\":13482:13493   */\n      add\n        /* \"#utility.yul\":13476:13494   */\n      mload\n        /* \"#utility.yul\":13472:13473   */\n      dup2\n        /* \"#utility.yul\":13467:13470   */\n      dup5\n        /* \"#utility.yul\":13463:13474   */\n      add\n        /* \"#utility.yul\":13456:13495   */\n      mstore\n        /* \"#utility.yul\":13428:13430   */\n      0x20\n        /* \"#utility.yul\":13425:13426   */\n      dup2\n        /* \"#utility.yul\":13421:13431   */\n      add\n        /* \"#utility.yul\":13416:13431   */\n      swap1\n      pop\n        /* \"#utility.yul\":13392:13505   */\n      jump(tag_1119)\n    tag_1121:\n        /* \"#utility.yul\":13523:13529   */\n      dup4\n        /* \"#utility.yul\":13520:13521   */\n      dup2\n        /* \"#utility.yul\":13517:13530   */\n      gt\n        /* \"#utility.yul\":13514:13615   */\n      iszero\n      tag_1122\n      jumpi\n        /* \"#utility.yul\":13603:13604   */\n      0x00\n        /* \"#utility.yul\":13594:13600   */\n      dup5\n        /* \"#utility.yul\":13589:13592   */\n      dup5\n        /* \"#utility.yul\":13585:13601   */\n      add\n        /* \"#utility.yul\":13578:13605   */\n      mstore\n        /* \"#utility.yul\":13514:13615   */\n    tag_1122:\n        /* \"#utility.yul\":13363:13621   */\n      pop\n        /* \"#utility.yul\":13314:13621   */\n      pop\n      pop\n      pop\n      jump\t// out\n        /* \"#utility.yul\":13627:14004   */\n    tag_965:\n        /* \"#utility.yul\":13733:13736   */\n      0x00\n        /* \"#utility.yul\":13761:13800   */\n      tag_1124\n        /* \"#utility.yul\":13794:13799   */\n      dup3\n        /* \"#utility.yul\":13761:13800   */\n      tag_962\n      jump\t// in\n    tag_1124:\n        /* \"#utility.yul\":13816:13905   */\n      tag_1125\n        /* \"#utility.yul\":13898:13904   */\n      dup2\n        /* \"#utility.yul\":13893:13896   */\n      dup6\n        /* \"#utility.yul\":13816:13905   */\n      tag_963\n      jump\t// in\n    tag_1125:\n        /* \"#utility.yul\":13809:13905   */\n      swap4\n      pop\n        /* \"#utility.yul\":13914:13966   */\n      tag_1126\n        /* \"#utility.yul\":13959:13965   */\n      dup2\n        /* \"#utility.yul\":13954:13957   */\n      dup6\n        /* \"#utility.yul\":13947:13951   */\n      0x20\n        /* \"#utility.yul\":13940:13945   */\n      dup7\n        /* \"#utility.yul\":13936:13952   */\n      add\n        /* \"#utility.yul\":13914:13966   */\n      tag_964\n      jump\t// in\n    tag_1126:\n        /* \"#utility.yul\":13991:13997   */\n      dup1\n        /* \"#utility.yul\":13986:13989   */\n      dup5\n        /* \"#utility.yul\":13982:13998   */\n      add\n        /* \"#utility.yul\":13975:13998   */\n      swap2\n      pop\n        /* \"#utility.yul\":13737:14004   */\n      pop\n        /* \"#utility.yul\":13627:14004   */\n      swap3\n      swap2\n      pop\n      pop\n      jump\t// out\n        /* \"#utility.yul\":14010:14285   */\n    tag_893:\n        /* \"#utility.yul\":14142:14145   */\n      0x00\n        /* \"#utility.yul\":14164:14259   */\n      tag_1128\n        /* \"#utility.yul\":14255:14258   */\n      dup3\n        /* \"#utility.yul\":14246:14252   */\n      dup5\n        /* \"#utility.yul\":14164:14259   */\n      tag_965\n      jump\t// in\n    tag_1128:\n        /* \"#utility.yul\":14157:14259   */\n      swap2\n      pop\n        /* \"#utility.yul\":14276:14279   */\n      dup2\n        /* \"#utility.yul\":14269:14279   */\n      swap1\n      pop\n        /* \"#utility.yul\":14010:14285   */\n      swap3\n      swap2\n      pop\n      pop\n      jump\t// out\n\n    auxdata: 0xa26469706673582212209925fa3e93192dce26cd6d562f1cd54cbfaf77dae43f24223618a79e54736ecf64736f6c634300080b0033\n}\n","bytecode":{"linkReferences":{},"object":"60806040523480156200001157600080fd5b50604051620049d5380380620049d58339818101604052810190620000379190620000c6565b33600660016101000a81548173ffffffffffffffffffffffffffffffffffffffff021916908373ffffffffffffffffffffffffffffffffffffffff1602179055508060078190555050620000f8565b600080fd5b6000819050919050565b620000a0816200008b565b8114620000ac57600080fd5b50565b600081519050620000c08162000095565b92915050565b600060208284031215620000df57620000de62000086565b5b6000620000ef84828501620000af565b91505092915050565b6148cd80620001086000396000f3fe6080604052600436106101095760003560e01c80637f36ea2411610095578063c10196fa11610064578063c10196fa146102dd578063c8fe213414610308578063dfbf53ae14610331578063ef9884e41461035c578063f1d78c841461038757610109565b80637f36ea2414610275578063a388d1cd1461027f578063b12038f4146102aa578063bb427d8a146102d357610109565b8063481c6a75116100dc578063481c6a75146101a457806355db72ea146101cf57806365046e8c146101f857806377bc91f5146102215780637af448f21461024a57610109565b806309221b3a1461010e578063096c705d1461013757806311610c25146101625780632ccb0d1e1461018d575b600080fd5b34801561011a57600080fd5b50610135600480360381019061013091906142c6565b6103b2565b005b34801561014357600080fd5b5061014c610519565b6040516101599190614328565b60405180910390f35b34801561016e57600080fd5b5061017761060d565b6040516101849190614328565b60405180910390f35b34801561019957600080fd5b506101a2610613565b005b3480156101b057600080fd5b506101b96106e4565b6040516101c69190614384565b60405180910390f35b3480156101db57600080fd5b506101f660048036038101906101f191906143d8565b61070a565b005b34801561020457600080fd5b5061021f600480360381019061021a91906142c6565b610782565b005b34801561022d57600080fd5b50610248600480360381019061024391906143d8565b6107f6565b005b34801561025657600080fd5b5061025f610913565b60405161026c9190614328565b60405180910390f35b61027d610a07565b005b34801561028b57600080fd5b50610294610c0c565b6040516102a19190614328565b60405180910390f35b3480156102b657600080fd5b506102d160048036038101906102cc91906142c6565b610d00565b005b6102db610e67565b005b3480156102e957600080fd5b506102f2610fc8565b6040516102ff91906144c3565b60405180910390f35b34801561031457600080fd5b5061032f600480360381019061032a91906142c6565b611056565b005b34801561033d57600080fd5b506103466110ca565b6040516103539190614506565b60405180910390f35b34801561036857600080fd5b506103716110f0565b60405161037e9190614328565b60405180910390f35b34801561039357600080fd5b5061039c6111e4565b6040516103a99190614530565b60405180910390f35b600080600090505b6001805490508160ff161015610455573373ffffffffffffffffffffffffffffffffffffffff1660018260ff16815481106103f8576103f761454b565b5b9060005260206000200160009054906101000a900473ffffffffffffffffffffffffffffffffffffffff1673ffffffffffffffffffffffffffffffffffffffff16141561044457600191505b8061044e906145a9565b90506103ba565b508061046057600080fd5b600a82511461046e57600080fd5b60008060003373ffffffffffffffffffffffffffffffffffffffff1673ffffffffffffffffffffffffffffffffffffffff16815260200190815260200160002060000180549050146104bf57600080fd5b816000803373ffffffffffffffffffffffffffffffffffffffff1673ffffffffffffffffffffffffffffffffffffffff1681526020019081526020016000206000019080519060200190610514929190613f1f565b505050565b60008060005b6001805490508160ff1610156105ba573373ffffffffffffffffffffffffffffffffffffffff1660018260ff168154811061055d5761055c61454b565b5b9060005260206000200160009054906101000a900473ffffffffffffffffffffffffffffffffffffffff1673ffffffffffffffffffffffffffffffffffffffff1614156105a957600191505b806105b3906145a9565b905061051f565b50806105c557600080fd5b6000803373ffffffffffffffffffffffffffffffffffffffff1673ffffffffffffffffffffffffffffffffffffffff1681526020019081526020016000206004015491505090565b60075481565b600080600090505b6001805490508160ff1610156106b6573373ffffffffffffffffffffffffffffffffffffffff1660018260ff16815481106106595761065861454b565b5b9060005260206000200160009054906101000a900473ffffffffffffffffffffffffffffffffffffffff1673ffffffffffffffffffffffffffffffffffffffff1614156106a557600191505b806106af906145a9565b905061061b565b50806106c157600080fd5b6106c96111f7565b6106d1612630565b6106d9613a69565b6106e1613bcd565b50565b600660019054906101000a900473ffffffffffffffffffffffffffffffffffffffff1681565b600660019054906101000a900473ffffffffffffffffffffffffffffffffffffffff1673ffffffffffffffffffffffffffffffffffffffff163373ffffffffffffffffffffffffffffffffffffffff161461076457600080fd5b80600660006101000a81548160ff021916908360ff16021790555050565b600660019054906101000a900473ffffffffffffffffffffffffffffffffffffffff1673ffffffffffffffffffffffffffffffffffffffff163373ffffffffffffffffffffffffffffffffffffffff16146107dc57600080fd5b80600590805190602001906107f2929190613f1f565b5050565b600080600090505b6001805490508160ff161015610899573373ffffffffffffffffffffffffffffffffffffffff1660018260ff168154811061083c5761083b61454b565b5b9060005260206000200160009054906101000a900473ffffffffffffffffffffffffffffffffffffffff1673ffffffffffffffffffffffffffffffffffffffff16141561088857600191505b80610892906145a9565b90506107fe565b50806108a457600080fd5b60008260ff1610156108b557600080fd5b816000803373ffffffffffffffffffffffffffffffffffffffff1673ffffffffffffffffffffffffffffffffffffffff16815260200190815260200160002060020160006101000a81548160ff021916908360ff1602179055505050565b60008060005b6001805490508160ff1610156109b4573373ffffffffffffffffffffffffffffffffffffffff1660018260ff16815481106109575761095661454b565b5b9060005260206000200160009054906101000a900473ffffffffffffffffffffffffffffffffffffffff1673ffffffffffffffffffffffffffffffffffffffff1614156109a357600191505b806109ad906145a9565b9050610919565b50806109bf57600080fd5b6000803373ffffffffffffffffffffffffffffffffffffffff1673ffffffffffffffffffffffffffffffffffffffff1681526020019081526020016000206003015491505090565b600080600090505b6001805490508160ff161015610aaa573373ffffffffffffffffffffffffffffffffffffffff1660018260ff1681548110610a4d57610a4c61454b565b5b9060005260206000200160009054906101000a900473ffffffffffffffffffffffffffffffffffffffff1673ffffffffffffffffffffffffffffffffffffffff161415610a9957600191505b80610aa3906145a9565b9050610a0f565b5080610ab557600080fd5b60001515600860003373ffffffffffffffffffffffffffffffffffffffff1673ffffffffffffffffffffffffffffffffffffffff16815260200190815260200160002060009054906101000a900460ff16151514610b1257600080fd5b600160096000828254610b2591906145d3565b925050819055506001600860003373ffffffffffffffffffffffffffffffffffffffff1673ffffffffffffffffffffffffffffffffffffffff16815260200190815260200160002060006101000a81548160ff0219169083151502179055506002600180549050610b969190614658565b6009541115610c0957600260009054906101000a900473ffffffffffffffffffffffffffffffffffffffff1673ffffffffffffffffffffffffffffffffffffffff166108fc479081150290604051600060405180830381858888f19350505050158015610c07573d6000803e3d6000fd5b505b50565b60008060005b6001805490508160ff161015610cad573373ffffffffffffffffffffffffffffffffffffffff1660018260ff1681548110610c5057610c4f61454b565b5b9060005260206000200160009054906101000a900473ffffffffffffffffffffffffffffffffffffffff1673ffffffffffffffffffffffffffffffffffffffff161415610c9c57600191505b80610ca6906145a9565b9050610c12565b5080610cb857600080fd5b6000803373ffffffffffffffffffffffffffffffffffffffff1673ffffffffffffffffffffffffffffffffffffffff1681526020019081526020016000206005015491505090565b600080600090505b6001805490508160ff161015610da3573373ffffffffffffffffffffffffffffffffffffffff1660018260ff1681548110610d4657610d4561454b565b5b9060005260206000200160009054906101000a900473ffffffffffffffffffffffffffffffffffffffff1673ffffffffffffffffffffffffffffffffffffffff161415610d9257600191505b80610d9c906145a9565b9050610d08565b5080610dae57600080fd5b6014825114610dbc57600080fd5b60008060003373ffffffffffffffffffffffffffffffffffffffff1673ffffffffffffffffffffffffffffffffffffffff1681526020019081526020016000206001018054905014610e0d57600080fd5b816000803373ffffffffffffffffffffffffffffffffffffffff1673ffffffffffffffffffffffffffffffffffffffff1681526020019081526020016000206001019080519060200190610e62929190613f1f565b505050565b60005b6001805490508160ff161015610f3b573373ffffffffffffffffffffffffffffffffffffffff1660018260ff1681548110610ea857610ea761454b565b5b9060005260206000200160009054906101000a900473ffffffffffffffffffffffffffffffffffffffff1673ffffffffffffffffffffffffffffffffffffffff161415610f2a576040517f08c379a0000000000000000000000000000000000000000000000000000000008152600401610f21906146e6565b60405180910390fd5b80610f34906145a9565b9050610e6a565b506007543411610f4a57600080fd5b3460036000828254610f5c91906145d3565b925050819055506001339080600181540180825580915050600190039060005260206000200160009091909190916101000a81548173ffffffffffffffffffffffffffffffffffffffff021916908373ffffffffffffffffffffffffffffffffffffffff160217905550565b6060600180548060200260200160405190810160405280929190818152602001828054801561104c57602002820191906000526020600020905b8160009054906101000a900473ffffffffffffffffffffffffffffffffffffffff1673ffffffffffffffffffffffffffffffffffffffff1681526020019060010190808311611002575b5050505050905090565b600660019054906101000a900473ffffffffffffffffffffffffffffffffffffffff1673ffffffffffffffffffffffffffffffffffffffff163373ffffffffffffffffffffffffffffffffffffffff16146110b057600080fd5b80600490805190602001906110c6929190613f1f565b5050565b600260009054906101000a900473ffffffffffffffffffffffffffffffffffffffff1681565b60008060005b6001805490508160ff161015611191573373ffffffffffffffffffffffffffffffffffffffff1660018260ff16815481106111345761113361454b565b5b9060005260206000200160009054906101000a900473ffffffffffffffffffffffffffffffffffffffff1673ffffffffffffffffffffffffffffffffffffffff16141561118057600191505b8061118a906145a9565b90506110f6565b508061119c57600080fd5b6000803373ffffffffffffffffffffffffffffffffffffffff1673ffffffffffffffffffffffffffffffffffffffff1681526020019081526020016000206006015491505090565b600660009054906101000a900460ff1681565b60005b6001805490508160ff16101561262d57600080600060018460ff16815481106112265761122561454b565b5b9060005260206000200160009054906101000a900473ffffffffffffffffffffffffffffffffffffffff1673ffffffffffffffffffffffffffffffffffffffff1673ffffffffffffffffffffffffffffffffffffffff168152602001908152602001600020600001805480602002602001604051908101604052809291908181526020016000905b8282101561135a5783829060005260206000200180546112cd90614735565b80601f01602080910402602001604051908101604052809291908181526020018280546112f990614735565b80156113465780601f1061131b57610100808354040283529160200191611346565b820191906000526020600020905b81548152906001019060200180831161132957829003601f168201915b5050505050815260200190600101906112ae565b5050505090506000805b6004805490508160ff1610156125905760018160ff16101561165657611450838260ff16815181106113995761139861454b565b5b602002602001015160048360ff16815481106113b8576113b761454b565b5b9060005260206000200180546113cd90614735565b80601f01602080910402602001604051908101604052809291908181526020018280546113f990614735565b80156114465780601f1061141b57610100808354040283529160200191611446565b820191906000526020600020905b81548152906001019060200180831161142957829003601f168201915b5050505050613eb5565b156114695760058261146291906145d3565b9150611651565b6115458360018361147a9190614767565b60ff168151811061148e5761148d61454b565b5b602002602001015160048360ff16815481106114ad576114ac61454b565b5b9060005260206000200180546114c290614735565b80601f01602080910402602001604051908101604052809291908181526020018280546114ee90614735565b801561153b5780601f106115105761010080835404028352916020019161153b565b820191906000526020600020905b81548152906001019060200180831161151e57829003601f168201915b5050505050613eb5565b1561155e5760038261155791906145d3565b9150611650565b61163a8360028361156f9190614767565b60ff16815181106115835761158261454b565b5b602002602001015160048360ff16815481106115a2576115a161454b565b5b9060005260206000200180546115b790614735565b80601f01602080910402602001604051908101604052809291908181526020018280546115e390614735565b80156116305780601f1061160557610100808354040283529160200191611630565b820191906000526020600020905b81548152906001019060200180831161161357829003601f168201915b5050505050613eb5565b1561164f5760018261164c91906145d3565b91505b5b5b61257d565b60028160ff161015611a1b57611732838260ff168151811061167b5761167a61454b565b5b602002602001015160048360ff168154811061169a5761169961454b565b5b9060005260206000200180546116af90614735565b80601f01602080910402602001604051908101604052809291908181526020018280546116db90614735565b80156117285780601f106116fd57610100808354040283529160200191611728565b820191906000526020600020905b81548152906001019060200180831161170b57829003601f168201915b5050505050613eb5565b1561174b5760058261174491906145d3565b9150611a16565b6118278360018361175c919061479e565b60ff16815181106117705761176f61454b565b5b602002602001015160048360ff168154811061178f5761178e61454b565b5b9060005260206000200180546117a490614735565b80601f01602080910402602001604051908101604052809291908181526020018280546117d090614735565b801561181d5780601f106117f25761010080835404028352916020019161181d565b820191906000526020600020905b81548152906001019060200180831161180057829003601f168201915b5050505050613eb5565b8061190a57506119098360018361183e9190614767565b60ff16815181106118525761185161454b565b5b602002602001015160048360ff16815481106118715761187061454b565b5b90600052602060002001805461188690614735565b80601f01602080910402602001604051908101604052809291908181526020018280546118b290614735565b80156118ff5780601f106118d4576101008083540402835291602001916118ff565b820191906000526020600020905b8154815290600101906020018083116118e257829003601f168201915b5050505050613eb5565b5b156119235760038261191c91906145d3565b9150611a15565b6119ff836002836119349190614767565b60ff16815181106119485761194761454b565b5b602002602001015160048360ff16815481106119675761196661454b565b5b90600052602060002001805461197c90614735565b80601f01602080910402602001604051908101604052809291908181526020018280546119a890614735565b80156119f55780601f106119ca576101008083540402835291602001916119f5565b820191906000526020600020905b8154815290600101906020018083116119d857829003601f168201915b5050505050613eb5565b15611a1457600182611a1191906145d3565b91505b5b5b61257c565b6002600480549050611a2d91906147d2565b8160ff161415611df057611b07838260ff1681518110611a5057611a4f61454b565b5b602002602001015160048360ff1681548110611a6f57611a6e61454b565b5b906000526020600020018054611a8490614735565b80601f0160208091040260200160405190810160405280929190818152602001828054611ab090614735565b8015611afd5780601f10611ad257610100808354040283529160200191611afd565b820191906000526020600020905b815481529060010190602001808311611ae057829003601f168201915b5050505050613eb5565b15611b2057600582611b1991906145d3565b9150611deb565b611bfc83600183611b31919061479e565b60ff1681518110611b4557611b4461454b565b5b602002602001015160048360ff1681548110611b6457611b6361454b565b5b906000526020600020018054611b7990614735565b80601f0160208091040260200160405190810160405280929190818152602001828054611ba590614735565b8015611bf25780601f10611bc757610100808354040283529160200191611bf2565b820191906000526020600020905b815481529060010190602001808311611bd557829003601f168201915b5050505050613eb5565b80611cdf5750611cde83600183611c139190614767565b60ff1681518110611c2757611c2661454b565b5b602002602001015160048360ff1681548110611c4657611c4561454b565b5b906000526020600020018054611c5b90614735565b80601f0160208091040260200160405190810160405280929190818152602001828054611c8790614735565b8015611cd45780601f10611ca957610100808354040283529160200191611cd4565b820191906000526020600020905b815481529060010190602001808311611cb757829003601f168201915b5050505050613eb5565b5b15611cf857600382611cf191906145d3565b9150611dea565b611dd483600283611d09919061479e565b60ff1681518110611d1d57611d1c61454b565b5b602002602001015160048360ff1681548110611d3c57611d3b61454b565b5b906000526020600020018054611d5190614735565b80601f0160208091040260200160405190810160405280929190818152602001828054611d7d90614735565b8015611dca5780601f10611d9f57610100808354040283529160200191611dca565b820191906000526020600020905b815481529060010190602001808311611dad57829003601f168201915b5050505050613eb5565b15611de957600182611de691906145d3565b91505b5b5b61257b565b6001600480549050611e0291906147d2565b8160ff1614156120e257611edc838260ff1681518110611e2557611e2461454b565b5b602002602001015160048360ff1681548110611e4457611e4361454b565b5b906000526020600020018054611e5990614735565b80601f0160208091040260200160405190810160405280929190818152602001828054611e8590614735565b8015611ed25780601f10611ea757610100808354040283529160200191611ed2565b820191906000526020600020905b815481529060010190602001808311611eb557829003601f168201915b5050505050613eb5565b15611ef557600582611eee91906145d3565b91506120dd565b611fd183600183611f06919061479e565b60ff1681518110611f1a57611f1961454b565b5b602002602001015160048360ff1681548110611f3957611f3861454b565b5b906000526020600020018054611f4e90614735565b80601f0160208091040260200160405190810160405280929190818152602001828054611f7a90614735565b8015611fc75780601f10611f9c57610100808354040283529160200191611fc7565b820191906000526020600020905b815481529060010190602001808311611faa57829003601f168201915b5050505050613eb5565b15611fea57600382611fe391906145d3565b91506120dc565b6120c683600283611ffb919061479e565b60ff168151811061200f5761200e61454b565b5b602002602001015160048360ff168154811061202e5761202d61454b565b5b90600052602060002001805461204390614735565b80601f016020809104026020016040519081016040528092919081815260200182805461206f90614735565b80156120bc5780601f10612091576101008083540402835291602001916120bc565b820191906000526020600020905b81548152906001019060200180831161209f57829003601f168201915b5050505050613eb5565b156120db576001826120d891906145d3565b91505b5b5b61257a565b6121b2838260ff16815181106120fb576120fa61454b565b5b602002602001015160048360ff168154811061211a5761211961454b565b5b90600052602060002001805461212f90614735565b80601f016020809104026020016040519081016040528092919081815260200182805461215b90614735565b80156121a85780601f1061217d576101008083540402835291602001916121a8565b820191906000526020600020905b81548152906001019060200180831161218b57829003601f168201915b5050505050613eb5565b156121cb576005826121c491906145d3565b9150612579565b6122a7836001836121dc919061479e565b60ff16815181106121f0576121ef61454b565b5b602002602001015160048360ff168154811061220f5761220e61454b565b5b90600052602060002001805461222490614735565b80601f016020809104026020016040519081016040528092919081815260200182805461225090614735565b801561229d5780601f106122725761010080835404028352916020019161229d565b820191906000526020600020905b81548152906001019060200180831161228057829003601f168201915b5050505050613eb5565b8061238a5750612389836001836122be9190614767565b60ff16815181106122d2576122d161454b565b5b602002602001015160048360ff16815481106122f1576122f061454b565b5b90600052602060002001805461230690614735565b80601f016020809104026020016040519081016040528092919081815260200182805461233290614735565b801561237f5780601f106123545761010080835404028352916020019161237f565b820191906000526020600020905b81548152906001019060200180831161236257829003601f168201915b5050505050613eb5565b5b156123a35760038261239c91906145d3565b9150612578565b61247f836002836123b4919061479e565b60ff16815181106123c8576123c761454b565b5b602002602001015160048360ff16815481106123e7576123e661454b565b5b9060005260206000200180546123fc90614735565b80601f016020809104026020016040519081016040528092919081815260200182805461242890614735565b80156124755780601f1061244a57610100808354040283529160200191612475565b820191906000526020600020905b81548152906001019060200180831161245857829003601f168201915b5050505050613eb5565b806125625750612561836002836124969190614767565b60ff16815181106124aa576124a961454b565b5b602002602001015160048360ff16815481106124c9576124c861454b565b5b9060005260206000200180546124de90614735565b80601f016020809104026020016040519081016040528092919081815260200182805461250a90614735565b80156125575780601f1061252c57610100808354040283529160200191612557565b820191906000526020600020905b81548152906001019060200180831161253a57829003601f168201915b5050505050613eb5565b5b156125775760018261257491906145d3565b91505b5b5b5b5b5b5b8080612588906145a9565b915050611364565b508060008060018660ff16815481106125ac576125ab61454b565b5b9060005260206000200160009054906101000a900473ffffffffffffffffffffffffffffffffffffffff1673ffffffffffffffffffffffffffffffffffffffff1673ffffffffffffffffffffffffffffffffffffffff1681526020019081526020016000206003018190555050508080612625906145a9565b9150506111fa565b50565b60005b6001805490508160ff161015613a6657600080600060018460ff168154811061265f5761265e61454b565b5b9060005260206000200160009054906101000a900473ffffffffffffffffffffffffffffffffffffffff1673ffffffffffffffffffffffffffffffffffffffff1673ffffffffffffffffffffffffffffffffffffffff168152602001908152602001600020600101805480602002602001604051908101604052809291908181526020016000905b8282101561279357838290600052602060002001805461270690614735565b80601f016020809104026020016040519081016040528092919081815260200182805461273290614735565b801561277f5780601f106127545761010080835404028352916020019161277f565b820191906000526020600020905b81548152906001019060200180831161276257829003601f168201915b5050505050815260200190600101906126e7565b5050505090506000805b6005805490508160ff1610156139c95760018160ff161015612a8f57612889838260ff16815181106127d2576127d161454b565b5b602002602001015160058360ff16815481106127f1576127f061454b565b5b90600052602060002001805461280690614735565b80601f016020809104026020016040519081016040528092919081815260200182805461283290614735565b801561287f5780601f106128545761010080835404028352916020019161287f565b820191906000526020600020905b81548152906001019060200180831161286257829003601f168201915b5050505050613eb5565b156128a25760058261289b91906145d3565b9150612a8a565b61297e836001836128b39190614767565b60ff16815181106128c7576128c661454b565b5b602002602001015160058360ff16815481106128e6576128e561454b565b5b9060005260206000200180546128fb90614735565b80601f016020809104026020016040519081016040528092919081815260200182805461292790614735565b80156129745780601f1061294957610100808354040283529160200191612974565b820191906000526020600020905b81548152906001019060200180831161295757829003601f168201915b5050505050613eb5565b156129975760038261299091906145d3565b9150612a89565b612a73836002836129a89190614767565b60ff16815181106129bc576129bb61454b565b5b602002602001015160058360ff16815481106129db576129da61454b565b5b9060005260206000200180546129f090614735565b80601f0160208091040260200160405190810160405280929190818152602001828054612a1c90614735565b8015612a695780601f10612a3e57610100808354040283529160200191612a69565b820191906000526020600020905b815481529060010190602001808311612a4c57829003601f168201915b5050505050613eb5565b15612a8857600182612a8591906145d3565b91505b5b5b6139b6565b60028160ff161015612e5457612b6b838260ff1681518110612ab457612ab361454b565b5b602002602001015160058360ff1681548110612ad357612ad261454b565b5b906000526020600020018054612ae890614735565b80601f0160208091040260200160405190810160405280929190818152602001828054612b1490614735565b8015612b615780601f10612b3657610100808354040283529160200191612b61565b820191906000526020600020905b815481529060010190602001808311612b4457829003601f168201915b5050505050613eb5565b15612b8457600582612b7d91906145d3565b9150612e4f565b612c6083600183612b95919061479e565b60ff1681518110612ba957612ba861454b565b5b602002602001015160058360ff1681548110612bc857612bc761454b565b5b906000526020600020018054612bdd90614735565b80601f0160208091040260200160405190810160405280929190818152602001828054612c0990614735565b8015612c565780601f10612c2b57610100808354040283529160200191612c56565b820191906000526020600020905b815481529060010190602001808311612c3957829003601f168201915b5050505050613eb5565b80612d435750612d4283600183612c779190614767565b60ff1681518110612c8b57612c8a61454b565b5b602002602001015160058360ff1681548110612caa57612ca961454b565b5b906000526020600020018054612cbf90614735565b80601f0160208091040260200160405190810160405280929190818152602001828054612ceb90614735565b8015612d385780601f10612d0d57610100808354040283529160200191612d38565b820191906000526020600020905b815481529060010190602001808311612d1b57829003601f168201915b5050505050613eb5565b5b15612d5c57600382612d5591906145d3565b9150612e4e565b612e3883600283612d6d9190614767565b60ff1681518110612d8157612d8061454b565b5b602002602001015160058360ff1681548110612da057612d9f61454b565b5b906000526020600020018054612db590614735565b80601f0160208091040260200160405190810160405280929190818152602001828054612de190614735565b8015612e2e5780601f10612e0357610100808354040283529160200191612e2e565b820191906000526020600020905b815481529060010190602001808311612e1157829003601f168201915b5050505050613eb5565b15612e4d57600182612e4a91906145d3565b91505b5b5b6139b5565b6002600580549050612e6691906147d2565b8160ff16141561322957612f40838260ff1681518110612e8957612e8861454b565b5b602002602001015160058360ff1681548110612ea857612ea761454b565b5b906000526020600020018054612ebd90614735565b80601f0160208091040260200160405190810160405280929190818152602001828054612ee990614735565b8015612f365780601f10612f0b57610100808354040283529160200191612f36565b820191906000526020600020905b815481529060010190602001808311612f1957829003601f168201915b5050505050613eb5565b15612f5957600582612f5291906145d3565b9150613224565b61303583600183612f6a919061479e565b60ff1681518110612f7e57612f7d61454b565b5b602002602001015160058360ff1681548110612f9d57612f9c61454b565b5b906000526020600020018054612fb290614735565b80601f0160208091040260200160405190810160405280929190818152602001828054612fde90614735565b801561302b5780601f106130005761010080835404028352916020019161302b565b820191906000526020600020905b81548152906001019060200180831161300e57829003601f168201915b5050505050613eb5565b8061311857506131178360018361304c9190614767565b60ff16815181106130605761305f61454b565b5b602002602001015160058360ff168154811061307f5761307e61454b565b5b90600052602060002001805461309490614735565b80601f01602080910402602001604051908101604052809291908181526020018280546130c090614735565b801561310d5780601f106130e25761010080835404028352916020019161310d565b820191906000526020600020905b8154815290600101906020018083116130f057829003601f168201915b5050505050613eb5565b5b156131315760038261312a91906145d3565b9150613223565b61320d83600283613142919061479e565b60ff16815181106131565761315561454b565b5b602002602001015160058360ff16815481106131755761317461454b565b5b90600052602060002001805461318a90614735565b80601f01602080910402602001604051908101604052809291908181526020018280546131b690614735565b80156132035780601f106131d857610100808354040283529160200191613203565b820191906000526020600020905b8154815290600101906020018083116131e657829003601f168201915b5050505050613eb5565b156132225760018261321f91906145d3565b91505b5b5b6139b4565b600160058054905061323b91906147d2565b8160ff16141561351b57613315838260ff168151811061325e5761325d61454b565b5b602002602001015160058360ff168154811061327d5761327c61454b565b5b90600052602060002001805461329290614735565b80601f01602080910402602001604051908101604052809291908181526020018280546132be90614735565b801561330b5780601f106132e05761010080835404028352916020019161330b565b820191906000526020600020905b8154815290600101906020018083116132ee57829003601f168201915b5050505050613eb5565b1561332e5760058261332791906145d3565b9150613516565b61340a8360018361333f919061479e565b60ff16815181106133535761335261454b565b5b602002602001015160058360ff16815481106133725761337161454b565b5b90600052602060002001805461338790614735565b80601f01602080910402602001604051908101604052809291908181526020018280546133b390614735565b80156134005780601f106133d557610100808354040283529160200191613400565b820191906000526020600020905b8154815290600101906020018083116133e357829003601f168201915b5050505050613eb5565b156134235760038261341c91906145d3565b9150613515565b6134ff83600283613434919061479e565b60ff16815181106134485761344761454b565b5b602002602001015160058360ff16815481106134675761346661454b565b5b90600052602060002001805461347c90614735565b80601f01602080910402602001604051908101604052809291908181526020018280546134a890614735565b80156134f55780601f106134ca576101008083540402835291602001916134f5565b820191906000526020600020905b8154815290600101906020018083116134d857829003601f168201915b5050505050613eb5565b156135145760018261351191906145d3565b91505b5b5b6139b3565b6135eb838260ff16815181106135345761353361454b565b5b602002602001015160058360ff16815481106135535761355261454b565b5b90600052602060002001805461356890614735565b80601f016020809104026020016040519081016040528092919081815260200182805461359490614735565b80156135e15780601f106135b6576101008083540402835291602001916135e1565b820191906000526020600020905b8154815290600101906020018083116135c457829003601f168201915b5050505050613eb5565b15613604576005826135fd91906145d3565b91506139b2565b6136e083600183613615919061479e565b60ff16815181106136295761362861454b565b5b602002602001015160058360ff16815481106136485761364761454b565b5b90600052602060002001805461365d90614735565b80601f016020809104026020016040519081016040528092919081815260200182805461368990614735565b80156136d65780601f106136ab576101008083540402835291602001916136d6565b820191906000526020600020905b8154815290600101906020018083116136b957829003601f168201915b5050505050613eb5565b806137c357506137c2836001836136f79190614767565b60ff168151811061370b5761370a61454b565b5b602002602001015160058360ff168154811061372a5761372961454b565b5b90600052602060002001805461373f90614735565b80601f016020809104026020016040519081016040528092919081815260200182805461376b90614735565b80156137b85780601f1061378d576101008083540402835291602001916137b8565b820191906000526020600020905b81548152906001019060200180831161379b57829003601f168201915b5050505050613eb5565b5b156137dc576003826137d591906145d3565b91506139b1565b6138b8836002836137ed919061479e565b60ff16815181106138015761380061454b565b5b602002602001015160058360ff16815481106138205761381f61454b565b5b90600052602060002001805461383590614735565b80601f016020809104026020016040519081016040528092919081815260200182805461386190614735565b80156138ae5780601f10613883576101008083540402835291602001916138ae565b820191906000526020600020905b81548152906001019060200180831161389157829003601f168201915b5050505050613eb5565b8061399b575061399a836002836138cf9190614767565b60ff16815181106138e3576138e261454b565b5b602002602001015160058360ff16815481106139025761390161454b565b5b90600052602060002001805461391790614735565b80601f016020809104026020016040519081016040528092919081815260200182805461394390614735565b80156139905780601f1061396557610100808354040283529160200191613990565b820191906000526020600020905b81548152906001019060200180831161397357829003601f168201915b5050505050613eb5565b5b156139b0576001826139ad91906145d3565b91505b5b5b5b5b5b5b80806139c1906145a9565b91505061279d565b508060008060018660ff16815481106139e5576139e461454b565b5b9060005260206000200160009054906101000a900473ffffffffffffffffffffffffffffffffffffffff1673ffffffffffffffffffffffffffffffffffffffff1673ffffffffffffffffffffffffffffffffffffffff1681526020019081526020016000206004018190555050508080613a5e906145a9565b915050612633565b50565b60005b6001805490508160ff161015613bca57600080600060018460ff1681548110613a9857613a9761454b565b5b9060005260206000200160009054906101000a900473ffffffffffffffffffffffffffffffffffffffff1673ffffffffffffffffffffffffffffffffffffffff1673ffffffffffffffffffffffffffffffffffffffff16815260200190815260200160002060020160009054906101000a900460ff1690508060ff16600660009054906101000a900460ff1660ff161415613bb657600460008060018560ff1681548110613b4957613b4861454b565b5b9060005260206000200160009054906101000a900473ffffffffffffffffffffffffffffffffffffffff1673ffffffffffffffffffffffffffffffffffffffff1673ffffffffffffffffffffffffffffffffffffffff168152602001908152602001600020600501819055505b508080613bc2906145a9565b915050613a6c565b50565b6000805b6001805490508160ff161015613eb157600080600060018460ff1681548110613bfd57613bfc61454b565b5b9060005260206000200160009054906101000a900473ffffffffffffffffffffffffffffffffffffffff1673ffffffffffffffffffffffffffffffffffffffff1673ffffffffffffffffffffffffffffffffffffffff1681526020019081526020016000206005015460008060018560ff1681548110613c8057613c7f61454b565b5b9060005260206000200160009054906101000a900473ffffffffffffffffffffffffffffffffffffffff1673ffffffffffffffffffffffffffffffffffffffff1673ffffffffffffffffffffffffffffffffffffffff1681526020019081526020016000206004015460008060018660ff1681548110613d0357613d0261454b565b5b9060005260206000200160009054906101000a900473ffffffffffffffffffffffffffffffffffffffff1673ffffffffffffffffffffffffffffffffffffffff1673ffffffffffffffffffffffffffffffffffffffff16815260200190815260200160002060030154613d7691906145d3565b613d8091906145d3565b90508060008060018560ff1681548110613d9d57613d9c61454b565b5b9060005260206000200160009054906101000a900473ffffffffffffffffffffffffffffffffffffffff1673ffffffffffffffffffffffffffffffffffffffff1673ffffffffffffffffffffffffffffffffffffffff1681526020019081526020016000206006018190555080831015613e9d57809250600060018360ff1681548110613e2d57613e2c61454b565b5b9060005260206000200160009054906101000a900473ffffffffffffffffffffffffffffffffffffffff16905080600260006101000a81548173ffffffffffffffffffffffffffffffffffffffff021916908373ffffffffffffffffffffffffffffffffffffffff160217905550505b508080613ea9906145a9565b915050613bd1565b5050565b600081604051602001613ec89190614880565b6040516020818303038152906040528051906020012083604051602001613eef9190614880565b604051602081830303815290604052805190602001201415613f145760019050613f19565b600090505b92915050565b828054828255906000526020600020908101928215613f6e579160200282015b82811115613f6d578251829080519060200190613f5d929190613f7f565b5091602001919060010190613f3f565b5b509050613f7b9190614005565b5090565b828054613f8b90614735565b90600052602060002090601f016020900481019282613fad5760008555613ff4565b82601f10613fc657805160ff1916838001178555613ff4565b82800160010185558215613ff4579182015b82811115613ff3578251825591602001919060010190613fd8565b5b5090506140019190614029565b5090565b5b80821115614025576000818161401c9190614046565b50600101614006565b5090565b5b8082111561404257600081600090555060010161402a565b5090565b50805461405290614735565b6000825580601f106140645750614083565b601f0160209004906000526020600020908101906140829190614029565b5b50565b6000604051905090565b600080fd5b600080fd5b600080fd5b6000601f19601f8301169050919050565b7f4e487b7100000000000000000000000000000000000000000000000000000000600052604160045260246000fd5b6140e88261409f565b810181811067ffffffffffffffff82111715614107576141066140b0565b5b80604052505050565b600061411a614086565b905061412682826140df565b919050565b600067ffffffffffffffff821115614146576141456140b0565b5b602082029050602081019050919050565b600080fd5b600080fd5b600067ffffffffffffffff82111561417c5761417b6140b0565b5b6141858261409f565b9050602081019050919050565b82818337600083830152505050565b60006141b46141af84614161565b614110565b9050828152602081018484840111156141d0576141cf61415c565b5b6141db848285614192565b509392505050565b600082601f8301126141f8576141f761409a565b5b81356142088482602086016141a1565b91505092915050565b600061422461421f8461412b565b614110565b9050808382526020820190506020840283018581111561424757614246614157565b5b835b8181101561428e57803567ffffffffffffffff81111561426c5761426b61409a565b5b80860161427989826141e3565b85526020850194505050602081019050614249565b5050509392505050565b600082601f8301126142ad576142ac61409a565b5b81356142bd848260208601614211565b91505092915050565b6000602082840312156142dc576142db614090565b5b600082013567ffffffffffffffff8111156142fa576142f9614095565b5b61430684828501614298565b91505092915050565b6000819050919050565b6143228161430f565b82525050565b600060208201905061433d6000830184614319565b92915050565b600073ffffffffffffffffffffffffffffffffffffffff82169050919050565b600061436e82614343565b9050919050565b61437e81614363565b82525050565b60006020820190506143996000830184614375565b92915050565b600060ff82169050919050565b6143b58161439f565b81146143c057600080fd5b50565b6000813590506143d2816143ac565b92915050565b6000602082840312156143ee576143ed614090565b5b60006143fc848285016143c3565b91505092915050565b600081519050919050565b600082825260208201905092915050565b6000819050602082019050919050565b61443a81614363565b82525050565b600061444c8383614431565b60208301905092915050565b6000602082019050919050565b600061447082614405565b61447a8185614410565b935061448583614421565b8060005b838110156144b657815161449d8882614440565b97506144a883614458565b925050600181019050614489565b5085935050505092915050565b600060208201905081810360008301526144dd8184614465565b905092915050565b60006144f082614343565b9050919050565b614500816144e5565b82525050565b600060208201905061451b60008301846144f7565b92915050565b61452a8161439f565b82525050565b60006020820190506145456000830184614521565b92915050565b7f4e487b7100000000000000000000000000000000000000000000000000000000600052603260045260246000fd5b7f4e487b7100000000000000000000000000000000000000000000000000000000600052601160045260246000fd5b60006145b48261439f565b915060ff8214156145c8576145c761457a565b5b600182019050919050565b60006145de8261430f565b91506145e98361430f565b9250827fffffffffffffffffffffffffffffffffffffffffffffffffffffffffffffffff0382111561461e5761461d61457a565b5b828201905092915050565b7f4e487b7100000000000000000000000000000000000000000000000000000000600052601260045260246000fd5b60006146638261430f565b915061466e8361430f565b92508261467e5761467d614629565b5b828204905092915050565b600082825260208201905092915050565b7f436f6e74657374616e7420697320616c7261647920696e207468652062657400600082015250565b60006146d0601f83614689565b91506146db8261469a565b602082019050919050565b600060208201905081810360008301526146ff816146c3565b9050919050565b7f4e487b7100000000000000000000000000000000000000000000000000000000600052602260045260246000fd5b6000600282049050600182168061474d57607f821691505b6020821081141561476157614760614706565b5b50919050565b60006147728261439f565b915061477d8361439f565b92508260ff038211156147935761479261457a565b5b828201905092915050565b60006147a98261439f565b91506147b48361439f565b9250828210156147c7576147c661457a565b5b828203905092915050565b60006147dd8261430f565b91506147e88361430f565b9250828210156147fb576147fa61457a565b5b828203905092915050565b600081519050919050565b600081905092915050565b60005b8381101561483a57808201518184015260208101905061481f565b83811115614849576000848401525b50505050565b600061485a82614806565b6148648185614811565b935061487481856020860161481c565b80840191505092915050565b600061488c828461484f565b91508190509291505056fea26469706673582212209925fa3e93192dce26cd6d562f1cd54cbfaf77dae43f24223618a79e54736ecf64736f6c634300080b0033","opcodes":"PUSH1 0x80 PUSH1 0x40 MSTORE CALLVALUE DUP1 ISZERO PUSH3 0x11 JUMPI PUSH1 0x0 DUP1 REVERT JUMPDEST POP PUSH1 0x40 MLOAD PUSH3 0x49D5 CODESIZE SUB DUP1 PUSH3 0x49D5 DUP4 CODECOPY DUP2 DUP2 ADD PUSH1 0x40 MSTORE DUP2 ADD SWAP1 PUSH3 0x37 SWAP2 SWAP1 PUSH3 0xC6 JUMP JUMPDEST CALLER PUSH1 0x6 PUSH1 0x1 PUSH2 0x100 EXP DUP2 SLOAD DUP2 PUSH20 0xFFFFFFFFFFFFFFFFFFFFFFFFFFFFFFFFFFFFFFFF MUL NOT AND SWAP1 DUP4 PUSH20 0xFFFFFFFFFFFFFFFFFFFFFFFFFFFFFFFFFFFFFFFF AND MUL OR SWAP1 SSTORE POP DUP1 PUSH1 0x7 DUP2 SWAP1 SSTORE POP POP PUSH3 0xF8 JUMP JUMPDEST PUSH1 0x0 DUP1 REVERT JUMPDEST PUSH1 0x0 DUP2 SWAP1 POP SWAP2 SWAP1 POP JUMP JUMPDEST PUSH3 0xA0 DUP2 PUSH3 0x8B JUMP JUMPDEST DUP2 EQ PUSH3 0xAC JUMPI PUSH1 0x0 DUP1 REVERT JUMPDEST POP JUMP JUMPDEST PUSH1 0x0 DUP2 MLOAD SWAP1 POP PUSH3 0xC0 DUP2 PUSH3 0x95 JUMP JUMPDEST SWAP3 SWAP2 POP POP JUMP JUMPDEST PUSH1 0x0 PUSH1 0x20 DUP3 DUP5 SUB SLT ISZERO PUSH3 0xDF JUMPI PUSH3 0xDE PUSH3 0x86 JUMP JUMPDEST JUMPDEST PUSH1 0x0 PUSH3 0xEF DUP5 DUP3 DUP6 ADD PUSH3 0xAF JUMP JUMPDEST SWAP2 POP POP SWAP3 SWAP2 POP POP JUMP JUMPDEST PUSH2 0x48CD DUP1 PUSH3 0x108 PUSH1 0x0 CODECOPY PUSH1 0x0 RETURN INVALID PUSH1 0x80 PUSH1 0x40 MSTORE PUSH1 0x4 CALLDATASIZE LT PUSH2 0x109 JUMPI PUSH1 0x0 CALLDATALOAD PUSH1 0xE0 SHR DUP1 PUSH4 0x7F36EA24 GT PUSH2 0x95 JUMPI DUP1 PUSH4 0xC10196FA GT PUSH2 0x64 JUMPI DUP1 PUSH4 0xC10196FA EQ PUSH2 0x2DD JUMPI DUP1 PUSH4 0xC8FE2134 EQ PUSH2 0x308 JUMPI DUP1 PUSH4 0xDFBF53AE EQ PUSH2 0x331 JUMPI DUP1 PUSH4 0xEF9884E4 EQ PUSH2 0x35C JUMPI DUP1 PUSH4 0xF1D78C84 EQ PUSH2 0x387 JUMPI PUSH2 0x109 JUMP JUMPDEST DUP1 PUSH4 0x7F36EA24 EQ PUSH2 0x275 JUMPI DUP1 PUSH4 0xA388D1CD EQ PUSH2 0x27F JUMPI DUP1 PUSH4 0xB12038F4 EQ PUSH2 0x2AA JUMPI DUP1 PUSH4 0xBB427D8A EQ PUSH2 0x2D3 JUMPI PUSH2 0x109 JUMP JUMPDEST DUP1 PUSH4 0x481C6A75 GT PUSH2 0xDC JUMPI DUP1 PUSH4 0x481C6A75 EQ PUSH2 0x1A4 JUMPI DUP1 PUSH4 0x55DB72EA EQ PUSH2 0x1CF JUMPI DUP1 PUSH4 0x65046E8C EQ PUSH2 0x1F8 JUMPI DUP1 PUSH4 0x77BC91F5 EQ PUSH2 0x221 JUMPI DUP1 PUSH4 0x7AF448F2 EQ PUSH2 0x24A JUMPI PUSH2 0x109 JUMP JUMPDEST DUP1 PUSH4 0x9221B3A EQ PUSH2 0x10E JUMPI DUP1 PUSH4 0x96C705D EQ PUSH2 0x137 JUMPI DUP1 PUSH4 0x11610C25 EQ PUSH2 0x162 JUMPI DUP1 PUSH4 0x2CCB0D1E EQ PUSH2 0x18D JUMPI JUMPDEST PUSH1 0x0 DUP1 REVERT JUMPDEST CALLVALUE DUP1 ISZERO PUSH2 0x11A JUMPI PUSH1 0x0 DUP1 REVERT JUMPDEST POP PUSH2 0x135 PUSH1 0x4 DUP1 CALLDATASIZE SUB DUP2 ADD SWAP1 PUSH2 0x130 SWAP2 SWAP1 PUSH2 0x42C6 JUMP JUMPDEST PUSH2 0x3B2 JUMP JUMPDEST STOP JUMPDEST CALLVALUE DUP1 ISZERO PUSH2 0x143 JUMPI PUSH1 0x0 DUP1 REVERT JUMPDEST POP PUSH2 0x14C PUSH2 0x519 JUMP JUMPDEST PUSH1 0x40 MLOAD PUSH2 0x159 SWAP2 SWAP1 PUSH2 0x4328 JUMP JUMPDEST PUSH1 0x40 MLOAD DUP1 SWAP2 SUB SWAP1 RETURN JUMPDEST CALLVALUE DUP1 ISZERO PUSH2 0x16E JUMPI PUSH1 0x0 DUP1 REVERT JUMPDEST POP PUSH2 0x177 PUSH2 0x60D JUMP JUMPDEST PUSH1 0x40 MLOAD PUSH2 0x184 SWAP2 SWAP1 PUSH2 0x4328 JUMP JUMPDEST PUSH1 0x40 MLOAD DUP1 SWAP2 SUB SWAP1 RETURN JUMPDEST CALLVALUE DUP1 ISZERO PUSH2 0x199 JUMPI PUSH1 0x0 DUP1 REVERT JUMPDEST POP PUSH2 0x1A2 PUSH2 0x613 JUMP JUMPDEST STOP JUMPDEST CALLVALUE DUP1 ISZERO PUSH2 0x1B0 JUMPI PUSH1 0x0 DUP1 REVERT JUMPDEST POP PUSH2 0x1B9 PUSH2 0x6E4 JUMP JUMPDEST PUSH1 0x40 MLOAD PUSH2 0x1C6 SWAP2 SWAP1 PUSH2 0x4384 JUMP JUMPDEST PUSH1 0x40 MLOAD DUP1 SWAP2 SUB SWAP1 RETURN JUMPDEST CALLVALUE DUP1 ISZERO PUSH2 0x1DB JUMPI PUSH1 0x0 DUP1 REVERT JUMPDEST POP PUSH2 0x1F6 PUSH1 0x4 DUP1 CALLDATASIZE SUB DUP2 ADD SWAP1 PUSH2 0x1F1 SWAP2 SWAP1 PUSH2 0x43D8 JUMP JUMPDEST PUSH2 0x70A JUMP JUMPDEST STOP JUMPDEST CALLVALUE DUP1 ISZERO PUSH2 0x204 JUMPI PUSH1 0x0 DUP1 REVERT JUMPDEST POP PUSH2 0x21F PUSH1 0x4 DUP1 CALLDATASIZE SUB DUP2 ADD SWAP1 PUSH2 0x21A SWAP2 SWAP1 PUSH2 0x42C6 JUMP JUMPDEST PUSH2 0x782 JUMP JUMPDEST STOP JUMPDEST CALLVALUE DUP1 ISZERO PUSH2 0x22D JUMPI PUSH1 0x0 DUP1 REVERT JUMPDEST POP PUSH2 0x248 PUSH1 0x4 DUP1 CALLDATASIZE SUB DUP2 ADD SWAP1 PUSH2 0x243 SWAP2 SWAP1 PUSH2 0x43D8 JUMP JUMPDEST PUSH2 0x7F6 JUMP JUMPDEST STOP JUMPDEST CALLVALUE DUP1 ISZERO PUSH2 0x256 JUMPI PUSH1 0x0 DUP1 REVERT JUMPDEST POP PUSH2 0x25F PUSH2 0x913 JUMP JUMPDEST PUSH1 0x40 MLOAD PUSH2 0x26C SWAP2 SWAP1 PUSH2 0x4328 JUMP JUMPDEST PUSH1 0x40 MLOAD DUP1 SWAP2 SUB SWAP1 RETURN JUMPDEST PUSH2 0x27D PUSH2 0xA07 JUMP JUMPDEST STOP JUMPDEST CALLVALUE DUP1 ISZERO PUSH2 0x28B JUMPI PUSH1 0x0 DUP1 REVERT JUMPDEST POP PUSH2 0x294 PUSH2 0xC0C JUMP JUMPDEST PUSH1 0x40 MLOAD PUSH2 0x2A1 SWAP2 SWAP1 PUSH2 0x4328 JUMP JUMPDEST PUSH1 0x40 MLOAD DUP1 SWAP2 SUB SWAP1 RETURN JUMPDEST CALLVALUE DUP1 ISZERO PUSH2 0x2B6 JUMPI PUSH1 0x0 DUP1 REVERT JUMPDEST POP PUSH2 0x2D1 PUSH1 0x4 DUP1 CALLDATASIZE SUB DUP2 ADD SWAP1 PUSH2 0x2CC SWAP2 SWAP1 PUSH2 0x42C6 JUMP JUMPDEST PUSH2 0xD00 JUMP JUMPDEST STOP JUMPDEST PUSH2 0x2DB PUSH2 0xE67 JUMP JUMPDEST STOP JUMPDEST CALLVALUE DUP1 ISZERO PUSH2 0x2E9 JUMPI PUSH1 0x0 DUP1 REVERT JUMPDEST POP PUSH2 0x2F2 PUSH2 0xFC8 JUMP JUMPDEST PUSH1 0x40 MLOAD PUSH2 0x2FF SWAP2 SWAP1 PUSH2 0x44C3 JUMP JUMPDEST PUSH1 0x40 MLOAD DUP1 SWAP2 SUB SWAP1 RETURN JUMPDEST CALLVALUE DUP1 ISZERO PUSH2 0x314 JUMPI PUSH1 0x0 DUP1 REVERT JUMPDEST POP PUSH2 0x32F PUSH1 0x4 DUP1 CALLDATASIZE SUB DUP2 ADD SWAP1 PUSH2 0x32A SWAP2 SWAP1 PUSH2 0x42C6 JUMP JUMPDEST PUSH2 0x1056 JUMP JUMPDEST STOP JUMPDEST CALLVALUE DUP1 ISZERO PUSH2 0x33D JUMPI PUSH1 0x0 DUP1 REVERT JUMPDEST POP PUSH2 0x346 PUSH2 0x10CA JUMP JUMPDEST PUSH1 0x40 MLOAD PUSH2 0x353 SWAP2 SWAP1 PUSH2 0x4506 JUMP JUMPDEST PUSH1 0x40 MLOAD DUP1 SWAP2 SUB SWAP1 RETURN JUMPDEST CALLVALUE DUP1 ISZERO PUSH2 0x368 JUMPI PUSH1 0x0 DUP1 REVERT JUMPDEST POP PUSH2 0x371 PUSH2 0x10F0 JUMP JUMPDEST PUSH1 0x40 MLOAD PUSH2 0x37E SWAP2 SWAP1 PUSH2 0x4328 JUMP JUMPDEST PUSH1 0x40 MLOAD DUP1 SWAP2 SUB SWAP1 RETURN JUMPDEST CALLVALUE DUP1 ISZERO PUSH2 0x393 JUMPI PUSH1 0x0 DUP1 REVERT JUMPDEST POP PUSH2 0x39C PUSH2 0x11E4 JUMP JUMPDEST PUSH1 0x40 MLOAD PUSH2 0x3A9 SWAP2 SWAP1 PUSH2 0x4530 JUMP JUMPDEST PUSH1 0x40 MLOAD DUP1 SWAP2 SUB SWAP1 RETURN JUMPDEST PUSH1 0x0 DUP1 PUSH1 0x0 SWAP1 POP JUMPDEST PUSH1 0x1 DUP1 SLOAD SWAP1 POP DUP2 PUSH1 0xFF AND LT ISZERO PUSH2 0x455 JUMPI CALLER PUSH20 0xFFFFFFFFFFFFFFFFFFFFFFFFFFFFFFFFFFFFFFFF AND PUSH1 0x1 DUP3 PUSH1 0xFF AND DUP2 SLOAD DUP2 LT PUSH2 0x3F8 JUMPI PUSH2 0x3F7 PUSH2 0x454B JUMP JUMPDEST JUMPDEST SWAP1 PUSH1 0x0 MSTORE PUSH1 0x20 PUSH1 0x0 KECCAK256 ADD PUSH1 0x0 SWAP1 SLOAD SWAP1 PUSH2 0x100 EXP SWAP1 DIV PUSH20 0xFFFFFFFFFFFFFFFFFFFFFFFFFFFFFFFFFFFFFFFF AND PUSH20 0xFFFFFFFFFFFFFFFFFFFFFFFFFFFFFFFFFFFFFFFF AND EQ ISZERO PUSH2 0x444 JUMPI PUSH1 0x1 SWAP2 POP JUMPDEST DUP1 PUSH2 0x44E SWAP1 PUSH2 0x45A9 JUMP JUMPDEST SWAP1 POP PUSH2 0x3BA JUMP JUMPDEST POP DUP1 PUSH2 0x460 JUMPI PUSH1 0x0 DUP1 REVERT JUMPDEST PUSH1 0xA DUP3 MLOAD EQ PUSH2 0x46E JUMPI PUSH1 0x0 DUP1 REVERT JUMPDEST PUSH1 0x0 DUP1 PUSH1 0x0 CALLER PUSH20 0xFFFFFFFFFFFFFFFFFFFFFFFFFFFFFFFFFFFFFFFF AND PUSH20 0xFFFFFFFFFFFFFFFFFFFFFFFFFFFFFFFFFFFFFFFF AND DUP2 MSTORE PUSH1 0x20 ADD SWAP1 DUP2 MSTORE PUSH1 0x20 ADD PUSH1 0x0 KECCAK256 PUSH1 0x0 ADD DUP1 SLOAD SWAP1 POP EQ PUSH2 0x4BF JUMPI PUSH1 0x0 DUP1 REVERT JUMPDEST DUP2 PUSH1 0x0 DUP1 CALLER PUSH20 0xFFFFFFFFFFFFFFFFFFFFFFFFFFFFFFFFFFFFFFFF AND PUSH20 0xFFFFFFFFFFFFFFFFFFFFFFFFFFFFFFFFFFFFFFFF AND DUP2 MSTORE PUSH1 0x20 ADD SWAP1 DUP2 MSTORE PUSH1 0x20 ADD PUSH1 0x0 KECCAK256 PUSH1 0x0 ADD SWAP1 DUP1 MLOAD SWAP1 PUSH1 0x20 ADD SWAP1 PUSH2 0x514 SWAP3 SWAP2 SWAP1 PUSH2 0x3F1F JUMP JUMPDEST POP POP POP JUMP JUMPDEST PUSH1 0x0 DUP1 PUSH1 0x0 JUMPDEST PUSH1 0x1 DUP1 SLOAD SWAP1 POP DUP2 PUSH1 0xFF AND LT ISZERO PUSH2 0x5BA JUMPI CALLER PUSH20 0xFFFFFFFFFFFFFFFFFFFFFFFFFFFFFFFFFFFFFFFF AND PUSH1 0x1 DUP3 PUSH1 0xFF AND DUP2 SLOAD DUP2 LT PUSH2 0x55D JUMPI PUSH2 0x55C PUSH2 0x454B JUMP JUMPDEST JUMPDEST SWAP1 PUSH1 0x0 MSTORE PUSH1 0x20 PUSH1 0x0 KECCAK256 ADD PUSH1 0x0 SWAP1 SLOAD SWAP1 PUSH2 0x100 EXP SWAP1 DIV PUSH20 0xFFFFFFFFFFFFFFFFFFFFFFFFFFFFFFFFFFFFFFFF AND PUSH20 0xFFFFFFFFFFFFFFFFFFFFFFFFFFFFFFFFFFFFFFFF AND EQ ISZERO PUSH2 0x5A9 JUMPI PUSH1 0x1 SWAP2 POP JUMPDEST DUP1 PUSH2 0x5B3 SWAP1 PUSH2 0x45A9 JUMP JUMPDEST SWAP1 POP PUSH2 0x51F JUMP JUMPDEST POP DUP1 PUSH2 0x5C5 JUMPI PUSH1 0x0 DUP1 REVERT JUMPDEST PUSH1 0x0 DUP1 CALLER PUSH20 0xFFFFFFFFFFFFFFFFFFFFFFFFFFFFFFFFFFFFFFFF AND PUSH20 0xFFFFFFFFFFFFFFFFFFFFFFFFFFFFFFFFFFFFFFFF AND DUP2 MSTORE PUSH1 0x20 ADD SWAP1 DUP2 MSTORE PUSH1 0x20 ADD PUSH1 0x0 KECCAK256 PUSH1 0x4 ADD SLOAD SWAP2 POP POP SWAP1 JUMP JUMPDEST PUSH1 0x7 SLOAD DUP2 JUMP JUMPDEST PUSH1 0x0 DUP1 PUSH1 0x0 SWAP1 POP JUMPDEST PUSH1 0x1 DUP1 SLOAD SWAP1 POP DUP2 PUSH1 0xFF AND LT ISZERO PUSH2 0x6B6 JUMPI CALLER PUSH20 0xFFFFFFFFFFFFFFFFFFFFFFFFFFFFFFFFFFFFFFFF AND PUSH1 0x1 DUP3 PUSH1 0xFF AND DUP2 SLOAD DUP2 LT PUSH2 0x659 JUMPI PUSH2 0x658 PUSH2 0x454B JUMP JUMPDEST JUMPDEST SWAP1 PUSH1 0x0 MSTORE PUSH1 0x20 PUSH1 0x0 KECCAK256 ADD PUSH1 0x0 SWAP1 SLOAD SWAP1 PUSH2 0x100 EXP SWAP1 DIV PUSH20 0xFFFFFFFFFFFFFFFFFFFFFFFFFFFFFFFFFFFFFFFF AND PUSH20 0xFFFFFFFFFFFFFFFFFFFFFFFFFFFFFFFFFFFFFFFF AND EQ ISZERO PUSH2 0x6A5 JUMPI PUSH1 0x1 SWAP2 POP JUMPDEST DUP1 PUSH2 0x6AF SWAP1 PUSH2 0x45A9 JUMP JUMPDEST SWAP1 POP PUSH2 0x61B JUMP JUMPDEST POP DUP1 PUSH2 0x6C1 JUMPI PUSH1 0x0 DUP1 REVERT JUMPDEST PUSH2 0x6C9 PUSH2 0x11F7 JUMP JUMPDEST PUSH2 0x6D1 PUSH2 0x2630 JUMP JUMPDEST PUSH2 0x6D9 PUSH2 0x3A69 JUMP JUMPDEST PUSH2 0x6E1 PUSH2 0x3BCD JUMP JUMPDEST POP JUMP JUMPDEST PUSH1 0x6 PUSH1 0x1 SWAP1 SLOAD SWAP1 PUSH2 0x100 EXP SWAP1 DIV PUSH20 0xFFFFFFFFFFFFFFFFFFFFFFFFFFFFFFFFFFFFFFFF AND DUP2 JUMP JUMPDEST PUSH1 0x6 PUSH1 0x1 SWAP1 SLOAD SWAP1 PUSH2 0x100 EXP SWAP1 DIV PUSH20 0xFFFFFFFFFFFFFFFFFFFFFFFFFFFFFFFFFFFFFFFF AND PUSH20 0xFFFFFFFFFFFFFFFFFFFFFFFFFFFFFFFFFFFFFFFF AND CALLER PUSH20 0xFFFFFFFFFFFFFFFFFFFFFFFFFFFFFFFFFFFFFFFF AND EQ PUSH2 0x764 JUMPI PUSH1 0x0 DUP1 REVERT JUMPDEST DUP1 PUSH1 0x6 PUSH1 0x0 PUSH2 0x100 EXP DUP2 SLOAD DUP2 PUSH1 0xFF MUL NOT AND SWAP1 DUP4 PUSH1 0xFF AND MUL OR SWAP1 SSTORE POP POP JUMP JUMPDEST PUSH1 0x6 PUSH1 0x1 SWAP1 SLOAD SWAP1 PUSH2 0x100 EXP SWAP1 DIV PUSH20 0xFFFFFFFFFFFFFFFFFFFFFFFFFFFFFFFFFFFFFFFF AND PUSH20 0xFFFFFFFFFFFFFFFFFFFFFFFFFFFFFFFFFFFFFFFF AND CALLER PUSH20 0xFFFFFFFFFFFFFFFFFFFFFFFFFFFFFFFFFFFFFFFF AND EQ PUSH2 0x7DC JUMPI PUSH1 0x0 DUP1 REVERT JUMPDEST DUP1 PUSH1 0x5 SWAP1 DUP1 MLOAD SWAP1 PUSH1 0x20 ADD SWAP1 PUSH2 0x7F2 SWAP3 SWAP2 SWAP1 PUSH2 0x3F1F JUMP JUMPDEST POP POP JUMP JUMPDEST PUSH1 0x0 DUP1 PUSH1 0x0 SWAP1 POP JUMPDEST PUSH1 0x1 DUP1 SLOAD SWAP1 POP DUP2 PUSH1 0xFF AND LT ISZERO PUSH2 0x899 JUMPI CALLER PUSH20 0xFFFFFFFFFFFFFFFFFFFFFFFFFFFFFFFFFFFFFFFF AND PUSH1 0x1 DUP3 PUSH1 0xFF AND DUP2 SLOAD DUP2 LT PUSH2 0x83C JUMPI PUSH2 0x83B PUSH2 0x454B JUMP JUMPDEST JUMPDEST SWAP1 PUSH1 0x0 MSTORE PUSH1 0x20 PUSH1 0x0 KECCAK256 ADD PUSH1 0x0 SWAP1 SLOAD SWAP1 PUSH2 0x100 EXP SWAP1 DIV PUSH20 0xFFFFFFFFFFFFFFFFFFFFFFFFFFFFFFFFFFFFFFFF AND PUSH20 0xFFFFFFFFFFFFFFFFFFFFFFFFFFFFFFFFFFFFFFFF AND EQ ISZERO PUSH2 0x888 JUMPI PUSH1 0x1 SWAP2 POP JUMPDEST DUP1 PUSH2 0x892 SWAP1 PUSH2 0x45A9 JUMP JUMPDEST SWAP1 POP PUSH2 0x7FE JUMP JUMPDEST POP DUP1 PUSH2 0x8A4 JUMPI PUSH1 0x0 DUP1 REVERT JUMPDEST PUSH1 0x0 DUP3 PUSH1 0xFF AND LT ISZERO PUSH2 0x8B5 JUMPI PUSH1 0x0 DUP1 REVERT JUMPDEST DUP2 PUSH1 0x0 DUP1 CALLER PUSH20 0xFFFFFFFFFFFFFFFFFFFFFFFFFFFFFFFFFFFFFFFF AND PUSH20 0xFFFFFFFFFFFFFFFFFFFFFFFFFFFFFFFFFFFFFFFF AND DUP2 MSTORE PUSH1 0x20 ADD SWAP1 DUP2 MSTORE PUSH1 0x20 ADD PUSH1 0x0 KECCAK256 PUSH1 0x2 ADD PUSH1 0x0 PUSH2 0x100 EXP DUP2 SLOAD DUP2 PUSH1 0xFF MUL NOT AND SWAP1 DUP4 PUSH1 0xFF AND MUL OR SWAP1 SSTORE POP POP POP JUMP JUMPDEST PUSH1 0x0 DUP1 PUSH1 0x0 JUMPDEST PUSH1 0x1 DUP1 SLOAD SWAP1 POP DUP2 PUSH1 0xFF AND LT ISZERO PUSH2 0x9B4 JUMPI CALLER PUSH20 0xFFFFFFFFFFFFFFFFFFFFFFFFFFFFFFFFFFFFFFFF AND PUSH1 0x1 DUP3 PUSH1 0xFF AND DUP2 SLOAD DUP2 LT PUSH2 0x957 JUMPI PUSH2 0x956 PUSH2 0x454B JUMP JUMPDEST JUMPDEST SWAP1 PUSH1 0x0 MSTORE PUSH1 0x20 PUSH1 0x0 KECCAK256 ADD PUSH1 0x0 SWAP1 SLOAD SWAP1 PUSH2 0x100 EXP SWAP1 DIV PUSH20 0xFFFFFFFFFFFFFFFFFFFFFFFFFFFFFFFFFFFFFFFF AND PUSH20 0xFFFFFFFFFFFFFFFFFFFFFFFFFFFFFFFFFFFFFFFF AND EQ ISZERO PUSH2 0x9A3 JUMPI PUSH1 0x1 SWAP2 POP JUMPDEST DUP1 PUSH2 0x9AD SWAP1 PUSH2 0x45A9 JUMP JUMPDEST SWAP1 POP PUSH2 0x919 JUMP JUMPDEST POP DUP1 PUSH2 0x9BF JUMPI PUSH1 0x0 DUP1 REVERT JUMPDEST PUSH1 0x0 DUP1 CALLER PUSH20 0xFFFFFFFFFFFFFFFFFFFFFFFFFFFFFFFFFFFFFFFF AND PUSH20 0xFFFFFFFFFFFFFFFFFFFFFFFFFFFFFFFFFFFFFFFF AND DUP2 MSTORE PUSH1 0x20 ADD SWAP1 DUP2 MSTORE PUSH1 0x20 ADD PUSH1 0x0 KECCAK256 PUSH1 0x3 ADD SLOAD SWAP2 POP POP SWAP1 JUMP JUMPDEST PUSH1 0x0 DUP1 PUSH1 0x0 SWAP1 POP JUMPDEST PUSH1 0x1 DUP1 SLOAD SWAP1 POP DUP2 PUSH1 0xFF AND LT ISZERO PUSH2 0xAAA JUMPI CALLER PUSH20 0xFFFFFFFFFFFFFFFFFFFFFFFFFFFFFFFFFFFFFFFF AND PUSH1 0x1 DUP3 PUSH1 0xFF AND DUP2 SLOAD DUP2 LT PUSH2 0xA4D JUMPI PUSH2 0xA4C PUSH2 0x454B JUMP JUMPDEST JUMPDEST SWAP1 PUSH1 0x0 MSTORE PUSH1 0x20 PUSH1 0x0 KECCAK256 ADD PUSH1 0x0 SWAP1 SLOAD SWAP1 PUSH2 0x100 EXP SWAP1 DIV PUSH20 0xFFFFFFFFFFFFFFFFFFFFFFFFFFFFFFFFFFFFFFFF AND PUSH20 0xFFFFFFFFFFFFFFFFFFFFFFFFFFFFFFFFFFFFFFFF AND EQ ISZERO PUSH2 0xA99 JUMPI PUSH1 0x1 SWAP2 POP JUMPDEST DUP1 PUSH2 0xAA3 SWAP1 PUSH2 0x45A9 JUMP JUMPDEST SWAP1 POP PUSH2 0xA0F JUMP JUMPDEST POP DUP1 PUSH2 0xAB5 JUMPI PUSH1 0x0 DUP1 REVERT JUMPDEST PUSH1 0x0 ISZERO ISZERO PUSH1 0x8 PUSH1 0x0 CALLER PUSH20 0xFFFFFFFFFFFFFFFFFFFFFFFFFFFFFFFFFFFFFFFF AND PUSH20 0xFFFFFFFFFFFFFFFFFFFFFFFFFFFFFFFFFFFFFFFF AND DUP2 MSTORE PUSH1 0x20 ADD SWAP1 DUP2 MSTORE PUSH1 0x20 ADD PUSH1 0x0 KECCAK256 PUSH1 0x0 SWAP1 SLOAD SWAP1 PUSH2 0x100 EXP SWAP1 DIV PUSH1 0xFF AND ISZERO ISZERO EQ PUSH2 0xB12 JUMPI PUSH1 0x0 DUP1 REVERT JUMPDEST PUSH1 0x1 PUSH1 0x9 PUSH1 0x0 DUP3 DUP3 SLOAD PUSH2 0xB25 SWAP2 SWAP1 PUSH2 0x45D3 JUMP JUMPDEST SWAP3 POP POP DUP2 SWAP1 SSTORE POP PUSH1 0x1 PUSH1 0x8 PUSH1 0x0 CALLER PUSH20 0xFFFFFFFFFFFFFFFFFFFFFFFFFFFFFFFFFFFFFFFF AND PUSH20 0xFFFFFFFFFFFFFFFFFFFFFFFFFFFFFFFFFFFFFFFF AND DUP2 MSTORE PUSH1 0x20 ADD SWAP1 DUP2 MSTORE PUSH1 0x20 ADD PUSH1 0x0 KECCAK256 PUSH1 0x0 PUSH2 0x100 EXP DUP2 SLOAD DUP2 PUSH1 0xFF MUL NOT AND SWAP1 DUP4 ISZERO ISZERO MUL OR SWAP1 SSTORE POP PUSH1 0x2 PUSH1 0x1 DUP1 SLOAD SWAP1 POP PUSH2 0xB96 SWAP2 SWAP1 PUSH2 0x4658 JUMP JUMPDEST PUSH1 0x9 SLOAD GT ISZERO PUSH2 0xC09 JUMPI PUSH1 0x2 PUSH1 0x0 SWAP1 SLOAD SWAP1 PUSH2 0x100 EXP SWAP1 DIV PUSH20 0xFFFFFFFFFFFFFFFFFFFFFFFFFFFFFFFFFFFFFFFF AND PUSH20 0xFFFFFFFFFFFFFFFFFFFFFFFFFFFFFFFFFFFFFFFF AND PUSH2 0x8FC SELFBALANCE SWAP1 DUP2 ISZERO MUL SWAP1 PUSH1 0x40 MLOAD PUSH1 0x0 PUSH1 0x40 MLOAD DUP1 DUP4 SUB DUP2 DUP6 DUP9 DUP9 CALL SWAP4 POP POP POP POP ISZERO DUP1 ISZERO PUSH2 0xC07 JUMPI RETURNDATASIZE PUSH1 0x0 DUP1 RETURNDATACOPY RETURNDATASIZE PUSH1 0x0 REVERT JUMPDEST POP JUMPDEST POP JUMP JUMPDEST PUSH1 0x0 DUP1 PUSH1 0x0 JUMPDEST PUSH1 0x1 DUP1 SLOAD SWAP1 POP DUP2 PUSH1 0xFF AND LT ISZERO PUSH2 0xCAD JUMPI CALLER PUSH20 0xFFFFFFFFFFFFFFFFFFFFFFFFFFFFFFFFFFFFFFFF AND PUSH1 0x1 DUP3 PUSH1 0xFF AND DUP2 SLOAD DUP2 LT PUSH2 0xC50 JUMPI PUSH2 0xC4F PUSH2 0x454B JUMP JUMPDEST JUMPDEST SWAP1 PUSH1 0x0 MSTORE PUSH1 0x20 PUSH1 0x0 KECCAK256 ADD PUSH1 0x0 SWAP1 SLOAD SWAP1 PUSH2 0x100 EXP SWAP1 DIV PUSH20 0xFFFFFFFFFFFFFFFFFFFFFFFFFFFFFFFFFFFFFFFF AND PUSH20 0xFFFFFFFFFFFFFFFFFFFFFFFFFFFFFFFFFFFFFFFF AND EQ ISZERO PUSH2 0xC9C JUMPI PUSH1 0x1 SWAP2 POP JUMPDEST DUP1 PUSH2 0xCA6 SWAP1 PUSH2 0x45A9 JUMP JUMPDEST SWAP1 POP PUSH2 0xC12 JUMP JUMPDEST POP DUP1 PUSH2 0xCB8 JUMPI PUSH1 0x0 DUP1 REVERT JUMPDEST PUSH1 0x0 DUP1 CALLER PUSH20 0xFFFFFFFFFFFFFFFFFFFFFFFFFFFFFFFFFFFFFFFF AND PUSH20 0xFFFFFFFFFFFFFFFFFFFFFFFFFFFFFFFFFFFFFFFF AND DUP2 MSTORE PUSH1 0x20 ADD SWAP1 DUP2 MSTORE PUSH1 0x20 ADD PUSH1 0x0 KECCAK256 PUSH1 0x5 ADD SLOAD SWAP2 POP POP SWAP1 JUMP JUMPDEST PUSH1 0x0 DUP1 PUSH1 0x0 SWAP1 POP JUMPDEST PUSH1 0x1 DUP1 SLOAD SWAP1 POP DUP2 PUSH1 0xFF AND LT ISZERO PUSH2 0xDA3 JUMPI CALLER PUSH20 0xFFFFFFFFFFFFFFFFFFFFFFFFFFFFFFFFFFFFFFFF AND PUSH1 0x1 DUP3 PUSH1 0xFF AND DUP2 SLOAD DUP2 LT PUSH2 0xD46 JUMPI PUSH2 0xD45 PUSH2 0x454B JUMP JUMPDEST JUMPDEST SWAP1 PUSH1 0x0 MSTORE PUSH1 0x20 PUSH1 0x0 KECCAK256 ADD PUSH1 0x0 SWAP1 SLOAD SWAP1 PUSH2 0x100 EXP SWAP1 DIV PUSH20 0xFFFFFFFFFFFFFFFFFFFFFFFFFFFFFFFFFFFFFFFF AND PUSH20 0xFFFFFFFFFFFFFFFFFFFFFFFFFFFFFFFFFFFFFFFF AND EQ ISZERO PUSH2 0xD92 JUMPI PUSH1 0x1 SWAP2 POP JUMPDEST DUP1 PUSH2 0xD9C SWAP1 PUSH2 0x45A9 JUMP JUMPDEST SWAP1 POP PUSH2 0xD08 JUMP JUMPDEST POP DUP1 PUSH2 0xDAE JUMPI PUSH1 0x0 DUP1 REVERT JUMPDEST PUSH1 0x14 DUP3 MLOAD EQ PUSH2 0xDBC JUMPI PUSH1 0x0 DUP1 REVERT JUMPDEST PUSH1 0x0 DUP1 PUSH1 0x0 CALLER PUSH20 0xFFFFFFFFFFFFFFFFFFFFFFFFFFFFFFFFFFFFFFFF AND PUSH20 0xFFFFFFFFFFFFFFFFFFFFFFFFFFFFFFFFFFFFFFFF AND DUP2 MSTORE PUSH1 0x20 ADD SWAP1 DUP2 MSTORE PUSH1 0x20 ADD PUSH1 0x0 KECCAK256 PUSH1 0x1 ADD DUP1 SLOAD SWAP1 POP EQ PUSH2 0xE0D JUMPI PUSH1 0x0 DUP1 REVERT JUMPDEST DUP2 PUSH1 0x0 DUP1 CALLER PUSH20 0xFFFFFFFFFFFFFFFFFFFFFFFFFFFFFFFFFFFFFFFF AND PUSH20 0xFFFFFFFFFFFFFFFFFFFFFFFFFFFFFFFFFFFFFFFF AND DUP2 MSTORE PUSH1 0x20 ADD SWAP1 DUP2 MSTORE PUSH1 0x20 ADD PUSH1 0x0 KECCAK256 PUSH1 0x1 ADD SWAP1 DUP1 MLOAD SWAP1 PUSH1 0x20 ADD SWAP1 PUSH2 0xE62 SWAP3 SWAP2 SWAP1 PUSH2 0x3F1F JUMP JUMPDEST POP POP POP JUMP JUMPDEST PUSH1 0x0 JUMPDEST PUSH1 0x1 DUP1 SLOAD SWAP1 POP DUP2 PUSH1 0xFF AND LT ISZERO PUSH2 0xF3B JUMPI CALLER PUSH20 0xFFFFFFFFFFFFFFFFFFFFFFFFFFFFFFFFFFFFFFFF AND PUSH1 0x1 DUP3 PUSH1 0xFF AND DUP2 SLOAD DUP2 LT PUSH2 0xEA8 JUMPI PUSH2 0xEA7 PUSH2 0x454B JUMP JUMPDEST JUMPDEST SWAP1 PUSH1 0x0 MSTORE PUSH1 0x20 PUSH1 0x0 KECCAK256 ADD PUSH1 0x0 SWAP1 SLOAD SWAP1 PUSH2 0x100 EXP SWAP1 DIV PUSH20 0xFFFFFFFFFFFFFFFFFFFFFFFFFFFFFFFFFFFFFFFF AND PUSH20 0xFFFFFFFFFFFFFFFFFFFFFFFFFFFFFFFFFFFFFFFF AND EQ ISZERO PUSH2 0xF2A JUMPI PUSH1 0x40 MLOAD PUSH32 0x8C379A000000000000000000000000000000000000000000000000000000000 DUP2 MSTORE PUSH1 0x4 ADD PUSH2 0xF21 SWAP1 PUSH2 0x46E6 JUMP JUMPDEST PUSH1 0x40 MLOAD DUP1 SWAP2 SUB SWAP1 REVERT JUMPDEST DUP1 PUSH2 0xF34 SWAP1 PUSH2 0x45A9 JUMP JUMPDEST SWAP1 POP PUSH2 0xE6A JUMP JUMPDEST POP PUSH1 0x7 SLOAD CALLVALUE GT PUSH2 0xF4A JUMPI PUSH1 0x0 DUP1 REVERT JUMPDEST CALLVALUE PUSH1 0x3 PUSH1 0x0 DUP3 DUP3 SLOAD PUSH2 0xF5C SWAP2 SWAP1 PUSH2 0x45D3 JUMP JUMPDEST SWAP3 POP POP DUP2 SWAP1 SSTORE POP PUSH1 0x1 CALLER SWAP1 DUP1 PUSH1 0x1 DUP2 SLOAD ADD DUP1 DUP3 SSTORE DUP1 SWAP2 POP POP PUSH1 0x1 SWAP1 SUB SWAP1 PUSH1 0x0 MSTORE PUSH1 0x20 PUSH1 0x0 KECCAK256 ADD PUSH1 0x0 SWAP1 SWAP2 SWAP1 SWAP2 SWAP1 SWAP2 PUSH2 0x100 EXP DUP2 SLOAD DUP2 PUSH20 0xFFFFFFFFFFFFFFFFFFFFFFFFFFFFFFFFFFFFFFFF MUL NOT AND SWAP1 DUP4 PUSH20 0xFFFFFFFFFFFFFFFFFFFFFFFFFFFFFFFFFFFFFFFF AND MUL OR SWAP1 SSTORE POP JUMP JUMPDEST PUSH1 0x60 PUSH1 0x1 DUP1 SLOAD DUP1 PUSH1 0x20 MUL PUSH1 0x20 ADD PUSH1 0x40 MLOAD SWAP1 DUP2 ADD PUSH1 0x40 MSTORE DUP1 SWAP3 SWAP2 SWAP1 DUP2 DUP2 MSTORE PUSH1 0x20 ADD DUP3 DUP1 SLOAD DUP1 ISZERO PUSH2 0x104C JUMPI PUSH1 0x20 MUL DUP3 ADD SWAP2 SWAP1 PUSH1 0x0 MSTORE PUSH1 0x20 PUSH1 0x0 KECCAK256 SWAP1 JUMPDEST DUP2 PUSH1 0x0 SWAP1 SLOAD SWAP1 PUSH2 0x100 EXP SWAP1 DIV PUSH20 0xFFFFFFFFFFFFFFFFFFFFFFFFFFFFFFFFFFFFFFFF AND PUSH20 0xFFFFFFFFFFFFFFFFFFFFFFFFFFFFFFFFFFFFFFFF AND DUP2 MSTORE PUSH1 0x20 ADD SWAP1 PUSH1 0x1 ADD SWAP1 DUP1 DUP4 GT PUSH2 0x1002 JUMPI JUMPDEST POP POP POP POP POP SWAP1 POP SWAP1 JUMP JUMPDEST PUSH1 0x6 PUSH1 0x1 SWAP1 SLOAD SWAP1 PUSH2 0x100 EXP SWAP1 DIV PUSH20 0xFFFFFFFFFFFFFFFFFFFFFFFFFFFFFFFFFFFFFFFF AND PUSH20 0xFFFFFFFFFFFFFFFFFFFFFFFFFFFFFFFFFFFFFFFF AND CALLER PUSH20 0xFFFFFFFFFFFFFFFFFFFFFFFFFFFFFFFFFFFFFFFF AND EQ PUSH2 0x10B0 JUMPI PUSH1 0x0 DUP1 REVERT JUMPDEST DUP1 PUSH1 0x4 SWAP1 DUP1 MLOAD SWAP1 PUSH1 0x20 ADD SWAP1 PUSH2 0x10C6 SWAP3 SWAP2 SWAP1 PUSH2 0x3F1F JUMP JUMPDEST POP POP JUMP JUMPDEST PUSH1 0x2 PUSH1 0x0 SWAP1 SLOAD SWAP1 PUSH2 0x100 EXP SWAP1 DIV PUSH20 0xFFFFFFFFFFFFFFFFFFFFFFFFFFFFFFFFFFFFFFFF AND DUP2 JUMP JUMPDEST PUSH1 0x0 DUP1 PUSH1 0x0 JUMPDEST PUSH1 0x1 DUP1 SLOAD SWAP1 POP DUP2 PUSH1 0xFF AND LT ISZERO PUSH2 0x1191 JUMPI CALLER PUSH20 0xFFFFFFFFFFFFFFFFFFFFFFFFFFFFFFFFFFFFFFFF AND PUSH1 0x1 DUP3 PUSH1 0xFF AND DUP2 SLOAD DUP2 LT PUSH2 0x1134 JUMPI PUSH2 0x1133 PUSH2 0x454B JUMP JUMPDEST JUMPDEST SWAP1 PUSH1 0x0 MSTORE PUSH1 0x20 PUSH1 0x0 KECCAK256 ADD PUSH1 0x0 SWAP1 SLOAD SWAP1 PUSH2 0x100 EXP SWAP1 DIV PUSH20 0xFFFFFFFFFFFFFFFFFFFFFFFFFFFFFFFFFFFFFFFF AND PUSH20 0xFFFFFFFFFFFFFFFFFFFFFFFFFFFFFFFFFFFFFFFF AND EQ ISZERO PUSH2 0x1180 JUMPI PUSH1 0x1 SWAP2 POP JUMPDEST DUP1 PUSH2 0x118A SWAP1 PUSH2 0x45A9 JUMP JUMPDEST SWAP1 POP PUSH2 0x10F6 JUMP JUMPDEST POP DUP1 PUSH2 0x119C JUMPI PUSH1 0x0 DUP1 REVERT JUMPDEST PUSH1 0x0 DUP1 CALLER PUSH20 0xFFFFFFFFFFFFFFFFFFFFFFFFFFFFFFFFFFFFFFFF AND PUSH20 0xFFFFFFFFFFFFFFFFFFFFFFFFFFFFFFFFFFFFFFFF AND DUP2 MSTORE PUSH1 0x20 ADD SWAP1 DUP2 MSTORE PUSH1 0x20 ADD PUSH1 0x0 KECCAK256 PUSH1 0x6 ADD SLOAD SWAP2 POP POP SWAP1 JUMP JUMPDEST PUSH1 0x6 PUSH1 0x0 SWAP1 SLOAD SWAP1 PUSH2 0x100 EXP SWAP1 DIV PUSH1 0xFF AND DUP2 JUMP JUMPDEST PUSH1 0x0 JUMPDEST PUSH1 0x1 DUP1 SLOAD SWAP1 POP DUP2 PUSH1 0xFF AND LT ISZERO PUSH2 0x262D JUMPI PUSH1 0x0 DUP1 PUSH1 0x0 PUSH1 0x1 DUP5 PUSH1 0xFF AND DUP2 SLOAD DUP2 LT PUSH2 0x1226 JUMPI PUSH2 0x1225 PUSH2 0x454B JUMP JUMPDEST JUMPDEST SWAP1 PUSH1 0x0 MSTORE PUSH1 0x20 PUSH1 0x0 KECCAK256 ADD PUSH1 0x0 SWAP1 SLOAD SWAP1 PUSH2 0x100 EXP SWAP1 DIV PUSH20 0xFFFFFFFFFFFFFFFFFFFFFFFFFFFFFFFFFFFFFFFF AND PUSH20 0xFFFFFFFFFFFFFFFFFFFFFFFFFFFFFFFFFFFFFFFF AND PUSH20 0xFFFFFFFFFFFFFFFFFFFFFFFFFFFFFFFFFFFFFFFF AND DUP2 MSTORE PUSH1 0x20 ADD SWAP1 DUP2 MSTORE PUSH1 0x20 ADD PUSH1 0x0 KECCAK256 PUSH1 0x0 ADD DUP1 SLOAD DUP1 PUSH1 0x20 MUL PUSH1 0x20 ADD PUSH1 0x40 MLOAD SWAP1 DUP2 ADD PUSH1 0x40 MSTORE DUP1 SWAP3 SWAP2 SWAP1 DUP2 DUP2 MSTORE PUSH1 0x20 ADD PUSH1 0x0 SWAP1 JUMPDEST DUP3 DUP3 LT ISZERO PUSH2 0x135A JUMPI DUP4 DUP3 SWAP1 PUSH1 0x0 MSTORE PUSH1 0x20 PUSH1 0x0 KECCAK256 ADD DUP1 SLOAD PUSH2 0x12CD SWAP1 PUSH2 0x4735 JUMP JUMPDEST DUP1 PUSH1 0x1F ADD PUSH1 0x20 DUP1 SWAP2 DIV MUL PUSH1 0x20 ADD PUSH1 0x40 MLOAD SWAP1 DUP2 ADD PUSH1 0x40 MSTORE DUP1 SWAP3 SWAP2 SWAP1 DUP2 DUP2 MSTORE PUSH1 0x20 ADD DUP3 DUP1 SLOAD PUSH2 0x12F9 SWAP1 PUSH2 0x4735 JUMP JUMPDEST DUP1 ISZERO PUSH2 0x1346 JUMPI DUP1 PUSH1 0x1F LT PUSH2 0x131B JUMPI PUSH2 0x100 DUP1 DUP4 SLOAD DIV MUL DUP4 MSTORE SWAP2 PUSH1 0x20 ADD SWAP2 PUSH2 0x1346 JUMP JUMPDEST DUP3 ADD SWAP2 SWAP1 PUSH1 0x0 MSTORE PUSH1 0x20 PUSH1 0x0 KECCAK256 SWAP1 JUMPDEST DUP2 SLOAD DUP2 MSTORE SWAP1 PUSH1 0x1 ADD SWAP1 PUSH1 0x20 ADD DUP1 DUP4 GT PUSH2 0x1329 JUMPI DUP3 SWAP1 SUB PUSH1 0x1F AND DUP3 ADD SWAP2 JUMPDEST POP POP POP POP POP DUP2 MSTORE PUSH1 0x20 ADD SWAP1 PUSH1 0x1 ADD SWAP1 PUSH2 0x12AE JUMP JUMPDEST POP POP POP POP SWAP1 POP PUSH1 0x0 DUP1 JUMPDEST PUSH1 0x4 DUP1 SLOAD SWAP1 POP DUP2 PUSH1 0xFF AND LT ISZERO PUSH2 0x2590 JUMPI PUSH1 0x1 DUP2 PUSH1 0xFF AND LT ISZERO PUSH2 0x1656 JUMPI PUSH2 0x1450 DUP4 DUP3 PUSH1 0xFF AND DUP2 MLOAD DUP2 LT PUSH2 0x1399 JUMPI PUSH2 0x1398 PUSH2 0x454B JUMP JUMPDEST JUMPDEST PUSH1 0x20 MUL PUSH1 0x20 ADD ADD MLOAD PUSH1 0x4 DUP4 PUSH1 0xFF AND DUP2 SLOAD DUP2 LT PUSH2 0x13B8 JUMPI PUSH2 0x13B7 PUSH2 0x454B JUMP JUMPDEST JUMPDEST SWAP1 PUSH1 0x0 MSTORE PUSH1 0x20 PUSH1 0x0 KECCAK256 ADD DUP1 SLOAD PUSH2 0x13CD SWAP1 PUSH2 0x4735 JUMP JUMPDEST DUP1 PUSH1 0x1F ADD PUSH1 0x20 DUP1 SWAP2 DIV MUL PUSH1 0x20 ADD PUSH1 0x40 MLOAD SWAP1 DUP2 ADD PUSH1 0x40 MSTORE DUP1 SWAP3 SWAP2 SWAP1 DUP2 DUP2 MSTORE PUSH1 0x20 ADD DUP3 DUP1 SLOAD PUSH2 0x13F9 SWAP1 PUSH2 0x4735 JUMP JUMPDEST DUP1 ISZERO PUSH2 0x1446 JUMPI DUP1 PUSH1 0x1F LT PUSH2 0x141B JUMPI PUSH2 0x100 DUP1 DUP4 SLOAD DIV MUL DUP4 MSTORE SWAP2 PUSH1 0x20 ADD SWAP2 PUSH2 0x1446 JUMP JUMPDEST DUP3 ADD SWAP2 SWAP1 PUSH1 0x0 MSTORE PUSH1 0x20 PUSH1 0x0 KECCAK256 SWAP1 JUMPDEST DUP2 SLOAD DUP2 MSTORE SWAP1 PUSH1 0x1 ADD SWAP1 PUSH1 0x20 ADD DUP1 DUP4 GT PUSH2 0x1429 JUMPI DUP3 SWAP1 SUB PUSH1 0x1F AND DUP3 ADD SWAP2 JUMPDEST POP POP POP POP POP PUSH2 0x3EB5 JUMP JUMPDEST ISZERO PUSH2 0x1469 JUMPI PUSH1 0x5 DUP3 PUSH2 0x1462 SWAP2 SWAP1 PUSH2 0x45D3 JUMP JUMPDEST SWAP2 POP PUSH2 0x1651 JUMP JUMPDEST PUSH2 0x1545 DUP4 PUSH1 0x1 DUP4 PUSH2 0x147A SWAP2 SWAP1 PUSH2 0x4767 JUMP JUMPDEST PUSH1 0xFF AND DUP2 MLOAD DUP2 LT PUSH2 0x148E JUMPI PUSH2 0x148D PUSH2 0x454B JUMP JUMPDEST JUMPDEST PUSH1 0x20 MUL PUSH1 0x20 ADD ADD MLOAD PUSH1 0x4 DUP4 PUSH1 0xFF AND DUP2 SLOAD DUP2 LT PUSH2 0x14AD JUMPI PUSH2 0x14AC PUSH2 0x454B JUMP JUMPDEST JUMPDEST SWAP1 PUSH1 0x0 MSTORE PUSH1 0x20 PUSH1 0x0 KECCAK256 ADD DUP1 SLOAD PUSH2 0x14C2 SWAP1 PUSH2 0x4735 JUMP JUMPDEST DUP1 PUSH1 0x1F ADD PUSH1 0x20 DUP1 SWAP2 DIV MUL PUSH1 0x20 ADD PUSH1 0x40 MLOAD SWAP1 DUP2 ADD PUSH1 0x40 MSTORE DUP1 SWAP3 SWAP2 SWAP1 DUP2 DUP2 MSTORE PUSH1 0x20 ADD DUP3 DUP1 SLOAD PUSH2 0x14EE SWAP1 PUSH2 0x4735 JUMP JUMPDEST DUP1 ISZERO PUSH2 0x153B JUMPI DUP1 PUSH1 0x1F LT PUSH2 0x1510 JUMPI PUSH2 0x100 DUP1 DUP4 SLOAD DIV MUL DUP4 MSTORE SWAP2 PUSH1 0x20 ADD SWAP2 PUSH2 0x153B JUMP JUMPDEST DUP3 ADD SWAP2 SWAP1 PUSH1 0x0 MSTORE PUSH1 0x20 PUSH1 0x0 KECCAK256 SWAP1 JUMPDEST DUP2 SLOAD DUP2 MSTORE SWAP1 PUSH1 0x1 ADD SWAP1 PUSH1 0x20 ADD DUP1 DUP4 GT PUSH2 0x151E JUMPI DUP3 SWAP1 SUB PUSH1 0x1F AND DUP3 ADD SWAP2 JUMPDEST POP POP POP POP POP PUSH2 0x3EB5 JUMP JUMPDEST ISZERO PUSH2 0x155E JUMPI PUSH1 0x3 DUP3 PUSH2 0x1557 SWAP2 SWAP1 PUSH2 0x45D3 JUMP JUMPDEST SWAP2 POP PUSH2 0x1650 JUMP JUMPDEST PUSH2 0x163A DUP4 PUSH1 0x2 DUP4 PUSH2 0x156F SWAP2 SWAP1 PUSH2 0x4767 JUMP JUMPDEST PUSH1 0xFF AND DUP2 MLOAD DUP2 LT PUSH2 0x1583 JUMPI PUSH2 0x1582 PUSH2 0x454B JUMP JUMPDEST JUMPDEST PUSH1 0x20 MUL PUSH1 0x20 ADD ADD MLOAD PUSH1 0x4 DUP4 PUSH1 0xFF AND DUP2 SLOAD DUP2 LT PUSH2 0x15A2 JUMPI PUSH2 0x15A1 PUSH2 0x454B JUMP JUMPDEST JUMPDEST SWAP1 PUSH1 0x0 MSTORE PUSH1 0x20 PUSH1 0x0 KECCAK256 ADD DUP1 SLOAD PUSH2 0x15B7 SWAP1 PUSH2 0x4735 JUMP JUMPDEST DUP1 PUSH1 0x1F ADD PUSH1 0x20 DUP1 SWAP2 DIV MUL PUSH1 0x20 ADD PUSH1 0x40 MLOAD SWAP1 DUP2 ADD PUSH1 0x40 MSTORE DUP1 SWAP3 SWAP2 SWAP1 DUP2 DUP2 MSTORE PUSH1 0x20 ADD DUP3 DUP1 SLOAD PUSH2 0x15E3 SWAP1 PUSH2 0x4735 JUMP JUMPDEST DUP1 ISZERO PUSH2 0x1630 JUMPI DUP1 PUSH1 0x1F LT PUSH2 0x1605 JUMPI PUSH2 0x100 DUP1 DUP4 SLOAD DIV MUL DUP4 MSTORE SWAP2 PUSH1 0x20 ADD SWAP2 PUSH2 0x1630 JUMP JUMPDEST DUP3 ADD SWAP2 SWAP1 PUSH1 0x0 MSTORE PUSH1 0x20 PUSH1 0x0 KECCAK256 SWAP1 JUMPDEST DUP2 SLOAD DUP2 MSTORE SWAP1 PUSH1 0x1 ADD SWAP1 PUSH1 0x20 ADD DUP1 DUP4 GT PUSH2 0x1613 JUMPI DUP3 SWAP1 SUB PUSH1 0x1F AND DUP3 ADD SWAP2 JUMPDEST POP POP POP POP POP PUSH2 0x3EB5 JUMP JUMPDEST ISZERO PUSH2 0x164F JUMPI PUSH1 0x1 DUP3 PUSH2 0x164C SWAP2 SWAP1 PUSH2 0x45D3 JUMP JUMPDEST SWAP2 POP JUMPDEST JUMPDEST JUMPDEST PUSH2 0x257D JUMP JUMPDEST PUSH1 0x2 DUP2 PUSH1 0xFF AND LT ISZERO PUSH2 0x1A1B JUMPI PUSH2 0x1732 DUP4 DUP3 PUSH1 0xFF AND DUP2 MLOAD DUP2 LT PUSH2 0x167B JUMPI PUSH2 0x167A PUSH2 0x454B JUMP JUMPDEST JUMPDEST PUSH1 0x20 MUL PUSH1 0x20 ADD ADD MLOAD PUSH1 0x4 DUP4 PUSH1 0xFF AND DUP2 SLOAD DUP2 LT PUSH2 0x169A JUMPI PUSH2 0x1699 PUSH2 0x454B JUMP JUMPDEST JUMPDEST SWAP1 PUSH1 0x0 MSTORE PUSH1 0x20 PUSH1 0x0 KECCAK256 ADD DUP1 SLOAD PUSH2 0x16AF SWAP1 PUSH2 0x4735 JUMP JUMPDEST DUP1 PUSH1 0x1F ADD PUSH1 0x20 DUP1 SWAP2 DIV MUL PUSH1 0x20 ADD PUSH1 0x40 MLOAD SWAP1 DUP2 ADD PUSH1 0x40 MSTORE DUP1 SWAP3 SWAP2 SWAP1 DUP2 DUP2 MSTORE PUSH1 0x20 ADD DUP3 DUP1 SLOAD PUSH2 0x16DB SWAP1 PUSH2 0x4735 JUMP JUMPDEST DUP1 ISZERO PUSH2 0x1728 JUMPI DUP1 PUSH1 0x1F LT PUSH2 0x16FD JUMPI PUSH2 0x100 DUP1 DUP4 SLOAD DIV MUL DUP4 MSTORE SWAP2 PUSH1 0x20 ADD SWAP2 PUSH2 0x1728 JUMP JUMPDEST DUP3 ADD SWAP2 SWAP1 PUSH1 0x0 MSTORE PUSH1 0x20 PUSH1 0x0 KECCAK256 SWAP1 JUMPDEST DUP2 SLOAD DUP2 MSTORE SWAP1 PUSH1 0x1 ADD SWAP1 PUSH1 0x20 ADD DUP1 DUP4 GT PUSH2 0x170B JUMPI DUP3 SWAP1 SUB PUSH1 0x1F AND DUP3 ADD SWAP2 JUMPDEST POP POP POP POP POP PUSH2 0x3EB5 JUMP JUMPDEST ISZERO PUSH2 0x174B JUMPI PUSH1 0x5 DUP3 PUSH2 0x1744 SWAP2 SWAP1 PUSH2 0x45D3 JUMP JUMPDEST SWAP2 POP PUSH2 0x1A16 JUMP JUMPDEST PUSH2 0x1827 DUP4 PUSH1 0x1 DUP4 PUSH2 0x175C SWAP2 SWAP1 PUSH2 0x479E JUMP JUMPDEST PUSH1 0xFF AND DUP2 MLOAD DUP2 LT PUSH2 0x1770 JUMPI PUSH2 0x176F PUSH2 0x454B JUMP JUMPDEST JUMPDEST PUSH1 0x20 MUL PUSH1 0x20 ADD ADD MLOAD PUSH1 0x4 DUP4 PUSH1 0xFF AND DUP2 SLOAD DUP2 LT PUSH2 0x178F JUMPI PUSH2 0x178E PUSH2 0x454B JUMP JUMPDEST JUMPDEST SWAP1 PUSH1 0x0 MSTORE PUSH1 0x20 PUSH1 0x0 KECCAK256 ADD DUP1 SLOAD PUSH2 0x17A4 SWAP1 PUSH2 0x4735 JUMP JUMPDEST DUP1 PUSH1 0x1F ADD PUSH1 0x20 DUP1 SWAP2 DIV MUL PUSH1 0x20 ADD PUSH1 0x40 MLOAD SWAP1 DUP2 ADD PUSH1 0x40 MSTORE DUP1 SWAP3 SWAP2 SWAP1 DUP2 DUP2 MSTORE PUSH1 0x20 ADD DUP3 DUP1 SLOAD PUSH2 0x17D0 SWAP1 PUSH2 0x4735 JUMP JUMPDEST DUP1 ISZERO PUSH2 0x181D JUMPI DUP1 PUSH1 0x1F LT PUSH2 0x17F2 JUMPI PUSH2 0x100 DUP1 DUP4 SLOAD DIV MUL DUP4 MSTORE SWAP2 PUSH1 0x20 ADD SWAP2 PUSH2 0x181D JUMP JUMPDEST DUP3 ADD SWAP2 SWAP1 PUSH1 0x0 MSTORE PUSH1 0x20 PUSH1 0x0 KECCAK256 SWAP1 JUMPDEST DUP2 SLOAD DUP2 MSTORE SWAP1 PUSH1 0x1 ADD SWAP1 PUSH1 0x20 ADD DUP1 DUP4 GT PUSH2 0x1800 JUMPI DUP3 SWAP1 SUB PUSH1 0x1F AND DUP3 ADD SWAP2 JUMPDEST POP POP POP POP POP PUSH2 0x3EB5 JUMP JUMPDEST DUP1 PUSH2 0x190A JUMPI POP PUSH2 0x1909 DUP4 PUSH1 0x1 DUP4 PUSH2 0x183E SWAP2 SWAP1 PUSH2 0x4767 JUMP JUMPDEST PUSH1 0xFF AND DUP2 MLOAD DUP2 LT PUSH2 0x1852 JUMPI PUSH2 0x1851 PUSH2 0x454B JUMP JUMPDEST JUMPDEST PUSH1 0x20 MUL PUSH1 0x20 ADD ADD MLOAD PUSH1 0x4 DUP4 PUSH1 0xFF AND DUP2 SLOAD DUP2 LT PUSH2 0x1871 JUMPI PUSH2 0x1870 PUSH2 0x454B JUMP JUMPDEST JUMPDEST SWAP1 PUSH1 0x0 MSTORE PUSH1 0x20 PUSH1 0x0 KECCAK256 ADD DUP1 SLOAD PUSH2 0x1886 SWAP1 PUSH2 0x4735 JUMP JUMPDEST DUP1 PUSH1 0x1F ADD PUSH1 0x20 DUP1 SWAP2 DIV MUL PUSH1 0x20 ADD PUSH1 0x40 MLOAD SWAP1 DUP2 ADD PUSH1 0x40 MSTORE DUP1 SWAP3 SWAP2 SWAP1 DUP2 DUP2 MSTORE PUSH1 0x20 ADD DUP3 DUP1 SLOAD PUSH2 0x18B2 SWAP1 PUSH2 0x4735 JUMP JUMPDEST DUP1 ISZERO PUSH2 0x18FF JUMPI DUP1 PUSH1 0x1F LT PUSH2 0x18D4 JUMPI PUSH2 0x100 DUP1 DUP4 SLOAD DIV MUL DUP4 MSTORE SWAP2 PUSH1 0x20 ADD SWAP2 PUSH2 0x18FF JUMP JUMPDEST DUP3 ADD SWAP2 SWAP1 PUSH1 0x0 MSTORE PUSH1 0x20 PUSH1 0x0 KECCAK256 SWAP1 JUMPDEST DUP2 SLOAD DUP2 MSTORE SWAP1 PUSH1 0x1 ADD SWAP1 PUSH1 0x20 ADD DUP1 DUP4 GT PUSH2 0x18E2 JUMPI DUP3 SWAP1 SUB PUSH1 0x1F AND DUP3 ADD SWAP2 JUMPDEST POP POP POP POP POP PUSH2 0x3EB5 JUMP JUMPDEST JUMPDEST ISZERO PUSH2 0x1923 JUMPI PUSH1 0x3 DUP3 PUSH2 0x191C SWAP2 SWAP1 PUSH2 0x45D3 JUMP JUMPDEST SWAP2 POP PUSH2 0x1A15 JUMP JUMPDEST PUSH2 0x19FF DUP4 PUSH1 0x2 DUP4 PUSH2 0x1934 SWAP2 SWAP1 PUSH2 0x4767 JUMP JUMPDEST PUSH1 0xFF AND DUP2 MLOAD DUP2 LT PUSH2 0x1948 JUMPI PUSH2 0x1947 PUSH2 0x454B JUMP JUMPDEST JUMPDEST PUSH1 0x20 MUL PUSH1 0x20 ADD ADD MLOAD PUSH1 0x4 DUP4 PUSH1 0xFF AND DUP2 SLOAD DUP2 LT PUSH2 0x1967 JUMPI PUSH2 0x1966 PUSH2 0x454B JUMP JUMPDEST JUMPDEST SWAP1 PUSH1 0x0 MSTORE PUSH1 0x20 PUSH1 0x0 KECCAK256 ADD DUP1 SLOAD PUSH2 0x197C SWAP1 PUSH2 0x4735 JUMP JUMPDEST DUP1 PUSH1 0x1F ADD PUSH1 0x20 DUP1 SWAP2 DIV MUL PUSH1 0x20 ADD PUSH1 0x40 MLOAD SWAP1 DUP2 ADD PUSH1 0x40 MSTORE DUP1 SWAP3 SWAP2 SWAP1 DUP2 DUP2 MSTORE PUSH1 0x20 ADD DUP3 DUP1 SLOAD PUSH2 0x19A8 SWAP1 PUSH2 0x4735 JUMP JUMPDEST DUP1 ISZERO PUSH2 0x19F5 JUMPI DUP1 PUSH1 0x1F LT PUSH2 0x19CA JUMPI PUSH2 0x100 DUP1 DUP4 SLOAD DIV MUL DUP4 MSTORE SWAP2 PUSH1 0x20 ADD SWAP2 PUSH2 0x19F5 JUMP JUMPDEST DUP3 ADD SWAP2 SWAP1 PUSH1 0x0 MSTORE PUSH1 0x20 PUSH1 0x0 KECCAK256 SWAP1 JUMPDEST DUP2 SLOAD DUP2 MSTORE SWAP1 PUSH1 0x1 ADD SWAP1 PUSH1 0x20 ADD DUP1 DUP4 GT PUSH2 0x19D8 JUMPI DUP3 SWAP1 SUB PUSH1 0x1F AND DUP3 ADD SWAP2 JUMPDEST POP POP POP POP POP PUSH2 0x3EB5 JUMP JUMPDEST ISZERO PUSH2 0x1A14 JUMPI PUSH1 0x1 DUP3 PUSH2 0x1A11 SWAP2 SWAP1 PUSH2 0x45D3 JUMP JUMPDEST SWAP2 POP JUMPDEST JUMPDEST JUMPDEST PUSH2 0x257C JUMP JUMPDEST PUSH1 0x2 PUSH1 0x4 DUP1 SLOAD SWAP1 POP PUSH2 0x1A2D SWAP2 SWAP1 PUSH2 0x47D2 JUMP JUMPDEST DUP2 PUSH1 0xFF AND EQ ISZERO PUSH2 0x1DF0 JUMPI PUSH2 0x1B07 DUP4 DUP3 PUSH1 0xFF AND DUP2 MLOAD DUP2 LT PUSH2 0x1A50 JUMPI PUSH2 0x1A4F PUSH2 0x454B JUMP JUMPDEST JUMPDEST PUSH1 0x20 MUL PUSH1 0x20 ADD ADD MLOAD PUSH1 0x4 DUP4 PUSH1 0xFF AND DUP2 SLOAD DUP2 LT PUSH2 0x1A6F JUMPI PUSH2 0x1A6E PUSH2 0x454B JUMP JUMPDEST JUMPDEST SWAP1 PUSH1 0x0 MSTORE PUSH1 0x20 PUSH1 0x0 KECCAK256 ADD DUP1 SLOAD PUSH2 0x1A84 SWAP1 PUSH2 0x4735 JUMP JUMPDEST DUP1 PUSH1 0x1F ADD PUSH1 0x20 DUP1 SWAP2 DIV MUL PUSH1 0x20 ADD PUSH1 0x40 MLOAD SWAP1 DUP2 ADD PUSH1 0x40 MSTORE DUP1 SWAP3 SWAP2 SWAP1 DUP2 DUP2 MSTORE PUSH1 0x20 ADD DUP3 DUP1 SLOAD PUSH2 0x1AB0 SWAP1 PUSH2 0x4735 JUMP JUMPDEST DUP1 ISZERO PUSH2 0x1AFD JUMPI DUP1 PUSH1 0x1F LT PUSH2 0x1AD2 JUMPI PUSH2 0x100 DUP1 DUP4 SLOAD DIV MUL DUP4 MSTORE SWAP2 PUSH1 0x20 ADD SWAP2 PUSH2 0x1AFD JUMP JUMPDEST DUP3 ADD SWAP2 SWAP1 PUSH1 0x0 MSTORE PUSH1 0x20 PUSH1 0x0 KECCAK256 SWAP1 JUMPDEST DUP2 SLOAD DUP2 MSTORE SWAP1 PUSH1 0x1 ADD SWAP1 PUSH1 0x20 ADD DUP1 DUP4 GT PUSH2 0x1AE0 JUMPI DUP3 SWAP1 SUB PUSH1 0x1F AND DUP3 ADD SWAP2 JUMPDEST POP POP POP POP POP PUSH2 0x3EB5 JUMP JUMPDEST ISZERO PUSH2 0x1B20 JUMPI PUSH1 0x5 DUP3 PUSH2 0x1B19 SWAP2 SWAP1 PUSH2 0x45D3 JUMP JUMPDEST SWAP2 POP PUSH2 0x1DEB JUMP JUMPDEST PUSH2 0x1BFC DUP4 PUSH1 0x1 DUP4 PUSH2 0x1B31 SWAP2 SWAP1 PUSH2 0x479E JUMP JUMPDEST PUSH1 0xFF AND DUP2 MLOAD DUP2 LT PUSH2 0x1B45 JUMPI PUSH2 0x1B44 PUSH2 0x454B JUMP JUMPDEST JUMPDEST PUSH1 0x20 MUL PUSH1 0x20 ADD ADD MLOAD PUSH1 0x4 DUP4 PUSH1 0xFF AND DUP2 SLOAD DUP2 LT PUSH2 0x1B64 JUMPI PUSH2 0x1B63 PUSH2 0x454B JUMP JUMPDEST JUMPDEST SWAP1 PUSH1 0x0 MSTORE PUSH1 0x20 PUSH1 0x0 KECCAK256 ADD DUP1 SLOAD PUSH2 0x1B79 SWAP1 PUSH2 0x4735 JUMP JUMPDEST DUP1 PUSH1 0x1F ADD PUSH1 0x20 DUP1 SWAP2 DIV MUL PUSH1 0x20 ADD PUSH1 0x40 MLOAD SWAP1 DUP2 ADD PUSH1 0x40 MSTORE DUP1 SWAP3 SWAP2 SWAP1 DUP2 DUP2 MSTORE PUSH1 0x20 ADD DUP3 DUP1 SLOAD PUSH2 0x1BA5 SWAP1 PUSH2 0x4735 JUMP JUMPDEST DUP1 ISZERO PUSH2 0x1BF2 JUMPI DUP1 PUSH1 0x1F LT PUSH2 0x1BC7 JUMPI PUSH2 0x100 DUP1 DUP4 SLOAD DIV MUL DUP4 MSTORE SWAP2 PUSH1 0x20 ADD SWAP2 PUSH2 0x1BF2 JUMP JUMPDEST DUP3 ADD SWAP2 SWAP1 PUSH1 0x0 MSTORE PUSH1 0x20 PUSH1 0x0 KECCAK256 SWAP1 JUMPDEST DUP2 SLOAD DUP2 MSTORE SWAP1 PUSH1 0x1 ADD SWAP1 PUSH1 0x20 ADD DUP1 DUP4 GT PUSH2 0x1BD5 JUMPI DUP3 SWAP1 SUB PUSH1 0x1F AND DUP3 ADD SWAP2 JUMPDEST POP POP POP POP POP PUSH2 0x3EB5 JUMP JUMPDEST DUP1 PUSH2 0x1CDF JUMPI POP PUSH2 0x1CDE DUP4 PUSH1 0x1 DUP4 PUSH2 0x1C13 SWAP2 SWAP1 PUSH2 0x4767 JUMP JUMPDEST PUSH1 0xFF AND DUP2 MLOAD DUP2 LT PUSH2 0x1C27 JUMPI PUSH2 0x1C26 PUSH2 0x454B JUMP JUMPDEST JUMPDEST PUSH1 0x20 MUL PUSH1 0x20 ADD ADD MLOAD PUSH1 0x4 DUP4 PUSH1 0xFF AND DUP2 SLOAD DUP2 LT PUSH2 0x1C46 JUMPI PUSH2 0x1C45 PUSH2 0x454B JUMP JUMPDEST JUMPDEST SWAP1 PUSH1 0x0 MSTORE PUSH1 0x20 PUSH1 0x0 KECCAK256 ADD DUP1 SLOAD PUSH2 0x1C5B SWAP1 PUSH2 0x4735 JUMP JUMPDEST DUP1 PUSH1 0x1F ADD PUSH1 0x20 DUP1 SWAP2 DIV MUL PUSH1 0x20 ADD PUSH1 0x40 MLOAD SWAP1 DUP2 ADD PUSH1 0x40 MSTORE DUP1 SWAP3 SWAP2 SWAP1 DUP2 DUP2 MSTORE PUSH1 0x20 ADD DUP3 DUP1 SLOAD PUSH2 0x1C87 SWAP1 PUSH2 0x4735 JUMP JUMPDEST DUP1 ISZERO PUSH2 0x1CD4 JUMPI DUP1 PUSH1 0x1F LT PUSH2 0x1CA9 JUMPI PUSH2 0x100 DUP1 DUP4 SLOAD DIV MUL DUP4 MSTORE SWAP2 PUSH1 0x20 ADD SWAP2 PUSH2 0x1CD4 JUMP JUMPDEST DUP3 ADD SWAP2 SWAP1 PUSH1 0x0 MSTORE PUSH1 0x20 PUSH1 0x0 KECCAK256 SWAP1 JUMPDEST DUP2 SLOAD DUP2 MSTORE SWAP1 PUSH1 0x1 ADD SWAP1 PUSH1 0x20 ADD DUP1 DUP4 GT PUSH2 0x1CB7 JUMPI DUP3 SWAP1 SUB PUSH1 0x1F AND DUP3 ADD SWAP2 JUMPDEST POP POP POP POP POP PUSH2 0x3EB5 JUMP JUMPDEST JUMPDEST ISZERO PUSH2 0x1CF8 JUMPI PUSH1 0x3 DUP3 PUSH2 0x1CF1 SWAP2 SWAP1 PUSH2 0x45D3 JUMP JUMPDEST SWAP2 POP PUSH2 0x1DEA JUMP JUMPDEST PUSH2 0x1DD4 DUP4 PUSH1 0x2 DUP4 PUSH2 0x1D09 SWAP2 SWAP1 PUSH2 0x479E JUMP JUMPDEST PUSH1 0xFF AND DUP2 MLOAD DUP2 LT PUSH2 0x1D1D JUMPI PUSH2 0x1D1C PUSH2 0x454B JUMP JUMPDEST JUMPDEST PUSH1 0x20 MUL PUSH1 0x20 ADD ADD MLOAD PUSH1 0x4 DUP4 PUSH1 0xFF AND DUP2 SLOAD DUP2 LT PUSH2 0x1D3C JUMPI PUSH2 0x1D3B PUSH2 0x454B JUMP JUMPDEST JUMPDEST SWAP1 PUSH1 0x0 MSTORE PUSH1 0x20 PUSH1 0x0 KECCAK256 ADD DUP1 SLOAD PUSH2 0x1D51 SWAP1 PUSH2 0x4735 JUMP JUMPDEST DUP1 PUSH1 0x1F ADD PUSH1 0x20 DUP1 SWAP2 DIV MUL PUSH1 0x20 ADD PUSH1 0x40 MLOAD SWAP1 DUP2 ADD PUSH1 0x40 MSTORE DUP1 SWAP3 SWAP2 SWAP1 DUP2 DUP2 MSTORE PUSH1 0x20 ADD DUP3 DUP1 SLOAD PUSH2 0x1D7D SWAP1 PUSH2 0x4735 JUMP JUMPDEST DUP1 ISZERO PUSH2 0x1DCA JUMPI DUP1 PUSH1 0x1F LT PUSH2 0x1D9F JUMPI PUSH2 0x100 DUP1 DUP4 SLOAD DIV MUL DUP4 MSTORE SWAP2 PUSH1 0x20 ADD SWAP2 PUSH2 0x1DCA JUMP JUMPDEST DUP3 ADD SWAP2 SWAP1 PUSH1 0x0 MSTORE PUSH1 0x20 PUSH1 0x0 KECCAK256 SWAP1 JUMPDEST DUP2 SLOAD DUP2 MSTORE SWAP1 PUSH1 0x1 ADD SWAP1 PUSH1 0x20 ADD DUP1 DUP4 GT PUSH2 0x1DAD JUMPI DUP3 SWAP1 SUB PUSH1 0x1F AND DUP3 ADD SWAP2 JUMPDEST POP POP POP POP POP PUSH2 0x3EB5 JUMP JUMPDEST ISZERO PUSH2 0x1DE9 JUMPI PUSH1 0x1 DUP3 PUSH2 0x1DE6 SWAP2 SWAP1 PUSH2 0x45D3 JUMP JUMPDEST SWAP2 POP JUMPDEST JUMPDEST JUMPDEST PUSH2 0x257B JUMP JUMPDEST PUSH1 0x1 PUSH1 0x4 DUP1 SLOAD SWAP1 POP PUSH2 0x1E02 SWAP2 SWAP1 PUSH2 0x47D2 JUMP JUMPDEST DUP2 PUSH1 0xFF AND EQ ISZERO PUSH2 0x20E2 JUMPI PUSH2 0x1EDC DUP4 DUP3 PUSH1 0xFF AND DUP2 MLOAD DUP2 LT PUSH2 0x1E25 JUMPI PUSH2 0x1E24 PUSH2 0x454B JUMP JUMPDEST JUMPDEST PUSH1 0x20 MUL PUSH1 0x20 ADD ADD MLOAD PUSH1 0x4 DUP4 PUSH1 0xFF AND DUP2 SLOAD DUP2 LT PUSH2 0x1E44 JUMPI PUSH2 0x1E43 PUSH2 0x454B JUMP JUMPDEST JUMPDEST SWAP1 PUSH1 0x0 MSTORE PUSH1 0x20 PUSH1 0x0 KECCAK256 ADD DUP1 SLOAD PUSH2 0x1E59 SWAP1 PUSH2 0x4735 JUMP JUMPDEST DUP1 PUSH1 0x1F ADD PUSH1 0x20 DUP1 SWAP2 DIV MUL PUSH1 0x20 ADD PUSH1 0x40 MLOAD SWAP1 DUP2 ADD PUSH1 0x40 MSTORE DUP1 SWAP3 SWAP2 SWAP1 DUP2 DUP2 MSTORE PUSH1 0x20 ADD DUP3 DUP1 SLOAD PUSH2 0x1E85 SWAP1 PUSH2 0x4735 JUMP JUMPDEST DUP1 ISZERO PUSH2 0x1ED2 JUMPI DUP1 PUSH1 0x1F LT PUSH2 0x1EA7 JUMPI PUSH2 0x100 DUP1 DUP4 SLOAD DIV MUL DUP4 MSTORE SWAP2 PUSH1 0x20 ADD SWAP2 PUSH2 0x1ED2 JUMP JUMPDEST DUP3 ADD SWAP2 SWAP1 PUSH1 0x0 MSTORE PUSH1 0x20 PUSH1 0x0 KECCAK256 SWAP1 JUMPDEST DUP2 SLOAD DUP2 MSTORE SWAP1 PUSH1 0x1 ADD SWAP1 PUSH1 0x20 ADD DUP1 DUP4 GT PUSH2 0x1EB5 JUMPI DUP3 SWAP1 SUB PUSH1 0x1F AND DUP3 ADD SWAP2 JUMPDEST POP POP POP POP POP PUSH2 0x3EB5 JUMP JUMPDEST ISZERO PUSH2 0x1EF5 JUMPI PUSH1 0x5 DUP3 PUSH2 0x1EEE SWAP2 SWAP1 PUSH2 0x45D3 JUMP JUMPDEST SWAP2 POP PUSH2 0x20DD JUMP JUMPDEST PUSH2 0x1FD1 DUP4 PUSH1 0x1 DUP4 PUSH2 0x1F06 SWAP2 SWAP1 PUSH2 0x479E JUMP JUMPDEST PUSH1 0xFF AND DUP2 MLOAD DUP2 LT PUSH2 0x1F1A JUMPI PUSH2 0x1F19 PUSH2 0x454B JUMP JUMPDEST JUMPDEST PUSH1 0x20 MUL PUSH1 0x20 ADD ADD MLOAD PUSH1 0x4 DUP4 PUSH1 0xFF AND DUP2 SLOAD DUP2 LT PUSH2 0x1F39 JUMPI PUSH2 0x1F38 PUSH2 0x454B JUMP JUMPDEST JUMPDEST SWAP1 PUSH1 0x0 MSTORE PUSH1 0x20 PUSH1 0x0 KECCAK256 ADD DUP1 SLOAD PUSH2 0x1F4E SWAP1 PUSH2 0x4735 JUMP JUMPDEST DUP1 PUSH1 0x1F ADD PUSH1 0x20 DUP1 SWAP2 DIV MUL PUSH1 0x20 ADD PUSH1 0x40 MLOAD SWAP1 DUP2 ADD PUSH1 0x40 MSTORE DUP1 SWAP3 SWAP2 SWAP1 DUP2 DUP2 MSTORE PUSH1 0x20 ADD DUP3 DUP1 SLOAD PUSH2 0x1F7A SWAP1 PUSH2 0x4735 JUMP JUMPDEST DUP1 ISZERO PUSH2 0x1FC7 JUMPI DUP1 PUSH1 0x1F LT PUSH2 0x1F9C JUMPI PUSH2 0x100 DUP1 DUP4 SLOAD DIV MUL DUP4 MSTORE SWAP2 PUSH1 0x20 ADD SWAP2 PUSH2 0x1FC7 JUMP JUMPDEST DUP3 ADD SWAP2 SWAP1 PUSH1 0x0 MSTORE PUSH1 0x20 PUSH1 0x0 KECCAK256 SWAP1 JUMPDEST DUP2 SLOAD DUP2 MSTORE SWAP1 PUSH1 0x1 ADD SWAP1 PUSH1 0x20 ADD DUP1 DUP4 GT PUSH2 0x1FAA JUMPI DUP3 SWAP1 SUB PUSH1 0x1F AND DUP3 ADD SWAP2 JUMPDEST POP POP POP POP POP PUSH2 0x3EB5 JUMP JUMPDEST ISZERO PUSH2 0x1FEA JUMPI PUSH1 0x3 DUP3 PUSH2 0x1FE3 SWAP2 SWAP1 PUSH2 0x45D3 JUMP JUMPDEST SWAP2 POP PUSH2 0x20DC JUMP JUMPDEST PUSH2 0x20C6 DUP4 PUSH1 0x2 DUP4 PUSH2 0x1FFB SWAP2 SWAP1 PUSH2 0x479E JUMP JUMPDEST PUSH1 0xFF AND DUP2 MLOAD DUP2 LT PUSH2 0x200F JUMPI PUSH2 0x200E PUSH2 0x454B JUMP JUMPDEST JUMPDEST PUSH1 0x20 MUL PUSH1 0x20 ADD ADD MLOAD PUSH1 0x4 DUP4 PUSH1 0xFF AND DUP2 SLOAD DUP2 LT PUSH2 0x202E JUMPI PUSH2 0x202D PUSH2 0x454B JUMP JUMPDEST JUMPDEST SWAP1 PUSH1 0x0 MSTORE PUSH1 0x20 PUSH1 0x0 KECCAK256 ADD DUP1 SLOAD PUSH2 0x2043 SWAP1 PUSH2 0x4735 JUMP JUMPDEST DUP1 PUSH1 0x1F ADD PUSH1 0x20 DUP1 SWAP2 DIV MUL PUSH1 0x20 ADD PUSH1 0x40 MLOAD SWAP1 DUP2 ADD PUSH1 0x40 MSTORE DUP1 SWAP3 SWAP2 SWAP1 DUP2 DUP2 MSTORE PUSH1 0x20 ADD DUP3 DUP1 SLOAD PUSH2 0x206F SWAP1 PUSH2 0x4735 JUMP JUMPDEST DUP1 ISZERO PUSH2 0x20BC JUMPI DUP1 PUSH1 0x1F LT PUSH2 0x2091 JUMPI PUSH2 0x100 DUP1 DUP4 SLOAD DIV MUL DUP4 MSTORE SWAP2 PUSH1 0x20 ADD SWAP2 PUSH2 0x20BC JUMP JUMPDEST DUP3 ADD SWAP2 SWAP1 PUSH1 0x0 MSTORE PUSH1 0x20 PUSH1 0x0 KECCAK256 SWAP1 JUMPDEST DUP2 SLOAD DUP2 MSTORE SWAP1 PUSH1 0x1 ADD SWAP1 PUSH1 0x20 ADD DUP1 DUP4 GT PUSH2 0x209F JUMPI DUP3 SWAP1 SUB PUSH1 0x1F AND DUP3 ADD SWAP2 JUMPDEST POP POP POP POP POP PUSH2 0x3EB5 JUMP JUMPDEST ISZERO PUSH2 0x20DB JUMPI PUSH1 0x1 DUP3 PUSH2 0x20D8 SWAP2 SWAP1 PUSH2 0x45D3 JUMP JUMPDEST SWAP2 POP JUMPDEST JUMPDEST JUMPDEST PUSH2 0x257A JUMP JUMPDEST PUSH2 0x21B2 DUP4 DUP3 PUSH1 0xFF AND DUP2 MLOAD DUP2 LT PUSH2 0x20FB JUMPI PUSH2 0x20FA PUSH2 0x454B JUMP JUMPDEST JUMPDEST PUSH1 0x20 MUL PUSH1 0x20 ADD ADD MLOAD PUSH1 0x4 DUP4 PUSH1 0xFF AND DUP2 SLOAD DUP2 LT PUSH2 0x211A JUMPI PUSH2 0x2119 PUSH2 0x454B JUMP JUMPDEST JUMPDEST SWAP1 PUSH1 0x0 MSTORE PUSH1 0x20 PUSH1 0x0 KECCAK256 ADD DUP1 SLOAD PUSH2 0x212F SWAP1 PUSH2 0x4735 JUMP JUMPDEST DUP1 PUSH1 0x1F ADD PUSH1 0x20 DUP1 SWAP2 DIV MUL PUSH1 0x20 ADD PUSH1 0x40 MLOAD SWAP1 DUP2 ADD PUSH1 0x40 MSTORE DUP1 SWAP3 SWAP2 SWAP1 DUP2 DUP2 MSTORE PUSH1 0x20 ADD DUP3 DUP1 SLOAD PUSH2 0x215B SWAP1 PUSH2 0x4735 JUMP JUMPDEST DUP1 ISZERO PUSH2 0x21A8 JUMPI DUP1 PUSH1 0x1F LT PUSH2 0x217D JUMPI PUSH2 0x100 DUP1 DUP4 SLOAD DIV MUL DUP4 MSTORE SWAP2 PUSH1 0x20 ADD SWAP2 PUSH2 0x21A8 JUMP JUMPDEST DUP3 ADD SWAP2 SWAP1 PUSH1 0x0 MSTORE PUSH1 0x20 PUSH1 0x0 KECCAK256 SWAP1 JUMPDEST DUP2 SLOAD DUP2 MSTORE SWAP1 PUSH1 0x1 ADD SWAP1 PUSH1 0x20 ADD DUP1 DUP4 GT PUSH2 0x218B JUMPI DUP3 SWAP1 SUB PUSH1 0x1F AND DUP3 ADD SWAP2 JUMPDEST POP POP POP POP POP PUSH2 0x3EB5 JUMP JUMPDEST ISZERO PUSH2 0x21CB JUMPI PUSH1 0x5 DUP3 PUSH2 0x21C4 SWAP2 SWAP1 PUSH2 0x45D3 JUMP JUMPDEST SWAP2 POP PUSH2 0x2579 JUMP JUMPDEST PUSH2 0x22A7 DUP4 PUSH1 0x1 DUP4 PUSH2 0x21DC SWAP2 SWAP1 PUSH2 0x479E JUMP JUMPDEST PUSH1 0xFF AND DUP2 MLOAD DUP2 LT PUSH2 0x21F0 JUMPI PUSH2 0x21EF PUSH2 0x454B JUMP JUMPDEST JUMPDEST PUSH1 0x20 MUL PUSH1 0x20 ADD ADD MLOAD PUSH1 0x4 DUP4 PUSH1 0xFF AND DUP2 SLOAD DUP2 LT PUSH2 0x220F JUMPI PUSH2 0x220E PUSH2 0x454B JUMP JUMPDEST JUMPDEST SWAP1 PUSH1 0x0 MSTORE PUSH1 0x20 PUSH1 0x0 KECCAK256 ADD DUP1 SLOAD PUSH2 0x2224 SWAP1 PUSH2 0x4735 JUMP JUMPDEST DUP1 PUSH1 0x1F ADD PUSH1 0x20 DUP1 SWAP2 DIV MUL PUSH1 0x20 ADD PUSH1 0x40 MLOAD SWAP1 DUP2 ADD PUSH1 0x40 MSTORE DUP1 SWAP3 SWAP2 SWAP1 DUP2 DUP2 MSTORE PUSH1 0x20 ADD DUP3 DUP1 SLOAD PUSH2 0x2250 SWAP1 PUSH2 0x4735 JUMP JUMPDEST DUP1 ISZERO PUSH2 0x229D JUMPI DUP1 PUSH1 0x1F LT PUSH2 0x2272 JUMPI PUSH2 0x100 DUP1 DUP4 SLOAD DIV MUL DUP4 MSTORE SWAP2 PUSH1 0x20 ADD SWAP2 PUSH2 0x229D JUMP JUMPDEST DUP3 ADD SWAP2 SWAP1 PUSH1 0x0 MSTORE PUSH1 0x20 PUSH1 0x0 KECCAK256 SWAP1 JUMPDEST DUP2 SLOAD DUP2 MSTORE SWAP1 PUSH1 0x1 ADD SWAP1 PUSH1 0x20 ADD DUP1 DUP4 GT PUSH2 0x2280 JUMPI DUP3 SWAP1 SUB PUSH1 0x1F AND DUP3 ADD SWAP2 JUMPDEST POP POP POP POP POP PUSH2 0x3EB5 JUMP JUMPDEST DUP1 PUSH2 0x238A JUMPI POP PUSH2 0x2389 DUP4 PUSH1 0x1 DUP4 PUSH2 0x22BE SWAP2 SWAP1 PUSH2 0x4767 JUMP JUMPDEST PUSH1 0xFF AND DUP2 MLOAD DUP2 LT PUSH2 0x22D2 JUMPI PUSH2 0x22D1 PUSH2 0x454B JUMP JUMPDEST JUMPDEST PUSH1 0x20 MUL PUSH1 0x20 ADD ADD MLOAD PUSH1 0x4 DUP4 PUSH1 0xFF AND DUP2 SLOAD DUP2 LT PUSH2 0x22F1 JUMPI PUSH2 0x22F0 PUSH2 0x454B JUMP JUMPDEST JUMPDEST SWAP1 PUSH1 0x0 MSTORE PUSH1 0x20 PUSH1 0x0 KECCAK256 ADD DUP1 SLOAD PUSH2 0x2306 SWAP1 PUSH2 0x4735 JUMP JUMPDEST DUP1 PUSH1 0x1F ADD PUSH1 0x20 DUP1 SWAP2 DIV MUL PUSH1 0x20 ADD PUSH1 0x40 MLOAD SWAP1 DUP2 ADD PUSH1 0x40 MSTORE DUP1 SWAP3 SWAP2 SWAP1 DUP2 DUP2 MSTORE PUSH1 0x20 ADD DUP3 DUP1 SLOAD PUSH2 0x2332 SWAP1 PUSH2 0x4735 JUMP JUMPDEST DUP1 ISZERO PUSH2 0x237F JUMPI DUP1 PUSH1 0x1F LT PUSH2 0x2354 JUMPI PUSH2 0x100 DUP1 DUP4 SLOAD DIV MUL DUP4 MSTORE SWAP2 PUSH1 0x20 ADD SWAP2 PUSH2 0x237F JUMP JUMPDEST DUP3 ADD SWAP2 SWAP1 PUSH1 0x0 MSTORE PUSH1 0x20 PUSH1 0x0 KECCAK256 SWAP1 JUMPDEST DUP2 SLOAD DUP2 MSTORE SWAP1 PUSH1 0x1 ADD SWAP1 PUSH1 0x20 ADD DUP1 DUP4 GT PUSH2 0x2362 JUMPI DUP3 SWAP1 SUB PUSH1 0x1F AND DUP3 ADD SWAP2 JUMPDEST POP POP POP POP POP PUSH2 0x3EB5 JUMP JUMPDEST JUMPDEST ISZERO PUSH2 0x23A3 JUMPI PUSH1 0x3 DUP3 PUSH2 0x239C SWAP2 SWAP1 PUSH2 0x45D3 JUMP JUMPDEST SWAP2 POP PUSH2 0x2578 JUMP JUMPDEST PUSH2 0x247F DUP4 PUSH1 0x2 DUP4 PUSH2 0x23B4 SWAP2 SWAP1 PUSH2 0x479E JUMP JUMPDEST PUSH1 0xFF AND DUP2 MLOAD DUP2 LT PUSH2 0x23C8 JUMPI PUSH2 0x23C7 PUSH2 0x454B JUMP JUMPDEST JUMPDEST PUSH1 0x20 MUL PUSH1 0x20 ADD ADD MLOAD PUSH1 0x4 DUP4 PUSH1 0xFF AND DUP2 SLOAD DUP2 LT PUSH2 0x23E7 JUMPI PUSH2 0x23E6 PUSH2 0x454B JUMP JUMPDEST JUMPDEST SWAP1 PUSH1 0x0 MSTORE PUSH1 0x20 PUSH1 0x0 KECCAK256 ADD DUP1 SLOAD PUSH2 0x23FC SWAP1 PUSH2 0x4735 JUMP JUMPDEST DUP1 PUSH1 0x1F ADD PUSH1 0x20 DUP1 SWAP2 DIV MUL PUSH1 0x20 ADD PUSH1 0x40 MLOAD SWAP1 DUP2 ADD PUSH1 0x40 MSTORE DUP1 SWAP3 SWAP2 SWAP1 DUP2 DUP2 MSTORE PUSH1 0x20 ADD DUP3 DUP1 SLOAD PUSH2 0x2428 SWAP1 PUSH2 0x4735 JUMP JUMPDEST DUP1 ISZERO PUSH2 0x2475 JUMPI DUP1 PUSH1 0x1F LT PUSH2 0x244A JUMPI PUSH2 0x100 DUP1 DUP4 SLOAD DIV MUL DUP4 MSTORE SWAP2 PUSH1 0x20 ADD SWAP2 PUSH2 0x2475 JUMP JUMPDEST DUP3 ADD SWAP2 SWAP1 PUSH1 0x0 MSTORE PUSH1 0x20 PUSH1 0x0 KECCAK256 SWAP1 JUMPDEST DUP2 SLOAD DUP2 MSTORE SWAP1 PUSH1 0x1 ADD SWAP1 PUSH1 0x20 ADD DUP1 DUP4 GT PUSH2 0x2458 JUMPI DUP3 SWAP1 SUB PUSH1 0x1F AND DUP3 ADD SWAP2 JUMPDEST POP POP POP POP POP PUSH2 0x3EB5 JUMP JUMPDEST DUP1 PUSH2 0x2562 JUMPI POP PUSH2 0x2561 DUP4 PUSH1 0x2 DUP4 PUSH2 0x2496 SWAP2 SWAP1 PUSH2 0x4767 JUMP JUMPDEST PUSH1 0xFF AND DUP2 MLOAD DUP2 LT PUSH2 0x24AA JUMPI PUSH2 0x24A9 PUSH2 0x454B JUMP JUMPDEST JUMPDEST PUSH1 0x20 MUL PUSH1 0x20 ADD ADD MLOAD PUSH1 0x4 DUP4 PUSH1 0xFF AND DUP2 SLOAD DUP2 LT PUSH2 0x24C9 JUMPI PUSH2 0x24C8 PUSH2 0x454B JUMP JUMPDEST JUMPDEST SWAP1 PUSH1 0x0 MSTORE PUSH1 0x20 PUSH1 0x0 KECCAK256 ADD DUP1 SLOAD PUSH2 0x24DE SWAP1 PUSH2 0x4735 JUMP JUMPDEST DUP1 PUSH1 0x1F ADD PUSH1 0x20 DUP1 SWAP2 DIV MUL PUSH1 0x20 ADD PUSH1 0x40 MLOAD SWAP1 DUP2 ADD PUSH1 0x40 MSTORE DUP1 SWAP3 SWAP2 SWAP1 DUP2 DUP2 MSTORE PUSH1 0x20 ADD DUP3 DUP1 SLOAD PUSH2 0x250A SWAP1 PUSH2 0x4735 JUMP JUMPDEST DUP1 ISZERO PUSH2 0x2557 JUMPI DUP1 PUSH1 0x1F LT PUSH2 0x252C JUMPI PUSH2 0x100 DUP1 DUP4 SLOAD DIV MUL DUP4 MSTORE SWAP2 PUSH1 0x20 ADD SWAP2 PUSH2 0x2557 JUMP JUMPDEST DUP3 ADD SWAP2 SWAP1 PUSH1 0x0 MSTORE PUSH1 0x20 PUSH1 0x0 KECCAK256 SWAP1 JUMPDEST DUP2 SLOAD DUP2 MSTORE SWAP1 PUSH1 0x1 ADD SWAP1 PUSH1 0x20 ADD DUP1 DUP4 GT PUSH2 0x253A JUMPI DUP3 SWAP1 SUB PUSH1 0x1F AND DUP3 ADD SWAP2 JUMPDEST POP POP POP POP POP PUSH2 0x3EB5 JUMP JUMPDEST JUMPDEST ISZERO PUSH2 0x2577 JUMPI PUSH1 0x1 DUP3 PUSH2 0x2574 SWAP2 SWAP1 PUSH2 0x45D3 JUMP JUMPDEST SWAP2 POP JUMPDEST JUMPDEST JUMPDEST JUMPDEST JUMPDEST JUMPDEST JUMPDEST DUP1 DUP1 PUSH2 0x2588 SWAP1 PUSH2 0x45A9 JUMP JUMPDEST SWAP2 POP POP PUSH2 0x1364 JUMP JUMPDEST POP DUP1 PUSH1 0x0 DUP1 PUSH1 0x1 DUP7 PUSH1 0xFF AND DUP2 SLOAD DUP2 LT PUSH2 0x25AC JUMPI PUSH2 0x25AB PUSH2 0x454B JUMP JUMPDEST JUMPDEST SWAP1 PUSH1 0x0 MSTORE PUSH1 0x20 PUSH1 0x0 KECCAK256 ADD PUSH1 0x0 SWAP1 SLOAD SWAP1 PUSH2 0x100 EXP SWAP1 DIV PUSH20 0xFFFFFFFFFFFFFFFFFFFFFFFFFFFFFFFFFFFFFFFF AND PUSH20 0xFFFFFFFFFFFFFFFFFFFFFFFFFFFFFFFFFFFFFFFF AND PUSH20 0xFFFFFFFFFFFFFFFFFFFFFFFFFFFFFFFFFFFFFFFF AND DUP2 MSTORE PUSH1 0x20 ADD SWAP1 DUP2 MSTORE PUSH1 0x20 ADD PUSH1 0x0 KECCAK256 PUSH1 0x3 ADD DUP2 SWAP1 SSTORE POP POP POP DUP1 DUP1 PUSH2 0x2625 SWAP1 PUSH2 0x45A9 JUMP JUMPDEST SWAP2 POP POP PUSH2 0x11FA JUMP JUMPDEST POP JUMP JUMPDEST PUSH1 0x0 JUMPDEST PUSH1 0x1 DUP1 SLOAD SWAP1 POP DUP2 PUSH1 0xFF AND LT ISZERO PUSH2 0x3A66 JUMPI PUSH1 0x0 DUP1 PUSH1 0x0 PUSH1 0x1 DUP5 PUSH1 0xFF AND DUP2 SLOAD DUP2 LT PUSH2 0x265F JUMPI PUSH2 0x265E PUSH2 0x454B JUMP JUMPDEST JUMPDEST SWAP1 PUSH1 0x0 MSTORE PUSH1 0x20 PUSH1 0x0 KECCAK256 ADD PUSH1 0x0 SWAP1 SLOAD SWAP1 PUSH2 0x100 EXP SWAP1 DIV PUSH20 0xFFFFFFFFFFFFFFFFFFFFFFFFFFFFFFFFFFFFFFFF AND PUSH20 0xFFFFFFFFFFFFFFFFFFFFFFFFFFFFFFFFFFFFFFFF AND PUSH20 0xFFFFFFFFFFFFFFFFFFFFFFFFFFFFFFFFFFFFFFFF AND DUP2 MSTORE PUSH1 0x20 ADD SWAP1 DUP2 MSTORE PUSH1 0x20 ADD PUSH1 0x0 KECCAK256 PUSH1 0x1 ADD DUP1 SLOAD DUP1 PUSH1 0x20 MUL PUSH1 0x20 ADD PUSH1 0x40 MLOAD SWAP1 DUP2 ADD PUSH1 0x40 MSTORE DUP1 SWAP3 SWAP2 SWAP1 DUP2 DUP2 MSTORE PUSH1 0x20 ADD PUSH1 0x0 SWAP1 JUMPDEST DUP3 DUP3 LT ISZERO PUSH2 0x2793 JUMPI DUP4 DUP3 SWAP1 PUSH1 0x0 MSTORE PUSH1 0x20 PUSH1 0x0 KECCAK256 ADD DUP1 SLOAD PUSH2 0x2706 SWAP1 PUSH2 0x4735 JUMP JUMPDEST DUP1 PUSH1 0x1F ADD PUSH1 0x20 DUP1 SWAP2 DIV MUL PUSH1 0x20 ADD PUSH1 0x40 MLOAD SWAP1 DUP2 ADD PUSH1 0x40 MSTORE DUP1 SWAP3 SWAP2 SWAP1 DUP2 DUP2 MSTORE PUSH1 0x20 ADD DUP3 DUP1 SLOAD PUSH2 0x2732 SWAP1 PUSH2 0x4735 JUMP JUMPDEST DUP1 ISZERO PUSH2 0x277F JUMPI DUP1 PUSH1 0x1F LT PUSH2 0x2754 JUMPI PUSH2 0x100 DUP1 DUP4 SLOAD DIV MUL DUP4 MSTORE SWAP2 PUSH1 0x20 ADD SWAP2 PUSH2 0x277F JUMP JUMPDEST DUP3 ADD SWAP2 SWAP1 PUSH1 0x0 MSTORE PUSH1 0x20 PUSH1 0x0 KECCAK256 SWAP1 JUMPDEST DUP2 SLOAD DUP2 MSTORE SWAP1 PUSH1 0x1 ADD SWAP1 PUSH1 0x20 ADD DUP1 DUP4 GT PUSH2 0x2762 JUMPI DUP3 SWAP1 SUB PUSH1 0x1F AND DUP3 ADD SWAP2 JUMPDEST POP POP POP POP POP DUP2 MSTORE PUSH1 0x20 ADD SWAP1 PUSH1 0x1 ADD SWAP1 PUSH2 0x26E7 JUMP JUMPDEST POP POP POP POP SWAP1 POP PUSH1 0x0 DUP1 JUMPDEST PUSH1 0x5 DUP1 SLOAD SWAP1 POP DUP2 PUSH1 0xFF AND LT ISZERO PUSH2 0x39C9 JUMPI PUSH1 0x1 DUP2 PUSH1 0xFF AND LT ISZERO PUSH2 0x2A8F JUMPI PUSH2 0x2889 DUP4 DUP3 PUSH1 0xFF AND DUP2 MLOAD DUP2 LT PUSH2 0x27D2 JUMPI PUSH2 0x27D1 PUSH2 0x454B JUMP JUMPDEST JUMPDEST PUSH1 0x20 MUL PUSH1 0x20 ADD ADD MLOAD PUSH1 0x5 DUP4 PUSH1 0xFF AND DUP2 SLOAD DUP2 LT PUSH2 0x27F1 JUMPI PUSH2 0x27F0 PUSH2 0x454B JUMP JUMPDEST JUMPDEST SWAP1 PUSH1 0x0 MSTORE PUSH1 0x20 PUSH1 0x0 KECCAK256 ADD DUP1 SLOAD PUSH2 0x2806 SWAP1 PUSH2 0x4735 JUMP JUMPDEST DUP1 PUSH1 0x1F ADD PUSH1 0x20 DUP1 SWAP2 DIV MUL PUSH1 0x20 ADD PUSH1 0x40 MLOAD SWAP1 DUP2 ADD PUSH1 0x40 MSTORE DUP1 SWAP3 SWAP2 SWAP1 DUP2 DUP2 MSTORE PUSH1 0x20 ADD DUP3 DUP1 SLOAD PUSH2 0x2832 SWAP1 PUSH2 0x4735 JUMP JUMPDEST DUP1 ISZERO PUSH2 0x287F JUMPI DUP1 PUSH1 0x1F LT PUSH2 0x2854 JUMPI PUSH2 0x100 DUP1 DUP4 SLOAD DIV MUL DUP4 MSTORE SWAP2 PUSH1 0x20 ADD SWAP2 PUSH2 0x287F JUMP JUMPDEST DUP3 ADD SWAP2 SWAP1 PUSH1 0x0 MSTORE PUSH1 0x20 PUSH1 0x0 KECCAK256 SWAP1 JUMPDEST DUP2 SLOAD DUP2 MSTORE SWAP1 PUSH1 0x1 ADD SWAP1 PUSH1 0x20 ADD DUP1 DUP4 GT PUSH2 0x2862 JUMPI DUP3 SWAP1 SUB PUSH1 0x1F AND DUP3 ADD SWAP2 JUMPDEST POP POP POP POP POP PUSH2 0x3EB5 JUMP JUMPDEST ISZERO PUSH2 0x28A2 JUMPI PUSH1 0x5 DUP3 PUSH2 0x289B SWAP2 SWAP1 PUSH2 0x45D3 JUMP JUMPDEST SWAP2 POP PUSH2 0x2A8A JUMP JUMPDEST PUSH2 0x297E DUP4 PUSH1 0x1 DUP4 PUSH2 0x28B3 SWAP2 SWAP1 PUSH2 0x4767 JUMP JUMPDEST PUSH1 0xFF AND DUP2 MLOAD DUP2 LT PUSH2 0x28C7 JUMPI PUSH2 0x28C6 PUSH2 0x454B JUMP JUMPDEST JUMPDEST PUSH1 0x20 MUL PUSH1 0x20 ADD ADD MLOAD PUSH1 0x5 DUP4 PUSH1 0xFF AND DUP2 SLOAD DUP2 LT PUSH2 0x28E6 JUMPI PUSH2 0x28E5 PUSH2 0x454B JUMP JUMPDEST JUMPDEST SWAP1 PUSH1 0x0 MSTORE PUSH1 0x20 PUSH1 0x0 KECCAK256 ADD DUP1 SLOAD PUSH2 0x28FB SWAP1 PUSH2 0x4735 JUMP JUMPDEST DUP1 PUSH1 0x1F ADD PUSH1 0x20 DUP1 SWAP2 DIV MUL PUSH1 0x20 ADD PUSH1 0x40 MLOAD SWAP1 DUP2 ADD PUSH1 0x40 MSTORE DUP1 SWAP3 SWAP2 SWAP1 DUP2 DUP2 MSTORE PUSH1 0x20 ADD DUP3 DUP1 SLOAD PUSH2 0x2927 SWAP1 PUSH2 0x4735 JUMP JUMPDEST DUP1 ISZERO PUSH2 0x2974 JUMPI DUP1 PUSH1 0x1F LT PUSH2 0x2949 JUMPI PUSH2 0x100 DUP1 DUP4 SLOAD DIV MUL DUP4 MSTORE SWAP2 PUSH1 0x20 ADD SWAP2 PUSH2 0x2974 JUMP JUMPDEST DUP3 ADD SWAP2 SWAP1 PUSH1 0x0 MSTORE PUSH1 0x20 PUSH1 0x0 KECCAK256 SWAP1 JUMPDEST DUP2 SLOAD DUP2 MSTORE SWAP1 PUSH1 0x1 ADD SWAP1 PUSH1 0x20 ADD DUP1 DUP4 GT PUSH2 0x2957 JUMPI DUP3 SWAP1 SUB PUSH1 0x1F AND DUP3 ADD SWAP2 JUMPDEST POP POP POP POP POP PUSH2 0x3EB5 JUMP JUMPDEST ISZERO PUSH2 0x2997 JUMPI PUSH1 0x3 DUP3 PUSH2 0x2990 SWAP2 SWAP1 PUSH2 0x45D3 JUMP JUMPDEST SWAP2 POP PUSH2 0x2A89 JUMP JUMPDEST PUSH2 0x2A73 DUP4 PUSH1 0x2 DUP4 PUSH2 0x29A8 SWAP2 SWAP1 PUSH2 0x4767 JUMP JUMPDEST PUSH1 0xFF AND DUP2 MLOAD DUP2 LT PUSH2 0x29BC JUMPI PUSH2 0x29BB PUSH2 0x454B JUMP JUMPDEST JUMPDEST PUSH1 0x20 MUL PUSH1 0x20 ADD ADD MLOAD PUSH1 0x5 DUP4 PUSH1 0xFF AND DUP2 SLOAD DUP2 LT PUSH2 0x29DB JUMPI PUSH2 0x29DA PUSH2 0x454B JUMP JUMPDEST JUMPDEST SWAP1 PUSH1 0x0 MSTORE PUSH1 0x20 PUSH1 0x0 KECCAK256 ADD DUP1 SLOAD PUSH2 0x29F0 SWAP1 PUSH2 0x4735 JUMP JUMPDEST DUP1 PUSH1 0x1F ADD PUSH1 0x20 DUP1 SWAP2 DIV MUL PUSH1 0x20 ADD PUSH1 0x40 MLOAD SWAP1 DUP2 ADD PUSH1 0x40 MSTORE DUP1 SWAP3 SWAP2 SWAP1 DUP2 DUP2 MSTORE PUSH1 0x20 ADD DUP3 DUP1 SLOAD PUSH2 0x2A1C SWAP1 PUSH2 0x4735 JUMP JUMPDEST DUP1 ISZERO PUSH2 0x2A69 JUMPI DUP1 PUSH1 0x1F LT PUSH2 0x2A3E JUMPI PUSH2 0x100 DUP1 DUP4 SLOAD DIV MUL DUP4 MSTORE SWAP2 PUSH1 0x20 ADD SWAP2 PUSH2 0x2A69 JUMP JUMPDEST DUP3 ADD SWAP2 SWAP1 PUSH1 0x0 MSTORE PUSH1 0x20 PUSH1 0x0 KECCAK256 SWAP1 JUMPDEST DUP2 SLOAD DUP2 MSTORE SWAP1 PUSH1 0x1 ADD SWAP1 PUSH1 0x20 ADD DUP1 DUP4 GT PUSH2 0x2A4C JUMPI DUP3 SWAP1 SUB PUSH1 0x1F AND DUP3 ADD SWAP2 JUMPDEST POP POP POP POP POP PUSH2 0x3EB5 JUMP JUMPDEST ISZERO PUSH2 0x2A88 JUMPI PUSH1 0x1 DUP3 PUSH2 0x2A85 SWAP2 SWAP1 PUSH2 0x45D3 JUMP JUMPDEST SWAP2 POP JUMPDEST JUMPDEST JUMPDEST PUSH2 0x39B6 JUMP JUMPDEST PUSH1 0x2 DUP2 PUSH1 0xFF AND LT ISZERO PUSH2 0x2E54 JUMPI PUSH2 0x2B6B DUP4 DUP3 PUSH1 0xFF AND DUP2 MLOAD DUP2 LT PUSH2 0x2AB4 JUMPI PUSH2 0x2AB3 PUSH2 0x454B JUMP JUMPDEST JUMPDEST PUSH1 0x20 MUL PUSH1 0x20 ADD ADD MLOAD PUSH1 0x5 DUP4 PUSH1 0xFF AND DUP2 SLOAD DUP2 LT PUSH2 0x2AD3 JUMPI PUSH2 0x2AD2 PUSH2 0x454B JUMP JUMPDEST JUMPDEST SWAP1 PUSH1 0x0 MSTORE PUSH1 0x20 PUSH1 0x0 KECCAK256 ADD DUP1 SLOAD PUSH2 0x2AE8 SWAP1 PUSH2 0x4735 JUMP JUMPDEST DUP1 PUSH1 0x1F ADD PUSH1 0x20 DUP1 SWAP2 DIV MUL PUSH1 0x20 ADD PUSH1 0x40 MLOAD SWAP1 DUP2 ADD PUSH1 0x40 MSTORE DUP1 SWAP3 SWAP2 SWAP1 DUP2 DUP2 MSTORE PUSH1 0x20 ADD DUP3 DUP1 SLOAD PUSH2 0x2B14 SWAP1 PUSH2 0x4735 JUMP JUMPDEST DUP1 ISZERO PUSH2 0x2B61 JUMPI DUP1 PUSH1 0x1F LT PUSH2 0x2B36 JUMPI PUSH2 0x100 DUP1 DUP4 SLOAD DIV MUL DUP4 MSTORE SWAP2 PUSH1 0x20 ADD SWAP2 PUSH2 0x2B61 JUMP JUMPDEST DUP3 ADD SWAP2 SWAP1 PUSH1 0x0 MSTORE PUSH1 0x20 PUSH1 0x0 KECCAK256 SWAP1 JUMPDEST DUP2 SLOAD DUP2 MSTORE SWAP1 PUSH1 0x1 ADD SWAP1 PUSH1 0x20 ADD DUP1 DUP4 GT PUSH2 0x2B44 JUMPI DUP3 SWAP1 SUB PUSH1 0x1F AND DUP3 ADD SWAP2 JUMPDEST POP POP POP POP POP PUSH2 0x3EB5 JUMP JUMPDEST ISZERO PUSH2 0x2B84 JUMPI PUSH1 0x5 DUP3 PUSH2 0x2B7D SWAP2 SWAP1 PUSH2 0x45D3 JUMP JUMPDEST SWAP2 POP PUSH2 0x2E4F JUMP JUMPDEST PUSH2 0x2C60 DUP4 PUSH1 0x1 DUP4 PUSH2 0x2B95 SWAP2 SWAP1 PUSH2 0x479E JUMP JUMPDEST PUSH1 0xFF AND DUP2 MLOAD DUP2 LT PUSH2 0x2BA9 JUMPI PUSH2 0x2BA8 PUSH2 0x454B JUMP JUMPDEST JUMPDEST PUSH1 0x20 MUL PUSH1 0x20 ADD ADD MLOAD PUSH1 0x5 DUP4 PUSH1 0xFF AND DUP2 SLOAD DUP2 LT PUSH2 0x2BC8 JUMPI PUSH2 0x2BC7 PUSH2 0x454B JUMP JUMPDEST JUMPDEST SWAP1 PUSH1 0x0 MSTORE PUSH1 0x20 PUSH1 0x0 KECCAK256 ADD DUP1 SLOAD PUSH2 0x2BDD SWAP1 PUSH2 0x4735 JUMP JUMPDEST DUP1 PUSH1 0x1F ADD PUSH1 0x20 DUP1 SWAP2 DIV MUL PUSH1 0x20 ADD PUSH1 0x40 MLOAD SWAP1 DUP2 ADD PUSH1 0x40 MSTORE DUP1 SWAP3 SWAP2 SWAP1 DUP2 DUP2 MSTORE PUSH1 0x20 ADD DUP3 DUP1 SLOAD PUSH2 0x2C09 SWAP1 PUSH2 0x4735 JUMP JUMPDEST DUP1 ISZERO PUSH2 0x2C56 JUMPI DUP1 PUSH1 0x1F LT PUSH2 0x2C2B JUMPI PUSH2 0x100 DUP1 DUP4 SLOAD DIV MUL DUP4 MSTORE SWAP2 PUSH1 0x20 ADD SWAP2 PUSH2 0x2C56 JUMP JUMPDEST DUP3 ADD SWAP2 SWAP1 PUSH1 0x0 MSTORE PUSH1 0x20 PUSH1 0x0 KECCAK256 SWAP1 JUMPDEST DUP2 SLOAD DUP2 MSTORE SWAP1 PUSH1 0x1 ADD SWAP1 PUSH1 0x20 ADD DUP1 DUP4 GT PUSH2 0x2C39 JUMPI DUP3 SWAP1 SUB PUSH1 0x1F AND DUP3 ADD SWAP2 JUMPDEST POP POP POP POP POP PUSH2 0x3EB5 JUMP JUMPDEST DUP1 PUSH2 0x2D43 JUMPI POP PUSH2 0x2D42 DUP4 PUSH1 0x1 DUP4 PUSH2 0x2C77 SWAP2 SWAP1 PUSH2 0x4767 JUMP JUMPDEST PUSH1 0xFF AND DUP2 MLOAD DUP2 LT PUSH2 0x2C8B JUMPI PUSH2 0x2C8A PUSH2 0x454B JUMP JUMPDEST JUMPDEST PUSH1 0x20 MUL PUSH1 0x20 ADD ADD MLOAD PUSH1 0x5 DUP4 PUSH1 0xFF AND DUP2 SLOAD DUP2 LT PUSH2 0x2CAA JUMPI PUSH2 0x2CA9 PUSH2 0x454B JUMP JUMPDEST JUMPDEST SWAP1 PUSH1 0x0 MSTORE PUSH1 0x20 PUSH1 0x0 KECCAK256 ADD DUP1 SLOAD PUSH2 0x2CBF SWAP1 PUSH2 0x4735 JUMP JUMPDEST DUP1 PUSH1 0x1F ADD PUSH1 0x20 DUP1 SWAP2 DIV MUL PUSH1 0x20 ADD PUSH1 0x40 MLOAD SWAP1 DUP2 ADD PUSH1 0x40 MSTORE DUP1 SWAP3 SWAP2 SWAP1 DUP2 DUP2 MSTORE PUSH1 0x20 ADD DUP3 DUP1 SLOAD PUSH2 0x2CEB SWAP1 PUSH2 0x4735 JUMP JUMPDEST DUP1 ISZERO PUSH2 0x2D38 JUMPI DUP1 PUSH1 0x1F LT PUSH2 0x2D0D JUMPI PUSH2 0x100 DUP1 DUP4 SLOAD DIV MUL DUP4 MSTORE SWAP2 PUSH1 0x20 ADD SWAP2 PUSH2 0x2D38 JUMP JUMPDEST DUP3 ADD SWAP2 SWAP1 PUSH1 0x0 MSTORE PUSH1 0x20 PUSH1 0x0 KECCAK256 SWAP1 JUMPDEST DUP2 SLOAD DUP2 MSTORE SWAP1 PUSH1 0x1 ADD SWAP1 PUSH1 0x20 ADD DUP1 DUP4 GT PUSH2 0x2D1B JUMPI DUP3 SWAP1 SUB PUSH1 0x1F AND DUP3 ADD SWAP2 JUMPDEST POP POP POP POP POP PUSH2 0x3EB5 JUMP JUMPDEST JUMPDEST ISZERO PUSH2 0x2D5C JUMPI PUSH1 0x3 DUP3 PUSH2 0x2D55 SWAP2 SWAP1 PUSH2 0x45D3 JUMP JUMPDEST SWAP2 POP PUSH2 0x2E4E JUMP JUMPDEST PUSH2 0x2E38 DUP4 PUSH1 0x2 DUP4 PUSH2 0x2D6D SWAP2 SWAP1 PUSH2 0x4767 JUMP JUMPDEST PUSH1 0xFF AND DUP2 MLOAD DUP2 LT PUSH2 0x2D81 JUMPI PUSH2 0x2D80 PUSH2 0x454B JUMP JUMPDEST JUMPDEST PUSH1 0x20 MUL PUSH1 0x20 ADD ADD MLOAD PUSH1 0x5 DUP4 PUSH1 0xFF AND DUP2 SLOAD DUP2 LT PUSH2 0x2DA0 JUMPI PUSH2 0x2D9F PUSH2 0x454B JUMP JUMPDEST JUMPDEST SWAP1 PUSH1 0x0 MSTORE PUSH1 0x20 PUSH1 0x0 KECCAK256 ADD DUP1 SLOAD PUSH2 0x2DB5 SWAP1 PUSH2 0x4735 JUMP JUMPDEST DUP1 PUSH1 0x1F ADD PUSH1 0x20 DUP1 SWAP2 DIV MUL PUSH1 0x20 ADD PUSH1 0x40 MLOAD SWAP1 DUP2 ADD PUSH1 0x40 MSTORE DUP1 SWAP3 SWAP2 SWAP1 DUP2 DUP2 MSTORE PUSH1 0x20 ADD DUP3 DUP1 SLOAD PUSH2 0x2DE1 SWAP1 PUSH2 0x4735 JUMP JUMPDEST DUP1 ISZERO PUSH2 0x2E2E JUMPI DUP1 PUSH1 0x1F LT PUSH2 0x2E03 JUMPI PUSH2 0x100 DUP1 DUP4 SLOAD DIV MUL DUP4 MSTORE SWAP2 PUSH1 0x20 ADD SWAP2 PUSH2 0x2E2E JUMP JUMPDEST DUP3 ADD SWAP2 SWAP1 PUSH1 0x0 MSTORE PUSH1 0x20 PUSH1 0x0 KECCAK256 SWAP1 JUMPDEST DUP2 SLOAD DUP2 MSTORE SWAP1 PUSH1 0x1 ADD SWAP1 PUSH1 0x20 ADD DUP1 DUP4 GT PUSH2 0x2E11 JUMPI DUP3 SWAP1 SUB PUSH1 0x1F AND DUP3 ADD SWAP2 JUMPDEST POP POP POP POP POP PUSH2 0x3EB5 JUMP JUMPDEST ISZERO PUSH2 0x2E4D JUMPI PUSH1 0x1 DUP3 PUSH2 0x2E4A SWAP2 SWAP1 PUSH2 0x45D3 JUMP JUMPDEST SWAP2 POP JUMPDEST JUMPDEST JUMPDEST PUSH2 0x39B5 JUMP JUMPDEST PUSH1 0x2 PUSH1 0x5 DUP1 SLOAD SWAP1 POP PUSH2 0x2E66 SWAP2 SWAP1 PUSH2 0x47D2 JUMP JUMPDEST DUP2 PUSH1 0xFF AND EQ ISZERO PUSH2 0x3229 JUMPI PUSH2 0x2F40 DUP4 DUP3 PUSH1 0xFF AND DUP2 MLOAD DUP2 LT PUSH2 0x2E89 JUMPI PUSH2 0x2E88 PUSH2 0x454B JUMP JUMPDEST JUMPDEST PUSH1 0x20 MUL PUSH1 0x20 ADD ADD MLOAD PUSH1 0x5 DUP4 PUSH1 0xFF AND DUP2 SLOAD DUP2 LT PUSH2 0x2EA8 JUMPI PUSH2 0x2EA7 PUSH2 0x454B JUMP JUMPDEST JUMPDEST SWAP1 PUSH1 0x0 MSTORE PUSH1 0x20 PUSH1 0x0 KECCAK256 ADD DUP1 SLOAD PUSH2 0x2EBD SWAP1 PUSH2 0x4735 JUMP JUMPDEST DUP1 PUSH1 0x1F ADD PUSH1 0x20 DUP1 SWAP2 DIV MUL PUSH1 0x20 ADD PUSH1 0x40 MLOAD SWAP1 DUP2 ADD PUSH1 0x40 MSTORE DUP1 SWAP3 SWAP2 SWAP1 DUP2 DUP2 MSTORE PUSH1 0x20 ADD DUP3 DUP1 SLOAD PUSH2 0x2EE9 SWAP1 PUSH2 0x4735 JUMP JUMPDEST DUP1 ISZERO PUSH2 0x2F36 JUMPI DUP1 PUSH1 0x1F LT PUSH2 0x2F0B JUMPI PUSH2 0x100 DUP1 DUP4 SLOAD DIV MUL DUP4 MSTORE SWAP2 PUSH1 0x20 ADD SWAP2 PUSH2 0x2F36 JUMP JUMPDEST DUP3 ADD SWAP2 SWAP1 PUSH1 0x0 MSTORE PUSH1 0x20 PUSH1 0x0 KECCAK256 SWAP1 JUMPDEST DUP2 SLOAD DUP2 MSTORE SWAP1 PUSH1 0x1 ADD SWAP1 PUSH1 0x20 ADD DUP1 DUP4 GT PUSH2 0x2F19 JUMPI DUP3 SWAP1 SUB PUSH1 0x1F AND DUP3 ADD SWAP2 JUMPDEST POP POP POP POP POP PUSH2 0x3EB5 JUMP JUMPDEST ISZERO PUSH2 0x2F59 JUMPI PUSH1 0x5 DUP3 PUSH2 0x2F52 SWAP2 SWAP1 PUSH2 0x45D3 JUMP JUMPDEST SWAP2 POP PUSH2 0x3224 JUMP JUMPDEST PUSH2 0x3035 DUP4 PUSH1 0x1 DUP4 PUSH2 0x2F6A SWAP2 SWAP1 PUSH2 0x479E JUMP JUMPDEST PUSH1 0xFF AND DUP2 MLOAD DUP2 LT PUSH2 0x2F7E JUMPI PUSH2 0x2F7D PUSH2 0x454B JUMP JUMPDEST JUMPDEST PUSH1 0x20 MUL PUSH1 0x20 ADD ADD MLOAD PUSH1 0x5 DUP4 PUSH1 0xFF AND DUP2 SLOAD DUP2 LT PUSH2 0x2F9D JUMPI PUSH2 0x2F9C PUSH2 0x454B JUMP JUMPDEST JUMPDEST SWAP1 PUSH1 0x0 MSTORE PUSH1 0x20 PUSH1 0x0 KECCAK256 ADD DUP1 SLOAD PUSH2 0x2FB2 SWAP1 PUSH2 0x4735 JUMP JUMPDEST DUP1 PUSH1 0x1F ADD PUSH1 0x20 DUP1 SWAP2 DIV MUL PUSH1 0x20 ADD PUSH1 0x40 MLOAD SWAP1 DUP2 ADD PUSH1 0x40 MSTORE DUP1 SWAP3 SWAP2 SWAP1 DUP2 DUP2 MSTORE PUSH1 0x20 ADD DUP3 DUP1 SLOAD PUSH2 0x2FDE SWAP1 PUSH2 0x4735 JUMP JUMPDEST DUP1 ISZERO PUSH2 0x302B JUMPI DUP1 PUSH1 0x1F LT PUSH2 0x3000 JUMPI PUSH2 0x100 DUP1 DUP4 SLOAD DIV MUL DUP4 MSTORE SWAP2 PUSH1 0x20 ADD SWAP2 PUSH2 0x302B JUMP JUMPDEST DUP3 ADD SWAP2 SWAP1 PUSH1 0x0 MSTORE PUSH1 0x20 PUSH1 0x0 KECCAK256 SWAP1 JUMPDEST DUP2 SLOAD DUP2 MSTORE SWAP1 PUSH1 0x1 ADD SWAP1 PUSH1 0x20 ADD DUP1 DUP4 GT PUSH2 0x300E JUMPI DUP3 SWAP1 SUB PUSH1 0x1F AND DUP3 ADD SWAP2 JUMPDEST POP POP POP POP POP PUSH2 0x3EB5 JUMP JUMPDEST DUP1 PUSH2 0x3118 JUMPI POP PUSH2 0x3117 DUP4 PUSH1 0x1 DUP4 PUSH2 0x304C SWAP2 SWAP1 PUSH2 0x4767 JUMP JUMPDEST PUSH1 0xFF AND DUP2 MLOAD DUP2 LT PUSH2 0x3060 JUMPI PUSH2 0x305F PUSH2 0x454B JUMP JUMPDEST JUMPDEST PUSH1 0x20 MUL PUSH1 0x20 ADD ADD MLOAD PUSH1 0x5 DUP4 PUSH1 0xFF AND DUP2 SLOAD DUP2 LT PUSH2 0x307F JUMPI PUSH2 0x307E PUSH2 0x454B JUMP JUMPDEST JUMPDEST SWAP1 PUSH1 0x0 MSTORE PUSH1 0x20 PUSH1 0x0 KECCAK256 ADD DUP1 SLOAD PUSH2 0x3094 SWAP1 PUSH2 0x4735 JUMP JUMPDEST DUP1 PUSH1 0x1F ADD PUSH1 0x20 DUP1 SWAP2 DIV MUL PUSH1 0x20 ADD PUSH1 0x40 MLOAD SWAP1 DUP2 ADD PUSH1 0x40 MSTORE DUP1 SWAP3 SWAP2 SWAP1 DUP2 DUP2 MSTORE PUSH1 0x20 ADD DUP3 DUP1 SLOAD PUSH2 0x30C0 SWAP1 PUSH2 0x4735 JUMP JUMPDEST DUP1 ISZERO PUSH2 0x310D JUMPI DUP1 PUSH1 0x1F LT PUSH2 0x30E2 JUMPI PUSH2 0x100 DUP1 DUP4 SLOAD DIV MUL DUP4 MSTORE SWAP2 PUSH1 0x20 ADD SWAP2 PUSH2 0x310D JUMP JUMPDEST DUP3 ADD SWAP2 SWAP1 PUSH1 0x0 MSTORE PUSH1 0x20 PUSH1 0x0 KECCAK256 SWAP1 JUMPDEST DUP2 SLOAD DUP2 MSTORE SWAP1 PUSH1 0x1 ADD SWAP1 PUSH1 0x20 ADD DUP1 DUP4 GT PUSH2 0x30F0 JUMPI DUP3 SWAP1 SUB PUSH1 0x1F AND DUP3 ADD SWAP2 JUMPDEST POP POP POP POP POP PUSH2 0x3EB5 JUMP JUMPDEST JUMPDEST ISZERO PUSH2 0x3131 JUMPI PUSH1 0x3 DUP3 PUSH2 0x312A SWAP2 SWAP1 PUSH2 0x45D3 JUMP JUMPDEST SWAP2 POP PUSH2 0x3223 JUMP JUMPDEST PUSH2 0x320D DUP4 PUSH1 0x2 DUP4 PUSH2 0x3142 SWAP2 SWAP1 PUSH2 0x479E JUMP JUMPDEST PUSH1 0xFF AND DUP2 MLOAD DUP2 LT PUSH2 0x3156 JUMPI PUSH2 0x3155 PUSH2 0x454B JUMP JUMPDEST JUMPDEST PUSH1 0x20 MUL PUSH1 0x20 ADD ADD MLOAD PUSH1 0x5 DUP4 PUSH1 0xFF AND DUP2 SLOAD DUP2 LT PUSH2 0x3175 JUMPI PUSH2 0x3174 PUSH2 0x454B JUMP JUMPDEST JUMPDEST SWAP1 PUSH1 0x0 MSTORE PUSH1 0x20 PUSH1 0x0 KECCAK256 ADD DUP1 SLOAD PUSH2 0x318A SWAP1 PUSH2 0x4735 JUMP JUMPDEST DUP1 PUSH1 0x1F ADD PUSH1 0x20 DUP1 SWAP2 DIV MUL PUSH1 0x20 ADD PUSH1 0x40 MLOAD SWAP1 DUP2 ADD PUSH1 0x40 MSTORE DUP1 SWAP3 SWAP2 SWAP1 DUP2 DUP2 MSTORE PUSH1 0x20 ADD DUP3 DUP1 SLOAD PUSH2 0x31B6 SWAP1 PUSH2 0x4735 JUMP JUMPDEST DUP1 ISZERO PUSH2 0x3203 JUMPI DUP1 PUSH1 0x1F LT PUSH2 0x31D8 JUMPI PUSH2 0x100 DUP1 DUP4 SLOAD DIV MUL DUP4 MSTORE SWAP2 PUSH1 0x20 ADD SWAP2 PUSH2 0x3203 JUMP JUMPDEST DUP3 ADD SWAP2 SWAP1 PUSH1 0x0 MSTORE PUSH1 0x20 PUSH1 0x0 KECCAK256 SWAP1 JUMPDEST DUP2 SLOAD DUP2 MSTORE SWAP1 PUSH1 0x1 ADD SWAP1 PUSH1 0x20 ADD DUP1 DUP4 GT PUSH2 0x31E6 JUMPI DUP3 SWAP1 SUB PUSH1 0x1F AND DUP3 ADD SWAP2 JUMPDEST POP POP POP POP POP PUSH2 0x3EB5 JUMP JUMPDEST ISZERO PUSH2 0x3222 JUMPI PUSH1 0x1 DUP3 PUSH2 0x321F SWAP2 SWAP1 PUSH2 0x45D3 JUMP JUMPDEST SWAP2 POP JUMPDEST JUMPDEST JUMPDEST PUSH2 0x39B4 JUMP JUMPDEST PUSH1 0x1 PUSH1 0x5 DUP1 SLOAD SWAP1 POP PUSH2 0x323B SWAP2 SWAP1 PUSH2 0x47D2 JUMP JUMPDEST DUP2 PUSH1 0xFF AND EQ ISZERO PUSH2 0x351B JUMPI PUSH2 0x3315 DUP4 DUP3 PUSH1 0xFF AND DUP2 MLOAD DUP2 LT PUSH2 0x325E JUMPI PUSH2 0x325D PUSH2 0x454B JUMP JUMPDEST JUMPDEST PUSH1 0x20 MUL PUSH1 0x20 ADD ADD MLOAD PUSH1 0x5 DUP4 PUSH1 0xFF AND DUP2 SLOAD DUP2 LT PUSH2 0x327D JUMPI PUSH2 0x327C PUSH2 0x454B JUMP JUMPDEST JUMPDEST SWAP1 PUSH1 0x0 MSTORE PUSH1 0x20 PUSH1 0x0 KECCAK256 ADD DUP1 SLOAD PUSH2 0x3292 SWAP1 PUSH2 0x4735 JUMP JUMPDEST DUP1 PUSH1 0x1F ADD PUSH1 0x20 DUP1 SWAP2 DIV MUL PUSH1 0x20 ADD PUSH1 0x40 MLOAD SWAP1 DUP2 ADD PUSH1 0x40 MSTORE DUP1 SWAP3 SWAP2 SWAP1 DUP2 DUP2 MSTORE PUSH1 0x20 ADD DUP3 DUP1 SLOAD PUSH2 0x32BE SWAP1 PUSH2 0x4735 JUMP JUMPDEST DUP1 ISZERO PUSH2 0x330B JUMPI DUP1 PUSH1 0x1F LT PUSH2 0x32E0 JUMPI PUSH2 0x100 DUP1 DUP4 SLOAD DIV MUL DUP4 MSTORE SWAP2 PUSH1 0x20 ADD SWAP2 PUSH2 0x330B JUMP JUMPDEST DUP3 ADD SWAP2 SWAP1 PUSH1 0x0 MSTORE PUSH1 0x20 PUSH1 0x0 KECCAK256 SWAP1 JUMPDEST DUP2 SLOAD DUP2 MSTORE SWAP1 PUSH1 0x1 ADD SWAP1 PUSH1 0x20 ADD DUP1 DUP4 GT PUSH2 0x32EE JUMPI DUP3 SWAP1 SUB PUSH1 0x1F AND DUP3 ADD SWAP2 JUMPDEST POP POP POP POP POP PUSH2 0x3EB5 JUMP JUMPDEST ISZERO PUSH2 0x332E JUMPI PUSH1 0x5 DUP3 PUSH2 0x3327 SWAP2 SWAP1 PUSH2 0x45D3 JUMP JUMPDEST SWAP2 POP PUSH2 0x3516 JUMP JUMPDEST PUSH2 0x340A DUP4 PUSH1 0x1 DUP4 PUSH2 0x333F SWAP2 SWAP1 PUSH2 0x479E JUMP JUMPDEST PUSH1 0xFF AND DUP2 MLOAD DUP2 LT PUSH2 0x3353 JUMPI PUSH2 0x3352 PUSH2 0x454B JUMP JUMPDEST JUMPDEST PUSH1 0x20 MUL PUSH1 0x20 ADD ADD MLOAD PUSH1 0x5 DUP4 PUSH1 0xFF AND DUP2 SLOAD DUP2 LT PUSH2 0x3372 JUMPI PUSH2 0x3371 PUSH2 0x454B JUMP JUMPDEST JUMPDEST SWAP1 PUSH1 0x0 MSTORE PUSH1 0x20 PUSH1 0x0 KECCAK256 ADD DUP1 SLOAD PUSH2 0x3387 SWAP1 PUSH2 0x4735 JUMP JUMPDEST DUP1 PUSH1 0x1F ADD PUSH1 0x20 DUP1 SWAP2 DIV MUL PUSH1 0x20 ADD PUSH1 0x40 MLOAD SWAP1 DUP2 ADD PUSH1 0x40 MSTORE DUP1 SWAP3 SWAP2 SWAP1 DUP2 DUP2 MSTORE PUSH1 0x20 ADD DUP3 DUP1 SLOAD PUSH2 0x33B3 SWAP1 PUSH2 0x4735 JUMP JUMPDEST DUP1 ISZERO PUSH2 0x3400 JUMPI DUP1 PUSH1 0x1F LT PUSH2 0x33D5 JUMPI PUSH2 0x100 DUP1 DUP4 SLOAD DIV MUL DUP4 MSTORE SWAP2 PUSH1 0x20 ADD SWAP2 PUSH2 0x3400 JUMP JUMPDEST DUP3 ADD SWAP2 SWAP1 PUSH1 0x0 MSTORE PUSH1 0x20 PUSH1 0x0 KECCAK256 SWAP1 JUMPDEST DUP2 SLOAD DUP2 MSTORE SWAP1 PUSH1 0x1 ADD SWAP1 PUSH1 0x20 ADD DUP1 DUP4 GT PUSH2 0x33E3 JUMPI DUP3 SWAP1 SUB PUSH1 0x1F AND DUP3 ADD SWAP2 JUMPDEST POP POP POP POP POP PUSH2 0x3EB5 JUMP JUMPDEST ISZERO PUSH2 0x3423 JUMPI PUSH1 0x3 DUP3 PUSH2 0x341C SWAP2 SWAP1 PUSH2 0x45D3 JUMP JUMPDEST SWAP2 POP PUSH2 0x3515 JUMP JUMPDEST PUSH2 0x34FF DUP4 PUSH1 0x2 DUP4 PUSH2 0x3434 SWAP2 SWAP1 PUSH2 0x479E JUMP JUMPDEST PUSH1 0xFF AND DUP2 MLOAD DUP2 LT PUSH2 0x3448 JUMPI PUSH2 0x3447 PUSH2 0x454B JUMP JUMPDEST JUMPDEST PUSH1 0x20 MUL PUSH1 0x20 ADD ADD MLOAD PUSH1 0x5 DUP4 PUSH1 0xFF AND DUP2 SLOAD DUP2 LT PUSH2 0x3467 JUMPI PUSH2 0x3466 PUSH2 0x454B JUMP JUMPDEST JUMPDEST SWAP1 PUSH1 0x0 MSTORE PUSH1 0x20 PUSH1 0x0 KECCAK256 ADD DUP1 SLOAD PUSH2 0x347C SWAP1 PUSH2 0x4735 JUMP JUMPDEST DUP1 PUSH1 0x1F ADD PUSH1 0x20 DUP1 SWAP2 DIV MUL PUSH1 0x20 ADD PUSH1 0x40 MLOAD SWAP1 DUP2 ADD PUSH1 0x40 MSTORE DUP1 SWAP3 SWAP2 SWAP1 DUP2 DUP2 MSTORE PUSH1 0x20 ADD DUP3 DUP1 SLOAD PUSH2 0x34A8 SWAP1 PUSH2 0x4735 JUMP JUMPDEST DUP1 ISZERO PUSH2 0x34F5 JUMPI DUP1 PUSH1 0x1F LT PUSH2 0x34CA JUMPI PUSH2 0x100 DUP1 DUP4 SLOAD DIV MUL DUP4 MSTORE SWAP2 PUSH1 0x20 ADD SWAP2 PUSH2 0x34F5 JUMP JUMPDEST DUP3 ADD SWAP2 SWAP1 PUSH1 0x0 MSTORE PUSH1 0x20 PUSH1 0x0 KECCAK256 SWAP1 JUMPDEST DUP2 SLOAD DUP2 MSTORE SWAP1 PUSH1 0x1 ADD SWAP1 PUSH1 0x20 ADD DUP1 DUP4 GT PUSH2 0x34D8 JUMPI DUP3 SWAP1 SUB PUSH1 0x1F AND DUP3 ADD SWAP2 JUMPDEST POP POP POP POP POP PUSH2 0x3EB5 JUMP JUMPDEST ISZERO PUSH2 0x3514 JUMPI PUSH1 0x1 DUP3 PUSH2 0x3511 SWAP2 SWAP1 PUSH2 0x45D3 JUMP JUMPDEST SWAP2 POP JUMPDEST JUMPDEST JUMPDEST PUSH2 0x39B3 JUMP JUMPDEST PUSH2 0x35EB DUP4 DUP3 PUSH1 0xFF AND DUP2 MLOAD DUP2 LT PUSH2 0x3534 JUMPI PUSH2 0x3533 PUSH2 0x454B JUMP JUMPDEST JUMPDEST PUSH1 0x20 MUL PUSH1 0x20 ADD ADD MLOAD PUSH1 0x5 DUP4 PUSH1 0xFF AND DUP2 SLOAD DUP2 LT PUSH2 0x3553 JUMPI PUSH2 0x3552 PUSH2 0x454B JUMP JUMPDEST JUMPDEST SWAP1 PUSH1 0x0 MSTORE PUSH1 0x20 PUSH1 0x0 KECCAK256 ADD DUP1 SLOAD PUSH2 0x3568 SWAP1 PUSH2 0x4735 JUMP JUMPDEST DUP1 PUSH1 0x1F ADD PUSH1 0x20 DUP1 SWAP2 DIV MUL PUSH1 0x20 ADD PUSH1 0x40 MLOAD SWAP1 DUP2 ADD PUSH1 0x40 MSTORE DUP1 SWAP3 SWAP2 SWAP1 DUP2 DUP2 MSTORE PUSH1 0x20 ADD DUP3 DUP1 SLOAD PUSH2 0x3594 SWAP1 PUSH2 0x4735 JUMP JUMPDEST DUP1 ISZERO PUSH2 0x35E1 JUMPI DUP1 PUSH1 0x1F LT PUSH2 0x35B6 JUMPI PUSH2 0x100 DUP1 DUP4 SLOAD DIV MUL DUP4 MSTORE SWAP2 PUSH1 0x20 ADD SWAP2 PUSH2 0x35E1 JUMP JUMPDEST DUP3 ADD SWAP2 SWAP1 PUSH1 0x0 MSTORE PUSH1 0x20 PUSH1 0x0 KECCAK256 SWAP1 JUMPDEST DUP2 SLOAD DUP2 MSTORE SWAP1 PUSH1 0x1 ADD SWAP1 PUSH1 0x20 ADD DUP1 DUP4 GT PUSH2 0x35C4 JUMPI DUP3 SWAP1 SUB PUSH1 0x1F AND DUP3 ADD SWAP2 JUMPDEST POP POP POP POP POP PUSH2 0x3EB5 JUMP JUMPDEST ISZERO PUSH2 0x3604 JUMPI PUSH1 0x5 DUP3 PUSH2 0x35FD SWAP2 SWAP1 PUSH2 0x45D3 JUMP JUMPDEST SWAP2 POP PUSH2 0x39B2 JUMP JUMPDEST PUSH2 0x36E0 DUP4 PUSH1 0x1 DUP4 PUSH2 0x3615 SWAP2 SWAP1 PUSH2 0x479E JUMP JUMPDEST PUSH1 0xFF AND DUP2 MLOAD DUP2 LT PUSH2 0x3629 JUMPI PUSH2 0x3628 PUSH2 0x454B JUMP JUMPDEST JUMPDEST PUSH1 0x20 MUL PUSH1 0x20 ADD ADD MLOAD PUSH1 0x5 DUP4 PUSH1 0xFF AND DUP2 SLOAD DUP2 LT PUSH2 0x3648 JUMPI PUSH2 0x3647 PUSH2 0x454B JUMP JUMPDEST JUMPDEST SWAP1 PUSH1 0x0 MSTORE PUSH1 0x20 PUSH1 0x0 KECCAK256 ADD DUP1 SLOAD PUSH2 0x365D SWAP1 PUSH2 0x4735 JUMP JUMPDEST DUP1 PUSH1 0x1F ADD PUSH1 0x20 DUP1 SWAP2 DIV MUL PUSH1 0x20 ADD PUSH1 0x40 MLOAD SWAP1 DUP2 ADD PUSH1 0x40 MSTORE DUP1 SWAP3 SWAP2 SWAP1 DUP2 DUP2 MSTORE PUSH1 0x20 ADD DUP3 DUP1 SLOAD PUSH2 0x3689 SWAP1 PUSH2 0x4735 JUMP JUMPDEST DUP1 ISZERO PUSH2 0x36D6 JUMPI DUP1 PUSH1 0x1F LT PUSH2 0x36AB JUMPI PUSH2 0x100 DUP1 DUP4 SLOAD DIV MUL DUP4 MSTORE SWAP2 PUSH1 0x20 ADD SWAP2 PUSH2 0x36D6 JUMP JUMPDEST DUP3 ADD SWAP2 SWAP1 PUSH1 0x0 MSTORE PUSH1 0x20 PUSH1 0x0 KECCAK256 SWAP1 JUMPDEST DUP2 SLOAD DUP2 MSTORE SWAP1 PUSH1 0x1 ADD SWAP1 PUSH1 0x20 ADD DUP1 DUP4 GT PUSH2 0x36B9 JUMPI DUP3 SWAP1 SUB PUSH1 0x1F AND DUP3 ADD SWAP2 JUMPDEST POP POP POP POP POP PUSH2 0x3EB5 JUMP JUMPDEST DUP1 PUSH2 0x37C3 JUMPI POP PUSH2 0x37C2 DUP4 PUSH1 0x1 DUP4 PUSH2 0x36F7 SWAP2 SWAP1 PUSH2 0x4767 JUMP JUMPDEST PUSH1 0xFF AND DUP2 MLOAD DUP2 LT PUSH2 0x370B JUMPI PUSH2 0x370A PUSH2 0x454B JUMP JUMPDEST JUMPDEST PUSH1 0x20 MUL PUSH1 0x20 ADD ADD MLOAD PUSH1 0x5 DUP4 PUSH1 0xFF AND DUP2 SLOAD DUP2 LT PUSH2 0x372A JUMPI PUSH2 0x3729 PUSH2 0x454B JUMP JUMPDEST JUMPDEST SWAP1 PUSH1 0x0 MSTORE PUSH1 0x20 PUSH1 0x0 KECCAK256 ADD DUP1 SLOAD PUSH2 0x373F SWAP1 PUSH2 0x4735 JUMP JUMPDEST DUP1 PUSH1 0x1F ADD PUSH1 0x20 DUP1 SWAP2 DIV MUL PUSH1 0x20 ADD PUSH1 0x40 MLOAD SWAP1 DUP2 ADD PUSH1 0x40 MSTORE DUP1 SWAP3 SWAP2 SWAP1 DUP2 DUP2 MSTORE PUSH1 0x20 ADD DUP3 DUP1 SLOAD PUSH2 0x376B SWAP1 PUSH2 0x4735 JUMP JUMPDEST DUP1 ISZERO PUSH2 0x37B8 JUMPI DUP1 PUSH1 0x1F LT PUSH2 0x378D JUMPI PUSH2 0x100 DUP1 DUP4 SLOAD DIV MUL DUP4 MSTORE SWAP2 PUSH1 0x20 ADD SWAP2 PUSH2 0x37B8 JUMP JUMPDEST DUP3 ADD SWAP2 SWAP1 PUSH1 0x0 MSTORE PUSH1 0x20 PUSH1 0x0 KECCAK256 SWAP1 JUMPDEST DUP2 SLOAD DUP2 MSTORE SWAP1 PUSH1 0x1 ADD SWAP1 PUSH1 0x20 ADD DUP1 DUP4 GT PUSH2 0x379B JUMPI DUP3 SWAP1 SUB PUSH1 0x1F AND DUP3 ADD SWAP2 JUMPDEST POP POP POP POP POP PUSH2 0x3EB5 JUMP JUMPDEST JUMPDEST ISZERO PUSH2 0x37DC JUMPI PUSH1 0x3 DUP3 PUSH2 0x37D5 SWAP2 SWAP1 PUSH2 0x45D3 JUMP JUMPDEST SWAP2 POP PUSH2 0x39B1 JUMP JUMPDEST PUSH2 0x38B8 DUP4 PUSH1 0x2 DUP4 PUSH2 0x37ED SWAP2 SWAP1 PUSH2 0x479E JUMP JUMPDEST PUSH1 0xFF AND DUP2 MLOAD DUP2 LT PUSH2 0x3801 JUMPI PUSH2 0x3800 PUSH2 0x454B JUMP JUMPDEST JUMPDEST PUSH1 0x20 MUL PUSH1 0x20 ADD ADD MLOAD PUSH1 0x5 DUP4 PUSH1 0xFF AND DUP2 SLOAD DUP2 LT PUSH2 0x3820 JUMPI PUSH2 0x381F PUSH2 0x454B JUMP JUMPDEST JUMPDEST SWAP1 PUSH1 0x0 MSTORE PUSH1 0x20 PUSH1 0x0 KECCAK256 ADD DUP1 SLOAD PUSH2 0x3835 SWAP1 PUSH2 0x4735 JUMP JUMPDEST DUP1 PUSH1 0x1F ADD PUSH1 0x20 DUP1 SWAP2 DIV MUL PUSH1 0x20 ADD PUSH1 0x40 MLOAD SWAP1 DUP2 ADD PUSH1 0x40 MSTORE DUP1 SWAP3 SWAP2 SWAP1 DUP2 DUP2 MSTORE PUSH1 0x20 ADD DUP3 DUP1 SLOAD PUSH2 0x3861 SWAP1 PUSH2 0x4735 JUMP JUMPDEST DUP1 ISZERO PUSH2 0x38AE JUMPI DUP1 PUSH1 0x1F LT PUSH2 0x3883 JUMPI PUSH2 0x100 DUP1 DUP4 SLOAD DIV MUL DUP4 MSTORE SWAP2 PUSH1 0x20 ADD SWAP2 PUSH2 0x38AE JUMP JUMPDEST DUP3 ADD SWAP2 SWAP1 PUSH1 0x0 MSTORE PUSH1 0x20 PUSH1 0x0 KECCAK256 SWAP1 JUMPDEST DUP2 SLOAD DUP2 MSTORE SWAP1 PUSH1 0x1 ADD SWAP1 PUSH1 0x20 ADD DUP1 DUP4 GT PUSH2 0x3891 JUMPI DUP3 SWAP1 SUB PUSH1 0x1F AND DUP3 ADD SWAP2 JUMPDEST POP POP POP POP POP PUSH2 0x3EB5 JUMP JUMPDEST DUP1 PUSH2 0x399B JUMPI POP PUSH2 0x399A DUP4 PUSH1 0x2 DUP4 PUSH2 0x38CF SWAP2 SWAP1 PUSH2 0x4767 JUMP JUMPDEST PUSH1 0xFF AND DUP2 MLOAD DUP2 LT PUSH2 0x38E3 JUMPI PUSH2 0x38E2 PUSH2 0x454B JUMP JUMPDEST JUMPDEST PUSH1 0x20 MUL PUSH1 0x20 ADD ADD MLOAD PUSH1 0x5 DUP4 PUSH1 0xFF AND DUP2 SLOAD DUP2 LT PUSH2 0x3902 JUMPI PUSH2 0x3901 PUSH2 0x454B JUMP JUMPDEST JUMPDEST SWAP1 PUSH1 0x0 MSTORE PUSH1 0x20 PUSH1 0x0 KECCAK256 ADD DUP1 SLOAD PUSH2 0x3917 SWAP1 PUSH2 0x4735 JUMP JUMPDEST DUP1 PUSH1 0x1F ADD PUSH1 0x20 DUP1 SWAP2 DIV MUL PUSH1 0x20 ADD PUSH1 0x40 MLOAD SWAP1 DUP2 ADD PUSH1 0x40 MSTORE DUP1 SWAP3 SWAP2 SWAP1 DUP2 DUP2 MSTORE PUSH1 0x20 ADD DUP3 DUP1 SLOAD PUSH2 0x3943 SWAP1 PUSH2 0x4735 JUMP JUMPDEST DUP1 ISZERO PUSH2 0x3990 JUMPI DUP1 PUSH1 0x1F LT PUSH2 0x3965 JUMPI PUSH2 0x100 DUP1 DUP4 SLOAD DIV MUL DUP4 MSTORE SWAP2 PUSH1 0x20 ADD SWAP2 PUSH2 0x3990 JUMP JUMPDEST DUP3 ADD SWAP2 SWAP1 PUSH1 0x0 MSTORE PUSH1 0x20 PUSH1 0x0 KECCAK256 SWAP1 JUMPDEST DUP2 SLOAD DUP2 MSTORE SWAP1 PUSH1 0x1 ADD SWAP1 PUSH1 0x20 ADD DUP1 DUP4 GT PUSH2 0x3973 JUMPI DUP3 SWAP1 SUB PUSH1 0x1F AND DUP3 ADD SWAP2 JUMPDEST POP POP POP POP POP PUSH2 0x3EB5 JUMP JUMPDEST JUMPDEST ISZERO PUSH2 0x39B0 JUMPI PUSH1 0x1 DUP3 PUSH2 0x39AD SWAP2 SWAP1 PUSH2 0x45D3 JUMP JUMPDEST SWAP2 POP JUMPDEST JUMPDEST JUMPDEST JUMPDEST JUMPDEST JUMPDEST JUMPDEST DUP1 DUP1 PUSH2 0x39C1 SWAP1 PUSH2 0x45A9 JUMP JUMPDEST SWAP2 POP POP PUSH2 0x279D JUMP JUMPDEST POP DUP1 PUSH1 0x0 DUP1 PUSH1 0x1 DUP7 PUSH1 0xFF AND DUP2 SLOAD DUP2 LT PUSH2 0x39E5 JUMPI PUSH2 0x39E4 PUSH2 0x454B JUMP JUMPDEST JUMPDEST SWAP1 PUSH1 0x0 MSTORE PUSH1 0x20 PUSH1 0x0 KECCAK256 ADD PUSH1 0x0 SWAP1 SLOAD SWAP1 PUSH2 0x100 EXP SWAP1 DIV PUSH20 0xFFFFFFFFFFFFFFFFFFFFFFFFFFFFFFFFFFFFFFFF AND PUSH20 0xFFFFFFFFFFFFFFFFFFFFFFFFFFFFFFFFFFFFFFFF AND PUSH20 0xFFFFFFFFFFFFFFFFFFFFFFFFFFFFFFFFFFFFFFFF AND DUP2 MSTORE PUSH1 0x20 ADD SWAP1 DUP2 MSTORE PUSH1 0x20 ADD PUSH1 0x0 KECCAK256 PUSH1 0x4 ADD DUP2 SWAP1 SSTORE POP POP POP DUP1 DUP1 PUSH2 0x3A5E SWAP1 PUSH2 0x45A9 JUMP JUMPDEST SWAP2 POP POP PUSH2 0x2633 JUMP JUMPDEST POP JUMP JUMPDEST PUSH1 0x0 JUMPDEST PUSH1 0x1 DUP1 SLOAD SWAP1 POP DUP2 PUSH1 0xFF AND LT ISZERO PUSH2 0x3BCA JUMPI PUSH1 0x0 DUP1 PUSH1 0x0 PUSH1 0x1 DUP5 PUSH1 0xFF AND DUP2 SLOAD DUP2 LT PUSH2 0x3A98 JUMPI PUSH2 0x3A97 PUSH2 0x454B JUMP JUMPDEST JUMPDEST SWAP1 PUSH1 0x0 MSTORE PUSH1 0x20 PUSH1 0x0 KECCAK256 ADD PUSH1 0x0 SWAP1 SLOAD SWAP1 PUSH2 0x100 EXP SWAP1 DIV PUSH20 0xFFFFFFFFFFFFFFFFFFFFFFFFFFFFFFFFFFFFFFFF AND PUSH20 0xFFFFFFFFFFFFFFFFFFFFFFFFFFFFFFFFFFFFFFFF AND PUSH20 0xFFFFFFFFFFFFFFFFFFFFFFFFFFFFFFFFFFFFFFFF AND DUP2 MSTORE PUSH1 0x20 ADD SWAP1 DUP2 MSTORE PUSH1 0x20 ADD PUSH1 0x0 KECCAK256 PUSH1 0x2 ADD PUSH1 0x0 SWAP1 SLOAD SWAP1 PUSH2 0x100 EXP SWAP1 DIV PUSH1 0xFF AND SWAP1 POP DUP1 PUSH1 0xFF AND PUSH1 0x6 PUSH1 0x0 SWAP1 SLOAD SWAP1 PUSH2 0x100 EXP SWAP1 DIV PUSH1 0xFF AND PUSH1 0xFF AND EQ ISZERO PUSH2 0x3BB6 JUMPI PUSH1 0x4 PUSH1 0x0 DUP1 PUSH1 0x1 DUP6 PUSH1 0xFF AND DUP2 SLOAD DUP2 LT PUSH2 0x3B49 JUMPI PUSH2 0x3B48 PUSH2 0x454B JUMP JUMPDEST JUMPDEST SWAP1 PUSH1 0x0 MSTORE PUSH1 0x20 PUSH1 0x0 KECCAK256 ADD PUSH1 0x0 SWAP1 SLOAD SWAP1 PUSH2 0x100 EXP SWAP1 DIV PUSH20 0xFFFFFFFFFFFFFFFFFFFFFFFFFFFFFFFFFFFFFFFF AND PUSH20 0xFFFFFFFFFFFFFFFFFFFFFFFFFFFFFFFFFFFFFFFF AND PUSH20 0xFFFFFFFFFFFFFFFFFFFFFFFFFFFFFFFFFFFFFFFF AND DUP2 MSTORE PUSH1 0x20 ADD SWAP1 DUP2 MSTORE PUSH1 0x20 ADD PUSH1 0x0 KECCAK256 PUSH1 0x5 ADD DUP2 SWAP1 SSTORE POP JUMPDEST POP DUP1 DUP1 PUSH2 0x3BC2 SWAP1 PUSH2 0x45A9 JUMP JUMPDEST SWAP2 POP POP PUSH2 0x3A6C JUMP JUMPDEST POP JUMP JUMPDEST PUSH1 0x0 DUP1 JUMPDEST PUSH1 0x1 DUP1 SLOAD SWAP1 POP DUP2 PUSH1 0xFF AND LT ISZERO PUSH2 0x3EB1 JUMPI PUSH1 0x0 DUP1 PUSH1 0x0 PUSH1 0x1 DUP5 PUSH1 0xFF AND DUP2 SLOAD DUP2 LT PUSH2 0x3BFD JUMPI PUSH2 0x3BFC PUSH2 0x454B JUMP JUMPDEST JUMPDEST SWAP1 PUSH1 0x0 MSTORE PUSH1 0x20 PUSH1 0x0 KECCAK256 ADD PUSH1 0x0 SWAP1 SLOAD SWAP1 PUSH2 0x100 EXP SWAP1 DIV PUSH20 0xFFFFFFFFFFFFFFFFFFFFFFFFFFFFFFFFFFFFFFFF AND PUSH20 0xFFFFFFFFFFFFFFFFFFFFFFFFFFFFFFFFFFFFFFFF AND PUSH20 0xFFFFFFFFFFFFFFFFFFFFFFFFFFFFFFFFFFFFFFFF AND DUP2 MSTORE PUSH1 0x20 ADD SWAP1 DUP2 MSTORE PUSH1 0x20 ADD PUSH1 0x0 KECCAK256 PUSH1 0x5 ADD SLOAD PUSH1 0x0 DUP1 PUSH1 0x1 DUP6 PUSH1 0xFF AND DUP2 SLOAD DUP2 LT PUSH2 0x3C80 JUMPI PUSH2 0x3C7F PUSH2 0x454B JUMP JUMPDEST JUMPDEST SWAP1 PUSH1 0x0 MSTORE PUSH1 0x20 PUSH1 0x0 KECCAK256 ADD PUSH1 0x0 SWAP1 SLOAD SWAP1 PUSH2 0x100 EXP SWAP1 DIV PUSH20 0xFFFFFFFFFFFFFFFFFFFFFFFFFFFFFFFFFFFFFFFF AND PUSH20 0xFFFFFFFFFFFFFFFFFFFFFFFFFFFFFFFFFFFFFFFF AND PUSH20 0xFFFFFFFFFFFFFFFFFFFFFFFFFFFFFFFFFFFFFFFF AND DUP2 MSTORE PUSH1 0x20 ADD SWAP1 DUP2 MSTORE PUSH1 0x20 ADD PUSH1 0x0 KECCAK256 PUSH1 0x4 ADD SLOAD PUSH1 0x0 DUP1 PUSH1 0x1 DUP7 PUSH1 0xFF AND DUP2 SLOAD DUP2 LT PUSH2 0x3D03 JUMPI PUSH2 0x3D02 PUSH2 0x454B JUMP JUMPDEST JUMPDEST SWAP1 PUSH1 0x0 MSTORE PUSH1 0x20 PUSH1 0x0 KECCAK256 ADD PUSH1 0x0 SWAP1 SLOAD SWAP1 PUSH2 0x100 EXP SWAP1 DIV PUSH20 0xFFFFFFFFFFFFFFFFFFFFFFFFFFFFFFFFFFFFFFFF AND PUSH20 0xFFFFFFFFFFFFFFFFFFFFFFFFFFFFFFFFFFFFFFFF AND PUSH20 0xFFFFFFFFFFFFFFFFFFFFFFFFFFFFFFFFFFFFFFFF AND DUP2 MSTORE PUSH1 0x20 ADD SWAP1 DUP2 MSTORE PUSH1 0x20 ADD PUSH1 0x0 KECCAK256 PUSH1 0x3 ADD SLOAD PUSH2 0x3D76 SWAP2 SWAP1 PUSH2 0x45D3 JUMP JUMPDEST PUSH2 0x3D80 SWAP2 SWAP1 PUSH2 0x45D3 JUMP JUMPDEST SWAP1 POP DUP1 PUSH1 0x0 DUP1 PUSH1 0x1 DUP6 PUSH1 0xFF AND DUP2 SLOAD DUP2 LT PUSH2 0x3D9D JUMPI PUSH2 0x3D9C PUSH2 0x454B JUMP JUMPDEST JUMPDEST SWAP1 PUSH1 0x0 MSTORE PUSH1 0x20 PUSH1 0x0 KECCAK256 ADD PUSH1 0x0 SWAP1 SLOAD SWAP1 PUSH2 0x100 EXP SWAP1 DIV PUSH20 0xFFFFFFFFFFFFFFFFFFFFFFFFFFFFFFFFFFFFFFFF AND PUSH20 0xFFFFFFFFFFFFFFFFFFFFFFFFFFFFFFFFFFFFFFFF AND PUSH20 0xFFFFFFFFFFFFFFFFFFFFFFFFFFFFFFFFFFFFFFFF AND DUP2 MSTORE PUSH1 0x20 ADD SWAP1 DUP2 MSTORE PUSH1 0x20 ADD PUSH1 0x0 KECCAK256 PUSH1 0x6 ADD DUP2 SWAP1 SSTORE POP DUP1 DUP4 LT ISZERO PUSH2 0x3E9D JUMPI DUP1 SWAP3 POP PUSH1 0x0 PUSH1 0x1 DUP4 PUSH1 0xFF AND DUP2 SLOAD DUP2 LT PUSH2 0x3E2D JUMPI PUSH2 0x3E2C PUSH2 0x454B JUMP JUMPDEST JUMPDEST SWAP1 PUSH1 0x0 MSTORE PUSH1 0x20 PUSH1 0x0 KECCAK256 ADD PUSH1 0x0 SWAP1 SLOAD SWAP1 PUSH2 0x100 EXP SWAP1 DIV PUSH20 0xFFFFFFFFFFFFFFFFFFFFFFFFFFFFFFFFFFFFFFFF AND SWAP1 POP DUP1 PUSH1 0x2 PUSH1 0x0 PUSH2 0x100 EXP DUP2 SLOAD DUP2 PUSH20 0xFFFFFFFFFFFFFFFFFFFFFFFFFFFFFFFFFFFFFFFF MUL NOT AND SWAP1 DUP4 PUSH20 0xFFFFFFFFFFFFFFFFFFFFFFFFFFFFFFFFFFFFFFFF AND MUL OR SWAP1 SSTORE POP POP JUMPDEST POP DUP1 DUP1 PUSH2 0x3EA9 SWAP1 PUSH2 0x45A9 JUMP JUMPDEST SWAP2 POP POP PUSH2 0x3BD1 JUMP JUMPDEST POP POP JUMP JUMPDEST PUSH1 0x0 DUP2 PUSH1 0x40 MLOAD PUSH1 0x20 ADD PUSH2 0x3EC8 SWAP2 SWAP1 PUSH2 0x4880 JUMP JUMPDEST PUSH1 0x40 MLOAD PUSH1 0x20 DUP2 DUP4 SUB SUB DUP2 MSTORE SWAP1 PUSH1 0x40 MSTORE DUP1 MLOAD SWAP1 PUSH1 0x20 ADD KECCAK256 DUP4 PUSH1 0x40 MLOAD PUSH1 0x20 ADD PUSH2 0x3EEF SWAP2 SWAP1 PUSH2 0x4880 JUMP JUMPDEST PUSH1 0x40 MLOAD PUSH1 0x20 DUP2 DUP4 SUB SUB DUP2 MSTORE SWAP1 PUSH1 0x40 MSTORE DUP1 MLOAD SWAP1 PUSH1 0x20 ADD KECCAK256 EQ ISZERO PUSH2 0x3F14 JUMPI PUSH1 0x1 SWAP1 POP PUSH2 0x3F19 JUMP JUMPDEST PUSH1 0x0 SWAP1 POP JUMPDEST SWAP3 SWAP2 POP POP JUMP JUMPDEST DUP3 DUP1 SLOAD DUP3 DUP3 SSTORE SWAP1 PUSH1 0x0 MSTORE PUSH1 0x20 PUSH1 0x0 KECCAK256 SWAP1 DUP2 ADD SWAP3 DUP3 ISZERO PUSH2 0x3F6E JUMPI SWAP2 PUSH1 0x20 MUL DUP3 ADD JUMPDEST DUP3 DUP2 GT ISZERO PUSH2 0x3F6D JUMPI DUP3 MLOAD DUP3 SWAP1 DUP1 MLOAD SWAP1 PUSH1 0x20 ADD SWAP1 PUSH2 0x3F5D SWAP3 SWAP2 SWAP1 PUSH2 0x3F7F JUMP JUMPDEST POP SWAP2 PUSH1 0x20 ADD SWAP2 SWAP1 PUSH1 0x1 ADD SWAP1 PUSH2 0x3F3F JUMP JUMPDEST JUMPDEST POP SWAP1 POP PUSH2 0x3F7B SWAP2 SWAP1 PUSH2 0x4005 JUMP JUMPDEST POP SWAP1 JUMP JUMPDEST DUP3 DUP1 SLOAD PUSH2 0x3F8B SWAP1 PUSH2 0x4735 JUMP JUMPDEST SWAP1 PUSH1 0x0 MSTORE PUSH1 0x20 PUSH1 0x0 KECCAK256 SWAP1 PUSH1 0x1F ADD PUSH1 0x20 SWAP1 DIV DUP2 ADD SWAP3 DUP3 PUSH2 0x3FAD JUMPI PUSH1 0x0 DUP6 SSTORE PUSH2 0x3FF4 JUMP JUMPDEST DUP3 PUSH1 0x1F LT PUSH2 0x3FC6 JUMPI DUP1 MLOAD PUSH1 0xFF NOT AND DUP4 DUP1 ADD OR DUP6 SSTORE PUSH2 0x3FF4 JUMP JUMPDEST DUP3 DUP1 ADD PUSH1 0x1 ADD DUP6 SSTORE DUP3 ISZERO PUSH2 0x3FF4 JUMPI SWAP2 DUP3 ADD JUMPDEST DUP3 DUP2 GT ISZERO PUSH2 0x3FF3 JUMPI DUP3 MLOAD DUP3 SSTORE SWAP2 PUSH1 0x20 ADD SWAP2 SWAP1 PUSH1 0x1 ADD SWAP1 PUSH2 0x3FD8 JUMP JUMPDEST JUMPDEST POP SWAP1 POP PUSH2 0x4001 SWAP2 SWAP1 PUSH2 0x4029 JUMP JUMPDEST POP SWAP1 JUMP JUMPDEST JUMPDEST DUP1 DUP3 GT ISZERO PUSH2 0x4025 JUMPI PUSH1 0x0 DUP2 DUP2 PUSH2 0x401C SWAP2 SWAP1 PUSH2 0x4046 JUMP JUMPDEST POP PUSH1 0x1 ADD PUSH2 0x4006 JUMP JUMPDEST POP SWAP1 JUMP JUMPDEST JUMPDEST DUP1 DUP3 GT ISZERO PUSH2 0x4042 JUMPI PUSH1 0x0 DUP2 PUSH1 0x0 SWAP1 SSTORE POP PUSH1 0x1 ADD PUSH2 0x402A JUMP JUMPDEST POP SWAP1 JUMP JUMPDEST POP DUP1 SLOAD PUSH2 0x4052 SWAP1 PUSH2 0x4735 JUMP JUMPDEST PUSH1 0x0 DUP3 SSTORE DUP1 PUSH1 0x1F LT PUSH2 0x4064 JUMPI POP PUSH2 0x4083 JUMP JUMPDEST PUSH1 0x1F ADD PUSH1 0x20 SWAP1 DIV SWAP1 PUSH1 0x0 MSTORE PUSH1 0x20 PUSH1 0x0 KECCAK256 SWAP1 DUP2 ADD SWAP1 PUSH2 0x4082 SWAP2 SWAP1 PUSH2 0x4029 JUMP JUMPDEST JUMPDEST POP JUMP JUMPDEST PUSH1 0x0 PUSH1 0x40 MLOAD SWAP1 POP SWAP1 JUMP JUMPDEST PUSH1 0x0 DUP1 REVERT JUMPDEST PUSH1 0x0 DUP1 REVERT JUMPDEST PUSH1 0x0 DUP1 REVERT JUMPDEST PUSH1 0x0 PUSH1 0x1F NOT PUSH1 0x1F DUP4 ADD AND SWAP1 POP SWAP2 SWAP1 POP JUMP JUMPDEST PUSH32 0x4E487B7100000000000000000000000000000000000000000000000000000000 PUSH1 0x0 MSTORE PUSH1 0x41 PUSH1 0x4 MSTORE PUSH1 0x24 PUSH1 0x0 REVERT JUMPDEST PUSH2 0x40E8 DUP3 PUSH2 0x409F JUMP JUMPDEST DUP2 ADD DUP2 DUP2 LT PUSH8 0xFFFFFFFFFFFFFFFF DUP3 GT OR ISZERO PUSH2 0x4107 JUMPI PUSH2 0x4106 PUSH2 0x40B0 JUMP JUMPDEST JUMPDEST DUP1 PUSH1 0x40 MSTORE POP POP POP JUMP JUMPDEST PUSH1 0x0 PUSH2 0x411A PUSH2 0x4086 JUMP JUMPDEST SWAP1 POP PUSH2 0x4126 DUP3 DUP3 PUSH2 0x40DF JUMP JUMPDEST SWAP2 SWAP1 POP JUMP JUMPDEST PUSH1 0x0 PUSH8 0xFFFFFFFFFFFFFFFF DUP3 GT ISZERO PUSH2 0x4146 JUMPI PUSH2 0x4145 PUSH2 0x40B0 JUMP JUMPDEST JUMPDEST PUSH1 0x20 DUP3 MUL SWAP1 POP PUSH1 0x20 DUP2 ADD SWAP1 POP SWAP2 SWAP1 POP JUMP JUMPDEST PUSH1 0x0 DUP1 REVERT JUMPDEST PUSH1 0x0 DUP1 REVERT JUMPDEST PUSH1 0x0 PUSH8 0xFFFFFFFFFFFFFFFF DUP3 GT ISZERO PUSH2 0x417C JUMPI PUSH2 0x417B PUSH2 0x40B0 JUMP JUMPDEST JUMPDEST PUSH2 0x4185 DUP3 PUSH2 0x409F JUMP JUMPDEST SWAP1 POP PUSH1 0x20 DUP2 ADD SWAP1 POP SWAP2 SWAP1 POP JUMP JUMPDEST DUP3 DUP2 DUP4 CALLDATACOPY PUSH1 0x0 DUP4 DUP4 ADD MSTORE POP POP POP JUMP JUMPDEST PUSH1 0x0 PUSH2 0x41B4 PUSH2 0x41AF DUP5 PUSH2 0x4161 JUMP JUMPDEST PUSH2 0x4110 JUMP JUMPDEST SWAP1 POP DUP3 DUP2 MSTORE PUSH1 0x20 DUP2 ADD DUP5 DUP5 DUP5 ADD GT ISZERO PUSH2 0x41D0 JUMPI PUSH2 0x41CF PUSH2 0x415C JUMP JUMPDEST JUMPDEST PUSH2 0x41DB DUP5 DUP3 DUP6 PUSH2 0x4192 JUMP JUMPDEST POP SWAP4 SWAP3 POP POP POP JUMP JUMPDEST PUSH1 0x0 DUP3 PUSH1 0x1F DUP4 ADD SLT PUSH2 0x41F8 JUMPI PUSH2 0x41F7 PUSH2 0x409A JUMP JUMPDEST JUMPDEST DUP2 CALLDATALOAD PUSH2 0x4208 DUP5 DUP3 PUSH1 0x20 DUP7 ADD PUSH2 0x41A1 JUMP JUMPDEST SWAP2 POP POP SWAP3 SWAP2 POP POP JUMP JUMPDEST PUSH1 0x0 PUSH2 0x4224 PUSH2 0x421F DUP5 PUSH2 0x412B JUMP JUMPDEST PUSH2 0x4110 JUMP JUMPDEST SWAP1 POP DUP1 DUP4 DUP3 MSTORE PUSH1 0x20 DUP3 ADD SWAP1 POP PUSH1 0x20 DUP5 MUL DUP4 ADD DUP6 DUP2 GT ISZERO PUSH2 0x4247 JUMPI PUSH2 0x4246 PUSH2 0x4157 JUMP JUMPDEST JUMPDEST DUP4 JUMPDEST DUP2 DUP2 LT ISZERO PUSH2 0x428E JUMPI DUP1 CALLDATALOAD PUSH8 0xFFFFFFFFFFFFFFFF DUP2 GT ISZERO PUSH2 0x426C JUMPI PUSH2 0x426B PUSH2 0x409A JUMP JUMPDEST JUMPDEST DUP1 DUP7 ADD PUSH2 0x4279 DUP10 DUP3 PUSH2 0x41E3 JUMP JUMPDEST DUP6 MSTORE PUSH1 0x20 DUP6 ADD SWAP5 POP POP POP PUSH1 0x20 DUP2 ADD SWAP1 POP PUSH2 0x4249 JUMP JUMPDEST POP POP POP SWAP4 SWAP3 POP POP POP JUMP JUMPDEST PUSH1 0x0 DUP3 PUSH1 0x1F DUP4 ADD SLT PUSH2 0x42AD JUMPI PUSH2 0x42AC PUSH2 0x409A JUMP JUMPDEST JUMPDEST DUP2 CALLDATALOAD PUSH2 0x42BD DUP5 DUP3 PUSH1 0x20 DUP7 ADD PUSH2 0x4211 JUMP JUMPDEST SWAP2 POP POP SWAP3 SWAP2 POP POP JUMP JUMPDEST PUSH1 0x0 PUSH1 0x20 DUP3 DUP5 SUB SLT ISZERO PUSH2 0x42DC JUMPI PUSH2 0x42DB PUSH2 0x4090 JUMP JUMPDEST JUMPDEST PUSH1 0x0 DUP3 ADD CALLDATALOAD PUSH8 0xFFFFFFFFFFFFFFFF DUP2 GT ISZERO PUSH2 0x42FA JUMPI PUSH2 0x42F9 PUSH2 0x4095 JUMP JUMPDEST JUMPDEST PUSH2 0x4306 DUP5 DUP3 DUP6 ADD PUSH2 0x4298 JUMP JUMPDEST SWAP2 POP POP SWAP3 SWAP2 POP POP JUMP JUMPDEST PUSH1 0x0 DUP2 SWAP1 POP SWAP2 SWAP1 POP JUMP JUMPDEST PUSH2 0x4322 DUP2 PUSH2 0x430F JUMP JUMPDEST DUP3 MSTORE POP POP JUMP JUMPDEST PUSH1 0x0 PUSH1 0x20 DUP3 ADD SWAP1 POP PUSH2 0x433D PUSH1 0x0 DUP4 ADD DUP5 PUSH2 0x4319 JUMP JUMPDEST SWAP3 SWAP2 POP POP JUMP JUMPDEST PUSH1 0x0 PUSH20 0xFFFFFFFFFFFFFFFFFFFFFFFFFFFFFFFFFFFFFFFF DUP3 AND SWAP1 POP SWAP2 SWAP1 POP JUMP JUMPDEST PUSH1 0x0 PUSH2 0x436E DUP3 PUSH2 0x4343 JUMP JUMPDEST SWAP1 POP SWAP2 SWAP1 POP JUMP JUMPDEST PUSH2 0x437E DUP2 PUSH2 0x4363 JUMP JUMPDEST DUP3 MSTORE POP POP JUMP JUMPDEST PUSH1 0x0 PUSH1 0x20 DUP3 ADD SWAP1 POP PUSH2 0x4399 PUSH1 0x0 DUP4 ADD DUP5 PUSH2 0x4375 JUMP JUMPDEST SWAP3 SWAP2 POP POP JUMP JUMPDEST PUSH1 0x0 PUSH1 0xFF DUP3 AND SWAP1 POP SWAP2 SWAP1 POP JUMP JUMPDEST PUSH2 0x43B5 DUP2 PUSH2 0x439F JUMP JUMPDEST DUP2 EQ PUSH2 0x43C0 JUMPI PUSH1 0x0 DUP1 REVERT JUMPDEST POP JUMP JUMPDEST PUSH1 0x0 DUP2 CALLDATALOAD SWAP1 POP PUSH2 0x43D2 DUP2 PUSH2 0x43AC JUMP JUMPDEST SWAP3 SWAP2 POP POP JUMP JUMPDEST PUSH1 0x0 PUSH1 0x20 DUP3 DUP5 SUB SLT ISZERO PUSH2 0x43EE JUMPI PUSH2 0x43ED PUSH2 0x4090 JUMP JUMPDEST JUMPDEST PUSH1 0x0 PUSH2 0x43FC DUP5 DUP3 DUP6 ADD PUSH2 0x43C3 JUMP JUMPDEST SWAP2 POP POP SWAP3 SWAP2 POP POP JUMP JUMPDEST PUSH1 0x0 DUP2 MLOAD SWAP1 POP SWAP2 SWAP1 POP JUMP JUMPDEST PUSH1 0x0 DUP3 DUP3 MSTORE PUSH1 0x20 DUP3 ADD SWAP1 POP SWAP3 SWAP2 POP POP JUMP JUMPDEST PUSH1 0x0 DUP2 SWAP1 POP PUSH1 0x20 DUP3 ADD SWAP1 POP SWAP2 SWAP1 POP JUMP JUMPDEST PUSH2 0x443A DUP2 PUSH2 0x4363 JUMP JUMPDEST DUP3 MSTORE POP POP JUMP JUMPDEST PUSH1 0x0 PUSH2 0x444C DUP4 DUP4 PUSH2 0x4431 JUMP JUMPDEST PUSH1 0x20 DUP4 ADD SWAP1 POP SWAP3 SWAP2 POP POP JUMP JUMPDEST PUSH1 0x0 PUSH1 0x20 DUP3 ADD SWAP1 POP SWAP2 SWAP1 POP JUMP JUMPDEST PUSH1 0x0 PUSH2 0x4470 DUP3 PUSH2 0x4405 JUMP JUMPDEST PUSH2 0x447A DUP2 DUP6 PUSH2 0x4410 JUMP JUMPDEST SWAP4 POP PUSH2 0x4485 DUP4 PUSH2 0x4421 JUMP JUMPDEST DUP1 PUSH1 0x0 JUMPDEST DUP4 DUP2 LT ISZERO PUSH2 0x44B6 JUMPI DUP2 MLOAD PUSH2 0x449D DUP9 DUP3 PUSH2 0x4440 JUMP JUMPDEST SWAP8 POP PUSH2 0x44A8 DUP4 PUSH2 0x4458 JUMP JUMPDEST SWAP3 POP POP PUSH1 0x1 DUP2 ADD SWAP1 POP PUSH2 0x4489 JUMP JUMPDEST POP DUP6 SWAP4 POP POP POP POP SWAP3 SWAP2 POP POP JUMP JUMPDEST PUSH1 0x0 PUSH1 0x20 DUP3 ADD SWAP1 POP DUP2 DUP2 SUB PUSH1 0x0 DUP4 ADD MSTORE PUSH2 0x44DD DUP2 DUP5 PUSH2 0x4465 JUMP JUMPDEST SWAP1 POP SWAP3 SWAP2 POP POP JUMP JUMPDEST PUSH1 0x0 PUSH2 0x44F0 DUP3 PUSH2 0x4343 JUMP JUMPDEST SWAP1 POP SWAP2 SWAP1 POP JUMP JUMPDEST PUSH2 0x4500 DUP2 PUSH2 0x44E5 JUMP JUMPDEST DUP3 MSTORE POP POP JUMP JUMPDEST PUSH1 0x0 PUSH1 0x20 DUP3 ADD SWAP1 POP PUSH2 0x451B PUSH1 0x0 DUP4 ADD DUP5 PUSH2 0x44F7 JUMP JUMPDEST SWAP3 SWAP2 POP POP JUMP JUMPDEST PUSH2 0x452A DUP2 PUSH2 0x439F JUMP JUMPDEST DUP3 MSTORE POP POP JUMP JUMPDEST PUSH1 0x0 PUSH1 0x20 DUP3 ADD SWAP1 POP PUSH2 0x4545 PUSH1 0x0 DUP4 ADD DUP5 PUSH2 0x4521 JUMP JUMPDEST SWAP3 SWAP2 POP POP JUMP JUMPDEST PUSH32 0x4E487B7100000000000000000000000000000000000000000000000000000000 PUSH1 0x0 MSTORE PUSH1 0x32 PUSH1 0x4 MSTORE PUSH1 0x24 PUSH1 0x0 REVERT JUMPDEST PUSH32 0x4E487B7100000000000000000000000000000000000000000000000000000000 PUSH1 0x0 MSTORE PUSH1 0x11 PUSH1 0x4 MSTORE PUSH1 0x24 PUSH1 0x0 REVERT JUMPDEST PUSH1 0x0 PUSH2 0x45B4 DUP3 PUSH2 0x439F JUMP JUMPDEST SWAP2 POP PUSH1 0xFF DUP3 EQ ISZERO PUSH2 0x45C8 JUMPI PUSH2 0x45C7 PUSH2 0x457A JUMP JUMPDEST JUMPDEST PUSH1 0x1 DUP3 ADD SWAP1 POP SWAP2 SWAP1 POP JUMP JUMPDEST PUSH1 0x0 PUSH2 0x45DE DUP3 PUSH2 0x430F JUMP JUMPDEST SWAP2 POP PUSH2 0x45E9 DUP4 PUSH2 0x430F JUMP JUMPDEST SWAP3 POP DUP3 PUSH32 0xFFFFFFFFFFFFFFFFFFFFFFFFFFFFFFFFFFFFFFFFFFFFFFFFFFFFFFFFFFFFFFFF SUB DUP3 GT ISZERO PUSH2 0x461E JUMPI PUSH2 0x461D PUSH2 0x457A JUMP JUMPDEST JUMPDEST DUP3 DUP3 ADD SWAP1 POP SWAP3 SWAP2 POP POP JUMP JUMPDEST PUSH32 0x4E487B7100000000000000000000000000000000000000000000000000000000 PUSH1 0x0 MSTORE PUSH1 0x12 PUSH1 0x4 MSTORE PUSH1 0x24 PUSH1 0x0 REVERT JUMPDEST PUSH1 0x0 PUSH2 0x4663 DUP3 PUSH2 0x430F JUMP JUMPDEST SWAP2 POP PUSH2 0x466E DUP4 PUSH2 0x430F JUMP JUMPDEST SWAP3 POP DUP3 PUSH2 0x467E JUMPI PUSH2 0x467D PUSH2 0x4629 JUMP JUMPDEST JUMPDEST DUP3 DUP3 DIV SWAP1 POP SWAP3 SWAP2 POP POP JUMP JUMPDEST PUSH1 0x0 DUP3 DUP3 MSTORE PUSH1 0x20 DUP3 ADD SWAP1 POP SWAP3 SWAP2 POP POP JUMP JUMPDEST PUSH32 0x436F6E74657374616E7420697320616C7261647920696E207468652062657400 PUSH1 0x0 DUP3 ADD MSTORE POP JUMP JUMPDEST PUSH1 0x0 PUSH2 0x46D0 PUSH1 0x1F DUP4 PUSH2 0x4689 JUMP JUMPDEST SWAP2 POP PUSH2 0x46DB DUP3 PUSH2 0x469A JUMP JUMPDEST PUSH1 0x20 DUP3 ADD SWAP1 POP SWAP2 SWAP1 POP JUMP JUMPDEST PUSH1 0x0 PUSH1 0x20 DUP3 ADD SWAP1 POP DUP2 DUP2 SUB PUSH1 0x0 DUP4 ADD MSTORE PUSH2 0x46FF DUP2 PUSH2 0x46C3 JUMP JUMPDEST SWAP1 POP SWAP2 SWAP1 POP JUMP JUMPDEST PUSH32 0x4E487B7100000000000000000000000000000000000000000000000000000000 PUSH1 0x0 MSTORE PUSH1 0x22 PUSH1 0x4 MSTORE PUSH1 0x24 PUSH1 0x0 REVERT JUMPDEST PUSH1 0x0 PUSH1 0x2 DUP3 DIV SWAP1 POP PUSH1 0x1 DUP3 AND DUP1 PUSH2 0x474D JUMPI PUSH1 0x7F DUP3 AND SWAP2 POP JUMPDEST PUSH1 0x20 DUP3 LT DUP2 EQ ISZERO PUSH2 0x4761 JUMPI PUSH2 0x4760 PUSH2 0x4706 JUMP JUMPDEST JUMPDEST POP SWAP2 SWAP1 POP JUMP JUMPDEST PUSH1 0x0 PUSH2 0x4772 DUP3 PUSH2 0x439F JUMP JUMPDEST SWAP2 POP PUSH2 0x477D DUP4 PUSH2 0x439F JUMP JUMPDEST SWAP3 POP DUP3 PUSH1 0xFF SUB DUP3 GT ISZERO PUSH2 0x4793 JUMPI PUSH2 0x4792 PUSH2 0x457A JUMP JUMPDEST JUMPDEST DUP3 DUP3 ADD SWAP1 POP SWAP3 SWAP2 POP POP JUMP JUMPDEST PUSH1 0x0 PUSH2 0x47A9 DUP3 PUSH2 0x439F JUMP JUMPDEST SWAP2 POP PUSH2 0x47B4 DUP4 PUSH2 0x439F JUMP JUMPDEST SWAP3 POP DUP3 DUP3 LT ISZERO PUSH2 0x47C7 JUMPI PUSH2 0x47C6 PUSH2 0x457A JUMP JUMPDEST JUMPDEST DUP3 DUP3 SUB SWAP1 POP SWAP3 SWAP2 POP POP JUMP JUMPDEST PUSH1 0x0 PUSH2 0x47DD DUP3 PUSH2 0x430F JUMP JUMPDEST SWAP2 POP PUSH2 0x47E8 DUP4 PUSH2 0x430F JUMP JUMPDEST SWAP3 POP DUP3 DUP3 LT ISZERO PUSH2 0x47FB JUMPI PUSH2 0x47FA PUSH2 0x457A JUMP JUMPDEST JUMPDEST DUP3 DUP3 SUB SWAP1 POP SWAP3 SWAP2 POP POP JUMP JUMPDEST PUSH1 0x0 DUP2 MLOAD SWAP1 POP SWAP2 SWAP1 POP JUMP JUMPDEST PUSH1 0x0 DUP2 SWAP1 POP SWAP3 SWAP2 POP POP JUMP JUMPDEST PUSH1 0x0 JUMPDEST DUP4 DUP2 LT ISZERO PUSH2 0x483A JUMPI DUP1 DUP3 ADD MLOAD DUP2 DUP5 ADD MSTORE PUSH1 0x20 DUP2 ADD SWAP1 POP PUSH2 0x481F JUMP JUMPDEST DUP4 DUP2 GT ISZERO PUSH2 0x4849 JUMPI PUSH1 0x0 DUP5 DUP5 ADD MSTORE JUMPDEST POP POP POP POP JUMP JUMPDEST PUSH1 0x0 PUSH2 0x485A DUP3 PUSH2 0x4806 JUMP JUMPDEST PUSH2 0x4864 DUP2 DUP6 PUSH2 0x4811 JUMP JUMPDEST SWAP4 POP PUSH2 0x4874 DUP2 DUP6 PUSH1 0x20 DUP7 ADD PUSH2 0x481C JUMP JUMPDEST DUP1 DUP5 ADD SWAP2 POP POP SWAP3 SWAP2 POP POP JUMP JUMPDEST PUSH1 0x0 PUSH2 0x488C DUP3 DUP5 PUSH2 0x484F JUMP JUMPDEST SWAP2 POP DUP2 SWAP1 POP SWAP3 SWAP2 POP POP JUMP INVALID LOG2 PUSH5 0x6970667358 0x22 SLT KECCAK256 SWAP10 0x25 STATICCALL RETURNDATACOPY SWAP4 NOT 0x2D 0xCE 0x26 0xCD PUSH14 0x562F1CD54CBFAF77DAE43F242236 XOR 0xA7 SWAP15 SLOAD PUSH20 0x6ECF64736F6C634300080B003300000000000000 "},"gasEstimates":{"creation":{"codeDepositCost":"3727400","executionCost":"infinite","totalCost":"infinite"},"external":{"acceptWinner()":"infinite","bet()":"2497","calculateResults()":"infinite","checoWins()":"2581","enterBet()":"infinite","getContestansCPoints()":"infinite","getContestansChPoints()":"infinite","getContestansDPoints()":"infinite","getContestansTPoints()":"infinite","getContestants()":"infinite","manager()":"2587","predictChecoWins(uint8)":"infinite","predictConstructorsTable(string[])":"infinite","predictDriversTable(string[])":"infinite","setChecoWins(uint8)":"26944","setConstructorsTable(string[])":"infinite","setDriversTable(string[])":"infinite","winner()":"2580"},"internal":{"calculateChecoPoints()":"infinite","calculateConstructorsTable()":"infinite","calculateDriversTable()":"infinite","calculateFinalPoints()":"infinite","checkStingEquality(string memory,string memory)":"infinite"}},"methodIdentifiers":{"acceptWinner()":"7f36ea24","bet()":"11610c25","calculateResults()":"2ccb0d1e","checoWins()":"f1d78c84","enterBet()":"bb427d8a","getContestansCPoints()":"7af448f2","getContestansChPoints()":"a388d1cd","getContestansDPoints()":"096c705d","getContestansTPoints()":"ef9884e4","getContestants()":"c10196fa","manager()":"481c6a75","predictChecoWins(uint8)":"77bc91f5","predictConstructorsTable(string[])":"09221b3a","predictDriversTable(string[])":"b12038f4","setChecoWins(uint8)":"55db72ea","setConstructorsTable(string[])":"c8fe2134","setDriversTable(string[])":"65046e8c","winner()":"dfbf53ae"}},"storageLayout":{"storage":[{"astId":23,"contract":"/home/rocha/Proyects/Solidity/F1Bet/ethereum/contracts/F1.sol:FormulaBet","label":"predictions","offset":0,"slot":"0","type":"t_mapping(t_address,t_struct(ContestantPrediction)18_storage)"},{"astId":26,"contract":"/home/rocha/Proyects/Solidity/F1Bet/ethereum/contracts/F1.sol:FormulaBet","label":"contestants","offset":0,"slot":"1","type":"t_array(t_address)dyn_storage"},{"astId":28,"contract":"/home/rocha/Proyects/Solidity/F1Bet/ethereum/contracts/F1.sol:FormulaBet","label":"winner","offset":0,"slot":"2","type":"t_address_payable"},{"astId":30,"contract":"/home/rocha/Proyects/Solidity/F1Bet/ethereum/contracts/F1.sol:FormulaBet","label":"price","offset":0,"slot":"3","type":"t_uint256"},{"astId":33,"contract":"/home/rocha/Proyects/Solidity/F1Bet/ethereum/contracts/F1.sol:FormulaBet","label":"constructors","offset":0,"slot":"4","type":"t_array(t_string_storage)dyn_storage"},{"astId":36,"contract":"/home/rocha/Proyects/Solidity/F1Bet/ethereum/contracts/F1.sol:FormulaBet","label":"drivers","offset":0,"slot":"5","type":"t_array(t_string_storage)dyn_storage"},{"astId":38,"contract":"/home/rocha/Proyects/Solidity/F1Bet/ethereum/contracts/F1.sol:FormulaBet","label":"checoWins","offset":0,"slot":"6","type":"t_uint8"},{"astId":40,"contract":"/home/rocha/Proyects/Solidity/F1Bet/ethereum/contracts/F1.sol:FormulaBet","label":"manager","offset":1,"slot":"6","type":"t_address"},{"astId":42,"contract":"/home/rocha/Proyects/Solidity/F1Bet/ethereum/contracts/F1.sol:FormulaBet","label":"bet","offset":0,"slot":"7","type":"t_uint256"},{"astId":46,"contract":"/home/rocha/Proyects/Solidity/F1Bet/ethereum/contracts/F1.sol:FormulaBet","label":"hasVoted","offset":0,"slot":"8","type":"t_mapping(t_address,t_bool)"},{"astId":48,"contract":"/home/rocha/Proyects/Solidity/F1Bet/ethereum/contracts/F1.sol:FormulaBet","label":"approvers","offset":0,"slot":"9","type":"t_uint256"}],"types":{"t_address":{"encoding":"inplace","label":"address","numberOfBytes":"20"},"t_address_payable":{"encoding":"inplace","label":"address payable","numberOfBytes":"20"},"t_array(t_address)dyn_storage":{"base":"t_address","encoding":"dynamic_array","label":"address[]","numberOfBytes":"32"},"t_array(t_string_storage)dyn_storage":{"base":"t_string_storage","encoding":"dynamic_array","label":"string[]","numberOfBytes":"32"},"t_bool":{"encoding":"inplace","label":"bool","numberOfBytes":"1"},"t_mapping(t_address,t_bool)":{"encoding":"mapping","key":"t_address","label":"mapping(address => bool)","numberOfBytes":"32","value":"t_bool"},"t_mapping(t_address,t_struct(ContestantPrediction)18_storage)":{"encoding":"mapping","key":"t_address","label":"mapping(address => struct FormulaBet.ContestantPrediction)","numberOfBytes":"32","value":"t_struct(ContestantPrediction)18_storage"},"t_string_storage":{"encoding":"bytes","label":"string","numberOfBytes":"32"},"t_struct(ContestantPrediction)18_storage":{"encoding":"inplace","label":"struct FormulaBet.ContestantPrediction","members":[{"astId":4,"contract":"/home/rocha/Proyects/Solidity/F1Bet/ethereum/contracts/F1.sol:FormulaBet","label":"constructors","offset":0,"slot":"0","type":"t_array(t_string_storage)dyn_storage"},{"astId":7,"contract":"/home/rocha/Proyects/Solidity/F1Bet/ethereum/contracts/F1.sol:FormulaBet","label":"drivers","offset":0,"slot":"1","type":"t_array(t_string_storage)dyn_storage"},{"astId":9,"contract":"/home/rocha/Proyects/Solidity/F1Bet/ethereum/contracts/F1.sol:FormulaBet","label":"checoWins","offset":0,"slot":"2","type":"t_uint8"},{"astId":11,"contract":"/home/rocha/Proyects/Solidity/F1Bet/ethereum/contracts/F1.sol:FormulaBet","label":"constructorsPoints","offset":0,"slot":"3","type":"t_uint256"},{"astId":13,"contract":"/home/rocha/Proyects/Solidity/F1Bet/ethereum/contracts/F1.sol:FormulaBet","label":"driversPoints","offset":0,"slot":"4","type":"t_uint256"},{"astId":15,"contract":"/home/rocha/Proyects/Solidity/F1Bet/ethereum/contracts/F1.sol:FormulaBet","label":"checoPoints","offset":0,"slot":"5","type":"t_uint256"},{"astId":17,"contract":"/home/rocha/Proyects/Solidity/F1Bet/ethereum/contracts/F1.sol:FormulaBet","label":"totalPoints","offset":0,"slot":"6","type":"t_uint256"}],"numberOfBytes":"224"},"t_uint256":{"encoding":"inplace","label":"uint256","numberOfBytes":"32"},"t_uint8":{"encoding":"inplace","label":"uint8","numberOfBytes":"1"}}},"userdoc":{"kind":"user","methods":{},"version":1}}