{"abi":[{"inputs":[{"internalType":"uint256","name":"_bet","type":"uint256"}],"stateMutability":"nonpayable","type":"constructor"},{"inputs":[],"name":"acceptWinner","outputs":[],"stateMutability":"payable","type":"function"},{"inputs":[],"name":"bet","outputs":[{"internalType":"uint256","name":"","type":"uint256"}],"stateMutability":"view","type":"function"},{"inputs":[],"name":"calculateResults","outputs":[],"stateMutability":"nonpayable","type":"function"},{"inputs":[],"name":"checoWins","outputs":[{"internalType":"uint8","name":"","type":"uint8"}],"stateMutability":"view","type":"function"},{"inputs":[],"name":"enterBet","outputs":[],"stateMutability":"payable","type":"function"},{"inputs":[],"name":"getContestansCPoints","outputs":[{"internalType":"uint256","name":"","type":"uint256"}],"stateMutability":"view","type":"function"},{"inputs":[],"name":"getContestansChPoints","outputs":[{"internalType":"uint256","name":"","type":"uint256"}],"stateMutability":"view","type":"function"},{"inputs":[],"name":"getContestansDPoints","outputs":[{"internalType":"uint256","name":"","type":"uint256"}],"stateMutability":"view","type":"function"},{"inputs":[],"name":"getContestansTPoints","outputs":[{"internalType":"uint256","name":"","type":"uint256"}],"stateMutability":"view","type":"function"},{"inputs":[],"name":"getContestants","outputs":[{"internalType":"address[]","name":"","type":"address[]"}],"stateMutability":"view","type":"function"},{"inputs":[],"name":"manager","outputs":[{"internalType":"address","name":"","type":"address"}],"stateMutability":"view","type":"function"},{"inputs":[{"internalType":"uint8","name":"_checoWin","type":"uint8"}],"name":"predictChecoWins","outputs":[],"stateMutability":"nonpayable","type":"function"},{"inputs":[{"internalType":"string[]","name":"_constructorsP","type":"string[]"}],"name":"predictConstructorsTable","outputs":[],"stateMutability":"nonpayable","type":"function"},{"inputs":[{"internalType":"string[]","name":"_driversP","type":"string[]"}],"name":"predictDriversTable","outputs":[],"stateMutability":"nonpayable","type":"function"},{"inputs":[{"internalType":"uint8","name":"_wins","type":"uint8"}],"name":"setChecoWins","outputs":[],"stateMutability":"nonpayable","type":"function"},{"inputs":[{"internalType":"string[]","name":"_constructors","type":"string[]"}],"name":"setConstructorsTable","outputs":[],"stateMutability":"nonpayable","type":"function"},{"inputs":[{"internalType":"string[]","name":"_drivers","type":"string[]"}],"name":"setDriversTable","outputs":[],"stateMutability":"nonpayable","type":"function"},{"inputs":[],"name":"winner","outputs":[{"internalType":"address payable","name":"","type":"address"}],"stateMutability":"view","type":"function"}],"devdoc":{"kind":"dev","methods":{},"version":1},"evm":{"assembly":"    /* \"/home/rocha/Proyects/Solidity/F1Bet/ethereum/contracts/F1.sol\":34:10425  contract FormulaBet{... */\n  mstore(0x40, 0x80)\n    /* \"/home/rocha/Proyects/Solidity/F1Bet/ethereum/contracts/F1.sol\":626:707  constructor(uint _bet)  {... */\n  callvalue\n  dup1\n  iszero\n  tag_1\n  jumpi\n  0x00\n  dup1\n  revert\ntag_1:\n  pop\n  mload(0x40)\n  sub(codesize, bytecodeSize)\n  dup1\n  bytecodeSize\n  dup4\n  codecopy\n  dup2\n  dup2\n  add\n  0x40\n  mstore\n  dup2\n  add\n  swap1\n  tag_2\n  swap2\n  swap1\n  tag_3\n  jump\t// in\ntag_2:\n    /* \"/home/rocha/Proyects/Solidity/F1Bet/ethereum/contracts/F1.sol\":670:680  msg.sender */\n  caller\n    /* \"/home/rocha/Proyects/Solidity/F1Bet/ethereum/contracts/F1.sol\":660:667  manager */\n  0x06\n  0x01\n    /* \"/home/rocha/Proyects/Solidity/F1Bet/ethereum/contracts/F1.sol\":660:680  manager = msg.sender */\n  0x0100\n  exp\n  dup2\n  sload\n  dup2\n  0xffffffffffffffffffffffffffffffffffffffff\n  mul\n  not\n  and\n  swap1\n  dup4\n  0xffffffffffffffffffffffffffffffffffffffff\n  and\n  mul\n  or\n  swap1\n  sstore\n  pop\n    /* \"/home/rocha/Proyects/Solidity/F1Bet/ethereum/contracts/F1.sol\":696:700  _bet */\n  dup1\n    /* \"/home/rocha/Proyects/Solidity/F1Bet/ethereum/contracts/F1.sol\":690:693  bet */\n  0x07\n    /* \"/home/rocha/Proyects/Solidity/F1Bet/ethereum/contracts/F1.sol\":690:700  bet = _bet */\n  dup2\n  swap1\n  sstore\n  pop\n    /* \"/home/rocha/Proyects/Solidity/F1Bet/ethereum/contracts/F1.sol\":626:707  constructor(uint _bet)  {... */\n  pop\n    /* \"/home/rocha/Proyects/Solidity/F1Bet/ethereum/contracts/F1.sol\":34:10425  contract FormulaBet{... */\n  jump(tag_6)\n    /* \"#utility.yul\":88:205   */\ntag_8:\n    /* \"#utility.yul\":197:198   */\n  0x00\n    /* \"#utility.yul\":194:195   */\n  dup1\n    /* \"#utility.yul\":187:199   */\n  revert\n    /* \"#utility.yul\":334:411   */\ntag_10:\n    /* \"#utility.yul\":371:378   */\n  0x00\n    /* \"#utility.yul\":400:405   */\n  dup2\n    /* \"#utility.yul\":389:405   */\n  swap1\n  pop\n    /* \"#utility.yul\":334:411   */\n  swap2\n  swap1\n  pop\n  jump\t// out\n    /* \"#utility.yul\":417:539   */\ntag_11:\n    /* \"#utility.yul\":490:514   */\n  tag_19\n    /* \"#utility.yul\":508:513   */\n  dup2\n    /* \"#utility.yul\":490:514   */\n  tag_10\n  jump\t// in\ntag_19:\n    /* \"#utility.yul\":483:488   */\n  dup2\n    /* \"#utility.yul\":480:515   */\n  eq\n    /* \"#utility.yul\":470:533   */\n  tag_20\n  jumpi\n    /* \"#utility.yul\":529:530   */\n  0x00\n    /* \"#utility.yul\":526:527   */\n  dup1\n    /* \"#utility.yul\":519:531   */\n  revert\n    /* \"#utility.yul\":470:533   */\ntag_20:\n    /* \"#utility.yul\":417:539   */\n  pop\n  jump\t// out\n    /* \"#utility.yul\":545:688   */\ntag_12:\n    /* \"#utility.yul\":602:607   */\n  0x00\n    /* \"#utility.yul\":633:639   */\n  dup2\n    /* \"#utility.yul\":627:640   */\n  mload\n    /* \"#utility.yul\":618:640   */\n  swap1\n  pop\n    /* \"#utility.yul\":649:682   */\n  tag_22\n    /* \"#utility.yul\":676:681   */\n  dup2\n    /* \"#utility.yul\":649:682   */\n  tag_11\n  jump\t// in\ntag_22:\n    /* \"#utility.yul\":545:688   */\n  swap3\n  swap2\n  pop\n  pop\n  jump\t// out\n    /* \"#utility.yul\":694:1045   */\ntag_3:\n    /* \"#utility.yul\":764:770   */\n  0x00\n    /* \"#utility.yul\":813:815   */\n  0x20\n    /* \"#utility.yul\":801:810   */\n  dup3\n    /* \"#utility.yul\":792:799   */\n  dup5\n    /* \"#utility.yul\":788:811   */\n  sub\n    /* \"#utility.yul\":784:816   */\n  slt\n    /* \"#utility.yul\":781:900   */\n  iszero\n  tag_24\n  jumpi\n    /* \"#utility.yul\":819:898   */\n  tag_25\n  tag_8\n  jump\t// in\ntag_25:\n    /* \"#utility.yul\":781:900   */\ntag_24:\n    /* \"#utility.yul\":939:940   */\n  0x00\n    /* \"#utility.yul\":964:1028   */\n  tag_26\n    /* \"#utility.yul\":1020:1027   */\n  dup5\n    /* \"#utility.yul\":1011:1017   */\n  dup3\n    /* \"#utility.yul\":1000:1009   */\n  dup6\n    /* \"#utility.yul\":996:1018   */\n  add\n    /* \"#utility.yul\":964:1028   */\n  tag_12\n  jump\t// in\ntag_26:\n    /* \"#utility.yul\":954:1028   */\n  swap2\n  pop\n    /* \"#utility.yul\":910:1038   */\n  pop\n    /* \"#utility.yul\":694:1045   */\n  swap3\n  swap2\n  pop\n  pop\n  jump\t// out\n    /* \"/home/rocha/Proyects/Solidity/F1Bet/ethereum/contracts/F1.sol\":34:10425  contract FormulaBet{... */\ntag_6:\n  dataSize(sub_0)\n  dup1\n  dataOffset(sub_0)\n  0x00\n  codecopy\n  0x00\n  return\nstop\n\nsub_0: assembly {\n        /* \"/home/rocha/Proyects/Solidity/F1Bet/ethereum/contracts/F1.sol\":34:10425  contract FormulaBet{... */\n      mstore(0x40, 0x80)\n      jumpi(tag_1, lt(calldatasize, 0x04))\n      shr(0xe0, calldataload(0x00))\n      dup1\n      0x7f36ea24\n      gt\n      tag_20\n      jumpi\n      dup1\n      0xc10196fa\n      gt\n      tag_21\n      jumpi\n      dup1\n      0xc10196fa\n      eq\n      tag_15\n      jumpi\n      dup1\n      0xc8fe2134\n      eq\n      tag_16\n      jumpi\n      dup1\n      0xdfbf53ae\n      eq\n      tag_17\n      jumpi\n      dup1\n      0xef9884e4\n      eq\n      tag_18\n      jumpi\n      dup1\n      0xf1d78c84\n      eq\n      tag_19\n      jumpi\n      jump(tag_1)\n    tag_21:\n      dup1\n      0x7f36ea24\n      eq\n      tag_11\n      jumpi\n      dup1\n      0xa388d1cd\n      eq\n      tag_12\n      jumpi\n      dup1\n      0xb12038f4\n      eq\n      tag_13\n      jumpi\n      dup1\n      0xbb427d8a\n      eq\n      tag_14\n      jumpi\n      jump(tag_1)\n    tag_20:\n      dup1\n      0x481c6a75\n      gt\n      tag_22\n      jumpi\n      dup1\n      0x481c6a75\n      eq\n      tag_6\n      jumpi\n      dup1\n      0x55db72ea\n      eq\n      tag_7\n      jumpi\n      dup1\n      0x65046e8c\n      eq\n      tag_8\n      jumpi\n      dup1\n      0x77bc91f5\n      eq\n      tag_9\n      jumpi\n      dup1\n      0x7af448f2\n      eq\n      tag_10\n      jumpi\n      jump(tag_1)\n    tag_22:\n      dup1\n      0x09221b3a\n      eq\n      tag_2\n      jumpi\n      dup1\n      0x096c705d\n      eq\n      tag_3\n      jumpi\n      dup1\n      0x11610c25\n      eq\n      tag_4\n      jumpi\n      dup1\n      0x2ccb0d1e\n      eq\n      tag_5\n      jumpi\n    tag_1:\n      0x00\n      dup1\n      revert\n        /* \"/home/rocha/Proyects/Solidity/F1Bet/ethereum/contracts/F1.sol\":1867:2062  function predictConstructorsTable(string[] memory _constructorsP)public isOnBet{... */\n    tag_2:\n      callvalue\n      dup1\n      iszero\n      tag_23\n      jumpi\n      0x00\n      dup1\n      revert\n    tag_23:\n      pop\n      tag_24\n      0x04\n      dup1\n      calldatasize\n      sub\n      dup2\n      add\n      swap1\n      tag_25\n      swap2\n      swap1\n      tag_26\n      jump\t// in\n    tag_25:\n      tag_27\n      jump\t// in\n    tag_24:\n      stop\n        /* \"/home/rocha/Proyects/Solidity/F1Bet/ethereum/contracts/F1.sol\":10035:10162  function getContestansDPoints() public view isOnBet returns(uint){... */\n    tag_3:\n      callvalue\n      dup1\n      iszero\n      tag_28\n      jumpi\n      0x00\n      dup1\n      revert\n    tag_28:\n      pop\n      tag_29\n      tag_30\n      jump\t// in\n    tag_29:\n      mload(0x40)\n      tag_31\n      swap2\n      swap1\n      tag_32\n      jump\t// in\n    tag_31:\n      mload(0x40)\n      dup1\n      swap2\n      sub\n      swap1\n      return\n        /* \"/home/rocha/Proyects/Solidity/F1Bet/ethereum/contracts/F1.sol\":542:557  uint public bet */\n    tag_4:\n      callvalue\n      dup1\n      iszero\n      tag_33\n      jumpi\n      0x00\n      dup1\n      revert\n    tag_33:\n      pop\n      tag_34\n      tag_35\n      jump\t// in\n    tag_34:\n      mload(0x40)\n      tag_36\n      swap2\n      swap1\n      tag_32\n      jump\t// in\n    tag_36:\n      mload(0x40)\n      dup1\n      swap2\n      sub\n      swap1\n      return\n        /* \"/home/rocha/Proyects/Solidity/F1Bet/ethereum/contracts/F1.sol\":9707:9892  function calculateResults() public isOnBet {... */\n    tag_5:\n      callvalue\n      dup1\n      iszero\n      tag_37\n      jumpi\n      0x00\n      dup1\n      revert\n    tag_37:\n      pop\n      tag_38\n      tag_39\n      jump\t// in\n    tag_38:\n      stop\n        /* \"/home/rocha/Proyects/Solidity/F1Bet/ethereum/contracts/F1.sol\":514:536  address public manager */\n    tag_6:\n      callvalue\n      dup1\n      iszero\n      tag_40\n      jumpi\n      0x00\n      dup1\n      revert\n    tag_40:\n      pop\n      tag_41\n      tag_42\n      jump\t// in\n    tag_41:\n      mload(0x40)\n      tag_43\n      swap2\n      swap1\n      tag_44\n      jump\t// in\n    tag_43:\n      mload(0x40)\n      dup1\n      swap2\n      sub\n      swap1\n      return\n        /* \"/home/rocha/Proyects/Solidity/F1Bet/ethereum/contracts/F1.sol\":1515:1599  function setChecoWins(uint8 _wins)public isManager{... */\n    tag_7:\n      callvalue\n      dup1\n      iszero\n      tag_45\n      jumpi\n      0x00\n      dup1\n      revert\n    tag_45:\n      pop\n      tag_46\n      0x04\n      dup1\n      calldatasize\n      sub\n      dup2\n      add\n      swap1\n      tag_47\n      swap2\n      swap1\n      tag_48\n      jump\t// in\n    tag_47:\n      tag_49\n      jump\t// in\n    tag_46:\n      stop\n        /* \"/home/rocha/Proyects/Solidity/F1Bet/ethereum/contracts/F1.sol\":1409:1510  function setDriversTable(string[] memory _drivers)public isManager{... */\n    tag_8:\n      callvalue\n      dup1\n      iszero\n      tag_50\n      jumpi\n      0x00\n      dup1\n      revert\n    tag_50:\n      pop\n      tag_51\n      0x04\n      dup1\n      calldatasize\n      sub\n      dup2\n      add\n      swap1\n      tag_52\n      swap2\n      swap1\n      tag_26\n      jump\t// in\n    tag_52:\n      tag_53\n      jump\t// in\n    tag_51:\n      stop\n        /* \"/home/rocha/Proyects/Solidity/F1Bet/ethereum/contracts/F1.sol\":2243:2394  function predictChecoWins(uint8 _checoWin)public isOnBet{... */\n    tag_9:\n      callvalue\n      dup1\n      iszero\n      tag_54\n      jumpi\n      0x00\n      dup1\n      revert\n    tag_54:\n      pop\n      tag_55\n      0x04\n      dup1\n      calldatasize\n      sub\n      dup2\n      add\n      swap1\n      tag_56\n      swap2\n      swap1\n      tag_48\n      jump\t// in\n    tag_56:\n      tag_57\n      jump\t// in\n    tag_55:\n      stop\n        /* \"/home/rocha/Proyects/Solidity/F1Bet/ethereum/contracts/F1.sol\":9898:10030  function getContestansCPoints() public view isOnBet returns(uint){... */\n    tag_10:\n      callvalue\n      dup1\n      iszero\n      tag_58\n      jumpi\n      0x00\n      dup1\n      revert\n    tag_58:\n      pop\n      tag_59\n      tag_60\n      jump\t// in\n    tag_59:\n      mload(0x40)\n      tag_61\n      swap2\n      swap1\n      tag_32\n      jump\t// in\n    tag_61:\n      mload(0x40)\n      dup1\n      swap2\n      sub\n      swap1\n      return\n        /* \"/home/rocha/Proyects/Solidity/F1Bet/ethereum/contracts/F1.sol\":9428:9698  function acceptWinner() public payable isOnBet{... */\n    tag_11:\n      tag_62\n      tag_63\n      jump\t// in\n    tag_62:\n      stop\n        /* \"/home/rocha/Proyects/Solidity/F1Bet/ethereum/contracts/F1.sol\":10167:10293  function getContestansChPoints() public view isOnBet returns(uint){... */\n    tag_12:\n      callvalue\n      dup1\n      iszero\n      tag_64\n      jumpi\n      0x00\n      dup1\n      revert\n    tag_64:\n      pop\n      tag_65\n      tag_66\n      jump\t// in\n    tag_65:\n      mload(0x40)\n      tag_67\n      swap2\n      swap1\n      tag_32\n      jump\t// in\n    tag_67:\n      mload(0x40)\n      dup1\n      swap2\n      sub\n      swap1\n      return\n        /* \"/home/rocha/Proyects/Solidity/F1Bet/ethereum/contracts/F1.sol\":2068:2238  function predictDriversTable(string[] memory _driversP)public isOnBet{... */\n    tag_13:\n      callvalue\n      dup1\n      iszero\n      tag_68\n      jumpi\n      0x00\n      dup1\n      revert\n    tag_68:\n      pop\n      tag_69\n      0x04\n      dup1\n      calldatasize\n      sub\n      dup2\n      add\n      swap1\n      tag_70\n      swap2\n      swap1\n      tag_26\n      jump\t// in\n    tag_70:\n      tag_71\n      jump\t// in\n    tag_69:\n      stop\n        /* \"/home/rocha/Proyects/Solidity/F1Bet/ethereum/contracts/F1.sol\":1605:1756  function enterBet()  public payable notOnBet{... */\n    tag_14:\n      tag_72\n      tag_73\n      jump\t// in\n    tag_72:\n      stop\n        /* \"/home/rocha/Proyects/Solidity/F1Bet/ethereum/contracts/F1.sol\":1762:1861  function getContestants() public view returns( address[] memory){... */\n    tag_15:\n      callvalue\n      dup1\n      iszero\n      tag_74\n      jumpi\n      0x00\n      dup1\n      revert\n    tag_74:\n      pop\n      tag_75\n      tag_76\n      jump\t// in\n    tag_75:\n      mload(0x40)\n      tag_77\n      swap2\n      swap1\n      tag_78\n      jump\t// in\n    tag_77:\n      mload(0x40)\n      dup1\n      swap2\n      sub\n      swap1\n      return\n        /* \"/home/rocha/Proyects/Solidity/F1Bet/ethereum/contracts/F1.sol\":1283:1404  function setConstructorsTable(string[] memory _constructors)public isManager{... */\n    tag_16:\n      callvalue\n      dup1\n      iszero\n      tag_79\n      jumpi\n      0x00\n      dup1\n      revert\n    tag_79:\n      pop\n      tag_80\n      0x04\n      dup1\n      calldatasize\n      sub\n      dup2\n      add\n      swap1\n      tag_81\n      swap2\n      swap1\n      tag_26\n      jump\t// in\n    tag_81:\n      tag_82\n      jump\t// in\n    tag_80:\n      stop\n        /* \"/home/rocha/Proyects/Solidity/F1Bet/ethereum/contracts/F1.sol\":386:415  address payable public winner */\n    tag_17:\n      callvalue\n      dup1\n      iszero\n      tag_83\n      jumpi\n      0x00\n      dup1\n      revert\n    tag_83:\n      pop\n      tag_84\n      tag_85\n      jump\t// in\n    tag_84:\n      mload(0x40)\n      tag_86\n      swap2\n      swap1\n      tag_87\n      jump\t// in\n    tag_86:\n      mload(0x40)\n      dup1\n      swap2\n      sub\n      swap1\n      return\n        /* \"/home/rocha/Proyects/Solidity/F1Bet/ethereum/contracts/F1.sol\":10298:10423  function getContestansTPoints() public view isOnBet returns(uint){... */\n    tag_18:\n      callvalue\n      dup1\n      iszero\n      tag_88\n      jumpi\n      0x00\n      dup1\n      revert\n    tag_88:\n      pop\n      tag_89\n      tag_90\n      jump\t// in\n    tag_89:\n      mload(0x40)\n      tag_91\n      swap2\n      swap1\n      tag_32\n      jump\t// in\n    tag_91:\n      mload(0x40)\n      dup1\n      swap2\n      sub\n      swap1\n      return\n        /* \"/home/rocha/Proyects/Solidity/F1Bet/ethereum/contracts/F1.sol\":486:508  uint8 public checoWins */\n    tag_19:\n      callvalue\n      dup1\n      iszero\n      tag_92\n      jumpi\n      0x00\n      dup1\n      revert\n    tag_92:\n      pop\n      tag_93\n      tag_94\n      jump\t// in\n    tag_93:\n      mload(0x40)\n      tag_95\n      swap2\n      swap1\n      tag_96\n      jump\t// in\n    tag_95:\n      mload(0x40)\n      dup1\n      swap2\n      sub\n      swap1\n      return\n        /* \"/home/rocha/Proyects/Solidity/F1Bet/ethereum/contracts/F1.sol\":1867:2062  function predictConstructorsTable(string[] memory _constructorsP)public isOnBet{... */\n    tag_27:\n        /* \"/home/rocha/Proyects/Solidity/F1Bet/ethereum/contracts/F1.sol\":966:983  bool isContestant */\n      0x00\n        /* \"/home/rocha/Proyects/Solidity/F1Bet/ethereum/contracts/F1.sol\":998:1005  uint8 i */\n      dup1\n        /* \"/home/rocha/Proyects/Solidity/F1Bet/ethereum/contracts/F1.sol\":1008:1009  0 */\n      0x00\n        /* \"/home/rocha/Proyects/Solidity/F1Bet/ethereum/contracts/F1.sol\":998:1009  uint8 i = 0 */\n      swap1\n      pop\n        /* \"/home/rocha/Proyects/Solidity/F1Bet/ethereum/contracts/F1.sol\":993:1145  for (uint8 i = 0; i < contestants.length; ++i) {... */\n    tag_98:\n        /* \"/home/rocha/Proyects/Solidity/F1Bet/ethereum/contracts/F1.sol\":1015:1026  contestants */\n      0x01\n        /* \"/home/rocha/Proyects/Solidity/F1Bet/ethereum/contracts/F1.sol\":1015:1033  contestants.length */\n      dup1\n      sload\n      swap1\n      pop\n        /* \"/home/rocha/Proyects/Solidity/F1Bet/ethereum/contracts/F1.sol\":1011:1012  i */\n      dup2\n        /* \"/home/rocha/Proyects/Solidity/F1Bet/ethereum/contracts/F1.sol\":1011:1033  i < contestants.length */\n      0xff\n      and\n      lt\n        /* \"/home/rocha/Proyects/Solidity/F1Bet/ethereum/contracts/F1.sol\":993:1145  for (uint8 i = 0; i < contestants.length; ++i) {... */\n      iszero\n      tag_99\n      jumpi\n        /* \"/home/rocha/Proyects/Solidity/F1Bet/ethereum/contracts/F1.sol\":1073:1083  msg.sender */\n      caller\n        /* \"/home/rocha/Proyects/Solidity/F1Bet/ethereum/contracts/F1.sol\":1057:1083  contestants[i]==msg.sender */\n      0xffffffffffffffffffffffffffffffffffffffff\n      and\n        /* \"/home/rocha/Proyects/Solidity/F1Bet/ethereum/contracts/F1.sol\":1057:1068  contestants */\n      0x01\n        /* \"/home/rocha/Proyects/Solidity/F1Bet/ethereum/contracts/F1.sol\":1069:1070  i */\n      dup3\n        /* \"/home/rocha/Proyects/Solidity/F1Bet/ethereum/contracts/F1.sol\":1057:1071  contestants[i] */\n      0xff\n      and\n      dup2\n      sload\n      dup2\n      lt\n      tag_101\n      jumpi\n      tag_102\n      tag_103\n      jump\t// in\n    tag_102:\n    tag_101:\n      swap1\n      0x00\n      mstore\n      keccak256(0x00, 0x20)\n      add\n      0x00\n      swap1\n      sload\n      swap1\n      0x0100\n      exp\n      swap1\n      div\n      0xffffffffffffffffffffffffffffffffffffffff\n      and\n        /* \"/home/rocha/Proyects/Solidity/F1Bet/ethereum/contracts/F1.sol\":1057:1083  contestants[i]==msg.sender */\n      0xffffffffffffffffffffffffffffffffffffffff\n      and\n      eq\n        /* \"/home/rocha/Proyects/Solidity/F1Bet/ethereum/contracts/F1.sol\":1054:1135  if(contestants[i]==msg.sender){... */\n      iszero\n      tag_105\n      jumpi\n        /* \"/home/rocha/Proyects/Solidity/F1Bet/ethereum/contracts/F1.sol\":1116:1120  true */\n      0x01\n        /* \"/home/rocha/Proyects/Solidity/F1Bet/ethereum/contracts/F1.sol\":1101:1120  isContestant = true */\n      swap2\n      pop\n        /* \"/home/rocha/Proyects/Solidity/F1Bet/ethereum/contracts/F1.sol\":1054:1135  if(contestants[i]==msg.sender){... */\n    tag_105:\n        /* \"/home/rocha/Proyects/Solidity/F1Bet/ethereum/contracts/F1.sol\":1035:1038  ++i */\n      dup1\n      tag_106\n      swap1\n      tag_107\n      jump\t// in\n    tag_106:\n      swap1\n      pop\n        /* \"/home/rocha/Proyects/Solidity/F1Bet/ethereum/contracts/F1.sol\":993:1145  for (uint8 i = 0; i < contestants.length; ++i) {... */\n      jump(tag_98)\n    tag_99:\n      pop\n        /* \"/home/rocha/Proyects/Solidity/F1Bet/ethereum/contracts/F1.sol\":1162:1174  isContestant */\n      dup1\n        /* \"/home/rocha/Proyects/Solidity/F1Bet/ethereum/contracts/F1.sol\":1154:1175  require(isContestant) */\n      tag_108\n      jumpi\n      0x00\n      dup1\n      revert\n    tag_108:\n        /* \"/home/rocha/Proyects/Solidity/F1Bet/ethereum/contracts/F1.sol\":1989:1991  10 */\n      0x0a\n        /* \"/home/rocha/Proyects/Solidity/F1Bet/ethereum/contracts/F1.sol\":1964:1978  _constructorsP */\n      dup3\n        /* \"/home/rocha/Proyects/Solidity/F1Bet/ethereum/contracts/F1.sol\":1964:1985  _constructorsP.length */\n      mload\n        /* \"/home/rocha/Proyects/Solidity/F1Bet/ethereum/contracts/F1.sol\":1964:1991  _constructorsP.length == 10 */\n      eq\n        /* \"/home/rocha/Proyects/Solidity/F1Bet/ethereum/contracts/F1.sol\":1956:1992  require(_constructorsP.length == 10) */\n      tag_110\n      jumpi\n      0x00\n      dup1\n      revert\n    tag_110:\n        /* \"/home/rocha/Proyects/Solidity/F1Bet/ethereum/contracts/F1.sol\":2041:2055  _constructorsP */\n      dup2\n        /* \"/home/rocha/Proyects/Solidity/F1Bet/ethereum/contracts/F1.sol\":2002:2013  predictions */\n      0x00\n        /* \"/home/rocha/Proyects/Solidity/F1Bet/ethereum/contracts/F1.sol\":2002:2025  predictions[msg.sender] */\n      dup1\n        /* \"/home/rocha/Proyects/Solidity/F1Bet/ethereum/contracts/F1.sol\":2014:2024  msg.sender */\n      caller\n        /* \"/home/rocha/Proyects/Solidity/F1Bet/ethereum/contracts/F1.sol\":2002:2025  predictions[msg.sender] */\n      0xffffffffffffffffffffffffffffffffffffffff\n      and\n      0xffffffffffffffffffffffffffffffffffffffff\n      and\n      dup2\n      mstore\n      0x20\n      add\n      swap1\n      dup2\n      mstore\n      0x20\n      add\n      0x00\n      keccak256\n        /* \"/home/rocha/Proyects/Solidity/F1Bet/ethereum/contracts/F1.sol\":2002:2038  predictions[msg.sender].constructors */\n      0x00\n      add\n        /* \"/home/rocha/Proyects/Solidity/F1Bet/ethereum/contracts/F1.sol\":2002:2055  predictions[msg.sender].constructors = _constructorsP */\n      swap1\n      dup1\n      mload\n      swap1\n      0x20\n      add\n      swap1\n      tag_111\n      swap3\n      swap2\n      swap1\n      tag_112\n      jump\t// in\n    tag_111:\n      pop\n        /* \"/home/rocha/Proyects/Solidity/F1Bet/ethereum/contracts/F1.sol\":956:1193  {... */\n      pop\n        /* \"/home/rocha/Proyects/Solidity/F1Bet/ethereum/contracts/F1.sol\":1867:2062  function predictConstructorsTable(string[] memory _constructorsP)public isOnBet{... */\n      pop\n      jump\t// out\n        /* \"/home/rocha/Proyects/Solidity/F1Bet/ethereum/contracts/F1.sol\":10035:10162  function getContestansDPoints() public view isOnBet returns(uint){... */\n    tag_30:\n        /* \"/home/rocha/Proyects/Solidity/F1Bet/ethereum/contracts/F1.sol\":10095:10099  uint */\n      0x00\n        /* \"/home/rocha/Proyects/Solidity/F1Bet/ethereum/contracts/F1.sol\":966:983  bool isContestant */\n      dup1\n        /* \"/home/rocha/Proyects/Solidity/F1Bet/ethereum/contracts/F1.sol\":998:1005  uint8 i */\n      0x00\n        /* \"/home/rocha/Proyects/Solidity/F1Bet/ethereum/contracts/F1.sol\":993:1145  for (uint8 i = 0; i < contestants.length; ++i) {... */\n    tag_114:\n        /* \"/home/rocha/Proyects/Solidity/F1Bet/ethereum/contracts/F1.sol\":1015:1026  contestants */\n      0x01\n        /* \"/home/rocha/Proyects/Solidity/F1Bet/ethereum/contracts/F1.sol\":1015:1033  contestants.length */\n      dup1\n      sload\n      swap1\n      pop\n        /* \"/home/rocha/Proyects/Solidity/F1Bet/ethereum/contracts/F1.sol\":1011:1012  i */\n      dup2\n        /* \"/home/rocha/Proyects/Solidity/F1Bet/ethereum/contracts/F1.sol\":1011:1033  i < contestants.length */\n      0xff\n      and\n      lt\n        /* \"/home/rocha/Proyects/Solidity/F1Bet/ethereum/contracts/F1.sol\":993:1145  for (uint8 i = 0; i < contestants.length; ++i) {... */\n      iszero\n      tag_115\n      jumpi\n        /* \"/home/rocha/Proyects/Solidity/F1Bet/ethereum/contracts/F1.sol\":1073:1083  msg.sender */\n      caller\n        /* \"/home/rocha/Proyects/Solidity/F1Bet/ethereum/contracts/F1.sol\":1057:1083  contestants[i]==msg.sender */\n      0xffffffffffffffffffffffffffffffffffffffff\n      and\n        /* \"/home/rocha/Proyects/Solidity/F1Bet/ethereum/contracts/F1.sol\":1057:1068  contestants */\n      0x01\n        /* \"/home/rocha/Proyects/Solidity/F1Bet/ethereum/contracts/F1.sol\":1069:1070  i */\n      dup3\n        /* \"/home/rocha/Proyects/Solidity/F1Bet/ethereum/contracts/F1.sol\":1057:1071  contestants[i] */\n      0xff\n      and\n      dup2\n      sload\n      dup2\n      lt\n      tag_117\n      jumpi\n      tag_118\n      tag_103\n      jump\t// in\n    tag_118:\n    tag_117:\n      swap1\n      0x00\n      mstore\n      keccak256(0x00, 0x20)\n      add\n      0x00\n      swap1\n      sload\n      swap1\n      0x0100\n      exp\n      swap1\n      div\n      0xffffffffffffffffffffffffffffffffffffffff\n      and\n        /* \"/home/rocha/Proyects/Solidity/F1Bet/ethereum/contracts/F1.sol\":1057:1083  contestants[i]==msg.sender */\n      0xffffffffffffffffffffffffffffffffffffffff\n      and\n      eq\n        /* \"/home/rocha/Proyects/Solidity/F1Bet/ethereum/contracts/F1.sol\":1054:1135  if(contestants[i]==msg.sender){... */\n      iszero\n      tag_120\n      jumpi\n        /* \"/home/rocha/Proyects/Solidity/F1Bet/ethereum/contracts/F1.sol\":1116:1120  true */\n      0x01\n        /* \"/home/rocha/Proyects/Solidity/F1Bet/ethereum/contracts/F1.sol\":1101:1120  isContestant = true */\n      swap2\n      pop\n        /* \"/home/rocha/Proyects/Solidity/F1Bet/ethereum/contracts/F1.sol\":1054:1135  if(contestants[i]==msg.sender){... */\n    tag_120:\n        /* \"/home/rocha/Proyects/Solidity/F1Bet/ethereum/contracts/F1.sol\":1035:1038  ++i */\n      dup1\n      tag_121\n      swap1\n      tag_107\n      jump\t// in\n    tag_121:\n      swap1\n      pop\n        /* \"/home/rocha/Proyects/Solidity/F1Bet/ethereum/contracts/F1.sol\":993:1145  for (uint8 i = 0; i < contestants.length; ++i) {... */\n      jump(tag_114)\n    tag_115:\n      pop\n        /* \"/home/rocha/Proyects/Solidity/F1Bet/ethereum/contracts/F1.sol\":1162:1174  isContestant */\n      dup1\n        /* \"/home/rocha/Proyects/Solidity/F1Bet/ethereum/contracts/F1.sol\":1154:1175  require(isContestant) */\n      tag_122\n      jumpi\n      0x00\n      dup1\n      revert\n    tag_122:\n        /* \"/home/rocha/Proyects/Solidity/F1Bet/ethereum/contracts/F1.sol\":10118:10129  predictions */\n      0x00\n        /* \"/home/rocha/Proyects/Solidity/F1Bet/ethereum/contracts/F1.sol\":10118:10141  predictions[msg.sender] */\n      dup1\n        /* \"/home/rocha/Proyects/Solidity/F1Bet/ethereum/contracts/F1.sol\":10130:10140  msg.sender */\n      caller\n        /* \"/home/rocha/Proyects/Solidity/F1Bet/ethereum/contracts/F1.sol\":10118:10141  predictions[msg.sender] */\n      0xffffffffffffffffffffffffffffffffffffffff\n      and\n      0xffffffffffffffffffffffffffffffffffffffff\n      and\n      dup2\n      mstore\n      0x20\n      add\n      swap1\n      dup2\n      mstore\n      0x20\n      add\n      0x00\n      keccak256\n        /* \"/home/rocha/Proyects/Solidity/F1Bet/ethereum/contracts/F1.sol\":10118:10155  predictions[msg.sender].driversPoints */\n      0x04\n      add\n      sload\n        /* \"/home/rocha/Proyects/Solidity/F1Bet/ethereum/contracts/F1.sol\":10110:10155  return  predictions[msg.sender].driversPoints */\n      swap2\n      pop\n        /* \"/home/rocha/Proyects/Solidity/F1Bet/ethereum/contracts/F1.sol\":956:1193  {... */\n      pop\n        /* \"/home/rocha/Proyects/Solidity/F1Bet/ethereum/contracts/F1.sol\":10035:10162  function getContestansDPoints() public view isOnBet returns(uint){... */\n      swap1\n      jump\t// out\n        /* \"/home/rocha/Proyects/Solidity/F1Bet/ethereum/contracts/F1.sol\":542:557  uint public bet */\n    tag_35:\n      sload(0x07)\n      dup2\n      jump\t// out\n        /* \"/home/rocha/Proyects/Solidity/F1Bet/ethereum/contracts/F1.sol\":9707:9892  function calculateResults() public isOnBet {... */\n    tag_39:\n        /* \"/home/rocha/Proyects/Solidity/F1Bet/ethereum/contracts/F1.sol\":966:983  bool isContestant */\n      0x00\n        /* \"/home/rocha/Proyects/Solidity/F1Bet/ethereum/contracts/F1.sol\":998:1005  uint8 i */\n      dup1\n        /* \"/home/rocha/Proyects/Solidity/F1Bet/ethereum/contracts/F1.sol\":1008:1009  0 */\n      0x00\n        /* \"/home/rocha/Proyects/Solidity/F1Bet/ethereum/contracts/F1.sol\":998:1009  uint8 i = 0 */\n      swap1\n      pop\n        /* \"/home/rocha/Proyects/Solidity/F1Bet/ethereum/contracts/F1.sol\":993:1145  for (uint8 i = 0; i < contestants.length; ++i) {... */\n    tag_125:\n        /* \"/home/rocha/Proyects/Solidity/F1Bet/ethereum/contracts/F1.sol\":1015:1026  contestants */\n      0x01\n        /* \"/home/rocha/Proyects/Solidity/F1Bet/ethereum/contracts/F1.sol\":1015:1033  contestants.length */\n      dup1\n      sload\n      swap1\n      pop\n        /* \"/home/rocha/Proyects/Solidity/F1Bet/ethereum/contracts/F1.sol\":1011:1012  i */\n      dup2\n        /* \"/home/rocha/Proyects/Solidity/F1Bet/ethereum/contracts/F1.sol\":1011:1033  i < contestants.length */\n      0xff\n      and\n      lt\n        /* \"/home/rocha/Proyects/Solidity/F1Bet/ethereum/contracts/F1.sol\":993:1145  for (uint8 i = 0; i < contestants.length; ++i) {... */\n      iszero\n      tag_126\n      jumpi\n        /* \"/home/rocha/Proyects/Solidity/F1Bet/ethereum/contracts/F1.sol\":1073:1083  msg.sender */\n      caller\n        /* \"/home/rocha/Proyects/Solidity/F1Bet/ethereum/contracts/F1.sol\":1057:1083  contestants[i]==msg.sender */\n      0xffffffffffffffffffffffffffffffffffffffff\n      and\n        /* \"/home/rocha/Proyects/Solidity/F1Bet/ethereum/contracts/F1.sol\":1057:1068  contestants */\n      0x01\n        /* \"/home/rocha/Proyects/Solidity/F1Bet/ethereum/contracts/F1.sol\":1069:1070  i */\n      dup3\n        /* \"/home/rocha/Proyects/Solidity/F1Bet/ethereum/contracts/F1.sol\":1057:1071  contestants[i] */\n      0xff\n      and\n      dup2\n      sload\n      dup2\n      lt\n      tag_128\n      jumpi\n      tag_129\n      tag_103\n      jump\t// in\n    tag_129:\n    tag_128:\n      swap1\n      0x00\n      mstore\n      keccak256(0x00, 0x20)\n      add\n      0x00\n      swap1\n      sload\n      swap1\n      0x0100\n      exp\n      swap1\n      div\n      0xffffffffffffffffffffffffffffffffffffffff\n      and\n        /* \"/home/rocha/Proyects/Solidity/F1Bet/ethereum/contracts/F1.sol\":1057:1083  contestants[i]==msg.sender */\n      0xffffffffffffffffffffffffffffffffffffffff\n      and\n      eq\n        /* \"/home/rocha/Proyects/Solidity/F1Bet/ethereum/contracts/F1.sol\":1054:1135  if(contestants[i]==msg.sender){... */\n      iszero\n      tag_131\n      jumpi\n        /* \"/home/rocha/Proyects/Solidity/F1Bet/ethereum/contracts/F1.sol\":1116:1120  true */\n      0x01\n        /* \"/home/rocha/Proyects/Solidity/F1Bet/ethereum/contracts/F1.sol\":1101:1120  isContestant = true */\n      swap2\n      pop\n        /* \"/home/rocha/Proyects/Solidity/F1Bet/ethereum/contracts/F1.sol\":1054:1135  if(contestants[i]==msg.sender){... */\n    tag_131:\n        /* \"/home/rocha/Proyects/Solidity/F1Bet/ethereum/contracts/F1.sol\":1035:1038  ++i */\n      dup1\n      tag_132\n      swap1\n      tag_107\n      jump\t// in\n    tag_132:\n      swap1\n      pop\n        /* \"/home/rocha/Proyects/Solidity/F1Bet/ethereum/contracts/F1.sol\":993:1145  for (uint8 i = 0; i < contestants.length; ++i) {... */\n      jump(tag_125)\n    tag_126:\n      pop\n        /* \"/home/rocha/Proyects/Solidity/F1Bet/ethereum/contracts/F1.sol\":1162:1174  isContestant */\n      dup1\n        /* \"/home/rocha/Proyects/Solidity/F1Bet/ethereum/contracts/F1.sol\":1154:1175  require(isContestant) */\n      tag_133\n      jumpi\n      0x00\n      dup1\n      revert\n    tag_133:\n        /* \"/home/rocha/Proyects/Solidity/F1Bet/ethereum/contracts/F1.sol\":9760:9788  calculateConstructorsTable() */\n      tag_135\n        /* \"/home/rocha/Proyects/Solidity/F1Bet/ethereum/contracts/F1.sol\":9760:9786  calculateConstructorsTable */\n      tag_136\n        /* \"/home/rocha/Proyects/Solidity/F1Bet/ethereum/contracts/F1.sol\":9760:9788  calculateConstructorsTable() */\n      jump\t// in\n    tag_135:\n        /* \"/home/rocha/Proyects/Solidity/F1Bet/ethereum/contracts/F1.sol\":9798:9821  calculateDriversTable() */\n      tag_137\n        /* \"/home/rocha/Proyects/Solidity/F1Bet/ethereum/contracts/F1.sol\":9798:9819  calculateDriversTable */\n      tag_138\n        /* \"/home/rocha/Proyects/Solidity/F1Bet/ethereum/contracts/F1.sol\":9798:9821  calculateDriversTable() */\n      jump\t// in\n    tag_137:\n        /* \"/home/rocha/Proyects/Solidity/F1Bet/ethereum/contracts/F1.sol\":9831:9853  calculateChecoPoints() */\n      tag_139\n        /* \"/home/rocha/Proyects/Solidity/F1Bet/ethereum/contracts/F1.sol\":9831:9851  calculateChecoPoints */\n      tag_140\n        /* \"/home/rocha/Proyects/Solidity/F1Bet/ethereum/contracts/F1.sol\":9831:9853  calculateChecoPoints() */\n      jump\t// in\n    tag_139:\n        /* \"/home/rocha/Proyects/Solidity/F1Bet/ethereum/contracts/F1.sol\":9863:9885  calculateFinalPoints() */\n      tag_141\n        /* \"/home/rocha/Proyects/Solidity/F1Bet/ethereum/contracts/F1.sol\":9863:9883  calculateFinalPoints */\n      tag_142\n        /* \"/home/rocha/Proyects/Solidity/F1Bet/ethereum/contracts/F1.sol\":9863:9885  calculateFinalPoints() */\n      jump\t// in\n    tag_141:\n        /* \"/home/rocha/Proyects/Solidity/F1Bet/ethereum/contracts/F1.sol\":956:1193  {... */\n      pop\n        /* \"/home/rocha/Proyects/Solidity/F1Bet/ethereum/contracts/F1.sol\":9707:9892  function calculateResults() public isOnBet {... */\n      jump\t// out\n        /* \"/home/rocha/Proyects/Solidity/F1Bet/ethereum/contracts/F1.sol\":514:536  address public manager */\n    tag_42:\n      0x06\n      0x01\n      swap1\n      sload\n      swap1\n      0x0100\n      exp\n      swap1\n      div\n      0xffffffffffffffffffffffffffffffffffffffff\n      and\n      dup2\n      jump\t// out\n        /* \"/home/rocha/Proyects/Solidity/F1Bet/ethereum/contracts/F1.sol\":1515:1599  function setChecoWins(uint8 _wins)public isManager{... */\n    tag_49:\n        /* \"/home/rocha/Proyects/Solidity/F1Bet/ethereum/contracts/F1.sol\":1251:1258  manager */\n      0x06\n      0x01\n      swap1\n      sload\n      swap1\n      0x0100\n      exp\n      swap1\n      div\n      0xffffffffffffffffffffffffffffffffffffffff\n      and\n        /* \"/home/rocha/Proyects/Solidity/F1Bet/ethereum/contracts/F1.sol\":1237:1258  msg.sender == manager */\n      0xffffffffffffffffffffffffffffffffffffffff\n      and\n        /* \"/home/rocha/Proyects/Solidity/F1Bet/ethereum/contracts/F1.sol\":1237:1247  msg.sender */\n      caller\n        /* \"/home/rocha/Proyects/Solidity/F1Bet/ethereum/contracts/F1.sol\":1237:1258  msg.sender == manager */\n      0xffffffffffffffffffffffffffffffffffffffff\n      and\n      eq\n        /* \"/home/rocha/Proyects/Solidity/F1Bet/ethereum/contracts/F1.sol\":1229:1259  require(msg.sender == manager) */\n      tag_144\n      jumpi\n      0x00\n      dup1\n      revert\n    tag_144:\n        /* \"/home/rocha/Proyects/Solidity/F1Bet/ethereum/contracts/F1.sol\":1587:1592  _wins */\n      dup1\n        /* \"/home/rocha/Proyects/Solidity/F1Bet/ethereum/contracts/F1.sol\":1575:1584  checoWins */\n      0x06\n      0x00\n        /* \"/home/rocha/Proyects/Solidity/F1Bet/ethereum/contracts/F1.sol\":1575:1592  checoWins = _wins */\n      0x0100\n      exp\n      dup2\n      sload\n      dup2\n      0xff\n      mul\n      not\n      and\n      swap1\n      dup4\n      0xff\n      and\n      mul\n      or\n      swap1\n      sstore\n      pop\n        /* \"/home/rocha/Proyects/Solidity/F1Bet/ethereum/contracts/F1.sol\":1515:1599  function setChecoWins(uint8 _wins)public isManager{... */\n      pop\n      jump\t// out\n        /* \"/home/rocha/Proyects/Solidity/F1Bet/ethereum/contracts/F1.sol\":1409:1510  function setDriversTable(string[] memory _drivers)public isManager{... */\n    tag_53:\n        /* \"/home/rocha/Proyects/Solidity/F1Bet/ethereum/contracts/F1.sol\":1251:1258  manager */\n      0x06\n      0x01\n      swap1\n      sload\n      swap1\n      0x0100\n      exp\n      swap1\n      div\n      0xffffffffffffffffffffffffffffffffffffffff\n      and\n        /* \"/home/rocha/Proyects/Solidity/F1Bet/ethereum/contracts/F1.sol\":1237:1258  msg.sender == manager */\n      0xffffffffffffffffffffffffffffffffffffffff\n      and\n        /* \"/home/rocha/Proyects/Solidity/F1Bet/ethereum/contracts/F1.sol\":1237:1247  msg.sender */\n      caller\n        /* \"/home/rocha/Proyects/Solidity/F1Bet/ethereum/contracts/F1.sol\":1237:1258  msg.sender == manager */\n      0xffffffffffffffffffffffffffffffffffffffff\n      and\n      eq\n        /* \"/home/rocha/Proyects/Solidity/F1Bet/ethereum/contracts/F1.sol\":1229:1259  require(msg.sender == manager) */\n      tag_147\n      jumpi\n      0x00\n      dup1\n      revert\n    tag_147:\n        /* \"/home/rocha/Proyects/Solidity/F1Bet/ethereum/contracts/F1.sol\":1495:1503  _drivers */\n      dup1\n        /* \"/home/rocha/Proyects/Solidity/F1Bet/ethereum/contracts/F1.sol\":1485:1492  drivers */\n      0x05\n        /* \"/home/rocha/Proyects/Solidity/F1Bet/ethereum/contracts/F1.sol\":1485:1503  drivers = _drivers */\n      swap1\n      dup1\n      mload\n      swap1\n      0x20\n      add\n      swap1\n      tag_149\n      swap3\n      swap2\n      swap1\n      tag_112\n      jump\t// in\n    tag_149:\n      pop\n        /* \"/home/rocha/Proyects/Solidity/F1Bet/ethereum/contracts/F1.sol\":1409:1510  function setDriversTable(string[] memory _drivers)public isManager{... */\n      pop\n      jump\t// out\n        /* \"/home/rocha/Proyects/Solidity/F1Bet/ethereum/contracts/F1.sol\":2243:2394  function predictChecoWins(uint8 _checoWin)public isOnBet{... */\n    tag_57:\n        /* \"/home/rocha/Proyects/Solidity/F1Bet/ethereum/contracts/F1.sol\":966:983  bool isContestant */\n      0x00\n        /* \"/home/rocha/Proyects/Solidity/F1Bet/ethereum/contracts/F1.sol\":998:1005  uint8 i */\n      dup1\n        /* \"/home/rocha/Proyects/Solidity/F1Bet/ethereum/contracts/F1.sol\":1008:1009  0 */\n      0x00\n        /* \"/home/rocha/Proyects/Solidity/F1Bet/ethereum/contracts/F1.sol\":998:1009  uint8 i = 0 */\n      swap1\n      pop\n        /* \"/home/rocha/Proyects/Solidity/F1Bet/ethereum/contracts/F1.sol\":993:1145  for (uint8 i = 0; i < contestants.length; ++i) {... */\n    tag_151:\n        /* \"/home/rocha/Proyects/Solidity/F1Bet/ethereum/contracts/F1.sol\":1015:1026  contestants */\n      0x01\n        /* \"/home/rocha/Proyects/Solidity/F1Bet/ethereum/contracts/F1.sol\":1015:1033  contestants.length */\n      dup1\n      sload\n      swap1\n      pop\n        /* \"/home/rocha/Proyects/Solidity/F1Bet/ethereum/contracts/F1.sol\":1011:1012  i */\n      dup2\n        /* \"/home/rocha/Proyects/Solidity/F1Bet/ethereum/contracts/F1.sol\":1011:1033  i < contestants.length */\n      0xff\n      and\n      lt\n        /* \"/home/rocha/Proyects/Solidity/F1Bet/ethereum/contracts/F1.sol\":993:1145  for (uint8 i = 0; i < contestants.length; ++i) {... */\n      iszero\n      tag_152\n      jumpi\n        /* \"/home/rocha/Proyects/Solidity/F1Bet/ethereum/contracts/F1.sol\":1073:1083  msg.sender */\n      caller\n        /* \"/home/rocha/Proyects/Solidity/F1Bet/ethereum/contracts/F1.sol\":1057:1083  contestants[i]==msg.sender */\n      0xffffffffffffffffffffffffffffffffffffffff\n      and\n        /* \"/home/rocha/Proyects/Solidity/F1Bet/ethereum/contracts/F1.sol\":1057:1068  contestants */\n      0x01\n        /* \"/home/rocha/Proyects/Solidity/F1Bet/ethereum/contracts/F1.sol\":1069:1070  i */\n      dup3\n        /* \"/home/rocha/Proyects/Solidity/F1Bet/ethereum/contracts/F1.sol\":1057:1071  contestants[i] */\n      0xff\n      and\n      dup2\n      sload\n      dup2\n      lt\n      tag_154\n      jumpi\n      tag_155\n      tag_103\n      jump\t// in\n    tag_155:\n    tag_154:\n      swap1\n      0x00\n      mstore\n      keccak256(0x00, 0x20)\n      add\n      0x00\n      swap1\n      sload\n      swap1\n      0x0100\n      exp\n      swap1\n      div\n      0xffffffffffffffffffffffffffffffffffffffff\n      and\n        /* \"/home/rocha/Proyects/Solidity/F1Bet/ethereum/contracts/F1.sol\":1057:1083  contestants[i]==msg.sender */\n      0xffffffffffffffffffffffffffffffffffffffff\n      and\n      eq\n        /* \"/home/rocha/Proyects/Solidity/F1Bet/ethereum/contracts/F1.sol\":1054:1135  if(contestants[i]==msg.sender){... */\n      iszero\n      tag_157\n      jumpi\n        /* \"/home/rocha/Proyects/Solidity/F1Bet/ethereum/contracts/F1.sol\":1116:1120  true */\n      0x01\n        /* \"/home/rocha/Proyects/Solidity/F1Bet/ethereum/contracts/F1.sol\":1101:1120  isContestant = true */\n      swap2\n      pop\n        /* \"/home/rocha/Proyects/Solidity/F1Bet/ethereum/contracts/F1.sol\":1054:1135  if(contestants[i]==msg.sender){... */\n    tag_157:\n        /* \"/home/rocha/Proyects/Solidity/F1Bet/ethereum/contracts/F1.sol\":1035:1038  ++i */\n      dup1\n      tag_158\n      swap1\n      tag_107\n      jump\t// in\n    tag_158:\n      swap1\n      pop\n        /* \"/home/rocha/Proyects/Solidity/F1Bet/ethereum/contracts/F1.sol\":993:1145  for (uint8 i = 0; i < contestants.length; ++i) {... */\n      jump(tag_151)\n    tag_152:\n      pop\n        /* \"/home/rocha/Proyects/Solidity/F1Bet/ethereum/contracts/F1.sol\":1162:1174  isContestant */\n      dup1\n        /* \"/home/rocha/Proyects/Solidity/F1Bet/ethereum/contracts/F1.sol\":1154:1175  require(isContestant) */\n      tag_159\n      jumpi\n      0x00\n      dup1\n      revert\n    tag_159:\n        /* \"/home/rocha/Proyects/Solidity/F1Bet/ethereum/contracts/F1.sol\":2330:2331  0 */\n      0x00\n        /* \"/home/rocha/Proyects/Solidity/F1Bet/ethereum/contracts/F1.sol\":2317:2326  _checoWin */\n      dup3\n        /* \"/home/rocha/Proyects/Solidity/F1Bet/ethereum/contracts/F1.sol\":2317:2331  _checoWin >= 0 */\n      0xff\n      and\n      lt\n      iszero\n        /* \"/home/rocha/Proyects/Solidity/F1Bet/ethereum/contracts/F1.sol\":2309:2332  require(_checoWin >= 0) */\n      tag_161\n      jumpi\n      0x00\n      dup1\n      revert\n    tag_161:\n        /* \"/home/rocha/Proyects/Solidity/F1Bet/ethereum/contracts/F1.sol\":2378:2387  _checoWin */\n      dup2\n        /* \"/home/rocha/Proyects/Solidity/F1Bet/ethereum/contracts/F1.sol\":2342:2353  predictions */\n      0x00\n        /* \"/home/rocha/Proyects/Solidity/F1Bet/ethereum/contracts/F1.sol\":2342:2365  predictions[msg.sender] */\n      dup1\n        /* \"/home/rocha/Proyects/Solidity/F1Bet/ethereum/contracts/F1.sol\":2354:2364  msg.sender */\n      caller\n        /* \"/home/rocha/Proyects/Solidity/F1Bet/ethereum/contracts/F1.sol\":2342:2365  predictions[msg.sender] */\n      0xffffffffffffffffffffffffffffffffffffffff\n      and\n      0xffffffffffffffffffffffffffffffffffffffff\n      and\n      dup2\n      mstore\n      0x20\n      add\n      swap1\n      dup2\n      mstore\n      0x20\n      add\n      0x00\n      keccak256\n        /* \"/home/rocha/Proyects/Solidity/F1Bet/ethereum/contracts/F1.sol\":2342:2375  predictions[msg.sender].checoWins */\n      0x02\n      add\n      0x00\n        /* \"/home/rocha/Proyects/Solidity/F1Bet/ethereum/contracts/F1.sol\":2342:2387  predictions[msg.sender].checoWins = _checoWin */\n      0x0100\n      exp\n      dup2\n      sload\n      dup2\n      0xff\n      mul\n      not\n      and\n      swap1\n      dup4\n      0xff\n      and\n      mul\n      or\n      swap1\n      sstore\n      pop\n        /* \"/home/rocha/Proyects/Solidity/F1Bet/ethereum/contracts/F1.sol\":956:1193  {... */\n      pop\n        /* \"/home/rocha/Proyects/Solidity/F1Bet/ethereum/contracts/F1.sol\":2243:2394  function predictChecoWins(uint8 _checoWin)public isOnBet{... */\n      pop\n      jump\t// out\n        /* \"/home/rocha/Proyects/Solidity/F1Bet/ethereum/contracts/F1.sol\":9898:10030  function getContestansCPoints() public view isOnBet returns(uint){... */\n    tag_60:\n        /* \"/home/rocha/Proyects/Solidity/F1Bet/ethereum/contracts/F1.sol\":9958:9962  uint */\n      0x00\n        /* \"/home/rocha/Proyects/Solidity/F1Bet/ethereum/contracts/F1.sol\":966:983  bool isContestant */\n      dup1\n        /* \"/home/rocha/Proyects/Solidity/F1Bet/ethereum/contracts/F1.sol\":998:1005  uint8 i */\n      0x00\n        /* \"/home/rocha/Proyects/Solidity/F1Bet/ethereum/contracts/F1.sol\":993:1145  for (uint8 i = 0; i < contestants.length; ++i) {... */\n    tag_163:\n        /* \"/home/rocha/Proyects/Solidity/F1Bet/ethereum/contracts/F1.sol\":1015:1026  contestants */\n      0x01\n        /* \"/home/rocha/Proyects/Solidity/F1Bet/ethereum/contracts/F1.sol\":1015:1033  contestants.length */\n      dup1\n      sload\n      swap1\n      pop\n        /* \"/home/rocha/Proyects/Solidity/F1Bet/ethereum/contracts/F1.sol\":1011:1012  i */\n      dup2\n        /* \"/home/rocha/Proyects/Solidity/F1Bet/ethereum/contracts/F1.sol\":1011:1033  i < contestants.length */\n      0xff\n      and\n      lt\n        /* \"/home/rocha/Proyects/Solidity/F1Bet/ethereum/contracts/F1.sol\":993:1145  for (uint8 i = 0; i < contestants.length; ++i) {... */\n      iszero\n      tag_164\n      jumpi\n        /* \"/home/rocha/Proyects/Solidity/F1Bet/ethereum/contracts/F1.sol\":1073:1083  msg.sender */\n      caller\n        /* \"/home/rocha/Proyects/Solidity/F1Bet/ethereum/contracts/F1.sol\":1057:1083  contestants[i]==msg.sender */\n      0xffffffffffffffffffffffffffffffffffffffff\n      and\n        /* \"/home/rocha/Proyects/Solidity/F1Bet/ethereum/contracts/F1.sol\":1057:1068  contestants */\n      0x01\n        /* \"/home/rocha/Proyects/Solidity/F1Bet/ethereum/contracts/F1.sol\":1069:1070  i */\n      dup3\n        /* \"/home/rocha/Proyects/Solidity/F1Bet/ethereum/contracts/F1.sol\":1057:1071  contestants[i] */\n      0xff\n      and\n      dup2\n      sload\n      dup2\n      lt\n      tag_166\n      jumpi\n      tag_167\n      tag_103\n      jump\t// in\n    tag_167:\n    tag_166:\n      swap1\n      0x00\n      mstore\n      keccak256(0x00, 0x20)\n      add\n      0x00\n      swap1\n      sload\n      swap1\n      0x0100\n      exp\n      swap1\n      div\n      0xffffffffffffffffffffffffffffffffffffffff\n      and\n        /* \"/home/rocha/Proyects/Solidity/F1Bet/ethereum/contracts/F1.sol\":1057:1083  contestants[i]==msg.sender */\n      0xffffffffffffffffffffffffffffffffffffffff\n      and\n      eq\n        /* \"/home/rocha/Proyects/Solidity/F1Bet/ethereum/contracts/F1.sol\":1054:1135  if(contestants[i]==msg.sender){... */\n      iszero\n      tag_169\n      jumpi\n        /* \"/home/rocha/Proyects/Solidity/F1Bet/ethereum/contracts/F1.sol\":1116:1120  true */\n      0x01\n        /* \"/home/rocha/Proyects/Solidity/F1Bet/ethereum/contracts/F1.sol\":1101:1120  isContestant = true */\n      swap2\n      pop\n        /* \"/home/rocha/Proyects/Solidity/F1Bet/ethereum/contracts/F1.sol\":1054:1135  if(contestants[i]==msg.sender){... */\n    tag_169:\n        /* \"/home/rocha/Proyects/Solidity/F1Bet/ethereum/contracts/F1.sol\":1035:1038  ++i */\n      dup1\n      tag_170\n      swap1\n      tag_107\n      jump\t// in\n    tag_170:\n      swap1\n      pop\n        /* \"/home/rocha/Proyects/Solidity/F1Bet/ethereum/contracts/F1.sol\":993:1145  for (uint8 i = 0; i < contestants.length; ++i) {... */\n      jump(tag_163)\n    tag_164:\n      pop\n        /* \"/home/rocha/Proyects/Solidity/F1Bet/ethereum/contracts/F1.sol\":1162:1174  isContestant */\n      dup1\n        /* \"/home/rocha/Proyects/Solidity/F1Bet/ethereum/contracts/F1.sol\":1154:1175  require(isContestant) */\n      tag_171\n      jumpi\n      0x00\n      dup1\n      revert\n    tag_171:\n        /* \"/home/rocha/Proyects/Solidity/F1Bet/ethereum/contracts/F1.sol\":9981:9992  predictions */\n      0x00\n        /* \"/home/rocha/Proyects/Solidity/F1Bet/ethereum/contracts/F1.sol\":9981:10004  predictions[msg.sender] */\n      dup1\n        /* \"/home/rocha/Proyects/Solidity/F1Bet/ethereum/contracts/F1.sol\":9993:10003  msg.sender */\n      caller\n        /* \"/home/rocha/Proyects/Solidity/F1Bet/ethereum/contracts/F1.sol\":9981:10004  predictions[msg.sender] */\n      0xffffffffffffffffffffffffffffffffffffffff\n      and\n      0xffffffffffffffffffffffffffffffffffffffff\n      and\n      dup2\n      mstore\n      0x20\n      add\n      swap1\n      dup2\n      mstore\n      0x20\n      add\n      0x00\n      keccak256\n        /* \"/home/rocha/Proyects/Solidity/F1Bet/ethereum/contracts/F1.sol\":9981:10023  predictions[msg.sender].constructorsPoints */\n      0x03\n      add\n      sload\n        /* \"/home/rocha/Proyects/Solidity/F1Bet/ethereum/contracts/F1.sol\":9973:10023  return  predictions[msg.sender].constructorsPoints */\n      swap2\n      pop\n        /* \"/home/rocha/Proyects/Solidity/F1Bet/ethereum/contracts/F1.sol\":956:1193  {... */\n      pop\n        /* \"/home/rocha/Proyects/Solidity/F1Bet/ethereum/contracts/F1.sol\":9898:10030  function getContestansCPoints() public view isOnBet returns(uint){... */\n      swap1\n      jump\t// out\n        /* \"/home/rocha/Proyects/Solidity/F1Bet/ethereum/contracts/F1.sol\":9428:9698  function acceptWinner() public payable isOnBet{... */\n    tag_63:\n        /* \"/home/rocha/Proyects/Solidity/F1Bet/ethereum/contracts/F1.sol\":966:983  bool isContestant */\n      0x00\n        /* \"/home/rocha/Proyects/Solidity/F1Bet/ethereum/contracts/F1.sol\":998:1005  uint8 i */\n      dup1\n        /* \"/home/rocha/Proyects/Solidity/F1Bet/ethereum/contracts/F1.sol\":1008:1009  0 */\n      0x00\n        /* \"/home/rocha/Proyects/Solidity/F1Bet/ethereum/contracts/F1.sol\":998:1009  uint8 i = 0 */\n      swap1\n      pop\n        /* \"/home/rocha/Proyects/Solidity/F1Bet/ethereum/contracts/F1.sol\":993:1145  for (uint8 i = 0; i < contestants.length; ++i) {... */\n    tag_174:\n        /* \"/home/rocha/Proyects/Solidity/F1Bet/ethereum/contracts/F1.sol\":1015:1026  contestants */\n      0x01\n        /* \"/home/rocha/Proyects/Solidity/F1Bet/ethereum/contracts/F1.sol\":1015:1033  contestants.length */\n      dup1\n      sload\n      swap1\n      pop\n        /* \"/home/rocha/Proyects/Solidity/F1Bet/ethereum/contracts/F1.sol\":1011:1012  i */\n      dup2\n        /* \"/home/rocha/Proyects/Solidity/F1Bet/ethereum/contracts/F1.sol\":1011:1033  i < contestants.length */\n      0xff\n      and\n      lt\n        /* \"/home/rocha/Proyects/Solidity/F1Bet/ethereum/contracts/F1.sol\":993:1145  for (uint8 i = 0; i < contestants.length; ++i) {... */\n      iszero\n      tag_175\n      jumpi\n        /* \"/home/rocha/Proyects/Solidity/F1Bet/ethereum/contracts/F1.sol\":1073:1083  msg.sender */\n      caller\n        /* \"/home/rocha/Proyects/Solidity/F1Bet/ethereum/contracts/F1.sol\":1057:1083  contestants[i]==msg.sender */\n      0xffffffffffffffffffffffffffffffffffffffff\n      and\n        /* \"/home/rocha/Proyects/Solidity/F1Bet/ethereum/contracts/F1.sol\":1057:1068  contestants */\n      0x01\n        /* \"/home/rocha/Proyects/Solidity/F1Bet/ethereum/contracts/F1.sol\":1069:1070  i */\n      dup3\n        /* \"/home/rocha/Proyects/Solidity/F1Bet/ethereum/contracts/F1.sol\":1057:1071  contestants[i] */\n      0xff\n      and\n      dup2\n      sload\n      dup2\n      lt\n      tag_177\n      jumpi\n      tag_178\n      tag_103\n      jump\t// in\n    tag_178:\n    tag_177:\n      swap1\n      0x00\n      mstore\n      keccak256(0x00, 0x20)\n      add\n      0x00\n      swap1\n      sload\n      swap1\n      0x0100\n      exp\n      swap1\n      div\n      0xffffffffffffffffffffffffffffffffffffffff\n      and\n        /* \"/home/rocha/Proyects/Solidity/F1Bet/ethereum/contracts/F1.sol\":1057:1083  contestants[i]==msg.sender */\n      0xffffffffffffffffffffffffffffffffffffffff\n      and\n      eq\n        /* \"/home/rocha/Proyects/Solidity/F1Bet/ethereum/contracts/F1.sol\":1054:1135  if(contestants[i]==msg.sender){... */\n      iszero\n      tag_180\n      jumpi\n        /* \"/home/rocha/Proyects/Solidity/F1Bet/ethereum/contracts/F1.sol\":1116:1120  true */\n      0x01\n        /* \"/home/rocha/Proyects/Solidity/F1Bet/ethereum/contracts/F1.sol\":1101:1120  isContestant = true */\n      swap2\n      pop\n        /* \"/home/rocha/Proyects/Solidity/F1Bet/ethereum/contracts/F1.sol\":1054:1135  if(contestants[i]==msg.sender){... */\n    tag_180:\n        /* \"/home/rocha/Proyects/Solidity/F1Bet/ethereum/contracts/F1.sol\":1035:1038  ++i */\n      dup1\n      tag_181\n      swap1\n      tag_107\n      jump\t// in\n    tag_181:\n      swap1\n      pop\n        /* \"/home/rocha/Proyects/Solidity/F1Bet/ethereum/contracts/F1.sol\":993:1145  for (uint8 i = 0; i < contestants.length; ++i) {... */\n      jump(tag_174)\n    tag_175:\n      pop\n        /* \"/home/rocha/Proyects/Solidity/F1Bet/ethereum/contracts/F1.sol\":1162:1174  isContestant */\n      dup1\n        /* \"/home/rocha/Proyects/Solidity/F1Bet/ethereum/contracts/F1.sol\":1154:1175  require(isContestant) */\n      tag_182\n      jumpi\n      0x00\n      dup1\n      revert\n    tag_182:\n        /* \"/home/rocha/Proyects/Solidity/F1Bet/ethereum/contracts/F1.sol\":9516:9521  false */\n      0x00\n        /* \"/home/rocha/Proyects/Solidity/F1Bet/ethereum/contracts/F1.sol\":9492:9521  hasVoted[msg.sender] == false */\n      iszero\n      iszero\n        /* \"/home/rocha/Proyects/Solidity/F1Bet/ethereum/contracts/F1.sol\":9492:9500  hasVoted */\n      0x08\n        /* \"/home/rocha/Proyects/Solidity/F1Bet/ethereum/contracts/F1.sol\":9492:9512  hasVoted[msg.sender] */\n      0x00\n        /* \"/home/rocha/Proyects/Solidity/F1Bet/ethereum/contracts/F1.sol\":9501:9511  msg.sender */\n      caller\n        /* \"/home/rocha/Proyects/Solidity/F1Bet/ethereum/contracts/F1.sol\":9492:9512  hasVoted[msg.sender] */\n      0xffffffffffffffffffffffffffffffffffffffff\n      and\n      0xffffffffffffffffffffffffffffffffffffffff\n      and\n      dup2\n      mstore\n      0x20\n      add\n      swap1\n      dup2\n      mstore\n      0x20\n      add\n      0x00\n      keccak256\n      0x00\n      swap1\n      sload\n      swap1\n      0x0100\n      exp\n      swap1\n      div\n      0xff\n      and\n        /* \"/home/rocha/Proyects/Solidity/F1Bet/ethereum/contracts/F1.sol\":9492:9521  hasVoted[msg.sender] == false */\n      iszero\n      iszero\n      eq\n        /* \"/home/rocha/Proyects/Solidity/F1Bet/ethereum/contracts/F1.sol\":9484:9522  require(hasVoted[msg.sender] == false) */\n      tag_184\n      jumpi\n      0x00\n      dup1\n      revert\n    tag_184:\n        /* \"/home/rocha/Proyects/Solidity/F1Bet/ethereum/contracts/F1.sol\":9545:9546  1 */\n      0x01\n        /* \"/home/rocha/Proyects/Solidity/F1Bet/ethereum/contracts/F1.sol\":9532:9541  approvers */\n      0x09\n      0x00\n        /* \"/home/rocha/Proyects/Solidity/F1Bet/ethereum/contracts/F1.sol\":9532:9546  approvers += 1 */\n      dup3\n      dup3\n      sload\n      tag_185\n      swap2\n      swap1\n      tag_186\n      jump\t// in\n    tag_185:\n      swap3\n      pop\n      pop\n      dup2\n      swap1\n      sstore\n      pop\n        /* \"/home/rocha/Proyects/Solidity/F1Bet/ethereum/contracts/F1.sol\":9579:9583  true */\n      0x01\n        /* \"/home/rocha/Proyects/Solidity/F1Bet/ethereum/contracts/F1.sol\":9556:9564  hasVoted */\n      0x08\n        /* \"/home/rocha/Proyects/Solidity/F1Bet/ethereum/contracts/F1.sol\":9556:9576  hasVoted[msg.sender] */\n      0x00\n        /* \"/home/rocha/Proyects/Solidity/F1Bet/ethereum/contracts/F1.sol\":9565:9575  msg.sender */\n      caller\n        /* \"/home/rocha/Proyects/Solidity/F1Bet/ethereum/contracts/F1.sol\":9556:9576  hasVoted[msg.sender] */\n      0xffffffffffffffffffffffffffffffffffffffff\n      and\n      0xffffffffffffffffffffffffffffffffffffffff\n      and\n      dup2\n      mstore\n      0x20\n      add\n      swap1\n      dup2\n      mstore\n      0x20\n      add\n      0x00\n      keccak256\n      0x00\n        /* \"/home/rocha/Proyects/Solidity/F1Bet/ethereum/contracts/F1.sol\":9556:9583  hasVoted[msg.sender] = true */\n      0x0100\n      exp\n      dup2\n      sload\n      dup2\n      0xff\n      mul\n      not\n      and\n      swap1\n      dup4\n      iszero\n      iszero\n      mul\n      or\n      swap1\n      sstore\n      pop\n        /* \"/home/rocha/Proyects/Solidity/F1Bet/ethereum/contracts/F1.sol\":9627:9628  2 */\n      0x02\n        /* \"/home/rocha/Proyects/Solidity/F1Bet/ethereum/contracts/F1.sol\":9608:9619  contestants */\n      0x01\n        /* \"/home/rocha/Proyects/Solidity/F1Bet/ethereum/contracts/F1.sol\":9608:9626  contestants.length */\n      dup1\n      sload\n      swap1\n      pop\n        /* \"/home/rocha/Proyects/Solidity/F1Bet/ethereum/contracts/F1.sol\":9608:9628  contestants.length/2 */\n      tag_187\n      swap2\n      swap1\n      tag_188\n      jump\t// in\n    tag_187:\n        /* \"/home/rocha/Proyects/Solidity/F1Bet/ethereum/contracts/F1.sol\":9596:9605  approvers */\n      sload(0x09)\n        /* \"/home/rocha/Proyects/Solidity/F1Bet/ethereum/contracts/F1.sol\":9596:9628  approvers > contestants.length/2 */\n      gt\n        /* \"/home/rocha/Proyects/Solidity/F1Bet/ethereum/contracts/F1.sol\":9593:9692  if(approvers > contestants.length/2){... */\n      iszero\n      tag_189\n      jumpi\n        /* \"/home/rocha/Proyects/Solidity/F1Bet/ethereum/contracts/F1.sol\":9643:9649  winner */\n      0x02\n      0x00\n      swap1\n      sload\n      swap1\n      0x0100\n      exp\n      swap1\n      div\n      0xffffffffffffffffffffffffffffffffffffffff\n      and\n        /* \"/home/rocha/Proyects/Solidity/F1Bet/ethereum/contracts/F1.sol\":9643:9658  winner.transfer */\n      0xffffffffffffffffffffffffffffffffffffffff\n      and\n        /* \"/home/rocha/Proyects/Solidity/F1Bet/ethereum/contracts/F1.sol\":9643:9681  winner.transfer(address(this).balance) */\n      0x08fc\n        /* \"/home/rocha/Proyects/Solidity/F1Bet/ethereum/contracts/F1.sol\":9659:9680  address(this).balance */\n      selfbalance\n        /* \"/home/rocha/Proyects/Solidity/F1Bet/ethereum/contracts/F1.sol\":9643:9681  winner.transfer(address(this).balance) */\n      swap1\n      dup2\n      iszero\n      mul\n      swap1\n      mload(0x40)\n      0x00\n      mload(0x40)\n      dup1\n      dup4\n      sub\n      dup2\n      dup6\n      dup9\n      dup9\n      call\n      swap4\n      pop\n      pop\n      pop\n      pop\n      iszero\n      dup1\n      iszero\n      tag_191\n      jumpi\n      returndatasize\n      0x00\n      dup1\n      returndatacopy\n      revert(0x00, returndatasize)\n    tag_191:\n      pop\n        /* \"/home/rocha/Proyects/Solidity/F1Bet/ethereum/contracts/F1.sol\":9593:9692  if(approvers > contestants.length/2){... */\n    tag_189:\n        /* \"/home/rocha/Proyects/Solidity/F1Bet/ethereum/contracts/F1.sol\":956:1193  {... */\n      pop\n        /* \"/home/rocha/Proyects/Solidity/F1Bet/ethereum/contracts/F1.sol\":9428:9698  function acceptWinner() public payable isOnBet{... */\n      jump\t// out\n        /* \"/home/rocha/Proyects/Solidity/F1Bet/ethereum/contracts/F1.sol\":10167:10293  function getContestansChPoints() public view isOnBet returns(uint){... */\n    tag_66:\n        /* \"/home/rocha/Proyects/Solidity/F1Bet/ethereum/contracts/F1.sol\":10228:10232  uint */\n      0x00\n        /* \"/home/rocha/Proyects/Solidity/F1Bet/ethereum/contracts/F1.sol\":966:983  bool isContestant */\n      dup1\n        /* \"/home/rocha/Proyects/Solidity/F1Bet/ethereum/contracts/F1.sol\":998:1005  uint8 i */\n      0x00\n        /* \"/home/rocha/Proyects/Solidity/F1Bet/ethereum/contracts/F1.sol\":993:1145  for (uint8 i = 0; i < contestants.length; ++i) {... */\n    tag_193:\n        /* \"/home/rocha/Proyects/Solidity/F1Bet/ethereum/contracts/F1.sol\":1015:1026  contestants */\n      0x01\n        /* \"/home/rocha/Proyects/Solidity/F1Bet/ethereum/contracts/F1.sol\":1015:1033  contestants.length */\n      dup1\n      sload\n      swap1\n      pop\n        /* \"/home/rocha/Proyects/Solidity/F1Bet/ethereum/contracts/F1.sol\":1011:1012  i */\n      dup2\n        /* \"/home/rocha/Proyects/Solidity/F1Bet/ethereum/contracts/F1.sol\":1011:1033  i < contestants.length */\n      0xff\n      and\n      lt\n        /* \"/home/rocha/Proyects/Solidity/F1Bet/ethereum/contracts/F1.sol\":993:1145  for (uint8 i = 0; i < contestants.length; ++i) {... */\n      iszero\n      tag_194\n      jumpi\n        /* \"/home/rocha/Proyects/Solidity/F1Bet/ethereum/contracts/F1.sol\":1073:1083  msg.sender */\n      caller\n        /* \"/home/rocha/Proyects/Solidity/F1Bet/ethereum/contracts/F1.sol\":1057:1083  contestants[i]==msg.sender */\n      0xffffffffffffffffffffffffffffffffffffffff\n      and\n        /* \"/home/rocha/Proyects/Solidity/F1Bet/ethereum/contracts/F1.sol\":1057:1068  contestants */\n      0x01\n        /* \"/home/rocha/Proyects/Solidity/F1Bet/ethereum/contracts/F1.sol\":1069:1070  i */\n      dup3\n        /* \"/home/rocha/Proyects/Solidity/F1Bet/ethereum/contracts/F1.sol\":1057:1071  contestants[i] */\n      0xff\n      and\n      dup2\n      sload\n      dup2\n      lt\n      tag_196\n      jumpi\n      tag_197\n      tag_103\n      jump\t// in\n    tag_197:\n    tag_196:\n      swap1\n      0x00\n      mstore\n      keccak256(0x00, 0x20)\n      add\n      0x00\n      swap1\n      sload\n      swap1\n      0x0100\n      exp\n      swap1\n      div\n      0xffffffffffffffffffffffffffffffffffffffff\n      and\n        /* \"/home/rocha/Proyects/Solidity/F1Bet/ethereum/contracts/F1.sol\":1057:1083  contestants[i]==msg.sender */\n      0xffffffffffffffffffffffffffffffffffffffff\n      and\n      eq\n        /* \"/home/rocha/Proyects/Solidity/F1Bet/ethereum/contracts/F1.sol\":1054:1135  if(contestants[i]==msg.sender){... */\n      iszero\n      tag_199\n      jumpi\n        /* \"/home/rocha/Proyects/Solidity/F1Bet/ethereum/contracts/F1.sol\":1116:1120  true */\n      0x01\n        /* \"/home/rocha/Proyects/Solidity/F1Bet/ethereum/contracts/F1.sol\":1101:1120  isContestant = true */\n      swap2\n      pop\n        /* \"/home/rocha/Proyects/Solidity/F1Bet/ethereum/contracts/F1.sol\":1054:1135  if(contestants[i]==msg.sender){... */\n    tag_199:\n        /* \"/home/rocha/Proyects/Solidity/F1Bet/ethereum/contracts/F1.sol\":1035:1038  ++i */\n      dup1\n      tag_200\n      swap1\n      tag_107\n      jump\t// in\n    tag_200:\n      swap1\n      pop\n        /* \"/home/rocha/Proyects/Solidity/F1Bet/ethereum/contracts/F1.sol\":993:1145  for (uint8 i = 0; i < contestants.length; ++i) {... */\n      jump(tag_193)\n    tag_194:\n      pop\n        /* \"/home/rocha/Proyects/Solidity/F1Bet/ethereum/contracts/F1.sol\":1162:1174  isContestant */\n      dup1\n        /* \"/home/rocha/Proyects/Solidity/F1Bet/ethereum/contracts/F1.sol\":1154:1175  require(isContestant) */\n      tag_201\n      jumpi\n      0x00\n      dup1\n      revert\n    tag_201:\n        /* \"/home/rocha/Proyects/Solidity/F1Bet/ethereum/contracts/F1.sol\":10251:10262  predictions */\n      0x00\n        /* \"/home/rocha/Proyects/Solidity/F1Bet/ethereum/contracts/F1.sol\":10251:10274  predictions[msg.sender] */\n      dup1\n        /* \"/home/rocha/Proyects/Solidity/F1Bet/ethereum/contracts/F1.sol\":10263:10273  msg.sender */\n      caller\n        /* \"/home/rocha/Proyects/Solidity/F1Bet/ethereum/contracts/F1.sol\":10251:10274  predictions[msg.sender] */\n      0xffffffffffffffffffffffffffffffffffffffff\n      and\n      0xffffffffffffffffffffffffffffffffffffffff\n      and\n      dup2\n      mstore\n      0x20\n      add\n      swap1\n      dup2\n      mstore\n      0x20\n      add\n      0x00\n      keccak256\n        /* \"/home/rocha/Proyects/Solidity/F1Bet/ethereum/contracts/F1.sol\":10251:10286  predictions[msg.sender].checoPoints */\n      0x05\n      add\n      sload\n        /* \"/home/rocha/Proyects/Solidity/F1Bet/ethereum/contracts/F1.sol\":10243:10286  return  predictions[msg.sender].checoPoints */\n      swap2\n      pop\n        /* \"/home/rocha/Proyects/Solidity/F1Bet/ethereum/contracts/F1.sol\":956:1193  {... */\n      pop\n        /* \"/home/rocha/Proyects/Solidity/F1Bet/ethereum/contracts/F1.sol\":10167:10293  function getContestansChPoints() public view isOnBet returns(uint){... */\n      swap1\n      jump\t// out\n        /* \"/home/rocha/Proyects/Solidity/F1Bet/ethereum/contracts/F1.sol\":2068:2238  function predictDriversTable(string[] memory _driversP)public isOnBet{... */\n    tag_71:\n        /* \"/home/rocha/Proyects/Solidity/F1Bet/ethereum/contracts/F1.sol\":966:983  bool isContestant */\n      0x00\n        /* \"/home/rocha/Proyects/Solidity/F1Bet/ethereum/contracts/F1.sol\":998:1005  uint8 i */\n      dup1\n        /* \"/home/rocha/Proyects/Solidity/F1Bet/ethereum/contracts/F1.sol\":1008:1009  0 */\n      0x00\n        /* \"/home/rocha/Proyects/Solidity/F1Bet/ethereum/contracts/F1.sol\":998:1009  uint8 i = 0 */\n      swap1\n      pop\n        /* \"/home/rocha/Proyects/Solidity/F1Bet/ethereum/contracts/F1.sol\":993:1145  for (uint8 i = 0; i < contestants.length; ++i) {... */\n    tag_204:\n        /* \"/home/rocha/Proyects/Solidity/F1Bet/ethereum/contracts/F1.sol\":1015:1026  contestants */\n      0x01\n        /* \"/home/rocha/Proyects/Solidity/F1Bet/ethereum/contracts/F1.sol\":1015:1033  contestants.length */\n      dup1\n      sload\n      swap1\n      pop\n        /* \"/home/rocha/Proyects/Solidity/F1Bet/ethereum/contracts/F1.sol\":1011:1012  i */\n      dup2\n        /* \"/home/rocha/Proyects/Solidity/F1Bet/ethereum/contracts/F1.sol\":1011:1033  i < contestants.length */\n      0xff\n      and\n      lt\n        /* \"/home/rocha/Proyects/Solidity/F1Bet/ethereum/contracts/F1.sol\":993:1145  for (uint8 i = 0; i < contestants.length; ++i) {... */\n      iszero\n      tag_205\n      jumpi\n        /* \"/home/rocha/Proyects/Solidity/F1Bet/ethereum/contracts/F1.sol\":1073:1083  msg.sender */\n      caller\n        /* \"/home/rocha/Proyects/Solidity/F1Bet/ethereum/contracts/F1.sol\":1057:1083  contestants[i]==msg.sender */\n      0xffffffffffffffffffffffffffffffffffffffff\n      and\n        /* \"/home/rocha/Proyects/Solidity/F1Bet/ethereum/contracts/F1.sol\":1057:1068  contestants */\n      0x01\n        /* \"/home/rocha/Proyects/Solidity/F1Bet/ethereum/contracts/F1.sol\":1069:1070  i */\n      dup3\n        /* \"/home/rocha/Proyects/Solidity/F1Bet/ethereum/contracts/F1.sol\":1057:1071  contestants[i] */\n      0xff\n      and\n      dup2\n      sload\n      dup2\n      lt\n      tag_207\n      jumpi\n      tag_208\n      tag_103\n      jump\t// in\n    tag_208:\n    tag_207:\n      swap1\n      0x00\n      mstore\n      keccak256(0x00, 0x20)\n      add\n      0x00\n      swap1\n      sload\n      swap1\n      0x0100\n      exp\n      swap1\n      div\n      0xffffffffffffffffffffffffffffffffffffffff\n      and\n        /* \"/home/rocha/Proyects/Solidity/F1Bet/ethereum/contracts/F1.sol\":1057:1083  contestants[i]==msg.sender */\n      0xffffffffffffffffffffffffffffffffffffffff\n      and\n      eq\n        /* \"/home/rocha/Proyects/Solidity/F1Bet/ethereum/contracts/F1.sol\":1054:1135  if(contestants[i]==msg.sender){... */\n      iszero\n      tag_210\n      jumpi\n        /* \"/home/rocha/Proyects/Solidity/F1Bet/ethereum/contracts/F1.sol\":1116:1120  true */\n      0x01\n        /* \"/home/rocha/Proyects/Solidity/F1Bet/ethereum/contracts/F1.sol\":1101:1120  isContestant = true */\n      swap2\n      pop\n        /* \"/home/rocha/Proyects/Solidity/F1Bet/ethereum/contracts/F1.sol\":1054:1135  if(contestants[i]==msg.sender){... */\n    tag_210:\n        /* \"/home/rocha/Proyects/Solidity/F1Bet/ethereum/contracts/F1.sol\":1035:1038  ++i */\n      dup1\n      tag_211\n      swap1\n      tag_107\n      jump\t// in\n    tag_211:\n      swap1\n      pop\n        /* \"/home/rocha/Proyects/Solidity/F1Bet/ethereum/contracts/F1.sol\":993:1145  for (uint8 i = 0; i < contestants.length; ++i) {... */\n      jump(tag_204)\n    tag_205:\n      pop\n        /* \"/home/rocha/Proyects/Solidity/F1Bet/ethereum/contracts/F1.sol\":1162:1174  isContestant */\n      dup1\n        /* \"/home/rocha/Proyects/Solidity/F1Bet/ethereum/contracts/F1.sol\":1154:1175  require(isContestant) */\n      tag_212\n      jumpi\n      0x00\n      dup1\n      revert\n    tag_212:\n        /* \"/home/rocha/Proyects/Solidity/F1Bet/ethereum/contracts/F1.sol\":2175:2177  20 */\n      0x14\n        /* \"/home/rocha/Proyects/Solidity/F1Bet/ethereum/contracts/F1.sol\":2155:2164  _driversP */\n      dup3\n        /* \"/home/rocha/Proyects/Solidity/F1Bet/ethereum/contracts/F1.sol\":2155:2171  _driversP.length */\n      mload\n        /* \"/home/rocha/Proyects/Solidity/F1Bet/ethereum/contracts/F1.sol\":2155:2177  _driversP.length == 20 */\n      eq\n        /* \"/home/rocha/Proyects/Solidity/F1Bet/ethereum/contracts/F1.sol\":2147:2178  require(_driversP.length == 20) */\n      tag_214\n      jumpi\n      0x00\n      dup1\n      revert\n    tag_214:\n        /* \"/home/rocha/Proyects/Solidity/F1Bet/ethereum/contracts/F1.sol\":2222:2231  _driversP */\n      dup2\n        /* \"/home/rocha/Proyects/Solidity/F1Bet/ethereum/contracts/F1.sol\":2188:2199  predictions */\n      0x00\n        /* \"/home/rocha/Proyects/Solidity/F1Bet/ethereum/contracts/F1.sol\":2188:2211  predictions[msg.sender] */\n      dup1\n        /* \"/home/rocha/Proyects/Solidity/F1Bet/ethereum/contracts/F1.sol\":2200:2210  msg.sender */\n      caller\n        /* \"/home/rocha/Proyects/Solidity/F1Bet/ethereum/contracts/F1.sol\":2188:2211  predictions[msg.sender] */\n      0xffffffffffffffffffffffffffffffffffffffff\n      and\n      0xffffffffffffffffffffffffffffffffffffffff\n      and\n      dup2\n      mstore\n      0x20\n      add\n      swap1\n      dup2\n      mstore\n      0x20\n      add\n      0x00\n      keccak256\n        /* \"/home/rocha/Proyects/Solidity/F1Bet/ethereum/contracts/F1.sol\":2188:2219  predictions[msg.sender].drivers */\n      0x01\n      add\n        /* \"/home/rocha/Proyects/Solidity/F1Bet/ethereum/contracts/F1.sol\":2188:2231  predictions[msg.sender].drivers = _driversP */\n      swap1\n      dup1\n      mload\n      swap1\n      0x20\n      add\n      swap1\n      tag_215\n      swap3\n      swap2\n      swap1\n      tag_112\n      jump\t// in\n    tag_215:\n      pop\n        /* \"/home/rocha/Proyects/Solidity/F1Bet/ethereum/contracts/F1.sol\":956:1193  {... */\n      pop\n        /* \"/home/rocha/Proyects/Solidity/F1Bet/ethereum/contracts/F1.sol\":2068:2238  function predictDriversTable(string[] memory _driversP)public isOnBet{... */\n      pop\n      jump\t// out\n        /* \"/home/rocha/Proyects/Solidity/F1Bet/ethereum/contracts/F1.sol\":1605:1756  function enterBet()  public payable notOnBet{... */\n    tag_73:\n        /* \"/home/rocha/Proyects/Solidity/F1Bet/ethereum/contracts/F1.sol\":746:753  uint8 i */\n      0x00\n        /* \"/home/rocha/Proyects/Solidity/F1Bet/ethereum/contracts/F1.sol\":741:916  for (uint8 i = 0; i < contestants.length; ++i) {... */\n    tag_217:\n        /* \"/home/rocha/Proyects/Solidity/F1Bet/ethereum/contracts/F1.sol\":763:774  contestants */\n      0x01\n        /* \"/home/rocha/Proyects/Solidity/F1Bet/ethereum/contracts/F1.sol\":763:781  contestants.length */\n      dup1\n      sload\n      swap1\n      pop\n        /* \"/home/rocha/Proyects/Solidity/F1Bet/ethereum/contracts/F1.sol\":759:760  i */\n      dup2\n        /* \"/home/rocha/Proyects/Solidity/F1Bet/ethereum/contracts/F1.sol\":759:781  i < contestants.length */\n      0xff\n      and\n      lt\n        /* \"/home/rocha/Proyects/Solidity/F1Bet/ethereum/contracts/F1.sol\":741:916  for (uint8 i = 0; i < contestants.length; ++i) {... */\n      iszero\n      tag_218\n      jumpi\n        /* \"/home/rocha/Proyects/Solidity/F1Bet/ethereum/contracts/F1.sol\":821:831  msg.sender */\n      caller\n        /* \"/home/rocha/Proyects/Solidity/F1Bet/ethereum/contracts/F1.sol\":805:831  contestants[i]==msg.sender */\n      0xffffffffffffffffffffffffffffffffffffffff\n      and\n        /* \"/home/rocha/Proyects/Solidity/F1Bet/ethereum/contracts/F1.sol\":805:816  contestants */\n      0x01\n        /* \"/home/rocha/Proyects/Solidity/F1Bet/ethereum/contracts/F1.sol\":817:818  i */\n      dup3\n        /* \"/home/rocha/Proyects/Solidity/F1Bet/ethereum/contracts/F1.sol\":805:819  contestants[i] */\n      0xff\n      and\n      dup2\n      sload\n      dup2\n      lt\n      tag_220\n      jumpi\n      tag_221\n      tag_103\n      jump\t// in\n    tag_221:\n    tag_220:\n      swap1\n      0x00\n      mstore\n      keccak256(0x00, 0x20)\n      add\n      0x00\n      swap1\n      sload\n      swap1\n      0x0100\n      exp\n      swap1\n      div\n      0xffffffffffffffffffffffffffffffffffffffff\n      and\n        /* \"/home/rocha/Proyects/Solidity/F1Bet/ethereum/contracts/F1.sol\":805:831  contestants[i]==msg.sender */\n      0xffffffffffffffffffffffffffffffffffffffff\n      and\n      eq\n        /* \"/home/rocha/Proyects/Solidity/F1Bet/ethereum/contracts/F1.sol\":802:906  if(contestants[i]==msg.sender){... */\n      iszero\n      tag_223\n      jumpi\n        /* \"/home/rocha/Proyects/Solidity/F1Bet/ethereum/contracts/F1.sol\":850:891  revert(\"Contestant is alrady in the bet\") */\n      mload(0x40)\n      0x08c379a000000000000000000000000000000000000000000000000000000000\n      dup2\n      mstore\n      0x04\n      add\n      tag_224\n      swap1\n      tag_225\n      jump\t// in\n    tag_224:\n      mload(0x40)\n      dup1\n      swap2\n      sub\n      swap1\n      revert\n        /* \"/home/rocha/Proyects/Solidity/F1Bet/ethereum/contracts/F1.sol\":802:906  if(contestants[i]==msg.sender){... */\n    tag_223:\n        /* \"/home/rocha/Proyects/Solidity/F1Bet/ethereum/contracts/F1.sol\":783:786  ++i */\n      dup1\n      tag_226\n      swap1\n      tag_107\n      jump\t// in\n    tag_226:\n      swap1\n      pop\n        /* \"/home/rocha/Proyects/Solidity/F1Bet/ethereum/contracts/F1.sol\":741:916  for (uint8 i = 0; i < contestants.length; ++i) {... */\n      jump(tag_217)\n    tag_218:\n      pop\n        /* \"/home/rocha/Proyects/Solidity/F1Bet/ethereum/contracts/F1.sol\":1679:1682  bet */\n      sload(0x07)\n        /* \"/home/rocha/Proyects/Solidity/F1Bet/ethereum/contracts/F1.sol\":1667:1676  msg.value */\n      callvalue\n        /* \"/home/rocha/Proyects/Solidity/F1Bet/ethereum/contracts/F1.sol\":1667:1682  msg.value > bet */\n      gt\n        /* \"/home/rocha/Proyects/Solidity/F1Bet/ethereum/contracts/F1.sol\":1659:1683  require(msg.value > bet) */\n      tag_228\n      jumpi\n      0x00\n      dup1\n      revert\n    tag_228:\n        /* \"/home/rocha/Proyects/Solidity/F1Bet/ethereum/contracts/F1.sol\":1702:1711  msg.value */\n      callvalue\n        /* \"/home/rocha/Proyects/Solidity/F1Bet/ethereum/contracts/F1.sol\":1693:1698  price */\n      0x03\n      0x00\n        /* \"/home/rocha/Proyects/Solidity/F1Bet/ethereum/contracts/F1.sol\":1693:1711  price += msg.value */\n      dup3\n      dup3\n      sload\n      tag_229\n      swap2\n      swap1\n      tag_186\n      jump\t// in\n    tag_229:\n      swap3\n      pop\n      pop\n      dup2\n      swap1\n      sstore\n      pop\n        /* \"/home/rocha/Proyects/Solidity/F1Bet/ethereum/contracts/F1.sol\":1721:1732  contestants */\n      0x01\n        /* \"/home/rocha/Proyects/Solidity/F1Bet/ethereum/contracts/F1.sol\":1738:1748  msg.sender */\n      caller\n        /* \"/home/rocha/Proyects/Solidity/F1Bet/ethereum/contracts/F1.sol\":1721:1749  contestants.push(msg.sender) */\n      swap1\n      dup1\n      0x01\n      dup2\n      sload\n      add\n      dup1\n      dup3\n      sstore\n      dup1\n      swap2\n      pop\n      pop\n      0x01\n      swap1\n      sub\n      swap1\n      0x00\n      mstore\n      keccak256(0x00, 0x20)\n      add\n      0x00\n      swap1\n      swap2\n      swap1\n      swap2\n      swap1\n      swap2\n      0x0100\n      exp\n      dup2\n      sload\n      dup2\n      0xffffffffffffffffffffffffffffffffffffffff\n      mul\n      not\n      and\n      swap1\n      dup4\n      0xffffffffffffffffffffffffffffffffffffffff\n      and\n      mul\n      or\n      swap1\n      sstore\n      pop\n        /* \"/home/rocha/Proyects/Solidity/F1Bet/ethereum/contracts/F1.sol\":1605:1756  function enterBet()  public payable notOnBet{... */\n      jump\t// out\n        /* \"/home/rocha/Proyects/Solidity/F1Bet/ethereum/contracts/F1.sol\":1762:1861  function getContestants() public view returns( address[] memory){... */\n    tag_76:\n        /* \"/home/rocha/Proyects/Solidity/F1Bet/ethereum/contracts/F1.sol\":1809:1825  address[] memory */\n      0x60\n        /* \"/home/rocha/Proyects/Solidity/F1Bet/ethereum/contracts/F1.sol\":1843:1854  contestants */\n      0x01\n        /* \"/home/rocha/Proyects/Solidity/F1Bet/ethereum/contracts/F1.sol\":1836:1854  return contestants */\n      dup1\n      sload\n      dup1\n      0x20\n      mul\n      0x20\n      add\n      mload(0x40)\n      swap1\n      dup2\n      add\n      0x40\n      mstore\n      dup1\n      swap3\n      swap2\n      swap1\n      dup2\n      dup2\n      mstore\n      0x20\n      add\n      dup3\n      dup1\n      sload\n      dup1\n      iszero\n      tag_232\n      jumpi\n      0x20\n      mul\n      dup3\n      add\n      swap2\n      swap1\n      0x00\n      mstore\n      keccak256(0x00, 0x20)\n      swap1\n    tag_233:\n      dup2\n      0x00\n      swap1\n      sload\n      swap1\n      0x0100\n      exp\n      swap1\n      div\n      0xffffffffffffffffffffffffffffffffffffffff\n      and\n      0xffffffffffffffffffffffffffffffffffffffff\n      and\n      dup2\n      mstore\n      0x20\n      add\n      swap1\n      0x01\n      add\n      swap1\n      dup1\n      dup4\n      gt\n      tag_233\n      jumpi\n    tag_232:\n      pop\n      pop\n      pop\n      pop\n      pop\n      swap1\n      pop\n        /* \"/home/rocha/Proyects/Solidity/F1Bet/ethereum/contracts/F1.sol\":1762:1861  function getContestants() public view returns( address[] memory){... */\n      swap1\n      jump\t// out\n        /* \"/home/rocha/Proyects/Solidity/F1Bet/ethereum/contracts/F1.sol\":1283:1404  function setConstructorsTable(string[] memory _constructors)public isManager{... */\n    tag_82:\n        /* \"/home/rocha/Proyects/Solidity/F1Bet/ethereum/contracts/F1.sol\":1251:1258  manager */\n      0x06\n      0x01\n      swap1\n      sload\n      swap1\n      0x0100\n      exp\n      swap1\n      div\n      0xffffffffffffffffffffffffffffffffffffffff\n      and\n        /* \"/home/rocha/Proyects/Solidity/F1Bet/ethereum/contracts/F1.sol\":1237:1258  msg.sender == manager */\n      0xffffffffffffffffffffffffffffffffffffffff\n      and\n        /* \"/home/rocha/Proyects/Solidity/F1Bet/ethereum/contracts/F1.sol\":1237:1247  msg.sender */\n      caller\n        /* \"/home/rocha/Proyects/Solidity/F1Bet/ethereum/contracts/F1.sol\":1237:1258  msg.sender == manager */\n      0xffffffffffffffffffffffffffffffffffffffff\n      and\n      eq\n        /* \"/home/rocha/Proyects/Solidity/F1Bet/ethereum/contracts/F1.sol\":1229:1259  require(msg.sender == manager) */\n      tag_235\n      jumpi\n      0x00\n      dup1\n      revert\n    tag_235:\n        /* \"/home/rocha/Proyects/Solidity/F1Bet/ethereum/contracts/F1.sol\":1384:1397  _constructors */\n      dup1\n        /* \"/home/rocha/Proyects/Solidity/F1Bet/ethereum/contracts/F1.sol\":1369:1381  constructors */\n      0x04\n        /* \"/home/rocha/Proyects/Solidity/F1Bet/ethereum/contracts/F1.sol\":1369:1397  constructors = _constructors */\n      swap1\n      dup1\n      mload\n      swap1\n      0x20\n      add\n      swap1\n      tag_237\n      swap3\n      swap2\n      swap1\n      tag_112\n      jump\t// in\n    tag_237:\n      pop\n        /* \"/home/rocha/Proyects/Solidity/F1Bet/ethereum/contracts/F1.sol\":1283:1404  function setConstructorsTable(string[] memory _constructors)public isManager{... */\n      pop\n      jump\t// out\n        /* \"/home/rocha/Proyects/Solidity/F1Bet/ethereum/contracts/F1.sol\":386:415  address payable public winner */\n    tag_85:\n      0x02\n      0x00\n      swap1\n      sload\n      swap1\n      0x0100\n      exp\n      swap1\n      div\n      0xffffffffffffffffffffffffffffffffffffffff\n      and\n      dup2\n      jump\t// out\n        /* \"/home/rocha/Proyects/Solidity/F1Bet/ethereum/contracts/F1.sol\":10298:10423  function getContestansTPoints() public view isOnBet returns(uint){... */\n    tag_90:\n        /* \"/home/rocha/Proyects/Solidity/F1Bet/ethereum/contracts/F1.sol\":10358:10362  uint */\n      0x00\n        /* \"/home/rocha/Proyects/Solidity/F1Bet/ethereum/contracts/F1.sol\":966:983  bool isContestant */\n      dup1\n        /* \"/home/rocha/Proyects/Solidity/F1Bet/ethereum/contracts/F1.sol\":998:1005  uint8 i */\n      0x00\n        /* \"/home/rocha/Proyects/Solidity/F1Bet/ethereum/contracts/F1.sol\":993:1145  for (uint8 i = 0; i < contestants.length; ++i) {... */\n    tag_239:\n        /* \"/home/rocha/Proyects/Solidity/F1Bet/ethereum/contracts/F1.sol\":1015:1026  contestants */\n      0x01\n        /* \"/home/rocha/Proyects/Solidity/F1Bet/ethereum/contracts/F1.sol\":1015:1033  contestants.length */\n      dup1\n      sload\n      swap1\n      pop\n        /* \"/home/rocha/Proyects/Solidity/F1Bet/ethereum/contracts/F1.sol\":1011:1012  i */\n      dup2\n        /* \"/home/rocha/Proyects/Solidity/F1Bet/ethereum/contracts/F1.sol\":1011:1033  i < contestants.length */\n      0xff\n      and\n      lt\n        /* \"/home/rocha/Proyects/Solidity/F1Bet/ethereum/contracts/F1.sol\":993:1145  for (uint8 i = 0; i < contestants.length; ++i) {... */\n      iszero\n      tag_240\n      jumpi\n        /* \"/home/rocha/Proyects/Solidity/F1Bet/ethereum/contracts/F1.sol\":1073:1083  msg.sender */\n      caller\n        /* \"/home/rocha/Proyects/Solidity/F1Bet/ethereum/contracts/F1.sol\":1057:1083  contestants[i]==msg.sender */\n      0xffffffffffffffffffffffffffffffffffffffff\n      and\n        /* \"/home/rocha/Proyects/Solidity/F1Bet/ethereum/contracts/F1.sol\":1057:1068  contestants */\n      0x01\n        /* \"/home/rocha/Proyects/Solidity/F1Bet/ethereum/contracts/F1.sol\":1069:1070  i */\n      dup3\n        /* \"/home/rocha/Proyects/Solidity/F1Bet/ethereum/contracts/F1.sol\":1057:1071  contestants[i] */\n      0xff\n      and\n      dup2\n      sload\n      dup2\n      lt\n      tag_242\n      jumpi\n      tag_243\n      tag_103\n      jump\t// in\n    tag_243:\n    tag_242:\n      swap1\n      0x00\n      mstore\n      keccak256(0x00, 0x20)\n      add\n      0x00\n      swap1\n      sload\n      swap1\n      0x0100\n      exp\n      swap1\n      div\n      0xffffffffffffffffffffffffffffffffffffffff\n      and\n        /* \"/home/rocha/Proyects/Solidity/F1Bet/ethereum/contracts/F1.sol\":1057:1083  contestants[i]==msg.sender */\n      0xffffffffffffffffffffffffffffffffffffffff\n      and\n      eq\n        /* \"/home/rocha/Proyects/Solidity/F1Bet/ethereum/contracts/F1.sol\":1054:1135  if(contestants[i]==msg.sender){... */\n      iszero\n      tag_245\n      jumpi\n        /* \"/home/rocha/Proyects/Solidity/F1Bet/ethereum/contracts/F1.sol\":1116:1120  true */\n      0x01\n        /* \"/home/rocha/Proyects/Solidity/F1Bet/ethereum/contracts/F1.sol\":1101:1120  isContestant = true */\n      swap2\n      pop\n        /* \"/home/rocha/Proyects/Solidity/F1Bet/ethereum/contracts/F1.sol\":1054:1135  if(contestants[i]==msg.sender){... */\n    tag_245:\n        /* \"/home/rocha/Proyects/Solidity/F1Bet/ethereum/contracts/F1.sol\":1035:1038  ++i */\n      dup1\n      tag_246\n      swap1\n      tag_107\n      jump\t// in\n    tag_246:\n      swap1\n      pop\n        /* \"/home/rocha/Proyects/Solidity/F1Bet/ethereum/contracts/F1.sol\":993:1145  for (uint8 i = 0; i < contestants.length; ++i) {... */\n      jump(tag_239)\n    tag_240:\n      pop\n        /* \"/home/rocha/Proyects/Solidity/F1Bet/ethereum/contracts/F1.sol\":1162:1174  isContestant */\n      dup1\n        /* \"/home/rocha/Proyects/Solidity/F1Bet/ethereum/contracts/F1.sol\":1154:1175  require(isContestant) */\n      tag_247\n      jumpi\n      0x00\n      dup1\n      revert\n    tag_247:\n        /* \"/home/rocha/Proyects/Solidity/F1Bet/ethereum/contracts/F1.sol\":10381:10392  predictions */\n      0x00\n        /* \"/home/rocha/Proyects/Solidity/F1Bet/ethereum/contracts/F1.sol\":10381:10404  predictions[msg.sender] */\n      dup1\n        /* \"/home/rocha/Proyects/Solidity/F1Bet/ethereum/contracts/F1.sol\":10393:10403  msg.sender */\n      caller\n        /* \"/home/rocha/Proyects/Solidity/F1Bet/ethereum/contracts/F1.sol\":10381:10404  predictions[msg.sender] */\n      0xffffffffffffffffffffffffffffffffffffffff\n      and\n      0xffffffffffffffffffffffffffffffffffffffff\n      and\n      dup2\n      mstore\n      0x20\n      add\n      swap1\n      dup2\n      mstore\n      0x20\n      add\n      0x00\n      keccak256\n        /* \"/home/rocha/Proyects/Solidity/F1Bet/ethereum/contracts/F1.sol\":10381:10416  predictions[msg.sender].totalPoints */\n      0x06\n      add\n      sload\n        /* \"/home/rocha/Proyects/Solidity/F1Bet/ethereum/contracts/F1.sol\":10373:10416  return  predictions[msg.sender].totalPoints */\n      swap2\n      pop\n        /* \"/home/rocha/Proyects/Solidity/F1Bet/ethereum/contracts/F1.sol\":956:1193  {... */\n      pop\n        /* \"/home/rocha/Proyects/Solidity/F1Bet/ethereum/contracts/F1.sol\":10298:10423  function getContestansTPoints() public view isOnBet returns(uint){... */\n      swap1\n      jump\t// out\n        /* \"/home/rocha/Proyects/Solidity/F1Bet/ethereum/contracts/F1.sol\":486:508  uint8 public checoWins */\n    tag_94:\n      0x06\n      0x00\n      swap1\n      sload\n      swap1\n      0x0100\n      exp\n      swap1\n      div\n      0xff\n      and\n      dup2\n      jump\t// out\n        /* \"/home/rocha/Proyects/Solidity/F1Bet/ethereum/contracts/F1.sol\":2638:5571  function calculateConstructorsTable() private {... */\n    tag_136:\n        /* \"/home/rocha/Proyects/Solidity/F1Bet/ethereum/contracts/F1.sol\":2698:2705  uint8 i */\n      0x00\n        /* \"/home/rocha/Proyects/Solidity/F1Bet/ethereum/contracts/F1.sol\":2694:5560  for(uint8 i; i<contestants.length;i++){... */\n    tag_250:\n        /* \"/home/rocha/Proyects/Solidity/F1Bet/ethereum/contracts/F1.sol\":2709:2720  contestants */\n      0x01\n        /* \"/home/rocha/Proyects/Solidity/F1Bet/ethereum/contracts/F1.sol\":2709:2727  contestants.length */\n      dup1\n      sload\n      swap1\n      pop\n        /* \"/home/rocha/Proyects/Solidity/F1Bet/ethereum/contracts/F1.sol\":2707:2708  i */\n      dup2\n        /* \"/home/rocha/Proyects/Solidity/F1Bet/ethereum/contracts/F1.sol\":2707:2727  i<contestants.length */\n      0xff\n      and\n      lt\n        /* \"/home/rocha/Proyects/Solidity/F1Bet/ethereum/contracts/F1.sol\":2694:5560  for(uint8 i; i<contestants.length;i++){... */\n      iszero\n      tag_251\n      jumpi\n        /* \"/home/rocha/Proyects/Solidity/F1Bet/ethereum/contracts/F1.sol\":2746:2782  string[] memory contestantPrediction */\n      0x00\n        /* \"/home/rocha/Proyects/Solidity/F1Bet/ethereum/contracts/F1.sol\":2785:2796  predictions */\n      dup1\n        /* \"/home/rocha/Proyects/Solidity/F1Bet/ethereum/contracts/F1.sol\":2785:2812  predictions[contestants[i]] */\n      0x00\n        /* \"/home/rocha/Proyects/Solidity/F1Bet/ethereum/contracts/F1.sol\":2797:2808  contestants */\n      0x01\n        /* \"/home/rocha/Proyects/Solidity/F1Bet/ethereum/contracts/F1.sol\":2809:2810  i */\n      dup5\n        /* \"/home/rocha/Proyects/Solidity/F1Bet/ethereum/contracts/F1.sol\":2797:2811  contestants[i] */\n      0xff\n      and\n      dup2\n      sload\n      dup2\n      lt\n      tag_253\n      jumpi\n      tag_254\n      tag_103\n      jump\t// in\n    tag_254:\n    tag_253:\n      swap1\n      0x00\n      mstore\n      keccak256(0x00, 0x20)\n      add\n      0x00\n      swap1\n      sload\n      swap1\n      0x0100\n      exp\n      swap1\n      div\n      0xffffffffffffffffffffffffffffffffffffffff\n      and\n        /* \"/home/rocha/Proyects/Solidity/F1Bet/ethereum/contracts/F1.sol\":2785:2812  predictions[contestants[i]] */\n      0xffffffffffffffffffffffffffffffffffffffff\n      and\n      0xffffffffffffffffffffffffffffffffffffffff\n      and\n      dup2\n      mstore\n      0x20\n      add\n      swap1\n      dup2\n      mstore\n      0x20\n      add\n      0x00\n      keccak256\n        /* \"/home/rocha/Proyects/Solidity/F1Bet/ethereum/contracts/F1.sol\":2785:2825  predictions[contestants[i]].constructors */\n      0x00\n      add\n        /* \"/home/rocha/Proyects/Solidity/F1Bet/ethereum/contracts/F1.sol\":2746:2825  string[] memory contestantPrediction = predictions[contestants[i]].constructors */\n      dup1\n      sload\n      dup1\n      0x20\n      mul\n      0x20\n      add\n      mload(0x40)\n      swap1\n      dup2\n      add\n      0x40\n      mstore\n      dup1\n      swap3\n      swap2\n      swap1\n      dup2\n      dup2\n      mstore\n      0x20\n      add\n      0x00\n      swap1\n    tag_256:\n      dup3\n      dup3\n      lt\n      iszero\n      tag_257\n      jumpi\n      dup4\n      dup3\n      swap1\n      0x00\n      mstore\n      keccak256(0x00, 0x20)\n      add\n      dup1\n      sload\n      tag_259\n      swap1\n      tag_260\n      jump\t// in\n    tag_259:\n      dup1\n      0x1f\n      add\n      0x20\n      dup1\n      swap2\n      div\n      mul\n      0x20\n      add\n      mload(0x40)\n      swap1\n      dup2\n      add\n      0x40\n      mstore\n      dup1\n      swap3\n      swap2\n      swap1\n      dup2\n      dup2\n      mstore\n      0x20\n      add\n      dup3\n      dup1\n      sload\n      tag_261\n      swap1\n      tag_260\n      jump\t// in\n    tag_261:\n      dup1\n      iszero\n      tag_262\n      jumpi\n      dup1\n      0x1f\n      lt\n      tag_263\n      jumpi\n      0x0100\n      dup1\n      dup4\n      sload\n      div\n      mul\n      dup4\n      mstore\n      swap2\n      0x20\n      add\n      swap2\n      jump(tag_262)\n    tag_263:\n      dup3\n      add\n      swap2\n      swap1\n      0x00\n      mstore\n      keccak256(0x00, 0x20)\n      swap1\n    tag_264:\n      dup2\n      sload\n      dup2\n      mstore\n      swap1\n      0x01\n      add\n      swap1\n      0x20\n      add\n      dup1\n      dup4\n      gt\n      tag_264\n      jumpi\n      dup3\n      swap1\n      sub\n      0x1f\n      and\n      dup3\n      add\n      swap2\n    tag_262:\n      pop\n      pop\n      pop\n      pop\n      pop\n      dup2\n      mstore\n      0x20\n      add\n      swap1\n      0x01\n      add\n      swap1\n      jump(tag_256)\n    tag_257:\n      pop\n      pop\n      pop\n      pop\n      swap1\n      pop\n        /* \"/home/rocha/Proyects/Solidity/F1Bet/ethereum/contracts/F1.sol\":2839:2850  uint points */\n      0x00\n        /* \"/home/rocha/Proyects/Solidity/F1Bet/ethereum/contracts/F1.sol\":2868:2875  uint8 j */\n      dup1\n        /* \"/home/rocha/Proyects/Solidity/F1Bet/ethereum/contracts/F1.sol\":2864:5481  for(uint8 j; j<constructors.length;j++){... */\n    tag_265:\n        /* \"/home/rocha/Proyects/Solidity/F1Bet/ethereum/contracts/F1.sol\":2879:2891  constructors */\n      0x04\n        /* \"/home/rocha/Proyects/Solidity/F1Bet/ethereum/contracts/F1.sol\":2879:2898  constructors.length */\n      dup1\n      sload\n      swap1\n      pop\n        /* \"/home/rocha/Proyects/Solidity/F1Bet/ethereum/contracts/F1.sol\":2877:2878  j */\n      dup2\n        /* \"/home/rocha/Proyects/Solidity/F1Bet/ethereum/contracts/F1.sol\":2877:2898  j<constructors.length */\n      0xff\n      and\n      lt\n        /* \"/home/rocha/Proyects/Solidity/F1Bet/ethereum/contracts/F1.sol\":2864:5481  for(uint8 j; j<constructors.length;j++){... */\n      iszero\n      tag_266\n      jumpi\n        /* \"/home/rocha/Proyects/Solidity/F1Bet/ethereum/contracts/F1.sol\":2926:2927  1 */\n      0x01\n        /* \"/home/rocha/Proyects/Solidity/F1Bet/ethereum/contracts/F1.sol\":2924:2925  j */\n      dup2\n        /* \"/home/rocha/Proyects/Solidity/F1Bet/ethereum/contracts/F1.sol\":2924:2927  j<1 */\n      0xff\n      and\n      lt\n        /* \"/home/rocha/Proyects/Solidity/F1Bet/ethereum/contracts/F1.sol\":2921:5467  if(j<1){... */\n      iszero\n      tag_268\n      jumpi\n        /* \"/home/rocha/Proyects/Solidity/F1Bet/ethereum/contracts/F1.sol\":2953:3012  checkStingEquality(contestantPrediction[j],constructors[j]) */\n      tag_269\n        /* \"/home/rocha/Proyects/Solidity/F1Bet/ethereum/contracts/F1.sol\":2972:2992  contestantPrediction */\n      dup4\n        /* \"/home/rocha/Proyects/Solidity/F1Bet/ethereum/contracts/F1.sol\":2993:2994  j */\n      dup3\n        /* \"/home/rocha/Proyects/Solidity/F1Bet/ethereum/contracts/F1.sol\":2972:2995  contestantPrediction[j] */\n      0xff\n      and\n      dup2\n      mload\n      dup2\n      lt\n      tag_270\n      jumpi\n      tag_271\n      tag_103\n      jump\t// in\n    tag_271:\n    tag_270:\n      0x20\n      mul\n      0x20\n      add\n      add\n      mload\n        /* \"/home/rocha/Proyects/Solidity/F1Bet/ethereum/contracts/F1.sol\":2996:3008  constructors */\n      0x04\n        /* \"/home/rocha/Proyects/Solidity/F1Bet/ethereum/contracts/F1.sol\":3009:3010  j */\n      dup4\n        /* \"/home/rocha/Proyects/Solidity/F1Bet/ethereum/contracts/F1.sol\":2996:3011  constructors[j] */\n      0xff\n      and\n      dup2\n      sload\n      dup2\n      lt\n      tag_272\n      jumpi\n      tag_273\n      tag_103\n      jump\t// in\n    tag_273:\n    tag_272:\n      swap1\n      0x00\n      mstore\n      keccak256(0x00, 0x20)\n      add\n        /* \"/home/rocha/Proyects/Solidity/F1Bet/ethereum/contracts/F1.sol\":2953:3012  checkStingEquality(contestantPrediction[j],constructors[j]) */\n      dup1\n      sload\n      tag_275\n      swap1\n      tag_260\n      jump\t// in\n    tag_275:\n      dup1\n      0x1f\n      add\n      0x20\n      dup1\n      swap2\n      div\n      mul\n      0x20\n      add\n      mload(0x40)\n      swap1\n      dup2\n      add\n      0x40\n      mstore\n      dup1\n      swap3\n      swap2\n      swap1\n      dup2\n      dup2\n      mstore\n      0x20\n      add\n      dup3\n      dup1\n      sload\n      tag_276\n      swap1\n      tag_260\n      jump\t// in\n    tag_276:\n      dup1\n      iszero\n      tag_277\n      jumpi\n      dup1\n      0x1f\n      lt\n      tag_278\n      jumpi\n      0x0100\n      dup1\n      dup4\n      sload\n      div\n      mul\n      dup4\n      mstore\n      swap2\n      0x20\n      add\n      swap2\n      jump(tag_277)\n    tag_278:\n      dup3\n      add\n      swap2\n      swap1\n      0x00\n      mstore\n      keccak256(0x00, 0x20)\n      swap1\n    tag_279:\n      dup2\n      sload\n      dup2\n      mstore\n      swap1\n      0x01\n      add\n      swap1\n      0x20\n      add\n      dup1\n      dup4\n      gt\n      tag_279\n      jumpi\n      dup3\n      swap1\n      sub\n      0x1f\n      and\n      dup3\n      add\n      swap2\n    tag_277:\n      pop\n      pop\n      pop\n      pop\n      pop\n        /* \"/home/rocha/Proyects/Solidity/F1Bet/ethereum/contracts/F1.sol\":2953:2971  checkStingEquality */\n      tag_280\n        /* \"/home/rocha/Proyects/Solidity/F1Bet/ethereum/contracts/F1.sol\":2953:3012  checkStingEquality(contestantPrediction[j],constructors[j]) */\n      jump\t// in\n    tag_269:\n        /* \"/home/rocha/Proyects/Solidity/F1Bet/ethereum/contracts/F1.sol\":2950:3350  if(checkStingEquality(contestantPrediction[j],constructors[j])){... */\n      iszero\n      tag_281\n      jumpi\n        /* \"/home/rocha/Proyects/Solidity/F1Bet/ethereum/contracts/F1.sol\":3048:3049  5 */\n      0x05\n        /* \"/home/rocha/Proyects/Solidity/F1Bet/ethereum/contracts/F1.sol\":3039:3049  points+= 5 */\n      dup3\n      tag_282\n      swap2\n      swap1\n      tag_186\n      jump\t// in\n    tag_282:\n      swap2\n      pop\n        /* \"/home/rocha/Proyects/Solidity/F1Bet/ethereum/contracts/F1.sol\":2950:3350  if(checkStingEquality(contestantPrediction[j],constructors[j])){... */\n      jump(tag_283)\n    tag_281:\n        /* \"/home/rocha/Proyects/Solidity/F1Bet/ethereum/contracts/F1.sol\":3081:3142  checkStingEquality(contestantPrediction[j+1],constructors[j]) */\n      tag_284\n        /* \"/home/rocha/Proyects/Solidity/F1Bet/ethereum/contracts/F1.sol\":3100:3120  contestantPrediction */\n      dup4\n        /* \"/home/rocha/Proyects/Solidity/F1Bet/ethereum/contracts/F1.sol\":3123:3124  1 */\n      0x01\n        /* \"/home/rocha/Proyects/Solidity/F1Bet/ethereum/contracts/F1.sol\":3121:3122  j */\n      dup4\n        /* \"/home/rocha/Proyects/Solidity/F1Bet/ethereum/contracts/F1.sol\":3121:3124  j+1 */\n      tag_285\n      swap2\n      swap1\n      tag_286\n      jump\t// in\n    tag_285:\n        /* \"/home/rocha/Proyects/Solidity/F1Bet/ethereum/contracts/F1.sol\":3100:3125  contestantPrediction[j+1] */\n      0xff\n      and\n      dup2\n      mload\n      dup2\n      lt\n      tag_287\n      jumpi\n      tag_288\n      tag_103\n      jump\t// in\n    tag_288:\n    tag_287:\n      0x20\n      mul\n      0x20\n      add\n      add\n      mload\n        /* \"/home/rocha/Proyects/Solidity/F1Bet/ethereum/contracts/F1.sol\":3126:3138  constructors */\n      0x04\n        /* \"/home/rocha/Proyects/Solidity/F1Bet/ethereum/contracts/F1.sol\":3139:3140  j */\n      dup4\n        /* \"/home/rocha/Proyects/Solidity/F1Bet/ethereum/contracts/F1.sol\":3126:3141  constructors[j] */\n      0xff\n      and\n      dup2\n      sload\n      dup2\n      lt\n      tag_289\n      jumpi\n      tag_290\n      tag_103\n      jump\t// in\n    tag_290:\n    tag_289:\n      swap1\n      0x00\n      mstore\n      keccak256(0x00, 0x20)\n      add\n        /* \"/home/rocha/Proyects/Solidity/F1Bet/ethereum/contracts/F1.sol\":3081:3142  checkStingEquality(contestantPrediction[j+1],constructors[j]) */\n      dup1\n      sload\n      tag_292\n      swap1\n      tag_260\n      jump\t// in\n    tag_292:\n      dup1\n      0x1f\n      add\n      0x20\n      dup1\n      swap2\n      div\n      mul\n      0x20\n      add\n      mload(0x40)\n      swap1\n      dup2\n      add\n      0x40\n      mstore\n      dup1\n      swap3\n      swap2\n      swap1\n      dup2\n      dup2\n      mstore\n      0x20\n      add\n      dup3\n      dup1\n      sload\n      tag_293\n      swap1\n      tag_260\n      jump\t// in\n    tag_293:\n      dup1\n      iszero\n      tag_294\n      jumpi\n      dup1\n      0x1f\n      lt\n      tag_295\n      jumpi\n      0x0100\n      dup1\n      dup4\n      sload\n      div\n      mul\n      dup4\n      mstore\n      swap2\n      0x20\n      add\n      swap2\n      jump(tag_294)\n    tag_295:\n      dup3\n      add\n      swap2\n      swap1\n      0x00\n      mstore\n      keccak256(0x00, 0x20)\n      swap1\n    tag_296:\n      dup2\n      sload\n      dup2\n      mstore\n      swap1\n      0x01\n      add\n      swap1\n      0x20\n      add\n      dup1\n      dup4\n      gt\n      tag_296\n      jumpi\n      dup3\n      swap1\n      sub\n      0x1f\n      and\n      dup3\n      add\n      swap2\n    tag_294:\n      pop\n      pop\n      pop\n      pop\n      pop\n        /* \"/home/rocha/Proyects/Solidity/F1Bet/ethereum/contracts/F1.sol\":3081:3099  checkStingEquality */\n      tag_280\n        /* \"/home/rocha/Proyects/Solidity/F1Bet/ethereum/contracts/F1.sol\":3081:3142  checkStingEquality(contestantPrediction[j+1],constructors[j]) */\n      jump\t// in\n    tag_284:\n        /* \"/home/rocha/Proyects/Solidity/F1Bet/ethereum/contracts/F1.sol\":3077:3350  if( checkStingEquality(contestantPrediction[j+1],constructors[j])){... */\n      iszero\n      tag_297\n      jumpi\n        /* \"/home/rocha/Proyects/Solidity/F1Bet/ethereum/contracts/F1.sol\":3177:3178  3 */\n      0x03\n        /* \"/home/rocha/Proyects/Solidity/F1Bet/ethereum/contracts/F1.sol\":3169:3178  points+=3 */\n      dup3\n      tag_298\n      swap2\n      swap1\n      tag_186\n      jump\t// in\n    tag_298:\n      swap2\n      pop\n        /* \"/home/rocha/Proyects/Solidity/F1Bet/ethereum/contracts/F1.sol\":3077:3350  if( checkStingEquality(contestantPrediction[j+1],constructors[j])){... */\n      jump(tag_299)\n    tag_297:\n        /* \"/home/rocha/Proyects/Solidity/F1Bet/ethereum/contracts/F1.sol\":3230:3291  checkStingEquality(contestantPrediction[j+2],constructors[j]) */\n      tag_300\n        /* \"/home/rocha/Proyects/Solidity/F1Bet/ethereum/contracts/F1.sol\":3249:3269  contestantPrediction */\n      dup4\n        /* \"/home/rocha/Proyects/Solidity/F1Bet/ethereum/contracts/F1.sol\":3272:3273  2 */\n      0x02\n        /* \"/home/rocha/Proyects/Solidity/F1Bet/ethereum/contracts/F1.sol\":3270:3271  j */\n      dup4\n        /* \"/home/rocha/Proyects/Solidity/F1Bet/ethereum/contracts/F1.sol\":3270:3273  j+2 */\n      tag_301\n      swap2\n      swap1\n      tag_286\n      jump\t// in\n    tag_301:\n        /* \"/home/rocha/Proyects/Solidity/F1Bet/ethereum/contracts/F1.sol\":3249:3274  contestantPrediction[j+2] */\n      0xff\n      and\n      dup2\n      mload\n      dup2\n      lt\n      tag_302\n      jumpi\n      tag_303\n      tag_103\n      jump\t// in\n    tag_303:\n    tag_302:\n      0x20\n      mul\n      0x20\n      add\n      add\n      mload\n        /* \"/home/rocha/Proyects/Solidity/F1Bet/ethereum/contracts/F1.sol\":3275:3287  constructors */\n      0x04\n        /* \"/home/rocha/Proyects/Solidity/F1Bet/ethereum/contracts/F1.sol\":3288:3289  j */\n      dup4\n        /* \"/home/rocha/Proyects/Solidity/F1Bet/ethereum/contracts/F1.sol\":3275:3290  constructors[j] */\n      0xff\n      and\n      dup2\n      sload\n      dup2\n      lt\n      tag_304\n      jumpi\n      tag_305\n      tag_103\n      jump\t// in\n    tag_305:\n    tag_304:\n      swap1\n      0x00\n      mstore\n      keccak256(0x00, 0x20)\n      add\n        /* \"/home/rocha/Proyects/Solidity/F1Bet/ethereum/contracts/F1.sol\":3230:3291  checkStingEquality(contestantPrediction[j+2],constructors[j]) */\n      dup1\n      sload\n      tag_307\n      swap1\n      tag_260\n      jump\t// in\n    tag_307:\n      dup1\n      0x1f\n      add\n      0x20\n      dup1\n      swap2\n      div\n      mul\n      0x20\n      add\n      mload(0x40)\n      swap1\n      dup2\n      add\n      0x40\n      mstore\n      dup1\n      swap3\n      swap2\n      swap1\n      dup2\n      dup2\n      mstore\n      0x20\n      add\n      dup3\n      dup1\n      sload\n      tag_308\n      swap1\n      tag_260\n      jump\t// in\n    tag_308:\n      dup1\n      iszero\n      tag_309\n      jumpi\n      dup1\n      0x1f\n      lt\n      tag_310\n      jumpi\n      0x0100\n      dup1\n      dup4\n      sload\n      div\n      mul\n      dup4\n      mstore\n      swap2\n      0x20\n      add\n      swap2\n      jump(tag_309)\n    tag_310:\n      dup3\n      add\n      swap2\n      swap1\n      0x00\n      mstore\n      keccak256(0x00, 0x20)\n      swap1\n    tag_311:\n      dup2\n      sload\n      dup2\n      mstore\n      swap1\n      0x01\n      add\n      swap1\n      0x20\n      add\n      dup1\n      dup4\n      gt\n      tag_311\n      jumpi\n      dup3\n      swap1\n      sub\n      0x1f\n      and\n      dup3\n      add\n      swap2\n    tag_309:\n      pop\n      pop\n      pop\n      pop\n      pop\n        /* \"/home/rocha/Proyects/Solidity/F1Bet/ethereum/contracts/F1.sol\":3230:3248  checkStingEquality */\n      tag_280\n        /* \"/home/rocha/Proyects/Solidity/F1Bet/ethereum/contracts/F1.sol\":3230:3291  checkStingEquality(contestantPrediction[j+2],constructors[j]) */\n      jump\t// in\n    tag_300:\n        /* \"/home/rocha/Proyects/Solidity/F1Bet/ethereum/contracts/F1.sol\":3227:3350  if(checkStingEquality(contestantPrediction[j+2],constructors[j])){... */\n      iszero\n      tag_312\n      jumpi\n        /* \"/home/rocha/Proyects/Solidity/F1Bet/ethereum/contracts/F1.sol\":3326:3327  1 */\n      0x01\n        /* \"/home/rocha/Proyects/Solidity/F1Bet/ethereum/contracts/F1.sol\":3318:3327  points+=1 */\n      dup3\n      tag_313\n      swap2\n      swap1\n      tag_186\n      jump\t// in\n    tag_313:\n      swap2\n      pop\n        /* \"/home/rocha/Proyects/Solidity/F1Bet/ethereum/contracts/F1.sol\":3227:3350  if(checkStingEquality(contestantPrediction[j+2],constructors[j])){... */\n    tag_312:\n        /* \"/home/rocha/Proyects/Solidity/F1Bet/ethereum/contracts/F1.sol\":3077:3350  if( checkStingEquality(contestantPrediction[j+1],constructors[j])){... */\n    tag_299:\n        /* \"/home/rocha/Proyects/Solidity/F1Bet/ethereum/contracts/F1.sol\":2950:3350  if(checkStingEquality(contestantPrediction[j],constructors[j])){... */\n    tag_283:\n        /* \"/home/rocha/Proyects/Solidity/F1Bet/ethereum/contracts/F1.sol\":2921:5467  if(j<1){... */\n      jump(tag_314)\n    tag_268:\n        /* \"/home/rocha/Proyects/Solidity/F1Bet/ethereum/contracts/F1.sol\":3378:3379  2 */\n      0x02\n        /* \"/home/rocha/Proyects/Solidity/F1Bet/ethereum/contracts/F1.sol\":3376:3377  j */\n      dup2\n        /* \"/home/rocha/Proyects/Solidity/F1Bet/ethereum/contracts/F1.sol\":3376:3379  j<2 */\n      0xff\n      and\n      lt\n        /* \"/home/rocha/Proyects/Solidity/F1Bet/ethereum/contracts/F1.sol\":3373:5467  if(j<2){... */\n      iszero\n      tag_315\n      jumpi\n        /* \"/home/rocha/Proyects/Solidity/F1Bet/ethereum/contracts/F1.sol\":3405:3464  checkStingEquality(contestantPrediction[j],constructors[j]) */\n      tag_316\n        /* \"/home/rocha/Proyects/Solidity/F1Bet/ethereum/contracts/F1.sol\":3424:3444  contestantPrediction */\n      dup4\n        /* \"/home/rocha/Proyects/Solidity/F1Bet/ethereum/contracts/F1.sol\":3445:3446  j */\n      dup3\n        /* \"/home/rocha/Proyects/Solidity/F1Bet/ethereum/contracts/F1.sol\":3424:3447  contestantPrediction[j] */\n      0xff\n      and\n      dup2\n      mload\n      dup2\n      lt\n      tag_317\n      jumpi\n      tag_318\n      tag_103\n      jump\t// in\n    tag_318:\n    tag_317:\n      0x20\n      mul\n      0x20\n      add\n      add\n      mload\n        /* \"/home/rocha/Proyects/Solidity/F1Bet/ethereum/contracts/F1.sol\":3448:3460  constructors */\n      0x04\n        /* \"/home/rocha/Proyects/Solidity/F1Bet/ethereum/contracts/F1.sol\":3461:3462  j */\n      dup4\n        /* \"/home/rocha/Proyects/Solidity/F1Bet/ethereum/contracts/F1.sol\":3448:3463  constructors[j] */\n      0xff\n      and\n      dup2\n      sload\n      dup2\n      lt\n      tag_319\n      jumpi\n      tag_320\n      tag_103\n      jump\t// in\n    tag_320:\n    tag_319:\n      swap1\n      0x00\n      mstore\n      keccak256(0x00, 0x20)\n      add\n        /* \"/home/rocha/Proyects/Solidity/F1Bet/ethereum/contracts/F1.sol\":3405:3464  checkStingEquality(contestantPrediction[j],constructors[j]) */\n      dup1\n      sload\n      tag_322\n      swap1\n      tag_260\n      jump\t// in\n    tag_322:\n      dup1\n      0x1f\n      add\n      0x20\n      dup1\n      swap2\n      div\n      mul\n      0x20\n      add\n      mload(0x40)\n      swap1\n      dup2\n      add\n      0x40\n      mstore\n      dup1\n      swap3\n      swap2\n      swap1\n      dup2\n      dup2\n      mstore\n      0x20\n      add\n      dup3\n      dup1\n      sload\n      tag_323\n      swap1\n      tag_260\n      jump\t// in\n    tag_323:\n      dup1\n      iszero\n      tag_324\n      jumpi\n      dup1\n      0x1f\n      lt\n      tag_325\n      jumpi\n      0x0100\n      dup1\n      dup4\n      sload\n      div\n      mul\n      dup4\n      mstore\n      swap2\n      0x20\n      add\n      swap2\n      jump(tag_324)\n    tag_325:\n      dup3\n      add\n      swap2\n      swap1\n      0x00\n      mstore\n      keccak256(0x00, 0x20)\n      swap1\n    tag_326:\n      dup2\n      sload\n      dup2\n      mstore\n      swap1\n      0x01\n      add\n      swap1\n      0x20\n      add\n      dup1\n      dup4\n      gt\n      tag_326\n      jumpi\n      dup3\n      swap1\n      sub\n      0x1f\n      and\n      dup3\n      add\n      swap2\n    tag_324:\n      pop\n      pop\n      pop\n      pop\n      pop\n        /* \"/home/rocha/Proyects/Solidity/F1Bet/ethereum/contracts/F1.sol\":3405:3423  checkStingEquality */\n      tag_280\n        /* \"/home/rocha/Proyects/Solidity/F1Bet/ethereum/contracts/F1.sol\":3405:3464  checkStingEquality(contestantPrediction[j],constructors[j]) */\n      jump\t// in\n    tag_316:\n        /* \"/home/rocha/Proyects/Solidity/F1Bet/ethereum/contracts/F1.sol\":3402:3867  if(checkStingEquality(contestantPrediction[j],constructors[j])){... */\n      iszero\n      tag_327\n      jumpi\n        /* \"/home/rocha/Proyects/Solidity/F1Bet/ethereum/contracts/F1.sol\":3500:3501  5 */\n      0x05\n        /* \"/home/rocha/Proyects/Solidity/F1Bet/ethereum/contracts/F1.sol\":3491:3501  points+= 5 */\n      dup3\n      tag_328\n      swap2\n      swap1\n      tag_186\n      jump\t// in\n    tag_328:\n      swap2\n      pop\n        /* \"/home/rocha/Proyects/Solidity/F1Bet/ethereum/contracts/F1.sol\":3402:3867  if(checkStingEquality(contestantPrediction[j],constructors[j])){... */\n      jump(tag_329)\n    tag_327:\n        /* \"/home/rocha/Proyects/Solidity/F1Bet/ethereum/contracts/F1.sol\":3532:3593  checkStingEquality(contestantPrediction[j-1],constructors[j]) */\n      tag_330\n        /* \"/home/rocha/Proyects/Solidity/F1Bet/ethereum/contracts/F1.sol\":3551:3571  contestantPrediction */\n      dup4\n        /* \"/home/rocha/Proyects/Solidity/F1Bet/ethereum/contracts/F1.sol\":3574:3575  1 */\n      0x01\n        /* \"/home/rocha/Proyects/Solidity/F1Bet/ethereum/contracts/F1.sol\":3572:3573  j */\n      dup4\n        /* \"/home/rocha/Proyects/Solidity/F1Bet/ethereum/contracts/F1.sol\":3572:3575  j-1 */\n      tag_331\n      swap2\n      swap1\n      tag_332\n      jump\t// in\n    tag_331:\n        /* \"/home/rocha/Proyects/Solidity/F1Bet/ethereum/contracts/F1.sol\":3551:3576  contestantPrediction[j-1] */\n      0xff\n      and\n      dup2\n      mload\n      dup2\n      lt\n      tag_333\n      jumpi\n      tag_334\n      tag_103\n      jump\t// in\n    tag_334:\n    tag_333:\n      0x20\n      mul\n      0x20\n      add\n      add\n      mload\n        /* \"/home/rocha/Proyects/Solidity/F1Bet/ethereum/contracts/F1.sol\":3577:3589  constructors */\n      0x04\n        /* \"/home/rocha/Proyects/Solidity/F1Bet/ethereum/contracts/F1.sol\":3590:3591  j */\n      dup4\n        /* \"/home/rocha/Proyects/Solidity/F1Bet/ethereum/contracts/F1.sol\":3577:3592  constructors[j] */\n      0xff\n      and\n      dup2\n      sload\n      dup2\n      lt\n      tag_335\n      jumpi\n      tag_336\n      tag_103\n      jump\t// in\n    tag_336:\n    tag_335:\n      swap1\n      0x00\n      mstore\n      keccak256(0x00, 0x20)\n      add\n        /* \"/home/rocha/Proyects/Solidity/F1Bet/ethereum/contracts/F1.sol\":3532:3593  checkStingEquality(contestantPrediction[j-1],constructors[j]) */\n      dup1\n      sload\n      tag_338\n      swap1\n      tag_260\n      jump\t// in\n    tag_338:\n      dup1\n      0x1f\n      add\n      0x20\n      dup1\n      swap2\n      div\n      mul\n      0x20\n      add\n      mload(0x40)\n      swap1\n      dup2\n      add\n      0x40\n      mstore\n      dup1\n      swap3\n      swap2\n      swap1\n      dup2\n      dup2\n      mstore\n      0x20\n      add\n      dup3\n      dup1\n      sload\n      tag_339\n      swap1\n      tag_260\n      jump\t// in\n    tag_339:\n      dup1\n      iszero\n      tag_340\n      jumpi\n      dup1\n      0x1f\n      lt\n      tag_341\n      jumpi\n      0x0100\n      dup1\n      dup4\n      sload\n      div\n      mul\n      dup4\n      mstore\n      swap2\n      0x20\n      add\n      swap2\n      jump(tag_340)\n    tag_341:\n      dup3\n      add\n      swap2\n      swap1\n      0x00\n      mstore\n      keccak256(0x00, 0x20)\n      swap1\n    tag_342:\n      dup2\n      sload\n      dup2\n      mstore\n      swap1\n      0x01\n      add\n      swap1\n      0x20\n      add\n      dup1\n      dup4\n      gt\n      tag_342\n      jumpi\n      dup3\n      swap1\n      sub\n      0x1f\n      and\n      dup3\n      add\n      swap2\n    tag_340:\n      pop\n      pop\n      pop\n      pop\n      pop\n        /* \"/home/rocha/Proyects/Solidity/F1Bet/ethereum/contracts/F1.sol\":3532:3550  checkStingEquality */\n      tag_280\n        /* \"/home/rocha/Proyects/Solidity/F1Bet/ethereum/contracts/F1.sol\":3532:3593  checkStingEquality(contestantPrediction[j-1],constructors[j]) */\n      jump\t// in\n    tag_330:\n        /* \"/home/rocha/Proyects/Solidity/F1Bet/ethereum/contracts/F1.sol\":3532:3658  checkStingEquality(contestantPrediction[j-1],constructors[j]) || checkStingEquality(contestantPrediction[j+1],constructors[j]) */\n      dup1\n      tag_343\n      jumpi\n      pop\n        /* \"/home/rocha/Proyects/Solidity/F1Bet/ethereum/contracts/F1.sol\":3597:3658  checkStingEquality(contestantPrediction[j+1],constructors[j]) */\n      tag_344\n        /* \"/home/rocha/Proyects/Solidity/F1Bet/ethereum/contracts/F1.sol\":3616:3636  contestantPrediction */\n      dup4\n        /* \"/home/rocha/Proyects/Solidity/F1Bet/ethereum/contracts/F1.sol\":3639:3640  1 */\n      0x01\n        /* \"/home/rocha/Proyects/Solidity/F1Bet/ethereum/contracts/F1.sol\":3637:3638  j */\n      dup4\n        /* \"/home/rocha/Proyects/Solidity/F1Bet/ethereum/contracts/F1.sol\":3637:3640  j+1 */\n      tag_345\n      swap2\n      swap1\n      tag_286\n      jump\t// in\n    tag_345:\n        /* \"/home/rocha/Proyects/Solidity/F1Bet/ethereum/contracts/F1.sol\":3616:3641  contestantPrediction[j+1] */\n      0xff\n      and\n      dup2\n      mload\n      dup2\n      lt\n      tag_346\n      jumpi\n      tag_347\n      tag_103\n      jump\t// in\n    tag_347:\n    tag_346:\n      0x20\n      mul\n      0x20\n      add\n      add\n      mload\n        /* \"/home/rocha/Proyects/Solidity/F1Bet/ethereum/contracts/F1.sol\":3642:3654  constructors */\n      0x04\n        /* \"/home/rocha/Proyects/Solidity/F1Bet/ethereum/contracts/F1.sol\":3655:3656  j */\n      dup4\n        /* \"/home/rocha/Proyects/Solidity/F1Bet/ethereum/contracts/F1.sol\":3642:3657  constructors[j] */\n      0xff\n      and\n      dup2\n      sload\n      dup2\n      lt\n      tag_348\n      jumpi\n      tag_349\n      tag_103\n      jump\t// in\n    tag_349:\n    tag_348:\n      swap1\n      0x00\n      mstore\n      keccak256(0x00, 0x20)\n      add\n        /* \"/home/rocha/Proyects/Solidity/F1Bet/ethereum/contracts/F1.sol\":3597:3658  checkStingEquality(contestantPrediction[j+1],constructors[j]) */\n      dup1\n      sload\n      tag_351\n      swap1\n      tag_260\n      jump\t// in\n    tag_351:\n      dup1\n      0x1f\n      add\n      0x20\n      dup1\n      swap2\n      div\n      mul\n      0x20\n      add\n      mload(0x40)\n      swap1\n      dup2\n      add\n      0x40\n      mstore\n      dup1\n      swap3\n      swap2\n      swap1\n      dup2\n      dup2\n      mstore\n      0x20\n      add\n      dup3\n      dup1\n      sload\n      tag_352\n      swap1\n      tag_260\n      jump\t// in\n    tag_352:\n      dup1\n      iszero\n      tag_353\n      jumpi\n      dup1\n      0x1f\n      lt\n      tag_354\n      jumpi\n      0x0100\n      dup1\n      dup4\n      sload\n      div\n      mul\n      dup4\n      mstore\n      swap2\n      0x20\n      add\n      swap2\n      jump(tag_353)\n    tag_354:\n      dup3\n      add\n      swap2\n      swap1\n      0x00\n      mstore\n      keccak256(0x00, 0x20)\n      swap1\n    tag_355:\n      dup2\n      sload\n      dup2\n      mstore\n      swap1\n      0x01\n      add\n      swap1\n      0x20\n      add\n      dup1\n      dup4\n      gt\n      tag_355\n      jumpi\n      dup3\n      swap1\n      sub\n      0x1f\n      and\n      dup3\n      add\n      swap2\n    tag_353:\n      pop\n      pop\n      pop\n      pop\n      pop\n        /* \"/home/rocha/Proyects/Solidity/F1Bet/ethereum/contracts/F1.sol\":3597:3615  checkStingEquality */\n      tag_280\n        /* \"/home/rocha/Proyects/Solidity/F1Bet/ethereum/contracts/F1.sol\":3597:3658  checkStingEquality(contestantPrediction[j+1],constructors[j]) */\n      jump\t// in\n    tag_344:\n        /* \"/home/rocha/Proyects/Solidity/F1Bet/ethereum/contracts/F1.sol\":3532:3658  checkStingEquality(contestantPrediction[j-1],constructors[j]) || checkStingEquality(contestantPrediction[j+1],constructors[j]) */\n    tag_343:\n        /* \"/home/rocha/Proyects/Solidity/F1Bet/ethereum/contracts/F1.sol\":3529:3867  if(checkStingEquality(contestantPrediction[j-1],constructors[j]) || checkStingEquality(contestantPrediction[j+1],constructors[j])){... */\n      iszero\n      tag_356\n      jumpi\n        /* \"/home/rocha/Proyects/Solidity/F1Bet/ethereum/contracts/F1.sol\":3693:3694  3 */\n      0x03\n        /* \"/home/rocha/Proyects/Solidity/F1Bet/ethereum/contracts/F1.sol\":3685:3694  points+=3 */\n      dup3\n      tag_357\n      swap2\n      swap1\n      tag_186\n      jump\t// in\n    tag_357:\n      swap2\n      pop\n        /* \"/home/rocha/Proyects/Solidity/F1Bet/ethereum/contracts/F1.sol\":3529:3867  if(checkStingEquality(contestantPrediction[j-1],constructors[j]) || checkStingEquality(contestantPrediction[j+1],constructors[j])){... */\n      jump(tag_358)\n    tag_356:\n        /* \"/home/rocha/Proyects/Solidity/F1Bet/ethereum/contracts/F1.sol\":3747:3808  checkStingEquality(contestantPrediction[j+2],constructors[j]) */\n      tag_359\n        /* \"/home/rocha/Proyects/Solidity/F1Bet/ethereum/contracts/F1.sol\":3766:3786  contestantPrediction */\n      dup4\n        /* \"/home/rocha/Proyects/Solidity/F1Bet/ethereum/contracts/F1.sol\":3789:3790  2 */\n      0x02\n        /* \"/home/rocha/Proyects/Solidity/F1Bet/ethereum/contracts/F1.sol\":3787:3788  j */\n      dup4\n        /* \"/home/rocha/Proyects/Solidity/F1Bet/ethereum/contracts/F1.sol\":3787:3790  j+2 */\n      tag_360\n      swap2\n      swap1\n      tag_286\n      jump\t// in\n    tag_360:\n        /* \"/home/rocha/Proyects/Solidity/F1Bet/ethereum/contracts/F1.sol\":3766:3791  contestantPrediction[j+2] */\n      0xff\n      and\n      dup2\n      mload\n      dup2\n      lt\n      tag_361\n      jumpi\n      tag_362\n      tag_103\n      jump\t// in\n    tag_362:\n    tag_361:\n      0x20\n      mul\n      0x20\n      add\n      add\n      mload\n        /* \"/home/rocha/Proyects/Solidity/F1Bet/ethereum/contracts/F1.sol\":3792:3804  constructors */\n      0x04\n        /* \"/home/rocha/Proyects/Solidity/F1Bet/ethereum/contracts/F1.sol\":3805:3806  j */\n      dup4\n        /* \"/home/rocha/Proyects/Solidity/F1Bet/ethereum/contracts/F1.sol\":3792:3807  constructors[j] */\n      0xff\n      and\n      dup2\n      sload\n      dup2\n      lt\n      tag_363\n      jumpi\n      tag_364\n      tag_103\n      jump\t// in\n    tag_364:\n    tag_363:\n      swap1\n      0x00\n      mstore\n      keccak256(0x00, 0x20)\n      add\n        /* \"/home/rocha/Proyects/Solidity/F1Bet/ethereum/contracts/F1.sol\":3747:3808  checkStingEquality(contestantPrediction[j+2],constructors[j]) */\n      dup1\n      sload\n      tag_366\n      swap1\n      tag_260\n      jump\t// in\n    tag_366:\n      dup1\n      0x1f\n      add\n      0x20\n      dup1\n      swap2\n      div\n      mul\n      0x20\n      add\n      mload(0x40)\n      swap1\n      dup2\n      add\n      0x40\n      mstore\n      dup1\n      swap3\n      swap2\n      swap1\n      dup2\n      dup2\n      mstore\n      0x20\n      add\n      dup3\n      dup1\n      sload\n      tag_367\n      swap1\n      tag_260\n      jump\t// in\n    tag_367:\n      dup1\n      iszero\n      tag_368\n      jumpi\n      dup1\n      0x1f\n      lt\n      tag_369\n      jumpi\n      0x0100\n      dup1\n      dup4\n      sload\n      div\n      mul\n      dup4\n      mstore\n      swap2\n      0x20\n      add\n      swap2\n      jump(tag_368)\n    tag_369:\n      dup3\n      add\n      swap2\n      swap1\n      0x00\n      mstore\n      keccak256(0x00, 0x20)\n      swap1\n    tag_370:\n      dup2\n      sload\n      dup2\n      mstore\n      swap1\n      0x01\n      add\n      swap1\n      0x20\n      add\n      dup1\n      dup4\n      gt\n      tag_370\n      jumpi\n      dup3\n      swap1\n      sub\n      0x1f\n      and\n      dup3\n      add\n      swap2\n    tag_368:\n      pop\n      pop\n      pop\n      pop\n      pop\n        /* \"/home/rocha/Proyects/Solidity/F1Bet/ethereum/contracts/F1.sol\":3747:3765  checkStingEquality */\n      tag_280\n        /* \"/home/rocha/Proyects/Solidity/F1Bet/ethereum/contracts/F1.sol\":3747:3808  checkStingEquality(contestantPrediction[j+2],constructors[j]) */\n      jump\t// in\n    tag_359:\n        /* \"/home/rocha/Proyects/Solidity/F1Bet/ethereum/contracts/F1.sol\":3743:3867  if( checkStingEquality(contestantPrediction[j+2],constructors[j])){... */\n      iszero\n      tag_371\n      jumpi\n        /* \"/home/rocha/Proyects/Solidity/F1Bet/ethereum/contracts/F1.sol\":3843:3844  1 */\n      0x01\n        /* \"/home/rocha/Proyects/Solidity/F1Bet/ethereum/contracts/F1.sol\":3835:3844  points+=1 */\n      dup3\n      tag_372\n      swap2\n      swap1\n      tag_186\n      jump\t// in\n    tag_372:\n      swap2\n      pop\n        /* \"/home/rocha/Proyects/Solidity/F1Bet/ethereum/contracts/F1.sol\":3743:3867  if( checkStingEquality(contestantPrediction[j+2],constructors[j])){... */\n    tag_371:\n        /* \"/home/rocha/Proyects/Solidity/F1Bet/ethereum/contracts/F1.sol\":3529:3867  if(checkStingEquality(contestantPrediction[j-1],constructors[j]) || checkStingEquality(contestantPrediction[j+1],constructors[j])){... */\n    tag_358:\n        /* \"/home/rocha/Proyects/Solidity/F1Bet/ethereum/contracts/F1.sol\":3402:3867  if(checkStingEquality(contestantPrediction[j],constructors[j])){... */\n    tag_329:\n        /* \"/home/rocha/Proyects/Solidity/F1Bet/ethereum/contracts/F1.sol\":3373:5467  if(j<2){... */\n      jump(tag_373)\n    tag_315:\n        /* \"/home/rocha/Proyects/Solidity/F1Bet/ethereum/contracts/F1.sol\":3916:3917  2 */\n      0x02\n        /* \"/home/rocha/Proyects/Solidity/F1Bet/ethereum/contracts/F1.sol\":3896:3908  constructors */\n      0x04\n        /* \"/home/rocha/Proyects/Solidity/F1Bet/ethereum/contracts/F1.sol\":3896:3915  constructors.length */\n      dup1\n      sload\n      swap1\n      pop\n        /* \"/home/rocha/Proyects/Solidity/F1Bet/ethereum/contracts/F1.sol\":3896:3917  constructors.length-2 */\n      tag_374\n      swap2\n      swap1\n      tag_375\n      jump\t// in\n    tag_374:\n        /* \"/home/rocha/Proyects/Solidity/F1Bet/ethereum/contracts/F1.sol\":3893:3894  j */\n      dup2\n        /* \"/home/rocha/Proyects/Solidity/F1Bet/ethereum/contracts/F1.sol\":3893:3917  j==constructors.length-2 */\n      0xff\n      and\n      eq\n        /* \"/home/rocha/Proyects/Solidity/F1Bet/ethereum/contracts/F1.sol\":3890:5467  if(j==constructors.length-2){... */\n      iszero\n      tag_376\n      jumpi\n        /* \"/home/rocha/Proyects/Solidity/F1Bet/ethereum/contracts/F1.sol\":3943:4002  checkStingEquality(contestantPrediction[j],constructors[j]) */\n      tag_377\n        /* \"/home/rocha/Proyects/Solidity/F1Bet/ethereum/contracts/F1.sol\":3962:3982  contestantPrediction */\n      dup4\n        /* \"/home/rocha/Proyects/Solidity/F1Bet/ethereum/contracts/F1.sol\":3983:3984  j */\n      dup3\n        /* \"/home/rocha/Proyects/Solidity/F1Bet/ethereum/contracts/F1.sol\":3962:3985  contestantPrediction[j] */\n      0xff\n      and\n      dup2\n      mload\n      dup2\n      lt\n      tag_378\n      jumpi\n      tag_379\n      tag_103\n      jump\t// in\n    tag_379:\n    tag_378:\n      0x20\n      mul\n      0x20\n      add\n      add\n      mload\n        /* \"/home/rocha/Proyects/Solidity/F1Bet/ethereum/contracts/F1.sol\":3986:3998  constructors */\n      0x04\n        /* \"/home/rocha/Proyects/Solidity/F1Bet/ethereum/contracts/F1.sol\":3999:4000  j */\n      dup4\n        /* \"/home/rocha/Proyects/Solidity/F1Bet/ethereum/contracts/F1.sol\":3986:4001  constructors[j] */\n      0xff\n      and\n      dup2\n      sload\n      dup2\n      lt\n      tag_380\n      jumpi\n      tag_381\n      tag_103\n      jump\t// in\n    tag_381:\n    tag_380:\n      swap1\n      0x00\n      mstore\n      keccak256(0x00, 0x20)\n      add\n        /* \"/home/rocha/Proyects/Solidity/F1Bet/ethereum/contracts/F1.sol\":3943:4002  checkStingEquality(contestantPrediction[j],constructors[j]) */\n      dup1\n      sload\n      tag_383\n      swap1\n      tag_260\n      jump\t// in\n    tag_383:\n      dup1\n      0x1f\n      add\n      0x20\n      dup1\n      swap2\n      div\n      mul\n      0x20\n      add\n      mload(0x40)\n      swap1\n      dup2\n      add\n      0x40\n      mstore\n      dup1\n      swap3\n      swap2\n      swap1\n      dup2\n      dup2\n      mstore\n      0x20\n      add\n      dup3\n      dup1\n      sload\n      tag_384\n      swap1\n      tag_260\n      jump\t// in\n    tag_384:\n      dup1\n      iszero\n      tag_385\n      jumpi\n      dup1\n      0x1f\n      lt\n      tag_386\n      jumpi\n      0x0100\n      dup1\n      dup4\n      sload\n      div\n      mul\n      dup4\n      mstore\n      swap2\n      0x20\n      add\n      swap2\n      jump(tag_385)\n    tag_386:\n      dup3\n      add\n      swap2\n      swap1\n      0x00\n      mstore\n      keccak256(0x00, 0x20)\n      swap1\n    tag_387:\n      dup2\n      sload\n      dup2\n      mstore\n      swap1\n      0x01\n      add\n      swap1\n      0x20\n      add\n      dup1\n      dup4\n      gt\n      tag_387\n      jumpi\n      dup3\n      swap1\n      sub\n      0x1f\n      and\n      dup3\n      add\n      swap2\n    tag_385:\n      pop\n      pop\n      pop\n      pop\n      pop\n        /* \"/home/rocha/Proyects/Solidity/F1Bet/ethereum/contracts/F1.sol\":3943:3961  checkStingEquality */\n      tag_280\n        /* \"/home/rocha/Proyects/Solidity/F1Bet/ethereum/contracts/F1.sol\":3943:4002  checkStingEquality(contestantPrediction[j],constructors[j]) */\n      jump\t// in\n    tag_377:\n        /* \"/home/rocha/Proyects/Solidity/F1Bet/ethereum/contracts/F1.sol\":3940:4404  if(checkStingEquality(contestantPrediction[j],constructors[j])){... */\n      iszero\n      tag_388\n      jumpi\n        /* \"/home/rocha/Proyects/Solidity/F1Bet/ethereum/contracts/F1.sol\":4038:4039  5 */\n      0x05\n        /* \"/home/rocha/Proyects/Solidity/F1Bet/ethereum/contracts/F1.sol\":4029:4039  points+= 5 */\n      dup3\n      tag_389\n      swap2\n      swap1\n      tag_186\n      jump\t// in\n    tag_389:\n      swap2\n      pop\n        /* \"/home/rocha/Proyects/Solidity/F1Bet/ethereum/contracts/F1.sol\":3940:4404  if(checkStingEquality(contestantPrediction[j],constructors[j])){... */\n      jump(tag_390)\n    tag_388:\n        /* \"/home/rocha/Proyects/Solidity/F1Bet/ethereum/contracts/F1.sol\":4070:4131  checkStingEquality(contestantPrediction[j-1],constructors[j]) */\n      tag_391\n        /* \"/home/rocha/Proyects/Solidity/F1Bet/ethereum/contracts/F1.sol\":4089:4109  contestantPrediction */\n      dup4\n        /* \"/home/rocha/Proyects/Solidity/F1Bet/ethereum/contracts/F1.sol\":4112:4113  1 */\n      0x01\n        /* \"/home/rocha/Proyects/Solidity/F1Bet/ethereum/contracts/F1.sol\":4110:4111  j */\n      dup4\n        /* \"/home/rocha/Proyects/Solidity/F1Bet/ethereum/contracts/F1.sol\":4110:4113  j-1 */\n      tag_392\n      swap2\n      swap1\n      tag_332\n      jump\t// in\n    tag_392:\n        /* \"/home/rocha/Proyects/Solidity/F1Bet/ethereum/contracts/F1.sol\":4089:4114  contestantPrediction[j-1] */\n      0xff\n      and\n      dup2\n      mload\n      dup2\n      lt\n      tag_393\n      jumpi\n      tag_394\n      tag_103\n      jump\t// in\n    tag_394:\n    tag_393:\n      0x20\n      mul\n      0x20\n      add\n      add\n      mload\n        /* \"/home/rocha/Proyects/Solidity/F1Bet/ethereum/contracts/F1.sol\":4115:4127  constructors */\n      0x04\n        /* \"/home/rocha/Proyects/Solidity/F1Bet/ethereum/contracts/F1.sol\":4128:4129  j */\n      dup4\n        /* \"/home/rocha/Proyects/Solidity/F1Bet/ethereum/contracts/F1.sol\":4115:4130  constructors[j] */\n      0xff\n      and\n      dup2\n      sload\n      dup2\n      lt\n      tag_395\n      jumpi\n      tag_396\n      tag_103\n      jump\t// in\n    tag_396:\n    tag_395:\n      swap1\n      0x00\n      mstore\n      keccak256(0x00, 0x20)\n      add\n        /* \"/home/rocha/Proyects/Solidity/F1Bet/ethereum/contracts/F1.sol\":4070:4131  checkStingEquality(contestantPrediction[j-1],constructors[j]) */\n      dup1\n      sload\n      tag_398\n      swap1\n      tag_260\n      jump\t// in\n    tag_398:\n      dup1\n      0x1f\n      add\n      0x20\n      dup1\n      swap2\n      div\n      mul\n      0x20\n      add\n      mload(0x40)\n      swap1\n      dup2\n      add\n      0x40\n      mstore\n      dup1\n      swap3\n      swap2\n      swap1\n      dup2\n      dup2\n      mstore\n      0x20\n      add\n      dup3\n      dup1\n      sload\n      tag_399\n      swap1\n      tag_260\n      jump\t// in\n    tag_399:\n      dup1\n      iszero\n      tag_400\n      jumpi\n      dup1\n      0x1f\n      lt\n      tag_401\n      jumpi\n      0x0100\n      dup1\n      dup4\n      sload\n      div\n      mul\n      dup4\n      mstore\n      swap2\n      0x20\n      add\n      swap2\n      jump(tag_400)\n    tag_401:\n      dup3\n      add\n      swap2\n      swap1\n      0x00\n      mstore\n      keccak256(0x00, 0x20)\n      swap1\n    tag_402:\n      dup2\n      sload\n      dup2\n      mstore\n      swap1\n      0x01\n      add\n      swap1\n      0x20\n      add\n      dup1\n      dup4\n      gt\n      tag_402\n      jumpi\n      dup3\n      swap1\n      sub\n      0x1f\n      and\n      dup3\n      add\n      swap2\n    tag_400:\n      pop\n      pop\n      pop\n      pop\n      pop\n        /* \"/home/rocha/Proyects/Solidity/F1Bet/ethereum/contracts/F1.sol\":4070:4088  checkStingEquality */\n      tag_280\n        /* \"/home/rocha/Proyects/Solidity/F1Bet/ethereum/contracts/F1.sol\":4070:4131  checkStingEquality(contestantPrediction[j-1],constructors[j]) */\n      jump\t// in\n    tag_391:\n        /* \"/home/rocha/Proyects/Solidity/F1Bet/ethereum/contracts/F1.sol\":4070:4196  checkStingEquality(contestantPrediction[j-1],constructors[j]) || checkStingEquality(contestantPrediction[j+1],constructors[j]) */\n      dup1\n      tag_403\n      jumpi\n      pop\n        /* \"/home/rocha/Proyects/Solidity/F1Bet/ethereum/contracts/F1.sol\":4135:4196  checkStingEquality(contestantPrediction[j+1],constructors[j]) */\n      tag_404\n        /* \"/home/rocha/Proyects/Solidity/F1Bet/ethereum/contracts/F1.sol\":4154:4174  contestantPrediction */\n      dup4\n        /* \"/home/rocha/Proyects/Solidity/F1Bet/ethereum/contracts/F1.sol\":4177:4178  1 */\n      0x01\n        /* \"/home/rocha/Proyects/Solidity/F1Bet/ethereum/contracts/F1.sol\":4175:4176  j */\n      dup4\n        /* \"/home/rocha/Proyects/Solidity/F1Bet/ethereum/contracts/F1.sol\":4175:4178  j+1 */\n      tag_405\n      swap2\n      swap1\n      tag_286\n      jump\t// in\n    tag_405:\n        /* \"/home/rocha/Proyects/Solidity/F1Bet/ethereum/contracts/F1.sol\":4154:4179  contestantPrediction[j+1] */\n      0xff\n      and\n      dup2\n      mload\n      dup2\n      lt\n      tag_406\n      jumpi\n      tag_407\n      tag_103\n      jump\t// in\n    tag_407:\n    tag_406:\n      0x20\n      mul\n      0x20\n      add\n      add\n      mload\n        /* \"/home/rocha/Proyects/Solidity/F1Bet/ethereum/contracts/F1.sol\":4180:4192  constructors */\n      0x04\n        /* \"/home/rocha/Proyects/Solidity/F1Bet/ethereum/contracts/F1.sol\":4193:4194  j */\n      dup4\n        /* \"/home/rocha/Proyects/Solidity/F1Bet/ethereum/contracts/F1.sol\":4180:4195  constructors[j] */\n      0xff\n      and\n      dup2\n      sload\n      dup2\n      lt\n      tag_408\n      jumpi\n      tag_409\n      tag_103\n      jump\t// in\n    tag_409:\n    tag_408:\n      swap1\n      0x00\n      mstore\n      keccak256(0x00, 0x20)\n      add\n        /* \"/home/rocha/Proyects/Solidity/F1Bet/ethereum/contracts/F1.sol\":4135:4196  checkStingEquality(contestantPrediction[j+1],constructors[j]) */\n      dup1\n      sload\n      tag_411\n      swap1\n      tag_260\n      jump\t// in\n    tag_411:\n      dup1\n      0x1f\n      add\n      0x20\n      dup1\n      swap2\n      div\n      mul\n      0x20\n      add\n      mload(0x40)\n      swap1\n      dup2\n      add\n      0x40\n      mstore\n      dup1\n      swap3\n      swap2\n      swap1\n      dup2\n      dup2\n      mstore\n      0x20\n      add\n      dup3\n      dup1\n      sload\n      tag_412\n      swap1\n      tag_260\n      jump\t// in\n    tag_412:\n      dup1\n      iszero\n      tag_413\n      jumpi\n      dup1\n      0x1f\n      lt\n      tag_414\n      jumpi\n      0x0100\n      dup1\n      dup4\n      sload\n      div\n      mul\n      dup4\n      mstore\n      swap2\n      0x20\n      add\n      swap2\n      jump(tag_413)\n    tag_414:\n      dup3\n      add\n      swap2\n      swap1\n      0x00\n      mstore\n      keccak256(0x00, 0x20)\n      swap1\n    tag_415:\n      dup2\n      sload\n      dup2\n      mstore\n      swap1\n      0x01\n      add\n      swap1\n      0x20\n      add\n      dup1\n      dup4\n      gt\n      tag_415\n      jumpi\n      dup3\n      swap1\n      sub\n      0x1f\n      and\n      dup3\n      add\n      swap2\n    tag_413:\n      pop\n      pop\n      pop\n      pop\n      pop\n        /* \"/home/rocha/Proyects/Solidity/F1Bet/ethereum/contracts/F1.sol\":4135:4153  checkStingEquality */\n      tag_280\n        /* \"/home/rocha/Proyects/Solidity/F1Bet/ethereum/contracts/F1.sol\":4135:4196  checkStingEquality(contestantPrediction[j+1],constructors[j]) */\n      jump\t// in\n    tag_404:\n        /* \"/home/rocha/Proyects/Solidity/F1Bet/ethereum/contracts/F1.sol\":4070:4196  checkStingEquality(contestantPrediction[j-1],constructors[j]) || checkStingEquality(contestantPrediction[j+1],constructors[j]) */\n    tag_403:\n        /* \"/home/rocha/Proyects/Solidity/F1Bet/ethereum/contracts/F1.sol\":4067:4404  if(checkStingEquality(contestantPrediction[j-1],constructors[j]) || checkStingEquality(contestantPrediction[j+1],constructors[j])){... */\n      iszero\n      tag_416\n      jumpi\n        /* \"/home/rocha/Proyects/Solidity/F1Bet/ethereum/contracts/F1.sol\":4231:4232  3 */\n      0x03\n        /* \"/home/rocha/Proyects/Solidity/F1Bet/ethereum/contracts/F1.sol\":4223:4232  points+=3 */\n      dup3\n      tag_417\n      swap2\n      swap1\n      tag_186\n      jump\t// in\n    tag_417:\n      swap2\n      pop\n        /* \"/home/rocha/Proyects/Solidity/F1Bet/ethereum/contracts/F1.sol\":4067:4404  if(checkStingEquality(contestantPrediction[j-1],constructors[j]) || checkStingEquality(contestantPrediction[j+1],constructors[j])){... */\n      jump(tag_418)\n    tag_416:\n        /* \"/home/rocha/Proyects/Solidity/F1Bet/ethereum/contracts/F1.sol\":4284:4345  checkStingEquality(contestantPrediction[j-2],constructors[j]) */\n      tag_419\n        /* \"/home/rocha/Proyects/Solidity/F1Bet/ethereum/contracts/F1.sol\":4303:4323  contestantPrediction */\n      dup4\n        /* \"/home/rocha/Proyects/Solidity/F1Bet/ethereum/contracts/F1.sol\":4326:4327  2 */\n      0x02\n        /* \"/home/rocha/Proyects/Solidity/F1Bet/ethereum/contracts/F1.sol\":4324:4325  j */\n      dup4\n        /* \"/home/rocha/Proyects/Solidity/F1Bet/ethereum/contracts/F1.sol\":4324:4327  j-2 */\n      tag_420\n      swap2\n      swap1\n      tag_332\n      jump\t// in\n    tag_420:\n        /* \"/home/rocha/Proyects/Solidity/F1Bet/ethereum/contracts/F1.sol\":4303:4328  contestantPrediction[j-2] */\n      0xff\n      and\n      dup2\n      mload\n      dup2\n      lt\n      tag_421\n      jumpi\n      tag_422\n      tag_103\n      jump\t// in\n    tag_422:\n    tag_421:\n      0x20\n      mul\n      0x20\n      add\n      add\n      mload\n        /* \"/home/rocha/Proyects/Solidity/F1Bet/ethereum/contracts/F1.sol\":4329:4341  constructors */\n      0x04\n        /* \"/home/rocha/Proyects/Solidity/F1Bet/ethereum/contracts/F1.sol\":4342:4343  j */\n      dup4\n        /* \"/home/rocha/Proyects/Solidity/F1Bet/ethereum/contracts/F1.sol\":4329:4344  constructors[j] */\n      0xff\n      and\n      dup2\n      sload\n      dup2\n      lt\n      tag_423\n      jumpi\n      tag_424\n      tag_103\n      jump\t// in\n    tag_424:\n    tag_423:\n      swap1\n      0x00\n      mstore\n      keccak256(0x00, 0x20)\n      add\n        /* \"/home/rocha/Proyects/Solidity/F1Bet/ethereum/contracts/F1.sol\":4284:4345  checkStingEquality(contestantPrediction[j-2],constructors[j]) */\n      dup1\n      sload\n      tag_426\n      swap1\n      tag_260\n      jump\t// in\n    tag_426:\n      dup1\n      0x1f\n      add\n      0x20\n      dup1\n      swap2\n      div\n      mul\n      0x20\n      add\n      mload(0x40)\n      swap1\n      dup2\n      add\n      0x40\n      mstore\n      dup1\n      swap3\n      swap2\n      swap1\n      dup2\n      dup2\n      mstore\n      0x20\n      add\n      dup3\n      dup1\n      sload\n      tag_427\n      swap1\n      tag_260\n      jump\t// in\n    tag_427:\n      dup1\n      iszero\n      tag_428\n      jumpi\n      dup1\n      0x1f\n      lt\n      tag_429\n      jumpi\n      0x0100\n      dup1\n      dup4\n      sload\n      div\n      mul\n      dup4\n      mstore\n      swap2\n      0x20\n      add\n      swap2\n      jump(tag_428)\n    tag_429:\n      dup3\n      add\n      swap2\n      swap1\n      0x00\n      mstore\n      keccak256(0x00, 0x20)\n      swap1\n    tag_430:\n      dup2\n      sload\n      dup2\n      mstore\n      swap1\n      0x01\n      add\n      swap1\n      0x20\n      add\n      dup1\n      dup4\n      gt\n      tag_430\n      jumpi\n      dup3\n      swap1\n      sub\n      0x1f\n      and\n      dup3\n      add\n      swap2\n    tag_428:\n      pop\n      pop\n      pop\n      pop\n      pop\n        /* \"/home/rocha/Proyects/Solidity/F1Bet/ethereum/contracts/F1.sol\":4284:4302  checkStingEquality */\n      tag_280\n        /* \"/home/rocha/Proyects/Solidity/F1Bet/ethereum/contracts/F1.sol\":4284:4345  checkStingEquality(contestantPrediction[j-2],constructors[j]) */\n      jump\t// in\n    tag_419:\n        /* \"/home/rocha/Proyects/Solidity/F1Bet/ethereum/contracts/F1.sol\":4281:4404  if(checkStingEquality(contestantPrediction[j-2],constructors[j])){... */\n      iszero\n      tag_431\n      jumpi\n        /* \"/home/rocha/Proyects/Solidity/F1Bet/ethereum/contracts/F1.sol\":4380:4381  1 */\n      0x01\n        /* \"/home/rocha/Proyects/Solidity/F1Bet/ethereum/contracts/F1.sol\":4372:4381  points+=1 */\n      dup3\n      tag_432\n      swap2\n      swap1\n      tag_186\n      jump\t// in\n    tag_432:\n      swap2\n      pop\n        /* \"/home/rocha/Proyects/Solidity/F1Bet/ethereum/contracts/F1.sol\":4281:4404  if(checkStingEquality(contestantPrediction[j-2],constructors[j])){... */\n    tag_431:\n        /* \"/home/rocha/Proyects/Solidity/F1Bet/ethereum/contracts/F1.sol\":4067:4404  if(checkStingEquality(contestantPrediction[j-1],constructors[j]) || checkStingEquality(contestantPrediction[j+1],constructors[j])){... */\n    tag_418:\n        /* \"/home/rocha/Proyects/Solidity/F1Bet/ethereum/contracts/F1.sol\":3940:4404  if(checkStingEquality(contestantPrediction[j],constructors[j])){... */\n    tag_390:\n        /* \"/home/rocha/Proyects/Solidity/F1Bet/ethereum/contracts/F1.sol\":3890:5467  if(j==constructors.length-2){... */\n      jump(tag_433)\n    tag_376:\n        /* \"/home/rocha/Proyects/Solidity/F1Bet/ethereum/contracts/F1.sol\":4453:4454  1 */\n      0x01\n        /* \"/home/rocha/Proyects/Solidity/F1Bet/ethereum/contracts/F1.sol\":4433:4445  constructors */\n      0x04\n        /* \"/home/rocha/Proyects/Solidity/F1Bet/ethereum/contracts/F1.sol\":4433:4452  constructors.length */\n      dup1\n      sload\n      swap1\n      pop\n        /* \"/home/rocha/Proyects/Solidity/F1Bet/ethereum/contracts/F1.sol\":4433:4454  constructors.length-1 */\n      tag_434\n      swap2\n      swap1\n      tag_375\n      jump\t// in\n    tag_434:\n        /* \"/home/rocha/Proyects/Solidity/F1Bet/ethereum/contracts/F1.sol\":4430:4431  j */\n      dup2\n        /* \"/home/rocha/Proyects/Solidity/F1Bet/ethereum/contracts/F1.sol\":4430:4454  j==constructors.length-1 */\n      0xff\n      and\n      eq\n        /* \"/home/rocha/Proyects/Solidity/F1Bet/ethereum/contracts/F1.sol\":4427:5467  if(j==constructors.length-1){... */\n      iszero\n      tag_435\n      jumpi\n        /* \"/home/rocha/Proyects/Solidity/F1Bet/ethereum/contracts/F1.sol\":4480:4539  checkStingEquality(contestantPrediction[j],constructors[j]) */\n      tag_436\n        /* \"/home/rocha/Proyects/Solidity/F1Bet/ethereum/contracts/F1.sol\":4499:4519  contestantPrediction */\n      dup4\n        /* \"/home/rocha/Proyects/Solidity/F1Bet/ethereum/contracts/F1.sol\":4520:4521  j */\n      dup3\n        /* \"/home/rocha/Proyects/Solidity/F1Bet/ethereum/contracts/F1.sol\":4499:4522  contestantPrediction[j] */\n      0xff\n      and\n      dup2\n      mload\n      dup2\n      lt\n      tag_437\n      jumpi\n      tag_438\n      tag_103\n      jump\t// in\n    tag_438:\n    tag_437:\n      0x20\n      mul\n      0x20\n      add\n      add\n      mload\n        /* \"/home/rocha/Proyects/Solidity/F1Bet/ethereum/contracts/F1.sol\":4523:4535  constructors */\n      0x04\n        /* \"/home/rocha/Proyects/Solidity/F1Bet/ethereum/contracts/F1.sol\":4536:4537  j */\n      dup4\n        /* \"/home/rocha/Proyects/Solidity/F1Bet/ethereum/contracts/F1.sol\":4523:4538  constructors[j] */\n      0xff\n      and\n      dup2\n      sload\n      dup2\n      lt\n      tag_439\n      jumpi\n      tag_440\n      tag_103\n      jump\t// in\n    tag_440:\n    tag_439:\n      swap1\n      0x00\n      mstore\n      keccak256(0x00, 0x20)\n      add\n        /* \"/home/rocha/Proyects/Solidity/F1Bet/ethereum/contracts/F1.sol\":4480:4539  checkStingEquality(contestantPrediction[j],constructors[j]) */\n      dup1\n      sload\n      tag_442\n      swap1\n      tag_260\n      jump\t// in\n    tag_442:\n      dup1\n      0x1f\n      add\n      0x20\n      dup1\n      swap2\n      div\n      mul\n      0x20\n      add\n      mload(0x40)\n      swap1\n      dup2\n      add\n      0x40\n      mstore\n      dup1\n      swap3\n      swap2\n      swap1\n      dup2\n      dup2\n      mstore\n      0x20\n      add\n      dup3\n      dup1\n      sload\n      tag_443\n      swap1\n      tag_260\n      jump\t// in\n    tag_443:\n      dup1\n      iszero\n      tag_444\n      jumpi\n      dup1\n      0x1f\n      lt\n      tag_445\n      jumpi\n      0x0100\n      dup1\n      dup4\n      sload\n      div\n      mul\n      dup4\n      mstore\n      swap2\n      0x20\n      add\n      swap2\n      jump(tag_444)\n    tag_445:\n      dup3\n      add\n      swap2\n      swap1\n      0x00\n      mstore\n      keccak256(0x00, 0x20)\n      swap1\n    tag_446:\n      dup2\n      sload\n      dup2\n      mstore\n      swap1\n      0x01\n      add\n      swap1\n      0x20\n      add\n      dup1\n      dup4\n      gt\n      tag_446\n      jumpi\n      dup3\n      swap1\n      sub\n      0x1f\n      and\n      dup3\n      add\n      swap2\n    tag_444:\n      pop\n      pop\n      pop\n      pop\n      pop\n        /* \"/home/rocha/Proyects/Solidity/F1Bet/ethereum/contracts/F1.sol\":4480:4498  checkStingEquality */\n      tag_280\n        /* \"/home/rocha/Proyects/Solidity/F1Bet/ethereum/contracts/F1.sol\":4480:4539  checkStingEquality(contestantPrediction[j],constructors[j]) */\n      jump\t// in\n    tag_436:\n        /* \"/home/rocha/Proyects/Solidity/F1Bet/ethereum/contracts/F1.sol\":4477:4876  if(checkStingEquality(contestantPrediction[j],constructors[j])){... */\n      iszero\n      tag_447\n      jumpi\n        /* \"/home/rocha/Proyects/Solidity/F1Bet/ethereum/contracts/F1.sol\":4575:4576  5 */\n      0x05\n        /* \"/home/rocha/Proyects/Solidity/F1Bet/ethereum/contracts/F1.sol\":4566:4576  points+= 5 */\n      dup3\n      tag_448\n      swap2\n      swap1\n      tag_186\n      jump\t// in\n    tag_448:\n      swap2\n      pop\n        /* \"/home/rocha/Proyects/Solidity/F1Bet/ethereum/contracts/F1.sol\":4477:4876  if(checkStingEquality(contestantPrediction[j],constructors[j])){... */\n      jump(tag_449)\n    tag_447:\n        /* \"/home/rocha/Proyects/Solidity/F1Bet/ethereum/contracts/F1.sol\":4607:4668  checkStingEquality(contestantPrediction[j-1],constructors[j]) */\n      tag_450\n        /* \"/home/rocha/Proyects/Solidity/F1Bet/ethereum/contracts/F1.sol\":4626:4646  contestantPrediction */\n      dup4\n        /* \"/home/rocha/Proyects/Solidity/F1Bet/ethereum/contracts/F1.sol\":4649:4650  1 */\n      0x01\n        /* \"/home/rocha/Proyects/Solidity/F1Bet/ethereum/contracts/F1.sol\":4647:4648  j */\n      dup4\n        /* \"/home/rocha/Proyects/Solidity/F1Bet/ethereum/contracts/F1.sol\":4647:4650  j-1 */\n      tag_451\n      swap2\n      swap1\n      tag_332\n      jump\t// in\n    tag_451:\n        /* \"/home/rocha/Proyects/Solidity/F1Bet/ethereum/contracts/F1.sol\":4626:4651  contestantPrediction[j-1] */\n      0xff\n      and\n      dup2\n      mload\n      dup2\n      lt\n      tag_452\n      jumpi\n      tag_453\n      tag_103\n      jump\t// in\n    tag_453:\n    tag_452:\n      0x20\n      mul\n      0x20\n      add\n      add\n      mload\n        /* \"/home/rocha/Proyects/Solidity/F1Bet/ethereum/contracts/F1.sol\":4652:4664  constructors */\n      0x04\n        /* \"/home/rocha/Proyects/Solidity/F1Bet/ethereum/contracts/F1.sol\":4665:4666  j */\n      dup4\n        /* \"/home/rocha/Proyects/Solidity/F1Bet/ethereum/contracts/F1.sol\":4652:4667  constructors[j] */\n      0xff\n      and\n      dup2\n      sload\n      dup2\n      lt\n      tag_454\n      jumpi\n      tag_455\n      tag_103\n      jump\t// in\n    tag_455:\n    tag_454:\n      swap1\n      0x00\n      mstore\n      keccak256(0x00, 0x20)\n      add\n        /* \"/home/rocha/Proyects/Solidity/F1Bet/ethereum/contracts/F1.sol\":4607:4668  checkStingEquality(contestantPrediction[j-1],constructors[j]) */\n      dup1\n      sload\n      tag_457\n      swap1\n      tag_260\n      jump\t// in\n    tag_457:\n      dup1\n      0x1f\n      add\n      0x20\n      dup1\n      swap2\n      div\n      mul\n      0x20\n      add\n      mload(0x40)\n      swap1\n      dup2\n      add\n      0x40\n      mstore\n      dup1\n      swap3\n      swap2\n      swap1\n      dup2\n      dup2\n      mstore\n      0x20\n      add\n      dup3\n      dup1\n      sload\n      tag_458\n      swap1\n      tag_260\n      jump\t// in\n    tag_458:\n      dup1\n      iszero\n      tag_459\n      jumpi\n      dup1\n      0x1f\n      lt\n      tag_460\n      jumpi\n      0x0100\n      dup1\n      dup4\n      sload\n      div\n      mul\n      dup4\n      mstore\n      swap2\n      0x20\n      add\n      swap2\n      jump(tag_459)\n    tag_460:\n      dup3\n      add\n      swap2\n      swap1\n      0x00\n      mstore\n      keccak256(0x00, 0x20)\n      swap1\n    tag_461:\n      dup2\n      sload\n      dup2\n      mstore\n      swap1\n      0x01\n      add\n      swap1\n      0x20\n      add\n      dup1\n      dup4\n      gt\n      tag_461\n      jumpi\n      dup3\n      swap1\n      sub\n      0x1f\n      and\n      dup3\n      add\n      swap2\n    tag_459:\n      pop\n      pop\n      pop\n      pop\n      pop\n        /* \"/home/rocha/Proyects/Solidity/F1Bet/ethereum/contracts/F1.sol\":4607:4625  checkStingEquality */\n      tag_280\n        /* \"/home/rocha/Proyects/Solidity/F1Bet/ethereum/contracts/F1.sol\":4607:4668  checkStingEquality(contestantPrediction[j-1],constructors[j]) */\n      jump\t// in\n    tag_450:\n        /* \"/home/rocha/Proyects/Solidity/F1Bet/ethereum/contracts/F1.sol\":4604:4876  if(checkStingEquality(contestantPrediction[j-1],constructors[j])){... */\n      iszero\n      tag_462\n      jumpi\n        /* \"/home/rocha/Proyects/Solidity/F1Bet/ethereum/contracts/F1.sol\":4703:4704  3 */\n      0x03\n        /* \"/home/rocha/Proyects/Solidity/F1Bet/ethereum/contracts/F1.sol\":4695:4704  points+=3 */\n      dup3\n      tag_463\n      swap2\n      swap1\n      tag_186\n      jump\t// in\n    tag_463:\n      swap2\n      pop\n        /* \"/home/rocha/Proyects/Solidity/F1Bet/ethereum/contracts/F1.sol\":4604:4876  if(checkStingEquality(contestantPrediction[j-1],constructors[j])){... */\n      jump(tag_464)\n    tag_462:\n        /* \"/home/rocha/Proyects/Solidity/F1Bet/ethereum/contracts/F1.sol\":4756:4817  checkStingEquality(contestantPrediction[j-2],constructors[j]) */\n      tag_465\n        /* \"/home/rocha/Proyects/Solidity/F1Bet/ethereum/contracts/F1.sol\":4775:4795  contestantPrediction */\n      dup4\n        /* \"/home/rocha/Proyects/Solidity/F1Bet/ethereum/contracts/F1.sol\":4798:4799  2 */\n      0x02\n        /* \"/home/rocha/Proyects/Solidity/F1Bet/ethereum/contracts/F1.sol\":4796:4797  j */\n      dup4\n        /* \"/home/rocha/Proyects/Solidity/F1Bet/ethereum/contracts/F1.sol\":4796:4799  j-2 */\n      tag_466\n      swap2\n      swap1\n      tag_332\n      jump\t// in\n    tag_466:\n        /* \"/home/rocha/Proyects/Solidity/F1Bet/ethereum/contracts/F1.sol\":4775:4800  contestantPrediction[j-2] */\n      0xff\n      and\n      dup2\n      mload\n      dup2\n      lt\n      tag_467\n      jumpi\n      tag_468\n      tag_103\n      jump\t// in\n    tag_468:\n    tag_467:\n      0x20\n      mul\n      0x20\n      add\n      add\n      mload\n        /* \"/home/rocha/Proyects/Solidity/F1Bet/ethereum/contracts/F1.sol\":4801:4813  constructors */\n      0x04\n        /* \"/home/rocha/Proyects/Solidity/F1Bet/ethereum/contracts/F1.sol\":4814:4815  j */\n      dup4\n        /* \"/home/rocha/Proyects/Solidity/F1Bet/ethereum/contracts/F1.sol\":4801:4816  constructors[j] */\n      0xff\n      and\n      dup2\n      sload\n      dup2\n      lt\n      tag_469\n      jumpi\n      tag_470\n      tag_103\n      jump\t// in\n    tag_470:\n    tag_469:\n      swap1\n      0x00\n      mstore\n      keccak256(0x00, 0x20)\n      add\n        /* \"/home/rocha/Proyects/Solidity/F1Bet/ethereum/contracts/F1.sol\":4756:4817  checkStingEquality(contestantPrediction[j-2],constructors[j]) */\n      dup1\n      sload\n      tag_472\n      swap1\n      tag_260\n      jump\t// in\n    tag_472:\n      dup1\n      0x1f\n      add\n      0x20\n      dup1\n      swap2\n      div\n      mul\n      0x20\n      add\n      mload(0x40)\n      swap1\n      dup2\n      add\n      0x40\n      mstore\n      dup1\n      swap3\n      swap2\n      swap1\n      dup2\n      dup2\n      mstore\n      0x20\n      add\n      dup3\n      dup1\n      sload\n      tag_473\n      swap1\n      tag_260\n      jump\t// in\n    tag_473:\n      dup1\n      iszero\n      tag_474\n      jumpi\n      dup1\n      0x1f\n      lt\n      tag_475\n      jumpi\n      0x0100\n      dup1\n      dup4\n      sload\n      div\n      mul\n      dup4\n      mstore\n      swap2\n      0x20\n      add\n      swap2\n      jump(tag_474)\n    tag_475:\n      dup3\n      add\n      swap2\n      swap1\n      0x00\n      mstore\n      keccak256(0x00, 0x20)\n      swap1\n    tag_476:\n      dup2\n      sload\n      dup2\n      mstore\n      swap1\n      0x01\n      add\n      swap1\n      0x20\n      add\n      dup1\n      dup4\n      gt\n      tag_476\n      jumpi\n      dup3\n      swap1\n      sub\n      0x1f\n      and\n      dup3\n      add\n      swap2\n    tag_474:\n      pop\n      pop\n      pop\n      pop\n      pop\n        /* \"/home/rocha/Proyects/Solidity/F1Bet/ethereum/contracts/F1.sol\":4756:4774  checkStingEquality */\n      tag_280\n        /* \"/home/rocha/Proyects/Solidity/F1Bet/ethereum/contracts/F1.sol\":4756:4817  checkStingEquality(contestantPrediction[j-2],constructors[j]) */\n      jump\t// in\n    tag_465:\n        /* \"/home/rocha/Proyects/Solidity/F1Bet/ethereum/contracts/F1.sol\":4753:4876  if(checkStingEquality(contestantPrediction[j-2],constructors[j])){... */\n      iszero\n      tag_477\n      jumpi\n        /* \"/home/rocha/Proyects/Solidity/F1Bet/ethereum/contracts/F1.sol\":4852:4853  1 */\n      0x01\n        /* \"/home/rocha/Proyects/Solidity/F1Bet/ethereum/contracts/F1.sol\":4844:4853  points+=1 */\n      dup3\n      tag_478\n      swap2\n      swap1\n      tag_186\n      jump\t// in\n    tag_478:\n      swap2\n      pop\n        /* \"/home/rocha/Proyects/Solidity/F1Bet/ethereum/contracts/F1.sol\":4753:4876  if(checkStingEquality(contestantPrediction[j-2],constructors[j])){... */\n    tag_477:\n        /* \"/home/rocha/Proyects/Solidity/F1Bet/ethereum/contracts/F1.sol\":4604:4876  if(checkStingEquality(contestantPrediction[j-1],constructors[j])){... */\n    tag_464:\n        /* \"/home/rocha/Proyects/Solidity/F1Bet/ethereum/contracts/F1.sol\":4477:4876  if(checkStingEquality(contestantPrediction[j],constructors[j])){... */\n    tag_449:\n        /* \"/home/rocha/Proyects/Solidity/F1Bet/ethereum/contracts/F1.sol\":4427:5467  if(j==constructors.length-1){... */\n      jump(tag_479)\n    tag_435:\n        /* \"/home/rocha/Proyects/Solidity/F1Bet/ethereum/contracts/F1.sol\":4923:4982  checkStingEquality(contestantPrediction[j],constructors[j]) */\n      tag_480\n        /* \"/home/rocha/Proyects/Solidity/F1Bet/ethereum/contracts/F1.sol\":4942:4962  contestantPrediction */\n      dup4\n        /* \"/home/rocha/Proyects/Solidity/F1Bet/ethereum/contracts/F1.sol\":4963:4964  j */\n      dup3\n        /* \"/home/rocha/Proyects/Solidity/F1Bet/ethereum/contracts/F1.sol\":4942:4965  contestantPrediction[j] */\n      0xff\n      and\n      dup2\n      mload\n      dup2\n      lt\n      tag_481\n      jumpi\n      tag_482\n      tag_103\n      jump\t// in\n    tag_482:\n    tag_481:\n      0x20\n      mul\n      0x20\n      add\n      add\n      mload\n        /* \"/home/rocha/Proyects/Solidity/F1Bet/ethereum/contracts/F1.sol\":4966:4978  constructors */\n      0x04\n        /* \"/home/rocha/Proyects/Solidity/F1Bet/ethereum/contracts/F1.sol\":4979:4980  j */\n      dup4\n        /* \"/home/rocha/Proyects/Solidity/F1Bet/ethereum/contracts/F1.sol\":4966:4981  constructors[j] */\n      0xff\n      and\n      dup2\n      sload\n      dup2\n      lt\n      tag_483\n      jumpi\n      tag_484\n      tag_103\n      jump\t// in\n    tag_484:\n    tag_483:\n      swap1\n      0x00\n      mstore\n      keccak256(0x00, 0x20)\n      add\n        /* \"/home/rocha/Proyects/Solidity/F1Bet/ethereum/contracts/F1.sol\":4923:4982  checkStingEquality(contestantPrediction[j],constructors[j]) */\n      dup1\n      sload\n      tag_486\n      swap1\n      tag_260\n      jump\t// in\n    tag_486:\n      dup1\n      0x1f\n      add\n      0x20\n      dup1\n      swap2\n      div\n      mul\n      0x20\n      add\n      mload(0x40)\n      swap1\n      dup2\n      add\n      0x40\n      mstore\n      dup1\n      swap3\n      swap2\n      swap1\n      dup2\n      dup2\n      mstore\n      0x20\n      add\n      dup3\n      dup1\n      sload\n      tag_487\n      swap1\n      tag_260\n      jump\t// in\n    tag_487:\n      dup1\n      iszero\n      tag_488\n      jumpi\n      dup1\n      0x1f\n      lt\n      tag_489\n      jumpi\n      0x0100\n      dup1\n      dup4\n      sload\n      div\n      mul\n      dup4\n      mstore\n      swap2\n      0x20\n      add\n      swap2\n      jump(tag_488)\n    tag_489:\n      dup3\n      add\n      swap2\n      swap1\n      0x00\n      mstore\n      keccak256(0x00, 0x20)\n      swap1\n    tag_490:\n      dup2\n      sload\n      dup2\n      mstore\n      swap1\n      0x01\n      add\n      swap1\n      0x20\n      add\n      dup1\n      dup4\n      gt\n      tag_490\n      jumpi\n      dup3\n      swap1\n      sub\n      0x1f\n      and\n      dup3\n      add\n      swap2\n    tag_488:\n      pop\n      pop\n      pop\n      pop\n      pop\n        /* \"/home/rocha/Proyects/Solidity/F1Bet/ethereum/contracts/F1.sol\":4923:4941  checkStingEquality */\n      tag_280\n        /* \"/home/rocha/Proyects/Solidity/F1Bet/ethereum/contracts/F1.sol\":4923:4982  checkStingEquality(contestantPrediction[j],constructors[j]) */\n      jump\t// in\n    tag_480:\n        /* \"/home/rocha/Proyects/Solidity/F1Bet/ethereum/contracts/F1.sol\":4920:5449  if(checkStingEquality(contestantPrediction[j],constructors[j])){... */\n      iszero\n      tag_491\n      jumpi\n        /* \"/home/rocha/Proyects/Solidity/F1Bet/ethereum/contracts/F1.sol\":5018:5019  5 */\n      0x05\n        /* \"/home/rocha/Proyects/Solidity/F1Bet/ethereum/contracts/F1.sol\":5009:5019  points+= 5 */\n      dup3\n      tag_492\n      swap2\n      swap1\n      tag_186\n      jump\t// in\n    tag_492:\n      swap2\n      pop\n        /* \"/home/rocha/Proyects/Solidity/F1Bet/ethereum/contracts/F1.sol\":4920:5449  if(checkStingEquality(contestantPrediction[j],constructors[j])){... */\n      jump(tag_493)\n    tag_491:\n        /* \"/home/rocha/Proyects/Solidity/F1Bet/ethereum/contracts/F1.sol\":5050:5111  checkStingEquality(contestantPrediction[j-1],constructors[j]) */\n      tag_494\n        /* \"/home/rocha/Proyects/Solidity/F1Bet/ethereum/contracts/F1.sol\":5069:5089  contestantPrediction */\n      dup4\n        /* \"/home/rocha/Proyects/Solidity/F1Bet/ethereum/contracts/F1.sol\":5092:5093  1 */\n      0x01\n        /* \"/home/rocha/Proyects/Solidity/F1Bet/ethereum/contracts/F1.sol\":5090:5091  j */\n      dup4\n        /* \"/home/rocha/Proyects/Solidity/F1Bet/ethereum/contracts/F1.sol\":5090:5093  j-1 */\n      tag_495\n      swap2\n      swap1\n      tag_332\n      jump\t// in\n    tag_495:\n        /* \"/home/rocha/Proyects/Solidity/F1Bet/ethereum/contracts/F1.sol\":5069:5094  contestantPrediction[j-1] */\n      0xff\n      and\n      dup2\n      mload\n      dup2\n      lt\n      tag_496\n      jumpi\n      tag_497\n      tag_103\n      jump\t// in\n    tag_497:\n    tag_496:\n      0x20\n      mul\n      0x20\n      add\n      add\n      mload\n        /* \"/home/rocha/Proyects/Solidity/F1Bet/ethereum/contracts/F1.sol\":5095:5107  constructors */\n      0x04\n        /* \"/home/rocha/Proyects/Solidity/F1Bet/ethereum/contracts/F1.sol\":5108:5109  j */\n      dup4\n        /* \"/home/rocha/Proyects/Solidity/F1Bet/ethereum/contracts/F1.sol\":5095:5110  constructors[j] */\n      0xff\n      and\n      dup2\n      sload\n      dup2\n      lt\n      tag_498\n      jumpi\n      tag_499\n      tag_103\n      jump\t// in\n    tag_499:\n    tag_498:\n      swap1\n      0x00\n      mstore\n      keccak256(0x00, 0x20)\n      add\n        /* \"/home/rocha/Proyects/Solidity/F1Bet/ethereum/contracts/F1.sol\":5050:5111  checkStingEquality(contestantPrediction[j-1],constructors[j]) */\n      dup1\n      sload\n      tag_501\n      swap1\n      tag_260\n      jump\t// in\n    tag_501:\n      dup1\n      0x1f\n      add\n      0x20\n      dup1\n      swap2\n      div\n      mul\n      0x20\n      add\n      mload(0x40)\n      swap1\n      dup2\n      add\n      0x40\n      mstore\n      dup1\n      swap3\n      swap2\n      swap1\n      dup2\n      dup2\n      mstore\n      0x20\n      add\n      dup3\n      dup1\n      sload\n      tag_502\n      swap1\n      tag_260\n      jump\t// in\n    tag_502:\n      dup1\n      iszero\n      tag_503\n      jumpi\n      dup1\n      0x1f\n      lt\n      tag_504\n      jumpi\n      0x0100\n      dup1\n      dup4\n      sload\n      div\n      mul\n      dup4\n      mstore\n      swap2\n      0x20\n      add\n      swap2\n      jump(tag_503)\n    tag_504:\n      dup3\n      add\n      swap2\n      swap1\n      0x00\n      mstore\n      keccak256(0x00, 0x20)\n      swap1\n    tag_505:\n      dup2\n      sload\n      dup2\n      mstore\n      swap1\n      0x01\n      add\n      swap1\n      0x20\n      add\n      dup1\n      dup4\n      gt\n      tag_505\n      jumpi\n      dup3\n      swap1\n      sub\n      0x1f\n      and\n      dup3\n      add\n      swap2\n    tag_503:\n      pop\n      pop\n      pop\n      pop\n      pop\n        /* \"/home/rocha/Proyects/Solidity/F1Bet/ethereum/contracts/F1.sol\":5050:5068  checkStingEquality */\n      tag_280\n        /* \"/home/rocha/Proyects/Solidity/F1Bet/ethereum/contracts/F1.sol\":5050:5111  checkStingEquality(contestantPrediction[j-1],constructors[j]) */\n      jump\t// in\n    tag_494:\n        /* \"/home/rocha/Proyects/Solidity/F1Bet/ethereum/contracts/F1.sol\":5050:5176  checkStingEquality(contestantPrediction[j-1],constructors[j]) || checkStingEquality(contestantPrediction[j+1],constructors[j]) */\n      dup1\n      tag_506\n      jumpi\n      pop\n        /* \"/home/rocha/Proyects/Solidity/F1Bet/ethereum/contracts/F1.sol\":5115:5176  checkStingEquality(contestantPrediction[j+1],constructors[j]) */\n      tag_507\n        /* \"/home/rocha/Proyects/Solidity/F1Bet/ethereum/contracts/F1.sol\":5134:5154  contestantPrediction */\n      dup4\n        /* \"/home/rocha/Proyects/Solidity/F1Bet/ethereum/contracts/F1.sol\":5157:5158  1 */\n      0x01\n        /* \"/home/rocha/Proyects/Solidity/F1Bet/ethereum/contracts/F1.sol\":5155:5156  j */\n      dup4\n        /* \"/home/rocha/Proyects/Solidity/F1Bet/ethereum/contracts/F1.sol\":5155:5158  j+1 */\n      tag_508\n      swap2\n      swap1\n      tag_286\n      jump\t// in\n    tag_508:\n        /* \"/home/rocha/Proyects/Solidity/F1Bet/ethereum/contracts/F1.sol\":5134:5159  contestantPrediction[j+1] */\n      0xff\n      and\n      dup2\n      mload\n      dup2\n      lt\n      tag_509\n      jumpi\n      tag_510\n      tag_103\n      jump\t// in\n    tag_510:\n    tag_509:\n      0x20\n      mul\n      0x20\n      add\n      add\n      mload\n        /* \"/home/rocha/Proyects/Solidity/F1Bet/ethereum/contracts/F1.sol\":5160:5172  constructors */\n      0x04\n        /* \"/home/rocha/Proyects/Solidity/F1Bet/ethereum/contracts/F1.sol\":5173:5174  j */\n      dup4\n        /* \"/home/rocha/Proyects/Solidity/F1Bet/ethereum/contracts/F1.sol\":5160:5175  constructors[j] */\n      0xff\n      and\n      dup2\n      sload\n      dup2\n      lt\n      tag_511\n      jumpi\n      tag_512\n      tag_103\n      jump\t// in\n    tag_512:\n    tag_511:\n      swap1\n      0x00\n      mstore\n      keccak256(0x00, 0x20)\n      add\n        /* \"/home/rocha/Proyects/Solidity/F1Bet/ethereum/contracts/F1.sol\":5115:5176  checkStingEquality(contestantPrediction[j+1],constructors[j]) */\n      dup1\n      sload\n      tag_514\n      swap1\n      tag_260\n      jump\t// in\n    tag_514:\n      dup1\n      0x1f\n      add\n      0x20\n      dup1\n      swap2\n      div\n      mul\n      0x20\n      add\n      mload(0x40)\n      swap1\n      dup2\n      add\n      0x40\n      mstore\n      dup1\n      swap3\n      swap2\n      swap1\n      dup2\n      dup2\n      mstore\n      0x20\n      add\n      dup3\n      dup1\n      sload\n      tag_515\n      swap1\n      tag_260\n      jump\t// in\n    tag_515:\n      dup1\n      iszero\n      tag_516\n      jumpi\n      dup1\n      0x1f\n      lt\n      tag_517\n      jumpi\n      0x0100\n      dup1\n      dup4\n      sload\n      div\n      mul\n      dup4\n      mstore\n      swap2\n      0x20\n      add\n      swap2\n      jump(tag_516)\n    tag_517:\n      dup3\n      add\n      swap2\n      swap1\n      0x00\n      mstore\n      keccak256(0x00, 0x20)\n      swap1\n    tag_518:\n      dup2\n      sload\n      dup2\n      mstore\n      swap1\n      0x01\n      add\n      swap1\n      0x20\n      add\n      dup1\n      dup4\n      gt\n      tag_518\n      jumpi\n      dup3\n      swap1\n      sub\n      0x1f\n      and\n      dup3\n      add\n      swap2\n    tag_516:\n      pop\n      pop\n      pop\n      pop\n      pop\n        /* \"/home/rocha/Proyects/Solidity/F1Bet/ethereum/contracts/F1.sol\":5115:5133  checkStingEquality */\n      tag_280\n        /* \"/home/rocha/Proyects/Solidity/F1Bet/ethereum/contracts/F1.sol\":5115:5176  checkStingEquality(contestantPrediction[j+1],constructors[j]) */\n      jump\t// in\n    tag_507:\n        /* \"/home/rocha/Proyects/Solidity/F1Bet/ethereum/contracts/F1.sol\":5050:5176  checkStingEquality(contestantPrediction[j-1],constructors[j]) || checkStingEquality(contestantPrediction[j+1],constructors[j]) */\n    tag_506:\n        /* \"/home/rocha/Proyects/Solidity/F1Bet/ethereum/contracts/F1.sol\":5047:5449  if(checkStingEquality(contestantPrediction[j-1],constructors[j]) || checkStingEquality(contestantPrediction[j+1],constructors[j])){... */\n      iszero\n      tag_519\n      jumpi\n        /* \"/home/rocha/Proyects/Solidity/F1Bet/ethereum/contracts/F1.sol\":5211:5212  3 */\n      0x03\n        /* \"/home/rocha/Proyects/Solidity/F1Bet/ethereum/contracts/F1.sol\":5203:5212  points+=3 */\n      dup3\n      tag_520\n      swap2\n      swap1\n      tag_186\n      jump\t// in\n    tag_520:\n      swap2\n      pop\n        /* \"/home/rocha/Proyects/Solidity/F1Bet/ethereum/contracts/F1.sol\":5047:5449  if(checkStingEquality(contestantPrediction[j-1],constructors[j]) || checkStingEquality(contestantPrediction[j+1],constructors[j])){... */\n      jump(tag_521)\n    tag_519:\n        /* \"/home/rocha/Proyects/Solidity/F1Bet/ethereum/contracts/F1.sol\":5264:5325  checkStingEquality(contestantPrediction[j-2],constructors[j]) */\n      tag_522\n        /* \"/home/rocha/Proyects/Solidity/F1Bet/ethereum/contracts/F1.sol\":5283:5303  contestantPrediction */\n      dup4\n        /* \"/home/rocha/Proyects/Solidity/F1Bet/ethereum/contracts/F1.sol\":5306:5307  2 */\n      0x02\n        /* \"/home/rocha/Proyects/Solidity/F1Bet/ethereum/contracts/F1.sol\":5304:5305  j */\n      dup4\n        /* \"/home/rocha/Proyects/Solidity/F1Bet/ethereum/contracts/F1.sol\":5304:5307  j-2 */\n      tag_523\n      swap2\n      swap1\n      tag_332\n      jump\t// in\n    tag_523:\n        /* \"/home/rocha/Proyects/Solidity/F1Bet/ethereum/contracts/F1.sol\":5283:5308  contestantPrediction[j-2] */\n      0xff\n      and\n      dup2\n      mload\n      dup2\n      lt\n      tag_524\n      jumpi\n      tag_525\n      tag_103\n      jump\t// in\n    tag_525:\n    tag_524:\n      0x20\n      mul\n      0x20\n      add\n      add\n      mload\n        /* \"/home/rocha/Proyects/Solidity/F1Bet/ethereum/contracts/F1.sol\":5309:5321  constructors */\n      0x04\n        /* \"/home/rocha/Proyects/Solidity/F1Bet/ethereum/contracts/F1.sol\":5322:5323  j */\n      dup4\n        /* \"/home/rocha/Proyects/Solidity/F1Bet/ethereum/contracts/F1.sol\":5309:5324  constructors[j] */\n      0xff\n      and\n      dup2\n      sload\n      dup2\n      lt\n      tag_526\n      jumpi\n      tag_527\n      tag_103\n      jump\t// in\n    tag_527:\n    tag_526:\n      swap1\n      0x00\n      mstore\n      keccak256(0x00, 0x20)\n      add\n        /* \"/home/rocha/Proyects/Solidity/F1Bet/ethereum/contracts/F1.sol\":5264:5325  checkStingEquality(contestantPrediction[j-2],constructors[j]) */\n      dup1\n      sload\n      tag_529\n      swap1\n      tag_260\n      jump\t// in\n    tag_529:\n      dup1\n      0x1f\n      add\n      0x20\n      dup1\n      swap2\n      div\n      mul\n      0x20\n      add\n      mload(0x40)\n      swap1\n      dup2\n      add\n      0x40\n      mstore\n      dup1\n      swap3\n      swap2\n      swap1\n      dup2\n      dup2\n      mstore\n      0x20\n      add\n      dup3\n      dup1\n      sload\n      tag_530\n      swap1\n      tag_260\n      jump\t// in\n    tag_530:\n      dup1\n      iszero\n      tag_531\n      jumpi\n      dup1\n      0x1f\n      lt\n      tag_532\n      jumpi\n      0x0100\n      dup1\n      dup4\n      sload\n      div\n      mul\n      dup4\n      mstore\n      swap2\n      0x20\n      add\n      swap2\n      jump(tag_531)\n    tag_532:\n      dup3\n      add\n      swap2\n      swap1\n      0x00\n      mstore\n      keccak256(0x00, 0x20)\n      swap1\n    tag_533:\n      dup2\n      sload\n      dup2\n      mstore\n      swap1\n      0x01\n      add\n      swap1\n      0x20\n      add\n      dup1\n      dup4\n      gt\n      tag_533\n      jumpi\n      dup3\n      swap1\n      sub\n      0x1f\n      and\n      dup3\n      add\n      swap2\n    tag_531:\n      pop\n      pop\n      pop\n      pop\n      pop\n        /* \"/home/rocha/Proyects/Solidity/F1Bet/ethereum/contracts/F1.sol\":5264:5282  checkStingEquality */\n      tag_280\n        /* \"/home/rocha/Proyects/Solidity/F1Bet/ethereum/contracts/F1.sol\":5264:5325  checkStingEquality(contestantPrediction[j-2],constructors[j]) */\n      jump\t// in\n    tag_522:\n        /* \"/home/rocha/Proyects/Solidity/F1Bet/ethereum/contracts/F1.sol\":5264:5390  checkStingEquality(contestantPrediction[j-2],constructors[j]) || checkStingEquality(contestantPrediction[j+2],constructors[j]) */\n      dup1\n      tag_534\n      jumpi\n      pop\n        /* \"/home/rocha/Proyects/Solidity/F1Bet/ethereum/contracts/F1.sol\":5329:5390  checkStingEquality(contestantPrediction[j+2],constructors[j]) */\n      tag_535\n        /* \"/home/rocha/Proyects/Solidity/F1Bet/ethereum/contracts/F1.sol\":5348:5368  contestantPrediction */\n      dup4\n        /* \"/home/rocha/Proyects/Solidity/F1Bet/ethereum/contracts/F1.sol\":5371:5372  2 */\n      0x02\n        /* \"/home/rocha/Proyects/Solidity/F1Bet/ethereum/contracts/F1.sol\":5369:5370  j */\n      dup4\n        /* \"/home/rocha/Proyects/Solidity/F1Bet/ethereum/contracts/F1.sol\":5369:5372  j+2 */\n      tag_536\n      swap2\n      swap1\n      tag_286\n      jump\t// in\n    tag_536:\n        /* \"/home/rocha/Proyects/Solidity/F1Bet/ethereum/contracts/F1.sol\":5348:5373  contestantPrediction[j+2] */\n      0xff\n      and\n      dup2\n      mload\n      dup2\n      lt\n      tag_537\n      jumpi\n      tag_538\n      tag_103\n      jump\t// in\n    tag_538:\n    tag_537:\n      0x20\n      mul\n      0x20\n      add\n      add\n      mload\n        /* \"/home/rocha/Proyects/Solidity/F1Bet/ethereum/contracts/F1.sol\":5374:5386  constructors */\n      0x04\n        /* \"/home/rocha/Proyects/Solidity/F1Bet/ethereum/contracts/F1.sol\":5387:5388  j */\n      dup4\n        /* \"/home/rocha/Proyects/Solidity/F1Bet/ethereum/contracts/F1.sol\":5374:5389  constructors[j] */\n      0xff\n      and\n      dup2\n      sload\n      dup2\n      lt\n      tag_539\n      jumpi\n      tag_540\n      tag_103\n      jump\t// in\n    tag_540:\n    tag_539:\n      swap1\n      0x00\n      mstore\n      keccak256(0x00, 0x20)\n      add\n        /* \"/home/rocha/Proyects/Solidity/F1Bet/ethereum/contracts/F1.sol\":5329:5390  checkStingEquality(contestantPrediction[j+2],constructors[j]) */\n      dup1\n      sload\n      tag_542\n      swap1\n      tag_260\n      jump\t// in\n    tag_542:\n      dup1\n      0x1f\n      add\n      0x20\n      dup1\n      swap2\n      div\n      mul\n      0x20\n      add\n      mload(0x40)\n      swap1\n      dup2\n      add\n      0x40\n      mstore\n      dup1\n      swap3\n      swap2\n      swap1\n      dup2\n      dup2\n      mstore\n      0x20\n      add\n      dup3\n      dup1\n      sload\n      tag_543\n      swap1\n      tag_260\n      jump\t// in\n    tag_543:\n      dup1\n      iszero\n      tag_544\n      jumpi\n      dup1\n      0x1f\n      lt\n      tag_545\n      jumpi\n      0x0100\n      dup1\n      dup4\n      sload\n      div\n      mul\n      dup4\n      mstore\n      swap2\n      0x20\n      add\n      swap2\n      jump(tag_544)\n    tag_545:\n      dup3\n      add\n      swap2\n      swap1\n      0x00\n      mstore\n      keccak256(0x00, 0x20)\n      swap1\n    tag_546:\n      dup2\n      sload\n      dup2\n      mstore\n      swap1\n      0x01\n      add\n      swap1\n      0x20\n      add\n      dup1\n      dup4\n      gt\n      tag_546\n      jumpi\n      dup3\n      swap1\n      sub\n      0x1f\n      and\n      dup3\n      add\n      swap2\n    tag_544:\n      pop\n      pop\n      pop\n      pop\n      pop\n        /* \"/home/rocha/Proyects/Solidity/F1Bet/ethereum/contracts/F1.sol\":5329:5347  checkStingEquality */\n      tag_280\n        /* \"/home/rocha/Proyects/Solidity/F1Bet/ethereum/contracts/F1.sol\":5329:5390  checkStingEquality(contestantPrediction[j+2],constructors[j]) */\n      jump\t// in\n    tag_535:\n        /* \"/home/rocha/Proyects/Solidity/F1Bet/ethereum/contracts/F1.sol\":5264:5390  checkStingEquality(contestantPrediction[j-2],constructors[j]) || checkStingEquality(contestantPrediction[j+2],constructors[j]) */\n    tag_534:\n        /* \"/home/rocha/Proyects/Solidity/F1Bet/ethereum/contracts/F1.sol\":5261:5449  if(checkStingEquality(contestantPrediction[j-2],constructors[j]) || checkStingEquality(contestantPrediction[j+2],constructors[j])){... */\n      iszero\n      tag_547\n      jumpi\n        /* \"/home/rocha/Proyects/Solidity/F1Bet/ethereum/contracts/F1.sol\":5425:5426  1 */\n      0x01\n        /* \"/home/rocha/Proyects/Solidity/F1Bet/ethereum/contracts/F1.sol\":5417:5426  points+=1 */\n      dup3\n      tag_548\n      swap2\n      swap1\n      tag_186\n      jump\t// in\n    tag_548:\n      swap2\n      pop\n        /* \"/home/rocha/Proyects/Solidity/F1Bet/ethereum/contracts/F1.sol\":5261:5449  if(checkStingEquality(contestantPrediction[j-2],constructors[j]) || checkStingEquality(contestantPrediction[j+2],constructors[j])){... */\n    tag_547:\n        /* \"/home/rocha/Proyects/Solidity/F1Bet/ethereum/contracts/F1.sol\":5047:5449  if(checkStingEquality(contestantPrediction[j-1],constructors[j]) || checkStingEquality(contestantPrediction[j+1],constructors[j])){... */\n    tag_521:\n        /* \"/home/rocha/Proyects/Solidity/F1Bet/ethereum/contracts/F1.sol\":4920:5449  if(checkStingEquality(contestantPrediction[j],constructors[j])){... */\n    tag_493:\n        /* \"/home/rocha/Proyects/Solidity/F1Bet/ethereum/contracts/F1.sol\":4427:5467  if(j==constructors.length-1){... */\n    tag_479:\n        /* \"/home/rocha/Proyects/Solidity/F1Bet/ethereum/contracts/F1.sol\":3890:5467  if(j==constructors.length-2){... */\n    tag_433:\n        /* \"/home/rocha/Proyects/Solidity/F1Bet/ethereum/contracts/F1.sol\":3373:5467  if(j<2){... */\n    tag_373:\n        /* \"/home/rocha/Proyects/Solidity/F1Bet/ethereum/contracts/F1.sol\":2921:5467  if(j<1){... */\n    tag_314:\n        /* \"/home/rocha/Proyects/Solidity/F1Bet/ethereum/contracts/F1.sol\":2899:2902  j++ */\n      dup1\n      dup1\n      tag_549\n      swap1\n      tag_107\n      jump\t// in\n    tag_549:\n      swap2\n      pop\n      pop\n        /* \"/home/rocha/Proyects/Solidity/F1Bet/ethereum/contracts/F1.sol\":2864:5481  for(uint8 j; j<constructors.length;j++){... */\n      jump(tag_265)\n    tag_266:\n      pop\n        /* \"/home/rocha/Proyects/Solidity/F1Bet/ethereum/contracts/F1.sol\":5543:5549  points */\n      dup1\n        /* \"/home/rocha/Proyects/Solidity/F1Bet/ethereum/contracts/F1.sol\":5494:5505  predictions */\n      0x00\n        /* \"/home/rocha/Proyects/Solidity/F1Bet/ethereum/contracts/F1.sol\":5494:5521  predictions[contestants[i]] */\n      dup1\n        /* \"/home/rocha/Proyects/Solidity/F1Bet/ethereum/contracts/F1.sol\":5506:5517  contestants */\n      0x01\n        /* \"/home/rocha/Proyects/Solidity/F1Bet/ethereum/contracts/F1.sol\":5518:5519  i */\n      dup7\n        /* \"/home/rocha/Proyects/Solidity/F1Bet/ethereum/contracts/F1.sol\":5506:5520  contestants[i] */\n      0xff\n      and\n      dup2\n      sload\n      dup2\n      lt\n      tag_550\n      jumpi\n      tag_551\n      tag_103\n      jump\t// in\n    tag_551:\n    tag_550:\n      swap1\n      0x00\n      mstore\n      keccak256(0x00, 0x20)\n      add\n      0x00\n      swap1\n      sload\n      swap1\n      0x0100\n      exp\n      swap1\n      div\n      0xffffffffffffffffffffffffffffffffffffffff\n      and\n        /* \"/home/rocha/Proyects/Solidity/F1Bet/ethereum/contracts/F1.sol\":5494:5521  predictions[contestants[i]] */\n      0xffffffffffffffffffffffffffffffffffffffff\n      and\n      0xffffffffffffffffffffffffffffffffffffffff\n      and\n      dup2\n      mstore\n      0x20\n      add\n      swap1\n      dup2\n      mstore\n      0x20\n      add\n      0x00\n      keccak256\n        /* \"/home/rocha/Proyects/Solidity/F1Bet/ethereum/contracts/F1.sol\":5494:5540  predictions[contestants[i]].constructorsPoints */\n      0x03\n      add\n        /* \"/home/rocha/Proyects/Solidity/F1Bet/ethereum/contracts/F1.sol\":5494:5549  predictions[contestants[i]].constructorsPoints = points */\n      dup2\n      swap1\n      sstore\n      pop\n        /* \"/home/rocha/Proyects/Solidity/F1Bet/ethereum/contracts/F1.sol\":2732:5560  {... */\n      pop\n      pop\n        /* \"/home/rocha/Proyects/Solidity/F1Bet/ethereum/contracts/F1.sol\":2728:2731  i++ */\n      dup1\n      dup1\n      tag_553\n      swap1\n      tag_107\n      jump\t// in\n    tag_553:\n      swap2\n      pop\n      pop\n        /* \"/home/rocha/Proyects/Solidity/F1Bet/ethereum/contracts/F1.sol\":2694:5560  for(uint8 i; i<contestants.length;i++){... */\n      jump(tag_250)\n    tag_251:\n      pop\n        /* \"/home/rocha/Proyects/Solidity/F1Bet/ethereum/contracts/F1.sol\":2638:5571  function calculateConstructorsTable() private {... */\n      jump\t// out\n        /* \"/home/rocha/Proyects/Solidity/F1Bet/ethereum/contracts/F1.sol\":5576:8519  function calculateDriversTable() private {... */\n    tag_138:\n        /* \"/home/rocha/Proyects/Solidity/F1Bet/ethereum/contracts/F1.sol\":5631:5638  uint8 i */\n      0x00\n        /* \"/home/rocha/Proyects/Solidity/F1Bet/ethereum/contracts/F1.sol\":5627:8513  for(uint8 i; i<contestants.length;i++){... */\n    tag_555:\n        /* \"/home/rocha/Proyects/Solidity/F1Bet/ethereum/contracts/F1.sol\":5642:5653  contestants */\n      0x01\n        /* \"/home/rocha/Proyects/Solidity/F1Bet/ethereum/contracts/F1.sol\":5642:5660  contestants.length */\n      dup1\n      sload\n      swap1\n      pop\n        /* \"/home/rocha/Proyects/Solidity/F1Bet/ethereum/contracts/F1.sol\":5640:5641  i */\n      dup2\n        /* \"/home/rocha/Proyects/Solidity/F1Bet/ethereum/contracts/F1.sol\":5640:5660  i<contestants.length */\n      0xff\n      and\n      lt\n        /* \"/home/rocha/Proyects/Solidity/F1Bet/ethereum/contracts/F1.sol\":5627:8513  for(uint8 i; i<contestants.length;i++){... */\n      iszero\n      tag_556\n      jumpi\n        /* \"/home/rocha/Proyects/Solidity/F1Bet/ethereum/contracts/F1.sol\":5679:5722  string[] memory contestantDriversPrediction */\n      0x00\n        /* \"/home/rocha/Proyects/Solidity/F1Bet/ethereum/contracts/F1.sol\":5725:5736  predictions */\n      dup1\n        /* \"/home/rocha/Proyects/Solidity/F1Bet/ethereum/contracts/F1.sol\":5725:5752  predictions[contestants[i]] */\n      0x00\n        /* \"/home/rocha/Proyects/Solidity/F1Bet/ethereum/contracts/F1.sol\":5737:5748  contestants */\n      0x01\n        /* \"/home/rocha/Proyects/Solidity/F1Bet/ethereum/contracts/F1.sol\":5749:5750  i */\n      dup5\n        /* \"/home/rocha/Proyects/Solidity/F1Bet/ethereum/contracts/F1.sol\":5737:5751  contestants[i] */\n      0xff\n      and\n      dup2\n      sload\n      dup2\n      lt\n      tag_558\n      jumpi\n      tag_559\n      tag_103\n      jump\t// in\n    tag_559:\n    tag_558:\n      swap1\n      0x00\n      mstore\n      keccak256(0x00, 0x20)\n      add\n      0x00\n      swap1\n      sload\n      swap1\n      0x0100\n      exp\n      swap1\n      div\n      0xffffffffffffffffffffffffffffffffffffffff\n      and\n        /* \"/home/rocha/Proyects/Solidity/F1Bet/ethereum/contracts/F1.sol\":5725:5752  predictions[contestants[i]] */\n      0xffffffffffffffffffffffffffffffffffffffff\n      and\n      0xffffffffffffffffffffffffffffffffffffffff\n      and\n      dup2\n      mstore\n      0x20\n      add\n      swap1\n      dup2\n      mstore\n      0x20\n      add\n      0x00\n      keccak256\n        /* \"/home/rocha/Proyects/Solidity/F1Bet/ethereum/contracts/F1.sol\":5725:5760  predictions[contestants[i]].drivers */\n      0x01\n      add\n        /* \"/home/rocha/Proyects/Solidity/F1Bet/ethereum/contracts/F1.sol\":5679:5760  string[] memory contestantDriversPrediction = predictions[contestants[i]].drivers */\n      dup1\n      sload\n      dup1\n      0x20\n      mul\n      0x20\n      add\n      mload(0x40)\n      swap1\n      dup2\n      add\n      0x40\n      mstore\n      dup1\n      swap3\n      swap2\n      swap1\n      dup2\n      dup2\n      mstore\n      0x20\n      add\n      0x00\n      swap1\n    tag_561:\n      dup3\n      dup3\n      lt\n      iszero\n      tag_562\n      jumpi\n      dup4\n      dup3\n      swap1\n      0x00\n      mstore\n      keccak256(0x00, 0x20)\n      add\n      dup1\n      sload\n      tag_564\n      swap1\n      tag_260\n      jump\t// in\n    tag_564:\n      dup1\n      0x1f\n      add\n      0x20\n      dup1\n      swap2\n      div\n      mul\n      0x20\n      add\n      mload(0x40)\n      swap1\n      dup2\n      add\n      0x40\n      mstore\n      dup1\n      swap3\n      swap2\n      swap1\n      dup2\n      dup2\n      mstore\n      0x20\n      add\n      dup3\n      dup1\n      sload\n      tag_565\n      swap1\n      tag_260\n      jump\t// in\n    tag_565:\n      dup1\n      iszero\n      tag_566\n      jumpi\n      dup1\n      0x1f\n      lt\n      tag_567\n      jumpi\n      0x0100\n      dup1\n      dup4\n      sload\n      div\n      mul\n      dup4\n      mstore\n      swap2\n      0x20\n      add\n      swap2\n      jump(tag_566)\n    tag_567:\n      dup3\n      add\n      swap2\n      swap1\n      0x00\n      mstore\n      keccak256(0x00, 0x20)\n      swap1\n    tag_568:\n      dup2\n      sload\n      dup2\n      mstore\n      swap1\n      0x01\n      add\n      swap1\n      0x20\n      add\n      dup1\n      dup4\n      gt\n      tag_568\n      jumpi\n      dup3\n      swap1\n      sub\n      0x1f\n      and\n      dup3\n      add\n      swap2\n    tag_566:\n      pop\n      pop\n      pop\n      pop\n      pop\n      dup2\n      mstore\n      0x20\n      add\n      swap1\n      0x01\n      add\n      swap1\n      jump(tag_561)\n    tag_562:\n      pop\n      pop\n      pop\n      pop\n      swap1\n      pop\n        /* \"/home/rocha/Proyects/Solidity/F1Bet/ethereum/contracts/F1.sol\":5774:5785  uint points */\n      0x00\n        /* \"/home/rocha/Proyects/Solidity/F1Bet/ethereum/contracts/F1.sol\":5803:5810  uint8 j */\n      dup1\n        /* \"/home/rocha/Proyects/Solidity/F1Bet/ethereum/contracts/F1.sol\":5799:8439  for(uint8 j; j<drivers.length;j++){... */\n    tag_569:\n        /* \"/home/rocha/Proyects/Solidity/F1Bet/ethereum/contracts/F1.sol\":5814:5821  drivers */\n      0x05\n        /* \"/home/rocha/Proyects/Solidity/F1Bet/ethereum/contracts/F1.sol\":5814:5828  drivers.length */\n      dup1\n      sload\n      swap1\n      pop\n        /* \"/home/rocha/Proyects/Solidity/F1Bet/ethereum/contracts/F1.sol\":5812:5813  j */\n      dup2\n        /* \"/home/rocha/Proyects/Solidity/F1Bet/ethereum/contracts/F1.sol\":5812:5828  j<drivers.length */\n      0xff\n      and\n      lt\n        /* \"/home/rocha/Proyects/Solidity/F1Bet/ethereum/contracts/F1.sol\":5799:8439  for(uint8 j; j<drivers.length;j++){... */\n      iszero\n      tag_570\n      jumpi\n        /* \"/home/rocha/Proyects/Solidity/F1Bet/ethereum/contracts/F1.sol\":5856:5857  1 */\n      0x01\n        /* \"/home/rocha/Proyects/Solidity/F1Bet/ethereum/contracts/F1.sol\":5854:5855  j */\n      dup2\n        /* \"/home/rocha/Proyects/Solidity/F1Bet/ethereum/contracts/F1.sol\":5854:5857  j<1 */\n      0xff\n      and\n      lt\n        /* \"/home/rocha/Proyects/Solidity/F1Bet/ethereum/contracts/F1.sol\":5851:8425  if(j<1){... */\n      iszero\n      tag_572\n      jumpi\n        /* \"/home/rocha/Proyects/Solidity/F1Bet/ethereum/contracts/F1.sol\":5883:5944  checkStingEquality(contestantDriversPrediction[j],drivers[j]) */\n      tag_573\n        /* \"/home/rocha/Proyects/Solidity/F1Bet/ethereum/contracts/F1.sol\":5902:5929  contestantDriversPrediction */\n      dup4\n        /* \"/home/rocha/Proyects/Solidity/F1Bet/ethereum/contracts/F1.sol\":5930:5931  j */\n      dup3\n        /* \"/home/rocha/Proyects/Solidity/F1Bet/ethereum/contracts/F1.sol\":5902:5932  contestantDriversPrediction[j] */\n      0xff\n      and\n      dup2\n      mload\n      dup2\n      lt\n      tag_574\n      jumpi\n      tag_575\n      tag_103\n      jump\t// in\n    tag_575:\n    tag_574:\n      0x20\n      mul\n      0x20\n      add\n      add\n      mload\n        /* \"/home/rocha/Proyects/Solidity/F1Bet/ethereum/contracts/F1.sol\":5933:5940  drivers */\n      0x05\n        /* \"/home/rocha/Proyects/Solidity/F1Bet/ethereum/contracts/F1.sol\":5941:5942  j */\n      dup4\n        /* \"/home/rocha/Proyects/Solidity/F1Bet/ethereum/contracts/F1.sol\":5933:5943  drivers[j] */\n      0xff\n      and\n      dup2\n      sload\n      dup2\n      lt\n      tag_576\n      jumpi\n      tag_577\n      tag_103\n      jump\t// in\n    tag_577:\n    tag_576:\n      swap1\n      0x00\n      mstore\n      keccak256(0x00, 0x20)\n      add\n        /* \"/home/rocha/Proyects/Solidity/F1Bet/ethereum/contracts/F1.sol\":5883:5944  checkStingEquality(contestantDriversPrediction[j],drivers[j]) */\n      dup1\n      sload\n      tag_579\n      swap1\n      tag_260\n      jump\t// in\n    tag_579:\n      dup1\n      0x1f\n      add\n      0x20\n      dup1\n      swap2\n      div\n      mul\n      0x20\n      add\n      mload(0x40)\n      swap1\n      dup2\n      add\n      0x40\n      mstore\n      dup1\n      swap3\n      swap2\n      swap1\n      dup2\n      dup2\n      mstore\n      0x20\n      add\n      dup3\n      dup1\n      sload\n      tag_580\n      swap1\n      tag_260\n      jump\t// in\n    tag_580:\n      dup1\n      iszero\n      tag_581\n      jumpi\n      dup1\n      0x1f\n      lt\n      tag_582\n      jumpi\n      0x0100\n      dup1\n      dup4\n      sload\n      div\n      mul\n      dup4\n      mstore\n      swap2\n      0x20\n      add\n      swap2\n      jump(tag_581)\n    tag_582:\n      dup3\n      add\n      swap2\n      swap1\n      0x00\n      mstore\n      keccak256(0x00, 0x20)\n      swap1\n    tag_583:\n      dup2\n      sload\n      dup2\n      mstore\n      swap1\n      0x01\n      add\n      swap1\n      0x20\n      add\n      dup1\n      dup4\n      gt\n      tag_583\n      jumpi\n      dup3\n      swap1\n      sub\n      0x1f\n      and\n      dup3\n      add\n      swap2\n    tag_581:\n      pop\n      pop\n      pop\n      pop\n      pop\n        /* \"/home/rocha/Proyects/Solidity/F1Bet/ethereum/contracts/F1.sol\":5883:5901  checkStingEquality */\n      tag_280\n        /* \"/home/rocha/Proyects/Solidity/F1Bet/ethereum/contracts/F1.sol\":5883:5944  checkStingEquality(contestantDriversPrediction[j],drivers[j]) */\n      jump\t// in\n    tag_573:\n        /* \"/home/rocha/Proyects/Solidity/F1Bet/ethereum/contracts/F1.sol\":5880:6286  if(checkStingEquality(contestantDriversPrediction[j],drivers[j])){... */\n      iszero\n      tag_584\n      jumpi\n        /* \"/home/rocha/Proyects/Solidity/F1Bet/ethereum/contracts/F1.sol\":5980:5981  5 */\n      0x05\n        /* \"/home/rocha/Proyects/Solidity/F1Bet/ethereum/contracts/F1.sol\":5971:5981  points+= 5 */\n      dup3\n      tag_585\n      swap2\n      swap1\n      tag_186\n      jump\t// in\n    tag_585:\n      swap2\n      pop\n        /* \"/home/rocha/Proyects/Solidity/F1Bet/ethereum/contracts/F1.sol\":5880:6286  if(checkStingEquality(contestantDriversPrediction[j],drivers[j])){... */\n      jump(tag_586)\n    tag_584:\n        /* \"/home/rocha/Proyects/Solidity/F1Bet/ethereum/contracts/F1.sol\":6013:6076  checkStingEquality(contestantDriversPrediction[j+1],drivers[j]) */\n      tag_587\n        /* \"/home/rocha/Proyects/Solidity/F1Bet/ethereum/contracts/F1.sol\":6032:6059  contestantDriversPrediction */\n      dup4\n        /* \"/home/rocha/Proyects/Solidity/F1Bet/ethereum/contracts/F1.sol\":6062:6063  1 */\n      0x01\n        /* \"/home/rocha/Proyects/Solidity/F1Bet/ethereum/contracts/F1.sol\":6060:6061  j */\n      dup4\n        /* \"/home/rocha/Proyects/Solidity/F1Bet/ethereum/contracts/F1.sol\":6060:6063  j+1 */\n      tag_588\n      swap2\n      swap1\n      tag_286\n      jump\t// in\n    tag_588:\n        /* \"/home/rocha/Proyects/Solidity/F1Bet/ethereum/contracts/F1.sol\":6032:6064  contestantDriversPrediction[j+1] */\n      0xff\n      and\n      dup2\n      mload\n      dup2\n      lt\n      tag_589\n      jumpi\n      tag_590\n      tag_103\n      jump\t// in\n    tag_590:\n    tag_589:\n      0x20\n      mul\n      0x20\n      add\n      add\n      mload\n        /* \"/home/rocha/Proyects/Solidity/F1Bet/ethereum/contracts/F1.sol\":6065:6072  drivers */\n      0x05\n        /* \"/home/rocha/Proyects/Solidity/F1Bet/ethereum/contracts/F1.sol\":6073:6074  j */\n      dup4\n        /* \"/home/rocha/Proyects/Solidity/F1Bet/ethereum/contracts/F1.sol\":6065:6075  drivers[j] */\n      0xff\n      and\n      dup2\n      sload\n      dup2\n      lt\n      tag_591\n      jumpi\n      tag_592\n      tag_103\n      jump\t// in\n    tag_592:\n    tag_591:\n      swap1\n      0x00\n      mstore\n      keccak256(0x00, 0x20)\n      add\n        /* \"/home/rocha/Proyects/Solidity/F1Bet/ethereum/contracts/F1.sol\":6013:6076  checkStingEquality(contestantDriversPrediction[j+1],drivers[j]) */\n      dup1\n      sload\n      tag_594\n      swap1\n      tag_260\n      jump\t// in\n    tag_594:\n      dup1\n      0x1f\n      add\n      0x20\n      dup1\n      swap2\n      div\n      mul\n      0x20\n      add\n      mload(0x40)\n      swap1\n      dup2\n      add\n      0x40\n      mstore\n      dup1\n      swap3\n      swap2\n      swap1\n      dup2\n      dup2\n      mstore\n      0x20\n      add\n      dup3\n      dup1\n      sload\n      tag_595\n      swap1\n      tag_260\n      jump\t// in\n    tag_595:\n      dup1\n      iszero\n      tag_596\n      jumpi\n      dup1\n      0x1f\n      lt\n      tag_597\n      jumpi\n      0x0100\n      dup1\n      dup4\n      sload\n      div\n      mul\n      dup4\n      mstore\n      swap2\n      0x20\n      add\n      swap2\n      jump(tag_596)\n    tag_597:\n      dup3\n      add\n      swap2\n      swap1\n      0x00\n      mstore\n      keccak256(0x00, 0x20)\n      swap1\n    tag_598:\n      dup2\n      sload\n      dup2\n      mstore\n      swap1\n      0x01\n      add\n      swap1\n      0x20\n      add\n      dup1\n      dup4\n      gt\n      tag_598\n      jumpi\n      dup3\n      swap1\n      sub\n      0x1f\n      and\n      dup3\n      add\n      swap2\n    tag_596:\n      pop\n      pop\n      pop\n      pop\n      pop\n        /* \"/home/rocha/Proyects/Solidity/F1Bet/ethereum/contracts/F1.sol\":6013:6031  checkStingEquality */\n      tag_280\n        /* \"/home/rocha/Proyects/Solidity/F1Bet/ethereum/contracts/F1.sol\":6013:6076  checkStingEquality(contestantDriversPrediction[j+1],drivers[j]) */\n      jump\t// in\n    tag_587:\n        /* \"/home/rocha/Proyects/Solidity/F1Bet/ethereum/contracts/F1.sol\":6009:6286  if( checkStingEquality(contestantDriversPrediction[j+1],drivers[j])){... */\n      iszero\n      tag_599\n      jumpi\n        /* \"/home/rocha/Proyects/Solidity/F1Bet/ethereum/contracts/F1.sol\":6111:6112  3 */\n      0x03\n        /* \"/home/rocha/Proyects/Solidity/F1Bet/ethereum/contracts/F1.sol\":6103:6112  points+=3 */\n      dup3\n      tag_600\n      swap2\n      swap1\n      tag_186\n      jump\t// in\n    tag_600:\n      swap2\n      pop\n        /* \"/home/rocha/Proyects/Solidity/F1Bet/ethereum/contracts/F1.sol\":6009:6286  if( checkStingEquality(contestantDriversPrediction[j+1],drivers[j])){... */\n      jump(tag_601)\n    tag_599:\n        /* \"/home/rocha/Proyects/Solidity/F1Bet/ethereum/contracts/F1.sol\":6164:6227  checkStingEquality(contestantDriversPrediction[j+2],drivers[j]) */\n      tag_602\n        /* \"/home/rocha/Proyects/Solidity/F1Bet/ethereum/contracts/F1.sol\":6183:6210  contestantDriversPrediction */\n      dup4\n        /* \"/home/rocha/Proyects/Solidity/F1Bet/ethereum/contracts/F1.sol\":6213:6214  2 */\n      0x02\n        /* \"/home/rocha/Proyects/Solidity/F1Bet/ethereum/contracts/F1.sol\":6211:6212  j */\n      dup4\n        /* \"/home/rocha/Proyects/Solidity/F1Bet/ethereum/contracts/F1.sol\":6211:6214  j+2 */\n      tag_603\n      swap2\n      swap1\n      tag_286\n      jump\t// in\n    tag_603:\n        /* \"/home/rocha/Proyects/Solidity/F1Bet/ethereum/contracts/F1.sol\":6183:6215  contestantDriversPrediction[j+2] */\n      0xff\n      and\n      dup2\n      mload\n      dup2\n      lt\n      tag_604\n      jumpi\n      tag_605\n      tag_103\n      jump\t// in\n    tag_605:\n    tag_604:\n      0x20\n      mul\n      0x20\n      add\n      add\n      mload\n        /* \"/home/rocha/Proyects/Solidity/F1Bet/ethereum/contracts/F1.sol\":6216:6223  drivers */\n      0x05\n        /* \"/home/rocha/Proyects/Solidity/F1Bet/ethereum/contracts/F1.sol\":6224:6225  j */\n      dup4\n        /* \"/home/rocha/Proyects/Solidity/F1Bet/ethereum/contracts/F1.sol\":6216:6226  drivers[j] */\n      0xff\n      and\n      dup2\n      sload\n      dup2\n      lt\n      tag_606\n      jumpi\n      tag_607\n      tag_103\n      jump\t// in\n    tag_607:\n    tag_606:\n      swap1\n      0x00\n      mstore\n      keccak256(0x00, 0x20)\n      add\n        /* \"/home/rocha/Proyects/Solidity/F1Bet/ethereum/contracts/F1.sol\":6164:6227  checkStingEquality(contestantDriversPrediction[j+2],drivers[j]) */\n      dup1\n      sload\n      tag_609\n      swap1\n      tag_260\n      jump\t// in\n    tag_609:\n      dup1\n      0x1f\n      add\n      0x20\n      dup1\n      swap2\n      div\n      mul\n      0x20\n      add\n      mload(0x40)\n      swap1\n      dup2\n      add\n      0x40\n      mstore\n      dup1\n      swap3\n      swap2\n      swap1\n      dup2\n      dup2\n      mstore\n      0x20\n      add\n      dup3\n      dup1\n      sload\n      tag_610\n      swap1\n      tag_260\n      jump\t// in\n    tag_610:\n      dup1\n      iszero\n      tag_611\n      jumpi\n      dup1\n      0x1f\n      lt\n      tag_612\n      jumpi\n      0x0100\n      dup1\n      dup4\n      sload\n      div\n      mul\n      dup4\n      mstore\n      swap2\n      0x20\n      add\n      swap2\n      jump(tag_611)\n    tag_612:\n      dup3\n      add\n      swap2\n      swap1\n      0x00\n      mstore\n      keccak256(0x00, 0x20)\n      swap1\n    tag_613:\n      dup2\n      sload\n      dup2\n      mstore\n      swap1\n      0x01\n      add\n      swap1\n      0x20\n      add\n      dup1\n      dup4\n      gt\n      tag_613\n      jumpi\n      dup3\n      swap1\n      sub\n      0x1f\n      and\n      dup3\n      add\n      swap2\n    tag_611:\n      pop\n      pop\n      pop\n      pop\n      pop\n        /* \"/home/rocha/Proyects/Solidity/F1Bet/ethereum/contracts/F1.sol\":6164:6182  checkStingEquality */\n      tag_280\n        /* \"/home/rocha/Proyects/Solidity/F1Bet/ethereum/contracts/F1.sol\":6164:6227  checkStingEquality(contestantDriversPrediction[j+2],drivers[j]) */\n      jump\t// in\n    tag_602:\n        /* \"/home/rocha/Proyects/Solidity/F1Bet/ethereum/contracts/F1.sol\":6161:6286  if(checkStingEquality(contestantDriversPrediction[j+2],drivers[j])){... */\n      iszero\n      tag_614\n      jumpi\n        /* \"/home/rocha/Proyects/Solidity/F1Bet/ethereum/contracts/F1.sol\":6262:6263  1 */\n      0x01\n        /* \"/home/rocha/Proyects/Solidity/F1Bet/ethereum/contracts/F1.sol\":6254:6263  points+=1 */\n      dup3\n      tag_615\n      swap2\n      swap1\n      tag_186\n      jump\t// in\n    tag_615:\n      swap2\n      pop\n        /* \"/home/rocha/Proyects/Solidity/F1Bet/ethereum/contracts/F1.sol\":6161:6286  if(checkStingEquality(contestantDriversPrediction[j+2],drivers[j])){... */\n    tag_614:\n        /* \"/home/rocha/Proyects/Solidity/F1Bet/ethereum/contracts/F1.sol\":6009:6286  if( checkStingEquality(contestantDriversPrediction[j+1],drivers[j])){... */\n    tag_601:\n        /* \"/home/rocha/Proyects/Solidity/F1Bet/ethereum/contracts/F1.sol\":5880:6286  if(checkStingEquality(contestantDriversPrediction[j],drivers[j])){... */\n    tag_586:\n        /* \"/home/rocha/Proyects/Solidity/F1Bet/ethereum/contracts/F1.sol\":5851:8425  if(j<1){... */\n      jump(tag_616)\n    tag_572:\n        /* \"/home/rocha/Proyects/Solidity/F1Bet/ethereum/contracts/F1.sol\":6314:6315  2 */\n      0x02\n        /* \"/home/rocha/Proyects/Solidity/F1Bet/ethereum/contracts/F1.sol\":6312:6313  j */\n      dup2\n        /* \"/home/rocha/Proyects/Solidity/F1Bet/ethereum/contracts/F1.sol\":6312:6315  j<2 */\n      0xff\n      and\n      lt\n        /* \"/home/rocha/Proyects/Solidity/F1Bet/ethereum/contracts/F1.sol\":6309:8425  if(j<2){... */\n      iszero\n      tag_617\n      jumpi\n        /* \"/home/rocha/Proyects/Solidity/F1Bet/ethereum/contracts/F1.sol\":6341:6402  checkStingEquality(contestantDriversPrediction[j],drivers[j]) */\n      tag_618\n        /* \"/home/rocha/Proyects/Solidity/F1Bet/ethereum/contracts/F1.sol\":6360:6387  contestantDriversPrediction */\n      dup4\n        /* \"/home/rocha/Proyects/Solidity/F1Bet/ethereum/contracts/F1.sol\":6388:6389  j */\n      dup3\n        /* \"/home/rocha/Proyects/Solidity/F1Bet/ethereum/contracts/F1.sol\":6360:6390  contestantDriversPrediction[j] */\n      0xff\n      and\n      dup2\n      mload\n      dup2\n      lt\n      tag_619\n      jumpi\n      tag_620\n      tag_103\n      jump\t// in\n    tag_620:\n    tag_619:\n      0x20\n      mul\n      0x20\n      add\n      add\n      mload\n        /* \"/home/rocha/Proyects/Solidity/F1Bet/ethereum/contracts/F1.sol\":6391:6398  drivers */\n      0x05\n        /* \"/home/rocha/Proyects/Solidity/F1Bet/ethereum/contracts/F1.sol\":6399:6400  j */\n      dup4\n        /* \"/home/rocha/Proyects/Solidity/F1Bet/ethereum/contracts/F1.sol\":6391:6401  drivers[j] */\n      0xff\n      and\n      dup2\n      sload\n      dup2\n      lt\n      tag_621\n      jumpi\n      tag_622\n      tag_103\n      jump\t// in\n    tag_622:\n    tag_621:\n      swap1\n      0x00\n      mstore\n      keccak256(0x00, 0x20)\n      add\n        /* \"/home/rocha/Proyects/Solidity/F1Bet/ethereum/contracts/F1.sol\":6341:6402  checkStingEquality(contestantDriversPrediction[j],drivers[j]) */\n      dup1\n      sload\n      tag_624\n      swap1\n      tag_260\n      jump\t// in\n    tag_624:\n      dup1\n      0x1f\n      add\n      0x20\n      dup1\n      swap2\n      div\n      mul\n      0x20\n      add\n      mload(0x40)\n      swap1\n      dup2\n      add\n      0x40\n      mstore\n      dup1\n      swap3\n      swap2\n      swap1\n      dup2\n      dup2\n      mstore\n      0x20\n      add\n      dup3\n      dup1\n      sload\n      tag_625\n      swap1\n      tag_260\n      jump\t// in\n    tag_625:\n      dup1\n      iszero\n      tag_626\n      jumpi\n      dup1\n      0x1f\n      lt\n      tag_627\n      jumpi\n      0x0100\n      dup1\n      dup4\n      sload\n      div\n      mul\n      dup4\n      mstore\n      swap2\n      0x20\n      add\n      swap2\n      jump(tag_626)\n    tag_627:\n      dup3\n      add\n      swap2\n      swap1\n      0x00\n      mstore\n      keccak256(0x00, 0x20)\n      swap1\n    tag_628:\n      dup2\n      sload\n      dup2\n      mstore\n      swap1\n      0x01\n      add\n      swap1\n      0x20\n      add\n      dup1\n      dup4\n      gt\n      tag_628\n      jumpi\n      dup3\n      swap1\n      sub\n      0x1f\n      and\n      dup3\n      add\n      swap2\n    tag_626:\n      pop\n      pop\n      pop\n      pop\n      pop\n        /* \"/home/rocha/Proyects/Solidity/F1Bet/ethereum/contracts/F1.sol\":6341:6359  checkStingEquality */\n      tag_280\n        /* \"/home/rocha/Proyects/Solidity/F1Bet/ethereum/contracts/F1.sol\":6341:6402  checkStingEquality(contestantDriversPrediction[j],drivers[j]) */\n      jump\t// in\n    tag_618:\n        /* \"/home/rocha/Proyects/Solidity/F1Bet/ethereum/contracts/F1.sol\":6338:6811  if(checkStingEquality(contestantDriversPrediction[j],drivers[j])){... */\n      iszero\n      tag_629\n      jumpi\n        /* \"/home/rocha/Proyects/Solidity/F1Bet/ethereum/contracts/F1.sol\":6438:6439  5 */\n      0x05\n        /* \"/home/rocha/Proyects/Solidity/F1Bet/ethereum/contracts/F1.sol\":6429:6439  points+= 5 */\n      dup3\n      tag_630\n      swap2\n      swap1\n      tag_186\n      jump\t// in\n    tag_630:\n      swap2\n      pop\n        /* \"/home/rocha/Proyects/Solidity/F1Bet/ethereum/contracts/F1.sol\":6338:6811  if(checkStingEquality(contestantDriversPrediction[j],drivers[j])){... */\n      jump(tag_631)\n    tag_629:\n        /* \"/home/rocha/Proyects/Solidity/F1Bet/ethereum/contracts/F1.sol\":6470:6533  checkStingEquality(contestantDriversPrediction[j-1],drivers[j]) */\n      tag_632\n        /* \"/home/rocha/Proyects/Solidity/F1Bet/ethereum/contracts/F1.sol\":6489:6516  contestantDriversPrediction */\n      dup4\n        /* \"/home/rocha/Proyects/Solidity/F1Bet/ethereum/contracts/F1.sol\":6519:6520  1 */\n      0x01\n        /* \"/home/rocha/Proyects/Solidity/F1Bet/ethereum/contracts/F1.sol\":6517:6518  j */\n      dup4\n        /* \"/home/rocha/Proyects/Solidity/F1Bet/ethereum/contracts/F1.sol\":6517:6520  j-1 */\n      tag_633\n      swap2\n      swap1\n      tag_332\n      jump\t// in\n    tag_633:\n        /* \"/home/rocha/Proyects/Solidity/F1Bet/ethereum/contracts/F1.sol\":6489:6521  contestantDriversPrediction[j-1] */\n      0xff\n      and\n      dup2\n      mload\n      dup2\n      lt\n      tag_634\n      jumpi\n      tag_635\n      tag_103\n      jump\t// in\n    tag_635:\n    tag_634:\n      0x20\n      mul\n      0x20\n      add\n      add\n      mload\n        /* \"/home/rocha/Proyects/Solidity/F1Bet/ethereum/contracts/F1.sol\":6522:6529  drivers */\n      0x05\n        /* \"/home/rocha/Proyects/Solidity/F1Bet/ethereum/contracts/F1.sol\":6530:6531  j */\n      dup4\n        /* \"/home/rocha/Proyects/Solidity/F1Bet/ethereum/contracts/F1.sol\":6522:6532  drivers[j] */\n      0xff\n      and\n      dup2\n      sload\n      dup2\n      lt\n      tag_636\n      jumpi\n      tag_637\n      tag_103\n      jump\t// in\n    tag_637:\n    tag_636:\n      swap1\n      0x00\n      mstore\n      keccak256(0x00, 0x20)\n      add\n        /* \"/home/rocha/Proyects/Solidity/F1Bet/ethereum/contracts/F1.sol\":6470:6533  checkStingEquality(contestantDriversPrediction[j-1],drivers[j]) */\n      dup1\n      sload\n      tag_639\n      swap1\n      tag_260\n      jump\t// in\n    tag_639:\n      dup1\n      0x1f\n      add\n      0x20\n      dup1\n      swap2\n      div\n      mul\n      0x20\n      add\n      mload(0x40)\n      swap1\n      dup2\n      add\n      0x40\n      mstore\n      dup1\n      swap3\n      swap2\n      swap1\n      dup2\n      dup2\n      mstore\n      0x20\n      add\n      dup3\n      dup1\n      sload\n      tag_640\n      swap1\n      tag_260\n      jump\t// in\n    tag_640:\n      dup1\n      iszero\n      tag_641\n      jumpi\n      dup1\n      0x1f\n      lt\n      tag_642\n      jumpi\n      0x0100\n      dup1\n      dup4\n      sload\n      div\n      mul\n      dup4\n      mstore\n      swap2\n      0x20\n      add\n      swap2\n      jump(tag_641)\n    tag_642:\n      dup3\n      add\n      swap2\n      swap1\n      0x00\n      mstore\n      keccak256(0x00, 0x20)\n      swap1\n    tag_643:\n      dup2\n      sload\n      dup2\n      mstore\n      swap1\n      0x01\n      add\n      swap1\n      0x20\n      add\n      dup1\n      dup4\n      gt\n      tag_643\n      jumpi\n      dup3\n      swap1\n      sub\n      0x1f\n      and\n      dup3\n      add\n      swap2\n    tag_641:\n      pop\n      pop\n      pop\n      pop\n      pop\n        /* \"/home/rocha/Proyects/Solidity/F1Bet/ethereum/contracts/F1.sol\":6470:6488  checkStingEquality */\n      tag_280\n        /* \"/home/rocha/Proyects/Solidity/F1Bet/ethereum/contracts/F1.sol\":6470:6533  checkStingEquality(contestantDriversPrediction[j-1],drivers[j]) */\n      jump\t// in\n    tag_632:\n        /* \"/home/rocha/Proyects/Solidity/F1Bet/ethereum/contracts/F1.sol\":6470:6600  checkStingEquality(contestantDriversPrediction[j-1],drivers[j]) || checkStingEquality(contestantDriversPrediction[j+1],drivers[j]) */\n      dup1\n      tag_644\n      jumpi\n      pop\n        /* \"/home/rocha/Proyects/Solidity/F1Bet/ethereum/contracts/F1.sol\":6537:6600  checkStingEquality(contestantDriversPrediction[j+1],drivers[j]) */\n      tag_645\n        /* \"/home/rocha/Proyects/Solidity/F1Bet/ethereum/contracts/F1.sol\":6556:6583  contestantDriversPrediction */\n      dup4\n        /* \"/home/rocha/Proyects/Solidity/F1Bet/ethereum/contracts/F1.sol\":6586:6587  1 */\n      0x01\n        /* \"/home/rocha/Proyects/Solidity/F1Bet/ethereum/contracts/F1.sol\":6584:6585  j */\n      dup4\n        /* \"/home/rocha/Proyects/Solidity/F1Bet/ethereum/contracts/F1.sol\":6584:6587  j+1 */\n      tag_646\n      swap2\n      swap1\n      tag_286\n      jump\t// in\n    tag_646:\n        /* \"/home/rocha/Proyects/Solidity/F1Bet/ethereum/contracts/F1.sol\":6556:6588  contestantDriversPrediction[j+1] */\n      0xff\n      and\n      dup2\n      mload\n      dup2\n      lt\n      tag_647\n      jumpi\n      tag_648\n      tag_103\n      jump\t// in\n    tag_648:\n    tag_647:\n      0x20\n      mul\n      0x20\n      add\n      add\n      mload\n        /* \"/home/rocha/Proyects/Solidity/F1Bet/ethereum/contracts/F1.sol\":6589:6596  drivers */\n      0x05\n        /* \"/home/rocha/Proyects/Solidity/F1Bet/ethereum/contracts/F1.sol\":6597:6598  j */\n      dup4\n        /* \"/home/rocha/Proyects/Solidity/F1Bet/ethereum/contracts/F1.sol\":6589:6599  drivers[j] */\n      0xff\n      and\n      dup2\n      sload\n      dup2\n      lt\n      tag_649\n      jumpi\n      tag_650\n      tag_103\n      jump\t// in\n    tag_650:\n    tag_649:\n      swap1\n      0x00\n      mstore\n      keccak256(0x00, 0x20)\n      add\n        /* \"/home/rocha/Proyects/Solidity/F1Bet/ethereum/contracts/F1.sol\":6537:6600  checkStingEquality(contestantDriversPrediction[j+1],drivers[j]) */\n      dup1\n      sload\n      tag_652\n      swap1\n      tag_260\n      jump\t// in\n    tag_652:\n      dup1\n      0x1f\n      add\n      0x20\n      dup1\n      swap2\n      div\n      mul\n      0x20\n      add\n      mload(0x40)\n      swap1\n      dup2\n      add\n      0x40\n      mstore\n      dup1\n      swap3\n      swap2\n      swap1\n      dup2\n      dup2\n      mstore\n      0x20\n      add\n      dup3\n      dup1\n      sload\n      tag_653\n      swap1\n      tag_260\n      jump\t// in\n    tag_653:\n      dup1\n      iszero\n      tag_654\n      jumpi\n      dup1\n      0x1f\n      lt\n      tag_655\n      jumpi\n      0x0100\n      dup1\n      dup4\n      sload\n      div\n      mul\n      dup4\n      mstore\n      swap2\n      0x20\n      add\n      swap2\n      jump(tag_654)\n    tag_655:\n      dup3\n      add\n      swap2\n      swap1\n      0x00\n      mstore\n      keccak256(0x00, 0x20)\n      swap1\n    tag_656:\n      dup2\n      sload\n      dup2\n      mstore\n      swap1\n      0x01\n      add\n      swap1\n      0x20\n      add\n      dup1\n      dup4\n      gt\n      tag_656\n      jumpi\n      dup3\n      swap1\n      sub\n      0x1f\n      and\n      dup3\n      add\n      swap2\n    tag_654:\n      pop\n      pop\n      pop\n      pop\n      pop\n        /* \"/home/rocha/Proyects/Solidity/F1Bet/ethereum/contracts/F1.sol\":6537:6555  checkStingEquality */\n      tag_280\n        /* \"/home/rocha/Proyects/Solidity/F1Bet/ethereum/contracts/F1.sol\":6537:6600  checkStingEquality(contestantDriversPrediction[j+1],drivers[j]) */\n      jump\t// in\n    tag_645:\n        /* \"/home/rocha/Proyects/Solidity/F1Bet/ethereum/contracts/F1.sol\":6470:6600  checkStingEquality(contestantDriversPrediction[j-1],drivers[j]) || checkStingEquality(contestantDriversPrediction[j+1],drivers[j]) */\n    tag_644:\n        /* \"/home/rocha/Proyects/Solidity/F1Bet/ethereum/contracts/F1.sol\":6467:6811  if(checkStingEquality(contestantDriversPrediction[j-1],drivers[j]) || checkStingEquality(contestantDriversPrediction[j+1],drivers[j])){... */\n      iszero\n      tag_657\n      jumpi\n        /* \"/home/rocha/Proyects/Solidity/F1Bet/ethereum/contracts/F1.sol\":6635:6636  3 */\n      0x03\n        /* \"/home/rocha/Proyects/Solidity/F1Bet/ethereum/contracts/F1.sol\":6627:6636  points+=3 */\n      dup3\n      tag_658\n      swap2\n      swap1\n      tag_186\n      jump\t// in\n    tag_658:\n      swap2\n      pop\n        /* \"/home/rocha/Proyects/Solidity/F1Bet/ethereum/contracts/F1.sol\":6467:6811  if(checkStingEquality(contestantDriversPrediction[j-1],drivers[j]) || checkStingEquality(contestantDriversPrediction[j+1],drivers[j])){... */\n      jump(tag_659)\n    tag_657:\n        /* \"/home/rocha/Proyects/Solidity/F1Bet/ethereum/contracts/F1.sol\":6689:6752  checkStingEquality(contestantDriversPrediction[j+2],drivers[j]) */\n      tag_660\n        /* \"/home/rocha/Proyects/Solidity/F1Bet/ethereum/contracts/F1.sol\":6708:6735  contestantDriversPrediction */\n      dup4\n        /* \"/home/rocha/Proyects/Solidity/F1Bet/ethereum/contracts/F1.sol\":6738:6739  2 */\n      0x02\n        /* \"/home/rocha/Proyects/Solidity/F1Bet/ethereum/contracts/F1.sol\":6736:6737  j */\n      dup4\n        /* \"/home/rocha/Proyects/Solidity/F1Bet/ethereum/contracts/F1.sol\":6736:6739  j+2 */\n      tag_661\n      swap2\n      swap1\n      tag_286\n      jump\t// in\n    tag_661:\n        /* \"/home/rocha/Proyects/Solidity/F1Bet/ethereum/contracts/F1.sol\":6708:6740  contestantDriversPrediction[j+2] */\n      0xff\n      and\n      dup2\n      mload\n      dup2\n      lt\n      tag_662\n      jumpi\n      tag_663\n      tag_103\n      jump\t// in\n    tag_663:\n    tag_662:\n      0x20\n      mul\n      0x20\n      add\n      add\n      mload\n        /* \"/home/rocha/Proyects/Solidity/F1Bet/ethereum/contracts/F1.sol\":6741:6748  drivers */\n      0x05\n        /* \"/home/rocha/Proyects/Solidity/F1Bet/ethereum/contracts/F1.sol\":6749:6750  j */\n      dup4\n        /* \"/home/rocha/Proyects/Solidity/F1Bet/ethereum/contracts/F1.sol\":6741:6751  drivers[j] */\n      0xff\n      and\n      dup2\n      sload\n      dup2\n      lt\n      tag_664\n      jumpi\n      tag_665\n      tag_103\n      jump\t// in\n    tag_665:\n    tag_664:\n      swap1\n      0x00\n      mstore\n      keccak256(0x00, 0x20)\n      add\n        /* \"/home/rocha/Proyects/Solidity/F1Bet/ethereum/contracts/F1.sol\":6689:6752  checkStingEquality(contestantDriversPrediction[j+2],drivers[j]) */\n      dup1\n      sload\n      tag_667\n      swap1\n      tag_260\n      jump\t// in\n    tag_667:\n      dup1\n      0x1f\n      add\n      0x20\n      dup1\n      swap2\n      div\n      mul\n      0x20\n      add\n      mload(0x40)\n      swap1\n      dup2\n      add\n      0x40\n      mstore\n      dup1\n      swap3\n      swap2\n      swap1\n      dup2\n      dup2\n      mstore\n      0x20\n      add\n      dup3\n      dup1\n      sload\n      tag_668\n      swap1\n      tag_260\n      jump\t// in\n    tag_668:\n      dup1\n      iszero\n      tag_669\n      jumpi\n      dup1\n      0x1f\n      lt\n      tag_670\n      jumpi\n      0x0100\n      dup1\n      dup4\n      sload\n      div\n      mul\n      dup4\n      mstore\n      swap2\n      0x20\n      add\n      swap2\n      jump(tag_669)\n    tag_670:\n      dup3\n      add\n      swap2\n      swap1\n      0x00\n      mstore\n      keccak256(0x00, 0x20)\n      swap1\n    tag_671:\n      dup2\n      sload\n      dup2\n      mstore\n      swap1\n      0x01\n      add\n      swap1\n      0x20\n      add\n      dup1\n      dup4\n      gt\n      tag_671\n      jumpi\n      dup3\n      swap1\n      sub\n      0x1f\n      and\n      dup3\n      add\n      swap2\n    tag_669:\n      pop\n      pop\n      pop\n      pop\n      pop\n        /* \"/home/rocha/Proyects/Solidity/F1Bet/ethereum/contracts/F1.sol\":6689:6707  checkStingEquality */\n      tag_280\n        /* \"/home/rocha/Proyects/Solidity/F1Bet/ethereum/contracts/F1.sol\":6689:6752  checkStingEquality(contestantDriversPrediction[j+2],drivers[j]) */\n      jump\t// in\n    tag_660:\n        /* \"/home/rocha/Proyects/Solidity/F1Bet/ethereum/contracts/F1.sol\":6685:6811  if( checkStingEquality(contestantDriversPrediction[j+2],drivers[j])){... */\n      iszero\n      tag_672\n      jumpi\n        /* \"/home/rocha/Proyects/Solidity/F1Bet/ethereum/contracts/F1.sol\":6787:6788  1 */\n      0x01\n        /* \"/home/rocha/Proyects/Solidity/F1Bet/ethereum/contracts/F1.sol\":6779:6788  points+=1 */\n      dup3\n      tag_673\n      swap2\n      swap1\n      tag_186\n      jump\t// in\n    tag_673:\n      swap2\n      pop\n        /* \"/home/rocha/Proyects/Solidity/F1Bet/ethereum/contracts/F1.sol\":6685:6811  if( checkStingEquality(contestantDriversPrediction[j+2],drivers[j])){... */\n    tag_672:\n        /* \"/home/rocha/Proyects/Solidity/F1Bet/ethereum/contracts/F1.sol\":6467:6811  if(checkStingEquality(contestantDriversPrediction[j-1],drivers[j]) || checkStingEquality(contestantDriversPrediction[j+1],drivers[j])){... */\n    tag_659:\n        /* \"/home/rocha/Proyects/Solidity/F1Bet/ethereum/contracts/F1.sol\":6338:6811  if(checkStingEquality(contestantDriversPrediction[j],drivers[j])){... */\n    tag_631:\n        /* \"/home/rocha/Proyects/Solidity/F1Bet/ethereum/contracts/F1.sol\":6309:8425  if(j<2){... */\n      jump(tag_674)\n    tag_617:\n        /* \"/home/rocha/Proyects/Solidity/F1Bet/ethereum/contracts/F1.sol\":6855:6856  2 */\n      0x02\n        /* \"/home/rocha/Proyects/Solidity/F1Bet/ethereum/contracts/F1.sol\":6840:6847  drivers */\n      0x05\n        /* \"/home/rocha/Proyects/Solidity/F1Bet/ethereum/contracts/F1.sol\":6840:6854  drivers.length */\n      dup1\n      sload\n      swap1\n      pop\n        /* \"/home/rocha/Proyects/Solidity/F1Bet/ethereum/contracts/F1.sol\":6840:6856  drivers.length-2 */\n      tag_675\n      swap2\n      swap1\n      tag_375\n      jump\t// in\n    tag_675:\n        /* \"/home/rocha/Proyects/Solidity/F1Bet/ethereum/contracts/F1.sol\":6837:6838  j */\n      dup2\n        /* \"/home/rocha/Proyects/Solidity/F1Bet/ethereum/contracts/F1.sol\":6837:6856  j==drivers.length-2 */\n      0xff\n      and\n      eq\n        /* \"/home/rocha/Proyects/Solidity/F1Bet/ethereum/contracts/F1.sol\":6834:8425  if(j==drivers.length-2){... */\n      iszero\n      tag_676\n      jumpi\n        /* \"/home/rocha/Proyects/Solidity/F1Bet/ethereum/contracts/F1.sol\":6882:6943  checkStingEquality(contestantDriversPrediction[j],drivers[j]) */\n      tag_677\n        /* \"/home/rocha/Proyects/Solidity/F1Bet/ethereum/contracts/F1.sol\":6901:6928  contestantDriversPrediction */\n      dup4\n        /* \"/home/rocha/Proyects/Solidity/F1Bet/ethereum/contracts/F1.sol\":6929:6930  j */\n      dup3\n        /* \"/home/rocha/Proyects/Solidity/F1Bet/ethereum/contracts/F1.sol\":6901:6931  contestantDriversPrediction[j] */\n      0xff\n      and\n      dup2\n      mload\n      dup2\n      lt\n      tag_678\n      jumpi\n      tag_679\n      tag_103\n      jump\t// in\n    tag_679:\n    tag_678:\n      0x20\n      mul\n      0x20\n      add\n      add\n      mload\n        /* \"/home/rocha/Proyects/Solidity/F1Bet/ethereum/contracts/F1.sol\":6932:6939  drivers */\n      0x05\n        /* \"/home/rocha/Proyects/Solidity/F1Bet/ethereum/contracts/F1.sol\":6940:6941  j */\n      dup4\n        /* \"/home/rocha/Proyects/Solidity/F1Bet/ethereum/contracts/F1.sol\":6932:6942  drivers[j] */\n      0xff\n      and\n      dup2\n      sload\n      dup2\n      lt\n      tag_680\n      jumpi\n      tag_681\n      tag_103\n      jump\t// in\n    tag_681:\n    tag_680:\n      swap1\n      0x00\n      mstore\n      keccak256(0x00, 0x20)\n      add\n        /* \"/home/rocha/Proyects/Solidity/F1Bet/ethereum/contracts/F1.sol\":6882:6943  checkStingEquality(contestantDriversPrediction[j],drivers[j]) */\n      dup1\n      sload\n      tag_683\n      swap1\n      tag_260\n      jump\t// in\n    tag_683:\n      dup1\n      0x1f\n      add\n      0x20\n      dup1\n      swap2\n      div\n      mul\n      0x20\n      add\n      mload(0x40)\n      swap1\n      dup2\n      add\n      0x40\n      mstore\n      dup1\n      swap3\n      swap2\n      swap1\n      dup2\n      dup2\n      mstore\n      0x20\n      add\n      dup3\n      dup1\n      sload\n      tag_684\n      swap1\n      tag_260\n      jump\t// in\n    tag_684:\n      dup1\n      iszero\n      tag_685\n      jumpi\n      dup1\n      0x1f\n      lt\n      tag_686\n      jumpi\n      0x0100\n      dup1\n      dup4\n      sload\n      div\n      mul\n      dup4\n      mstore\n      swap2\n      0x20\n      add\n      swap2\n      jump(tag_685)\n    tag_686:\n      dup3\n      add\n      swap2\n      swap1\n      0x00\n      mstore\n      keccak256(0x00, 0x20)\n      swap1\n    tag_687:\n      dup2\n      sload\n      dup2\n      mstore\n      swap1\n      0x01\n      add\n      swap1\n      0x20\n      add\n      dup1\n      dup4\n      gt\n      tag_687\n      jumpi\n      dup3\n      swap1\n      sub\n      0x1f\n      and\n      dup3\n      add\n      swap2\n    tag_685:\n      pop\n      pop\n      pop\n      pop\n      pop\n        /* \"/home/rocha/Proyects/Solidity/F1Bet/ethereum/contracts/F1.sol\":6882:6900  checkStingEquality */\n      tag_280\n        /* \"/home/rocha/Proyects/Solidity/F1Bet/ethereum/contracts/F1.sol\":6882:6943  checkStingEquality(contestantDriversPrediction[j],drivers[j]) */\n      jump\t// in\n    tag_677:\n        /* \"/home/rocha/Proyects/Solidity/F1Bet/ethereum/contracts/F1.sol\":6879:7351  if(checkStingEquality(contestantDriversPrediction[j],drivers[j])){... */\n      iszero\n      tag_688\n      jumpi\n        /* \"/home/rocha/Proyects/Solidity/F1Bet/ethereum/contracts/F1.sol\":6979:6980  5 */\n      0x05\n        /* \"/home/rocha/Proyects/Solidity/F1Bet/ethereum/contracts/F1.sol\":6970:6980  points+= 5 */\n      dup3\n      tag_689\n      swap2\n      swap1\n      tag_186\n      jump\t// in\n    tag_689:\n      swap2\n      pop\n        /* \"/home/rocha/Proyects/Solidity/F1Bet/ethereum/contracts/F1.sol\":6879:7351  if(checkStingEquality(contestantDriversPrediction[j],drivers[j])){... */\n      jump(tag_690)\n    tag_688:\n        /* \"/home/rocha/Proyects/Solidity/F1Bet/ethereum/contracts/F1.sol\":7011:7074  checkStingEquality(contestantDriversPrediction[j-1],drivers[j]) */\n      tag_691\n        /* \"/home/rocha/Proyects/Solidity/F1Bet/ethereum/contracts/F1.sol\":7030:7057  contestantDriversPrediction */\n      dup4\n        /* \"/home/rocha/Proyects/Solidity/F1Bet/ethereum/contracts/F1.sol\":7060:7061  1 */\n      0x01\n        /* \"/home/rocha/Proyects/Solidity/F1Bet/ethereum/contracts/F1.sol\":7058:7059  j */\n      dup4\n        /* \"/home/rocha/Proyects/Solidity/F1Bet/ethereum/contracts/F1.sol\":7058:7061  j-1 */\n      tag_692\n      swap2\n      swap1\n      tag_332\n      jump\t// in\n    tag_692:\n        /* \"/home/rocha/Proyects/Solidity/F1Bet/ethereum/contracts/F1.sol\":7030:7062  contestantDriversPrediction[j-1] */\n      0xff\n      and\n      dup2\n      mload\n      dup2\n      lt\n      tag_693\n      jumpi\n      tag_694\n      tag_103\n      jump\t// in\n    tag_694:\n    tag_693:\n      0x20\n      mul\n      0x20\n      add\n      add\n      mload\n        /* \"/home/rocha/Proyects/Solidity/F1Bet/ethereum/contracts/F1.sol\":7063:7070  drivers */\n      0x05\n        /* \"/home/rocha/Proyects/Solidity/F1Bet/ethereum/contracts/F1.sol\":7071:7072  j */\n      dup4\n        /* \"/home/rocha/Proyects/Solidity/F1Bet/ethereum/contracts/F1.sol\":7063:7073  drivers[j] */\n      0xff\n      and\n      dup2\n      sload\n      dup2\n      lt\n      tag_695\n      jumpi\n      tag_696\n      tag_103\n      jump\t// in\n    tag_696:\n    tag_695:\n      swap1\n      0x00\n      mstore\n      keccak256(0x00, 0x20)\n      add\n        /* \"/home/rocha/Proyects/Solidity/F1Bet/ethereum/contracts/F1.sol\":7011:7074  checkStingEquality(contestantDriversPrediction[j-1],drivers[j]) */\n      dup1\n      sload\n      tag_698\n      swap1\n      tag_260\n      jump\t// in\n    tag_698:\n      dup1\n      0x1f\n      add\n      0x20\n      dup1\n      swap2\n      div\n      mul\n      0x20\n      add\n      mload(0x40)\n      swap1\n      dup2\n      add\n      0x40\n      mstore\n      dup1\n      swap3\n      swap2\n      swap1\n      dup2\n      dup2\n      mstore\n      0x20\n      add\n      dup3\n      dup1\n      sload\n      tag_699\n      swap1\n      tag_260\n      jump\t// in\n    tag_699:\n      dup1\n      iszero\n      tag_700\n      jumpi\n      dup1\n      0x1f\n      lt\n      tag_701\n      jumpi\n      0x0100\n      dup1\n      dup4\n      sload\n      div\n      mul\n      dup4\n      mstore\n      swap2\n      0x20\n      add\n      swap2\n      jump(tag_700)\n    tag_701:\n      dup3\n      add\n      swap2\n      swap1\n      0x00\n      mstore\n      keccak256(0x00, 0x20)\n      swap1\n    tag_702:\n      dup2\n      sload\n      dup2\n      mstore\n      swap1\n      0x01\n      add\n      swap1\n      0x20\n      add\n      dup1\n      dup4\n      gt\n      tag_702\n      jumpi\n      dup3\n      swap1\n      sub\n      0x1f\n      and\n      dup3\n      add\n      swap2\n    tag_700:\n      pop\n      pop\n      pop\n      pop\n      pop\n        /* \"/home/rocha/Proyects/Solidity/F1Bet/ethereum/contracts/F1.sol\":7011:7029  checkStingEquality */\n      tag_280\n        /* \"/home/rocha/Proyects/Solidity/F1Bet/ethereum/contracts/F1.sol\":7011:7074  checkStingEquality(contestantDriversPrediction[j-1],drivers[j]) */\n      jump\t// in\n    tag_691:\n        /* \"/home/rocha/Proyects/Solidity/F1Bet/ethereum/contracts/F1.sol\":7011:7141  checkStingEquality(contestantDriversPrediction[j-1],drivers[j]) || checkStingEquality(contestantDriversPrediction[j+1],drivers[j]) */\n      dup1\n      tag_703\n      jumpi\n      pop\n        /* \"/home/rocha/Proyects/Solidity/F1Bet/ethereum/contracts/F1.sol\":7078:7141  checkStingEquality(contestantDriversPrediction[j+1],drivers[j]) */\n      tag_704\n        /* \"/home/rocha/Proyects/Solidity/F1Bet/ethereum/contracts/F1.sol\":7097:7124  contestantDriversPrediction */\n      dup4\n        /* \"/home/rocha/Proyects/Solidity/F1Bet/ethereum/contracts/F1.sol\":7127:7128  1 */\n      0x01\n        /* \"/home/rocha/Proyects/Solidity/F1Bet/ethereum/contracts/F1.sol\":7125:7126  j */\n      dup4\n        /* \"/home/rocha/Proyects/Solidity/F1Bet/ethereum/contracts/F1.sol\":7125:7128  j+1 */\n      tag_705\n      swap2\n      swap1\n      tag_286\n      jump\t// in\n    tag_705:\n        /* \"/home/rocha/Proyects/Solidity/F1Bet/ethereum/contracts/F1.sol\":7097:7129  contestantDriversPrediction[j+1] */\n      0xff\n      and\n      dup2\n      mload\n      dup2\n      lt\n      tag_706\n      jumpi\n      tag_707\n      tag_103\n      jump\t// in\n    tag_707:\n    tag_706:\n      0x20\n      mul\n      0x20\n      add\n      add\n      mload\n        /* \"/home/rocha/Proyects/Solidity/F1Bet/ethereum/contracts/F1.sol\":7130:7137  drivers */\n      0x05\n        /* \"/home/rocha/Proyects/Solidity/F1Bet/ethereum/contracts/F1.sol\":7138:7139  j */\n      dup4\n        /* \"/home/rocha/Proyects/Solidity/F1Bet/ethereum/contracts/F1.sol\":7130:7140  drivers[j] */\n      0xff\n      and\n      dup2\n      sload\n      dup2\n      lt\n      tag_708\n      jumpi\n      tag_709\n      tag_103\n      jump\t// in\n    tag_709:\n    tag_708:\n      swap1\n      0x00\n      mstore\n      keccak256(0x00, 0x20)\n      add\n        /* \"/home/rocha/Proyects/Solidity/F1Bet/ethereum/contracts/F1.sol\":7078:7141  checkStingEquality(contestantDriversPrediction[j+1],drivers[j]) */\n      dup1\n      sload\n      tag_711\n      swap1\n      tag_260\n      jump\t// in\n    tag_711:\n      dup1\n      0x1f\n      add\n      0x20\n      dup1\n      swap2\n      div\n      mul\n      0x20\n      add\n      mload(0x40)\n      swap1\n      dup2\n      add\n      0x40\n      mstore\n      dup1\n      swap3\n      swap2\n      swap1\n      dup2\n      dup2\n      mstore\n      0x20\n      add\n      dup3\n      dup1\n      sload\n      tag_712\n      swap1\n      tag_260\n      jump\t// in\n    tag_712:\n      dup1\n      iszero\n      tag_713\n      jumpi\n      dup1\n      0x1f\n      lt\n      tag_714\n      jumpi\n      0x0100\n      dup1\n      dup4\n      sload\n      div\n      mul\n      dup4\n      mstore\n      swap2\n      0x20\n      add\n      swap2\n      jump(tag_713)\n    tag_714:\n      dup3\n      add\n      swap2\n      swap1\n      0x00\n      mstore\n      keccak256(0x00, 0x20)\n      swap1\n    tag_715:\n      dup2\n      sload\n      dup2\n      mstore\n      swap1\n      0x01\n      add\n      swap1\n      0x20\n      add\n      dup1\n      dup4\n      gt\n      tag_715\n      jumpi\n      dup3\n      swap1\n      sub\n      0x1f\n      and\n      dup3\n      add\n      swap2\n    tag_713:\n      pop\n      pop\n      pop\n      pop\n      pop\n        /* \"/home/rocha/Proyects/Solidity/F1Bet/ethereum/contracts/F1.sol\":7078:7096  checkStingEquality */\n      tag_280\n        /* \"/home/rocha/Proyects/Solidity/F1Bet/ethereum/contracts/F1.sol\":7078:7141  checkStingEquality(contestantDriversPrediction[j+1],drivers[j]) */\n      jump\t// in\n    tag_704:\n        /* \"/home/rocha/Proyects/Solidity/F1Bet/ethereum/contracts/F1.sol\":7011:7141  checkStingEquality(contestantDriversPrediction[j-1],drivers[j]) || checkStingEquality(contestantDriversPrediction[j+1],drivers[j]) */\n    tag_703:\n        /* \"/home/rocha/Proyects/Solidity/F1Bet/ethereum/contracts/F1.sol\":7008:7351  if(checkStingEquality(contestantDriversPrediction[j-1],drivers[j]) || checkStingEquality(contestantDriversPrediction[j+1],drivers[j])){... */\n      iszero\n      tag_716\n      jumpi\n        /* \"/home/rocha/Proyects/Solidity/F1Bet/ethereum/contracts/F1.sol\":7176:7177  3 */\n      0x03\n        /* \"/home/rocha/Proyects/Solidity/F1Bet/ethereum/contracts/F1.sol\":7168:7177  points+=3 */\n      dup3\n      tag_717\n      swap2\n      swap1\n      tag_186\n      jump\t// in\n    tag_717:\n      swap2\n      pop\n        /* \"/home/rocha/Proyects/Solidity/F1Bet/ethereum/contracts/F1.sol\":7008:7351  if(checkStingEquality(contestantDriversPrediction[j-1],drivers[j]) || checkStingEquality(contestantDriversPrediction[j+1],drivers[j])){... */\n      jump(tag_718)\n    tag_716:\n        /* \"/home/rocha/Proyects/Solidity/F1Bet/ethereum/contracts/F1.sol\":7229:7292  checkStingEquality(contestantDriversPrediction[j-2],drivers[j]) */\n      tag_719\n        /* \"/home/rocha/Proyects/Solidity/F1Bet/ethereum/contracts/F1.sol\":7248:7275  contestantDriversPrediction */\n      dup4\n        /* \"/home/rocha/Proyects/Solidity/F1Bet/ethereum/contracts/F1.sol\":7278:7279  2 */\n      0x02\n        /* \"/home/rocha/Proyects/Solidity/F1Bet/ethereum/contracts/F1.sol\":7276:7277  j */\n      dup4\n        /* \"/home/rocha/Proyects/Solidity/F1Bet/ethereum/contracts/F1.sol\":7276:7279  j-2 */\n      tag_720\n      swap2\n      swap1\n      tag_332\n      jump\t// in\n    tag_720:\n        /* \"/home/rocha/Proyects/Solidity/F1Bet/ethereum/contracts/F1.sol\":7248:7280  contestantDriversPrediction[j-2] */\n      0xff\n      and\n      dup2\n      mload\n      dup2\n      lt\n      tag_721\n      jumpi\n      tag_722\n      tag_103\n      jump\t// in\n    tag_722:\n    tag_721:\n      0x20\n      mul\n      0x20\n      add\n      add\n      mload\n        /* \"/home/rocha/Proyects/Solidity/F1Bet/ethereum/contracts/F1.sol\":7281:7288  drivers */\n      0x05\n        /* \"/home/rocha/Proyects/Solidity/F1Bet/ethereum/contracts/F1.sol\":7289:7290  j */\n      dup4\n        /* \"/home/rocha/Proyects/Solidity/F1Bet/ethereum/contracts/F1.sol\":7281:7291  drivers[j] */\n      0xff\n      and\n      dup2\n      sload\n      dup2\n      lt\n      tag_723\n      jumpi\n      tag_724\n      tag_103\n      jump\t// in\n    tag_724:\n    tag_723:\n      swap1\n      0x00\n      mstore\n      keccak256(0x00, 0x20)\n      add\n        /* \"/home/rocha/Proyects/Solidity/F1Bet/ethereum/contracts/F1.sol\":7229:7292  checkStingEquality(contestantDriversPrediction[j-2],drivers[j]) */\n      dup1\n      sload\n      tag_726\n      swap1\n      tag_260\n      jump\t// in\n    tag_726:\n      dup1\n      0x1f\n      add\n      0x20\n      dup1\n      swap2\n      div\n      mul\n      0x20\n      add\n      mload(0x40)\n      swap1\n      dup2\n      add\n      0x40\n      mstore\n      dup1\n      swap3\n      swap2\n      swap1\n      dup2\n      dup2\n      mstore\n      0x20\n      add\n      dup3\n      dup1\n      sload\n      tag_727\n      swap1\n      tag_260\n      jump\t// in\n    tag_727:\n      dup1\n      iszero\n      tag_728\n      jumpi\n      dup1\n      0x1f\n      lt\n      tag_729\n      jumpi\n      0x0100\n      dup1\n      dup4\n      sload\n      div\n      mul\n      dup4\n      mstore\n      swap2\n      0x20\n      add\n      swap2\n      jump(tag_728)\n    tag_729:\n      dup3\n      add\n      swap2\n      swap1\n      0x00\n      mstore\n      keccak256(0x00, 0x20)\n      swap1\n    tag_730:\n      dup2\n      sload\n      dup2\n      mstore\n      swap1\n      0x01\n      add\n      swap1\n      0x20\n      add\n      dup1\n      dup4\n      gt\n      tag_730\n      jumpi\n      dup3\n      swap1\n      sub\n      0x1f\n      and\n      dup3\n      add\n      swap2\n    tag_728:\n      pop\n      pop\n      pop\n      pop\n      pop\n        /* \"/home/rocha/Proyects/Solidity/F1Bet/ethereum/contracts/F1.sol\":7229:7247  checkStingEquality */\n      tag_280\n        /* \"/home/rocha/Proyects/Solidity/F1Bet/ethereum/contracts/F1.sol\":7229:7292  checkStingEquality(contestantDriversPrediction[j-2],drivers[j]) */\n      jump\t// in\n    tag_719:\n        /* \"/home/rocha/Proyects/Solidity/F1Bet/ethereum/contracts/F1.sol\":7226:7351  if(checkStingEquality(contestantDriversPrediction[j-2],drivers[j])){... */\n      iszero\n      tag_731\n      jumpi\n        /* \"/home/rocha/Proyects/Solidity/F1Bet/ethereum/contracts/F1.sol\":7327:7328  1 */\n      0x01\n        /* \"/home/rocha/Proyects/Solidity/F1Bet/ethereum/contracts/F1.sol\":7319:7328  points+=1 */\n      dup3\n      tag_732\n      swap2\n      swap1\n      tag_186\n      jump\t// in\n    tag_732:\n      swap2\n      pop\n        /* \"/home/rocha/Proyects/Solidity/F1Bet/ethereum/contracts/F1.sol\":7226:7351  if(checkStingEquality(contestantDriversPrediction[j-2],drivers[j])){... */\n    tag_731:\n        /* \"/home/rocha/Proyects/Solidity/F1Bet/ethereum/contracts/F1.sol\":7008:7351  if(checkStingEquality(contestantDriversPrediction[j-1],drivers[j]) || checkStingEquality(contestantDriversPrediction[j+1],drivers[j])){... */\n    tag_718:\n        /* \"/home/rocha/Proyects/Solidity/F1Bet/ethereum/contracts/F1.sol\":6879:7351  if(checkStingEquality(contestantDriversPrediction[j],drivers[j])){... */\n    tag_690:\n        /* \"/home/rocha/Proyects/Solidity/F1Bet/ethereum/contracts/F1.sol\":6834:8425  if(j==drivers.length-2){... */\n      jump(tag_733)\n    tag_676:\n        /* \"/home/rocha/Proyects/Solidity/F1Bet/ethereum/contracts/F1.sol\":7395:7396  1 */\n      0x01\n        /* \"/home/rocha/Proyects/Solidity/F1Bet/ethereum/contracts/F1.sol\":7380:7387  drivers */\n      0x05\n        /* \"/home/rocha/Proyects/Solidity/F1Bet/ethereum/contracts/F1.sol\":7380:7394  drivers.length */\n      dup1\n      sload\n      swap1\n      pop\n        /* \"/home/rocha/Proyects/Solidity/F1Bet/ethereum/contracts/F1.sol\":7380:7396  drivers.length-1 */\n      tag_734\n      swap2\n      swap1\n      tag_375\n      jump\t// in\n    tag_734:\n        /* \"/home/rocha/Proyects/Solidity/F1Bet/ethereum/contracts/F1.sol\":7377:7378  j */\n      dup2\n        /* \"/home/rocha/Proyects/Solidity/F1Bet/ethereum/contracts/F1.sol\":7377:7396  j==drivers.length-1 */\n      0xff\n      and\n      eq\n        /* \"/home/rocha/Proyects/Solidity/F1Bet/ethereum/contracts/F1.sol\":7374:8425  if(j==drivers.length-1){... */\n      iszero\n      tag_735\n      jumpi\n        /* \"/home/rocha/Proyects/Solidity/F1Bet/ethereum/contracts/F1.sol\":7422:7483  checkStingEquality(contestantDriversPrediction[j],drivers[j]) */\n      tag_736\n        /* \"/home/rocha/Proyects/Solidity/F1Bet/ethereum/contracts/F1.sol\":7441:7468  contestantDriversPrediction */\n      dup4\n        /* \"/home/rocha/Proyects/Solidity/F1Bet/ethereum/contracts/F1.sol\":7469:7470  j */\n      dup3\n        /* \"/home/rocha/Proyects/Solidity/F1Bet/ethereum/contracts/F1.sol\":7441:7471  contestantDriversPrediction[j] */\n      0xff\n      and\n      dup2\n      mload\n      dup2\n      lt\n      tag_737\n      jumpi\n      tag_738\n      tag_103\n      jump\t// in\n    tag_738:\n    tag_737:\n      0x20\n      mul\n      0x20\n      add\n      add\n      mload\n        /* \"/home/rocha/Proyects/Solidity/F1Bet/ethereum/contracts/F1.sol\":7472:7479  drivers */\n      0x05\n        /* \"/home/rocha/Proyects/Solidity/F1Bet/ethereum/contracts/F1.sol\":7480:7481  j */\n      dup4\n        /* \"/home/rocha/Proyects/Solidity/F1Bet/ethereum/contracts/F1.sol\":7472:7482  drivers[j] */\n      0xff\n      and\n      dup2\n      sload\n      dup2\n      lt\n      tag_739\n      jumpi\n      tag_740\n      tag_103\n      jump\t// in\n    tag_740:\n    tag_739:\n      swap1\n      0x00\n      mstore\n      keccak256(0x00, 0x20)\n      add\n        /* \"/home/rocha/Proyects/Solidity/F1Bet/ethereum/contracts/F1.sol\":7422:7483  checkStingEquality(contestantDriversPrediction[j],drivers[j]) */\n      dup1\n      sload\n      tag_742\n      swap1\n      tag_260\n      jump\t// in\n    tag_742:\n      dup1\n      0x1f\n      add\n      0x20\n      dup1\n      swap2\n      div\n      mul\n      0x20\n      add\n      mload(0x40)\n      swap1\n      dup2\n      add\n      0x40\n      mstore\n      dup1\n      swap3\n      swap2\n      swap1\n      dup2\n      dup2\n      mstore\n      0x20\n      add\n      dup3\n      dup1\n      sload\n      tag_743\n      swap1\n      tag_260\n      jump\t// in\n    tag_743:\n      dup1\n      iszero\n      tag_744\n      jumpi\n      dup1\n      0x1f\n      lt\n      tag_745\n      jumpi\n      0x0100\n      dup1\n      dup4\n      sload\n      div\n      mul\n      dup4\n      mstore\n      swap2\n      0x20\n      add\n      swap2\n      jump(tag_744)\n    tag_745:\n      dup3\n      add\n      swap2\n      swap1\n      0x00\n      mstore\n      keccak256(0x00, 0x20)\n      swap1\n    tag_746:\n      dup2\n      sload\n      dup2\n      mstore\n      swap1\n      0x01\n      add\n      swap1\n      0x20\n      add\n      dup1\n      dup4\n      gt\n      tag_746\n      jumpi\n      dup3\n      swap1\n      sub\n      0x1f\n      and\n      dup3\n      add\n      swap2\n    tag_744:\n      pop\n      pop\n      pop\n      pop\n      pop\n        /* \"/home/rocha/Proyects/Solidity/F1Bet/ethereum/contracts/F1.sol\":7422:7440  checkStingEquality */\n      tag_280\n        /* \"/home/rocha/Proyects/Solidity/F1Bet/ethereum/contracts/F1.sol\":7422:7483  checkStingEquality(contestantDriversPrediction[j],drivers[j]) */\n      jump\t// in\n    tag_736:\n        /* \"/home/rocha/Proyects/Solidity/F1Bet/ethereum/contracts/F1.sol\":7419:7824  if(checkStingEquality(contestantDriversPrediction[j],drivers[j])){... */\n      iszero\n      tag_747\n      jumpi\n        /* \"/home/rocha/Proyects/Solidity/F1Bet/ethereum/contracts/F1.sol\":7519:7520  5 */\n      0x05\n        /* \"/home/rocha/Proyects/Solidity/F1Bet/ethereum/contracts/F1.sol\":7510:7520  points+= 5 */\n      dup3\n      tag_748\n      swap2\n      swap1\n      tag_186\n      jump\t// in\n    tag_748:\n      swap2\n      pop\n        /* \"/home/rocha/Proyects/Solidity/F1Bet/ethereum/contracts/F1.sol\":7419:7824  if(checkStingEquality(contestantDriversPrediction[j],drivers[j])){... */\n      jump(tag_749)\n    tag_747:\n        /* \"/home/rocha/Proyects/Solidity/F1Bet/ethereum/contracts/F1.sol\":7551:7614  checkStingEquality(contestantDriversPrediction[j-1],drivers[j]) */\n      tag_750\n        /* \"/home/rocha/Proyects/Solidity/F1Bet/ethereum/contracts/F1.sol\":7570:7597  contestantDriversPrediction */\n      dup4\n        /* \"/home/rocha/Proyects/Solidity/F1Bet/ethereum/contracts/F1.sol\":7600:7601  1 */\n      0x01\n        /* \"/home/rocha/Proyects/Solidity/F1Bet/ethereum/contracts/F1.sol\":7598:7599  j */\n      dup4\n        /* \"/home/rocha/Proyects/Solidity/F1Bet/ethereum/contracts/F1.sol\":7598:7601  j-1 */\n      tag_751\n      swap2\n      swap1\n      tag_332\n      jump\t// in\n    tag_751:\n        /* \"/home/rocha/Proyects/Solidity/F1Bet/ethereum/contracts/F1.sol\":7570:7602  contestantDriversPrediction[j-1] */\n      0xff\n      and\n      dup2\n      mload\n      dup2\n      lt\n      tag_752\n      jumpi\n      tag_753\n      tag_103\n      jump\t// in\n    tag_753:\n    tag_752:\n      0x20\n      mul\n      0x20\n      add\n      add\n      mload\n        /* \"/home/rocha/Proyects/Solidity/F1Bet/ethereum/contracts/F1.sol\":7603:7610  drivers */\n      0x05\n        /* \"/home/rocha/Proyects/Solidity/F1Bet/ethereum/contracts/F1.sol\":7611:7612  j */\n      dup4\n        /* \"/home/rocha/Proyects/Solidity/F1Bet/ethereum/contracts/F1.sol\":7603:7613  drivers[j] */\n      0xff\n      and\n      dup2\n      sload\n      dup2\n      lt\n      tag_754\n      jumpi\n      tag_755\n      tag_103\n      jump\t// in\n    tag_755:\n    tag_754:\n      swap1\n      0x00\n      mstore\n      keccak256(0x00, 0x20)\n      add\n        /* \"/home/rocha/Proyects/Solidity/F1Bet/ethereum/contracts/F1.sol\":7551:7614  checkStingEquality(contestantDriversPrediction[j-1],drivers[j]) */\n      dup1\n      sload\n      tag_757\n      swap1\n      tag_260\n      jump\t// in\n    tag_757:\n      dup1\n      0x1f\n      add\n      0x20\n      dup1\n      swap2\n      div\n      mul\n      0x20\n      add\n      mload(0x40)\n      swap1\n      dup2\n      add\n      0x40\n      mstore\n      dup1\n      swap3\n      swap2\n      swap1\n      dup2\n      dup2\n      mstore\n      0x20\n      add\n      dup3\n      dup1\n      sload\n      tag_758\n      swap1\n      tag_260\n      jump\t// in\n    tag_758:\n      dup1\n      iszero\n      tag_759\n      jumpi\n      dup1\n      0x1f\n      lt\n      tag_760\n      jumpi\n      0x0100\n      dup1\n      dup4\n      sload\n      div\n      mul\n      dup4\n      mstore\n      swap2\n      0x20\n      add\n      swap2\n      jump(tag_759)\n    tag_760:\n      dup3\n      add\n      swap2\n      swap1\n      0x00\n      mstore\n      keccak256(0x00, 0x20)\n      swap1\n    tag_761:\n      dup2\n      sload\n      dup2\n      mstore\n      swap1\n      0x01\n      add\n      swap1\n      0x20\n      add\n      dup1\n      dup4\n      gt\n      tag_761\n      jumpi\n      dup3\n      swap1\n      sub\n      0x1f\n      and\n      dup3\n      add\n      swap2\n    tag_759:\n      pop\n      pop\n      pop\n      pop\n      pop\n        /* \"/home/rocha/Proyects/Solidity/F1Bet/ethereum/contracts/F1.sol\":7551:7569  checkStingEquality */\n      tag_280\n        /* \"/home/rocha/Proyects/Solidity/F1Bet/ethereum/contracts/F1.sol\":7551:7614  checkStingEquality(contestantDriversPrediction[j-1],drivers[j]) */\n      jump\t// in\n    tag_750:\n        /* \"/home/rocha/Proyects/Solidity/F1Bet/ethereum/contracts/F1.sol\":7548:7824  if(checkStingEquality(contestantDriversPrediction[j-1],drivers[j])){... */\n      iszero\n      tag_762\n      jumpi\n        /* \"/home/rocha/Proyects/Solidity/F1Bet/ethereum/contracts/F1.sol\":7649:7650  3 */\n      0x03\n        /* \"/home/rocha/Proyects/Solidity/F1Bet/ethereum/contracts/F1.sol\":7641:7650  points+=3 */\n      dup3\n      tag_763\n      swap2\n      swap1\n      tag_186\n      jump\t// in\n    tag_763:\n      swap2\n      pop\n        /* \"/home/rocha/Proyects/Solidity/F1Bet/ethereum/contracts/F1.sol\":7548:7824  if(checkStingEquality(contestantDriversPrediction[j-1],drivers[j])){... */\n      jump(tag_764)\n    tag_762:\n        /* \"/home/rocha/Proyects/Solidity/F1Bet/ethereum/contracts/F1.sol\":7702:7765  checkStingEquality(contestantDriversPrediction[j-2],drivers[j]) */\n      tag_765\n        /* \"/home/rocha/Proyects/Solidity/F1Bet/ethereum/contracts/F1.sol\":7721:7748  contestantDriversPrediction */\n      dup4\n        /* \"/home/rocha/Proyects/Solidity/F1Bet/ethereum/contracts/F1.sol\":7751:7752  2 */\n      0x02\n        /* \"/home/rocha/Proyects/Solidity/F1Bet/ethereum/contracts/F1.sol\":7749:7750  j */\n      dup4\n        /* \"/home/rocha/Proyects/Solidity/F1Bet/ethereum/contracts/F1.sol\":7749:7752  j-2 */\n      tag_766\n      swap2\n      swap1\n      tag_332\n      jump\t// in\n    tag_766:\n        /* \"/home/rocha/Proyects/Solidity/F1Bet/ethereum/contracts/F1.sol\":7721:7753  contestantDriversPrediction[j-2] */\n      0xff\n      and\n      dup2\n      mload\n      dup2\n      lt\n      tag_767\n      jumpi\n      tag_768\n      tag_103\n      jump\t// in\n    tag_768:\n    tag_767:\n      0x20\n      mul\n      0x20\n      add\n      add\n      mload\n        /* \"/home/rocha/Proyects/Solidity/F1Bet/ethereum/contracts/F1.sol\":7754:7761  drivers */\n      0x05\n        /* \"/home/rocha/Proyects/Solidity/F1Bet/ethereum/contracts/F1.sol\":7762:7763  j */\n      dup4\n        /* \"/home/rocha/Proyects/Solidity/F1Bet/ethereum/contracts/F1.sol\":7754:7764  drivers[j] */\n      0xff\n      and\n      dup2\n      sload\n      dup2\n      lt\n      tag_769\n      jumpi\n      tag_770\n      tag_103\n      jump\t// in\n    tag_770:\n    tag_769:\n      swap1\n      0x00\n      mstore\n      keccak256(0x00, 0x20)\n      add\n        /* \"/home/rocha/Proyects/Solidity/F1Bet/ethereum/contracts/F1.sol\":7702:7765  checkStingEquality(contestantDriversPrediction[j-2],drivers[j]) */\n      dup1\n      sload\n      tag_772\n      swap1\n      tag_260\n      jump\t// in\n    tag_772:\n      dup1\n      0x1f\n      add\n      0x20\n      dup1\n      swap2\n      div\n      mul\n      0x20\n      add\n      mload(0x40)\n      swap1\n      dup2\n      add\n      0x40\n      mstore\n      dup1\n      swap3\n      swap2\n      swap1\n      dup2\n      dup2\n      mstore\n      0x20\n      add\n      dup3\n      dup1\n      sload\n      tag_773\n      swap1\n      tag_260\n      jump\t// in\n    tag_773:\n      dup1\n      iszero\n      tag_774\n      jumpi\n      dup1\n      0x1f\n      lt\n      tag_775\n      jumpi\n      0x0100\n      dup1\n      dup4\n      sload\n      div\n      mul\n      dup4\n      mstore\n      swap2\n      0x20\n      add\n      swap2\n      jump(tag_774)\n    tag_775:\n      dup3\n      add\n      swap2\n      swap1\n      0x00\n      mstore\n      keccak256(0x00, 0x20)\n      swap1\n    tag_776:\n      dup2\n      sload\n      dup2\n      mstore\n      swap1\n      0x01\n      add\n      swap1\n      0x20\n      add\n      dup1\n      dup4\n      gt\n      tag_776\n      jumpi\n      dup3\n      swap1\n      sub\n      0x1f\n      and\n      dup3\n      add\n      swap2\n    tag_774:\n      pop\n      pop\n      pop\n      pop\n      pop\n        /* \"/home/rocha/Proyects/Solidity/F1Bet/ethereum/contracts/F1.sol\":7702:7720  checkStingEquality */\n      tag_280\n        /* \"/home/rocha/Proyects/Solidity/F1Bet/ethereum/contracts/F1.sol\":7702:7765  checkStingEquality(contestantDriversPrediction[j-2],drivers[j]) */\n      jump\t// in\n    tag_765:\n        /* \"/home/rocha/Proyects/Solidity/F1Bet/ethereum/contracts/F1.sol\":7699:7824  if(checkStingEquality(contestantDriversPrediction[j-2],drivers[j])){... */\n      iszero\n      tag_777\n      jumpi\n        /* \"/home/rocha/Proyects/Solidity/F1Bet/ethereum/contracts/F1.sol\":7800:7801  1 */\n      0x01\n        /* \"/home/rocha/Proyects/Solidity/F1Bet/ethereum/contracts/F1.sol\":7792:7801  points+=1 */\n      dup3\n      tag_778\n      swap2\n      swap1\n      tag_186\n      jump\t// in\n    tag_778:\n      swap2\n      pop\n        /* \"/home/rocha/Proyects/Solidity/F1Bet/ethereum/contracts/F1.sol\":7699:7824  if(checkStingEquality(contestantDriversPrediction[j-2],drivers[j])){... */\n    tag_777:\n        /* \"/home/rocha/Proyects/Solidity/F1Bet/ethereum/contracts/F1.sol\":7548:7824  if(checkStingEquality(contestantDriversPrediction[j-1],drivers[j])){... */\n    tag_764:\n        /* \"/home/rocha/Proyects/Solidity/F1Bet/ethereum/contracts/F1.sol\":7419:7824  if(checkStingEquality(contestantDriversPrediction[j],drivers[j])){... */\n    tag_749:\n        /* \"/home/rocha/Proyects/Solidity/F1Bet/ethereum/contracts/F1.sol\":7374:8425  if(j==drivers.length-1){... */\n      jump(tag_779)\n    tag_735:\n        /* \"/home/rocha/Proyects/Solidity/F1Bet/ethereum/contracts/F1.sol\":7871:7932  checkStingEquality(contestantDriversPrediction[j],drivers[j]) */\n      tag_780\n        /* \"/home/rocha/Proyects/Solidity/F1Bet/ethereum/contracts/F1.sol\":7890:7917  contestantDriversPrediction */\n      dup4\n        /* \"/home/rocha/Proyects/Solidity/F1Bet/ethereum/contracts/F1.sol\":7918:7919  j */\n      dup3\n        /* \"/home/rocha/Proyects/Solidity/F1Bet/ethereum/contracts/F1.sol\":7890:7920  contestantDriversPrediction[j] */\n      0xff\n      and\n      dup2\n      mload\n      dup2\n      lt\n      tag_781\n      jumpi\n      tag_782\n      tag_103\n      jump\t// in\n    tag_782:\n    tag_781:\n      0x20\n      mul\n      0x20\n      add\n      add\n      mload\n        /* \"/home/rocha/Proyects/Solidity/F1Bet/ethereum/contracts/F1.sol\":7921:7928  drivers */\n      0x05\n        /* \"/home/rocha/Proyects/Solidity/F1Bet/ethereum/contracts/F1.sol\":7929:7930  j */\n      dup4\n        /* \"/home/rocha/Proyects/Solidity/F1Bet/ethereum/contracts/F1.sol\":7921:7931  drivers[j] */\n      0xff\n      and\n      dup2\n      sload\n      dup2\n      lt\n      tag_783\n      jumpi\n      tag_784\n      tag_103\n      jump\t// in\n    tag_784:\n    tag_783:\n      swap1\n      0x00\n      mstore\n      keccak256(0x00, 0x20)\n      add\n        /* \"/home/rocha/Proyects/Solidity/F1Bet/ethereum/contracts/F1.sol\":7871:7932  checkStingEquality(contestantDriversPrediction[j],drivers[j]) */\n      dup1\n      sload\n      tag_786\n      swap1\n      tag_260\n      jump\t// in\n    tag_786:\n      dup1\n      0x1f\n      add\n      0x20\n      dup1\n      swap2\n      div\n      mul\n      0x20\n      add\n      mload(0x40)\n      swap1\n      dup2\n      add\n      0x40\n      mstore\n      dup1\n      swap3\n      swap2\n      swap1\n      dup2\n      dup2\n      mstore\n      0x20\n      add\n      dup3\n      dup1\n      sload\n      tag_787\n      swap1\n      tag_260\n      jump\t// in\n    tag_787:\n      dup1\n      iszero\n      tag_788\n      jumpi\n      dup1\n      0x1f\n      lt\n      tag_789\n      jumpi\n      0x0100\n      dup1\n      dup4\n      sload\n      div\n      mul\n      dup4\n      mstore\n      swap2\n      0x20\n      add\n      swap2\n      jump(tag_788)\n    tag_789:\n      dup3\n      add\n      swap2\n      swap1\n      0x00\n      mstore\n      keccak256(0x00, 0x20)\n      swap1\n    tag_790:\n      dup2\n      sload\n      dup2\n      mstore\n      swap1\n      0x01\n      add\n      swap1\n      0x20\n      add\n      dup1\n      dup4\n      gt\n      tag_790\n      jumpi\n      dup3\n      swap1\n      sub\n      0x1f\n      and\n      dup3\n      add\n      swap2\n    tag_788:\n      pop\n      pop\n      pop\n      pop\n      pop\n        /* \"/home/rocha/Proyects/Solidity/F1Bet/ethereum/contracts/F1.sol\":7871:7889  checkStingEquality */\n      tag_280\n        /* \"/home/rocha/Proyects/Solidity/F1Bet/ethereum/contracts/F1.sol\":7871:7932  checkStingEquality(contestantDriversPrediction[j],drivers[j]) */\n      jump\t// in\n    tag_780:\n        /* \"/home/rocha/Proyects/Solidity/F1Bet/ethereum/contracts/F1.sol\":7868:8407  if(checkStingEquality(contestantDriversPrediction[j],drivers[j])){... */\n      iszero\n      tag_791\n      jumpi\n        /* \"/home/rocha/Proyects/Solidity/F1Bet/ethereum/contracts/F1.sol\":7968:7969  5 */\n      0x05\n        /* \"/home/rocha/Proyects/Solidity/F1Bet/ethereum/contracts/F1.sol\":7959:7969  points+= 5 */\n      dup3\n      tag_792\n      swap2\n      swap1\n      tag_186\n      jump\t// in\n    tag_792:\n      swap2\n      pop\n        /* \"/home/rocha/Proyects/Solidity/F1Bet/ethereum/contracts/F1.sol\":7868:8407  if(checkStingEquality(contestantDriversPrediction[j],drivers[j])){... */\n      jump(tag_793)\n    tag_791:\n        /* \"/home/rocha/Proyects/Solidity/F1Bet/ethereum/contracts/F1.sol\":8000:8063  checkStingEquality(contestantDriversPrediction[j-1],drivers[j]) */\n      tag_794\n        /* \"/home/rocha/Proyects/Solidity/F1Bet/ethereum/contracts/F1.sol\":8019:8046  contestantDriversPrediction */\n      dup4\n        /* \"/home/rocha/Proyects/Solidity/F1Bet/ethereum/contracts/F1.sol\":8049:8050  1 */\n      0x01\n        /* \"/home/rocha/Proyects/Solidity/F1Bet/ethereum/contracts/F1.sol\":8047:8048  j */\n      dup4\n        /* \"/home/rocha/Proyects/Solidity/F1Bet/ethereum/contracts/F1.sol\":8047:8050  j-1 */\n      tag_795\n      swap2\n      swap1\n      tag_332\n      jump\t// in\n    tag_795:\n        /* \"/home/rocha/Proyects/Solidity/F1Bet/ethereum/contracts/F1.sol\":8019:8051  contestantDriversPrediction[j-1] */\n      0xff\n      and\n      dup2\n      mload\n      dup2\n      lt\n      tag_796\n      jumpi\n      tag_797\n      tag_103\n      jump\t// in\n    tag_797:\n    tag_796:\n      0x20\n      mul\n      0x20\n      add\n      add\n      mload\n        /* \"/home/rocha/Proyects/Solidity/F1Bet/ethereum/contracts/F1.sol\":8052:8059  drivers */\n      0x05\n        /* \"/home/rocha/Proyects/Solidity/F1Bet/ethereum/contracts/F1.sol\":8060:8061  j */\n      dup4\n        /* \"/home/rocha/Proyects/Solidity/F1Bet/ethereum/contracts/F1.sol\":8052:8062  drivers[j] */\n      0xff\n      and\n      dup2\n      sload\n      dup2\n      lt\n      tag_798\n      jumpi\n      tag_799\n      tag_103\n      jump\t// in\n    tag_799:\n    tag_798:\n      swap1\n      0x00\n      mstore\n      keccak256(0x00, 0x20)\n      add\n        /* \"/home/rocha/Proyects/Solidity/F1Bet/ethereum/contracts/F1.sol\":8000:8063  checkStingEquality(contestantDriversPrediction[j-1],drivers[j]) */\n      dup1\n      sload\n      tag_801\n      swap1\n      tag_260\n      jump\t// in\n    tag_801:\n      dup1\n      0x1f\n      add\n      0x20\n      dup1\n      swap2\n      div\n      mul\n      0x20\n      add\n      mload(0x40)\n      swap1\n      dup2\n      add\n      0x40\n      mstore\n      dup1\n      swap3\n      swap2\n      swap1\n      dup2\n      dup2\n      mstore\n      0x20\n      add\n      dup3\n      dup1\n      sload\n      tag_802\n      swap1\n      tag_260\n      jump\t// in\n    tag_802:\n      dup1\n      iszero\n      tag_803\n      jumpi\n      dup1\n      0x1f\n      lt\n      tag_804\n      jumpi\n      0x0100\n      dup1\n      dup4\n      sload\n      div\n      mul\n      dup4\n      mstore\n      swap2\n      0x20\n      add\n      swap2\n      jump(tag_803)\n    tag_804:\n      dup3\n      add\n      swap2\n      swap1\n      0x00\n      mstore\n      keccak256(0x00, 0x20)\n      swap1\n    tag_805:\n      dup2\n      sload\n      dup2\n      mstore\n      swap1\n      0x01\n      add\n      swap1\n      0x20\n      add\n      dup1\n      dup4\n      gt\n      tag_805\n      jumpi\n      dup3\n      swap1\n      sub\n      0x1f\n      and\n      dup3\n      add\n      swap2\n    tag_803:\n      pop\n      pop\n      pop\n      pop\n      pop\n        /* \"/home/rocha/Proyects/Solidity/F1Bet/ethereum/contracts/F1.sol\":8000:8018  checkStingEquality */\n      tag_280\n        /* \"/home/rocha/Proyects/Solidity/F1Bet/ethereum/contracts/F1.sol\":8000:8063  checkStingEquality(contestantDriversPrediction[j-1],drivers[j]) */\n      jump\t// in\n    tag_794:\n        /* \"/home/rocha/Proyects/Solidity/F1Bet/ethereum/contracts/F1.sol\":8000:8130  checkStingEquality(contestantDriversPrediction[j-1],drivers[j]) || checkStingEquality(contestantDriversPrediction[j+1],drivers[j]) */\n      dup1\n      tag_806\n      jumpi\n      pop\n        /* \"/home/rocha/Proyects/Solidity/F1Bet/ethereum/contracts/F1.sol\":8067:8130  checkStingEquality(contestantDriversPrediction[j+1],drivers[j]) */\n      tag_807\n        /* \"/home/rocha/Proyects/Solidity/F1Bet/ethereum/contracts/F1.sol\":8086:8113  contestantDriversPrediction */\n      dup4\n        /* \"/home/rocha/Proyects/Solidity/F1Bet/ethereum/contracts/F1.sol\":8116:8117  1 */\n      0x01\n        /* \"/home/rocha/Proyects/Solidity/F1Bet/ethereum/contracts/F1.sol\":8114:8115  j */\n      dup4\n        /* \"/home/rocha/Proyects/Solidity/F1Bet/ethereum/contracts/F1.sol\":8114:8117  j+1 */\n      tag_808\n      swap2\n      swap1\n      tag_286\n      jump\t// in\n    tag_808:\n        /* \"/home/rocha/Proyects/Solidity/F1Bet/ethereum/contracts/F1.sol\":8086:8118  contestantDriversPrediction[j+1] */\n      0xff\n      and\n      dup2\n      mload\n      dup2\n      lt\n      tag_809\n      jumpi\n      tag_810\n      tag_103\n      jump\t// in\n    tag_810:\n    tag_809:\n      0x20\n      mul\n      0x20\n      add\n      add\n      mload\n        /* \"/home/rocha/Proyects/Solidity/F1Bet/ethereum/contracts/F1.sol\":8119:8126  drivers */\n      0x05\n        /* \"/home/rocha/Proyects/Solidity/F1Bet/ethereum/contracts/F1.sol\":8127:8128  j */\n      dup4\n        /* \"/home/rocha/Proyects/Solidity/F1Bet/ethereum/contracts/F1.sol\":8119:8129  drivers[j] */\n      0xff\n      and\n      dup2\n      sload\n      dup2\n      lt\n      tag_811\n      jumpi\n      tag_812\n      tag_103\n      jump\t// in\n    tag_812:\n    tag_811:\n      swap1\n      0x00\n      mstore\n      keccak256(0x00, 0x20)\n      add\n        /* \"/home/rocha/Proyects/Solidity/F1Bet/ethereum/contracts/F1.sol\":8067:8130  checkStingEquality(contestantDriversPrediction[j+1],drivers[j]) */\n      dup1\n      sload\n      tag_814\n      swap1\n      tag_260\n      jump\t// in\n    tag_814:\n      dup1\n      0x1f\n      add\n      0x20\n      dup1\n      swap2\n      div\n      mul\n      0x20\n      add\n      mload(0x40)\n      swap1\n      dup2\n      add\n      0x40\n      mstore\n      dup1\n      swap3\n      swap2\n      swap1\n      dup2\n      dup2\n      mstore\n      0x20\n      add\n      dup3\n      dup1\n      sload\n      tag_815\n      swap1\n      tag_260\n      jump\t// in\n    tag_815:\n      dup1\n      iszero\n      tag_816\n      jumpi\n      dup1\n      0x1f\n      lt\n      tag_817\n      jumpi\n      0x0100\n      dup1\n      dup4\n      sload\n      div\n      mul\n      dup4\n      mstore\n      swap2\n      0x20\n      add\n      swap2\n      jump(tag_816)\n    tag_817:\n      dup3\n      add\n      swap2\n      swap1\n      0x00\n      mstore\n      keccak256(0x00, 0x20)\n      swap1\n    tag_818:\n      dup2\n      sload\n      dup2\n      mstore\n      swap1\n      0x01\n      add\n      swap1\n      0x20\n      add\n      dup1\n      dup4\n      gt\n      tag_818\n      jumpi\n      dup3\n      swap1\n      sub\n      0x1f\n      and\n      dup3\n      add\n      swap2\n    tag_816:\n      pop\n      pop\n      pop\n      pop\n      pop\n        /* \"/home/rocha/Proyects/Solidity/F1Bet/ethereum/contracts/F1.sol\":8067:8085  checkStingEquality */\n      tag_280\n        /* \"/home/rocha/Proyects/Solidity/F1Bet/ethereum/contracts/F1.sol\":8067:8130  checkStingEquality(contestantDriversPrediction[j+1],drivers[j]) */\n      jump\t// in\n    tag_807:\n        /* \"/home/rocha/Proyects/Solidity/F1Bet/ethereum/contracts/F1.sol\":8000:8130  checkStingEquality(contestantDriversPrediction[j-1],drivers[j]) || checkStingEquality(contestantDriversPrediction[j+1],drivers[j]) */\n    tag_806:\n        /* \"/home/rocha/Proyects/Solidity/F1Bet/ethereum/contracts/F1.sol\":7997:8407  if(checkStingEquality(contestantDriversPrediction[j-1],drivers[j]) || checkStingEquality(contestantDriversPrediction[j+1],drivers[j])){... */\n      iszero\n      tag_819\n      jumpi\n        /* \"/home/rocha/Proyects/Solidity/F1Bet/ethereum/contracts/F1.sol\":8165:8166  3 */\n      0x03\n        /* \"/home/rocha/Proyects/Solidity/F1Bet/ethereum/contracts/F1.sol\":8157:8166  points+=3 */\n      dup3\n      tag_820\n      swap2\n      swap1\n      tag_186\n      jump\t// in\n    tag_820:\n      swap2\n      pop\n        /* \"/home/rocha/Proyects/Solidity/F1Bet/ethereum/contracts/F1.sol\":7997:8407  if(checkStingEquality(contestantDriversPrediction[j-1],drivers[j]) || checkStingEquality(contestantDriversPrediction[j+1],drivers[j])){... */\n      jump(tag_821)\n    tag_819:\n        /* \"/home/rocha/Proyects/Solidity/F1Bet/ethereum/contracts/F1.sol\":8218:8281  checkStingEquality(contestantDriversPrediction[j-2],drivers[j]) */\n      tag_822\n        /* \"/home/rocha/Proyects/Solidity/F1Bet/ethereum/contracts/F1.sol\":8237:8264  contestantDriversPrediction */\n      dup4\n        /* \"/home/rocha/Proyects/Solidity/F1Bet/ethereum/contracts/F1.sol\":8267:8268  2 */\n      0x02\n        /* \"/home/rocha/Proyects/Solidity/F1Bet/ethereum/contracts/F1.sol\":8265:8266  j */\n      dup4\n        /* \"/home/rocha/Proyects/Solidity/F1Bet/ethereum/contracts/F1.sol\":8265:8268  j-2 */\n      tag_823\n      swap2\n      swap1\n      tag_332\n      jump\t// in\n    tag_823:\n        /* \"/home/rocha/Proyects/Solidity/F1Bet/ethereum/contracts/F1.sol\":8237:8269  contestantDriversPrediction[j-2] */\n      0xff\n      and\n      dup2\n      mload\n      dup2\n      lt\n      tag_824\n      jumpi\n      tag_825\n      tag_103\n      jump\t// in\n    tag_825:\n    tag_824:\n      0x20\n      mul\n      0x20\n      add\n      add\n      mload\n        /* \"/home/rocha/Proyects/Solidity/F1Bet/ethereum/contracts/F1.sol\":8270:8277  drivers */\n      0x05\n        /* \"/home/rocha/Proyects/Solidity/F1Bet/ethereum/contracts/F1.sol\":8278:8279  j */\n      dup4\n        /* \"/home/rocha/Proyects/Solidity/F1Bet/ethereum/contracts/F1.sol\":8270:8280  drivers[j] */\n      0xff\n      and\n      dup2\n      sload\n      dup2\n      lt\n      tag_826\n      jumpi\n      tag_827\n      tag_103\n      jump\t// in\n    tag_827:\n    tag_826:\n      swap1\n      0x00\n      mstore\n      keccak256(0x00, 0x20)\n      add\n        /* \"/home/rocha/Proyects/Solidity/F1Bet/ethereum/contracts/F1.sol\":8218:8281  checkStingEquality(contestantDriversPrediction[j-2],drivers[j]) */\n      dup1\n      sload\n      tag_829\n      swap1\n      tag_260\n      jump\t// in\n    tag_829:\n      dup1\n      0x1f\n      add\n      0x20\n      dup1\n      swap2\n      div\n      mul\n      0x20\n      add\n      mload(0x40)\n      swap1\n      dup2\n      add\n      0x40\n      mstore\n      dup1\n      swap3\n      swap2\n      swap1\n      dup2\n      dup2\n      mstore\n      0x20\n      add\n      dup3\n      dup1\n      sload\n      tag_830\n      swap1\n      tag_260\n      jump\t// in\n    tag_830:\n      dup1\n      iszero\n      tag_831\n      jumpi\n      dup1\n      0x1f\n      lt\n      tag_832\n      jumpi\n      0x0100\n      dup1\n      dup4\n      sload\n      div\n      mul\n      dup4\n      mstore\n      swap2\n      0x20\n      add\n      swap2\n      jump(tag_831)\n    tag_832:\n      dup3\n      add\n      swap2\n      swap1\n      0x00\n      mstore\n      keccak256(0x00, 0x20)\n      swap1\n    tag_833:\n      dup2\n      sload\n      dup2\n      mstore\n      swap1\n      0x01\n      add\n      swap1\n      0x20\n      add\n      dup1\n      dup4\n      gt\n      tag_833\n      jumpi\n      dup3\n      swap1\n      sub\n      0x1f\n      and\n      dup3\n      add\n      swap2\n    tag_831:\n      pop\n      pop\n      pop\n      pop\n      pop\n        /* \"/home/rocha/Proyects/Solidity/F1Bet/ethereum/contracts/F1.sol\":8218:8236  checkStingEquality */\n      tag_280\n        /* \"/home/rocha/Proyects/Solidity/F1Bet/ethereum/contracts/F1.sol\":8218:8281  checkStingEquality(contestantDriversPrediction[j-2],drivers[j]) */\n      jump\t// in\n    tag_822:\n        /* \"/home/rocha/Proyects/Solidity/F1Bet/ethereum/contracts/F1.sol\":8218:8348  checkStingEquality(contestantDriversPrediction[j-2],drivers[j]) || checkStingEquality(contestantDriversPrediction[j+2],drivers[j]) */\n      dup1\n      tag_834\n      jumpi\n      pop\n        /* \"/home/rocha/Proyects/Solidity/F1Bet/ethereum/contracts/F1.sol\":8285:8348  checkStingEquality(contestantDriversPrediction[j+2],drivers[j]) */\n      tag_835\n        /* \"/home/rocha/Proyects/Solidity/F1Bet/ethereum/contracts/F1.sol\":8304:8331  contestantDriversPrediction */\n      dup4\n        /* \"/home/rocha/Proyects/Solidity/F1Bet/ethereum/contracts/F1.sol\":8334:8335  2 */\n      0x02\n        /* \"/home/rocha/Proyects/Solidity/F1Bet/ethereum/contracts/F1.sol\":8332:8333  j */\n      dup4\n        /* \"/home/rocha/Proyects/Solidity/F1Bet/ethereum/contracts/F1.sol\":8332:8335  j+2 */\n      tag_836\n      swap2\n      swap1\n      tag_286\n      jump\t// in\n    tag_836:\n        /* \"/home/rocha/Proyects/Solidity/F1Bet/ethereum/contracts/F1.sol\":8304:8336  contestantDriversPrediction[j+2] */\n      0xff\n      and\n      dup2\n      mload\n      dup2\n      lt\n      tag_837\n      jumpi\n      tag_838\n      tag_103\n      jump\t// in\n    tag_838:\n    tag_837:\n      0x20\n      mul\n      0x20\n      add\n      add\n      mload\n        /* \"/home/rocha/Proyects/Solidity/F1Bet/ethereum/contracts/F1.sol\":8337:8344  drivers */\n      0x05\n        /* \"/home/rocha/Proyects/Solidity/F1Bet/ethereum/contracts/F1.sol\":8345:8346  j */\n      dup4\n        /* \"/home/rocha/Proyects/Solidity/F1Bet/ethereum/contracts/F1.sol\":8337:8347  drivers[j] */\n      0xff\n      and\n      dup2\n      sload\n      dup2\n      lt\n      tag_839\n      jumpi\n      tag_840\n      tag_103\n      jump\t// in\n    tag_840:\n    tag_839:\n      swap1\n      0x00\n      mstore\n      keccak256(0x00, 0x20)\n      add\n        /* \"/home/rocha/Proyects/Solidity/F1Bet/ethereum/contracts/F1.sol\":8285:8348  checkStingEquality(contestantDriversPrediction[j+2],drivers[j]) */\n      dup1\n      sload\n      tag_842\n      swap1\n      tag_260\n      jump\t// in\n    tag_842:\n      dup1\n      0x1f\n      add\n      0x20\n      dup1\n      swap2\n      div\n      mul\n      0x20\n      add\n      mload(0x40)\n      swap1\n      dup2\n      add\n      0x40\n      mstore\n      dup1\n      swap3\n      swap2\n      swap1\n      dup2\n      dup2\n      mstore\n      0x20\n      add\n      dup3\n      dup1\n      sload\n      tag_843\n      swap1\n      tag_260\n      jump\t// in\n    tag_843:\n      dup1\n      iszero\n      tag_844\n      jumpi\n      dup1\n      0x1f\n      lt\n      tag_845\n      jumpi\n      0x0100\n      dup1\n      dup4\n      sload\n      div\n      mul\n      dup4\n      mstore\n      swap2\n      0x20\n      add\n      swap2\n      jump(tag_844)\n    tag_845:\n      dup3\n      add\n      swap2\n      swap1\n      0x00\n      mstore\n      keccak256(0x00, 0x20)\n      swap1\n    tag_846:\n      dup2\n      sload\n      dup2\n      mstore\n      swap1\n      0x01\n      add\n      swap1\n      0x20\n      add\n      dup1\n      dup4\n      gt\n      tag_846\n      jumpi\n      dup3\n      swap1\n      sub\n      0x1f\n      and\n      dup3\n      add\n      swap2\n    tag_844:\n      pop\n      pop\n      pop\n      pop\n      pop\n        /* \"/home/rocha/Proyects/Solidity/F1Bet/ethereum/contracts/F1.sol\":8285:8303  checkStingEquality */\n      tag_280\n        /* \"/home/rocha/Proyects/Solidity/F1Bet/ethereum/contracts/F1.sol\":8285:8348  checkStingEquality(contestantDriversPrediction[j+2],drivers[j]) */\n      jump\t// in\n    tag_835:\n        /* \"/home/rocha/Proyects/Solidity/F1Bet/ethereum/contracts/F1.sol\":8218:8348  checkStingEquality(contestantDriversPrediction[j-2],drivers[j]) || checkStingEquality(contestantDriversPrediction[j+2],drivers[j]) */\n    tag_834:\n        /* \"/home/rocha/Proyects/Solidity/F1Bet/ethereum/contracts/F1.sol\":8215:8407  if(checkStingEquality(contestantDriversPrediction[j-2],drivers[j]) || checkStingEquality(contestantDriversPrediction[j+2],drivers[j])){... */\n      iszero\n      tag_847\n      jumpi\n        /* \"/home/rocha/Proyects/Solidity/F1Bet/ethereum/contracts/F1.sol\":8383:8384  1 */\n      0x01\n        /* \"/home/rocha/Proyects/Solidity/F1Bet/ethereum/contracts/F1.sol\":8375:8384  points+=1 */\n      dup3\n      tag_848\n      swap2\n      swap1\n      tag_186\n      jump\t// in\n    tag_848:\n      swap2\n      pop\n        /* \"/home/rocha/Proyects/Solidity/F1Bet/ethereum/contracts/F1.sol\":8215:8407  if(checkStingEquality(contestantDriversPrediction[j-2],drivers[j]) || checkStingEquality(contestantDriversPrediction[j+2],drivers[j])){... */\n    tag_847:\n        /* \"/home/rocha/Proyects/Solidity/F1Bet/ethereum/contracts/F1.sol\":7997:8407  if(checkStingEquality(contestantDriversPrediction[j-1],drivers[j]) || checkStingEquality(contestantDriversPrediction[j+1],drivers[j])){... */\n    tag_821:\n        /* \"/home/rocha/Proyects/Solidity/F1Bet/ethereum/contracts/F1.sol\":7868:8407  if(checkStingEquality(contestantDriversPrediction[j],drivers[j])){... */\n    tag_793:\n        /* \"/home/rocha/Proyects/Solidity/F1Bet/ethereum/contracts/F1.sol\":7374:8425  if(j==drivers.length-1){... */\n    tag_779:\n        /* \"/home/rocha/Proyects/Solidity/F1Bet/ethereum/contracts/F1.sol\":6834:8425  if(j==drivers.length-2){... */\n    tag_733:\n        /* \"/home/rocha/Proyects/Solidity/F1Bet/ethereum/contracts/F1.sol\":6309:8425  if(j<2){... */\n    tag_674:\n        /* \"/home/rocha/Proyects/Solidity/F1Bet/ethereum/contracts/F1.sol\":5851:8425  if(j<1){... */\n    tag_616:\n        /* \"/home/rocha/Proyects/Solidity/F1Bet/ethereum/contracts/F1.sol\":5829:5832  j++ */\n      dup1\n      dup1\n      tag_849\n      swap1\n      tag_107\n      jump\t// in\n    tag_849:\n      swap2\n      pop\n      pop\n        /* \"/home/rocha/Proyects/Solidity/F1Bet/ethereum/contracts/F1.sol\":5799:8439  for(uint8 j; j<drivers.length;j++){... */\n      jump(tag_569)\n    tag_570:\n      pop\n        /* \"/home/rocha/Proyects/Solidity/F1Bet/ethereum/contracts/F1.sol\":8496:8502  points */\n      dup1\n        /* \"/home/rocha/Proyects/Solidity/F1Bet/ethereum/contracts/F1.sol\":8452:8463  predictions */\n      0x00\n        /* \"/home/rocha/Proyects/Solidity/F1Bet/ethereum/contracts/F1.sol\":8452:8479  predictions[contestants[i]] */\n      dup1\n        /* \"/home/rocha/Proyects/Solidity/F1Bet/ethereum/contracts/F1.sol\":8464:8475  contestants */\n      0x01\n        /* \"/home/rocha/Proyects/Solidity/F1Bet/ethereum/contracts/F1.sol\":8476:8477  i */\n      dup7\n        /* \"/home/rocha/Proyects/Solidity/F1Bet/ethereum/contracts/F1.sol\":8464:8478  contestants[i] */\n      0xff\n      and\n      dup2\n      sload\n      dup2\n      lt\n      tag_850\n      jumpi\n      tag_851\n      tag_103\n      jump\t// in\n    tag_851:\n    tag_850:\n      swap1\n      0x00\n      mstore\n      keccak256(0x00, 0x20)\n      add\n      0x00\n      swap1\n      sload\n      swap1\n      0x0100\n      exp\n      swap1\n      div\n      0xffffffffffffffffffffffffffffffffffffffff\n      and\n        /* \"/home/rocha/Proyects/Solidity/F1Bet/ethereum/contracts/F1.sol\":8452:8479  predictions[contestants[i]] */\n      0xffffffffffffffffffffffffffffffffffffffff\n      and\n      0xffffffffffffffffffffffffffffffffffffffff\n      and\n      dup2\n      mstore\n      0x20\n      add\n      swap1\n      dup2\n      mstore\n      0x20\n      add\n      0x00\n      keccak256\n        /* \"/home/rocha/Proyects/Solidity/F1Bet/ethereum/contracts/F1.sol\":8452:8493  predictions[contestants[i]].driversPoints */\n      0x04\n      add\n        /* \"/home/rocha/Proyects/Solidity/F1Bet/ethereum/contracts/F1.sol\":8452:8502  predictions[contestants[i]].driversPoints = points */\n      dup2\n      swap1\n      sstore\n      pop\n        /* \"/home/rocha/Proyects/Solidity/F1Bet/ethereum/contracts/F1.sol\":5665:8513  {... */\n      pop\n      pop\n        /* \"/home/rocha/Proyects/Solidity/F1Bet/ethereum/contracts/F1.sol\":5661:5664  i++ */\n      dup1\n      dup1\n      tag_853\n      swap1\n      tag_107\n      jump\t// in\n    tag_853:\n      swap2\n      pop\n      pop\n        /* \"/home/rocha/Proyects/Solidity/F1Bet/ethereum/contracts/F1.sol\":5627:8513  for(uint8 i; i<contestants.length;i++){... */\n      jump(tag_555)\n    tag_556:\n      pop\n        /* \"/home/rocha/Proyects/Solidity/F1Bet/ethereum/contracts/F1.sol\":5576:8519  function calculateDriversTable() private {... */\n      jump\t// out\n        /* \"/home/rocha/Proyects/Solidity/F1Bet/ethereum/contracts/F1.sol\":8524:8845  function calculateChecoPoints() private {... */\n    tag_140:\n        /* \"/home/rocha/Proyects/Solidity/F1Bet/ethereum/contracts/F1.sol\":8578:8585  uint8 i */\n      0x00\n        /* \"/home/rocha/Proyects/Solidity/F1Bet/ethereum/contracts/F1.sol\":8574:8839  for(uint8 i; i<contestants.length;i++){... */\n    tag_855:\n        /* \"/home/rocha/Proyects/Solidity/F1Bet/ethereum/contracts/F1.sol\":8589:8600  contestants */\n      0x01\n        /* \"/home/rocha/Proyects/Solidity/F1Bet/ethereum/contracts/F1.sol\":8589:8607  contestants.length */\n      dup1\n      sload\n      swap1\n      pop\n        /* \"/home/rocha/Proyects/Solidity/F1Bet/ethereum/contracts/F1.sol\":8587:8588  i */\n      dup2\n        /* \"/home/rocha/Proyects/Solidity/F1Bet/ethereum/contracts/F1.sol\":8587:8607  i<contestants.length */\n      0xff\n      and\n      lt\n        /* \"/home/rocha/Proyects/Solidity/F1Bet/ethereum/contracts/F1.sol\":8574:8839  for(uint8 i; i<contestants.length;i++){... */\n      iszero\n      tag_856\n      jumpi\n        /* \"/home/rocha/Proyects/Solidity/F1Bet/ethereum/contracts/F1.sol\":8626:8657  uint8 contestantChecoPrediction */\n      0x00\n        /* \"/home/rocha/Proyects/Solidity/F1Bet/ethereum/contracts/F1.sol\":8660:8671  predictions */\n      dup1\n        /* \"/home/rocha/Proyects/Solidity/F1Bet/ethereum/contracts/F1.sol\":8660:8687  predictions[contestants[i]] */\n      0x00\n        /* \"/home/rocha/Proyects/Solidity/F1Bet/ethereum/contracts/F1.sol\":8672:8683  contestants */\n      0x01\n        /* \"/home/rocha/Proyects/Solidity/F1Bet/ethereum/contracts/F1.sol\":8684:8685  i */\n      dup5\n        /* \"/home/rocha/Proyects/Solidity/F1Bet/ethereum/contracts/F1.sol\":8672:8686  contestants[i] */\n      0xff\n      and\n      dup2\n      sload\n      dup2\n      lt\n      tag_858\n      jumpi\n      tag_859\n      tag_103\n      jump\t// in\n    tag_859:\n    tag_858:\n      swap1\n      0x00\n      mstore\n      keccak256(0x00, 0x20)\n      add\n      0x00\n      swap1\n      sload\n      swap1\n      0x0100\n      exp\n      swap1\n      div\n      0xffffffffffffffffffffffffffffffffffffffff\n      and\n        /* \"/home/rocha/Proyects/Solidity/F1Bet/ethereum/contracts/F1.sol\":8660:8687  predictions[contestants[i]] */\n      0xffffffffffffffffffffffffffffffffffffffff\n      and\n      0xffffffffffffffffffffffffffffffffffffffff\n      and\n      dup2\n      mstore\n      0x20\n      add\n      swap1\n      dup2\n      mstore\n      0x20\n      add\n      0x00\n      keccak256\n        /* \"/home/rocha/Proyects/Solidity/F1Bet/ethereum/contracts/F1.sol\":8660:8697  predictions[contestants[i]].checoWins */\n      0x02\n      add\n      0x00\n      swap1\n      sload\n      swap1\n      0x0100\n      exp\n      swap1\n      div\n      0xff\n      and\n        /* \"/home/rocha/Proyects/Solidity/F1Bet/ethereum/contracts/F1.sol\":8626:8697  uint8 contestantChecoPrediction = predictions[contestants[i]].checoWins */\n      swap1\n      pop\n        /* \"/home/rocha/Proyects/Solidity/F1Bet/ethereum/contracts/F1.sol\":8727:8752  contestantChecoPrediction */\n      dup1\n        /* \"/home/rocha/Proyects/Solidity/F1Bet/ethereum/contracts/F1.sol\":8714:8752  checoWins == contestantChecoPrediction */\n      0xff\n      and\n        /* \"/home/rocha/Proyects/Solidity/F1Bet/ethereum/contracts/F1.sol\":8714:8723  checoWins */\n      0x06\n      0x00\n      swap1\n      sload\n      swap1\n      0x0100\n      exp\n      swap1\n      div\n      0xff\n      and\n        /* \"/home/rocha/Proyects/Solidity/F1Bet/ethereum/contracts/F1.sol\":8714:8752  checoWins == contestantChecoPrediction */\n      0xff\n      and\n      eq\n        /* \"/home/rocha/Proyects/Solidity/F1Bet/ethereum/contracts/F1.sol\":8711:8829  if(checoWins == contestantChecoPrediction){... */\n      iszero\n      tag_861\n      jumpi\n        /* \"/home/rocha/Proyects/Solidity/F1Bet/ethereum/contracts/F1.sol\":8813:8814  4 */\n      0x04\n        /* \"/home/rocha/Proyects/Solidity/F1Bet/ethereum/contracts/F1.sol\":8771:8782  predictions */\n      0x00\n        /* \"/home/rocha/Proyects/Solidity/F1Bet/ethereum/contracts/F1.sol\":8771:8798  predictions[contestants[i]] */\n      dup1\n        /* \"/home/rocha/Proyects/Solidity/F1Bet/ethereum/contracts/F1.sol\":8783:8794  contestants */\n      0x01\n        /* \"/home/rocha/Proyects/Solidity/F1Bet/ethereum/contracts/F1.sol\":8795:8796  i */\n      dup6\n        /* \"/home/rocha/Proyects/Solidity/F1Bet/ethereum/contracts/F1.sol\":8783:8797  contestants[i] */\n      0xff\n      and\n      dup2\n      sload\n      dup2\n      lt\n      tag_862\n      jumpi\n      tag_863\n      tag_103\n      jump\t// in\n    tag_863:\n    tag_862:\n      swap1\n      0x00\n      mstore\n      keccak256(0x00, 0x20)\n      add\n      0x00\n      swap1\n      sload\n      swap1\n      0x0100\n      exp\n      swap1\n      div\n      0xffffffffffffffffffffffffffffffffffffffff\n      and\n        /* \"/home/rocha/Proyects/Solidity/F1Bet/ethereum/contracts/F1.sol\":8771:8798  predictions[contestants[i]] */\n      0xffffffffffffffffffffffffffffffffffffffff\n      and\n      0xffffffffffffffffffffffffffffffffffffffff\n      and\n      dup2\n      mstore\n      0x20\n      add\n      swap1\n      dup2\n      mstore\n      0x20\n      add\n      0x00\n      keccak256\n        /* \"/home/rocha/Proyects/Solidity/F1Bet/ethereum/contracts/F1.sol\":8771:8810  predictions[contestants[i]].checoPoints */\n      0x05\n      add\n        /* \"/home/rocha/Proyects/Solidity/F1Bet/ethereum/contracts/F1.sol\":8771:8814  predictions[contestants[i]].checoPoints = 4 */\n      dup2\n      swap1\n      sstore\n      pop\n        /* \"/home/rocha/Proyects/Solidity/F1Bet/ethereum/contracts/F1.sol\":8711:8829  if(checoWins == contestantChecoPrediction){... */\n    tag_861:\n        /* \"/home/rocha/Proyects/Solidity/F1Bet/ethereum/contracts/F1.sol\":8612:8839  {... */\n      pop\n        /* \"/home/rocha/Proyects/Solidity/F1Bet/ethereum/contracts/F1.sol\":8608:8611  i++ */\n      dup1\n      dup1\n      tag_865\n      swap1\n      tag_107\n      jump\t// in\n    tag_865:\n      swap2\n      pop\n      pop\n        /* \"/home/rocha/Proyects/Solidity/F1Bet/ethereum/contracts/F1.sol\":8574:8839  for(uint8 i; i<contestants.length;i++){... */\n      jump(tag_855)\n    tag_856:\n      pop\n        /* \"/home/rocha/Proyects/Solidity/F1Bet/ethereum/contracts/F1.sol\":8524:8845  function calculateChecoPoints() private {... */\n      jump\t// out\n        /* \"/home/rocha/Proyects/Solidity/F1Bet/ethereum/contracts/F1.sol\":8850:9423  function calculateFinalPoints() private {... */\n    tag_142:\n        /* \"/home/rocha/Proyects/Solidity/F1Bet/ethereum/contracts/F1.sol\":8901:8915  uint maxPoints */\n      0x00\n        /* \"/home/rocha/Proyects/Solidity/F1Bet/ethereum/contracts/F1.sol\":8930:8937  uint8 i */\n      dup1\n        /* \"/home/rocha/Proyects/Solidity/F1Bet/ethereum/contracts/F1.sol\":8926:9416  for(uint8 i; i<contestants.length;i++){... */\n    tag_867:\n        /* \"/home/rocha/Proyects/Solidity/F1Bet/ethereum/contracts/F1.sol\":8941:8952  contestants */\n      0x01\n        /* \"/home/rocha/Proyects/Solidity/F1Bet/ethereum/contracts/F1.sol\":8941:8959  contestants.length */\n      dup1\n      sload\n      swap1\n      pop\n        /* \"/home/rocha/Proyects/Solidity/F1Bet/ethereum/contracts/F1.sol\":8939:8940  i */\n      dup2\n        /* \"/home/rocha/Proyects/Solidity/F1Bet/ethereum/contracts/F1.sol\":8939:8959  i<contestants.length */\n      0xff\n      and\n      lt\n        /* \"/home/rocha/Proyects/Solidity/F1Bet/ethereum/contracts/F1.sol\":8926:9416  for(uint8 i; i<contestants.length;i++){... */\n      iszero\n      tag_868\n      jumpi\n        /* \"/home/rocha/Proyects/Solidity/F1Bet/ethereum/contracts/F1.sol\":8978:8994  uint finalPoints */\n      0x00\n        /* \"/home/rocha/Proyects/Solidity/F1Bet/ethereum/contracts/F1.sol\":9090:9101  predictions */\n      dup1\n        /* \"/home/rocha/Proyects/Solidity/F1Bet/ethereum/contracts/F1.sol\":9090:9117  predictions[contestants[i]] */\n      0x00\n        /* \"/home/rocha/Proyects/Solidity/F1Bet/ethereum/contracts/F1.sol\":9102:9113  contestants */\n      0x01\n        /* \"/home/rocha/Proyects/Solidity/F1Bet/ethereum/contracts/F1.sol\":9114:9115  i */\n      dup5\n        /* \"/home/rocha/Proyects/Solidity/F1Bet/ethereum/contracts/F1.sol\":9102:9116  contestants[i] */\n      0xff\n      and\n      dup2\n      sload\n      dup2\n      lt\n      tag_870\n      jumpi\n      tag_871\n      tag_103\n      jump\t// in\n    tag_871:\n    tag_870:\n      swap1\n      0x00\n      mstore\n      keccak256(0x00, 0x20)\n      add\n      0x00\n      swap1\n      sload\n      swap1\n      0x0100\n      exp\n      swap1\n      div\n      0xffffffffffffffffffffffffffffffffffffffff\n      and\n        /* \"/home/rocha/Proyects/Solidity/F1Bet/ethereum/contracts/F1.sol\":9090:9117  predictions[contestants[i]] */\n      0xffffffffffffffffffffffffffffffffffffffff\n      and\n      0xffffffffffffffffffffffffffffffffffffffff\n      and\n      dup2\n      mstore\n      0x20\n      add\n      swap1\n      dup2\n      mstore\n      0x20\n      add\n      0x00\n      keccak256\n        /* \"/home/rocha/Proyects/Solidity/F1Bet/ethereum/contracts/F1.sol\":9090:9129  predictions[contestants[i]].checoPoints */\n      0x05\n      add\n      sload\n        /* \"/home/rocha/Proyects/Solidity/F1Bet/ethereum/contracts/F1.sol\":9046:9057  predictions */\n      0x00\n        /* \"/home/rocha/Proyects/Solidity/F1Bet/ethereum/contracts/F1.sol\":9046:9073  predictions[contestants[i]] */\n      dup1\n        /* \"/home/rocha/Proyects/Solidity/F1Bet/ethereum/contracts/F1.sol\":9058:9069  contestants */\n      0x01\n        /* \"/home/rocha/Proyects/Solidity/F1Bet/ethereum/contracts/F1.sol\":9070:9071  i */\n      dup6\n        /* \"/home/rocha/Proyects/Solidity/F1Bet/ethereum/contracts/F1.sol\":9058:9072  contestants[i] */\n      0xff\n      and\n      dup2\n      sload\n      dup2\n      lt\n      tag_873\n      jumpi\n      tag_874\n      tag_103\n      jump\t// in\n    tag_874:\n    tag_873:\n      swap1\n      0x00\n      mstore\n      keccak256(0x00, 0x20)\n      add\n      0x00\n      swap1\n      sload\n      swap1\n      0x0100\n      exp\n      swap1\n      div\n      0xffffffffffffffffffffffffffffffffffffffff\n      and\n        /* \"/home/rocha/Proyects/Solidity/F1Bet/ethereum/contracts/F1.sol\":9046:9073  predictions[contestants[i]] */\n      0xffffffffffffffffffffffffffffffffffffffff\n      and\n      0xffffffffffffffffffffffffffffffffffffffff\n      and\n      dup2\n      mstore\n      0x20\n      add\n      swap1\n      dup2\n      mstore\n      0x20\n      add\n      0x00\n      keccak256\n        /* \"/home/rocha/Proyects/Solidity/F1Bet/ethereum/contracts/F1.sol\":9046:9087  predictions[contestants[i]].driversPoints */\n      0x04\n      add\n      sload\n        /* \"/home/rocha/Proyects/Solidity/F1Bet/ethereum/contracts/F1.sol\":8997:9008  predictions */\n      0x00\n        /* \"/home/rocha/Proyects/Solidity/F1Bet/ethereum/contracts/F1.sol\":8997:9024  predictions[contestants[i]] */\n      dup1\n        /* \"/home/rocha/Proyects/Solidity/F1Bet/ethereum/contracts/F1.sol\":9009:9020  contestants */\n      0x01\n        /* \"/home/rocha/Proyects/Solidity/F1Bet/ethereum/contracts/F1.sol\":9021:9022  i */\n      dup7\n        /* \"/home/rocha/Proyects/Solidity/F1Bet/ethereum/contracts/F1.sol\":9009:9023  contestants[i] */\n      0xff\n      and\n      dup2\n      sload\n      dup2\n      lt\n      tag_876\n      jumpi\n      tag_877\n      tag_103\n      jump\t// in\n    tag_877:\n    tag_876:\n      swap1\n      0x00\n      mstore\n      keccak256(0x00, 0x20)\n      add\n      0x00\n      swap1\n      sload\n      swap1\n      0x0100\n      exp\n      swap1\n      div\n      0xffffffffffffffffffffffffffffffffffffffff\n      and\n        /* \"/home/rocha/Proyects/Solidity/F1Bet/ethereum/contracts/F1.sol\":8997:9024  predictions[contestants[i]] */\n      0xffffffffffffffffffffffffffffffffffffffff\n      and\n      0xffffffffffffffffffffffffffffffffffffffff\n      and\n      dup2\n      mstore\n      0x20\n      add\n      swap1\n      dup2\n      mstore\n      0x20\n      add\n      0x00\n      keccak256\n        /* \"/home/rocha/Proyects/Solidity/F1Bet/ethereum/contracts/F1.sol\":8997:9043  predictions[contestants[i]].constructorsPoints */\n      0x03\n      add\n      sload\n        /* \"/home/rocha/Proyects/Solidity/F1Bet/ethereum/contracts/F1.sol\":8997:9087  predictions[contestants[i]].constructorsPoints + predictions[contestants[i]].driversPoints */\n      tag_879\n      swap2\n      swap1\n      tag_186\n      jump\t// in\n    tag_879:\n        /* \"/home/rocha/Proyects/Solidity/F1Bet/ethereum/contracts/F1.sol\":8997:9129  predictions[contestants[i]].constructorsPoints + predictions[contestants[i]].driversPoints + predictions[contestants[i]].checoPoints */\n      tag_880\n      swap2\n      swap1\n      tag_186\n      jump\t// in\n    tag_880:\n        /* \"/home/rocha/Proyects/Solidity/F1Bet/ethereum/contracts/F1.sol\":8978:9129  uint finalPoints = predictions[contestants[i]].constructorsPoints + predictions[contestants[i]].driversPoints + predictions[contestants[i]].checoPoints */\n      swap1\n      pop\n        /* \"/home/rocha/Proyects/Solidity/F1Bet/ethereum/contracts/F1.sol\":9185:9196  finalPoints */\n      dup1\n        /* \"/home/rocha/Proyects/Solidity/F1Bet/ethereum/contracts/F1.sol\":9143:9154  predictions */\n      0x00\n        /* \"/home/rocha/Proyects/Solidity/F1Bet/ethereum/contracts/F1.sol\":9143:9170  predictions[contestants[i]] */\n      dup1\n        /* \"/home/rocha/Proyects/Solidity/F1Bet/ethereum/contracts/F1.sol\":9155:9166  contestants */\n      0x01\n        /* \"/home/rocha/Proyects/Solidity/F1Bet/ethereum/contracts/F1.sol\":9167:9168  i */\n      dup6\n        /* \"/home/rocha/Proyects/Solidity/F1Bet/ethereum/contracts/F1.sol\":9155:9169  contestants[i] */\n      0xff\n      and\n      dup2\n      sload\n      dup2\n      lt\n      tag_881\n      jumpi\n      tag_882\n      tag_103\n      jump\t// in\n    tag_882:\n    tag_881:\n      swap1\n      0x00\n      mstore\n      keccak256(0x00, 0x20)\n      add\n      0x00\n      swap1\n      sload\n      swap1\n      0x0100\n      exp\n      swap1\n      div\n      0xffffffffffffffffffffffffffffffffffffffff\n      and\n        /* \"/home/rocha/Proyects/Solidity/F1Bet/ethereum/contracts/F1.sol\":9143:9170  predictions[contestants[i]] */\n      0xffffffffffffffffffffffffffffffffffffffff\n      and\n      0xffffffffffffffffffffffffffffffffffffffff\n      and\n      dup2\n      mstore\n      0x20\n      add\n      swap1\n      dup2\n      mstore\n      0x20\n      add\n      0x00\n      keccak256\n        /* \"/home/rocha/Proyects/Solidity/F1Bet/ethereum/contracts/F1.sol\":9143:9182  predictions[contestants[i]].totalPoints */\n      0x06\n      add\n        /* \"/home/rocha/Proyects/Solidity/F1Bet/ethereum/contracts/F1.sol\":9143:9196  predictions[contestants[i]].totalPoints = finalPoints */\n      dup2\n      swap1\n      sstore\n      pop\n        /* \"/home/rocha/Proyects/Solidity/F1Bet/ethereum/contracts/F1.sol\":9225:9236  finalPoints */\n      dup1\n        /* \"/home/rocha/Proyects/Solidity/F1Bet/ethereum/contracts/F1.sol\":9213:9222  maxPoints */\n      dup4\n        /* \"/home/rocha/Proyects/Solidity/F1Bet/ethereum/contracts/F1.sol\":9213:9236  maxPoints < finalPoints */\n      lt\n        /* \"/home/rocha/Proyects/Solidity/F1Bet/ethereum/contracts/F1.sol\":9210:9406  if(maxPoints < finalPoints){... */\n      iszero\n      tag_884\n      jumpi\n        /* \"/home/rocha/Proyects/Solidity/F1Bet/ethereum/contracts/F1.sol\":9267:9278  finalPoints */\n      dup1\n        /* \"/home/rocha/Proyects/Solidity/F1Bet/ethereum/contracts/F1.sol\":9255:9278  maxPoints = finalPoints */\n      swap3\n      pop\n        /* \"/home/rocha/Proyects/Solidity/F1Bet/ethereum/contracts/F1.sol\":9296:9325  address payable payableWinner */\n      0x00\n        /* \"/home/rocha/Proyects/Solidity/F1Bet/ethereum/contracts/F1.sol\":9336:9347  contestants */\n      0x01\n        /* \"/home/rocha/Proyects/Solidity/F1Bet/ethereum/contracts/F1.sol\":9348:9349  i */\n      dup4\n        /* \"/home/rocha/Proyects/Solidity/F1Bet/ethereum/contracts/F1.sol\":9336:9350  contestants[i] */\n      0xff\n      and\n      dup2\n      sload\n      dup2\n      lt\n      tag_885\n      jumpi\n      tag_886\n      tag_103\n      jump\t// in\n    tag_886:\n    tag_885:\n      swap1\n      0x00\n      mstore\n      keccak256(0x00, 0x20)\n      add\n      0x00\n      swap1\n      sload\n      swap1\n      0x0100\n      exp\n      swap1\n      div\n      0xffffffffffffffffffffffffffffffffffffffff\n      and\n        /* \"/home/rocha/Proyects/Solidity/F1Bet/ethereum/contracts/F1.sol\":9296:9351  address payable payableWinner = payable(contestants[i]) */\n      swap1\n      pop\n        /* \"/home/rocha/Proyects/Solidity/F1Bet/ethereum/contracts/F1.sol\":9378:9391  payableWinner */\n      dup1\n        /* \"/home/rocha/Proyects/Solidity/F1Bet/ethereum/contracts/F1.sol\":9369:9375  winner */\n      0x02\n      0x00\n        /* \"/home/rocha/Proyects/Solidity/F1Bet/ethereum/contracts/F1.sol\":9369:9391  winner = payableWinner */\n      0x0100\n      exp\n      dup2\n      sload\n      dup2\n      0xffffffffffffffffffffffffffffffffffffffff\n      mul\n      not\n      and\n      swap1\n      dup4\n      0xffffffffffffffffffffffffffffffffffffffff\n      and\n      mul\n      or\n      swap1\n      sstore\n      pop\n        /* \"/home/rocha/Proyects/Solidity/F1Bet/ethereum/contracts/F1.sol\":9237:9406  {... */\n      pop\n        /* \"/home/rocha/Proyects/Solidity/F1Bet/ethereum/contracts/F1.sol\":9210:9406  if(maxPoints < finalPoints){... */\n    tag_884:\n        /* \"/home/rocha/Proyects/Solidity/F1Bet/ethereum/contracts/F1.sol\":8964:9416  {... */\n      pop\n        /* \"/home/rocha/Proyects/Solidity/F1Bet/ethereum/contracts/F1.sol\":8960:8963  i++ */\n      dup1\n      dup1\n      tag_888\n      swap1\n      tag_107\n      jump\t// in\n    tag_888:\n      swap2\n      pop\n      pop\n        /* \"/home/rocha/Proyects/Solidity/F1Bet/ethereum/contracts/F1.sol\":8926:9416  for(uint8 i; i<contestants.length;i++){... */\n      jump(tag_867)\n    tag_868:\n      pop\n        /* \"/home/rocha/Proyects/Solidity/F1Bet/ethereum/contracts/F1.sol\":8890:9423  {... */\n      pop\n        /* \"/home/rocha/Proyects/Solidity/F1Bet/ethereum/contracts/F1.sol\":8850:9423  function calculateFinalPoints() private {... */\n      jump\t// out\n        /* \"/home/rocha/Proyects/Solidity/F1Bet/ethereum/contracts/F1.sol\":2399:2633  function checkStingEquality(string memory s1, string memory s2) private pure returns(bool){... */\n    tag_280:\n        /* \"/home/rocha/Proyects/Solidity/F1Bet/ethereum/contracts/F1.sol\":2484:2488  bool */\n      0x00\n        /* \"/home/rocha/Proyects/Solidity/F1Bet/ethereum/contracts/F1.sol\":2564:2566  s2 */\n      dup2\n        /* \"/home/rocha/Proyects/Solidity/F1Bet/ethereum/contracts/F1.sol\":2547:2567  abi.encodePacked(s2) */\n      add(0x20, mload(0x40))\n      tag_890\n      swap2\n      swap1\n      tag_891\n      jump\t// in\n    tag_890:\n      mload(0x40)\n      0x20\n      dup2\n      dup4\n      sub\n      sub\n      dup2\n      mstore\n      swap1\n      0x40\n      mstore\n        /* \"/home/rocha/Proyects/Solidity/F1Bet/ethereum/contracts/F1.sol\":2537:2568  keccak256(abi.encodePacked(s2)) */\n      dup1\n      mload\n      swap1\n      0x20\n      add\n      keccak256\n        /* \"/home/rocha/Proyects/Solidity/F1Bet/ethereum/contracts/F1.sol\":2529:2531  s1 */\n      dup4\n        /* \"/home/rocha/Proyects/Solidity/F1Bet/ethereum/contracts/F1.sol\":2512:2532  abi.encodePacked(s1) */\n      add(0x20, mload(0x40))\n      tag_892\n      swap2\n      swap1\n      tag_891\n      jump\t// in\n    tag_892:\n      mload(0x40)\n      0x20\n      dup2\n      dup4\n      sub\n      sub\n      dup2\n      mstore\n      swap1\n      0x40\n      mstore\n        /* \"/home/rocha/Proyects/Solidity/F1Bet/ethereum/contracts/F1.sol\":2502:2533  keccak256(abi.encodePacked(s1)) */\n      dup1\n      mload\n      swap1\n      0x20\n      add\n      keccak256\n        /* \"/home/rocha/Proyects/Solidity/F1Bet/ethereum/contracts/F1.sol\":2502:2568  keccak256(abi.encodePacked(s1)) == keccak256(abi.encodePacked(s2)) */\n      eq\n        /* \"/home/rocha/Proyects/Solidity/F1Bet/ethereum/contracts/F1.sol\":2499:2605  if(keccak256(abi.encodePacked(s1)) == keccak256(abi.encodePacked(s2))){... */\n      iszero\n      tag_893\n      jumpi\n        /* \"/home/rocha/Proyects/Solidity/F1Bet/ethereum/contracts/F1.sol\":2590:2594  true */\n      0x01\n        /* \"/home/rocha/Proyects/Solidity/F1Bet/ethereum/contracts/F1.sol\":2583:2594  return true */\n      swap1\n      pop\n      jump(tag_889)\n        /* \"/home/rocha/Proyects/Solidity/F1Bet/ethereum/contracts/F1.sol\":2499:2605  if(keccak256(abi.encodePacked(s1)) == keccak256(abi.encodePacked(s2))){... */\n    tag_893:\n        /* \"/home/rocha/Proyects/Solidity/F1Bet/ethereum/contracts/F1.sol\":2621:2626  false */\n      0x00\n        /* \"/home/rocha/Proyects/Solidity/F1Bet/ethereum/contracts/F1.sol\":2614:2626  return false */\n      swap1\n      pop\n        /* \"/home/rocha/Proyects/Solidity/F1Bet/ethereum/contracts/F1.sol\":2399:2633  function checkStingEquality(string memory s1, string memory s2) private pure returns(bool){... */\n    tag_889:\n      swap3\n      swap2\n      pop\n      pop\n      jump\t// out\n    tag_112:\n      dup3\n      dup1\n      sload\n      dup3\n      dup3\n      sstore\n      swap1\n      0x00\n      mstore\n      keccak256(0x00, 0x20)\n      swap1\n      dup2\n      add\n      swap3\n      dup3\n      iszero\n      tag_894\n      jumpi\n      swap2\n      0x20\n      mul\n      dup3\n      add\n    tag_895:\n      dup3\n      dup2\n      gt\n      iszero\n      tag_896\n      jumpi\n      dup3\n      mload\n      dup3\n      swap1\n      dup1\n      mload\n      swap1\n      0x20\n      add\n      swap1\n      tag_897\n      swap3\n      swap2\n      swap1\n      tag_898\n      jump\t// in\n    tag_897:\n      pop\n      swap2\n      0x20\n      add\n      swap2\n      swap1\n      0x01\n      add\n      swap1\n      jump(tag_895)\n    tag_896:\n    tag_894:\n      pop\n      swap1\n      pop\n      tag_899\n      swap2\n      swap1\n      tag_900\n      jump\t// in\n    tag_899:\n      pop\n      swap1\n      jump\t// out\n    tag_898:\n      dup3\n      dup1\n      sload\n      tag_901\n      swap1\n      tag_260\n      jump\t// in\n    tag_901:\n      swap1\n      0x00\n      mstore\n      keccak256(0x00, 0x20)\n      swap1\n      0x1f\n      add\n      0x20\n      swap1\n      div\n      dup2\n      add\n      swap3\n      dup3\n      tag_903\n      jumpi\n      0x00\n      dup6\n      sstore\n      jump(tag_902)\n    tag_903:\n      dup3\n      0x1f\n      lt\n      tag_904\n      jumpi\n      dup1\n      mload\n      not(0xff)\n      and\n      dup4\n      dup1\n      add\n      or\n      dup6\n      sstore\n      jump(tag_902)\n    tag_904:\n      dup3\n      dup1\n      add\n      0x01\n      add\n      dup6\n      sstore\n      dup3\n      iszero\n      tag_902\n      jumpi\n      swap2\n      dup3\n      add\n    tag_905:\n      dup3\n      dup2\n      gt\n      iszero\n      tag_906\n      jumpi\n      dup3\n      mload\n      dup3\n      sstore\n      swap2\n      0x20\n      add\n      swap2\n      swap1\n      0x01\n      add\n      swap1\n      jump(tag_905)\n    tag_906:\n    tag_902:\n      pop\n      swap1\n      pop\n      tag_907\n      swap2\n      swap1\n      tag_908\n      jump\t// in\n    tag_907:\n      pop\n      swap1\n      jump\t// out\n    tag_900:\n    tag_909:\n      dup1\n      dup3\n      gt\n      iszero\n      tag_910\n      jumpi\n      0x00\n      dup2\n      dup2\n      tag_911\n      swap2\n      swap1\n      tag_912\n      jump\t// in\n    tag_911:\n      pop\n      0x01\n      add\n      jump(tag_909)\n    tag_910:\n      pop\n      swap1\n      jump\t// out\n    tag_908:\n    tag_913:\n      dup1\n      dup3\n      gt\n      iszero\n      tag_914\n      jumpi\n      0x00\n      dup2\n      0x00\n      swap1\n      sstore\n      pop\n      0x01\n      add\n      jump(tag_913)\n    tag_914:\n      pop\n      swap1\n      jump\t// out\n    tag_912:\n      pop\n      dup1\n      sload\n      tag_915\n      swap1\n      tag_260\n      jump\t// in\n    tag_915:\n      0x00\n      dup3\n      sstore\n      dup1\n      0x1f\n      lt\n      tag_917\n      jumpi\n      pop\n      jump(tag_916)\n    tag_917:\n      0x1f\n      add\n      0x20\n      swap1\n      div\n      swap1\n      0x00\n      mstore\n      keccak256(0x00, 0x20)\n      swap1\n      dup2\n      add\n      swap1\n      tag_918\n      swap2\n      swap1\n      tag_908\n      jump\t// in\n    tag_918:\n    tag_916:\n      pop\n      jump\t// out\n        /* \"#utility.yul\":7:82   */\n    tag_919:\n        /* \"#utility.yul\":40:46   */\n      0x00\n        /* \"#utility.yul\":73:75   */\n      0x40\n        /* \"#utility.yul\":67:76   */\n      mload\n        /* \"#utility.yul\":57:76   */\n      swap1\n      pop\n        /* \"#utility.yul\":7:82   */\n      swap1\n      jump\t// out\n        /* \"#utility.yul\":88:205   */\n    tag_920:\n        /* \"#utility.yul\":197:198   */\n      0x00\n        /* \"#utility.yul\":194:195   */\n      dup1\n        /* \"#utility.yul\":187:199   */\n      revert\n        /* \"#utility.yul\":211:328   */\n    tag_921:\n        /* \"#utility.yul\":320:321   */\n      0x00\n        /* \"#utility.yul\":317:318   */\n      dup1\n        /* \"#utility.yul\":310:322   */\n      revert\n        /* \"#utility.yul\":334:451   */\n    tag_922:\n        /* \"#utility.yul\":443:444   */\n      0x00\n        /* \"#utility.yul\":440:441   */\n      dup1\n        /* \"#utility.yul\":433:445   */\n      revert\n        /* \"#utility.yul\":457:559   */\n    tag_923:\n        /* \"#utility.yul\":498:504   */\n      0x00\n        /* \"#utility.yul\":549:551   */\n      0x1f\n        /* \"#utility.yul\":545:552   */\n      not\n        /* \"#utility.yul\":540:542   */\n      0x1f\n        /* \"#utility.yul\":533:538   */\n      dup4\n        /* \"#utility.yul\":529:543   */\n      add\n        /* \"#utility.yul\":525:553   */\n      and\n        /* \"#utility.yul\":515:553   */\n      swap1\n      pop\n        /* \"#utility.yul\":457:559   */\n      swap2\n      swap1\n      pop\n      jump\t// out\n        /* \"#utility.yul\":565:745   */\n    tag_924:\n        /* \"#utility.yul\":613:690   */\n      0x4e487b7100000000000000000000000000000000000000000000000000000000\n        /* \"#utility.yul\":610:611   */\n      0x00\n        /* \"#utility.yul\":603:691   */\n      mstore\n        /* \"#utility.yul\":710:714   */\n      0x41\n        /* \"#utility.yul\":707:708   */\n      0x04\n        /* \"#utility.yul\":700:715   */\n      mstore\n        /* \"#utility.yul\":734:738   */\n      0x24\n        /* \"#utility.yul\":731:732   */\n      0x00\n        /* \"#utility.yul\":724:739   */\n      revert\n        /* \"#utility.yul\":751:1032   */\n    tag_925:\n        /* \"#utility.yul\":834:861   */\n      tag_972\n        /* \"#utility.yul\":856:860   */\n      dup3\n        /* \"#utility.yul\":834:861   */\n      tag_923\n      jump\t// in\n    tag_972:\n        /* \"#utility.yul\":826:832   */\n      dup2\n        /* \"#utility.yul\":822:862   */\n      add\n        /* \"#utility.yul\":964:970   */\n      dup2\n        /* \"#utility.yul\":952:962   */\n      dup2\n        /* \"#utility.yul\":949:971   */\n      lt\n        /* \"#utility.yul\":928:946   */\n      0xffffffffffffffff\n        /* \"#utility.yul\":916:926   */\n      dup3\n        /* \"#utility.yul\":913:947   */\n      gt\n        /* \"#utility.yul\":910:972   */\n      or\n        /* \"#utility.yul\":907:995   */\n      iszero\n      tag_973\n      jumpi\n        /* \"#utility.yul\":975:993   */\n      tag_974\n      tag_924\n      jump\t// in\n    tag_974:\n        /* \"#utility.yul\":907:995   */\n    tag_973:\n        /* \"#utility.yul\":1015:1025   */\n      dup1\n        /* \"#utility.yul\":1011:1013   */\n      0x40\n        /* \"#utility.yul\":1004:1026   */\n      mstore\n        /* \"#utility.yul\":794:1032   */\n      pop\n        /* \"#utility.yul\":751:1032   */\n      pop\n      pop\n      jump\t// out\n        /* \"#utility.yul\":1038:1167   */\n    tag_926:\n        /* \"#utility.yul\":1072:1078   */\n      0x00\n        /* \"#utility.yul\":1099:1119   */\n      tag_976\n      tag_919\n      jump\t// in\n    tag_976:\n        /* \"#utility.yul\":1089:1119   */\n      swap1\n      pop\n        /* \"#utility.yul\":1128:1161   */\n      tag_977\n        /* \"#utility.yul\":1156:1160   */\n      dup3\n        /* \"#utility.yul\":1148:1154   */\n      dup3\n        /* \"#utility.yul\":1128:1161   */\n      tag_925\n      jump\t// in\n    tag_977:\n        /* \"#utility.yul\":1038:1167   */\n      swap2\n      swap1\n      pop\n      jump\t// out\n        /* \"#utility.yul\":1173:1494   */\n    tag_927:\n        /* \"#utility.yul\":1260:1264   */\n      0x00\n        /* \"#utility.yul\":1350:1368   */\n      0xffffffffffffffff\n        /* \"#utility.yul\":1342:1348   */\n      dup3\n        /* \"#utility.yul\":1339:1369   */\n      gt\n        /* \"#utility.yul\":1336:1392   */\n      iszero\n      tag_979\n      jumpi\n        /* \"#utility.yul\":1372:1390   */\n      tag_980\n      tag_924\n      jump\t// in\n    tag_980:\n        /* \"#utility.yul\":1336:1392   */\n    tag_979:\n        /* \"#utility.yul\":1422:1426   */\n      0x20\n        /* \"#utility.yul\":1414:1420   */\n      dup3\n        /* \"#utility.yul\":1410:1427   */\n      mul\n        /* \"#utility.yul\":1402:1427   */\n      swap1\n      pop\n        /* \"#utility.yul\":1482:1486   */\n      0x20\n        /* \"#utility.yul\":1476:1480   */\n      dup2\n        /* \"#utility.yul\":1472:1487   */\n      add\n        /* \"#utility.yul\":1464:1487   */\n      swap1\n      pop\n        /* \"#utility.yul\":1173:1494   */\n      swap2\n      swap1\n      pop\n      jump\t// out\n        /* \"#utility.yul\":1500:1617   */\n    tag_928:\n        /* \"#utility.yul\":1609:1610   */\n      0x00\n        /* \"#utility.yul\":1606:1607   */\n      dup1\n        /* \"#utility.yul\":1599:1611   */\n      revert\n        /* \"#utility.yul\":1623:1740   */\n    tag_929:\n        /* \"#utility.yul\":1732:1733   */\n      0x00\n        /* \"#utility.yul\":1729:1730   */\n      dup1\n        /* \"#utility.yul\":1722:1734   */\n      revert\n        /* \"#utility.yul\":1746:2054   */\n    tag_930:\n        /* \"#utility.yul\":1808:1812   */\n      0x00\n        /* \"#utility.yul\":1898:1916   */\n      0xffffffffffffffff\n        /* \"#utility.yul\":1890:1896   */\n      dup3\n        /* \"#utility.yul\":1887:1917   */\n      gt\n        /* \"#utility.yul\":1884:1940   */\n      iszero\n      tag_984\n      jumpi\n        /* \"#utility.yul\":1920:1938   */\n      tag_985\n      tag_924\n      jump\t// in\n    tag_985:\n        /* \"#utility.yul\":1884:1940   */\n    tag_984:\n        /* \"#utility.yul\":1958:1987   */\n      tag_986\n        /* \"#utility.yul\":1980:1986   */\n      dup3\n        /* \"#utility.yul\":1958:1987   */\n      tag_923\n      jump\t// in\n    tag_986:\n        /* \"#utility.yul\":1950:1987   */\n      swap1\n      pop\n        /* \"#utility.yul\":2042:2046   */\n      0x20\n        /* \"#utility.yul\":2036:2040   */\n      dup2\n        /* \"#utility.yul\":2032:2047   */\n      add\n        /* \"#utility.yul\":2024:2047   */\n      swap1\n      pop\n        /* \"#utility.yul\":1746:2054   */\n      swap2\n      swap1\n      pop\n      jump\t// out\n        /* \"#utility.yul\":2060:2214   */\n    tag_931:\n        /* \"#utility.yul\":2144:2150   */\n      dup3\n        /* \"#utility.yul\":2139:2142   */\n      dup2\n        /* \"#utility.yul\":2134:2137   */\n      dup4\n        /* \"#utility.yul\":2121:2151   */\n      calldatacopy\n        /* \"#utility.yul\":2206:2207   */\n      0x00\n        /* \"#utility.yul\":2197:2203   */\n      dup4\n        /* \"#utility.yul\":2192:2195   */\n      dup4\n        /* \"#utility.yul\":2188:2204   */\n      add\n        /* \"#utility.yul\":2181:2208   */\n      mstore\n        /* \"#utility.yul\":2060:2214   */\n      pop\n      pop\n      pop\n      jump\t// out\n        /* \"#utility.yul\":2220:2632   */\n    tag_932:\n        /* \"#utility.yul\":2298:2303   */\n      0x00\n        /* \"#utility.yul\":2323:2389   */\n      tag_989\n        /* \"#utility.yul\":2339:2388   */\n      tag_990\n        /* \"#utility.yul\":2381:2387   */\n      dup5\n        /* \"#utility.yul\":2339:2388   */\n      tag_930\n      jump\t// in\n    tag_990:\n        /* \"#utility.yul\":2323:2389   */\n      tag_926\n      jump\t// in\n    tag_989:\n        /* \"#utility.yul\":2314:2389   */\n      swap1\n      pop\n        /* \"#utility.yul\":2412:2418   */\n      dup3\n        /* \"#utility.yul\":2405:2410   */\n      dup2\n        /* \"#utility.yul\":2398:2419   */\n      mstore\n        /* \"#utility.yul\":2450:2454   */\n      0x20\n        /* \"#utility.yul\":2443:2448   */\n      dup2\n        /* \"#utility.yul\":2439:2455   */\n      add\n        /* \"#utility.yul\":2488:2491   */\n      dup5\n        /* \"#utility.yul\":2479:2485   */\n      dup5\n        /* \"#utility.yul\":2474:2477   */\n      dup5\n        /* \"#utility.yul\":2470:2486   */\n      add\n        /* \"#utility.yul\":2467:2492   */\n      gt\n        /* \"#utility.yul\":2464:2576   */\n      iszero\n      tag_991\n      jumpi\n        /* \"#utility.yul\":2495:2574   */\n      tag_992\n      tag_929\n      jump\t// in\n    tag_992:\n        /* \"#utility.yul\":2464:2576   */\n    tag_991:\n        /* \"#utility.yul\":2585:2626   */\n      tag_993\n        /* \"#utility.yul\":2619:2625   */\n      dup5\n        /* \"#utility.yul\":2614:2617   */\n      dup3\n        /* \"#utility.yul\":2609:2612   */\n      dup6\n        /* \"#utility.yul\":2585:2626   */\n      tag_931\n      jump\t// in\n    tag_993:\n        /* \"#utility.yul\":2304:2632   */\n      pop\n        /* \"#utility.yul\":2220:2632   */\n      swap4\n      swap3\n      pop\n      pop\n      pop\n      jump\t// out\n        /* \"#utility.yul\":2652:2992   */\n    tag_933:\n        /* \"#utility.yul\":2708:2713   */\n      0x00\n        /* \"#utility.yul\":2757:2760   */\n      dup3\n        /* \"#utility.yul\":2750:2754   */\n      0x1f\n        /* \"#utility.yul\":2742:2748   */\n      dup4\n        /* \"#utility.yul\":2738:2755   */\n      add\n        /* \"#utility.yul\":2734:2761   */\n      slt\n        /* \"#utility.yul\":2724:2846   */\n      tag_995\n      jumpi\n        /* \"#utility.yul\":2765:2844   */\n      tag_996\n      tag_922\n      jump\t// in\n    tag_996:\n        /* \"#utility.yul\":2724:2846   */\n    tag_995:\n        /* \"#utility.yul\":2882:2888   */\n      dup2\n        /* \"#utility.yul\":2869:2889   */\n      calldataload\n        /* \"#utility.yul\":2907:2986   */\n      tag_997\n        /* \"#utility.yul\":2982:2985   */\n      dup5\n        /* \"#utility.yul\":2974:2980   */\n      dup3\n        /* \"#utility.yul\":2967:2971   */\n      0x20\n        /* \"#utility.yul\":2959:2965   */\n      dup7\n        /* \"#utility.yul\":2955:2972   */\n      add\n        /* \"#utility.yul\":2907:2986   */\n      tag_932\n      jump\t// in\n    tag_997:\n        /* \"#utility.yul\":2898:2986   */\n      swap2\n      pop\n        /* \"#utility.yul\":2714:2992   */\n      pop\n        /* \"#utility.yul\":2652:2992   */\n      swap3\n      swap2\n      pop\n      pop\n      jump\t// out\n        /* \"#utility.yul\":3014:3959   */\n    tag_934:\n        /* \"#utility.yul\":3120:3125   */\n      0x00\n        /* \"#utility.yul\":3145:3236   */\n      tag_999\n        /* \"#utility.yul\":3161:3235   */\n      tag_1000\n        /* \"#utility.yul\":3228:3234   */\n      dup5\n        /* \"#utility.yul\":3161:3235   */\n      tag_927\n      jump\t// in\n    tag_1000:\n        /* \"#utility.yul\":3145:3236   */\n      tag_926\n      jump\t// in\n    tag_999:\n        /* \"#utility.yul\":3136:3236   */\n      swap1\n      pop\n        /* \"#utility.yul\":3256:3261   */\n      dup1\n        /* \"#utility.yul\":3285:3291   */\n      dup4\n        /* \"#utility.yul\":3278:3283   */\n      dup3\n        /* \"#utility.yul\":3271:3292   */\n      mstore\n        /* \"#utility.yul\":3319:3323   */\n      0x20\n        /* \"#utility.yul\":3312:3317   */\n      dup3\n        /* \"#utility.yul\":3308:3324   */\n      add\n        /* \"#utility.yul\":3301:3324   */\n      swap1\n      pop\n        /* \"#utility.yul\":3372:3376   */\n      0x20\n        /* \"#utility.yul\":3364:3370   */\n      dup5\n        /* \"#utility.yul\":3360:3377   */\n      mul\n        /* \"#utility.yul\":3352:3358   */\n      dup4\n        /* \"#utility.yul\":3348:3378   */\n      add\n        /* \"#utility.yul\":3401:3404   */\n      dup6\n        /* \"#utility.yul\":3393:3399   */\n      dup2\n        /* \"#utility.yul\":3390:3405   */\n      gt\n        /* \"#utility.yul\":3387:3509   */\n      iszero\n      tag_1001\n      jumpi\n        /* \"#utility.yul\":3420:3499   */\n      tag_1002\n      tag_928\n      jump\t// in\n    tag_1002:\n        /* \"#utility.yul\":3387:3509   */\n    tag_1001:\n        /* \"#utility.yul\":3535:3541   */\n      dup4\n        /* \"#utility.yul\":3518:3953   */\n    tag_1003:\n        /* \"#utility.yul\":3552:3558   */\n      dup2\n        /* \"#utility.yul\":3547:3550   */\n      dup2\n        /* \"#utility.yul\":3544:3559   */\n      lt\n        /* \"#utility.yul\":3518:3953   */\n      iszero\n      tag_1005\n      jumpi\n        /* \"#utility.yul\":3641:3644   */\n      dup1\n        /* \"#utility.yul\":3628:3645   */\n      calldataload\n        /* \"#utility.yul\":3677:3695   */\n      0xffffffffffffffff\n        /* \"#utility.yul\":3664:3675   */\n      dup2\n        /* \"#utility.yul\":3661:3696   */\n      gt\n        /* \"#utility.yul\":3658:3780   */\n      iszero\n      tag_1006\n      jumpi\n        /* \"#utility.yul\":3699:3778   */\n      tag_1007\n      tag_922\n      jump\t// in\n    tag_1007:\n        /* \"#utility.yul\":3658:3780   */\n    tag_1006:\n        /* \"#utility.yul\":3823:3834   */\n      dup1\n        /* \"#utility.yul\":3815:3821   */\n      dup7\n        /* \"#utility.yul\":3811:3835   */\n      add\n        /* \"#utility.yul\":3861:3908   */\n      tag_1008\n        /* \"#utility.yul\":3904:3907   */\n      dup10\n        /* \"#utility.yul\":3892:3902   */\n      dup3\n        /* \"#utility.yul\":3861:3908   */\n      tag_933\n      jump\t// in\n    tag_1008:\n        /* \"#utility.yul\":3856:3859   */\n      dup6\n        /* \"#utility.yul\":3849:3909   */\n      mstore\n        /* \"#utility.yul\":3938:3942   */\n      0x20\n        /* \"#utility.yul\":3933:3936   */\n      dup6\n        /* \"#utility.yul\":3929:3943   */\n      add\n        /* \"#utility.yul\":3922:3943   */\n      swap5\n      pop\n        /* \"#utility.yul\":3594:3953   */\n      pop\n      pop\n        /* \"#utility.yul\":3578:3582   */\n      0x20\n        /* \"#utility.yul\":3573:3576   */\n      dup2\n        /* \"#utility.yul\":3569:3583   */\n      add\n        /* \"#utility.yul\":3562:3583   */\n      swap1\n      pop\n        /* \"#utility.yul\":3518:3953   */\n      jump(tag_1003)\n    tag_1005:\n        /* \"#utility.yul\":3522:3543   */\n      pop\n        /* \"#utility.yul\":3126:3959   */\n      pop\n      pop\n        /* \"#utility.yul\":3014:3959   */\n      swap4\n      swap3\n      pop\n      pop\n      pop\n      jump\t// out\n        /* \"#utility.yul\":3981:4371   */\n    tag_935:\n        /* \"#utility.yul\":4062:4067   */\n      0x00\n        /* \"#utility.yul\":4111:4114   */\n      dup3\n        /* \"#utility.yul\":4104:4108   */\n      0x1f\n        /* \"#utility.yul\":4096:4102   */\n      dup4\n        /* \"#utility.yul\":4092:4109   */\n      add\n        /* \"#utility.yul\":4088:4115   */\n      slt\n        /* \"#utility.yul\":4078:4200   */\n      tag_1010\n      jumpi\n        /* \"#utility.yul\":4119:4198   */\n      tag_1011\n      tag_922\n      jump\t// in\n    tag_1011:\n        /* \"#utility.yul\":4078:4200   */\n    tag_1010:\n        /* \"#utility.yul\":4236:4242   */\n      dup2\n        /* \"#utility.yul\":4223:4243   */\n      calldataload\n        /* \"#utility.yul\":4261:4365   */\n      tag_1012\n        /* \"#utility.yul\":4361:4364   */\n      dup5\n        /* \"#utility.yul\":4353:4359   */\n      dup3\n        /* \"#utility.yul\":4346:4350   */\n      0x20\n        /* \"#utility.yul\":4338:4344   */\n      dup7\n        /* \"#utility.yul\":4334:4351   */\n      add\n        /* \"#utility.yul\":4261:4365   */\n      tag_934\n      jump\t// in\n    tag_1012:\n        /* \"#utility.yul\":4252:4365   */\n      swap2\n      pop\n        /* \"#utility.yul\":4068:4371   */\n      pop\n        /* \"#utility.yul\":3981:4371   */\n      swap3\n      swap2\n      pop\n      pop\n      jump\t// out\n        /* \"#utility.yul\":4377:4936   */\n    tag_26:\n        /* \"#utility.yul\":4471:4477   */\n      0x00\n        /* \"#utility.yul\":4520:4522   */\n      0x20\n        /* \"#utility.yul\":4508:4517   */\n      dup3\n        /* \"#utility.yul\":4499:4506   */\n      dup5\n        /* \"#utility.yul\":4495:4518   */\n      sub\n        /* \"#utility.yul\":4491:4523   */\n      slt\n        /* \"#utility.yul\":4488:4607   */\n      iszero\n      tag_1014\n      jumpi\n        /* \"#utility.yul\":4526:4605   */\n      tag_1015\n      tag_920\n      jump\t// in\n    tag_1015:\n        /* \"#utility.yul\":4488:4607   */\n    tag_1014:\n        /* \"#utility.yul\":4674:4675   */\n      0x00\n        /* \"#utility.yul\":4663:4672   */\n      dup3\n        /* \"#utility.yul\":4659:4676   */\n      add\n        /* \"#utility.yul\":4646:4677   */\n      calldataload\n        /* \"#utility.yul\":4704:4722   */\n      0xffffffffffffffff\n        /* \"#utility.yul\":4696:4702   */\n      dup2\n        /* \"#utility.yul\":4693:4723   */\n      gt\n        /* \"#utility.yul\":4690:4807   */\n      iszero\n      tag_1016\n      jumpi\n        /* \"#utility.yul\":4726:4805   */\n      tag_1017\n      tag_921\n      jump\t// in\n    tag_1017:\n        /* \"#utility.yul\":4690:4807   */\n    tag_1016:\n        /* \"#utility.yul\":4831:4919   */\n      tag_1018\n        /* \"#utility.yul\":4911:4918   */\n      dup5\n        /* \"#utility.yul\":4902:4908   */\n      dup3\n        /* \"#utility.yul\":4891:4900   */\n      dup6\n        /* \"#utility.yul\":4887:4909   */\n      add\n        /* \"#utility.yul\":4831:4919   */\n      tag_935\n      jump\t// in\n    tag_1018:\n        /* \"#utility.yul\":4821:4919   */\n      swap2\n      pop\n        /* \"#utility.yul\":4617:4929   */\n      pop\n        /* \"#utility.yul\":4377:4936   */\n      swap3\n      swap2\n      pop\n      pop\n      jump\t// out\n        /* \"#utility.yul\":4942:5019   */\n    tag_936:\n        /* \"#utility.yul\":4979:4986   */\n      0x00\n        /* \"#utility.yul\":5008:5013   */\n      dup2\n        /* \"#utility.yul\":4997:5013   */\n      swap1\n      pop\n        /* \"#utility.yul\":4942:5019   */\n      swap2\n      swap1\n      pop\n      jump\t// out\n        /* \"#utility.yul\":5025:5143   */\n    tag_937:\n        /* \"#utility.yul\":5112:5136   */\n      tag_1021\n        /* \"#utility.yul\":5130:5135   */\n      dup2\n        /* \"#utility.yul\":5112:5136   */\n      tag_936\n      jump\t// in\n    tag_1021:\n        /* \"#utility.yul\":5107:5110   */\n      dup3\n        /* \"#utility.yul\":5100:5137   */\n      mstore\n        /* \"#utility.yul\":5025:5143   */\n      pop\n      pop\n      jump\t// out\n        /* \"#utility.yul\":5149:5371   */\n    tag_32:\n        /* \"#utility.yul\":5242:5246   */\n      0x00\n        /* \"#utility.yul\":5280:5282   */\n      0x20\n        /* \"#utility.yul\":5269:5278   */\n      dup3\n        /* \"#utility.yul\":5265:5283   */\n      add\n        /* \"#utility.yul\":5257:5283   */\n      swap1\n      pop\n        /* \"#utility.yul\":5293:5364   */\n      tag_1023\n        /* \"#utility.yul\":5361:5362   */\n      0x00\n        /* \"#utility.yul\":5350:5359   */\n      dup4\n        /* \"#utility.yul\":5346:5363   */\n      add\n        /* \"#utility.yul\":5337:5343   */\n      dup5\n        /* \"#utility.yul\":5293:5364   */\n      tag_937\n      jump\t// in\n    tag_1023:\n        /* \"#utility.yul\":5149:5371   */\n      swap3\n      swap2\n      pop\n      pop\n      jump\t// out\n        /* \"#utility.yul\":5377:5503   */\n    tag_938:\n        /* \"#utility.yul\":5414:5421   */\n      0x00\n        /* \"#utility.yul\":5454:5496   */\n      0xffffffffffffffffffffffffffffffffffffffff\n        /* \"#utility.yul\":5447:5452   */\n      dup3\n        /* \"#utility.yul\":5443:5497   */\n      and\n        /* \"#utility.yul\":5432:5497   */\n      swap1\n      pop\n        /* \"#utility.yul\":5377:5503   */\n      swap2\n      swap1\n      pop\n      jump\t// out\n        /* \"#utility.yul\":5509:5605   */\n    tag_939:\n        /* \"#utility.yul\":5546:5553   */\n      0x00\n        /* \"#utility.yul\":5575:5599   */\n      tag_1026\n        /* \"#utility.yul\":5593:5598   */\n      dup3\n        /* \"#utility.yul\":5575:5599   */\n      tag_938\n      jump\t// in\n    tag_1026:\n        /* \"#utility.yul\":5564:5599   */\n      swap1\n      pop\n        /* \"#utility.yul\":5509:5605   */\n      swap2\n      swap1\n      pop\n      jump\t// out\n        /* \"#utility.yul\":5611:5729   */\n    tag_940:\n        /* \"#utility.yul\":5698:5722   */\n      tag_1028\n        /* \"#utility.yul\":5716:5721   */\n      dup2\n        /* \"#utility.yul\":5698:5722   */\n      tag_939\n      jump\t// in\n    tag_1028:\n        /* \"#utility.yul\":5693:5696   */\n      dup3\n        /* \"#utility.yul\":5686:5723   */\n      mstore\n        /* \"#utility.yul\":5611:5729   */\n      pop\n      pop\n      jump\t// out\n        /* \"#utility.yul\":5735:5957   */\n    tag_44:\n        /* \"#utility.yul\":5828:5832   */\n      0x00\n        /* \"#utility.yul\":5866:5868   */\n      0x20\n        /* \"#utility.yul\":5855:5864   */\n      dup3\n        /* \"#utility.yul\":5851:5869   */\n      add\n        /* \"#utility.yul\":5843:5869   */\n      swap1\n      pop\n        /* \"#utility.yul\":5879:5950   */\n      tag_1030\n        /* \"#utility.yul\":5947:5948   */\n      0x00\n        /* \"#utility.yul\":5936:5945   */\n      dup4\n        /* \"#utility.yul\":5932:5949   */\n      add\n        /* \"#utility.yul\":5923:5929   */\n      dup5\n        /* \"#utility.yul\":5879:5950   */\n      tag_940\n      jump\t// in\n    tag_1030:\n        /* \"#utility.yul\":5735:5957   */\n      swap3\n      swap2\n      pop\n      pop\n      jump\t// out\n        /* \"#utility.yul\":5963:6049   */\n    tag_941:\n        /* \"#utility.yul\":5998:6005   */\n      0x00\n        /* \"#utility.yul\":6038:6042   */\n      0xff\n        /* \"#utility.yul\":6031:6036   */\n      dup3\n        /* \"#utility.yul\":6027:6043   */\n      and\n        /* \"#utility.yul\":6016:6043   */\n      swap1\n      pop\n        /* \"#utility.yul\":5963:6049   */\n      swap2\n      swap1\n      pop\n      jump\t// out\n        /* \"#utility.yul\":6055:6173   */\n    tag_942:\n        /* \"#utility.yul\":6126:6148   */\n      tag_1033\n        /* \"#utility.yul\":6142:6147   */\n      dup2\n        /* \"#utility.yul\":6126:6148   */\n      tag_941\n      jump\t// in\n    tag_1033:\n        /* \"#utility.yul\":6119:6124   */\n      dup2\n        /* \"#utility.yul\":6116:6149   */\n      eq\n        /* \"#utility.yul\":6106:6167   */\n      tag_1034\n      jumpi\n        /* \"#utility.yul\":6163:6164   */\n      0x00\n        /* \"#utility.yul\":6160:6161   */\n      dup1\n        /* \"#utility.yul\":6153:6165   */\n      revert\n        /* \"#utility.yul\":6106:6167   */\n    tag_1034:\n        /* \"#utility.yul\":6055:6173   */\n      pop\n      jump\t// out\n        /* \"#utility.yul\":6179:6314   */\n    tag_943:\n        /* \"#utility.yul\":6223:6228   */\n      0x00\n        /* \"#utility.yul\":6261:6267   */\n      dup2\n        /* \"#utility.yul\":6248:6268   */\n      calldataload\n        /* \"#utility.yul\":6239:6268   */\n      swap1\n      pop\n        /* \"#utility.yul\":6277:6308   */\n      tag_1036\n        /* \"#utility.yul\":6302:6307   */\n      dup2\n        /* \"#utility.yul\":6277:6308   */\n      tag_942\n      jump\t// in\n    tag_1036:\n        /* \"#utility.yul\":6179:6314   */\n      swap3\n      swap2\n      pop\n      pop\n      jump\t// out\n        /* \"#utility.yul\":6320:6645   */\n    tag_48:\n        /* \"#utility.yul\":6377:6383   */\n      0x00\n        /* \"#utility.yul\":6426:6428   */\n      0x20\n        /* \"#utility.yul\":6414:6423   */\n      dup3\n        /* \"#utility.yul\":6405:6412   */\n      dup5\n        /* \"#utility.yul\":6401:6424   */\n      sub\n        /* \"#utility.yul\":6397:6429   */\n      slt\n        /* \"#utility.yul\":6394:6513   */\n      iszero\n      tag_1038\n      jumpi\n        /* \"#utility.yul\":6432:6511   */\n      tag_1039\n      tag_920\n      jump\t// in\n    tag_1039:\n        /* \"#utility.yul\":6394:6513   */\n    tag_1038:\n        /* \"#utility.yul\":6552:6553   */\n      0x00\n        /* \"#utility.yul\":6577:6628   */\n      tag_1040\n        /* \"#utility.yul\":6620:6627   */\n      dup5\n        /* \"#utility.yul\":6611:6617   */\n      dup3\n        /* \"#utility.yul\":6600:6609   */\n      dup6\n        /* \"#utility.yul\":6596:6618   */\n      add\n        /* \"#utility.yul\":6577:6628   */\n      tag_943\n      jump\t// in\n    tag_1040:\n        /* \"#utility.yul\":6567:6628   */\n      swap2\n      pop\n        /* \"#utility.yul\":6523:6638   */\n      pop\n        /* \"#utility.yul\":6320:6645   */\n      swap3\n      swap2\n      pop\n      pop\n      jump\t// out\n        /* \"#utility.yul\":6651:6765   */\n    tag_944:\n        /* \"#utility.yul\":6718:6724   */\n      0x00\n        /* \"#utility.yul\":6752:6757   */\n      dup2\n        /* \"#utility.yul\":6746:6758   */\n      mload\n        /* \"#utility.yul\":6736:6758   */\n      swap1\n      pop\n        /* \"#utility.yul\":6651:6765   */\n      swap2\n      swap1\n      pop\n      jump\t// out\n        /* \"#utility.yul\":6771:6955   */\n    tag_945:\n        /* \"#utility.yul\":6870:6881   */\n      0x00\n        /* \"#utility.yul\":6904:6910   */\n      dup3\n        /* \"#utility.yul\":6899:6902   */\n      dup3\n        /* \"#utility.yul\":6892:6911   */\n      mstore\n        /* \"#utility.yul\":6944:6948   */\n      0x20\n        /* \"#utility.yul\":6939:6942   */\n      dup3\n        /* \"#utility.yul\":6935:6949   */\n      add\n        /* \"#utility.yul\":6920:6949   */\n      swap1\n      pop\n        /* \"#utility.yul\":6771:6955   */\n      swap3\n      swap2\n      pop\n      pop\n      jump\t// out\n        /* \"#utility.yul\":6961:7093   */\n    tag_946:\n        /* \"#utility.yul\":7028:7032   */\n      0x00\n        /* \"#utility.yul\":7051:7054   */\n      dup2\n        /* \"#utility.yul\":7043:7054   */\n      swap1\n      pop\n        /* \"#utility.yul\":7081:7085   */\n      0x20\n        /* \"#utility.yul\":7076:7079   */\n      dup3\n        /* \"#utility.yul\":7072:7086   */\n      add\n        /* \"#utility.yul\":7064:7086   */\n      swap1\n      pop\n        /* \"#utility.yul\":6961:7093   */\n      swap2\n      swap1\n      pop\n      jump\t// out\n        /* \"#utility.yul\":7099:7207   */\n    tag_947:\n        /* \"#utility.yul\":7176:7200   */\n      tag_1045\n        /* \"#utility.yul\":7194:7199   */\n      dup2\n        /* \"#utility.yul\":7176:7200   */\n      tag_939\n      jump\t// in\n    tag_1045:\n        /* \"#utility.yul\":7171:7174   */\n      dup3\n        /* \"#utility.yul\":7164:7201   */\n      mstore\n        /* \"#utility.yul\":7099:7207   */\n      pop\n      pop\n      jump\t// out\n        /* \"#utility.yul\":7213:7392   */\n    tag_948:\n        /* \"#utility.yul\":7282:7292   */\n      0x00\n        /* \"#utility.yul\":7303:7349   */\n      tag_1047\n        /* \"#utility.yul\":7345:7348   */\n      dup4\n        /* \"#utility.yul\":7337:7343   */\n      dup4\n        /* \"#utility.yul\":7303:7349   */\n      tag_947\n      jump\t// in\n    tag_1047:\n        /* \"#utility.yul\":7381:7385   */\n      0x20\n        /* \"#utility.yul\":7376:7379   */\n      dup4\n        /* \"#utility.yul\":7372:7386   */\n      add\n        /* \"#utility.yul\":7358:7386   */\n      swap1\n      pop\n        /* \"#utility.yul\":7213:7392   */\n      swap3\n      swap2\n      pop\n      pop\n      jump\t// out\n        /* \"#utility.yul\":7398:7511   */\n    tag_949:\n        /* \"#utility.yul\":7468:7472   */\n      0x00\n        /* \"#utility.yul\":7500:7504   */\n      0x20\n        /* \"#utility.yul\":7495:7498   */\n      dup3\n        /* \"#utility.yul\":7491:7505   */\n      add\n        /* \"#utility.yul\":7483:7505   */\n      swap1\n      pop\n        /* \"#utility.yul\":7398:7511   */\n      swap2\n      swap1\n      pop\n      jump\t// out\n        /* \"#utility.yul\":7547:8279   */\n    tag_950:\n        /* \"#utility.yul\":7666:7669   */\n      0x00\n        /* \"#utility.yul\":7695:7749   */\n      tag_1050\n        /* \"#utility.yul\":7743:7748   */\n      dup3\n        /* \"#utility.yul\":7695:7749   */\n      tag_944\n      jump\t// in\n    tag_1050:\n        /* \"#utility.yul\":7765:7851   */\n      tag_1051\n        /* \"#utility.yul\":7844:7850   */\n      dup2\n        /* \"#utility.yul\":7839:7842   */\n      dup6\n        /* \"#utility.yul\":7765:7851   */\n      tag_945\n      jump\t// in\n    tag_1051:\n        /* \"#utility.yul\":7758:7851   */\n      swap4\n      pop\n        /* \"#utility.yul\":7875:7931   */\n      tag_1052\n        /* \"#utility.yul\":7925:7930   */\n      dup4\n        /* \"#utility.yul\":7875:7931   */\n      tag_946\n      jump\t// in\n    tag_1052:\n        /* \"#utility.yul\":7954:7961   */\n      dup1\n        /* \"#utility.yul\":7985:7986   */\n      0x00\n        /* \"#utility.yul\":7970:8254   */\n    tag_1053:\n        /* \"#utility.yul\":7995:8001   */\n      dup4\n        /* \"#utility.yul\":7992:7993   */\n      dup2\n        /* \"#utility.yul\":7989:8002   */\n      lt\n        /* \"#utility.yul\":7970:8254   */\n      iszero\n      tag_1055\n      jumpi\n        /* \"#utility.yul\":8071:8077   */\n      dup2\n        /* \"#utility.yul\":8065:8078   */\n      mload\n        /* \"#utility.yul\":8098:8161   */\n      tag_1056\n        /* \"#utility.yul\":8157:8160   */\n      dup9\n        /* \"#utility.yul\":8142:8155   */\n      dup3\n        /* \"#utility.yul\":8098:8161   */\n      tag_948\n      jump\t// in\n    tag_1056:\n        /* \"#utility.yul\":8091:8161   */\n      swap8\n      pop\n        /* \"#utility.yul\":8184:8244   */\n      tag_1057\n        /* \"#utility.yul\":8237:8243   */\n      dup4\n        /* \"#utility.yul\":8184:8244   */\n      tag_949\n      jump\t// in\n    tag_1057:\n        /* \"#utility.yul\":8174:8244   */\n      swap3\n      pop\n        /* \"#utility.yul\":8030:8254   */\n      pop\n        /* \"#utility.yul\":8017:8018   */\n      0x01\n        /* \"#utility.yul\":8014:8015   */\n      dup2\n        /* \"#utility.yul\":8010:8019   */\n      add\n        /* \"#utility.yul\":8005:8019   */\n      swap1\n      pop\n        /* \"#utility.yul\":7970:8254   */\n      jump(tag_1053)\n    tag_1055:\n        /* \"#utility.yul\":7974:7988   */\n      pop\n        /* \"#utility.yul\":8270:8273   */\n      dup6\n        /* \"#utility.yul\":8263:8273   */\n      swap4\n      pop\n        /* \"#utility.yul\":7671:8279   */\n      pop\n      pop\n      pop\n        /* \"#utility.yul\":7547:8279   */\n      swap3\n      swap2\n      pop\n      pop\n      jump\t// out\n        /* \"#utility.yul\":8285:8658   */\n    tag_78:\n        /* \"#utility.yul\":8428:8432   */\n      0x00\n        /* \"#utility.yul\":8466:8468   */\n      0x20\n        /* \"#utility.yul\":8455:8464   */\n      dup3\n        /* \"#utility.yul\":8451:8469   */\n      add\n        /* \"#utility.yul\":8443:8469   */\n      swap1\n      pop\n        /* \"#utility.yul\":8515:8524   */\n      dup2\n        /* \"#utility.yul\":8509:8513   */\n      dup2\n        /* \"#utility.yul\":8505:8525   */\n      sub\n        /* \"#utility.yul\":8501:8502   */\n      0x00\n        /* \"#utility.yul\":8490:8499   */\n      dup4\n        /* \"#utility.yul\":8486:8503   */\n      add\n        /* \"#utility.yul\":8479:8526   */\n      mstore\n        /* \"#utility.yul\":8543:8651   */\n      tag_1059\n        /* \"#utility.yul\":8646:8650   */\n      dup2\n        /* \"#utility.yul\":8637:8643   */\n      dup5\n        /* \"#utility.yul\":8543:8651   */\n      tag_950\n      jump\t// in\n    tag_1059:\n        /* \"#utility.yul\":8535:8651   */\n      swap1\n      pop\n        /* \"#utility.yul\":8285:8658   */\n      swap3\n      swap2\n      pop\n      pop\n      jump\t// out\n        /* \"#utility.yul\":8664:8768   */\n    tag_951:\n        /* \"#utility.yul\":8709:8716   */\n      0x00\n        /* \"#utility.yul\":8738:8762   */\n      tag_1061\n        /* \"#utility.yul\":8756:8761   */\n      dup3\n        /* \"#utility.yul\":8738:8762   */\n      tag_938\n      jump\t// in\n    tag_1061:\n        /* \"#utility.yul\":8727:8762   */\n      swap1\n      pop\n        /* \"#utility.yul\":8664:8768   */\n      swap2\n      swap1\n      pop\n      jump\t// out\n        /* \"#utility.yul\":8774:8916   */\n    tag_952:\n        /* \"#utility.yul\":8877:8909   */\n      tag_1063\n        /* \"#utility.yul\":8903:8908   */\n      dup2\n        /* \"#utility.yul\":8877:8909   */\n      tag_951\n      jump\t// in\n    tag_1063:\n        /* \"#utility.yul\":8872:8875   */\n      dup3\n        /* \"#utility.yul\":8865:8910   */\n      mstore\n        /* \"#utility.yul\":8774:8916   */\n      pop\n      pop\n      jump\t// out\n        /* \"#utility.yul\":8922:9176   */\n    tag_87:\n        /* \"#utility.yul\":9031:9035   */\n      0x00\n        /* \"#utility.yul\":9069:9071   */\n      0x20\n        /* \"#utility.yul\":9058:9067   */\n      dup3\n        /* \"#utility.yul\":9054:9072   */\n      add\n        /* \"#utility.yul\":9046:9072   */\n      swap1\n      pop\n        /* \"#utility.yul\":9082:9169   */\n      tag_1065\n        /* \"#utility.yul\":9166:9167   */\n      0x00\n        /* \"#utility.yul\":9155:9164   */\n      dup4\n        /* \"#utility.yul\":9151:9168   */\n      add\n        /* \"#utility.yul\":9142:9148   */\n      dup5\n        /* \"#utility.yul\":9082:9169   */\n      tag_952\n      jump\t// in\n    tag_1065:\n        /* \"#utility.yul\":8922:9176   */\n      swap3\n      swap2\n      pop\n      pop\n      jump\t// out\n        /* \"#utility.yul\":9182:9294   */\n    tag_953:\n        /* \"#utility.yul\":9265:9287   */\n      tag_1067\n        /* \"#utility.yul\":9281:9286   */\n      dup2\n        /* \"#utility.yul\":9265:9287   */\n      tag_941\n      jump\t// in\n    tag_1067:\n        /* \"#utility.yul\":9260:9263   */\n      dup3\n        /* \"#utility.yul\":9253:9288   */\n      mstore\n        /* \"#utility.yul\":9182:9294   */\n      pop\n      pop\n      jump\t// out\n        /* \"#utility.yul\":9300:9514   */\n    tag_96:\n        /* \"#utility.yul\":9389:9393   */\n      0x00\n        /* \"#utility.yul\":9427:9429   */\n      0x20\n        /* \"#utility.yul\":9416:9425   */\n      dup3\n        /* \"#utility.yul\":9412:9430   */\n      add\n        /* \"#utility.yul\":9404:9430   */\n      swap1\n      pop\n        /* \"#utility.yul\":9440:9507   */\n      tag_1069\n        /* \"#utility.yul\":9504:9505   */\n      0x00\n        /* \"#utility.yul\":9493:9502   */\n      dup4\n        /* \"#utility.yul\":9489:9506   */\n      add\n        /* \"#utility.yul\":9480:9486   */\n      dup5\n        /* \"#utility.yul\":9440:9507   */\n      tag_953\n      jump\t// in\n    tag_1069:\n        /* \"#utility.yul\":9300:9514   */\n      swap3\n      swap2\n      pop\n      pop\n      jump\t// out\n        /* \"#utility.yul\":9520:9700   */\n    tag_103:\n        /* \"#utility.yul\":9568:9645   */\n      0x4e487b7100000000000000000000000000000000000000000000000000000000\n        /* \"#utility.yul\":9565:9566   */\n      0x00\n        /* \"#utility.yul\":9558:9646   */\n      mstore\n        /* \"#utility.yul\":9665:9669   */\n      0x32\n        /* \"#utility.yul\":9662:9663   */\n      0x04\n        /* \"#utility.yul\":9655:9670   */\n      mstore\n        /* \"#utility.yul\":9689:9693   */\n      0x24\n        /* \"#utility.yul\":9686:9687   */\n      0x00\n        /* \"#utility.yul\":9679:9694   */\n      revert\n        /* \"#utility.yul\":9706:9886   */\n    tag_954:\n        /* \"#utility.yul\":9754:9831   */\n      0x4e487b7100000000000000000000000000000000000000000000000000000000\n        /* \"#utility.yul\":9751:9752   */\n      0x00\n        /* \"#utility.yul\":9744:9832   */\n      mstore\n        /* \"#utility.yul\":9851:9855   */\n      0x11\n        /* \"#utility.yul\":9848:9849   */\n      0x04\n        /* \"#utility.yul\":9841:9856   */\n      mstore\n        /* \"#utility.yul\":9875:9879   */\n      0x24\n        /* \"#utility.yul\":9872:9873   */\n      0x00\n        /* \"#utility.yul\":9865:9880   */\n      revert\n        /* \"#utility.yul\":9892:10059   */\n    tag_107:\n        /* \"#utility.yul\":9929:9932   */\n      0x00\n        /* \"#utility.yul\":9952:9974   */\n      tag_1073\n        /* \"#utility.yul\":9968:9973   */\n      dup3\n        /* \"#utility.yul\":9952:9974   */\n      tag_941\n      jump\t// in\n    tag_1073:\n        /* \"#utility.yul\":9943:9974   */\n      swap2\n      pop\n        /* \"#utility.yul\":9996:10000   */\n      0xff\n        /* \"#utility.yul\":9989:9994   */\n      dup3\n        /* \"#utility.yul\":9986:10001   */\n      eq\n        /* \"#utility.yul\":9983:10024   */\n      iszero\n      tag_1074\n      jumpi\n        /* \"#utility.yul\":10004:10022   */\n      tag_1075\n      tag_954\n      jump\t// in\n    tag_1075:\n        /* \"#utility.yul\":9983:10024   */\n    tag_1074:\n        /* \"#utility.yul\":10051:10052   */\n      0x01\n        /* \"#utility.yul\":10044:10049   */\n      dup3\n        /* \"#utility.yul\":10040:10053   */\n      add\n        /* \"#utility.yul\":10033:10053   */\n      swap1\n      pop\n        /* \"#utility.yul\":9892:10059   */\n      swap2\n      swap1\n      pop\n      jump\t// out\n        /* \"#utility.yul\":10065:10370   */\n    tag_186:\n        /* \"#utility.yul\":10105:10108   */\n      0x00\n        /* \"#utility.yul\":10124:10144   */\n      tag_1077\n        /* \"#utility.yul\":10142:10143   */\n      dup3\n        /* \"#utility.yul\":10124:10144   */\n      tag_936\n      jump\t// in\n    tag_1077:\n        /* \"#utility.yul\":10119:10144   */\n      swap2\n      pop\n        /* \"#utility.yul\":10158:10178   */\n      tag_1078\n        /* \"#utility.yul\":10176:10177   */\n      dup4\n        /* \"#utility.yul\":10158:10178   */\n      tag_936\n      jump\t// in\n    tag_1078:\n        /* \"#utility.yul\":10153:10178   */\n      swap3\n      pop\n        /* \"#utility.yul\":10312:10313   */\n      dup3\n        /* \"#utility.yul\":10244:10310   */\n      0xffffffffffffffffffffffffffffffffffffffffffffffffffffffffffffffff\n        /* \"#utility.yul\":10240:10314   */\n      sub\n        /* \"#utility.yul\":10237:10238   */\n      dup3\n        /* \"#utility.yul\":10234:10315   */\n      gt\n        /* \"#utility.yul\":10231:10338   */\n      iszero\n      tag_1079\n      jumpi\n        /* \"#utility.yul\":10318:10336   */\n      tag_1080\n      tag_954\n      jump\t// in\n    tag_1080:\n        /* \"#utility.yul\":10231:10338   */\n    tag_1079:\n        /* \"#utility.yul\":10362:10363   */\n      dup3\n        /* \"#utility.yul\":10359:10360   */\n      dup3\n        /* \"#utility.yul\":10355:10364   */\n      add\n        /* \"#utility.yul\":10348:10364   */\n      swap1\n      pop\n        /* \"#utility.yul\":10065:10370   */\n      swap3\n      swap2\n      pop\n      pop\n      jump\t// out\n        /* \"#utility.yul\":10376:10556   */\n    tag_955:\n        /* \"#utility.yul\":10424:10501   */\n      0x4e487b7100000000000000000000000000000000000000000000000000000000\n        /* \"#utility.yul\":10421:10422   */\n      0x00\n        /* \"#utility.yul\":10414:10502   */\n      mstore\n        /* \"#utility.yul\":10521:10525   */\n      0x12\n        /* \"#utility.yul\":10518:10519   */\n      0x04\n        /* \"#utility.yul\":10511:10526   */\n      mstore\n        /* \"#utility.yul\":10545:10549   */\n      0x24\n        /* \"#utility.yul\":10542:10543   */\n      0x00\n        /* \"#utility.yul\":10535:10550   */\n      revert\n        /* \"#utility.yul\":10562:10747   */\n    tag_188:\n        /* \"#utility.yul\":10602:10603   */\n      0x00\n        /* \"#utility.yul\":10619:10639   */\n      tag_1083\n        /* \"#utility.yul\":10637:10638   */\n      dup3\n        /* \"#utility.yul\":10619:10639   */\n      tag_936\n      jump\t// in\n    tag_1083:\n        /* \"#utility.yul\":10614:10639   */\n      swap2\n      pop\n        /* \"#utility.yul\":10653:10673   */\n      tag_1084\n        /* \"#utility.yul\":10671:10672   */\n      dup4\n        /* \"#utility.yul\":10653:10673   */\n      tag_936\n      jump\t// in\n    tag_1084:\n        /* \"#utility.yul\":10648:10673   */\n      swap3\n      pop\n        /* \"#utility.yul\":10692:10693   */\n      dup3\n        /* \"#utility.yul\":10682:10717   */\n      tag_1085\n      jumpi\n        /* \"#utility.yul\":10697:10715   */\n      tag_1086\n      tag_955\n      jump\t// in\n    tag_1086:\n        /* \"#utility.yul\":10682:10717   */\n    tag_1085:\n        /* \"#utility.yul\":10739:10740   */\n      dup3\n        /* \"#utility.yul\":10736:10737   */\n      dup3\n        /* \"#utility.yul\":10732:10741   */\n      div\n        /* \"#utility.yul\":10727:10741   */\n      swap1\n      pop\n        /* \"#utility.yul\":10562:10747   */\n      swap3\n      swap2\n      pop\n      pop\n      jump\t// out\n        /* \"#utility.yul\":10753:10922   */\n    tag_956:\n        /* \"#utility.yul\":10837:10848   */\n      0x00\n        /* \"#utility.yul\":10871:10877   */\n      dup3\n        /* \"#utility.yul\":10866:10869   */\n      dup3\n        /* \"#utility.yul\":10859:10878   */\n      mstore\n        /* \"#utility.yul\":10911:10915   */\n      0x20\n        /* \"#utility.yul\":10906:10909   */\n      dup3\n        /* \"#utility.yul\":10902:10916   */\n      add\n        /* \"#utility.yul\":10887:10916   */\n      swap1\n      pop\n        /* \"#utility.yul\":10753:10922   */\n      swap3\n      swap2\n      pop\n      pop\n      jump\t// out\n        /* \"#utility.yul\":10928:11109   */\n    tag_957:\n        /* \"#utility.yul\":11068:11101   */\n      0x436f6e74657374616e7420697320616c7261647920696e207468652062657400\n        /* \"#utility.yul\":11064:11065   */\n      0x00\n        /* \"#utility.yul\":11056:11062   */\n      dup3\n        /* \"#utility.yul\":11052:11066   */\n      add\n        /* \"#utility.yul\":11045:11102   */\n      mstore\n        /* \"#utility.yul\":10928:11109   */\n      pop\n      jump\t// out\n        /* \"#utility.yul\":11115:11481   */\n    tag_958:\n        /* \"#utility.yul\":11257:11260   */\n      0x00\n        /* \"#utility.yul\":11278:11345   */\n      tag_1090\n        /* \"#utility.yul\":11342:11344   */\n      0x1f\n        /* \"#utility.yul\":11337:11340   */\n      dup4\n        /* \"#utility.yul\":11278:11345   */\n      tag_956\n      jump\t// in\n    tag_1090:\n        /* \"#utility.yul\":11271:11345   */\n      swap2\n      pop\n        /* \"#utility.yul\":11354:11447   */\n      tag_1091\n        /* \"#utility.yul\":11443:11446   */\n      dup3\n        /* \"#utility.yul\":11354:11447   */\n      tag_957\n      jump\t// in\n    tag_1091:\n        /* \"#utility.yul\":11472:11474   */\n      0x20\n        /* \"#utility.yul\":11467:11470   */\n      dup3\n        /* \"#utility.yul\":11463:11475   */\n      add\n        /* \"#utility.yul\":11456:11475   */\n      swap1\n      pop\n        /* \"#utility.yul\":11115:11481   */\n      swap2\n      swap1\n      pop\n      jump\t// out\n        /* \"#utility.yul\":11487:11906   */\n    tag_225:\n        /* \"#utility.yul\":11653:11657   */\n      0x00\n        /* \"#utility.yul\":11691:11693   */\n      0x20\n        /* \"#utility.yul\":11680:11689   */\n      dup3\n        /* \"#utility.yul\":11676:11694   */\n      add\n        /* \"#utility.yul\":11668:11694   */\n      swap1\n      pop\n        /* \"#utility.yul\":11740:11749   */\n      dup2\n        /* \"#utility.yul\":11734:11738   */\n      dup2\n        /* \"#utility.yul\":11730:11750   */\n      sub\n        /* \"#utility.yul\":11726:11727   */\n      0x00\n        /* \"#utility.yul\":11715:11724   */\n      dup4\n        /* \"#utility.yul\":11711:11728   */\n      add\n        /* \"#utility.yul\":11704:11751   */\n      mstore\n        /* \"#utility.yul\":11768:11899   */\n      tag_1093\n        /* \"#utility.yul\":11894:11898   */\n      dup2\n        /* \"#utility.yul\":11768:11899   */\n      tag_958\n      jump\t// in\n    tag_1093:\n        /* \"#utility.yul\":11760:11899   */\n      swap1\n      pop\n        /* \"#utility.yul\":11487:11906   */\n      swap2\n      swap1\n      pop\n      jump\t// out\n        /* \"#utility.yul\":11912:12092   */\n    tag_959:\n        /* \"#utility.yul\":11960:12037   */\n      0x4e487b7100000000000000000000000000000000000000000000000000000000\n        /* \"#utility.yul\":11957:11958   */\n      0x00\n        /* \"#utility.yul\":11950:12038   */\n      mstore\n        /* \"#utility.yul\":12057:12061   */\n      0x22\n        /* \"#utility.yul\":12054:12055   */\n      0x04\n        /* \"#utility.yul\":12047:12062   */\n      mstore\n        /* \"#utility.yul\":12081:12085   */\n      0x24\n        /* \"#utility.yul\":12078:12079   */\n      0x00\n        /* \"#utility.yul\":12071:12086   */\n      revert\n        /* \"#utility.yul\":12098:12418   */\n    tag_260:\n        /* \"#utility.yul\":12142:12148   */\n      0x00\n        /* \"#utility.yul\":12179:12180   */\n      0x02\n        /* \"#utility.yul\":12173:12177   */\n      dup3\n        /* \"#utility.yul\":12169:12181   */\n      div\n        /* \"#utility.yul\":12159:12181   */\n      swap1\n      pop\n        /* \"#utility.yul\":12226:12227   */\n      0x01\n        /* \"#utility.yul\":12220:12224   */\n      dup3\n        /* \"#utility.yul\":12216:12228   */\n      and\n        /* \"#utility.yul\":12247:12265   */\n      dup1\n        /* \"#utility.yul\":12237:12318   */\n      tag_1096\n      jumpi\n        /* \"#utility.yul\":12303:12307   */\n      0x7f\n        /* \"#utility.yul\":12295:12301   */\n      dup3\n        /* \"#utility.yul\":12291:12308   */\n      and\n        /* \"#utility.yul\":12281:12308   */\n      swap2\n      pop\n        /* \"#utility.yul\":12237:12318   */\n    tag_1096:\n        /* \"#utility.yul\":12365:12367   */\n      0x20\n        /* \"#utility.yul\":12357:12363   */\n      dup3\n        /* \"#utility.yul\":12354:12368   */\n      lt\n        /* \"#utility.yul\":12334:12352   */\n      dup2\n        /* \"#utility.yul\":12331:12369   */\n      eq\n        /* \"#utility.yul\":12328:12412   */\n      iszero\n      tag_1097\n      jumpi\n        /* \"#utility.yul\":12384:12402   */\n      tag_1098\n      tag_959\n      jump\t// in\n    tag_1098:\n        /* \"#utility.yul\":12328:12412   */\n    tag_1097:\n        /* \"#utility.yul\":12149:12418   */\n      pop\n        /* \"#utility.yul\":12098:12418   */\n      swap2\n      swap1\n      pop\n      jump\t// out\n        /* \"#utility.yul\":12424:12661   */\n    tag_286:\n        /* \"#utility.yul\":12462:12465   */\n      0x00\n        /* \"#utility.yul\":12481:12499   */\n      tag_1100\n        /* \"#utility.yul\":12497:12498   */\n      dup3\n        /* \"#utility.yul\":12481:12499   */\n      tag_941\n      jump\t// in\n    tag_1100:\n        /* \"#utility.yul\":12476:12499   */\n      swap2\n      pop\n        /* \"#utility.yul\":12513:12531   */\n      tag_1101\n        /* \"#utility.yul\":12529:12530   */\n      dup4\n        /* \"#utility.yul\":12513:12531   */\n      tag_941\n      jump\t// in\n    tag_1101:\n        /* \"#utility.yul\":12508:12531   */\n      swap3\n      pop\n        /* \"#utility.yul\":12603:12604   */\n      dup3\n        /* \"#utility.yul\":12597:12601   */\n      0xff\n        /* \"#utility.yul\":12593:12605   */\n      sub\n        /* \"#utility.yul\":12590:12591   */\n      dup3\n        /* \"#utility.yul\":12587:12606   */\n      gt\n        /* \"#utility.yul\":12584:12629   */\n      iszero\n      tag_1102\n      jumpi\n        /* \"#utility.yul\":12609:12627   */\n      tag_1103\n      tag_954\n      jump\t// in\n    tag_1103:\n        /* \"#utility.yul\":12584:12629   */\n    tag_1102:\n        /* \"#utility.yul\":12653:12654   */\n      dup3\n        /* \"#utility.yul\":12650:12651   */\n      dup3\n        /* \"#utility.yul\":12646:12655   */\n      add\n        /* \"#utility.yul\":12639:12655   */\n      swap1\n      pop\n        /* \"#utility.yul\":12424:12661   */\n      swap3\n      swap2\n      pop\n      pop\n      jump\t// out\n        /* \"#utility.yul\":12667:12852   */\n    tag_332:\n        /* \"#utility.yul\":12705:12709   */\n      0x00\n        /* \"#utility.yul\":12725:12743   */\n      tag_1105\n        /* \"#utility.yul\":12741:12742   */\n      dup3\n        /* \"#utility.yul\":12725:12743   */\n      tag_941\n      jump\t// in\n    tag_1105:\n        /* \"#utility.yul\":12720:12743   */\n      swap2\n      pop\n        /* \"#utility.yul\":12757:12775   */\n      tag_1106\n        /* \"#utility.yul\":12773:12774   */\n      dup4\n        /* \"#utility.yul\":12757:12775   */\n      tag_941\n      jump\t// in\n    tag_1106:\n        /* \"#utility.yul\":12752:12775   */\n      swap3\n      pop\n        /* \"#utility.yul\":12794:12795   */\n      dup3\n        /* \"#utility.yul\":12791:12792   */\n      dup3\n        /* \"#utility.yul\":12788:12796   */\n      lt\n        /* \"#utility.yul\":12785:12819   */\n      iszero\n      tag_1107\n      jumpi\n        /* \"#utility.yul\":12799:12817   */\n      tag_1108\n      tag_954\n      jump\t// in\n    tag_1108:\n        /* \"#utility.yul\":12785:12819   */\n    tag_1107:\n        /* \"#utility.yul\":12844:12845   */\n      dup3\n        /* \"#utility.yul\":12841:12842   */\n      dup3\n        /* \"#utility.yul\":12837:12846   */\n      sub\n        /* \"#utility.yul\":12829:12846   */\n      swap1\n      pop\n        /* \"#utility.yul\":12667:12852   */\n      swap3\n      swap2\n      pop\n      pop\n      jump\t// out\n        /* \"#utility.yul\":12858:13049   */\n    tag_375:\n        /* \"#utility.yul\":12898:12902   */\n      0x00\n        /* \"#utility.yul\":12918:12938   */\n      tag_1110\n        /* \"#utility.yul\":12936:12937   */\n      dup3\n        /* \"#utility.yul\":12918:12938   */\n      tag_936\n      jump\t// in\n    tag_1110:\n        /* \"#utility.yul\":12913:12938   */\n      swap2\n      pop\n        /* \"#utility.yul\":12952:12972   */\n      tag_1111\n        /* \"#utility.yul\":12970:12971   */\n      dup4\n        /* \"#utility.yul\":12952:12972   */\n      tag_936\n      jump\t// in\n    tag_1111:\n        /* \"#utility.yul\":12947:12972   */\n      swap3\n      pop\n        /* \"#utility.yul\":12991:12992   */\n      dup3\n        /* \"#utility.yul\":12988:12989   */\n      dup3\n        /* \"#utility.yul\":12985:12993   */\n      lt\n        /* \"#utility.yul\":12982:13016   */\n      iszero\n      tag_1112\n      jumpi\n        /* \"#utility.yul\":12996:13014   */\n      tag_1113\n      tag_954\n      jump\t// in\n    tag_1113:\n        /* \"#utility.yul\":12982:13016   */\n    tag_1112:\n        /* \"#utility.yul\":13041:13042   */\n      dup3\n        /* \"#utility.yul\":13038:13039   */\n      dup3\n        /* \"#utility.yul\":13034:13043   */\n      sub\n        /* \"#utility.yul\":13026:13043   */\n      swap1\n      pop\n        /* \"#utility.yul\":12858:13049   */\n      swap3\n      swap2\n      pop\n      pop\n      jump\t// out\n        /* \"#utility.yul\":13055:13154   */\n    tag_960:\n        /* \"#utility.yul\":13107:13113   */\n      0x00\n        /* \"#utility.yul\":13141:13146   */\n      dup2\n        /* \"#utility.yul\":13135:13147   */\n      mload\n        /* \"#utility.yul\":13125:13147   */\n      swap1\n      pop\n        /* \"#utility.yul\":13055:13154   */\n      swap2\n      swap1\n      pop\n      jump\t// out\n        /* \"#utility.yul\":13160:13308   */\n    tag_961:\n        /* \"#utility.yul\":13262:13273   */\n      0x00\n        /* \"#utility.yul\":13299:13302   */\n      dup2\n        /* \"#utility.yul\":13284:13302   */\n      swap1\n      pop\n        /* \"#utility.yul\":13160:13308   */\n      swap3\n      swap2\n      pop\n      pop\n      jump\t// out\n        /* \"#utility.yul\":13314:13621   */\n    tag_962:\n        /* \"#utility.yul\":13382:13383   */\n      0x00\n        /* \"#utility.yul\":13392:13505   */\n    tag_1117:\n        /* \"#utility.yul\":13406:13412   */\n      dup4\n        /* \"#utility.yul\":13403:13404   */\n      dup2\n        /* \"#utility.yul\":13400:13413   */\n      lt\n        /* \"#utility.yul\":13392:13505   */\n      iszero\n      tag_1119\n      jumpi\n        /* \"#utility.yul\":13491:13492   */\n      dup1\n        /* \"#utility.yul\":13486:13489   */\n      dup3\n        /* \"#utility.yul\":13482:13493   */\n      add\n        /* \"#utility.yul\":13476:13494   */\n      mload\n        /* \"#utility.yul\":13472:13473   */\n      dup2\n        /* \"#utility.yul\":13467:13470   */\n      dup5\n        /* \"#utility.yul\":13463:13474   */\n      add\n        /* \"#utility.yul\":13456:13495   */\n      mstore\n        /* \"#utility.yul\":13428:13430   */\n      0x20\n        /* \"#utility.yul\":13425:13426   */\n      dup2\n        /* \"#utility.yul\":13421:13431   */\n      add\n        /* \"#utility.yul\":13416:13431   */\n      swap1\n      pop\n        /* \"#utility.yul\":13392:13505   */\n      jump(tag_1117)\n    tag_1119:\n        /* \"#utility.yul\":13523:13529   */\n      dup4\n        /* \"#utility.yul\":13520:13521   */\n      dup2\n        /* \"#utility.yul\":13517:13530   */\n      gt\n        /* \"#utility.yul\":13514:13615   */\n      iszero\n      tag_1120\n      jumpi\n        /* \"#utility.yul\":13603:13604   */\n      0x00\n        /* \"#utility.yul\":13594:13600   */\n      dup5\n        /* \"#utility.yul\":13589:13592   */\n      dup5\n        /* \"#utility.yul\":13585:13601   */\n      add\n        /* \"#utility.yul\":13578:13605   */\n      mstore\n        /* \"#utility.yul\":13514:13615   */\n    tag_1120:\n        /* \"#utility.yul\":13363:13621   */\n      pop\n        /* \"#utility.yul\":13314:13621   */\n      pop\n      pop\n      pop\n      jump\t// out\n        /* \"#utility.yul\":13627:14004   */\n    tag_963:\n        /* \"#utility.yul\":13733:13736   */\n      0x00\n        /* \"#utility.yul\":13761:13800   */\n      tag_1122\n        /* \"#utility.yul\":13794:13799   */\n      dup3\n        /* \"#utility.yul\":13761:13800   */\n      tag_960\n      jump\t// in\n    tag_1122:\n        /* \"#utility.yul\":13816:13905   */\n      tag_1123\n        /* \"#utility.yul\":13898:13904   */\n      dup2\n        /* \"#utility.yul\":13893:13896   */\n      dup6\n        /* \"#utility.yul\":13816:13905   */\n      tag_961\n      jump\t// in\n    tag_1123:\n        /* \"#utility.yul\":13809:13905   */\n      swap4\n      pop\n        /* \"#utility.yul\":13914:13966   */\n      tag_1124\n        /* \"#utility.yul\":13959:13965   */\n      dup2\n        /* \"#utility.yul\":13954:13957   */\n      dup6\n        /* \"#utility.yul\":13947:13951   */\n      0x20\n        /* \"#utility.yul\":13940:13945   */\n      dup7\n        /* \"#utility.yul\":13936:13952   */\n      add\n        /* \"#utility.yul\":13914:13966   */\n      tag_962\n      jump\t// in\n    tag_1124:\n        /* \"#utility.yul\":13991:13997   */\n      dup1\n        /* \"#utility.yul\":13986:13989   */\n      dup5\n        /* \"#utility.yul\":13982:13998   */\n      add\n        /* \"#utility.yul\":13975:13998   */\n      swap2\n      pop\n        /* \"#utility.yul\":13737:14004   */\n      pop\n        /* \"#utility.yul\":13627:14004   */\n      swap3\n      swap2\n      pop\n      pop\n      jump\t// out\n        /* \"#utility.yul\":14010:14285   */\n    tag_891:\n        /* \"#utility.yul\":14142:14145   */\n      0x00\n        /* \"#utility.yul\":14164:14259   */\n      tag_1126\n        /* \"#utility.yul\":14255:14258   */\n      dup3\n        /* \"#utility.yul\":14246:14252   */\n      dup5\n        /* \"#utility.yul\":14164:14259   */\n      tag_963\n      jump\t// in\n    tag_1126:\n        /* \"#utility.yul\":14157:14259   */\n      swap2\n      pop\n        /* \"#utility.yul\":14276:14279   */\n      dup2\n        /* \"#utility.yul\":14269:14279   */\n      swap1\n      pop\n        /* \"#utility.yul\":14010:14285   */\n      swap3\n      swap2\n      pop\n      pop\n      jump\t// out\n\n    auxdata: 0xa2646970667358221220eece20f85adddfc1c0df0a7185351b26b29c91603a1beff206ca78666ada464764736f6c634300080b0033\n}\n","bytecode":{"linkReferences":{},"object":"60806040523480156200001157600080fd5b5060405162004933380380620049338339818101604052810190620000379190620000c6565b33600660016101000a81548173ffffffffffffffffffffffffffffffffffffffff021916908373ffffffffffffffffffffffffffffffffffffffff1602179055508060078190555050620000f8565b600080fd5b6000819050919050565b620000a0816200008b565b8114620000ac57600080fd5b50565b600081519050620000c08162000095565b92915050565b600060208284031215620000df57620000de62000086565b5b6000620000ef84828501620000af565b91505092915050565b61482b80620001086000396000f3fe6080604052600436106101095760003560e01c80637f36ea2411610095578063c10196fa11610064578063c10196fa146102dd578063c8fe213414610308578063dfbf53ae14610331578063ef9884e41461035c578063f1d78c841461038757610109565b80637f36ea2414610275578063a388d1cd1461027f578063b12038f4146102aa578063bb427d8a146102d357610109565b8063481c6a75116100dc578063481c6a75146101a457806355db72ea146101cf57806365046e8c146101f857806377bc91f5146102215780637af448f21461024a57610109565b806309221b3a1461010e578063096c705d1461013757806311610c25146101625780632ccb0d1e1461018d575b600080fd5b34801561011a57600080fd5b5061013560048036038101906101309190614224565b6103b2565b005b34801561014357600080fd5b5061014c6104c8565b6040516101599190614286565b60405180910390f35b34801561016e57600080fd5b506101776105bc565b6040516101849190614286565b60405180910390f35b34801561019957600080fd5b506101a26105c2565b005b3480156101b057600080fd5b506101b9610693565b6040516101c691906142e2565b60405180910390f35b3480156101db57600080fd5b506101f660048036038101906101f19190614336565b6106b9565b005b34801561020457600080fd5b5061021f600480360381019061021a9190614224565b610731565b005b34801561022d57600080fd5b5061024860048036038101906102439190614336565b6107a5565b005b34801561025657600080fd5b5061025f6108c2565b60405161026c9190614286565b60405180910390f35b61027d6109b6565b005b34801561028b57600080fd5b50610294610bbb565b6040516102a19190614286565b60405180910390f35b3480156102b657600080fd5b506102d160048036038101906102cc9190614224565b610caf565b005b6102db610dc5565b005b3480156102e957600080fd5b506102f2610f26565b6040516102ff9190614421565b60405180910390f35b34801561031457600080fd5b5061032f600480360381019061032a9190614224565b610fb4565b005b34801561033d57600080fd5b50610346611028565b6040516103539190614464565b60405180910390f35b34801561036857600080fd5b5061037161104e565b60405161037e9190614286565b60405180910390f35b34801561039357600080fd5b5061039c611142565b6040516103a9919061448e565b60405180910390f35b600080600090505b6001805490508160ff161015610455573373ffffffffffffffffffffffffffffffffffffffff1660018260ff16815481106103f8576103f76144a9565b5b9060005260206000200160009054906101000a900473ffffffffffffffffffffffffffffffffffffffff1673ffffffffffffffffffffffffffffffffffffffff16141561044457600191505b8061044e90614507565b90506103ba565b508061046057600080fd5b600a82511461046e57600080fd5b816000803373ffffffffffffffffffffffffffffffffffffffff1673ffffffffffffffffffffffffffffffffffffffff16815260200190815260200160002060000190805190602001906104c3929190613e7d565b505050565b60008060005b6001805490508160ff161015610569573373ffffffffffffffffffffffffffffffffffffffff1660018260ff168154811061050c5761050b6144a9565b5b9060005260206000200160009054906101000a900473ffffffffffffffffffffffffffffffffffffffff1673ffffffffffffffffffffffffffffffffffffffff16141561055857600191505b8061056290614507565b90506104ce565b508061057457600080fd5b6000803373ffffffffffffffffffffffffffffffffffffffff1673ffffffffffffffffffffffffffffffffffffffff1681526020019081526020016000206004015491505090565b60075481565b600080600090505b6001805490508160ff161015610665573373ffffffffffffffffffffffffffffffffffffffff1660018260ff1681548110610608576106076144a9565b5b9060005260206000200160009054906101000a900473ffffffffffffffffffffffffffffffffffffffff1673ffffffffffffffffffffffffffffffffffffffff16141561065457600191505b8061065e90614507565b90506105ca565b508061067057600080fd5b610678611155565b61068061258e565b6106886139c7565b610690613b2b565b50565b600660019054906101000a900473ffffffffffffffffffffffffffffffffffffffff1681565b600660019054906101000a900473ffffffffffffffffffffffffffffffffffffffff1673ffffffffffffffffffffffffffffffffffffffff163373ffffffffffffffffffffffffffffffffffffffff161461071357600080fd5b80600660006101000a81548160ff021916908360ff16021790555050565b600660019054906101000a900473ffffffffffffffffffffffffffffffffffffffff1673ffffffffffffffffffffffffffffffffffffffff163373ffffffffffffffffffffffffffffffffffffffff161461078b57600080fd5b80600590805190602001906107a1929190613e7d565b5050565b600080600090505b6001805490508160ff161015610848573373ffffffffffffffffffffffffffffffffffffffff1660018260ff16815481106107eb576107ea6144a9565b5b9060005260206000200160009054906101000a900473ffffffffffffffffffffffffffffffffffffffff1673ffffffffffffffffffffffffffffffffffffffff16141561083757600191505b8061084190614507565b90506107ad565b508061085357600080fd5b60008260ff16101561086457600080fd5b816000803373ffffffffffffffffffffffffffffffffffffffff1673ffffffffffffffffffffffffffffffffffffffff16815260200190815260200160002060020160006101000a81548160ff021916908360ff1602179055505050565b60008060005b6001805490508160ff161015610963573373ffffffffffffffffffffffffffffffffffffffff1660018260ff1681548110610906576109056144a9565b5b9060005260206000200160009054906101000a900473ffffffffffffffffffffffffffffffffffffffff1673ffffffffffffffffffffffffffffffffffffffff16141561095257600191505b8061095c90614507565b90506108c8565b508061096e57600080fd5b6000803373ffffffffffffffffffffffffffffffffffffffff1673ffffffffffffffffffffffffffffffffffffffff1681526020019081526020016000206003015491505090565b600080600090505b6001805490508160ff161015610a59573373ffffffffffffffffffffffffffffffffffffffff1660018260ff16815481106109fc576109fb6144a9565b5b9060005260206000200160009054906101000a900473ffffffffffffffffffffffffffffffffffffffff1673ffffffffffffffffffffffffffffffffffffffff161415610a4857600191505b80610a5290614507565b90506109be565b5080610a6457600080fd5b60001515600860003373ffffffffffffffffffffffffffffffffffffffff1673ffffffffffffffffffffffffffffffffffffffff16815260200190815260200160002060009054906101000a900460ff16151514610ac157600080fd5b600160096000828254610ad49190614531565b925050819055506001600860003373ffffffffffffffffffffffffffffffffffffffff1673ffffffffffffffffffffffffffffffffffffffff16815260200190815260200160002060006101000a81548160ff0219169083151502179055506002600180549050610b4591906145b6565b6009541115610bb857600260009054906101000a900473ffffffffffffffffffffffffffffffffffffffff1673ffffffffffffffffffffffffffffffffffffffff166108fc479081150290604051600060405180830381858888f19350505050158015610bb6573d6000803e3d6000fd5b505b50565b60008060005b6001805490508160ff161015610c5c573373ffffffffffffffffffffffffffffffffffffffff1660018260ff1681548110610bff57610bfe6144a9565b5b9060005260206000200160009054906101000a900473ffffffffffffffffffffffffffffffffffffffff1673ffffffffffffffffffffffffffffffffffffffff161415610c4b57600191505b80610c5590614507565b9050610bc1565b5080610c6757600080fd5b6000803373ffffffffffffffffffffffffffffffffffffffff1673ffffffffffffffffffffffffffffffffffffffff1681526020019081526020016000206005015491505090565b600080600090505b6001805490508160ff161015610d52573373ffffffffffffffffffffffffffffffffffffffff1660018260ff1681548110610cf557610cf46144a9565b5b9060005260206000200160009054906101000a900473ffffffffffffffffffffffffffffffffffffffff1673ffffffffffffffffffffffffffffffffffffffff161415610d4157600191505b80610d4b90614507565b9050610cb7565b5080610d5d57600080fd5b6014825114610d6b57600080fd5b816000803373ffffffffffffffffffffffffffffffffffffffff1673ffffffffffffffffffffffffffffffffffffffff1681526020019081526020016000206001019080519060200190610dc0929190613e7d565b505050565b60005b6001805490508160ff161015610e99573373ffffffffffffffffffffffffffffffffffffffff1660018260ff1681548110610e0657610e056144a9565b5b9060005260206000200160009054906101000a900473ffffffffffffffffffffffffffffffffffffffff1673ffffffffffffffffffffffffffffffffffffffff161415610e88576040517f08c379a0000000000000000000000000000000000000000000000000000000008152600401610e7f90614644565b60405180910390fd5b80610e9290614507565b9050610dc8565b506007543411610ea857600080fd5b3460036000828254610eba9190614531565b925050819055506001339080600181540180825580915050600190039060005260206000200160009091909190916101000a81548173ffffffffffffffffffffffffffffffffffffffff021916908373ffffffffffffffffffffffffffffffffffffffff160217905550565b60606001805480602002602001604051908101604052809291908181526020018280548015610faa57602002820191906000526020600020905b8160009054906101000a900473ffffffffffffffffffffffffffffffffffffffff1673ffffffffffffffffffffffffffffffffffffffff1681526020019060010190808311610f60575b5050505050905090565b600660019054906101000a900473ffffffffffffffffffffffffffffffffffffffff1673ffffffffffffffffffffffffffffffffffffffff163373ffffffffffffffffffffffffffffffffffffffff161461100e57600080fd5b8060049080519060200190611024929190613e7d565b5050565b600260009054906101000a900473ffffffffffffffffffffffffffffffffffffffff1681565b60008060005b6001805490508160ff1610156110ef573373ffffffffffffffffffffffffffffffffffffffff1660018260ff1681548110611092576110916144a9565b5b9060005260206000200160009054906101000a900473ffffffffffffffffffffffffffffffffffffffff1673ffffffffffffffffffffffffffffffffffffffff1614156110de57600191505b806110e890614507565b9050611054565b50806110fa57600080fd5b6000803373ffffffffffffffffffffffffffffffffffffffff1673ffffffffffffffffffffffffffffffffffffffff1681526020019081526020016000206006015491505090565b600660009054906101000a900460ff1681565b60005b6001805490508160ff16101561258b57600080600060018460ff1681548110611184576111836144a9565b5b9060005260206000200160009054906101000a900473ffffffffffffffffffffffffffffffffffffffff1673ffffffffffffffffffffffffffffffffffffffff1673ffffffffffffffffffffffffffffffffffffffff168152602001908152602001600020600001805480602002602001604051908101604052809291908181526020016000905b828210156112b857838290600052602060002001805461122b90614693565b80601f016020809104026020016040519081016040528092919081815260200182805461125790614693565b80156112a45780601f10611279576101008083540402835291602001916112a4565b820191906000526020600020905b81548152906001019060200180831161128757829003601f168201915b50505050508152602001906001019061120c565b5050505090506000805b6004805490508160ff1610156124ee5760018160ff1610156115b4576113ae838260ff16815181106112f7576112f66144a9565b5b602002602001015160048360ff1681548110611316576113156144a9565b5b90600052602060002001805461132b90614693565b80601f016020809104026020016040519081016040528092919081815260200182805461135790614693565b80156113a45780601f10611379576101008083540402835291602001916113a4565b820191906000526020600020905b81548152906001019060200180831161138757829003601f168201915b5050505050613e13565b156113c7576005826113c09190614531565b91506115af565b6114a3836001836113d891906146c5565b60ff16815181106113ec576113eb6144a9565b5b602002602001015160048360ff168154811061140b5761140a6144a9565b5b90600052602060002001805461142090614693565b80601f016020809104026020016040519081016040528092919081815260200182805461144c90614693565b80156114995780601f1061146e57610100808354040283529160200191611499565b820191906000526020600020905b81548152906001019060200180831161147c57829003601f168201915b5050505050613e13565b156114bc576003826114b59190614531565b91506115ae565b611598836002836114cd91906146c5565b60ff16815181106114e1576114e06144a9565b5b602002602001015160048360ff1681548110611500576114ff6144a9565b5b90600052602060002001805461151590614693565b80601f016020809104026020016040519081016040528092919081815260200182805461154190614693565b801561158e5780601f106115635761010080835404028352916020019161158e565b820191906000526020600020905b81548152906001019060200180831161157157829003601f168201915b5050505050613e13565b156115ad576001826115aa9190614531565b91505b5b5b6124db565b60028160ff16101561197957611690838260ff16815181106115d9576115d86144a9565b5b602002602001015160048360ff16815481106115f8576115f76144a9565b5b90600052602060002001805461160d90614693565b80601f016020809104026020016040519081016040528092919081815260200182805461163990614693565b80156116865780601f1061165b57610100808354040283529160200191611686565b820191906000526020600020905b81548152906001019060200180831161166957829003601f168201915b5050505050613e13565b156116a9576005826116a29190614531565b9150611974565b611785836001836116ba91906146fc565b60ff16815181106116ce576116cd6144a9565b5b602002602001015160048360ff16815481106116ed576116ec6144a9565b5b90600052602060002001805461170290614693565b80601f016020809104026020016040519081016040528092919081815260200182805461172e90614693565b801561177b5780601f106117505761010080835404028352916020019161177b565b820191906000526020600020905b81548152906001019060200180831161175e57829003601f168201915b5050505050613e13565b8061186857506118678360018361179c91906146c5565b60ff16815181106117b0576117af6144a9565b5b602002602001015160048360ff16815481106117cf576117ce6144a9565b5b9060005260206000200180546117e490614693565b80601f016020809104026020016040519081016040528092919081815260200182805461181090614693565b801561185d5780601f106118325761010080835404028352916020019161185d565b820191906000526020600020905b81548152906001019060200180831161184057829003601f168201915b5050505050613e13565b5b156118815760038261187a9190614531565b9150611973565b61195d8360028361189291906146c5565b60ff16815181106118a6576118a56144a9565b5b602002602001015160048360ff16815481106118c5576118c46144a9565b5b9060005260206000200180546118da90614693565b80601f016020809104026020016040519081016040528092919081815260200182805461190690614693565b80156119535780601f1061192857610100808354040283529160200191611953565b820191906000526020600020905b81548152906001019060200180831161193657829003601f168201915b5050505050613e13565b156119725760018261196f9190614531565b91505b5b5b6124da565b600260048054905061198b9190614730565b8160ff161415611d4e57611a65838260ff16815181106119ae576119ad6144a9565b5b602002602001015160048360ff16815481106119cd576119cc6144a9565b5b9060005260206000200180546119e290614693565b80601f0160208091040260200160405190810160405280929190818152602001828054611a0e90614693565b8015611a5b5780601f10611a3057610100808354040283529160200191611a5b565b820191906000526020600020905b815481529060010190602001808311611a3e57829003601f168201915b5050505050613e13565b15611a7e57600582611a779190614531565b9150611d49565b611b5a83600183611a8f91906146fc565b60ff1681518110611aa357611aa26144a9565b5b602002602001015160048360ff1681548110611ac257611ac16144a9565b5b906000526020600020018054611ad790614693565b80601f0160208091040260200160405190810160405280929190818152602001828054611b0390614693565b8015611b505780601f10611b2557610100808354040283529160200191611b50565b820191906000526020600020905b815481529060010190602001808311611b3357829003601f168201915b5050505050613e13565b80611c3d5750611c3c83600183611b7191906146c5565b60ff1681518110611b8557611b846144a9565b5b602002602001015160048360ff1681548110611ba457611ba36144a9565b5b906000526020600020018054611bb990614693565b80601f0160208091040260200160405190810160405280929190818152602001828054611be590614693565b8015611c325780601f10611c0757610100808354040283529160200191611c32565b820191906000526020600020905b815481529060010190602001808311611c1557829003601f168201915b5050505050613e13565b5b15611c5657600382611c4f9190614531565b9150611d48565b611d3283600283611c6791906146fc565b60ff1681518110611c7b57611c7a6144a9565b5b602002602001015160048360ff1681548110611c9a57611c996144a9565b5b906000526020600020018054611caf90614693565b80601f0160208091040260200160405190810160405280929190818152602001828054611cdb90614693565b8015611d285780601f10611cfd57610100808354040283529160200191611d28565b820191906000526020600020905b815481529060010190602001808311611d0b57829003601f168201915b5050505050613e13565b15611d4757600182611d449190614531565b91505b5b5b6124d9565b6001600480549050611d609190614730565b8160ff16141561204057611e3a838260ff1681518110611d8357611d826144a9565b5b602002602001015160048360ff1681548110611da257611da16144a9565b5b906000526020600020018054611db790614693565b80601f0160208091040260200160405190810160405280929190818152602001828054611de390614693565b8015611e305780601f10611e0557610100808354040283529160200191611e30565b820191906000526020600020905b815481529060010190602001808311611e1357829003601f168201915b5050505050613e13565b15611e5357600582611e4c9190614531565b915061203b565b611f2f83600183611e6491906146fc565b60ff1681518110611e7857611e776144a9565b5b602002602001015160048360ff1681548110611e9757611e966144a9565b5b906000526020600020018054611eac90614693565b80601f0160208091040260200160405190810160405280929190818152602001828054611ed890614693565b8015611f255780601f10611efa57610100808354040283529160200191611f25565b820191906000526020600020905b815481529060010190602001808311611f0857829003601f168201915b5050505050613e13565b15611f4857600382611f419190614531565b915061203a565b61202483600283611f5991906146fc565b60ff1681518110611f6d57611f6c6144a9565b5b602002602001015160048360ff1681548110611f8c57611f8b6144a9565b5b906000526020600020018054611fa190614693565b80601f0160208091040260200160405190810160405280929190818152602001828054611fcd90614693565b801561201a5780601f10611fef5761010080835404028352916020019161201a565b820191906000526020600020905b815481529060010190602001808311611ffd57829003601f168201915b5050505050613e13565b15612039576001826120369190614531565b91505b5b5b6124d8565b612110838260ff1681518110612059576120586144a9565b5b602002602001015160048360ff1681548110612078576120776144a9565b5b90600052602060002001805461208d90614693565b80601f01602080910402602001604051908101604052809291908181526020018280546120b990614693565b80156121065780601f106120db57610100808354040283529160200191612106565b820191906000526020600020905b8154815290600101906020018083116120e957829003601f168201915b5050505050613e13565b15612129576005826121229190614531565b91506124d7565b6122058360018361213a91906146fc565b60ff168151811061214e5761214d6144a9565b5b602002602001015160048360ff168154811061216d5761216c6144a9565b5b90600052602060002001805461218290614693565b80601f01602080910402602001604051908101604052809291908181526020018280546121ae90614693565b80156121fb5780601f106121d0576101008083540402835291602001916121fb565b820191906000526020600020905b8154815290600101906020018083116121de57829003601f168201915b5050505050613e13565b806122e857506122e78360018361221c91906146c5565b60ff16815181106122305761222f6144a9565b5b602002602001015160048360ff168154811061224f5761224e6144a9565b5b90600052602060002001805461226490614693565b80601f016020809104026020016040519081016040528092919081815260200182805461229090614693565b80156122dd5780601f106122b2576101008083540402835291602001916122dd565b820191906000526020600020905b8154815290600101906020018083116122c057829003601f168201915b5050505050613e13565b5b15612301576003826122fa9190614531565b91506124d6565b6123dd8360028361231291906146fc565b60ff1681518110612326576123256144a9565b5b602002602001015160048360ff1681548110612345576123446144a9565b5b90600052602060002001805461235a90614693565b80601f016020809104026020016040519081016040528092919081815260200182805461238690614693565b80156123d35780601f106123a8576101008083540402835291602001916123d3565b820191906000526020600020905b8154815290600101906020018083116123b657829003601f168201915b5050505050613e13565b806124c057506124bf836002836123f491906146c5565b60ff1681518110612408576124076144a9565b5b602002602001015160048360ff1681548110612427576124266144a9565b5b90600052602060002001805461243c90614693565b80601f016020809104026020016040519081016040528092919081815260200182805461246890614693565b80156124b55780601f1061248a576101008083540402835291602001916124b5565b820191906000526020600020905b81548152906001019060200180831161249857829003601f168201915b5050505050613e13565b5b156124d5576001826124d29190614531565b91505b5b5b5b5b5b5b80806124e690614507565b9150506112c2565b508060008060018660ff168154811061250a576125096144a9565b5b9060005260206000200160009054906101000a900473ffffffffffffffffffffffffffffffffffffffff1673ffffffffffffffffffffffffffffffffffffffff1673ffffffffffffffffffffffffffffffffffffffff168152602001908152602001600020600301819055505050808061258390614507565b915050611158565b50565b60005b6001805490508160ff1610156139c457600080600060018460ff16815481106125bd576125bc6144a9565b5b9060005260206000200160009054906101000a900473ffffffffffffffffffffffffffffffffffffffff1673ffffffffffffffffffffffffffffffffffffffff1673ffffffffffffffffffffffffffffffffffffffff168152602001908152602001600020600101805480602002602001604051908101604052809291908181526020016000905b828210156126f157838290600052602060002001805461266490614693565b80601f016020809104026020016040519081016040528092919081815260200182805461269090614693565b80156126dd5780601f106126b2576101008083540402835291602001916126dd565b820191906000526020600020905b8154815290600101906020018083116126c057829003601f168201915b505050505081526020019060010190612645565b5050505090506000805b6005805490508160ff1610156139275760018160ff1610156129ed576127e7838260ff16815181106127305761272f6144a9565b5b602002602001015160058360ff168154811061274f5761274e6144a9565b5b90600052602060002001805461276490614693565b80601f016020809104026020016040519081016040528092919081815260200182805461279090614693565b80156127dd5780601f106127b2576101008083540402835291602001916127dd565b820191906000526020600020905b8154815290600101906020018083116127c057829003601f168201915b5050505050613e13565b15612800576005826127f99190614531565b91506129e8565b6128dc8360018361281191906146c5565b60ff1681518110612825576128246144a9565b5b602002602001015160058360ff1681548110612844576128436144a9565b5b90600052602060002001805461285990614693565b80601f016020809104026020016040519081016040528092919081815260200182805461288590614693565b80156128d25780601f106128a7576101008083540402835291602001916128d2565b820191906000526020600020905b8154815290600101906020018083116128b557829003601f168201915b5050505050613e13565b156128f5576003826128ee9190614531565b91506129e7565b6129d18360028361290691906146c5565b60ff168151811061291a576129196144a9565b5b602002602001015160058360ff1681548110612939576129386144a9565b5b90600052602060002001805461294e90614693565b80601f016020809104026020016040519081016040528092919081815260200182805461297a90614693565b80156129c75780601f1061299c576101008083540402835291602001916129c7565b820191906000526020600020905b8154815290600101906020018083116129aa57829003601f168201915b5050505050613e13565b156129e6576001826129e39190614531565b91505b5b5b613914565b60028160ff161015612db257612ac9838260ff1681518110612a1257612a116144a9565b5b602002602001015160058360ff1681548110612a3157612a306144a9565b5b906000526020600020018054612a4690614693565b80601f0160208091040260200160405190810160405280929190818152602001828054612a7290614693565b8015612abf5780601f10612a9457610100808354040283529160200191612abf565b820191906000526020600020905b815481529060010190602001808311612aa257829003601f168201915b5050505050613e13565b15612ae257600582612adb9190614531565b9150612dad565b612bbe83600183612af391906146fc565b60ff1681518110612b0757612b066144a9565b5b602002602001015160058360ff1681548110612b2657612b256144a9565b5b906000526020600020018054612b3b90614693565b80601f0160208091040260200160405190810160405280929190818152602001828054612b6790614693565b8015612bb45780601f10612b8957610100808354040283529160200191612bb4565b820191906000526020600020905b815481529060010190602001808311612b9757829003601f168201915b5050505050613e13565b80612ca15750612ca083600183612bd591906146c5565b60ff1681518110612be957612be86144a9565b5b602002602001015160058360ff1681548110612c0857612c076144a9565b5b906000526020600020018054612c1d90614693565b80601f0160208091040260200160405190810160405280929190818152602001828054612c4990614693565b8015612c965780601f10612c6b57610100808354040283529160200191612c96565b820191906000526020600020905b815481529060010190602001808311612c7957829003601f168201915b5050505050613e13565b5b15612cba57600382612cb39190614531565b9150612dac565b612d9683600283612ccb91906146c5565b60ff1681518110612cdf57612cde6144a9565b5b602002602001015160058360ff1681548110612cfe57612cfd6144a9565b5b906000526020600020018054612d1390614693565b80601f0160208091040260200160405190810160405280929190818152602001828054612d3f90614693565b8015612d8c5780601f10612d6157610100808354040283529160200191612d8c565b820191906000526020600020905b815481529060010190602001808311612d6f57829003601f168201915b5050505050613e13565b15612dab57600182612da89190614531565b91505b5b5b613913565b6002600580549050612dc49190614730565b8160ff16141561318757612e9e838260ff1681518110612de757612de66144a9565b5b602002602001015160058360ff1681548110612e0657612e056144a9565b5b906000526020600020018054612e1b90614693565b80601f0160208091040260200160405190810160405280929190818152602001828054612e4790614693565b8015612e945780601f10612e6957610100808354040283529160200191612e94565b820191906000526020600020905b815481529060010190602001808311612e7757829003601f168201915b5050505050613e13565b15612eb757600582612eb09190614531565b9150613182565b612f9383600183612ec891906146fc565b60ff1681518110612edc57612edb6144a9565b5b602002602001015160058360ff1681548110612efb57612efa6144a9565b5b906000526020600020018054612f1090614693565b80601f0160208091040260200160405190810160405280929190818152602001828054612f3c90614693565b8015612f895780601f10612f5e57610100808354040283529160200191612f89565b820191906000526020600020905b815481529060010190602001808311612f6c57829003601f168201915b5050505050613e13565b80613076575061307583600183612faa91906146c5565b60ff1681518110612fbe57612fbd6144a9565b5b602002602001015160058360ff1681548110612fdd57612fdc6144a9565b5b906000526020600020018054612ff290614693565b80601f016020809104026020016040519081016040528092919081815260200182805461301e90614693565b801561306b5780601f106130405761010080835404028352916020019161306b565b820191906000526020600020905b81548152906001019060200180831161304e57829003601f168201915b5050505050613e13565b5b1561308f576003826130889190614531565b9150613181565b61316b836002836130a091906146fc565b60ff16815181106130b4576130b36144a9565b5b602002602001015160058360ff16815481106130d3576130d26144a9565b5b9060005260206000200180546130e890614693565b80601f016020809104026020016040519081016040528092919081815260200182805461311490614693565b80156131615780601f1061313657610100808354040283529160200191613161565b820191906000526020600020905b81548152906001019060200180831161314457829003601f168201915b5050505050613e13565b156131805760018261317d9190614531565b91505b5b5b613912565b60016005805490506131999190614730565b8160ff16141561347957613273838260ff16815181106131bc576131bb6144a9565b5b602002602001015160058360ff16815481106131db576131da6144a9565b5b9060005260206000200180546131f090614693565b80601f016020809104026020016040519081016040528092919081815260200182805461321c90614693565b80156132695780601f1061323e57610100808354040283529160200191613269565b820191906000526020600020905b81548152906001019060200180831161324c57829003601f168201915b5050505050613e13565b1561328c576005826132859190614531565b9150613474565b6133688360018361329d91906146fc565b60ff16815181106132b1576132b06144a9565b5b602002602001015160058360ff16815481106132d0576132cf6144a9565b5b9060005260206000200180546132e590614693565b80601f016020809104026020016040519081016040528092919081815260200182805461331190614693565b801561335e5780601f106133335761010080835404028352916020019161335e565b820191906000526020600020905b81548152906001019060200180831161334157829003601f168201915b5050505050613e13565b156133815760038261337a9190614531565b9150613473565b61345d8360028361339291906146fc565b60ff16815181106133a6576133a56144a9565b5b602002602001015160058360ff16815481106133c5576133c46144a9565b5b9060005260206000200180546133da90614693565b80601f016020809104026020016040519081016040528092919081815260200182805461340690614693565b80156134535780601f1061342857610100808354040283529160200191613453565b820191906000526020600020905b81548152906001019060200180831161343657829003601f168201915b5050505050613e13565b156134725760018261346f9190614531565b91505b5b5b613911565b613549838260ff1681518110613492576134916144a9565b5b602002602001015160058360ff16815481106134b1576134b06144a9565b5b9060005260206000200180546134c690614693565b80601f01602080910402602001604051908101604052809291908181526020018280546134f290614693565b801561353f5780601f106135145761010080835404028352916020019161353f565b820191906000526020600020905b81548152906001019060200180831161352257829003601f168201915b5050505050613e13565b156135625760058261355b9190614531565b9150613910565b61363e8360018361357391906146fc565b60ff1681518110613587576135866144a9565b5b602002602001015160058360ff16815481106135a6576135a56144a9565b5b9060005260206000200180546135bb90614693565b80601f01602080910402602001604051908101604052809291908181526020018280546135e790614693565b80156136345780601f1061360957610100808354040283529160200191613634565b820191906000526020600020905b81548152906001019060200180831161361757829003601f168201915b5050505050613e13565b8061372157506137208360018361365591906146c5565b60ff1681518110613669576136686144a9565b5b602002602001015160058360ff1681548110613688576136876144a9565b5b90600052602060002001805461369d90614693565b80601f01602080910402602001604051908101604052809291908181526020018280546136c990614693565b80156137165780601f106136eb57610100808354040283529160200191613716565b820191906000526020600020905b8154815290600101906020018083116136f957829003601f168201915b5050505050613e13565b5b1561373a576003826137339190614531565b915061390f565b6138168360028361374b91906146fc565b60ff168151811061375f5761375e6144a9565b5b602002602001015160058360ff168154811061377e5761377d6144a9565b5b90600052602060002001805461379390614693565b80601f01602080910402602001604051908101604052809291908181526020018280546137bf90614693565b801561380c5780601f106137e15761010080835404028352916020019161380c565b820191906000526020600020905b8154815290600101906020018083116137ef57829003601f168201915b5050505050613e13565b806138f957506138f88360028361382d91906146c5565b60ff1681518110613841576138406144a9565b5b602002602001015160058360ff16815481106138605761385f6144a9565b5b90600052602060002001805461387590614693565b80601f01602080910402602001604051908101604052809291908181526020018280546138a190614693565b80156138ee5780601f106138c3576101008083540402835291602001916138ee565b820191906000526020600020905b8154815290600101906020018083116138d157829003601f168201915b5050505050613e13565b5b1561390e5760018261390b9190614531565b91505b5b5b5b5b5b5b808061391f90614507565b9150506126fb565b508060008060018660ff1681548110613943576139426144a9565b5b9060005260206000200160009054906101000a900473ffffffffffffffffffffffffffffffffffffffff1673ffffffffffffffffffffffffffffffffffffffff1673ffffffffffffffffffffffffffffffffffffffff16815260200190815260200160002060040181905550505080806139bc90614507565b915050612591565b50565b60005b6001805490508160ff161015613b2857600080600060018460ff16815481106139f6576139f56144a9565b5b9060005260206000200160009054906101000a900473ffffffffffffffffffffffffffffffffffffffff1673ffffffffffffffffffffffffffffffffffffffff1673ffffffffffffffffffffffffffffffffffffffff16815260200190815260200160002060020160009054906101000a900460ff1690508060ff16600660009054906101000a900460ff1660ff161415613b1457600460008060018560ff1681548110613aa757613aa66144a9565b5b9060005260206000200160009054906101000a900473ffffffffffffffffffffffffffffffffffffffff1673ffffffffffffffffffffffffffffffffffffffff1673ffffffffffffffffffffffffffffffffffffffff168152602001908152602001600020600501819055505b508080613b2090614507565b9150506139ca565b50565b6000805b6001805490508160ff161015613e0f57600080600060018460ff1681548110613b5b57613b5a6144a9565b5b9060005260206000200160009054906101000a900473ffffffffffffffffffffffffffffffffffffffff1673ffffffffffffffffffffffffffffffffffffffff1673ffffffffffffffffffffffffffffffffffffffff1681526020019081526020016000206005015460008060018560ff1681548110613bde57613bdd6144a9565b5b9060005260206000200160009054906101000a900473ffffffffffffffffffffffffffffffffffffffff1673ffffffffffffffffffffffffffffffffffffffff1673ffffffffffffffffffffffffffffffffffffffff1681526020019081526020016000206004015460008060018660ff1681548110613c6157613c606144a9565b5b9060005260206000200160009054906101000a900473ffffffffffffffffffffffffffffffffffffffff1673ffffffffffffffffffffffffffffffffffffffff1673ffffffffffffffffffffffffffffffffffffffff16815260200190815260200160002060030154613cd49190614531565b613cde9190614531565b90508060008060018560ff1681548110613cfb57613cfa6144a9565b5b9060005260206000200160009054906101000a900473ffffffffffffffffffffffffffffffffffffffff1673ffffffffffffffffffffffffffffffffffffffff1673ffffffffffffffffffffffffffffffffffffffff1681526020019081526020016000206006018190555080831015613dfb57809250600060018360ff1681548110613d8b57613d8a6144a9565b5b9060005260206000200160009054906101000a900473ffffffffffffffffffffffffffffffffffffffff16905080600260006101000a81548173ffffffffffffffffffffffffffffffffffffffff021916908373ffffffffffffffffffffffffffffffffffffffff160217905550505b508080613e0790614507565b915050613b2f565b5050565b600081604051602001613e2691906147de565b6040516020818303038152906040528051906020012083604051602001613e4d91906147de565b604051602081830303815290604052805190602001201415613e725760019050613e77565b600090505b92915050565b828054828255906000526020600020908101928215613ecc579160200282015b82811115613ecb578251829080519060200190613ebb929190613edd565b5091602001919060010190613e9d565b5b509050613ed99190613f63565b5090565b828054613ee990614693565b90600052602060002090601f016020900481019282613f0b5760008555613f52565b82601f10613f2457805160ff1916838001178555613f52565b82800160010185558215613f52579182015b82811115613f51578251825591602001919060010190613f36565b5b509050613f5f9190613f87565b5090565b5b80821115613f835760008181613f7a9190613fa4565b50600101613f64565b5090565b5b80821115613fa0576000816000905550600101613f88565b5090565b508054613fb090614693565b6000825580601f10613fc25750613fe1565b601f016020900490600052602060002090810190613fe09190613f87565b5b50565b6000604051905090565b600080fd5b600080fd5b600080fd5b6000601f19601f8301169050919050565b7f4e487b7100000000000000000000000000000000000000000000000000000000600052604160045260246000fd5b61404682613ffd565b810181811067ffffffffffffffff821117156140655761406461400e565b5b80604052505050565b6000614078613fe4565b9050614084828261403d565b919050565b600067ffffffffffffffff8211156140a4576140a361400e565b5b602082029050602081019050919050565b600080fd5b600080fd5b600067ffffffffffffffff8211156140da576140d961400e565b5b6140e382613ffd565b9050602081019050919050565b82818337600083830152505050565b600061411261410d846140bf565b61406e565b90508281526020810184848401111561412e5761412d6140ba565b5b6141398482856140f0565b509392505050565b600082601f83011261415657614155613ff8565b5b81356141668482602086016140ff565b91505092915050565b600061418261417d84614089565b61406e565b905080838252602082019050602084028301858111156141a5576141a46140b5565b5b835b818110156141ec57803567ffffffffffffffff8111156141ca576141c9613ff8565b5b8086016141d78982614141565b855260208501945050506020810190506141a7565b5050509392505050565b600082601f83011261420b5761420a613ff8565b5b813561421b84826020860161416f565b91505092915050565b60006020828403121561423a57614239613fee565b5b600082013567ffffffffffffffff81111561425857614257613ff3565b5b614264848285016141f6565b91505092915050565b6000819050919050565b6142808161426d565b82525050565b600060208201905061429b6000830184614277565b92915050565b600073ffffffffffffffffffffffffffffffffffffffff82169050919050565b60006142cc826142a1565b9050919050565b6142dc816142c1565b82525050565b60006020820190506142f760008301846142d3565b92915050565b600060ff82169050919050565b614313816142fd565b811461431e57600080fd5b50565b6000813590506143308161430a565b92915050565b60006020828403121561434c5761434b613fee565b5b600061435a84828501614321565b91505092915050565b600081519050919050565b600082825260208201905092915050565b6000819050602082019050919050565b614398816142c1565b82525050565b60006143aa838361438f565b60208301905092915050565b6000602082019050919050565b60006143ce82614363565b6143d8818561436e565b93506143e38361437f565b8060005b838110156144145781516143fb888261439e565b9750614406836143b6565b9250506001810190506143e7565b5085935050505092915050565b6000602082019050818103600083015261443b81846143c3565b905092915050565b600061444e826142a1565b9050919050565b61445e81614443565b82525050565b60006020820190506144796000830184614455565b92915050565b614488816142fd565b82525050565b60006020820190506144a3600083018461447f565b92915050565b7f4e487b7100000000000000000000000000000000000000000000000000000000600052603260045260246000fd5b7f4e487b7100000000000000000000000000000000000000000000000000000000600052601160045260246000fd5b6000614512826142fd565b915060ff821415614526576145256144d8565b5b600182019050919050565b600061453c8261426d565b91506145478361426d565b9250827fffffffffffffffffffffffffffffffffffffffffffffffffffffffffffffffff0382111561457c5761457b6144d8565b5b828201905092915050565b7f4e487b7100000000000000000000000000000000000000000000000000000000600052601260045260246000fd5b60006145c18261426d565b91506145cc8361426d565b9250826145dc576145db614587565b5b828204905092915050565b600082825260208201905092915050565b7f436f6e74657374616e7420697320616c7261647920696e207468652062657400600082015250565b600061462e601f836145e7565b9150614639826145f8565b602082019050919050565b6000602082019050818103600083015261465d81614621565b9050919050565b7f4e487b7100000000000000000000000000000000000000000000000000000000600052602260045260246000fd5b600060028204905060018216806146ab57607f821691505b602082108114156146bf576146be614664565b5b50919050565b60006146d0826142fd565b91506146db836142fd565b92508260ff038211156146f1576146f06144d8565b5b828201905092915050565b6000614707826142fd565b9150614712836142fd565b925082821015614725576147246144d8565b5b828203905092915050565b600061473b8261426d565b91506147468361426d565b925082821015614759576147586144d8565b5b828203905092915050565b600081519050919050565b600081905092915050565b60005b8381101561479857808201518184015260208101905061477d565b838111156147a7576000848401525b50505050565b60006147b882614764565b6147c2818561476f565b93506147d281856020860161477a565b80840191505092915050565b60006147ea82846147ad565b91508190509291505056fea2646970667358221220eece20f85adddfc1c0df0a7185351b26b29c91603a1beff206ca78666ada464764736f6c634300080b0033","opcodes":"PUSH1 0x80 PUSH1 0x40 MSTORE CALLVALUE DUP1 ISZERO PUSH3 0x11 JUMPI PUSH1 0x0 DUP1 REVERT JUMPDEST POP PUSH1 0x40 MLOAD PUSH3 0x4933 CODESIZE SUB DUP1 PUSH3 0x4933 DUP4 CODECOPY DUP2 DUP2 ADD PUSH1 0x40 MSTORE DUP2 ADD SWAP1 PUSH3 0x37 SWAP2 SWAP1 PUSH3 0xC6 JUMP JUMPDEST CALLER PUSH1 0x6 PUSH1 0x1 PUSH2 0x100 EXP DUP2 SLOAD DUP2 PUSH20 0xFFFFFFFFFFFFFFFFFFFFFFFFFFFFFFFFFFFFFFFF MUL NOT AND SWAP1 DUP4 PUSH20 0xFFFFFFFFFFFFFFFFFFFFFFFFFFFFFFFFFFFFFFFF AND MUL OR SWAP1 SSTORE POP DUP1 PUSH1 0x7 DUP2 SWAP1 SSTORE POP POP PUSH3 0xF8 JUMP JUMPDEST PUSH1 0x0 DUP1 REVERT JUMPDEST PUSH1 0x0 DUP2 SWAP1 POP SWAP2 SWAP1 POP JUMP JUMPDEST PUSH3 0xA0 DUP2 PUSH3 0x8B JUMP JUMPDEST DUP2 EQ PUSH3 0xAC JUMPI PUSH1 0x0 DUP1 REVERT JUMPDEST POP JUMP JUMPDEST PUSH1 0x0 DUP2 MLOAD SWAP1 POP PUSH3 0xC0 DUP2 PUSH3 0x95 JUMP JUMPDEST SWAP3 SWAP2 POP POP JUMP JUMPDEST PUSH1 0x0 PUSH1 0x20 DUP3 DUP5 SUB SLT ISZERO PUSH3 0xDF JUMPI PUSH3 0xDE PUSH3 0x86 JUMP JUMPDEST JUMPDEST PUSH1 0x0 PUSH3 0xEF DUP5 DUP3 DUP6 ADD PUSH3 0xAF JUMP JUMPDEST SWAP2 POP POP SWAP3 SWAP2 POP POP JUMP JUMPDEST PUSH2 0x482B DUP1 PUSH3 0x108 PUSH1 0x0 CODECOPY PUSH1 0x0 RETURN INVALID PUSH1 0x80 PUSH1 0x40 MSTORE PUSH1 0x4 CALLDATASIZE LT PUSH2 0x109 JUMPI PUSH1 0x0 CALLDATALOAD PUSH1 0xE0 SHR DUP1 PUSH4 0x7F36EA24 GT PUSH2 0x95 JUMPI DUP1 PUSH4 0xC10196FA GT PUSH2 0x64 JUMPI DUP1 PUSH4 0xC10196FA EQ PUSH2 0x2DD JUMPI DUP1 PUSH4 0xC8FE2134 EQ PUSH2 0x308 JUMPI DUP1 PUSH4 0xDFBF53AE EQ PUSH2 0x331 JUMPI DUP1 PUSH4 0xEF9884E4 EQ PUSH2 0x35C JUMPI DUP1 PUSH4 0xF1D78C84 EQ PUSH2 0x387 JUMPI PUSH2 0x109 JUMP JUMPDEST DUP1 PUSH4 0x7F36EA24 EQ PUSH2 0x275 JUMPI DUP1 PUSH4 0xA388D1CD EQ PUSH2 0x27F JUMPI DUP1 PUSH4 0xB12038F4 EQ PUSH2 0x2AA JUMPI DUP1 PUSH4 0xBB427D8A EQ PUSH2 0x2D3 JUMPI PUSH2 0x109 JUMP JUMPDEST DUP1 PUSH4 0x481C6A75 GT PUSH2 0xDC JUMPI DUP1 PUSH4 0x481C6A75 EQ PUSH2 0x1A4 JUMPI DUP1 PUSH4 0x55DB72EA EQ PUSH2 0x1CF JUMPI DUP1 PUSH4 0x65046E8C EQ PUSH2 0x1F8 JUMPI DUP1 PUSH4 0x77BC91F5 EQ PUSH2 0x221 JUMPI DUP1 PUSH4 0x7AF448F2 EQ PUSH2 0x24A JUMPI PUSH2 0x109 JUMP JUMPDEST DUP1 PUSH4 0x9221B3A EQ PUSH2 0x10E JUMPI DUP1 PUSH4 0x96C705D EQ PUSH2 0x137 JUMPI DUP1 PUSH4 0x11610C25 EQ PUSH2 0x162 JUMPI DUP1 PUSH4 0x2CCB0D1E EQ PUSH2 0x18D JUMPI JUMPDEST PUSH1 0x0 DUP1 REVERT JUMPDEST CALLVALUE DUP1 ISZERO PUSH2 0x11A JUMPI PUSH1 0x0 DUP1 REVERT JUMPDEST POP PUSH2 0x135 PUSH1 0x4 DUP1 CALLDATASIZE SUB DUP2 ADD SWAP1 PUSH2 0x130 SWAP2 SWAP1 PUSH2 0x4224 JUMP JUMPDEST PUSH2 0x3B2 JUMP JUMPDEST STOP JUMPDEST CALLVALUE DUP1 ISZERO PUSH2 0x143 JUMPI PUSH1 0x0 DUP1 REVERT JUMPDEST POP PUSH2 0x14C PUSH2 0x4C8 JUMP JUMPDEST PUSH1 0x40 MLOAD PUSH2 0x159 SWAP2 SWAP1 PUSH2 0x4286 JUMP JUMPDEST PUSH1 0x40 MLOAD DUP1 SWAP2 SUB SWAP1 RETURN JUMPDEST CALLVALUE DUP1 ISZERO PUSH2 0x16E JUMPI PUSH1 0x0 DUP1 REVERT JUMPDEST POP PUSH2 0x177 PUSH2 0x5BC JUMP JUMPDEST PUSH1 0x40 MLOAD PUSH2 0x184 SWAP2 SWAP1 PUSH2 0x4286 JUMP JUMPDEST PUSH1 0x40 MLOAD DUP1 SWAP2 SUB SWAP1 RETURN JUMPDEST CALLVALUE DUP1 ISZERO PUSH2 0x199 JUMPI PUSH1 0x0 DUP1 REVERT JUMPDEST POP PUSH2 0x1A2 PUSH2 0x5C2 JUMP JUMPDEST STOP JUMPDEST CALLVALUE DUP1 ISZERO PUSH2 0x1B0 JUMPI PUSH1 0x0 DUP1 REVERT JUMPDEST POP PUSH2 0x1B9 PUSH2 0x693 JUMP JUMPDEST PUSH1 0x40 MLOAD PUSH2 0x1C6 SWAP2 SWAP1 PUSH2 0x42E2 JUMP JUMPDEST PUSH1 0x40 MLOAD DUP1 SWAP2 SUB SWAP1 RETURN JUMPDEST CALLVALUE DUP1 ISZERO PUSH2 0x1DB JUMPI PUSH1 0x0 DUP1 REVERT JUMPDEST POP PUSH2 0x1F6 PUSH1 0x4 DUP1 CALLDATASIZE SUB DUP2 ADD SWAP1 PUSH2 0x1F1 SWAP2 SWAP1 PUSH2 0x4336 JUMP JUMPDEST PUSH2 0x6B9 JUMP JUMPDEST STOP JUMPDEST CALLVALUE DUP1 ISZERO PUSH2 0x204 JUMPI PUSH1 0x0 DUP1 REVERT JUMPDEST POP PUSH2 0x21F PUSH1 0x4 DUP1 CALLDATASIZE SUB DUP2 ADD SWAP1 PUSH2 0x21A SWAP2 SWAP1 PUSH2 0x4224 JUMP JUMPDEST PUSH2 0x731 JUMP JUMPDEST STOP JUMPDEST CALLVALUE DUP1 ISZERO PUSH2 0x22D JUMPI PUSH1 0x0 DUP1 REVERT JUMPDEST POP PUSH2 0x248 PUSH1 0x4 DUP1 CALLDATASIZE SUB DUP2 ADD SWAP1 PUSH2 0x243 SWAP2 SWAP1 PUSH2 0x4336 JUMP JUMPDEST PUSH2 0x7A5 JUMP JUMPDEST STOP JUMPDEST CALLVALUE DUP1 ISZERO PUSH2 0x256 JUMPI PUSH1 0x0 DUP1 REVERT JUMPDEST POP PUSH2 0x25F PUSH2 0x8C2 JUMP JUMPDEST PUSH1 0x40 MLOAD PUSH2 0x26C SWAP2 SWAP1 PUSH2 0x4286 JUMP JUMPDEST PUSH1 0x40 MLOAD DUP1 SWAP2 SUB SWAP1 RETURN JUMPDEST PUSH2 0x27D PUSH2 0x9B6 JUMP JUMPDEST STOP JUMPDEST CALLVALUE DUP1 ISZERO PUSH2 0x28B JUMPI PUSH1 0x0 DUP1 REVERT JUMPDEST POP PUSH2 0x294 PUSH2 0xBBB JUMP JUMPDEST PUSH1 0x40 MLOAD PUSH2 0x2A1 SWAP2 SWAP1 PUSH2 0x4286 JUMP JUMPDEST PUSH1 0x40 MLOAD DUP1 SWAP2 SUB SWAP1 RETURN JUMPDEST CALLVALUE DUP1 ISZERO PUSH2 0x2B6 JUMPI PUSH1 0x0 DUP1 REVERT JUMPDEST POP PUSH2 0x2D1 PUSH1 0x4 DUP1 CALLDATASIZE SUB DUP2 ADD SWAP1 PUSH2 0x2CC SWAP2 SWAP1 PUSH2 0x4224 JUMP JUMPDEST PUSH2 0xCAF JUMP JUMPDEST STOP JUMPDEST PUSH2 0x2DB PUSH2 0xDC5 JUMP JUMPDEST STOP JUMPDEST CALLVALUE DUP1 ISZERO PUSH2 0x2E9 JUMPI PUSH1 0x0 DUP1 REVERT JUMPDEST POP PUSH2 0x2F2 PUSH2 0xF26 JUMP JUMPDEST PUSH1 0x40 MLOAD PUSH2 0x2FF SWAP2 SWAP1 PUSH2 0x4421 JUMP JUMPDEST PUSH1 0x40 MLOAD DUP1 SWAP2 SUB SWAP1 RETURN JUMPDEST CALLVALUE DUP1 ISZERO PUSH2 0x314 JUMPI PUSH1 0x0 DUP1 REVERT JUMPDEST POP PUSH2 0x32F PUSH1 0x4 DUP1 CALLDATASIZE SUB DUP2 ADD SWAP1 PUSH2 0x32A SWAP2 SWAP1 PUSH2 0x4224 JUMP JUMPDEST PUSH2 0xFB4 JUMP JUMPDEST STOP JUMPDEST CALLVALUE DUP1 ISZERO PUSH2 0x33D JUMPI PUSH1 0x0 DUP1 REVERT JUMPDEST POP PUSH2 0x346 PUSH2 0x1028 JUMP JUMPDEST PUSH1 0x40 MLOAD PUSH2 0x353 SWAP2 SWAP1 PUSH2 0x4464 JUMP JUMPDEST PUSH1 0x40 MLOAD DUP1 SWAP2 SUB SWAP1 RETURN JUMPDEST CALLVALUE DUP1 ISZERO PUSH2 0x368 JUMPI PUSH1 0x0 DUP1 REVERT JUMPDEST POP PUSH2 0x371 PUSH2 0x104E JUMP JUMPDEST PUSH1 0x40 MLOAD PUSH2 0x37E SWAP2 SWAP1 PUSH2 0x4286 JUMP JUMPDEST PUSH1 0x40 MLOAD DUP1 SWAP2 SUB SWAP1 RETURN JUMPDEST CALLVALUE DUP1 ISZERO PUSH2 0x393 JUMPI PUSH1 0x0 DUP1 REVERT JUMPDEST POP PUSH2 0x39C PUSH2 0x1142 JUMP JUMPDEST PUSH1 0x40 MLOAD PUSH2 0x3A9 SWAP2 SWAP1 PUSH2 0x448E JUMP JUMPDEST PUSH1 0x40 MLOAD DUP1 SWAP2 SUB SWAP1 RETURN JUMPDEST PUSH1 0x0 DUP1 PUSH1 0x0 SWAP1 POP JUMPDEST PUSH1 0x1 DUP1 SLOAD SWAP1 POP DUP2 PUSH1 0xFF AND LT ISZERO PUSH2 0x455 JUMPI CALLER PUSH20 0xFFFFFFFFFFFFFFFFFFFFFFFFFFFFFFFFFFFFFFFF AND PUSH1 0x1 DUP3 PUSH1 0xFF AND DUP2 SLOAD DUP2 LT PUSH2 0x3F8 JUMPI PUSH2 0x3F7 PUSH2 0x44A9 JUMP JUMPDEST JUMPDEST SWAP1 PUSH1 0x0 MSTORE PUSH1 0x20 PUSH1 0x0 KECCAK256 ADD PUSH1 0x0 SWAP1 SLOAD SWAP1 PUSH2 0x100 EXP SWAP1 DIV PUSH20 0xFFFFFFFFFFFFFFFFFFFFFFFFFFFFFFFFFFFFFFFF AND PUSH20 0xFFFFFFFFFFFFFFFFFFFFFFFFFFFFFFFFFFFFFFFF AND EQ ISZERO PUSH2 0x444 JUMPI PUSH1 0x1 SWAP2 POP JUMPDEST DUP1 PUSH2 0x44E SWAP1 PUSH2 0x4507 JUMP JUMPDEST SWAP1 POP PUSH2 0x3BA JUMP JUMPDEST POP DUP1 PUSH2 0x460 JUMPI PUSH1 0x0 DUP1 REVERT JUMPDEST PUSH1 0xA DUP3 MLOAD EQ PUSH2 0x46E JUMPI PUSH1 0x0 DUP1 REVERT JUMPDEST DUP2 PUSH1 0x0 DUP1 CALLER PUSH20 0xFFFFFFFFFFFFFFFFFFFFFFFFFFFFFFFFFFFFFFFF AND PUSH20 0xFFFFFFFFFFFFFFFFFFFFFFFFFFFFFFFFFFFFFFFF AND DUP2 MSTORE PUSH1 0x20 ADD SWAP1 DUP2 MSTORE PUSH1 0x20 ADD PUSH1 0x0 KECCAK256 PUSH1 0x0 ADD SWAP1 DUP1 MLOAD SWAP1 PUSH1 0x20 ADD SWAP1 PUSH2 0x4C3 SWAP3 SWAP2 SWAP1 PUSH2 0x3E7D JUMP JUMPDEST POP POP POP JUMP JUMPDEST PUSH1 0x0 DUP1 PUSH1 0x0 JUMPDEST PUSH1 0x1 DUP1 SLOAD SWAP1 POP DUP2 PUSH1 0xFF AND LT ISZERO PUSH2 0x569 JUMPI CALLER PUSH20 0xFFFFFFFFFFFFFFFFFFFFFFFFFFFFFFFFFFFFFFFF AND PUSH1 0x1 DUP3 PUSH1 0xFF AND DUP2 SLOAD DUP2 LT PUSH2 0x50C JUMPI PUSH2 0x50B PUSH2 0x44A9 JUMP JUMPDEST JUMPDEST SWAP1 PUSH1 0x0 MSTORE PUSH1 0x20 PUSH1 0x0 KECCAK256 ADD PUSH1 0x0 SWAP1 SLOAD SWAP1 PUSH2 0x100 EXP SWAP1 DIV PUSH20 0xFFFFFFFFFFFFFFFFFFFFFFFFFFFFFFFFFFFFFFFF AND PUSH20 0xFFFFFFFFFFFFFFFFFFFFFFFFFFFFFFFFFFFFFFFF AND EQ ISZERO PUSH2 0x558 JUMPI PUSH1 0x1 SWAP2 POP JUMPDEST DUP1 PUSH2 0x562 SWAP1 PUSH2 0x4507 JUMP JUMPDEST SWAP1 POP PUSH2 0x4CE JUMP JUMPDEST POP DUP1 PUSH2 0x574 JUMPI PUSH1 0x0 DUP1 REVERT JUMPDEST PUSH1 0x0 DUP1 CALLER PUSH20 0xFFFFFFFFFFFFFFFFFFFFFFFFFFFFFFFFFFFFFFFF AND PUSH20 0xFFFFFFFFFFFFFFFFFFFFFFFFFFFFFFFFFFFFFFFF AND DUP2 MSTORE PUSH1 0x20 ADD SWAP1 DUP2 MSTORE PUSH1 0x20 ADD PUSH1 0x0 KECCAK256 PUSH1 0x4 ADD SLOAD SWAP2 POP POP SWAP1 JUMP JUMPDEST PUSH1 0x7 SLOAD DUP2 JUMP JUMPDEST PUSH1 0x0 DUP1 PUSH1 0x0 SWAP1 POP JUMPDEST PUSH1 0x1 DUP1 SLOAD SWAP1 POP DUP2 PUSH1 0xFF AND LT ISZERO PUSH2 0x665 JUMPI CALLER PUSH20 0xFFFFFFFFFFFFFFFFFFFFFFFFFFFFFFFFFFFFFFFF AND PUSH1 0x1 DUP3 PUSH1 0xFF AND DUP2 SLOAD DUP2 LT PUSH2 0x608 JUMPI PUSH2 0x607 PUSH2 0x44A9 JUMP JUMPDEST JUMPDEST SWAP1 PUSH1 0x0 MSTORE PUSH1 0x20 PUSH1 0x0 KECCAK256 ADD PUSH1 0x0 SWAP1 SLOAD SWAP1 PUSH2 0x100 EXP SWAP1 DIV PUSH20 0xFFFFFFFFFFFFFFFFFFFFFFFFFFFFFFFFFFFFFFFF AND PUSH20 0xFFFFFFFFFFFFFFFFFFFFFFFFFFFFFFFFFFFFFFFF AND EQ ISZERO PUSH2 0x654 JUMPI PUSH1 0x1 SWAP2 POP JUMPDEST DUP1 PUSH2 0x65E SWAP1 PUSH2 0x4507 JUMP JUMPDEST SWAP1 POP PUSH2 0x5CA JUMP JUMPDEST POP DUP1 PUSH2 0x670 JUMPI PUSH1 0x0 DUP1 REVERT JUMPDEST PUSH2 0x678 PUSH2 0x1155 JUMP JUMPDEST PUSH2 0x680 PUSH2 0x258E JUMP JUMPDEST PUSH2 0x688 PUSH2 0x39C7 JUMP JUMPDEST PUSH2 0x690 PUSH2 0x3B2B JUMP JUMPDEST POP JUMP JUMPDEST PUSH1 0x6 PUSH1 0x1 SWAP1 SLOAD SWAP1 PUSH2 0x100 EXP SWAP1 DIV PUSH20 0xFFFFFFFFFFFFFFFFFFFFFFFFFFFFFFFFFFFFFFFF AND DUP2 JUMP JUMPDEST PUSH1 0x6 PUSH1 0x1 SWAP1 SLOAD SWAP1 PUSH2 0x100 EXP SWAP1 DIV PUSH20 0xFFFFFFFFFFFFFFFFFFFFFFFFFFFFFFFFFFFFFFFF AND PUSH20 0xFFFFFFFFFFFFFFFFFFFFFFFFFFFFFFFFFFFFFFFF AND CALLER PUSH20 0xFFFFFFFFFFFFFFFFFFFFFFFFFFFFFFFFFFFFFFFF AND EQ PUSH2 0x713 JUMPI PUSH1 0x0 DUP1 REVERT JUMPDEST DUP1 PUSH1 0x6 PUSH1 0x0 PUSH2 0x100 EXP DUP2 SLOAD DUP2 PUSH1 0xFF MUL NOT AND SWAP1 DUP4 PUSH1 0xFF AND MUL OR SWAP1 SSTORE POP POP JUMP JUMPDEST PUSH1 0x6 PUSH1 0x1 SWAP1 SLOAD SWAP1 PUSH2 0x100 EXP SWAP1 DIV PUSH20 0xFFFFFFFFFFFFFFFFFFFFFFFFFFFFFFFFFFFFFFFF AND PUSH20 0xFFFFFFFFFFFFFFFFFFFFFFFFFFFFFFFFFFFFFFFF AND CALLER PUSH20 0xFFFFFFFFFFFFFFFFFFFFFFFFFFFFFFFFFFFFFFFF AND EQ PUSH2 0x78B JUMPI PUSH1 0x0 DUP1 REVERT JUMPDEST DUP1 PUSH1 0x5 SWAP1 DUP1 MLOAD SWAP1 PUSH1 0x20 ADD SWAP1 PUSH2 0x7A1 SWAP3 SWAP2 SWAP1 PUSH2 0x3E7D JUMP JUMPDEST POP POP JUMP JUMPDEST PUSH1 0x0 DUP1 PUSH1 0x0 SWAP1 POP JUMPDEST PUSH1 0x1 DUP1 SLOAD SWAP1 POP DUP2 PUSH1 0xFF AND LT ISZERO PUSH2 0x848 JUMPI CALLER PUSH20 0xFFFFFFFFFFFFFFFFFFFFFFFFFFFFFFFFFFFFFFFF AND PUSH1 0x1 DUP3 PUSH1 0xFF AND DUP2 SLOAD DUP2 LT PUSH2 0x7EB JUMPI PUSH2 0x7EA PUSH2 0x44A9 JUMP JUMPDEST JUMPDEST SWAP1 PUSH1 0x0 MSTORE PUSH1 0x20 PUSH1 0x0 KECCAK256 ADD PUSH1 0x0 SWAP1 SLOAD SWAP1 PUSH2 0x100 EXP SWAP1 DIV PUSH20 0xFFFFFFFFFFFFFFFFFFFFFFFFFFFFFFFFFFFFFFFF AND PUSH20 0xFFFFFFFFFFFFFFFFFFFFFFFFFFFFFFFFFFFFFFFF AND EQ ISZERO PUSH2 0x837 JUMPI PUSH1 0x1 SWAP2 POP JUMPDEST DUP1 PUSH2 0x841 SWAP1 PUSH2 0x4507 JUMP JUMPDEST SWAP1 POP PUSH2 0x7AD JUMP JUMPDEST POP DUP1 PUSH2 0x853 JUMPI PUSH1 0x0 DUP1 REVERT JUMPDEST PUSH1 0x0 DUP3 PUSH1 0xFF AND LT ISZERO PUSH2 0x864 JUMPI PUSH1 0x0 DUP1 REVERT JUMPDEST DUP2 PUSH1 0x0 DUP1 CALLER PUSH20 0xFFFFFFFFFFFFFFFFFFFFFFFFFFFFFFFFFFFFFFFF AND PUSH20 0xFFFFFFFFFFFFFFFFFFFFFFFFFFFFFFFFFFFFFFFF AND DUP2 MSTORE PUSH1 0x20 ADD SWAP1 DUP2 MSTORE PUSH1 0x20 ADD PUSH1 0x0 KECCAK256 PUSH1 0x2 ADD PUSH1 0x0 PUSH2 0x100 EXP DUP2 SLOAD DUP2 PUSH1 0xFF MUL NOT AND SWAP1 DUP4 PUSH1 0xFF AND MUL OR SWAP1 SSTORE POP POP POP JUMP JUMPDEST PUSH1 0x0 DUP1 PUSH1 0x0 JUMPDEST PUSH1 0x1 DUP1 SLOAD SWAP1 POP DUP2 PUSH1 0xFF AND LT ISZERO PUSH2 0x963 JUMPI CALLER PUSH20 0xFFFFFFFFFFFFFFFFFFFFFFFFFFFFFFFFFFFFFFFF AND PUSH1 0x1 DUP3 PUSH1 0xFF AND DUP2 SLOAD DUP2 LT PUSH2 0x906 JUMPI PUSH2 0x905 PUSH2 0x44A9 JUMP JUMPDEST JUMPDEST SWAP1 PUSH1 0x0 MSTORE PUSH1 0x20 PUSH1 0x0 KECCAK256 ADD PUSH1 0x0 SWAP1 SLOAD SWAP1 PUSH2 0x100 EXP SWAP1 DIV PUSH20 0xFFFFFFFFFFFFFFFFFFFFFFFFFFFFFFFFFFFFFFFF AND PUSH20 0xFFFFFFFFFFFFFFFFFFFFFFFFFFFFFFFFFFFFFFFF AND EQ ISZERO PUSH2 0x952 JUMPI PUSH1 0x1 SWAP2 POP JUMPDEST DUP1 PUSH2 0x95C SWAP1 PUSH2 0x4507 JUMP JUMPDEST SWAP1 POP PUSH2 0x8C8 JUMP JUMPDEST POP DUP1 PUSH2 0x96E JUMPI PUSH1 0x0 DUP1 REVERT JUMPDEST PUSH1 0x0 DUP1 CALLER PUSH20 0xFFFFFFFFFFFFFFFFFFFFFFFFFFFFFFFFFFFFFFFF AND PUSH20 0xFFFFFFFFFFFFFFFFFFFFFFFFFFFFFFFFFFFFFFFF AND DUP2 MSTORE PUSH1 0x20 ADD SWAP1 DUP2 MSTORE PUSH1 0x20 ADD PUSH1 0x0 KECCAK256 PUSH1 0x3 ADD SLOAD SWAP2 POP POP SWAP1 JUMP JUMPDEST PUSH1 0x0 DUP1 PUSH1 0x0 SWAP1 POP JUMPDEST PUSH1 0x1 DUP1 SLOAD SWAP1 POP DUP2 PUSH1 0xFF AND LT ISZERO PUSH2 0xA59 JUMPI CALLER PUSH20 0xFFFFFFFFFFFFFFFFFFFFFFFFFFFFFFFFFFFFFFFF AND PUSH1 0x1 DUP3 PUSH1 0xFF AND DUP2 SLOAD DUP2 LT PUSH2 0x9FC JUMPI PUSH2 0x9FB PUSH2 0x44A9 JUMP JUMPDEST JUMPDEST SWAP1 PUSH1 0x0 MSTORE PUSH1 0x20 PUSH1 0x0 KECCAK256 ADD PUSH1 0x0 SWAP1 SLOAD SWAP1 PUSH2 0x100 EXP SWAP1 DIV PUSH20 0xFFFFFFFFFFFFFFFFFFFFFFFFFFFFFFFFFFFFFFFF AND PUSH20 0xFFFFFFFFFFFFFFFFFFFFFFFFFFFFFFFFFFFFFFFF AND EQ ISZERO PUSH2 0xA48 JUMPI PUSH1 0x1 SWAP2 POP JUMPDEST DUP1 PUSH2 0xA52 SWAP1 PUSH2 0x4507 JUMP JUMPDEST SWAP1 POP PUSH2 0x9BE JUMP JUMPDEST POP DUP1 PUSH2 0xA64 JUMPI PUSH1 0x0 DUP1 REVERT JUMPDEST PUSH1 0x0 ISZERO ISZERO PUSH1 0x8 PUSH1 0x0 CALLER PUSH20 0xFFFFFFFFFFFFFFFFFFFFFFFFFFFFFFFFFFFFFFFF AND PUSH20 0xFFFFFFFFFFFFFFFFFFFFFFFFFFFFFFFFFFFFFFFF AND DUP2 MSTORE PUSH1 0x20 ADD SWAP1 DUP2 MSTORE PUSH1 0x20 ADD PUSH1 0x0 KECCAK256 PUSH1 0x0 SWAP1 SLOAD SWAP1 PUSH2 0x100 EXP SWAP1 DIV PUSH1 0xFF AND ISZERO ISZERO EQ PUSH2 0xAC1 JUMPI PUSH1 0x0 DUP1 REVERT JUMPDEST PUSH1 0x1 PUSH1 0x9 PUSH1 0x0 DUP3 DUP3 SLOAD PUSH2 0xAD4 SWAP2 SWAP1 PUSH2 0x4531 JUMP JUMPDEST SWAP3 POP POP DUP2 SWAP1 SSTORE POP PUSH1 0x1 PUSH1 0x8 PUSH1 0x0 CALLER PUSH20 0xFFFFFFFFFFFFFFFFFFFFFFFFFFFFFFFFFFFFFFFF AND PUSH20 0xFFFFFFFFFFFFFFFFFFFFFFFFFFFFFFFFFFFFFFFF AND DUP2 MSTORE PUSH1 0x20 ADD SWAP1 DUP2 MSTORE PUSH1 0x20 ADD PUSH1 0x0 KECCAK256 PUSH1 0x0 PUSH2 0x100 EXP DUP2 SLOAD DUP2 PUSH1 0xFF MUL NOT AND SWAP1 DUP4 ISZERO ISZERO MUL OR SWAP1 SSTORE POP PUSH1 0x2 PUSH1 0x1 DUP1 SLOAD SWAP1 POP PUSH2 0xB45 SWAP2 SWAP1 PUSH2 0x45B6 JUMP JUMPDEST PUSH1 0x9 SLOAD GT ISZERO PUSH2 0xBB8 JUMPI PUSH1 0x2 PUSH1 0x0 SWAP1 SLOAD SWAP1 PUSH2 0x100 EXP SWAP1 DIV PUSH20 0xFFFFFFFFFFFFFFFFFFFFFFFFFFFFFFFFFFFFFFFF AND PUSH20 0xFFFFFFFFFFFFFFFFFFFFFFFFFFFFFFFFFFFFFFFF AND PUSH2 0x8FC SELFBALANCE SWAP1 DUP2 ISZERO MUL SWAP1 PUSH1 0x40 MLOAD PUSH1 0x0 PUSH1 0x40 MLOAD DUP1 DUP4 SUB DUP2 DUP6 DUP9 DUP9 CALL SWAP4 POP POP POP POP ISZERO DUP1 ISZERO PUSH2 0xBB6 JUMPI RETURNDATASIZE PUSH1 0x0 DUP1 RETURNDATACOPY RETURNDATASIZE PUSH1 0x0 REVERT JUMPDEST POP JUMPDEST POP JUMP JUMPDEST PUSH1 0x0 DUP1 PUSH1 0x0 JUMPDEST PUSH1 0x1 DUP1 SLOAD SWAP1 POP DUP2 PUSH1 0xFF AND LT ISZERO PUSH2 0xC5C JUMPI CALLER PUSH20 0xFFFFFFFFFFFFFFFFFFFFFFFFFFFFFFFFFFFFFFFF AND PUSH1 0x1 DUP3 PUSH1 0xFF AND DUP2 SLOAD DUP2 LT PUSH2 0xBFF JUMPI PUSH2 0xBFE PUSH2 0x44A9 JUMP JUMPDEST JUMPDEST SWAP1 PUSH1 0x0 MSTORE PUSH1 0x20 PUSH1 0x0 KECCAK256 ADD PUSH1 0x0 SWAP1 SLOAD SWAP1 PUSH2 0x100 EXP SWAP1 DIV PUSH20 0xFFFFFFFFFFFFFFFFFFFFFFFFFFFFFFFFFFFFFFFF AND PUSH20 0xFFFFFFFFFFFFFFFFFFFFFFFFFFFFFFFFFFFFFFFF AND EQ ISZERO PUSH2 0xC4B JUMPI PUSH1 0x1 SWAP2 POP JUMPDEST DUP1 PUSH2 0xC55 SWAP1 PUSH2 0x4507 JUMP JUMPDEST SWAP1 POP PUSH2 0xBC1 JUMP JUMPDEST POP DUP1 PUSH2 0xC67 JUMPI PUSH1 0x0 DUP1 REVERT JUMPDEST PUSH1 0x0 DUP1 CALLER PUSH20 0xFFFFFFFFFFFFFFFFFFFFFFFFFFFFFFFFFFFFFFFF AND PUSH20 0xFFFFFFFFFFFFFFFFFFFFFFFFFFFFFFFFFFFFFFFF AND DUP2 MSTORE PUSH1 0x20 ADD SWAP1 DUP2 MSTORE PUSH1 0x20 ADD PUSH1 0x0 KECCAK256 PUSH1 0x5 ADD SLOAD SWAP2 POP POP SWAP1 JUMP JUMPDEST PUSH1 0x0 DUP1 PUSH1 0x0 SWAP1 POP JUMPDEST PUSH1 0x1 DUP1 SLOAD SWAP1 POP DUP2 PUSH1 0xFF AND LT ISZERO PUSH2 0xD52 JUMPI CALLER PUSH20 0xFFFFFFFFFFFFFFFFFFFFFFFFFFFFFFFFFFFFFFFF AND PUSH1 0x1 DUP3 PUSH1 0xFF AND DUP2 SLOAD DUP2 LT PUSH2 0xCF5 JUMPI PUSH2 0xCF4 PUSH2 0x44A9 JUMP JUMPDEST JUMPDEST SWAP1 PUSH1 0x0 MSTORE PUSH1 0x20 PUSH1 0x0 KECCAK256 ADD PUSH1 0x0 SWAP1 SLOAD SWAP1 PUSH2 0x100 EXP SWAP1 DIV PUSH20 0xFFFFFFFFFFFFFFFFFFFFFFFFFFFFFFFFFFFFFFFF AND PUSH20 0xFFFFFFFFFFFFFFFFFFFFFFFFFFFFFFFFFFFFFFFF AND EQ ISZERO PUSH2 0xD41 JUMPI PUSH1 0x1 SWAP2 POP JUMPDEST DUP1 PUSH2 0xD4B SWAP1 PUSH2 0x4507 JUMP JUMPDEST SWAP1 POP PUSH2 0xCB7 JUMP JUMPDEST POP DUP1 PUSH2 0xD5D JUMPI PUSH1 0x0 DUP1 REVERT JUMPDEST PUSH1 0x14 DUP3 MLOAD EQ PUSH2 0xD6B JUMPI PUSH1 0x0 DUP1 REVERT JUMPDEST DUP2 PUSH1 0x0 DUP1 CALLER PUSH20 0xFFFFFFFFFFFFFFFFFFFFFFFFFFFFFFFFFFFFFFFF AND PUSH20 0xFFFFFFFFFFFFFFFFFFFFFFFFFFFFFFFFFFFFFFFF AND DUP2 MSTORE PUSH1 0x20 ADD SWAP1 DUP2 MSTORE PUSH1 0x20 ADD PUSH1 0x0 KECCAK256 PUSH1 0x1 ADD SWAP1 DUP1 MLOAD SWAP1 PUSH1 0x20 ADD SWAP1 PUSH2 0xDC0 SWAP3 SWAP2 SWAP1 PUSH2 0x3E7D JUMP JUMPDEST POP POP POP JUMP JUMPDEST PUSH1 0x0 JUMPDEST PUSH1 0x1 DUP1 SLOAD SWAP1 POP DUP2 PUSH1 0xFF AND LT ISZERO PUSH2 0xE99 JUMPI CALLER PUSH20 0xFFFFFFFFFFFFFFFFFFFFFFFFFFFFFFFFFFFFFFFF AND PUSH1 0x1 DUP3 PUSH1 0xFF AND DUP2 SLOAD DUP2 LT PUSH2 0xE06 JUMPI PUSH2 0xE05 PUSH2 0x44A9 JUMP JUMPDEST JUMPDEST SWAP1 PUSH1 0x0 MSTORE PUSH1 0x20 PUSH1 0x0 KECCAK256 ADD PUSH1 0x0 SWAP1 SLOAD SWAP1 PUSH2 0x100 EXP SWAP1 DIV PUSH20 0xFFFFFFFFFFFFFFFFFFFFFFFFFFFFFFFFFFFFFFFF AND PUSH20 0xFFFFFFFFFFFFFFFFFFFFFFFFFFFFFFFFFFFFFFFF AND EQ ISZERO PUSH2 0xE88 JUMPI PUSH1 0x40 MLOAD PUSH32 0x8C379A000000000000000000000000000000000000000000000000000000000 DUP2 MSTORE PUSH1 0x4 ADD PUSH2 0xE7F SWAP1 PUSH2 0x4644 JUMP JUMPDEST PUSH1 0x40 MLOAD DUP1 SWAP2 SUB SWAP1 REVERT JUMPDEST DUP1 PUSH2 0xE92 SWAP1 PUSH2 0x4507 JUMP JUMPDEST SWAP1 POP PUSH2 0xDC8 JUMP JUMPDEST POP PUSH1 0x7 SLOAD CALLVALUE GT PUSH2 0xEA8 JUMPI PUSH1 0x0 DUP1 REVERT JUMPDEST CALLVALUE PUSH1 0x3 PUSH1 0x0 DUP3 DUP3 SLOAD PUSH2 0xEBA SWAP2 SWAP1 PUSH2 0x4531 JUMP JUMPDEST SWAP3 POP POP DUP2 SWAP1 SSTORE POP PUSH1 0x1 CALLER SWAP1 DUP1 PUSH1 0x1 DUP2 SLOAD ADD DUP1 DUP3 SSTORE DUP1 SWAP2 POP POP PUSH1 0x1 SWAP1 SUB SWAP1 PUSH1 0x0 MSTORE PUSH1 0x20 PUSH1 0x0 KECCAK256 ADD PUSH1 0x0 SWAP1 SWAP2 SWAP1 SWAP2 SWAP1 SWAP2 PUSH2 0x100 EXP DUP2 SLOAD DUP2 PUSH20 0xFFFFFFFFFFFFFFFFFFFFFFFFFFFFFFFFFFFFFFFF MUL NOT AND SWAP1 DUP4 PUSH20 0xFFFFFFFFFFFFFFFFFFFFFFFFFFFFFFFFFFFFFFFF AND MUL OR SWAP1 SSTORE POP JUMP JUMPDEST PUSH1 0x60 PUSH1 0x1 DUP1 SLOAD DUP1 PUSH1 0x20 MUL PUSH1 0x20 ADD PUSH1 0x40 MLOAD SWAP1 DUP2 ADD PUSH1 0x40 MSTORE DUP1 SWAP3 SWAP2 SWAP1 DUP2 DUP2 MSTORE PUSH1 0x20 ADD DUP3 DUP1 SLOAD DUP1 ISZERO PUSH2 0xFAA JUMPI PUSH1 0x20 MUL DUP3 ADD SWAP2 SWAP1 PUSH1 0x0 MSTORE PUSH1 0x20 PUSH1 0x0 KECCAK256 SWAP1 JUMPDEST DUP2 PUSH1 0x0 SWAP1 SLOAD SWAP1 PUSH2 0x100 EXP SWAP1 DIV PUSH20 0xFFFFFFFFFFFFFFFFFFFFFFFFFFFFFFFFFFFFFFFF AND PUSH20 0xFFFFFFFFFFFFFFFFFFFFFFFFFFFFFFFFFFFFFFFF AND DUP2 MSTORE PUSH1 0x20 ADD SWAP1 PUSH1 0x1 ADD SWAP1 DUP1 DUP4 GT PUSH2 0xF60 JUMPI JUMPDEST POP POP POP POP POP SWAP1 POP SWAP1 JUMP JUMPDEST PUSH1 0x6 PUSH1 0x1 SWAP1 SLOAD SWAP1 PUSH2 0x100 EXP SWAP1 DIV PUSH20 0xFFFFFFFFFFFFFFFFFFFFFFFFFFFFFFFFFFFFFFFF AND PUSH20 0xFFFFFFFFFFFFFFFFFFFFFFFFFFFFFFFFFFFFFFFF AND CALLER PUSH20 0xFFFFFFFFFFFFFFFFFFFFFFFFFFFFFFFFFFFFFFFF AND EQ PUSH2 0x100E JUMPI PUSH1 0x0 DUP1 REVERT JUMPDEST DUP1 PUSH1 0x4 SWAP1 DUP1 MLOAD SWAP1 PUSH1 0x20 ADD SWAP1 PUSH2 0x1024 SWAP3 SWAP2 SWAP1 PUSH2 0x3E7D JUMP JUMPDEST POP POP JUMP JUMPDEST PUSH1 0x2 PUSH1 0x0 SWAP1 SLOAD SWAP1 PUSH2 0x100 EXP SWAP1 DIV PUSH20 0xFFFFFFFFFFFFFFFFFFFFFFFFFFFFFFFFFFFFFFFF AND DUP2 JUMP JUMPDEST PUSH1 0x0 DUP1 PUSH1 0x0 JUMPDEST PUSH1 0x1 DUP1 SLOAD SWAP1 POP DUP2 PUSH1 0xFF AND LT ISZERO PUSH2 0x10EF JUMPI CALLER PUSH20 0xFFFFFFFFFFFFFFFFFFFFFFFFFFFFFFFFFFFFFFFF AND PUSH1 0x1 DUP3 PUSH1 0xFF AND DUP2 SLOAD DUP2 LT PUSH2 0x1092 JUMPI PUSH2 0x1091 PUSH2 0x44A9 JUMP JUMPDEST JUMPDEST SWAP1 PUSH1 0x0 MSTORE PUSH1 0x20 PUSH1 0x0 KECCAK256 ADD PUSH1 0x0 SWAP1 SLOAD SWAP1 PUSH2 0x100 EXP SWAP1 DIV PUSH20 0xFFFFFFFFFFFFFFFFFFFFFFFFFFFFFFFFFFFFFFFF AND PUSH20 0xFFFFFFFFFFFFFFFFFFFFFFFFFFFFFFFFFFFFFFFF AND EQ ISZERO PUSH2 0x10DE JUMPI PUSH1 0x1 SWAP2 POP JUMPDEST DUP1 PUSH2 0x10E8 SWAP1 PUSH2 0x4507 JUMP JUMPDEST SWAP1 POP PUSH2 0x1054 JUMP JUMPDEST POP DUP1 PUSH2 0x10FA JUMPI PUSH1 0x0 DUP1 REVERT JUMPDEST PUSH1 0x0 DUP1 CALLER PUSH20 0xFFFFFFFFFFFFFFFFFFFFFFFFFFFFFFFFFFFFFFFF AND PUSH20 0xFFFFFFFFFFFFFFFFFFFFFFFFFFFFFFFFFFFFFFFF AND DUP2 MSTORE PUSH1 0x20 ADD SWAP1 DUP2 MSTORE PUSH1 0x20 ADD PUSH1 0x0 KECCAK256 PUSH1 0x6 ADD SLOAD SWAP2 POP POP SWAP1 JUMP JUMPDEST PUSH1 0x6 PUSH1 0x0 SWAP1 SLOAD SWAP1 PUSH2 0x100 EXP SWAP1 DIV PUSH1 0xFF AND DUP2 JUMP JUMPDEST PUSH1 0x0 JUMPDEST PUSH1 0x1 DUP1 SLOAD SWAP1 POP DUP2 PUSH1 0xFF AND LT ISZERO PUSH2 0x258B JUMPI PUSH1 0x0 DUP1 PUSH1 0x0 PUSH1 0x1 DUP5 PUSH1 0xFF AND DUP2 SLOAD DUP2 LT PUSH2 0x1184 JUMPI PUSH2 0x1183 PUSH2 0x44A9 JUMP JUMPDEST JUMPDEST SWAP1 PUSH1 0x0 MSTORE PUSH1 0x20 PUSH1 0x0 KECCAK256 ADD PUSH1 0x0 SWAP1 SLOAD SWAP1 PUSH2 0x100 EXP SWAP1 DIV PUSH20 0xFFFFFFFFFFFFFFFFFFFFFFFFFFFFFFFFFFFFFFFF AND PUSH20 0xFFFFFFFFFFFFFFFFFFFFFFFFFFFFFFFFFFFFFFFF AND PUSH20 0xFFFFFFFFFFFFFFFFFFFFFFFFFFFFFFFFFFFFFFFF AND DUP2 MSTORE PUSH1 0x20 ADD SWAP1 DUP2 MSTORE PUSH1 0x20 ADD PUSH1 0x0 KECCAK256 PUSH1 0x0 ADD DUP1 SLOAD DUP1 PUSH1 0x20 MUL PUSH1 0x20 ADD PUSH1 0x40 MLOAD SWAP1 DUP2 ADD PUSH1 0x40 MSTORE DUP1 SWAP3 SWAP2 SWAP1 DUP2 DUP2 MSTORE PUSH1 0x20 ADD PUSH1 0x0 SWAP1 JUMPDEST DUP3 DUP3 LT ISZERO PUSH2 0x12B8 JUMPI DUP4 DUP3 SWAP1 PUSH1 0x0 MSTORE PUSH1 0x20 PUSH1 0x0 KECCAK256 ADD DUP1 SLOAD PUSH2 0x122B SWAP1 PUSH2 0x4693 JUMP JUMPDEST DUP1 PUSH1 0x1F ADD PUSH1 0x20 DUP1 SWAP2 DIV MUL PUSH1 0x20 ADD PUSH1 0x40 MLOAD SWAP1 DUP2 ADD PUSH1 0x40 MSTORE DUP1 SWAP3 SWAP2 SWAP1 DUP2 DUP2 MSTORE PUSH1 0x20 ADD DUP3 DUP1 SLOAD PUSH2 0x1257 SWAP1 PUSH2 0x4693 JUMP JUMPDEST DUP1 ISZERO PUSH2 0x12A4 JUMPI DUP1 PUSH1 0x1F LT PUSH2 0x1279 JUMPI PUSH2 0x100 DUP1 DUP4 SLOAD DIV MUL DUP4 MSTORE SWAP2 PUSH1 0x20 ADD SWAP2 PUSH2 0x12A4 JUMP JUMPDEST DUP3 ADD SWAP2 SWAP1 PUSH1 0x0 MSTORE PUSH1 0x20 PUSH1 0x0 KECCAK256 SWAP1 JUMPDEST DUP2 SLOAD DUP2 MSTORE SWAP1 PUSH1 0x1 ADD SWAP1 PUSH1 0x20 ADD DUP1 DUP4 GT PUSH2 0x1287 JUMPI DUP3 SWAP1 SUB PUSH1 0x1F AND DUP3 ADD SWAP2 JUMPDEST POP POP POP POP POP DUP2 MSTORE PUSH1 0x20 ADD SWAP1 PUSH1 0x1 ADD SWAP1 PUSH2 0x120C JUMP JUMPDEST POP POP POP POP SWAP1 POP PUSH1 0x0 DUP1 JUMPDEST PUSH1 0x4 DUP1 SLOAD SWAP1 POP DUP2 PUSH1 0xFF AND LT ISZERO PUSH2 0x24EE JUMPI PUSH1 0x1 DUP2 PUSH1 0xFF AND LT ISZERO PUSH2 0x15B4 JUMPI PUSH2 0x13AE DUP4 DUP3 PUSH1 0xFF AND DUP2 MLOAD DUP2 LT PUSH2 0x12F7 JUMPI PUSH2 0x12F6 PUSH2 0x44A9 JUMP JUMPDEST JUMPDEST PUSH1 0x20 MUL PUSH1 0x20 ADD ADD MLOAD PUSH1 0x4 DUP4 PUSH1 0xFF AND DUP2 SLOAD DUP2 LT PUSH2 0x1316 JUMPI PUSH2 0x1315 PUSH2 0x44A9 JUMP JUMPDEST JUMPDEST SWAP1 PUSH1 0x0 MSTORE PUSH1 0x20 PUSH1 0x0 KECCAK256 ADD DUP1 SLOAD PUSH2 0x132B SWAP1 PUSH2 0x4693 JUMP JUMPDEST DUP1 PUSH1 0x1F ADD PUSH1 0x20 DUP1 SWAP2 DIV MUL PUSH1 0x20 ADD PUSH1 0x40 MLOAD SWAP1 DUP2 ADD PUSH1 0x40 MSTORE DUP1 SWAP3 SWAP2 SWAP1 DUP2 DUP2 MSTORE PUSH1 0x20 ADD DUP3 DUP1 SLOAD PUSH2 0x1357 SWAP1 PUSH2 0x4693 JUMP JUMPDEST DUP1 ISZERO PUSH2 0x13A4 JUMPI DUP1 PUSH1 0x1F LT PUSH2 0x1379 JUMPI PUSH2 0x100 DUP1 DUP4 SLOAD DIV MUL DUP4 MSTORE SWAP2 PUSH1 0x20 ADD SWAP2 PUSH2 0x13A4 JUMP JUMPDEST DUP3 ADD SWAP2 SWAP1 PUSH1 0x0 MSTORE PUSH1 0x20 PUSH1 0x0 KECCAK256 SWAP1 JUMPDEST DUP2 SLOAD DUP2 MSTORE SWAP1 PUSH1 0x1 ADD SWAP1 PUSH1 0x20 ADD DUP1 DUP4 GT PUSH2 0x1387 JUMPI DUP3 SWAP1 SUB PUSH1 0x1F AND DUP3 ADD SWAP2 JUMPDEST POP POP POP POP POP PUSH2 0x3E13 JUMP JUMPDEST ISZERO PUSH2 0x13C7 JUMPI PUSH1 0x5 DUP3 PUSH2 0x13C0 SWAP2 SWAP1 PUSH2 0x4531 JUMP JUMPDEST SWAP2 POP PUSH2 0x15AF JUMP JUMPDEST PUSH2 0x14A3 DUP4 PUSH1 0x1 DUP4 PUSH2 0x13D8 SWAP2 SWAP1 PUSH2 0x46C5 JUMP JUMPDEST PUSH1 0xFF AND DUP2 MLOAD DUP2 LT PUSH2 0x13EC JUMPI PUSH2 0x13EB PUSH2 0x44A9 JUMP JUMPDEST JUMPDEST PUSH1 0x20 MUL PUSH1 0x20 ADD ADD MLOAD PUSH1 0x4 DUP4 PUSH1 0xFF AND DUP2 SLOAD DUP2 LT PUSH2 0x140B JUMPI PUSH2 0x140A PUSH2 0x44A9 JUMP JUMPDEST JUMPDEST SWAP1 PUSH1 0x0 MSTORE PUSH1 0x20 PUSH1 0x0 KECCAK256 ADD DUP1 SLOAD PUSH2 0x1420 SWAP1 PUSH2 0x4693 JUMP JUMPDEST DUP1 PUSH1 0x1F ADD PUSH1 0x20 DUP1 SWAP2 DIV MUL PUSH1 0x20 ADD PUSH1 0x40 MLOAD SWAP1 DUP2 ADD PUSH1 0x40 MSTORE DUP1 SWAP3 SWAP2 SWAP1 DUP2 DUP2 MSTORE PUSH1 0x20 ADD DUP3 DUP1 SLOAD PUSH2 0x144C SWAP1 PUSH2 0x4693 JUMP JUMPDEST DUP1 ISZERO PUSH2 0x1499 JUMPI DUP1 PUSH1 0x1F LT PUSH2 0x146E JUMPI PUSH2 0x100 DUP1 DUP4 SLOAD DIV MUL DUP4 MSTORE SWAP2 PUSH1 0x20 ADD SWAP2 PUSH2 0x1499 JUMP JUMPDEST DUP3 ADD SWAP2 SWAP1 PUSH1 0x0 MSTORE PUSH1 0x20 PUSH1 0x0 KECCAK256 SWAP1 JUMPDEST DUP2 SLOAD DUP2 MSTORE SWAP1 PUSH1 0x1 ADD SWAP1 PUSH1 0x20 ADD DUP1 DUP4 GT PUSH2 0x147C JUMPI DUP3 SWAP1 SUB PUSH1 0x1F AND DUP3 ADD SWAP2 JUMPDEST POP POP POP POP POP PUSH2 0x3E13 JUMP JUMPDEST ISZERO PUSH2 0x14BC JUMPI PUSH1 0x3 DUP3 PUSH2 0x14B5 SWAP2 SWAP1 PUSH2 0x4531 JUMP JUMPDEST SWAP2 POP PUSH2 0x15AE JUMP JUMPDEST PUSH2 0x1598 DUP4 PUSH1 0x2 DUP4 PUSH2 0x14CD SWAP2 SWAP1 PUSH2 0x46C5 JUMP JUMPDEST PUSH1 0xFF AND DUP2 MLOAD DUP2 LT PUSH2 0x14E1 JUMPI PUSH2 0x14E0 PUSH2 0x44A9 JUMP JUMPDEST JUMPDEST PUSH1 0x20 MUL PUSH1 0x20 ADD ADD MLOAD PUSH1 0x4 DUP4 PUSH1 0xFF AND DUP2 SLOAD DUP2 LT PUSH2 0x1500 JUMPI PUSH2 0x14FF PUSH2 0x44A9 JUMP JUMPDEST JUMPDEST SWAP1 PUSH1 0x0 MSTORE PUSH1 0x20 PUSH1 0x0 KECCAK256 ADD DUP1 SLOAD PUSH2 0x1515 SWAP1 PUSH2 0x4693 JUMP JUMPDEST DUP1 PUSH1 0x1F ADD PUSH1 0x20 DUP1 SWAP2 DIV MUL PUSH1 0x20 ADD PUSH1 0x40 MLOAD SWAP1 DUP2 ADD PUSH1 0x40 MSTORE DUP1 SWAP3 SWAP2 SWAP1 DUP2 DUP2 MSTORE PUSH1 0x20 ADD DUP3 DUP1 SLOAD PUSH2 0x1541 SWAP1 PUSH2 0x4693 JUMP JUMPDEST DUP1 ISZERO PUSH2 0x158E JUMPI DUP1 PUSH1 0x1F LT PUSH2 0x1563 JUMPI PUSH2 0x100 DUP1 DUP4 SLOAD DIV MUL DUP4 MSTORE SWAP2 PUSH1 0x20 ADD SWAP2 PUSH2 0x158E JUMP JUMPDEST DUP3 ADD SWAP2 SWAP1 PUSH1 0x0 MSTORE PUSH1 0x20 PUSH1 0x0 KECCAK256 SWAP1 JUMPDEST DUP2 SLOAD DUP2 MSTORE SWAP1 PUSH1 0x1 ADD SWAP1 PUSH1 0x20 ADD DUP1 DUP4 GT PUSH2 0x1571 JUMPI DUP3 SWAP1 SUB PUSH1 0x1F AND DUP3 ADD SWAP2 JUMPDEST POP POP POP POP POP PUSH2 0x3E13 JUMP JUMPDEST ISZERO PUSH2 0x15AD JUMPI PUSH1 0x1 DUP3 PUSH2 0x15AA SWAP2 SWAP1 PUSH2 0x4531 JUMP JUMPDEST SWAP2 POP JUMPDEST JUMPDEST JUMPDEST PUSH2 0x24DB JUMP JUMPDEST PUSH1 0x2 DUP2 PUSH1 0xFF AND LT ISZERO PUSH2 0x1979 JUMPI PUSH2 0x1690 DUP4 DUP3 PUSH1 0xFF AND DUP2 MLOAD DUP2 LT PUSH2 0x15D9 JUMPI PUSH2 0x15D8 PUSH2 0x44A9 JUMP JUMPDEST JUMPDEST PUSH1 0x20 MUL PUSH1 0x20 ADD ADD MLOAD PUSH1 0x4 DUP4 PUSH1 0xFF AND DUP2 SLOAD DUP2 LT PUSH2 0x15F8 JUMPI PUSH2 0x15F7 PUSH2 0x44A9 JUMP JUMPDEST JUMPDEST SWAP1 PUSH1 0x0 MSTORE PUSH1 0x20 PUSH1 0x0 KECCAK256 ADD DUP1 SLOAD PUSH2 0x160D SWAP1 PUSH2 0x4693 JUMP JUMPDEST DUP1 PUSH1 0x1F ADD PUSH1 0x20 DUP1 SWAP2 DIV MUL PUSH1 0x20 ADD PUSH1 0x40 MLOAD SWAP1 DUP2 ADD PUSH1 0x40 MSTORE DUP1 SWAP3 SWAP2 SWAP1 DUP2 DUP2 MSTORE PUSH1 0x20 ADD DUP3 DUP1 SLOAD PUSH2 0x1639 SWAP1 PUSH2 0x4693 JUMP JUMPDEST DUP1 ISZERO PUSH2 0x1686 JUMPI DUP1 PUSH1 0x1F LT PUSH2 0x165B JUMPI PUSH2 0x100 DUP1 DUP4 SLOAD DIV MUL DUP4 MSTORE SWAP2 PUSH1 0x20 ADD SWAP2 PUSH2 0x1686 JUMP JUMPDEST DUP3 ADD SWAP2 SWAP1 PUSH1 0x0 MSTORE PUSH1 0x20 PUSH1 0x0 KECCAK256 SWAP1 JUMPDEST DUP2 SLOAD DUP2 MSTORE SWAP1 PUSH1 0x1 ADD SWAP1 PUSH1 0x20 ADD DUP1 DUP4 GT PUSH2 0x1669 JUMPI DUP3 SWAP1 SUB PUSH1 0x1F AND DUP3 ADD SWAP2 JUMPDEST POP POP POP POP POP PUSH2 0x3E13 JUMP JUMPDEST ISZERO PUSH2 0x16A9 JUMPI PUSH1 0x5 DUP3 PUSH2 0x16A2 SWAP2 SWAP1 PUSH2 0x4531 JUMP JUMPDEST SWAP2 POP PUSH2 0x1974 JUMP JUMPDEST PUSH2 0x1785 DUP4 PUSH1 0x1 DUP4 PUSH2 0x16BA SWAP2 SWAP1 PUSH2 0x46FC JUMP JUMPDEST PUSH1 0xFF AND DUP2 MLOAD DUP2 LT PUSH2 0x16CE JUMPI PUSH2 0x16CD PUSH2 0x44A9 JUMP JUMPDEST JUMPDEST PUSH1 0x20 MUL PUSH1 0x20 ADD ADD MLOAD PUSH1 0x4 DUP4 PUSH1 0xFF AND DUP2 SLOAD DUP2 LT PUSH2 0x16ED JUMPI PUSH2 0x16EC PUSH2 0x44A9 JUMP JUMPDEST JUMPDEST SWAP1 PUSH1 0x0 MSTORE PUSH1 0x20 PUSH1 0x0 KECCAK256 ADD DUP1 SLOAD PUSH2 0x1702 SWAP1 PUSH2 0x4693 JUMP JUMPDEST DUP1 PUSH1 0x1F ADD PUSH1 0x20 DUP1 SWAP2 DIV MUL PUSH1 0x20 ADD PUSH1 0x40 MLOAD SWAP1 DUP2 ADD PUSH1 0x40 MSTORE DUP1 SWAP3 SWAP2 SWAP1 DUP2 DUP2 MSTORE PUSH1 0x20 ADD DUP3 DUP1 SLOAD PUSH2 0x172E SWAP1 PUSH2 0x4693 JUMP JUMPDEST DUP1 ISZERO PUSH2 0x177B JUMPI DUP1 PUSH1 0x1F LT PUSH2 0x1750 JUMPI PUSH2 0x100 DUP1 DUP4 SLOAD DIV MUL DUP4 MSTORE SWAP2 PUSH1 0x20 ADD SWAP2 PUSH2 0x177B JUMP JUMPDEST DUP3 ADD SWAP2 SWAP1 PUSH1 0x0 MSTORE PUSH1 0x20 PUSH1 0x0 KECCAK256 SWAP1 JUMPDEST DUP2 SLOAD DUP2 MSTORE SWAP1 PUSH1 0x1 ADD SWAP1 PUSH1 0x20 ADD DUP1 DUP4 GT PUSH2 0x175E JUMPI DUP3 SWAP1 SUB PUSH1 0x1F AND DUP3 ADD SWAP2 JUMPDEST POP POP POP POP POP PUSH2 0x3E13 JUMP JUMPDEST DUP1 PUSH2 0x1868 JUMPI POP PUSH2 0x1867 DUP4 PUSH1 0x1 DUP4 PUSH2 0x179C SWAP2 SWAP1 PUSH2 0x46C5 JUMP JUMPDEST PUSH1 0xFF AND DUP2 MLOAD DUP2 LT PUSH2 0x17B0 JUMPI PUSH2 0x17AF PUSH2 0x44A9 JUMP JUMPDEST JUMPDEST PUSH1 0x20 MUL PUSH1 0x20 ADD ADD MLOAD PUSH1 0x4 DUP4 PUSH1 0xFF AND DUP2 SLOAD DUP2 LT PUSH2 0x17CF JUMPI PUSH2 0x17CE PUSH2 0x44A9 JUMP JUMPDEST JUMPDEST SWAP1 PUSH1 0x0 MSTORE PUSH1 0x20 PUSH1 0x0 KECCAK256 ADD DUP1 SLOAD PUSH2 0x17E4 SWAP1 PUSH2 0x4693 JUMP JUMPDEST DUP1 PUSH1 0x1F ADD PUSH1 0x20 DUP1 SWAP2 DIV MUL PUSH1 0x20 ADD PUSH1 0x40 MLOAD SWAP1 DUP2 ADD PUSH1 0x40 MSTORE DUP1 SWAP3 SWAP2 SWAP1 DUP2 DUP2 MSTORE PUSH1 0x20 ADD DUP3 DUP1 SLOAD PUSH2 0x1810 SWAP1 PUSH2 0x4693 JUMP JUMPDEST DUP1 ISZERO PUSH2 0x185D JUMPI DUP1 PUSH1 0x1F LT PUSH2 0x1832 JUMPI PUSH2 0x100 DUP1 DUP4 SLOAD DIV MUL DUP4 MSTORE SWAP2 PUSH1 0x20 ADD SWAP2 PUSH2 0x185D JUMP JUMPDEST DUP3 ADD SWAP2 SWAP1 PUSH1 0x0 MSTORE PUSH1 0x20 PUSH1 0x0 KECCAK256 SWAP1 JUMPDEST DUP2 SLOAD DUP2 MSTORE SWAP1 PUSH1 0x1 ADD SWAP1 PUSH1 0x20 ADD DUP1 DUP4 GT PUSH2 0x1840 JUMPI DUP3 SWAP1 SUB PUSH1 0x1F AND DUP3 ADD SWAP2 JUMPDEST POP POP POP POP POP PUSH2 0x3E13 JUMP JUMPDEST JUMPDEST ISZERO PUSH2 0x1881 JUMPI PUSH1 0x3 DUP3 PUSH2 0x187A SWAP2 SWAP1 PUSH2 0x4531 JUMP JUMPDEST SWAP2 POP PUSH2 0x1973 JUMP JUMPDEST PUSH2 0x195D DUP4 PUSH1 0x2 DUP4 PUSH2 0x1892 SWAP2 SWAP1 PUSH2 0x46C5 JUMP JUMPDEST PUSH1 0xFF AND DUP2 MLOAD DUP2 LT PUSH2 0x18A6 JUMPI PUSH2 0x18A5 PUSH2 0x44A9 JUMP JUMPDEST JUMPDEST PUSH1 0x20 MUL PUSH1 0x20 ADD ADD MLOAD PUSH1 0x4 DUP4 PUSH1 0xFF AND DUP2 SLOAD DUP2 LT PUSH2 0x18C5 JUMPI PUSH2 0x18C4 PUSH2 0x44A9 JUMP JUMPDEST JUMPDEST SWAP1 PUSH1 0x0 MSTORE PUSH1 0x20 PUSH1 0x0 KECCAK256 ADD DUP1 SLOAD PUSH2 0x18DA SWAP1 PUSH2 0x4693 JUMP JUMPDEST DUP1 PUSH1 0x1F ADD PUSH1 0x20 DUP1 SWAP2 DIV MUL PUSH1 0x20 ADD PUSH1 0x40 MLOAD SWAP1 DUP2 ADD PUSH1 0x40 MSTORE DUP1 SWAP3 SWAP2 SWAP1 DUP2 DUP2 MSTORE PUSH1 0x20 ADD DUP3 DUP1 SLOAD PUSH2 0x1906 SWAP1 PUSH2 0x4693 JUMP JUMPDEST DUP1 ISZERO PUSH2 0x1953 JUMPI DUP1 PUSH1 0x1F LT PUSH2 0x1928 JUMPI PUSH2 0x100 DUP1 DUP4 SLOAD DIV MUL DUP4 MSTORE SWAP2 PUSH1 0x20 ADD SWAP2 PUSH2 0x1953 JUMP JUMPDEST DUP3 ADD SWAP2 SWAP1 PUSH1 0x0 MSTORE PUSH1 0x20 PUSH1 0x0 KECCAK256 SWAP1 JUMPDEST DUP2 SLOAD DUP2 MSTORE SWAP1 PUSH1 0x1 ADD SWAP1 PUSH1 0x20 ADD DUP1 DUP4 GT PUSH2 0x1936 JUMPI DUP3 SWAP1 SUB PUSH1 0x1F AND DUP3 ADD SWAP2 JUMPDEST POP POP POP POP POP PUSH2 0x3E13 JUMP JUMPDEST ISZERO PUSH2 0x1972 JUMPI PUSH1 0x1 DUP3 PUSH2 0x196F SWAP2 SWAP1 PUSH2 0x4531 JUMP JUMPDEST SWAP2 POP JUMPDEST JUMPDEST JUMPDEST PUSH2 0x24DA JUMP JUMPDEST PUSH1 0x2 PUSH1 0x4 DUP1 SLOAD SWAP1 POP PUSH2 0x198B SWAP2 SWAP1 PUSH2 0x4730 JUMP JUMPDEST DUP2 PUSH1 0xFF AND EQ ISZERO PUSH2 0x1D4E JUMPI PUSH2 0x1A65 DUP4 DUP3 PUSH1 0xFF AND DUP2 MLOAD DUP2 LT PUSH2 0x19AE JUMPI PUSH2 0x19AD PUSH2 0x44A9 JUMP JUMPDEST JUMPDEST PUSH1 0x20 MUL PUSH1 0x20 ADD ADD MLOAD PUSH1 0x4 DUP4 PUSH1 0xFF AND DUP2 SLOAD DUP2 LT PUSH2 0x19CD JUMPI PUSH2 0x19CC PUSH2 0x44A9 JUMP JUMPDEST JUMPDEST SWAP1 PUSH1 0x0 MSTORE PUSH1 0x20 PUSH1 0x0 KECCAK256 ADD DUP1 SLOAD PUSH2 0x19E2 SWAP1 PUSH2 0x4693 JUMP JUMPDEST DUP1 PUSH1 0x1F ADD PUSH1 0x20 DUP1 SWAP2 DIV MUL PUSH1 0x20 ADD PUSH1 0x40 MLOAD SWAP1 DUP2 ADD PUSH1 0x40 MSTORE DUP1 SWAP3 SWAP2 SWAP1 DUP2 DUP2 MSTORE PUSH1 0x20 ADD DUP3 DUP1 SLOAD PUSH2 0x1A0E SWAP1 PUSH2 0x4693 JUMP JUMPDEST DUP1 ISZERO PUSH2 0x1A5B JUMPI DUP1 PUSH1 0x1F LT PUSH2 0x1A30 JUMPI PUSH2 0x100 DUP1 DUP4 SLOAD DIV MUL DUP4 MSTORE SWAP2 PUSH1 0x20 ADD SWAP2 PUSH2 0x1A5B JUMP JUMPDEST DUP3 ADD SWAP2 SWAP1 PUSH1 0x0 MSTORE PUSH1 0x20 PUSH1 0x0 KECCAK256 SWAP1 JUMPDEST DUP2 SLOAD DUP2 MSTORE SWAP1 PUSH1 0x1 ADD SWAP1 PUSH1 0x20 ADD DUP1 DUP4 GT PUSH2 0x1A3E JUMPI DUP3 SWAP1 SUB PUSH1 0x1F AND DUP3 ADD SWAP2 JUMPDEST POP POP POP POP POP PUSH2 0x3E13 JUMP JUMPDEST ISZERO PUSH2 0x1A7E JUMPI PUSH1 0x5 DUP3 PUSH2 0x1A77 SWAP2 SWAP1 PUSH2 0x4531 JUMP JUMPDEST SWAP2 POP PUSH2 0x1D49 JUMP JUMPDEST PUSH2 0x1B5A DUP4 PUSH1 0x1 DUP4 PUSH2 0x1A8F SWAP2 SWAP1 PUSH2 0x46FC JUMP JUMPDEST PUSH1 0xFF AND DUP2 MLOAD DUP2 LT PUSH2 0x1AA3 JUMPI PUSH2 0x1AA2 PUSH2 0x44A9 JUMP JUMPDEST JUMPDEST PUSH1 0x20 MUL PUSH1 0x20 ADD ADD MLOAD PUSH1 0x4 DUP4 PUSH1 0xFF AND DUP2 SLOAD DUP2 LT PUSH2 0x1AC2 JUMPI PUSH2 0x1AC1 PUSH2 0x44A9 JUMP JUMPDEST JUMPDEST SWAP1 PUSH1 0x0 MSTORE PUSH1 0x20 PUSH1 0x0 KECCAK256 ADD DUP1 SLOAD PUSH2 0x1AD7 SWAP1 PUSH2 0x4693 JUMP JUMPDEST DUP1 PUSH1 0x1F ADD PUSH1 0x20 DUP1 SWAP2 DIV MUL PUSH1 0x20 ADD PUSH1 0x40 MLOAD SWAP1 DUP2 ADD PUSH1 0x40 MSTORE DUP1 SWAP3 SWAP2 SWAP1 DUP2 DUP2 MSTORE PUSH1 0x20 ADD DUP3 DUP1 SLOAD PUSH2 0x1B03 SWAP1 PUSH2 0x4693 JUMP JUMPDEST DUP1 ISZERO PUSH2 0x1B50 JUMPI DUP1 PUSH1 0x1F LT PUSH2 0x1B25 JUMPI PUSH2 0x100 DUP1 DUP4 SLOAD DIV MUL DUP4 MSTORE SWAP2 PUSH1 0x20 ADD SWAP2 PUSH2 0x1B50 JUMP JUMPDEST DUP3 ADD SWAP2 SWAP1 PUSH1 0x0 MSTORE PUSH1 0x20 PUSH1 0x0 KECCAK256 SWAP1 JUMPDEST DUP2 SLOAD DUP2 MSTORE SWAP1 PUSH1 0x1 ADD SWAP1 PUSH1 0x20 ADD DUP1 DUP4 GT PUSH2 0x1B33 JUMPI DUP3 SWAP1 SUB PUSH1 0x1F AND DUP3 ADD SWAP2 JUMPDEST POP POP POP POP POP PUSH2 0x3E13 JUMP JUMPDEST DUP1 PUSH2 0x1C3D JUMPI POP PUSH2 0x1C3C DUP4 PUSH1 0x1 DUP4 PUSH2 0x1B71 SWAP2 SWAP1 PUSH2 0x46C5 JUMP JUMPDEST PUSH1 0xFF AND DUP2 MLOAD DUP2 LT PUSH2 0x1B85 JUMPI PUSH2 0x1B84 PUSH2 0x44A9 JUMP JUMPDEST JUMPDEST PUSH1 0x20 MUL PUSH1 0x20 ADD ADD MLOAD PUSH1 0x4 DUP4 PUSH1 0xFF AND DUP2 SLOAD DUP2 LT PUSH2 0x1BA4 JUMPI PUSH2 0x1BA3 PUSH2 0x44A9 JUMP JUMPDEST JUMPDEST SWAP1 PUSH1 0x0 MSTORE PUSH1 0x20 PUSH1 0x0 KECCAK256 ADD DUP1 SLOAD PUSH2 0x1BB9 SWAP1 PUSH2 0x4693 JUMP JUMPDEST DUP1 PUSH1 0x1F ADD PUSH1 0x20 DUP1 SWAP2 DIV MUL PUSH1 0x20 ADD PUSH1 0x40 MLOAD SWAP1 DUP2 ADD PUSH1 0x40 MSTORE DUP1 SWAP3 SWAP2 SWAP1 DUP2 DUP2 MSTORE PUSH1 0x20 ADD DUP3 DUP1 SLOAD PUSH2 0x1BE5 SWAP1 PUSH2 0x4693 JUMP JUMPDEST DUP1 ISZERO PUSH2 0x1C32 JUMPI DUP1 PUSH1 0x1F LT PUSH2 0x1C07 JUMPI PUSH2 0x100 DUP1 DUP4 SLOAD DIV MUL DUP4 MSTORE SWAP2 PUSH1 0x20 ADD SWAP2 PUSH2 0x1C32 JUMP JUMPDEST DUP3 ADD SWAP2 SWAP1 PUSH1 0x0 MSTORE PUSH1 0x20 PUSH1 0x0 KECCAK256 SWAP1 JUMPDEST DUP2 SLOAD DUP2 MSTORE SWAP1 PUSH1 0x1 ADD SWAP1 PUSH1 0x20 ADD DUP1 DUP4 GT PUSH2 0x1C15 JUMPI DUP3 SWAP1 SUB PUSH1 0x1F AND DUP3 ADD SWAP2 JUMPDEST POP POP POP POP POP PUSH2 0x3E13 JUMP JUMPDEST JUMPDEST ISZERO PUSH2 0x1C56 JUMPI PUSH1 0x3 DUP3 PUSH2 0x1C4F SWAP2 SWAP1 PUSH2 0x4531 JUMP JUMPDEST SWAP2 POP PUSH2 0x1D48 JUMP JUMPDEST PUSH2 0x1D32 DUP4 PUSH1 0x2 DUP4 PUSH2 0x1C67 SWAP2 SWAP1 PUSH2 0x46FC JUMP JUMPDEST PUSH1 0xFF AND DUP2 MLOAD DUP2 LT PUSH2 0x1C7B JUMPI PUSH2 0x1C7A PUSH2 0x44A9 JUMP JUMPDEST JUMPDEST PUSH1 0x20 MUL PUSH1 0x20 ADD ADD MLOAD PUSH1 0x4 DUP4 PUSH1 0xFF AND DUP2 SLOAD DUP2 LT PUSH2 0x1C9A JUMPI PUSH2 0x1C99 PUSH2 0x44A9 JUMP JUMPDEST JUMPDEST SWAP1 PUSH1 0x0 MSTORE PUSH1 0x20 PUSH1 0x0 KECCAK256 ADD DUP1 SLOAD PUSH2 0x1CAF SWAP1 PUSH2 0x4693 JUMP JUMPDEST DUP1 PUSH1 0x1F ADD PUSH1 0x20 DUP1 SWAP2 DIV MUL PUSH1 0x20 ADD PUSH1 0x40 MLOAD SWAP1 DUP2 ADD PUSH1 0x40 MSTORE DUP1 SWAP3 SWAP2 SWAP1 DUP2 DUP2 MSTORE PUSH1 0x20 ADD DUP3 DUP1 SLOAD PUSH2 0x1CDB SWAP1 PUSH2 0x4693 JUMP JUMPDEST DUP1 ISZERO PUSH2 0x1D28 JUMPI DUP1 PUSH1 0x1F LT PUSH2 0x1CFD JUMPI PUSH2 0x100 DUP1 DUP4 SLOAD DIV MUL DUP4 MSTORE SWAP2 PUSH1 0x20 ADD SWAP2 PUSH2 0x1D28 JUMP JUMPDEST DUP3 ADD SWAP2 SWAP1 PUSH1 0x0 MSTORE PUSH1 0x20 PUSH1 0x0 KECCAK256 SWAP1 JUMPDEST DUP2 SLOAD DUP2 MSTORE SWAP1 PUSH1 0x1 ADD SWAP1 PUSH1 0x20 ADD DUP1 DUP4 GT PUSH2 0x1D0B JUMPI DUP3 SWAP1 SUB PUSH1 0x1F AND DUP3 ADD SWAP2 JUMPDEST POP POP POP POP POP PUSH2 0x3E13 JUMP JUMPDEST ISZERO PUSH2 0x1D47 JUMPI PUSH1 0x1 DUP3 PUSH2 0x1D44 SWAP2 SWAP1 PUSH2 0x4531 JUMP JUMPDEST SWAP2 POP JUMPDEST JUMPDEST JUMPDEST PUSH2 0x24D9 JUMP JUMPDEST PUSH1 0x1 PUSH1 0x4 DUP1 SLOAD SWAP1 POP PUSH2 0x1D60 SWAP2 SWAP1 PUSH2 0x4730 JUMP JUMPDEST DUP2 PUSH1 0xFF AND EQ ISZERO PUSH2 0x2040 JUMPI PUSH2 0x1E3A DUP4 DUP3 PUSH1 0xFF AND DUP2 MLOAD DUP2 LT PUSH2 0x1D83 JUMPI PUSH2 0x1D82 PUSH2 0x44A9 JUMP JUMPDEST JUMPDEST PUSH1 0x20 MUL PUSH1 0x20 ADD ADD MLOAD PUSH1 0x4 DUP4 PUSH1 0xFF AND DUP2 SLOAD DUP2 LT PUSH2 0x1DA2 JUMPI PUSH2 0x1DA1 PUSH2 0x44A9 JUMP JUMPDEST JUMPDEST SWAP1 PUSH1 0x0 MSTORE PUSH1 0x20 PUSH1 0x0 KECCAK256 ADD DUP1 SLOAD PUSH2 0x1DB7 SWAP1 PUSH2 0x4693 JUMP JUMPDEST DUP1 PUSH1 0x1F ADD PUSH1 0x20 DUP1 SWAP2 DIV MUL PUSH1 0x20 ADD PUSH1 0x40 MLOAD SWAP1 DUP2 ADD PUSH1 0x40 MSTORE DUP1 SWAP3 SWAP2 SWAP1 DUP2 DUP2 MSTORE PUSH1 0x20 ADD DUP3 DUP1 SLOAD PUSH2 0x1DE3 SWAP1 PUSH2 0x4693 JUMP JUMPDEST DUP1 ISZERO PUSH2 0x1E30 JUMPI DUP1 PUSH1 0x1F LT PUSH2 0x1E05 JUMPI PUSH2 0x100 DUP1 DUP4 SLOAD DIV MUL DUP4 MSTORE SWAP2 PUSH1 0x20 ADD SWAP2 PUSH2 0x1E30 JUMP JUMPDEST DUP3 ADD SWAP2 SWAP1 PUSH1 0x0 MSTORE PUSH1 0x20 PUSH1 0x0 KECCAK256 SWAP1 JUMPDEST DUP2 SLOAD DUP2 MSTORE SWAP1 PUSH1 0x1 ADD SWAP1 PUSH1 0x20 ADD DUP1 DUP4 GT PUSH2 0x1E13 JUMPI DUP3 SWAP1 SUB PUSH1 0x1F AND DUP3 ADD SWAP2 JUMPDEST POP POP POP POP POP PUSH2 0x3E13 JUMP JUMPDEST ISZERO PUSH2 0x1E53 JUMPI PUSH1 0x5 DUP3 PUSH2 0x1E4C SWAP2 SWAP1 PUSH2 0x4531 JUMP JUMPDEST SWAP2 POP PUSH2 0x203B JUMP JUMPDEST PUSH2 0x1F2F DUP4 PUSH1 0x1 DUP4 PUSH2 0x1E64 SWAP2 SWAP1 PUSH2 0x46FC JUMP JUMPDEST PUSH1 0xFF AND DUP2 MLOAD DUP2 LT PUSH2 0x1E78 JUMPI PUSH2 0x1E77 PUSH2 0x44A9 JUMP JUMPDEST JUMPDEST PUSH1 0x20 MUL PUSH1 0x20 ADD ADD MLOAD PUSH1 0x4 DUP4 PUSH1 0xFF AND DUP2 SLOAD DUP2 LT PUSH2 0x1E97 JUMPI PUSH2 0x1E96 PUSH2 0x44A9 JUMP JUMPDEST JUMPDEST SWAP1 PUSH1 0x0 MSTORE PUSH1 0x20 PUSH1 0x0 KECCAK256 ADD DUP1 SLOAD PUSH2 0x1EAC SWAP1 PUSH2 0x4693 JUMP JUMPDEST DUP1 PUSH1 0x1F ADD PUSH1 0x20 DUP1 SWAP2 DIV MUL PUSH1 0x20 ADD PUSH1 0x40 MLOAD SWAP1 DUP2 ADD PUSH1 0x40 MSTORE DUP1 SWAP3 SWAP2 SWAP1 DUP2 DUP2 MSTORE PUSH1 0x20 ADD DUP3 DUP1 SLOAD PUSH2 0x1ED8 SWAP1 PUSH2 0x4693 JUMP JUMPDEST DUP1 ISZERO PUSH2 0x1F25 JUMPI DUP1 PUSH1 0x1F LT PUSH2 0x1EFA JUMPI PUSH2 0x100 DUP1 DUP4 SLOAD DIV MUL DUP4 MSTORE SWAP2 PUSH1 0x20 ADD SWAP2 PUSH2 0x1F25 JUMP JUMPDEST DUP3 ADD SWAP2 SWAP1 PUSH1 0x0 MSTORE PUSH1 0x20 PUSH1 0x0 KECCAK256 SWAP1 JUMPDEST DUP2 SLOAD DUP2 MSTORE SWAP1 PUSH1 0x1 ADD SWAP1 PUSH1 0x20 ADD DUP1 DUP4 GT PUSH2 0x1F08 JUMPI DUP3 SWAP1 SUB PUSH1 0x1F AND DUP3 ADD SWAP2 JUMPDEST POP POP POP POP POP PUSH2 0x3E13 JUMP JUMPDEST ISZERO PUSH2 0x1F48 JUMPI PUSH1 0x3 DUP3 PUSH2 0x1F41 SWAP2 SWAP1 PUSH2 0x4531 JUMP JUMPDEST SWAP2 POP PUSH2 0x203A JUMP JUMPDEST PUSH2 0x2024 DUP4 PUSH1 0x2 DUP4 PUSH2 0x1F59 SWAP2 SWAP1 PUSH2 0x46FC JUMP JUMPDEST PUSH1 0xFF AND DUP2 MLOAD DUP2 LT PUSH2 0x1F6D JUMPI PUSH2 0x1F6C PUSH2 0x44A9 JUMP JUMPDEST JUMPDEST PUSH1 0x20 MUL PUSH1 0x20 ADD ADD MLOAD PUSH1 0x4 DUP4 PUSH1 0xFF AND DUP2 SLOAD DUP2 LT PUSH2 0x1F8C JUMPI PUSH2 0x1F8B PUSH2 0x44A9 JUMP JUMPDEST JUMPDEST SWAP1 PUSH1 0x0 MSTORE PUSH1 0x20 PUSH1 0x0 KECCAK256 ADD DUP1 SLOAD PUSH2 0x1FA1 SWAP1 PUSH2 0x4693 JUMP JUMPDEST DUP1 PUSH1 0x1F ADD PUSH1 0x20 DUP1 SWAP2 DIV MUL PUSH1 0x20 ADD PUSH1 0x40 MLOAD SWAP1 DUP2 ADD PUSH1 0x40 MSTORE DUP1 SWAP3 SWAP2 SWAP1 DUP2 DUP2 MSTORE PUSH1 0x20 ADD DUP3 DUP1 SLOAD PUSH2 0x1FCD SWAP1 PUSH2 0x4693 JUMP JUMPDEST DUP1 ISZERO PUSH2 0x201A JUMPI DUP1 PUSH1 0x1F LT PUSH2 0x1FEF JUMPI PUSH2 0x100 DUP1 DUP4 SLOAD DIV MUL DUP4 MSTORE SWAP2 PUSH1 0x20 ADD SWAP2 PUSH2 0x201A JUMP JUMPDEST DUP3 ADD SWAP2 SWAP1 PUSH1 0x0 MSTORE PUSH1 0x20 PUSH1 0x0 KECCAK256 SWAP1 JUMPDEST DUP2 SLOAD DUP2 MSTORE SWAP1 PUSH1 0x1 ADD SWAP1 PUSH1 0x20 ADD DUP1 DUP4 GT PUSH2 0x1FFD JUMPI DUP3 SWAP1 SUB PUSH1 0x1F AND DUP3 ADD SWAP2 JUMPDEST POP POP POP POP POP PUSH2 0x3E13 JUMP JUMPDEST ISZERO PUSH2 0x2039 JUMPI PUSH1 0x1 DUP3 PUSH2 0x2036 SWAP2 SWAP1 PUSH2 0x4531 JUMP JUMPDEST SWAP2 POP JUMPDEST JUMPDEST JUMPDEST PUSH2 0x24D8 JUMP JUMPDEST PUSH2 0x2110 DUP4 DUP3 PUSH1 0xFF AND DUP2 MLOAD DUP2 LT PUSH2 0x2059 JUMPI PUSH2 0x2058 PUSH2 0x44A9 JUMP JUMPDEST JUMPDEST PUSH1 0x20 MUL PUSH1 0x20 ADD ADD MLOAD PUSH1 0x4 DUP4 PUSH1 0xFF AND DUP2 SLOAD DUP2 LT PUSH2 0x2078 JUMPI PUSH2 0x2077 PUSH2 0x44A9 JUMP JUMPDEST JUMPDEST SWAP1 PUSH1 0x0 MSTORE PUSH1 0x20 PUSH1 0x0 KECCAK256 ADD DUP1 SLOAD PUSH2 0x208D SWAP1 PUSH2 0x4693 JUMP JUMPDEST DUP1 PUSH1 0x1F ADD PUSH1 0x20 DUP1 SWAP2 DIV MUL PUSH1 0x20 ADD PUSH1 0x40 MLOAD SWAP1 DUP2 ADD PUSH1 0x40 MSTORE DUP1 SWAP3 SWAP2 SWAP1 DUP2 DUP2 MSTORE PUSH1 0x20 ADD DUP3 DUP1 SLOAD PUSH2 0x20B9 SWAP1 PUSH2 0x4693 JUMP JUMPDEST DUP1 ISZERO PUSH2 0x2106 JUMPI DUP1 PUSH1 0x1F LT PUSH2 0x20DB JUMPI PUSH2 0x100 DUP1 DUP4 SLOAD DIV MUL DUP4 MSTORE SWAP2 PUSH1 0x20 ADD SWAP2 PUSH2 0x2106 JUMP JUMPDEST DUP3 ADD SWAP2 SWAP1 PUSH1 0x0 MSTORE PUSH1 0x20 PUSH1 0x0 KECCAK256 SWAP1 JUMPDEST DUP2 SLOAD DUP2 MSTORE SWAP1 PUSH1 0x1 ADD SWAP1 PUSH1 0x20 ADD DUP1 DUP4 GT PUSH2 0x20E9 JUMPI DUP3 SWAP1 SUB PUSH1 0x1F AND DUP3 ADD SWAP2 JUMPDEST POP POP POP POP POP PUSH2 0x3E13 JUMP JUMPDEST ISZERO PUSH2 0x2129 JUMPI PUSH1 0x5 DUP3 PUSH2 0x2122 SWAP2 SWAP1 PUSH2 0x4531 JUMP JUMPDEST SWAP2 POP PUSH2 0x24D7 JUMP JUMPDEST PUSH2 0x2205 DUP4 PUSH1 0x1 DUP4 PUSH2 0x213A SWAP2 SWAP1 PUSH2 0x46FC JUMP JUMPDEST PUSH1 0xFF AND DUP2 MLOAD DUP2 LT PUSH2 0x214E JUMPI PUSH2 0x214D PUSH2 0x44A9 JUMP JUMPDEST JUMPDEST PUSH1 0x20 MUL PUSH1 0x20 ADD ADD MLOAD PUSH1 0x4 DUP4 PUSH1 0xFF AND DUP2 SLOAD DUP2 LT PUSH2 0x216D JUMPI PUSH2 0x216C PUSH2 0x44A9 JUMP JUMPDEST JUMPDEST SWAP1 PUSH1 0x0 MSTORE PUSH1 0x20 PUSH1 0x0 KECCAK256 ADD DUP1 SLOAD PUSH2 0x2182 SWAP1 PUSH2 0x4693 JUMP JUMPDEST DUP1 PUSH1 0x1F ADD PUSH1 0x20 DUP1 SWAP2 DIV MUL PUSH1 0x20 ADD PUSH1 0x40 MLOAD SWAP1 DUP2 ADD PUSH1 0x40 MSTORE DUP1 SWAP3 SWAP2 SWAP1 DUP2 DUP2 MSTORE PUSH1 0x20 ADD DUP3 DUP1 SLOAD PUSH2 0x21AE SWAP1 PUSH2 0x4693 JUMP JUMPDEST DUP1 ISZERO PUSH2 0x21FB JUMPI DUP1 PUSH1 0x1F LT PUSH2 0x21D0 JUMPI PUSH2 0x100 DUP1 DUP4 SLOAD DIV MUL DUP4 MSTORE SWAP2 PUSH1 0x20 ADD SWAP2 PUSH2 0x21FB JUMP JUMPDEST DUP3 ADD SWAP2 SWAP1 PUSH1 0x0 MSTORE PUSH1 0x20 PUSH1 0x0 KECCAK256 SWAP1 JUMPDEST DUP2 SLOAD DUP2 MSTORE SWAP1 PUSH1 0x1 ADD SWAP1 PUSH1 0x20 ADD DUP1 DUP4 GT PUSH2 0x21DE JUMPI DUP3 SWAP1 SUB PUSH1 0x1F AND DUP3 ADD SWAP2 JUMPDEST POP POP POP POP POP PUSH2 0x3E13 JUMP JUMPDEST DUP1 PUSH2 0x22E8 JUMPI POP PUSH2 0x22E7 DUP4 PUSH1 0x1 DUP4 PUSH2 0x221C SWAP2 SWAP1 PUSH2 0x46C5 JUMP JUMPDEST PUSH1 0xFF AND DUP2 MLOAD DUP2 LT PUSH2 0x2230 JUMPI PUSH2 0x222F PUSH2 0x44A9 JUMP JUMPDEST JUMPDEST PUSH1 0x20 MUL PUSH1 0x20 ADD ADD MLOAD PUSH1 0x4 DUP4 PUSH1 0xFF AND DUP2 SLOAD DUP2 LT PUSH2 0x224F JUMPI PUSH2 0x224E PUSH2 0x44A9 JUMP JUMPDEST JUMPDEST SWAP1 PUSH1 0x0 MSTORE PUSH1 0x20 PUSH1 0x0 KECCAK256 ADD DUP1 SLOAD PUSH2 0x2264 SWAP1 PUSH2 0x4693 JUMP JUMPDEST DUP1 PUSH1 0x1F ADD PUSH1 0x20 DUP1 SWAP2 DIV MUL PUSH1 0x20 ADD PUSH1 0x40 MLOAD SWAP1 DUP2 ADD PUSH1 0x40 MSTORE DUP1 SWAP3 SWAP2 SWAP1 DUP2 DUP2 MSTORE PUSH1 0x20 ADD DUP3 DUP1 SLOAD PUSH2 0x2290 SWAP1 PUSH2 0x4693 JUMP JUMPDEST DUP1 ISZERO PUSH2 0x22DD JUMPI DUP1 PUSH1 0x1F LT PUSH2 0x22B2 JUMPI PUSH2 0x100 DUP1 DUP4 SLOAD DIV MUL DUP4 MSTORE SWAP2 PUSH1 0x20 ADD SWAP2 PUSH2 0x22DD JUMP JUMPDEST DUP3 ADD SWAP2 SWAP1 PUSH1 0x0 MSTORE PUSH1 0x20 PUSH1 0x0 KECCAK256 SWAP1 JUMPDEST DUP2 SLOAD DUP2 MSTORE SWAP1 PUSH1 0x1 ADD SWAP1 PUSH1 0x20 ADD DUP1 DUP4 GT PUSH2 0x22C0 JUMPI DUP3 SWAP1 SUB PUSH1 0x1F AND DUP3 ADD SWAP2 JUMPDEST POP POP POP POP POP PUSH2 0x3E13 JUMP JUMPDEST JUMPDEST ISZERO PUSH2 0x2301 JUMPI PUSH1 0x3 DUP3 PUSH2 0x22FA SWAP2 SWAP1 PUSH2 0x4531 JUMP JUMPDEST SWAP2 POP PUSH2 0x24D6 JUMP JUMPDEST PUSH2 0x23DD DUP4 PUSH1 0x2 DUP4 PUSH2 0x2312 SWAP2 SWAP1 PUSH2 0x46FC JUMP JUMPDEST PUSH1 0xFF AND DUP2 MLOAD DUP2 LT PUSH2 0x2326 JUMPI PUSH2 0x2325 PUSH2 0x44A9 JUMP JUMPDEST JUMPDEST PUSH1 0x20 MUL PUSH1 0x20 ADD ADD MLOAD PUSH1 0x4 DUP4 PUSH1 0xFF AND DUP2 SLOAD DUP2 LT PUSH2 0x2345 JUMPI PUSH2 0x2344 PUSH2 0x44A9 JUMP JUMPDEST JUMPDEST SWAP1 PUSH1 0x0 MSTORE PUSH1 0x20 PUSH1 0x0 KECCAK256 ADD DUP1 SLOAD PUSH2 0x235A SWAP1 PUSH2 0x4693 JUMP JUMPDEST DUP1 PUSH1 0x1F ADD PUSH1 0x20 DUP1 SWAP2 DIV MUL PUSH1 0x20 ADD PUSH1 0x40 MLOAD SWAP1 DUP2 ADD PUSH1 0x40 MSTORE DUP1 SWAP3 SWAP2 SWAP1 DUP2 DUP2 MSTORE PUSH1 0x20 ADD DUP3 DUP1 SLOAD PUSH2 0x2386 SWAP1 PUSH2 0x4693 JUMP JUMPDEST DUP1 ISZERO PUSH2 0x23D3 JUMPI DUP1 PUSH1 0x1F LT PUSH2 0x23A8 JUMPI PUSH2 0x100 DUP1 DUP4 SLOAD DIV MUL DUP4 MSTORE SWAP2 PUSH1 0x20 ADD SWAP2 PUSH2 0x23D3 JUMP JUMPDEST DUP3 ADD SWAP2 SWAP1 PUSH1 0x0 MSTORE PUSH1 0x20 PUSH1 0x0 KECCAK256 SWAP1 JUMPDEST DUP2 SLOAD DUP2 MSTORE SWAP1 PUSH1 0x1 ADD SWAP1 PUSH1 0x20 ADD DUP1 DUP4 GT PUSH2 0x23B6 JUMPI DUP3 SWAP1 SUB PUSH1 0x1F AND DUP3 ADD SWAP2 JUMPDEST POP POP POP POP POP PUSH2 0x3E13 JUMP JUMPDEST DUP1 PUSH2 0x24C0 JUMPI POP PUSH2 0x24BF DUP4 PUSH1 0x2 DUP4 PUSH2 0x23F4 SWAP2 SWAP1 PUSH2 0x46C5 JUMP JUMPDEST PUSH1 0xFF AND DUP2 MLOAD DUP2 LT PUSH2 0x2408 JUMPI PUSH2 0x2407 PUSH2 0x44A9 JUMP JUMPDEST JUMPDEST PUSH1 0x20 MUL PUSH1 0x20 ADD ADD MLOAD PUSH1 0x4 DUP4 PUSH1 0xFF AND DUP2 SLOAD DUP2 LT PUSH2 0x2427 JUMPI PUSH2 0x2426 PUSH2 0x44A9 JUMP JUMPDEST JUMPDEST SWAP1 PUSH1 0x0 MSTORE PUSH1 0x20 PUSH1 0x0 KECCAK256 ADD DUP1 SLOAD PUSH2 0x243C SWAP1 PUSH2 0x4693 JUMP JUMPDEST DUP1 PUSH1 0x1F ADD PUSH1 0x20 DUP1 SWAP2 DIV MUL PUSH1 0x20 ADD PUSH1 0x40 MLOAD SWAP1 DUP2 ADD PUSH1 0x40 MSTORE DUP1 SWAP3 SWAP2 SWAP1 DUP2 DUP2 MSTORE PUSH1 0x20 ADD DUP3 DUP1 SLOAD PUSH2 0x2468 SWAP1 PUSH2 0x4693 JUMP JUMPDEST DUP1 ISZERO PUSH2 0x24B5 JUMPI DUP1 PUSH1 0x1F LT PUSH2 0x248A JUMPI PUSH2 0x100 DUP1 DUP4 SLOAD DIV MUL DUP4 MSTORE SWAP2 PUSH1 0x20 ADD SWAP2 PUSH2 0x24B5 JUMP JUMPDEST DUP3 ADD SWAP2 SWAP1 PUSH1 0x0 MSTORE PUSH1 0x20 PUSH1 0x0 KECCAK256 SWAP1 JUMPDEST DUP2 SLOAD DUP2 MSTORE SWAP1 PUSH1 0x1 ADD SWAP1 PUSH1 0x20 ADD DUP1 DUP4 GT PUSH2 0x2498 JUMPI DUP3 SWAP1 SUB PUSH1 0x1F AND DUP3 ADD SWAP2 JUMPDEST POP POP POP POP POP PUSH2 0x3E13 JUMP JUMPDEST JUMPDEST ISZERO PUSH2 0x24D5 JUMPI PUSH1 0x1 DUP3 PUSH2 0x24D2 SWAP2 SWAP1 PUSH2 0x4531 JUMP JUMPDEST SWAP2 POP JUMPDEST JUMPDEST JUMPDEST JUMPDEST JUMPDEST JUMPDEST JUMPDEST DUP1 DUP1 PUSH2 0x24E6 SWAP1 PUSH2 0x4507 JUMP JUMPDEST SWAP2 POP POP PUSH2 0x12C2 JUMP JUMPDEST POP DUP1 PUSH1 0x0 DUP1 PUSH1 0x1 DUP7 PUSH1 0xFF AND DUP2 SLOAD DUP2 LT PUSH2 0x250A JUMPI PUSH2 0x2509 PUSH2 0x44A9 JUMP JUMPDEST JUMPDEST SWAP1 PUSH1 0x0 MSTORE PUSH1 0x20 PUSH1 0x0 KECCAK256 ADD PUSH1 0x0 SWAP1 SLOAD SWAP1 PUSH2 0x100 EXP SWAP1 DIV PUSH20 0xFFFFFFFFFFFFFFFFFFFFFFFFFFFFFFFFFFFFFFFF AND PUSH20 0xFFFFFFFFFFFFFFFFFFFFFFFFFFFFFFFFFFFFFFFF AND PUSH20 0xFFFFFFFFFFFFFFFFFFFFFFFFFFFFFFFFFFFFFFFF AND DUP2 MSTORE PUSH1 0x20 ADD SWAP1 DUP2 MSTORE PUSH1 0x20 ADD PUSH1 0x0 KECCAK256 PUSH1 0x3 ADD DUP2 SWAP1 SSTORE POP POP POP DUP1 DUP1 PUSH2 0x2583 SWAP1 PUSH2 0x4507 JUMP JUMPDEST SWAP2 POP POP PUSH2 0x1158 JUMP JUMPDEST POP JUMP JUMPDEST PUSH1 0x0 JUMPDEST PUSH1 0x1 DUP1 SLOAD SWAP1 POP DUP2 PUSH1 0xFF AND LT ISZERO PUSH2 0x39C4 JUMPI PUSH1 0x0 DUP1 PUSH1 0x0 PUSH1 0x1 DUP5 PUSH1 0xFF AND DUP2 SLOAD DUP2 LT PUSH2 0x25BD JUMPI PUSH2 0x25BC PUSH2 0x44A9 JUMP JUMPDEST JUMPDEST SWAP1 PUSH1 0x0 MSTORE PUSH1 0x20 PUSH1 0x0 KECCAK256 ADD PUSH1 0x0 SWAP1 SLOAD SWAP1 PUSH2 0x100 EXP SWAP1 DIV PUSH20 0xFFFFFFFFFFFFFFFFFFFFFFFFFFFFFFFFFFFFFFFF AND PUSH20 0xFFFFFFFFFFFFFFFFFFFFFFFFFFFFFFFFFFFFFFFF AND PUSH20 0xFFFFFFFFFFFFFFFFFFFFFFFFFFFFFFFFFFFFFFFF AND DUP2 MSTORE PUSH1 0x20 ADD SWAP1 DUP2 MSTORE PUSH1 0x20 ADD PUSH1 0x0 KECCAK256 PUSH1 0x1 ADD DUP1 SLOAD DUP1 PUSH1 0x20 MUL PUSH1 0x20 ADD PUSH1 0x40 MLOAD SWAP1 DUP2 ADD PUSH1 0x40 MSTORE DUP1 SWAP3 SWAP2 SWAP1 DUP2 DUP2 MSTORE PUSH1 0x20 ADD PUSH1 0x0 SWAP1 JUMPDEST DUP3 DUP3 LT ISZERO PUSH2 0x26F1 JUMPI DUP4 DUP3 SWAP1 PUSH1 0x0 MSTORE PUSH1 0x20 PUSH1 0x0 KECCAK256 ADD DUP1 SLOAD PUSH2 0x2664 SWAP1 PUSH2 0x4693 JUMP JUMPDEST DUP1 PUSH1 0x1F ADD PUSH1 0x20 DUP1 SWAP2 DIV MUL PUSH1 0x20 ADD PUSH1 0x40 MLOAD SWAP1 DUP2 ADD PUSH1 0x40 MSTORE DUP1 SWAP3 SWAP2 SWAP1 DUP2 DUP2 MSTORE PUSH1 0x20 ADD DUP3 DUP1 SLOAD PUSH2 0x2690 SWAP1 PUSH2 0x4693 JUMP JUMPDEST DUP1 ISZERO PUSH2 0x26DD JUMPI DUP1 PUSH1 0x1F LT PUSH2 0x26B2 JUMPI PUSH2 0x100 DUP1 DUP4 SLOAD DIV MUL DUP4 MSTORE SWAP2 PUSH1 0x20 ADD SWAP2 PUSH2 0x26DD JUMP JUMPDEST DUP3 ADD SWAP2 SWAP1 PUSH1 0x0 MSTORE PUSH1 0x20 PUSH1 0x0 KECCAK256 SWAP1 JUMPDEST DUP2 SLOAD DUP2 MSTORE SWAP1 PUSH1 0x1 ADD SWAP1 PUSH1 0x20 ADD DUP1 DUP4 GT PUSH2 0x26C0 JUMPI DUP3 SWAP1 SUB PUSH1 0x1F AND DUP3 ADD SWAP2 JUMPDEST POP POP POP POP POP DUP2 MSTORE PUSH1 0x20 ADD SWAP1 PUSH1 0x1 ADD SWAP1 PUSH2 0x2645 JUMP JUMPDEST POP POP POP POP SWAP1 POP PUSH1 0x0 DUP1 JUMPDEST PUSH1 0x5 DUP1 SLOAD SWAP1 POP DUP2 PUSH1 0xFF AND LT ISZERO PUSH2 0x3927 JUMPI PUSH1 0x1 DUP2 PUSH1 0xFF AND LT ISZERO PUSH2 0x29ED JUMPI PUSH2 0x27E7 DUP4 DUP3 PUSH1 0xFF AND DUP2 MLOAD DUP2 LT PUSH2 0x2730 JUMPI PUSH2 0x272F PUSH2 0x44A9 JUMP JUMPDEST JUMPDEST PUSH1 0x20 MUL PUSH1 0x20 ADD ADD MLOAD PUSH1 0x5 DUP4 PUSH1 0xFF AND DUP2 SLOAD DUP2 LT PUSH2 0x274F JUMPI PUSH2 0x274E PUSH2 0x44A9 JUMP JUMPDEST JUMPDEST SWAP1 PUSH1 0x0 MSTORE PUSH1 0x20 PUSH1 0x0 KECCAK256 ADD DUP1 SLOAD PUSH2 0x2764 SWAP1 PUSH2 0x4693 JUMP JUMPDEST DUP1 PUSH1 0x1F ADD PUSH1 0x20 DUP1 SWAP2 DIV MUL PUSH1 0x20 ADD PUSH1 0x40 MLOAD SWAP1 DUP2 ADD PUSH1 0x40 MSTORE DUP1 SWAP3 SWAP2 SWAP1 DUP2 DUP2 MSTORE PUSH1 0x20 ADD DUP3 DUP1 SLOAD PUSH2 0x2790 SWAP1 PUSH2 0x4693 JUMP JUMPDEST DUP1 ISZERO PUSH2 0x27DD JUMPI DUP1 PUSH1 0x1F LT PUSH2 0x27B2 JUMPI PUSH2 0x100 DUP1 DUP4 SLOAD DIV MUL DUP4 MSTORE SWAP2 PUSH1 0x20 ADD SWAP2 PUSH2 0x27DD JUMP JUMPDEST DUP3 ADD SWAP2 SWAP1 PUSH1 0x0 MSTORE PUSH1 0x20 PUSH1 0x0 KECCAK256 SWAP1 JUMPDEST DUP2 SLOAD DUP2 MSTORE SWAP1 PUSH1 0x1 ADD SWAP1 PUSH1 0x20 ADD DUP1 DUP4 GT PUSH2 0x27C0 JUMPI DUP3 SWAP1 SUB PUSH1 0x1F AND DUP3 ADD SWAP2 JUMPDEST POP POP POP POP POP PUSH2 0x3E13 JUMP JUMPDEST ISZERO PUSH2 0x2800 JUMPI PUSH1 0x5 DUP3 PUSH2 0x27F9 SWAP2 SWAP1 PUSH2 0x4531 JUMP JUMPDEST SWAP2 POP PUSH2 0x29E8 JUMP JUMPDEST PUSH2 0x28DC DUP4 PUSH1 0x1 DUP4 PUSH2 0x2811 SWAP2 SWAP1 PUSH2 0x46C5 JUMP JUMPDEST PUSH1 0xFF AND DUP2 MLOAD DUP2 LT PUSH2 0x2825 JUMPI PUSH2 0x2824 PUSH2 0x44A9 JUMP JUMPDEST JUMPDEST PUSH1 0x20 MUL PUSH1 0x20 ADD ADD MLOAD PUSH1 0x5 DUP4 PUSH1 0xFF AND DUP2 SLOAD DUP2 LT PUSH2 0x2844 JUMPI PUSH2 0x2843 PUSH2 0x44A9 JUMP JUMPDEST JUMPDEST SWAP1 PUSH1 0x0 MSTORE PUSH1 0x20 PUSH1 0x0 KECCAK256 ADD DUP1 SLOAD PUSH2 0x2859 SWAP1 PUSH2 0x4693 JUMP JUMPDEST DUP1 PUSH1 0x1F ADD PUSH1 0x20 DUP1 SWAP2 DIV MUL PUSH1 0x20 ADD PUSH1 0x40 MLOAD SWAP1 DUP2 ADD PUSH1 0x40 MSTORE DUP1 SWAP3 SWAP2 SWAP1 DUP2 DUP2 MSTORE PUSH1 0x20 ADD DUP3 DUP1 SLOAD PUSH2 0x2885 SWAP1 PUSH2 0x4693 JUMP JUMPDEST DUP1 ISZERO PUSH2 0x28D2 JUMPI DUP1 PUSH1 0x1F LT PUSH2 0x28A7 JUMPI PUSH2 0x100 DUP1 DUP4 SLOAD DIV MUL DUP4 MSTORE SWAP2 PUSH1 0x20 ADD SWAP2 PUSH2 0x28D2 JUMP JUMPDEST DUP3 ADD SWAP2 SWAP1 PUSH1 0x0 MSTORE PUSH1 0x20 PUSH1 0x0 KECCAK256 SWAP1 JUMPDEST DUP2 SLOAD DUP2 MSTORE SWAP1 PUSH1 0x1 ADD SWAP1 PUSH1 0x20 ADD DUP1 DUP4 GT PUSH2 0x28B5 JUMPI DUP3 SWAP1 SUB PUSH1 0x1F AND DUP3 ADD SWAP2 JUMPDEST POP POP POP POP POP PUSH2 0x3E13 JUMP JUMPDEST ISZERO PUSH2 0x28F5 JUMPI PUSH1 0x3 DUP3 PUSH2 0x28EE SWAP2 SWAP1 PUSH2 0x4531 JUMP JUMPDEST SWAP2 POP PUSH2 0x29E7 JUMP JUMPDEST PUSH2 0x29D1 DUP4 PUSH1 0x2 DUP4 PUSH2 0x2906 SWAP2 SWAP1 PUSH2 0x46C5 JUMP JUMPDEST PUSH1 0xFF AND DUP2 MLOAD DUP2 LT PUSH2 0x291A JUMPI PUSH2 0x2919 PUSH2 0x44A9 JUMP JUMPDEST JUMPDEST PUSH1 0x20 MUL PUSH1 0x20 ADD ADD MLOAD PUSH1 0x5 DUP4 PUSH1 0xFF AND DUP2 SLOAD DUP2 LT PUSH2 0x2939 JUMPI PUSH2 0x2938 PUSH2 0x44A9 JUMP JUMPDEST JUMPDEST SWAP1 PUSH1 0x0 MSTORE PUSH1 0x20 PUSH1 0x0 KECCAK256 ADD DUP1 SLOAD PUSH2 0x294E SWAP1 PUSH2 0x4693 JUMP JUMPDEST DUP1 PUSH1 0x1F ADD PUSH1 0x20 DUP1 SWAP2 DIV MUL PUSH1 0x20 ADD PUSH1 0x40 MLOAD SWAP1 DUP2 ADD PUSH1 0x40 MSTORE DUP1 SWAP3 SWAP2 SWAP1 DUP2 DUP2 MSTORE PUSH1 0x20 ADD DUP3 DUP1 SLOAD PUSH2 0x297A SWAP1 PUSH2 0x4693 JUMP JUMPDEST DUP1 ISZERO PUSH2 0x29C7 JUMPI DUP1 PUSH1 0x1F LT PUSH2 0x299C JUMPI PUSH2 0x100 DUP1 DUP4 SLOAD DIV MUL DUP4 MSTORE SWAP2 PUSH1 0x20 ADD SWAP2 PUSH2 0x29C7 JUMP JUMPDEST DUP3 ADD SWAP2 SWAP1 PUSH1 0x0 MSTORE PUSH1 0x20 PUSH1 0x0 KECCAK256 SWAP1 JUMPDEST DUP2 SLOAD DUP2 MSTORE SWAP1 PUSH1 0x1 ADD SWAP1 PUSH1 0x20 ADD DUP1 DUP4 GT PUSH2 0x29AA JUMPI DUP3 SWAP1 SUB PUSH1 0x1F AND DUP3 ADD SWAP2 JUMPDEST POP POP POP POP POP PUSH2 0x3E13 JUMP JUMPDEST ISZERO PUSH2 0x29E6 JUMPI PUSH1 0x1 DUP3 PUSH2 0x29E3 SWAP2 SWAP1 PUSH2 0x4531 JUMP JUMPDEST SWAP2 POP JUMPDEST JUMPDEST JUMPDEST PUSH2 0x3914 JUMP JUMPDEST PUSH1 0x2 DUP2 PUSH1 0xFF AND LT ISZERO PUSH2 0x2DB2 JUMPI PUSH2 0x2AC9 DUP4 DUP3 PUSH1 0xFF AND DUP2 MLOAD DUP2 LT PUSH2 0x2A12 JUMPI PUSH2 0x2A11 PUSH2 0x44A9 JUMP JUMPDEST JUMPDEST PUSH1 0x20 MUL PUSH1 0x20 ADD ADD MLOAD PUSH1 0x5 DUP4 PUSH1 0xFF AND DUP2 SLOAD DUP2 LT PUSH2 0x2A31 JUMPI PUSH2 0x2A30 PUSH2 0x44A9 JUMP JUMPDEST JUMPDEST SWAP1 PUSH1 0x0 MSTORE PUSH1 0x20 PUSH1 0x0 KECCAK256 ADD DUP1 SLOAD PUSH2 0x2A46 SWAP1 PUSH2 0x4693 JUMP JUMPDEST DUP1 PUSH1 0x1F ADD PUSH1 0x20 DUP1 SWAP2 DIV MUL PUSH1 0x20 ADD PUSH1 0x40 MLOAD SWAP1 DUP2 ADD PUSH1 0x40 MSTORE DUP1 SWAP3 SWAP2 SWAP1 DUP2 DUP2 MSTORE PUSH1 0x20 ADD DUP3 DUP1 SLOAD PUSH2 0x2A72 SWAP1 PUSH2 0x4693 JUMP JUMPDEST DUP1 ISZERO PUSH2 0x2ABF JUMPI DUP1 PUSH1 0x1F LT PUSH2 0x2A94 JUMPI PUSH2 0x100 DUP1 DUP4 SLOAD DIV MUL DUP4 MSTORE SWAP2 PUSH1 0x20 ADD SWAP2 PUSH2 0x2ABF JUMP JUMPDEST DUP3 ADD SWAP2 SWAP1 PUSH1 0x0 MSTORE PUSH1 0x20 PUSH1 0x0 KECCAK256 SWAP1 JUMPDEST DUP2 SLOAD DUP2 MSTORE SWAP1 PUSH1 0x1 ADD SWAP1 PUSH1 0x20 ADD DUP1 DUP4 GT PUSH2 0x2AA2 JUMPI DUP3 SWAP1 SUB PUSH1 0x1F AND DUP3 ADD SWAP2 JUMPDEST POP POP POP POP POP PUSH2 0x3E13 JUMP JUMPDEST ISZERO PUSH2 0x2AE2 JUMPI PUSH1 0x5 DUP3 PUSH2 0x2ADB SWAP2 SWAP1 PUSH2 0x4531 JUMP JUMPDEST SWAP2 POP PUSH2 0x2DAD JUMP JUMPDEST PUSH2 0x2BBE DUP4 PUSH1 0x1 DUP4 PUSH2 0x2AF3 SWAP2 SWAP1 PUSH2 0x46FC JUMP JUMPDEST PUSH1 0xFF AND DUP2 MLOAD DUP2 LT PUSH2 0x2B07 JUMPI PUSH2 0x2B06 PUSH2 0x44A9 JUMP JUMPDEST JUMPDEST PUSH1 0x20 MUL PUSH1 0x20 ADD ADD MLOAD PUSH1 0x5 DUP4 PUSH1 0xFF AND DUP2 SLOAD DUP2 LT PUSH2 0x2B26 JUMPI PUSH2 0x2B25 PUSH2 0x44A9 JUMP JUMPDEST JUMPDEST SWAP1 PUSH1 0x0 MSTORE PUSH1 0x20 PUSH1 0x0 KECCAK256 ADD DUP1 SLOAD PUSH2 0x2B3B SWAP1 PUSH2 0x4693 JUMP JUMPDEST DUP1 PUSH1 0x1F ADD PUSH1 0x20 DUP1 SWAP2 DIV MUL PUSH1 0x20 ADD PUSH1 0x40 MLOAD SWAP1 DUP2 ADD PUSH1 0x40 MSTORE DUP1 SWAP3 SWAP2 SWAP1 DUP2 DUP2 MSTORE PUSH1 0x20 ADD DUP3 DUP1 SLOAD PUSH2 0x2B67 SWAP1 PUSH2 0x4693 JUMP JUMPDEST DUP1 ISZERO PUSH2 0x2BB4 JUMPI DUP1 PUSH1 0x1F LT PUSH2 0x2B89 JUMPI PUSH2 0x100 DUP1 DUP4 SLOAD DIV MUL DUP4 MSTORE SWAP2 PUSH1 0x20 ADD SWAP2 PUSH2 0x2BB4 JUMP JUMPDEST DUP3 ADD SWAP2 SWAP1 PUSH1 0x0 MSTORE PUSH1 0x20 PUSH1 0x0 KECCAK256 SWAP1 JUMPDEST DUP2 SLOAD DUP2 MSTORE SWAP1 PUSH1 0x1 ADD SWAP1 PUSH1 0x20 ADD DUP1 DUP4 GT PUSH2 0x2B97 JUMPI DUP3 SWAP1 SUB PUSH1 0x1F AND DUP3 ADD SWAP2 JUMPDEST POP POP POP POP POP PUSH2 0x3E13 JUMP JUMPDEST DUP1 PUSH2 0x2CA1 JUMPI POP PUSH2 0x2CA0 DUP4 PUSH1 0x1 DUP4 PUSH2 0x2BD5 SWAP2 SWAP1 PUSH2 0x46C5 JUMP JUMPDEST PUSH1 0xFF AND DUP2 MLOAD DUP2 LT PUSH2 0x2BE9 JUMPI PUSH2 0x2BE8 PUSH2 0x44A9 JUMP JUMPDEST JUMPDEST PUSH1 0x20 MUL PUSH1 0x20 ADD ADD MLOAD PUSH1 0x5 DUP4 PUSH1 0xFF AND DUP2 SLOAD DUP2 LT PUSH2 0x2C08 JUMPI PUSH2 0x2C07 PUSH2 0x44A9 JUMP JUMPDEST JUMPDEST SWAP1 PUSH1 0x0 MSTORE PUSH1 0x20 PUSH1 0x0 KECCAK256 ADD DUP1 SLOAD PUSH2 0x2C1D SWAP1 PUSH2 0x4693 JUMP JUMPDEST DUP1 PUSH1 0x1F ADD PUSH1 0x20 DUP1 SWAP2 DIV MUL PUSH1 0x20 ADD PUSH1 0x40 MLOAD SWAP1 DUP2 ADD PUSH1 0x40 MSTORE DUP1 SWAP3 SWAP2 SWAP1 DUP2 DUP2 MSTORE PUSH1 0x20 ADD DUP3 DUP1 SLOAD PUSH2 0x2C49 SWAP1 PUSH2 0x4693 JUMP JUMPDEST DUP1 ISZERO PUSH2 0x2C96 JUMPI DUP1 PUSH1 0x1F LT PUSH2 0x2C6B JUMPI PUSH2 0x100 DUP1 DUP4 SLOAD DIV MUL DUP4 MSTORE SWAP2 PUSH1 0x20 ADD SWAP2 PUSH2 0x2C96 JUMP JUMPDEST DUP3 ADD SWAP2 SWAP1 PUSH1 0x0 MSTORE PUSH1 0x20 PUSH1 0x0 KECCAK256 SWAP1 JUMPDEST DUP2 SLOAD DUP2 MSTORE SWAP1 PUSH1 0x1 ADD SWAP1 PUSH1 0x20 ADD DUP1 DUP4 GT PUSH2 0x2C79 JUMPI DUP3 SWAP1 SUB PUSH1 0x1F AND DUP3 ADD SWAP2 JUMPDEST POP POP POP POP POP PUSH2 0x3E13 JUMP JUMPDEST JUMPDEST ISZERO PUSH2 0x2CBA JUMPI PUSH1 0x3 DUP3 PUSH2 0x2CB3 SWAP2 SWAP1 PUSH2 0x4531 JUMP JUMPDEST SWAP2 POP PUSH2 0x2DAC JUMP JUMPDEST PUSH2 0x2D96 DUP4 PUSH1 0x2 DUP4 PUSH2 0x2CCB SWAP2 SWAP1 PUSH2 0x46C5 JUMP JUMPDEST PUSH1 0xFF AND DUP2 MLOAD DUP2 LT PUSH2 0x2CDF JUMPI PUSH2 0x2CDE PUSH2 0x44A9 JUMP JUMPDEST JUMPDEST PUSH1 0x20 MUL PUSH1 0x20 ADD ADD MLOAD PUSH1 0x5 DUP4 PUSH1 0xFF AND DUP2 SLOAD DUP2 LT PUSH2 0x2CFE JUMPI PUSH2 0x2CFD PUSH2 0x44A9 JUMP JUMPDEST JUMPDEST SWAP1 PUSH1 0x0 MSTORE PUSH1 0x20 PUSH1 0x0 KECCAK256 ADD DUP1 SLOAD PUSH2 0x2D13 SWAP1 PUSH2 0x4693 JUMP JUMPDEST DUP1 PUSH1 0x1F ADD PUSH1 0x20 DUP1 SWAP2 DIV MUL PUSH1 0x20 ADD PUSH1 0x40 MLOAD SWAP1 DUP2 ADD PUSH1 0x40 MSTORE DUP1 SWAP3 SWAP2 SWAP1 DUP2 DUP2 MSTORE PUSH1 0x20 ADD DUP3 DUP1 SLOAD PUSH2 0x2D3F SWAP1 PUSH2 0x4693 JUMP JUMPDEST DUP1 ISZERO PUSH2 0x2D8C JUMPI DUP1 PUSH1 0x1F LT PUSH2 0x2D61 JUMPI PUSH2 0x100 DUP1 DUP4 SLOAD DIV MUL DUP4 MSTORE SWAP2 PUSH1 0x20 ADD SWAP2 PUSH2 0x2D8C JUMP JUMPDEST DUP3 ADD SWAP2 SWAP1 PUSH1 0x0 MSTORE PUSH1 0x20 PUSH1 0x0 KECCAK256 SWAP1 JUMPDEST DUP2 SLOAD DUP2 MSTORE SWAP1 PUSH1 0x1 ADD SWAP1 PUSH1 0x20 ADD DUP1 DUP4 GT PUSH2 0x2D6F JUMPI DUP3 SWAP1 SUB PUSH1 0x1F AND DUP3 ADD SWAP2 JUMPDEST POP POP POP POP POP PUSH2 0x3E13 JUMP JUMPDEST ISZERO PUSH2 0x2DAB JUMPI PUSH1 0x1 DUP3 PUSH2 0x2DA8 SWAP2 SWAP1 PUSH2 0x4531 JUMP JUMPDEST SWAP2 POP JUMPDEST JUMPDEST JUMPDEST PUSH2 0x3913 JUMP JUMPDEST PUSH1 0x2 PUSH1 0x5 DUP1 SLOAD SWAP1 POP PUSH2 0x2DC4 SWAP2 SWAP1 PUSH2 0x4730 JUMP JUMPDEST DUP2 PUSH1 0xFF AND EQ ISZERO PUSH2 0x3187 JUMPI PUSH2 0x2E9E DUP4 DUP3 PUSH1 0xFF AND DUP2 MLOAD DUP2 LT PUSH2 0x2DE7 JUMPI PUSH2 0x2DE6 PUSH2 0x44A9 JUMP JUMPDEST JUMPDEST PUSH1 0x20 MUL PUSH1 0x20 ADD ADD MLOAD PUSH1 0x5 DUP4 PUSH1 0xFF AND DUP2 SLOAD DUP2 LT PUSH2 0x2E06 JUMPI PUSH2 0x2E05 PUSH2 0x44A9 JUMP JUMPDEST JUMPDEST SWAP1 PUSH1 0x0 MSTORE PUSH1 0x20 PUSH1 0x0 KECCAK256 ADD DUP1 SLOAD PUSH2 0x2E1B SWAP1 PUSH2 0x4693 JUMP JUMPDEST DUP1 PUSH1 0x1F ADD PUSH1 0x20 DUP1 SWAP2 DIV MUL PUSH1 0x20 ADD PUSH1 0x40 MLOAD SWAP1 DUP2 ADD PUSH1 0x40 MSTORE DUP1 SWAP3 SWAP2 SWAP1 DUP2 DUP2 MSTORE PUSH1 0x20 ADD DUP3 DUP1 SLOAD PUSH2 0x2E47 SWAP1 PUSH2 0x4693 JUMP JUMPDEST DUP1 ISZERO PUSH2 0x2E94 JUMPI DUP1 PUSH1 0x1F LT PUSH2 0x2E69 JUMPI PUSH2 0x100 DUP1 DUP4 SLOAD DIV MUL DUP4 MSTORE SWAP2 PUSH1 0x20 ADD SWAP2 PUSH2 0x2E94 JUMP JUMPDEST DUP3 ADD SWAP2 SWAP1 PUSH1 0x0 MSTORE PUSH1 0x20 PUSH1 0x0 KECCAK256 SWAP1 JUMPDEST DUP2 SLOAD DUP2 MSTORE SWAP1 PUSH1 0x1 ADD SWAP1 PUSH1 0x20 ADD DUP1 DUP4 GT PUSH2 0x2E77 JUMPI DUP3 SWAP1 SUB PUSH1 0x1F AND DUP3 ADD SWAP2 JUMPDEST POP POP POP POP POP PUSH2 0x3E13 JUMP JUMPDEST ISZERO PUSH2 0x2EB7 JUMPI PUSH1 0x5 DUP3 PUSH2 0x2EB0 SWAP2 SWAP1 PUSH2 0x4531 JUMP JUMPDEST SWAP2 POP PUSH2 0x3182 JUMP JUMPDEST PUSH2 0x2F93 DUP4 PUSH1 0x1 DUP4 PUSH2 0x2EC8 SWAP2 SWAP1 PUSH2 0x46FC JUMP JUMPDEST PUSH1 0xFF AND DUP2 MLOAD DUP2 LT PUSH2 0x2EDC JUMPI PUSH2 0x2EDB PUSH2 0x44A9 JUMP JUMPDEST JUMPDEST PUSH1 0x20 MUL PUSH1 0x20 ADD ADD MLOAD PUSH1 0x5 DUP4 PUSH1 0xFF AND DUP2 SLOAD DUP2 LT PUSH2 0x2EFB JUMPI PUSH2 0x2EFA PUSH2 0x44A9 JUMP JUMPDEST JUMPDEST SWAP1 PUSH1 0x0 MSTORE PUSH1 0x20 PUSH1 0x0 KECCAK256 ADD DUP1 SLOAD PUSH2 0x2F10 SWAP1 PUSH2 0x4693 JUMP JUMPDEST DUP1 PUSH1 0x1F ADD PUSH1 0x20 DUP1 SWAP2 DIV MUL PUSH1 0x20 ADD PUSH1 0x40 MLOAD SWAP1 DUP2 ADD PUSH1 0x40 MSTORE DUP1 SWAP3 SWAP2 SWAP1 DUP2 DUP2 MSTORE PUSH1 0x20 ADD DUP3 DUP1 SLOAD PUSH2 0x2F3C SWAP1 PUSH2 0x4693 JUMP JUMPDEST DUP1 ISZERO PUSH2 0x2F89 JUMPI DUP1 PUSH1 0x1F LT PUSH2 0x2F5E JUMPI PUSH2 0x100 DUP1 DUP4 SLOAD DIV MUL DUP4 MSTORE SWAP2 PUSH1 0x20 ADD SWAP2 PUSH2 0x2F89 JUMP JUMPDEST DUP3 ADD SWAP2 SWAP1 PUSH1 0x0 MSTORE PUSH1 0x20 PUSH1 0x0 KECCAK256 SWAP1 JUMPDEST DUP2 SLOAD DUP2 MSTORE SWAP1 PUSH1 0x1 ADD SWAP1 PUSH1 0x20 ADD DUP1 DUP4 GT PUSH2 0x2F6C JUMPI DUP3 SWAP1 SUB PUSH1 0x1F AND DUP3 ADD SWAP2 JUMPDEST POP POP POP POP POP PUSH2 0x3E13 JUMP JUMPDEST DUP1 PUSH2 0x3076 JUMPI POP PUSH2 0x3075 DUP4 PUSH1 0x1 DUP4 PUSH2 0x2FAA SWAP2 SWAP1 PUSH2 0x46C5 JUMP JUMPDEST PUSH1 0xFF AND DUP2 MLOAD DUP2 LT PUSH2 0x2FBE JUMPI PUSH2 0x2FBD PUSH2 0x44A9 JUMP JUMPDEST JUMPDEST PUSH1 0x20 MUL PUSH1 0x20 ADD ADD MLOAD PUSH1 0x5 DUP4 PUSH1 0xFF AND DUP2 SLOAD DUP2 LT PUSH2 0x2FDD JUMPI PUSH2 0x2FDC PUSH2 0x44A9 JUMP JUMPDEST JUMPDEST SWAP1 PUSH1 0x0 MSTORE PUSH1 0x20 PUSH1 0x0 KECCAK256 ADD DUP1 SLOAD PUSH2 0x2FF2 SWAP1 PUSH2 0x4693 JUMP JUMPDEST DUP1 PUSH1 0x1F ADD PUSH1 0x20 DUP1 SWAP2 DIV MUL PUSH1 0x20 ADD PUSH1 0x40 MLOAD SWAP1 DUP2 ADD PUSH1 0x40 MSTORE DUP1 SWAP3 SWAP2 SWAP1 DUP2 DUP2 MSTORE PUSH1 0x20 ADD DUP3 DUP1 SLOAD PUSH2 0x301E SWAP1 PUSH2 0x4693 JUMP JUMPDEST DUP1 ISZERO PUSH2 0x306B JUMPI DUP1 PUSH1 0x1F LT PUSH2 0x3040 JUMPI PUSH2 0x100 DUP1 DUP4 SLOAD DIV MUL DUP4 MSTORE SWAP2 PUSH1 0x20 ADD SWAP2 PUSH2 0x306B JUMP JUMPDEST DUP3 ADD SWAP2 SWAP1 PUSH1 0x0 MSTORE PUSH1 0x20 PUSH1 0x0 KECCAK256 SWAP1 JUMPDEST DUP2 SLOAD DUP2 MSTORE SWAP1 PUSH1 0x1 ADD SWAP1 PUSH1 0x20 ADD DUP1 DUP4 GT PUSH2 0x304E JUMPI DUP3 SWAP1 SUB PUSH1 0x1F AND DUP3 ADD SWAP2 JUMPDEST POP POP POP POP POP PUSH2 0x3E13 JUMP JUMPDEST JUMPDEST ISZERO PUSH2 0x308F JUMPI PUSH1 0x3 DUP3 PUSH2 0x3088 SWAP2 SWAP1 PUSH2 0x4531 JUMP JUMPDEST SWAP2 POP PUSH2 0x3181 JUMP JUMPDEST PUSH2 0x316B DUP4 PUSH1 0x2 DUP4 PUSH2 0x30A0 SWAP2 SWAP1 PUSH2 0x46FC JUMP JUMPDEST PUSH1 0xFF AND DUP2 MLOAD DUP2 LT PUSH2 0x30B4 JUMPI PUSH2 0x30B3 PUSH2 0x44A9 JUMP JUMPDEST JUMPDEST PUSH1 0x20 MUL PUSH1 0x20 ADD ADD MLOAD PUSH1 0x5 DUP4 PUSH1 0xFF AND DUP2 SLOAD DUP2 LT PUSH2 0x30D3 JUMPI PUSH2 0x30D2 PUSH2 0x44A9 JUMP JUMPDEST JUMPDEST SWAP1 PUSH1 0x0 MSTORE PUSH1 0x20 PUSH1 0x0 KECCAK256 ADD DUP1 SLOAD PUSH2 0x30E8 SWAP1 PUSH2 0x4693 JUMP JUMPDEST DUP1 PUSH1 0x1F ADD PUSH1 0x20 DUP1 SWAP2 DIV MUL PUSH1 0x20 ADD PUSH1 0x40 MLOAD SWAP1 DUP2 ADD PUSH1 0x40 MSTORE DUP1 SWAP3 SWAP2 SWAP1 DUP2 DUP2 MSTORE PUSH1 0x20 ADD DUP3 DUP1 SLOAD PUSH2 0x3114 SWAP1 PUSH2 0x4693 JUMP JUMPDEST DUP1 ISZERO PUSH2 0x3161 JUMPI DUP1 PUSH1 0x1F LT PUSH2 0x3136 JUMPI PUSH2 0x100 DUP1 DUP4 SLOAD DIV MUL DUP4 MSTORE SWAP2 PUSH1 0x20 ADD SWAP2 PUSH2 0x3161 JUMP JUMPDEST DUP3 ADD SWAP2 SWAP1 PUSH1 0x0 MSTORE PUSH1 0x20 PUSH1 0x0 KECCAK256 SWAP1 JUMPDEST DUP2 SLOAD DUP2 MSTORE SWAP1 PUSH1 0x1 ADD SWAP1 PUSH1 0x20 ADD DUP1 DUP4 GT PUSH2 0x3144 JUMPI DUP3 SWAP1 SUB PUSH1 0x1F AND DUP3 ADD SWAP2 JUMPDEST POP POP POP POP POP PUSH2 0x3E13 JUMP JUMPDEST ISZERO PUSH2 0x3180 JUMPI PUSH1 0x1 DUP3 PUSH2 0x317D SWAP2 SWAP1 PUSH2 0x4531 JUMP JUMPDEST SWAP2 POP JUMPDEST JUMPDEST JUMPDEST PUSH2 0x3912 JUMP JUMPDEST PUSH1 0x1 PUSH1 0x5 DUP1 SLOAD SWAP1 POP PUSH2 0x3199 SWAP2 SWAP1 PUSH2 0x4730 JUMP JUMPDEST DUP2 PUSH1 0xFF AND EQ ISZERO PUSH2 0x3479 JUMPI PUSH2 0x3273 DUP4 DUP3 PUSH1 0xFF AND DUP2 MLOAD DUP2 LT PUSH2 0x31BC JUMPI PUSH2 0x31BB PUSH2 0x44A9 JUMP JUMPDEST JUMPDEST PUSH1 0x20 MUL PUSH1 0x20 ADD ADD MLOAD PUSH1 0x5 DUP4 PUSH1 0xFF AND DUP2 SLOAD DUP2 LT PUSH2 0x31DB JUMPI PUSH2 0x31DA PUSH2 0x44A9 JUMP JUMPDEST JUMPDEST SWAP1 PUSH1 0x0 MSTORE PUSH1 0x20 PUSH1 0x0 KECCAK256 ADD DUP1 SLOAD PUSH2 0x31F0 SWAP1 PUSH2 0x4693 JUMP JUMPDEST DUP1 PUSH1 0x1F ADD PUSH1 0x20 DUP1 SWAP2 DIV MUL PUSH1 0x20 ADD PUSH1 0x40 MLOAD SWAP1 DUP2 ADD PUSH1 0x40 MSTORE DUP1 SWAP3 SWAP2 SWAP1 DUP2 DUP2 MSTORE PUSH1 0x20 ADD DUP3 DUP1 SLOAD PUSH2 0x321C SWAP1 PUSH2 0x4693 JUMP JUMPDEST DUP1 ISZERO PUSH2 0x3269 JUMPI DUP1 PUSH1 0x1F LT PUSH2 0x323E JUMPI PUSH2 0x100 DUP1 DUP4 SLOAD DIV MUL DUP4 MSTORE SWAP2 PUSH1 0x20 ADD SWAP2 PUSH2 0x3269 JUMP JUMPDEST DUP3 ADD SWAP2 SWAP1 PUSH1 0x0 MSTORE PUSH1 0x20 PUSH1 0x0 KECCAK256 SWAP1 JUMPDEST DUP2 SLOAD DUP2 MSTORE SWAP1 PUSH1 0x1 ADD SWAP1 PUSH1 0x20 ADD DUP1 DUP4 GT PUSH2 0x324C JUMPI DUP3 SWAP1 SUB PUSH1 0x1F AND DUP3 ADD SWAP2 JUMPDEST POP POP POP POP POP PUSH2 0x3E13 JUMP JUMPDEST ISZERO PUSH2 0x328C JUMPI PUSH1 0x5 DUP3 PUSH2 0x3285 SWAP2 SWAP1 PUSH2 0x4531 JUMP JUMPDEST SWAP2 POP PUSH2 0x3474 JUMP JUMPDEST PUSH2 0x3368 DUP4 PUSH1 0x1 DUP4 PUSH2 0x329D SWAP2 SWAP1 PUSH2 0x46FC JUMP JUMPDEST PUSH1 0xFF AND DUP2 MLOAD DUP2 LT PUSH2 0x32B1 JUMPI PUSH2 0x32B0 PUSH2 0x44A9 JUMP JUMPDEST JUMPDEST PUSH1 0x20 MUL PUSH1 0x20 ADD ADD MLOAD PUSH1 0x5 DUP4 PUSH1 0xFF AND DUP2 SLOAD DUP2 LT PUSH2 0x32D0 JUMPI PUSH2 0x32CF PUSH2 0x44A9 JUMP JUMPDEST JUMPDEST SWAP1 PUSH1 0x0 MSTORE PUSH1 0x20 PUSH1 0x0 KECCAK256 ADD DUP1 SLOAD PUSH2 0x32E5 SWAP1 PUSH2 0x4693 JUMP JUMPDEST DUP1 PUSH1 0x1F ADD PUSH1 0x20 DUP1 SWAP2 DIV MUL PUSH1 0x20 ADD PUSH1 0x40 MLOAD SWAP1 DUP2 ADD PUSH1 0x40 MSTORE DUP1 SWAP3 SWAP2 SWAP1 DUP2 DUP2 MSTORE PUSH1 0x20 ADD DUP3 DUP1 SLOAD PUSH2 0x3311 SWAP1 PUSH2 0x4693 JUMP JUMPDEST DUP1 ISZERO PUSH2 0x335E JUMPI DUP1 PUSH1 0x1F LT PUSH2 0x3333 JUMPI PUSH2 0x100 DUP1 DUP4 SLOAD DIV MUL DUP4 MSTORE SWAP2 PUSH1 0x20 ADD SWAP2 PUSH2 0x335E JUMP JUMPDEST DUP3 ADD SWAP2 SWAP1 PUSH1 0x0 MSTORE PUSH1 0x20 PUSH1 0x0 KECCAK256 SWAP1 JUMPDEST DUP2 SLOAD DUP2 MSTORE SWAP1 PUSH1 0x1 ADD SWAP1 PUSH1 0x20 ADD DUP1 DUP4 GT PUSH2 0x3341 JUMPI DUP3 SWAP1 SUB PUSH1 0x1F AND DUP3 ADD SWAP2 JUMPDEST POP POP POP POP POP PUSH2 0x3E13 JUMP JUMPDEST ISZERO PUSH2 0x3381 JUMPI PUSH1 0x3 DUP3 PUSH2 0x337A SWAP2 SWAP1 PUSH2 0x4531 JUMP JUMPDEST SWAP2 POP PUSH2 0x3473 JUMP JUMPDEST PUSH2 0x345D DUP4 PUSH1 0x2 DUP4 PUSH2 0x3392 SWAP2 SWAP1 PUSH2 0x46FC JUMP JUMPDEST PUSH1 0xFF AND DUP2 MLOAD DUP2 LT PUSH2 0x33A6 JUMPI PUSH2 0x33A5 PUSH2 0x44A9 JUMP JUMPDEST JUMPDEST PUSH1 0x20 MUL PUSH1 0x20 ADD ADD MLOAD PUSH1 0x5 DUP4 PUSH1 0xFF AND DUP2 SLOAD DUP2 LT PUSH2 0x33C5 JUMPI PUSH2 0x33C4 PUSH2 0x44A9 JUMP JUMPDEST JUMPDEST SWAP1 PUSH1 0x0 MSTORE PUSH1 0x20 PUSH1 0x0 KECCAK256 ADD DUP1 SLOAD PUSH2 0x33DA SWAP1 PUSH2 0x4693 JUMP JUMPDEST DUP1 PUSH1 0x1F ADD PUSH1 0x20 DUP1 SWAP2 DIV MUL PUSH1 0x20 ADD PUSH1 0x40 MLOAD SWAP1 DUP2 ADD PUSH1 0x40 MSTORE DUP1 SWAP3 SWAP2 SWAP1 DUP2 DUP2 MSTORE PUSH1 0x20 ADD DUP3 DUP1 SLOAD PUSH2 0x3406 SWAP1 PUSH2 0x4693 JUMP JUMPDEST DUP1 ISZERO PUSH2 0x3453 JUMPI DUP1 PUSH1 0x1F LT PUSH2 0x3428 JUMPI PUSH2 0x100 DUP1 DUP4 SLOAD DIV MUL DUP4 MSTORE SWAP2 PUSH1 0x20 ADD SWAP2 PUSH2 0x3453 JUMP JUMPDEST DUP3 ADD SWAP2 SWAP1 PUSH1 0x0 MSTORE PUSH1 0x20 PUSH1 0x0 KECCAK256 SWAP1 JUMPDEST DUP2 SLOAD DUP2 MSTORE SWAP1 PUSH1 0x1 ADD SWAP1 PUSH1 0x20 ADD DUP1 DUP4 GT PUSH2 0x3436 JUMPI DUP3 SWAP1 SUB PUSH1 0x1F AND DUP3 ADD SWAP2 JUMPDEST POP POP POP POP POP PUSH2 0x3E13 JUMP JUMPDEST ISZERO PUSH2 0x3472 JUMPI PUSH1 0x1 DUP3 PUSH2 0x346F SWAP2 SWAP1 PUSH2 0x4531 JUMP JUMPDEST SWAP2 POP JUMPDEST JUMPDEST JUMPDEST PUSH2 0x3911 JUMP JUMPDEST PUSH2 0x3549 DUP4 DUP3 PUSH1 0xFF AND DUP2 MLOAD DUP2 LT PUSH2 0x3492 JUMPI PUSH2 0x3491 PUSH2 0x44A9 JUMP JUMPDEST JUMPDEST PUSH1 0x20 MUL PUSH1 0x20 ADD ADD MLOAD PUSH1 0x5 DUP4 PUSH1 0xFF AND DUP2 SLOAD DUP2 LT PUSH2 0x34B1 JUMPI PUSH2 0x34B0 PUSH2 0x44A9 JUMP JUMPDEST JUMPDEST SWAP1 PUSH1 0x0 MSTORE PUSH1 0x20 PUSH1 0x0 KECCAK256 ADD DUP1 SLOAD PUSH2 0x34C6 SWAP1 PUSH2 0x4693 JUMP JUMPDEST DUP1 PUSH1 0x1F ADD PUSH1 0x20 DUP1 SWAP2 DIV MUL PUSH1 0x20 ADD PUSH1 0x40 MLOAD SWAP1 DUP2 ADD PUSH1 0x40 MSTORE DUP1 SWAP3 SWAP2 SWAP1 DUP2 DUP2 MSTORE PUSH1 0x20 ADD DUP3 DUP1 SLOAD PUSH2 0x34F2 SWAP1 PUSH2 0x4693 JUMP JUMPDEST DUP1 ISZERO PUSH2 0x353F JUMPI DUP1 PUSH1 0x1F LT PUSH2 0x3514 JUMPI PUSH2 0x100 DUP1 DUP4 SLOAD DIV MUL DUP4 MSTORE SWAP2 PUSH1 0x20 ADD SWAP2 PUSH2 0x353F JUMP JUMPDEST DUP3 ADD SWAP2 SWAP1 PUSH1 0x0 MSTORE PUSH1 0x20 PUSH1 0x0 KECCAK256 SWAP1 JUMPDEST DUP2 SLOAD DUP2 MSTORE SWAP1 PUSH1 0x1 ADD SWAP1 PUSH1 0x20 ADD DUP1 DUP4 GT PUSH2 0x3522 JUMPI DUP3 SWAP1 SUB PUSH1 0x1F AND DUP3 ADD SWAP2 JUMPDEST POP POP POP POP POP PUSH2 0x3E13 JUMP JUMPDEST ISZERO PUSH2 0x3562 JUMPI PUSH1 0x5 DUP3 PUSH2 0x355B SWAP2 SWAP1 PUSH2 0x4531 JUMP JUMPDEST SWAP2 POP PUSH2 0x3910 JUMP JUMPDEST PUSH2 0x363E DUP4 PUSH1 0x1 DUP4 PUSH2 0x3573 SWAP2 SWAP1 PUSH2 0x46FC JUMP JUMPDEST PUSH1 0xFF AND DUP2 MLOAD DUP2 LT PUSH2 0x3587 JUMPI PUSH2 0x3586 PUSH2 0x44A9 JUMP JUMPDEST JUMPDEST PUSH1 0x20 MUL PUSH1 0x20 ADD ADD MLOAD PUSH1 0x5 DUP4 PUSH1 0xFF AND DUP2 SLOAD DUP2 LT PUSH2 0x35A6 JUMPI PUSH2 0x35A5 PUSH2 0x44A9 JUMP JUMPDEST JUMPDEST SWAP1 PUSH1 0x0 MSTORE PUSH1 0x20 PUSH1 0x0 KECCAK256 ADD DUP1 SLOAD PUSH2 0x35BB SWAP1 PUSH2 0x4693 JUMP JUMPDEST DUP1 PUSH1 0x1F ADD PUSH1 0x20 DUP1 SWAP2 DIV MUL PUSH1 0x20 ADD PUSH1 0x40 MLOAD SWAP1 DUP2 ADD PUSH1 0x40 MSTORE DUP1 SWAP3 SWAP2 SWAP1 DUP2 DUP2 MSTORE PUSH1 0x20 ADD DUP3 DUP1 SLOAD PUSH2 0x35E7 SWAP1 PUSH2 0x4693 JUMP JUMPDEST DUP1 ISZERO PUSH2 0x3634 JUMPI DUP1 PUSH1 0x1F LT PUSH2 0x3609 JUMPI PUSH2 0x100 DUP1 DUP4 SLOAD DIV MUL DUP4 MSTORE SWAP2 PUSH1 0x20 ADD SWAP2 PUSH2 0x3634 JUMP JUMPDEST DUP3 ADD SWAP2 SWAP1 PUSH1 0x0 MSTORE PUSH1 0x20 PUSH1 0x0 KECCAK256 SWAP1 JUMPDEST DUP2 SLOAD DUP2 MSTORE SWAP1 PUSH1 0x1 ADD SWAP1 PUSH1 0x20 ADD DUP1 DUP4 GT PUSH2 0x3617 JUMPI DUP3 SWAP1 SUB PUSH1 0x1F AND DUP3 ADD SWAP2 JUMPDEST POP POP POP POP POP PUSH2 0x3E13 JUMP JUMPDEST DUP1 PUSH2 0x3721 JUMPI POP PUSH2 0x3720 DUP4 PUSH1 0x1 DUP4 PUSH2 0x3655 SWAP2 SWAP1 PUSH2 0x46C5 JUMP JUMPDEST PUSH1 0xFF AND DUP2 MLOAD DUP2 LT PUSH2 0x3669 JUMPI PUSH2 0x3668 PUSH2 0x44A9 JUMP JUMPDEST JUMPDEST PUSH1 0x20 MUL PUSH1 0x20 ADD ADD MLOAD PUSH1 0x5 DUP4 PUSH1 0xFF AND DUP2 SLOAD DUP2 LT PUSH2 0x3688 JUMPI PUSH2 0x3687 PUSH2 0x44A9 JUMP JUMPDEST JUMPDEST SWAP1 PUSH1 0x0 MSTORE PUSH1 0x20 PUSH1 0x0 KECCAK256 ADD DUP1 SLOAD PUSH2 0x369D SWAP1 PUSH2 0x4693 JUMP JUMPDEST DUP1 PUSH1 0x1F ADD PUSH1 0x20 DUP1 SWAP2 DIV MUL PUSH1 0x20 ADD PUSH1 0x40 MLOAD SWAP1 DUP2 ADD PUSH1 0x40 MSTORE DUP1 SWAP3 SWAP2 SWAP1 DUP2 DUP2 MSTORE PUSH1 0x20 ADD DUP3 DUP1 SLOAD PUSH2 0x36C9 SWAP1 PUSH2 0x4693 JUMP JUMPDEST DUP1 ISZERO PUSH2 0x3716 JUMPI DUP1 PUSH1 0x1F LT PUSH2 0x36EB JUMPI PUSH2 0x100 DUP1 DUP4 SLOAD DIV MUL DUP4 MSTORE SWAP2 PUSH1 0x20 ADD SWAP2 PUSH2 0x3716 JUMP JUMPDEST DUP3 ADD SWAP2 SWAP1 PUSH1 0x0 MSTORE PUSH1 0x20 PUSH1 0x0 KECCAK256 SWAP1 JUMPDEST DUP2 SLOAD DUP2 MSTORE SWAP1 PUSH1 0x1 ADD SWAP1 PUSH1 0x20 ADD DUP1 DUP4 GT PUSH2 0x36F9 JUMPI DUP3 SWAP1 SUB PUSH1 0x1F AND DUP3 ADD SWAP2 JUMPDEST POP POP POP POP POP PUSH2 0x3E13 JUMP JUMPDEST JUMPDEST ISZERO PUSH2 0x373A JUMPI PUSH1 0x3 DUP3 PUSH2 0x3733 SWAP2 SWAP1 PUSH2 0x4531 JUMP JUMPDEST SWAP2 POP PUSH2 0x390F JUMP JUMPDEST PUSH2 0x3816 DUP4 PUSH1 0x2 DUP4 PUSH2 0x374B SWAP2 SWAP1 PUSH2 0x46FC JUMP JUMPDEST PUSH1 0xFF AND DUP2 MLOAD DUP2 LT PUSH2 0x375F JUMPI PUSH2 0x375E PUSH2 0x44A9 JUMP JUMPDEST JUMPDEST PUSH1 0x20 MUL PUSH1 0x20 ADD ADD MLOAD PUSH1 0x5 DUP4 PUSH1 0xFF AND DUP2 SLOAD DUP2 LT PUSH2 0x377E JUMPI PUSH2 0x377D PUSH2 0x44A9 JUMP JUMPDEST JUMPDEST SWAP1 PUSH1 0x0 MSTORE PUSH1 0x20 PUSH1 0x0 KECCAK256 ADD DUP1 SLOAD PUSH2 0x3793 SWAP1 PUSH2 0x4693 JUMP JUMPDEST DUP1 PUSH1 0x1F ADD PUSH1 0x20 DUP1 SWAP2 DIV MUL PUSH1 0x20 ADD PUSH1 0x40 MLOAD SWAP1 DUP2 ADD PUSH1 0x40 MSTORE DUP1 SWAP3 SWAP2 SWAP1 DUP2 DUP2 MSTORE PUSH1 0x20 ADD DUP3 DUP1 SLOAD PUSH2 0x37BF SWAP1 PUSH2 0x4693 JUMP JUMPDEST DUP1 ISZERO PUSH2 0x380C JUMPI DUP1 PUSH1 0x1F LT PUSH2 0x37E1 JUMPI PUSH2 0x100 DUP1 DUP4 SLOAD DIV MUL DUP4 MSTORE SWAP2 PUSH1 0x20 ADD SWAP2 PUSH2 0x380C JUMP JUMPDEST DUP3 ADD SWAP2 SWAP1 PUSH1 0x0 MSTORE PUSH1 0x20 PUSH1 0x0 KECCAK256 SWAP1 JUMPDEST DUP2 SLOAD DUP2 MSTORE SWAP1 PUSH1 0x1 ADD SWAP1 PUSH1 0x20 ADD DUP1 DUP4 GT PUSH2 0x37EF JUMPI DUP3 SWAP1 SUB PUSH1 0x1F AND DUP3 ADD SWAP2 JUMPDEST POP POP POP POP POP PUSH2 0x3E13 JUMP JUMPDEST DUP1 PUSH2 0x38F9 JUMPI POP PUSH2 0x38F8 DUP4 PUSH1 0x2 DUP4 PUSH2 0x382D SWAP2 SWAP1 PUSH2 0x46C5 JUMP JUMPDEST PUSH1 0xFF AND DUP2 MLOAD DUP2 LT PUSH2 0x3841 JUMPI PUSH2 0x3840 PUSH2 0x44A9 JUMP JUMPDEST JUMPDEST PUSH1 0x20 MUL PUSH1 0x20 ADD ADD MLOAD PUSH1 0x5 DUP4 PUSH1 0xFF AND DUP2 SLOAD DUP2 LT PUSH2 0x3860 JUMPI PUSH2 0x385F PUSH2 0x44A9 JUMP JUMPDEST JUMPDEST SWAP1 PUSH1 0x0 MSTORE PUSH1 0x20 PUSH1 0x0 KECCAK256 ADD DUP1 SLOAD PUSH2 0x3875 SWAP1 PUSH2 0x4693 JUMP JUMPDEST DUP1 PUSH1 0x1F ADD PUSH1 0x20 DUP1 SWAP2 DIV MUL PUSH1 0x20 ADD PUSH1 0x40 MLOAD SWAP1 DUP2 ADD PUSH1 0x40 MSTORE DUP1 SWAP3 SWAP2 SWAP1 DUP2 DUP2 MSTORE PUSH1 0x20 ADD DUP3 DUP1 SLOAD PUSH2 0x38A1 SWAP1 PUSH2 0x4693 JUMP JUMPDEST DUP1 ISZERO PUSH2 0x38EE JUMPI DUP1 PUSH1 0x1F LT PUSH2 0x38C3 JUMPI PUSH2 0x100 DUP1 DUP4 SLOAD DIV MUL DUP4 MSTORE SWAP2 PUSH1 0x20 ADD SWAP2 PUSH2 0x38EE JUMP JUMPDEST DUP3 ADD SWAP2 SWAP1 PUSH1 0x0 MSTORE PUSH1 0x20 PUSH1 0x0 KECCAK256 SWAP1 JUMPDEST DUP2 SLOAD DUP2 MSTORE SWAP1 PUSH1 0x1 ADD SWAP1 PUSH1 0x20 ADD DUP1 DUP4 GT PUSH2 0x38D1 JUMPI DUP3 SWAP1 SUB PUSH1 0x1F AND DUP3 ADD SWAP2 JUMPDEST POP POP POP POP POP PUSH2 0x3E13 JUMP JUMPDEST JUMPDEST ISZERO PUSH2 0x390E JUMPI PUSH1 0x1 DUP3 PUSH2 0x390B SWAP2 SWAP1 PUSH2 0x4531 JUMP JUMPDEST SWAP2 POP JUMPDEST JUMPDEST JUMPDEST JUMPDEST JUMPDEST JUMPDEST JUMPDEST DUP1 DUP1 PUSH2 0x391F SWAP1 PUSH2 0x4507 JUMP JUMPDEST SWAP2 POP POP PUSH2 0x26FB JUMP JUMPDEST POP DUP1 PUSH1 0x0 DUP1 PUSH1 0x1 DUP7 PUSH1 0xFF AND DUP2 SLOAD DUP2 LT PUSH2 0x3943 JUMPI PUSH2 0x3942 PUSH2 0x44A9 JUMP JUMPDEST JUMPDEST SWAP1 PUSH1 0x0 MSTORE PUSH1 0x20 PUSH1 0x0 KECCAK256 ADD PUSH1 0x0 SWAP1 SLOAD SWAP1 PUSH2 0x100 EXP SWAP1 DIV PUSH20 0xFFFFFFFFFFFFFFFFFFFFFFFFFFFFFFFFFFFFFFFF AND PUSH20 0xFFFFFFFFFFFFFFFFFFFFFFFFFFFFFFFFFFFFFFFF AND PUSH20 0xFFFFFFFFFFFFFFFFFFFFFFFFFFFFFFFFFFFFFFFF AND DUP2 MSTORE PUSH1 0x20 ADD SWAP1 DUP2 MSTORE PUSH1 0x20 ADD PUSH1 0x0 KECCAK256 PUSH1 0x4 ADD DUP2 SWAP1 SSTORE POP POP POP DUP1 DUP1 PUSH2 0x39BC SWAP1 PUSH2 0x4507 JUMP JUMPDEST SWAP2 POP POP PUSH2 0x2591 JUMP JUMPDEST POP JUMP JUMPDEST PUSH1 0x0 JUMPDEST PUSH1 0x1 DUP1 SLOAD SWAP1 POP DUP2 PUSH1 0xFF AND LT ISZERO PUSH2 0x3B28 JUMPI PUSH1 0x0 DUP1 PUSH1 0x0 PUSH1 0x1 DUP5 PUSH1 0xFF AND DUP2 SLOAD DUP2 LT PUSH2 0x39F6 JUMPI PUSH2 0x39F5 PUSH2 0x44A9 JUMP JUMPDEST JUMPDEST SWAP1 PUSH1 0x0 MSTORE PUSH1 0x20 PUSH1 0x0 KECCAK256 ADD PUSH1 0x0 SWAP1 SLOAD SWAP1 PUSH2 0x100 EXP SWAP1 DIV PUSH20 0xFFFFFFFFFFFFFFFFFFFFFFFFFFFFFFFFFFFFFFFF AND PUSH20 0xFFFFFFFFFFFFFFFFFFFFFFFFFFFFFFFFFFFFFFFF AND PUSH20 0xFFFFFFFFFFFFFFFFFFFFFFFFFFFFFFFFFFFFFFFF AND DUP2 MSTORE PUSH1 0x20 ADD SWAP1 DUP2 MSTORE PUSH1 0x20 ADD PUSH1 0x0 KECCAK256 PUSH1 0x2 ADD PUSH1 0x0 SWAP1 SLOAD SWAP1 PUSH2 0x100 EXP SWAP1 DIV PUSH1 0xFF AND SWAP1 POP DUP1 PUSH1 0xFF AND PUSH1 0x6 PUSH1 0x0 SWAP1 SLOAD SWAP1 PUSH2 0x100 EXP SWAP1 DIV PUSH1 0xFF AND PUSH1 0xFF AND EQ ISZERO PUSH2 0x3B14 JUMPI PUSH1 0x4 PUSH1 0x0 DUP1 PUSH1 0x1 DUP6 PUSH1 0xFF AND DUP2 SLOAD DUP2 LT PUSH2 0x3AA7 JUMPI PUSH2 0x3AA6 PUSH2 0x44A9 JUMP JUMPDEST JUMPDEST SWAP1 PUSH1 0x0 MSTORE PUSH1 0x20 PUSH1 0x0 KECCAK256 ADD PUSH1 0x0 SWAP1 SLOAD SWAP1 PUSH2 0x100 EXP SWAP1 DIV PUSH20 0xFFFFFFFFFFFFFFFFFFFFFFFFFFFFFFFFFFFFFFFF AND PUSH20 0xFFFFFFFFFFFFFFFFFFFFFFFFFFFFFFFFFFFFFFFF AND PUSH20 0xFFFFFFFFFFFFFFFFFFFFFFFFFFFFFFFFFFFFFFFF AND DUP2 MSTORE PUSH1 0x20 ADD SWAP1 DUP2 MSTORE PUSH1 0x20 ADD PUSH1 0x0 KECCAK256 PUSH1 0x5 ADD DUP2 SWAP1 SSTORE POP JUMPDEST POP DUP1 DUP1 PUSH2 0x3B20 SWAP1 PUSH2 0x4507 JUMP JUMPDEST SWAP2 POP POP PUSH2 0x39CA JUMP JUMPDEST POP JUMP JUMPDEST PUSH1 0x0 DUP1 JUMPDEST PUSH1 0x1 DUP1 SLOAD SWAP1 POP DUP2 PUSH1 0xFF AND LT ISZERO PUSH2 0x3E0F JUMPI PUSH1 0x0 DUP1 PUSH1 0x0 PUSH1 0x1 DUP5 PUSH1 0xFF AND DUP2 SLOAD DUP2 LT PUSH2 0x3B5B JUMPI PUSH2 0x3B5A PUSH2 0x44A9 JUMP JUMPDEST JUMPDEST SWAP1 PUSH1 0x0 MSTORE PUSH1 0x20 PUSH1 0x0 KECCAK256 ADD PUSH1 0x0 SWAP1 SLOAD SWAP1 PUSH2 0x100 EXP SWAP1 DIV PUSH20 0xFFFFFFFFFFFFFFFFFFFFFFFFFFFFFFFFFFFFFFFF AND PUSH20 0xFFFFFFFFFFFFFFFFFFFFFFFFFFFFFFFFFFFFFFFF AND PUSH20 0xFFFFFFFFFFFFFFFFFFFFFFFFFFFFFFFFFFFFFFFF AND DUP2 MSTORE PUSH1 0x20 ADD SWAP1 DUP2 MSTORE PUSH1 0x20 ADD PUSH1 0x0 KECCAK256 PUSH1 0x5 ADD SLOAD PUSH1 0x0 DUP1 PUSH1 0x1 DUP6 PUSH1 0xFF AND DUP2 SLOAD DUP2 LT PUSH2 0x3BDE JUMPI PUSH2 0x3BDD PUSH2 0x44A9 JUMP JUMPDEST JUMPDEST SWAP1 PUSH1 0x0 MSTORE PUSH1 0x20 PUSH1 0x0 KECCAK256 ADD PUSH1 0x0 SWAP1 SLOAD SWAP1 PUSH2 0x100 EXP SWAP1 DIV PUSH20 0xFFFFFFFFFFFFFFFFFFFFFFFFFFFFFFFFFFFFFFFF AND PUSH20 0xFFFFFFFFFFFFFFFFFFFFFFFFFFFFFFFFFFFFFFFF AND PUSH20 0xFFFFFFFFFFFFFFFFFFFFFFFFFFFFFFFFFFFFFFFF AND DUP2 MSTORE PUSH1 0x20 ADD SWAP1 DUP2 MSTORE PUSH1 0x20 ADD PUSH1 0x0 KECCAK256 PUSH1 0x4 ADD SLOAD PUSH1 0x0 DUP1 PUSH1 0x1 DUP7 PUSH1 0xFF AND DUP2 SLOAD DUP2 LT PUSH2 0x3C61 JUMPI PUSH2 0x3C60 PUSH2 0x44A9 JUMP JUMPDEST JUMPDEST SWAP1 PUSH1 0x0 MSTORE PUSH1 0x20 PUSH1 0x0 KECCAK256 ADD PUSH1 0x0 SWAP1 SLOAD SWAP1 PUSH2 0x100 EXP SWAP1 DIV PUSH20 0xFFFFFFFFFFFFFFFFFFFFFFFFFFFFFFFFFFFFFFFF AND PUSH20 0xFFFFFFFFFFFFFFFFFFFFFFFFFFFFFFFFFFFFFFFF AND PUSH20 0xFFFFFFFFFFFFFFFFFFFFFFFFFFFFFFFFFFFFFFFF AND DUP2 MSTORE PUSH1 0x20 ADD SWAP1 DUP2 MSTORE PUSH1 0x20 ADD PUSH1 0x0 KECCAK256 PUSH1 0x3 ADD SLOAD PUSH2 0x3CD4 SWAP2 SWAP1 PUSH2 0x4531 JUMP JUMPDEST PUSH2 0x3CDE SWAP2 SWAP1 PUSH2 0x4531 JUMP JUMPDEST SWAP1 POP DUP1 PUSH1 0x0 DUP1 PUSH1 0x1 DUP6 PUSH1 0xFF AND DUP2 SLOAD DUP2 LT PUSH2 0x3CFB JUMPI PUSH2 0x3CFA PUSH2 0x44A9 JUMP JUMPDEST JUMPDEST SWAP1 PUSH1 0x0 MSTORE PUSH1 0x20 PUSH1 0x0 KECCAK256 ADD PUSH1 0x0 SWAP1 SLOAD SWAP1 PUSH2 0x100 EXP SWAP1 DIV PUSH20 0xFFFFFFFFFFFFFFFFFFFFFFFFFFFFFFFFFFFFFFFF AND PUSH20 0xFFFFFFFFFFFFFFFFFFFFFFFFFFFFFFFFFFFFFFFF AND PUSH20 0xFFFFFFFFFFFFFFFFFFFFFFFFFFFFFFFFFFFFFFFF AND DUP2 MSTORE PUSH1 0x20 ADD SWAP1 DUP2 MSTORE PUSH1 0x20 ADD PUSH1 0x0 KECCAK256 PUSH1 0x6 ADD DUP2 SWAP1 SSTORE POP DUP1 DUP4 LT ISZERO PUSH2 0x3DFB JUMPI DUP1 SWAP3 POP PUSH1 0x0 PUSH1 0x1 DUP4 PUSH1 0xFF AND DUP2 SLOAD DUP2 LT PUSH2 0x3D8B JUMPI PUSH2 0x3D8A PUSH2 0x44A9 JUMP JUMPDEST JUMPDEST SWAP1 PUSH1 0x0 MSTORE PUSH1 0x20 PUSH1 0x0 KECCAK256 ADD PUSH1 0x0 SWAP1 SLOAD SWAP1 PUSH2 0x100 EXP SWAP1 DIV PUSH20 0xFFFFFFFFFFFFFFFFFFFFFFFFFFFFFFFFFFFFFFFF AND SWAP1 POP DUP1 PUSH1 0x2 PUSH1 0x0 PUSH2 0x100 EXP DUP2 SLOAD DUP2 PUSH20 0xFFFFFFFFFFFFFFFFFFFFFFFFFFFFFFFFFFFFFFFF MUL NOT AND SWAP1 DUP4 PUSH20 0xFFFFFFFFFFFFFFFFFFFFFFFFFFFFFFFFFFFFFFFF AND MUL OR SWAP1 SSTORE POP POP JUMPDEST POP DUP1 DUP1 PUSH2 0x3E07 SWAP1 PUSH2 0x4507 JUMP JUMPDEST SWAP2 POP POP PUSH2 0x3B2F JUMP JUMPDEST POP POP JUMP JUMPDEST PUSH1 0x0 DUP2 PUSH1 0x40 MLOAD PUSH1 0x20 ADD PUSH2 0x3E26 SWAP2 SWAP1 PUSH2 0x47DE JUMP JUMPDEST PUSH1 0x40 MLOAD PUSH1 0x20 DUP2 DUP4 SUB SUB DUP2 MSTORE SWAP1 PUSH1 0x40 MSTORE DUP1 MLOAD SWAP1 PUSH1 0x20 ADD KECCAK256 DUP4 PUSH1 0x40 MLOAD PUSH1 0x20 ADD PUSH2 0x3E4D SWAP2 SWAP1 PUSH2 0x47DE JUMP JUMPDEST PUSH1 0x40 MLOAD PUSH1 0x20 DUP2 DUP4 SUB SUB DUP2 MSTORE SWAP1 PUSH1 0x40 MSTORE DUP1 MLOAD SWAP1 PUSH1 0x20 ADD KECCAK256 EQ ISZERO PUSH2 0x3E72 JUMPI PUSH1 0x1 SWAP1 POP PUSH2 0x3E77 JUMP JUMPDEST PUSH1 0x0 SWAP1 POP JUMPDEST SWAP3 SWAP2 POP POP JUMP JUMPDEST DUP3 DUP1 SLOAD DUP3 DUP3 SSTORE SWAP1 PUSH1 0x0 MSTORE PUSH1 0x20 PUSH1 0x0 KECCAK256 SWAP1 DUP2 ADD SWAP3 DUP3 ISZERO PUSH2 0x3ECC JUMPI SWAP2 PUSH1 0x20 MUL DUP3 ADD JUMPDEST DUP3 DUP2 GT ISZERO PUSH2 0x3ECB JUMPI DUP3 MLOAD DUP3 SWAP1 DUP1 MLOAD SWAP1 PUSH1 0x20 ADD SWAP1 PUSH2 0x3EBB SWAP3 SWAP2 SWAP1 PUSH2 0x3EDD JUMP JUMPDEST POP SWAP2 PUSH1 0x20 ADD SWAP2 SWAP1 PUSH1 0x1 ADD SWAP1 PUSH2 0x3E9D JUMP JUMPDEST JUMPDEST POP SWAP1 POP PUSH2 0x3ED9 SWAP2 SWAP1 PUSH2 0x3F63 JUMP JUMPDEST POP SWAP1 JUMP JUMPDEST DUP3 DUP1 SLOAD PUSH2 0x3EE9 SWAP1 PUSH2 0x4693 JUMP JUMPDEST SWAP1 PUSH1 0x0 MSTORE PUSH1 0x20 PUSH1 0x0 KECCAK256 SWAP1 PUSH1 0x1F ADD PUSH1 0x20 SWAP1 DIV DUP2 ADD SWAP3 DUP3 PUSH2 0x3F0B JUMPI PUSH1 0x0 DUP6 SSTORE PUSH2 0x3F52 JUMP JUMPDEST DUP3 PUSH1 0x1F LT PUSH2 0x3F24 JUMPI DUP1 MLOAD PUSH1 0xFF NOT AND DUP4 DUP1 ADD OR DUP6 SSTORE PUSH2 0x3F52 JUMP JUMPDEST DUP3 DUP1 ADD PUSH1 0x1 ADD DUP6 SSTORE DUP3 ISZERO PUSH2 0x3F52 JUMPI SWAP2 DUP3 ADD JUMPDEST DUP3 DUP2 GT ISZERO PUSH2 0x3F51 JUMPI DUP3 MLOAD DUP3 SSTORE SWAP2 PUSH1 0x20 ADD SWAP2 SWAP1 PUSH1 0x1 ADD SWAP1 PUSH2 0x3F36 JUMP JUMPDEST JUMPDEST POP SWAP1 POP PUSH2 0x3F5F SWAP2 SWAP1 PUSH2 0x3F87 JUMP JUMPDEST POP SWAP1 JUMP JUMPDEST JUMPDEST DUP1 DUP3 GT ISZERO PUSH2 0x3F83 JUMPI PUSH1 0x0 DUP2 DUP2 PUSH2 0x3F7A SWAP2 SWAP1 PUSH2 0x3FA4 JUMP JUMPDEST POP PUSH1 0x1 ADD PUSH2 0x3F64 JUMP JUMPDEST POP SWAP1 JUMP JUMPDEST JUMPDEST DUP1 DUP3 GT ISZERO PUSH2 0x3FA0 JUMPI PUSH1 0x0 DUP2 PUSH1 0x0 SWAP1 SSTORE POP PUSH1 0x1 ADD PUSH2 0x3F88 JUMP JUMPDEST POP SWAP1 JUMP JUMPDEST POP DUP1 SLOAD PUSH2 0x3FB0 SWAP1 PUSH2 0x4693 JUMP JUMPDEST PUSH1 0x0 DUP3 SSTORE DUP1 PUSH1 0x1F LT PUSH2 0x3FC2 JUMPI POP PUSH2 0x3FE1 JUMP JUMPDEST PUSH1 0x1F ADD PUSH1 0x20 SWAP1 DIV SWAP1 PUSH1 0x0 MSTORE PUSH1 0x20 PUSH1 0x0 KECCAK256 SWAP1 DUP2 ADD SWAP1 PUSH2 0x3FE0 SWAP2 SWAP1 PUSH2 0x3F87 JUMP JUMPDEST JUMPDEST POP JUMP JUMPDEST PUSH1 0x0 PUSH1 0x40 MLOAD SWAP1 POP SWAP1 JUMP JUMPDEST PUSH1 0x0 DUP1 REVERT JUMPDEST PUSH1 0x0 DUP1 REVERT JUMPDEST PUSH1 0x0 DUP1 REVERT JUMPDEST PUSH1 0x0 PUSH1 0x1F NOT PUSH1 0x1F DUP4 ADD AND SWAP1 POP SWAP2 SWAP1 POP JUMP JUMPDEST PUSH32 0x4E487B7100000000000000000000000000000000000000000000000000000000 PUSH1 0x0 MSTORE PUSH1 0x41 PUSH1 0x4 MSTORE PUSH1 0x24 PUSH1 0x0 REVERT JUMPDEST PUSH2 0x4046 DUP3 PUSH2 0x3FFD JUMP JUMPDEST DUP2 ADD DUP2 DUP2 LT PUSH8 0xFFFFFFFFFFFFFFFF DUP3 GT OR ISZERO PUSH2 0x4065 JUMPI PUSH2 0x4064 PUSH2 0x400E JUMP JUMPDEST JUMPDEST DUP1 PUSH1 0x40 MSTORE POP POP POP JUMP JUMPDEST PUSH1 0x0 PUSH2 0x4078 PUSH2 0x3FE4 JUMP JUMPDEST SWAP1 POP PUSH2 0x4084 DUP3 DUP3 PUSH2 0x403D JUMP JUMPDEST SWAP2 SWAP1 POP JUMP JUMPDEST PUSH1 0x0 PUSH8 0xFFFFFFFFFFFFFFFF DUP3 GT ISZERO PUSH2 0x40A4 JUMPI PUSH2 0x40A3 PUSH2 0x400E JUMP JUMPDEST JUMPDEST PUSH1 0x20 DUP3 MUL SWAP1 POP PUSH1 0x20 DUP2 ADD SWAP1 POP SWAP2 SWAP1 POP JUMP JUMPDEST PUSH1 0x0 DUP1 REVERT JUMPDEST PUSH1 0x0 DUP1 REVERT JUMPDEST PUSH1 0x0 PUSH8 0xFFFFFFFFFFFFFFFF DUP3 GT ISZERO PUSH2 0x40DA JUMPI PUSH2 0x40D9 PUSH2 0x400E JUMP JUMPDEST JUMPDEST PUSH2 0x40E3 DUP3 PUSH2 0x3FFD JUMP JUMPDEST SWAP1 POP PUSH1 0x20 DUP2 ADD SWAP1 POP SWAP2 SWAP1 POP JUMP JUMPDEST DUP3 DUP2 DUP4 CALLDATACOPY PUSH1 0x0 DUP4 DUP4 ADD MSTORE POP POP POP JUMP JUMPDEST PUSH1 0x0 PUSH2 0x4112 PUSH2 0x410D DUP5 PUSH2 0x40BF JUMP JUMPDEST PUSH2 0x406E JUMP JUMPDEST SWAP1 POP DUP3 DUP2 MSTORE PUSH1 0x20 DUP2 ADD DUP5 DUP5 DUP5 ADD GT ISZERO PUSH2 0x412E JUMPI PUSH2 0x412D PUSH2 0x40BA JUMP JUMPDEST JUMPDEST PUSH2 0x4139 DUP5 DUP3 DUP6 PUSH2 0x40F0 JUMP JUMPDEST POP SWAP4 SWAP3 POP POP POP JUMP JUMPDEST PUSH1 0x0 DUP3 PUSH1 0x1F DUP4 ADD SLT PUSH2 0x4156 JUMPI PUSH2 0x4155 PUSH2 0x3FF8 JUMP JUMPDEST JUMPDEST DUP2 CALLDATALOAD PUSH2 0x4166 DUP5 DUP3 PUSH1 0x20 DUP7 ADD PUSH2 0x40FF JUMP JUMPDEST SWAP2 POP POP SWAP3 SWAP2 POP POP JUMP JUMPDEST PUSH1 0x0 PUSH2 0x4182 PUSH2 0x417D DUP5 PUSH2 0x4089 JUMP JUMPDEST PUSH2 0x406E JUMP JUMPDEST SWAP1 POP DUP1 DUP4 DUP3 MSTORE PUSH1 0x20 DUP3 ADD SWAP1 POP PUSH1 0x20 DUP5 MUL DUP4 ADD DUP6 DUP2 GT ISZERO PUSH2 0x41A5 JUMPI PUSH2 0x41A4 PUSH2 0x40B5 JUMP JUMPDEST JUMPDEST DUP4 JUMPDEST DUP2 DUP2 LT ISZERO PUSH2 0x41EC JUMPI DUP1 CALLDATALOAD PUSH8 0xFFFFFFFFFFFFFFFF DUP2 GT ISZERO PUSH2 0x41CA JUMPI PUSH2 0x41C9 PUSH2 0x3FF8 JUMP JUMPDEST JUMPDEST DUP1 DUP7 ADD PUSH2 0x41D7 DUP10 DUP3 PUSH2 0x4141 JUMP JUMPDEST DUP6 MSTORE PUSH1 0x20 DUP6 ADD SWAP5 POP POP POP PUSH1 0x20 DUP2 ADD SWAP1 POP PUSH2 0x41A7 JUMP JUMPDEST POP POP POP SWAP4 SWAP3 POP POP POP JUMP JUMPDEST PUSH1 0x0 DUP3 PUSH1 0x1F DUP4 ADD SLT PUSH2 0x420B JUMPI PUSH2 0x420A PUSH2 0x3FF8 JUMP JUMPDEST JUMPDEST DUP2 CALLDATALOAD PUSH2 0x421B DUP5 DUP3 PUSH1 0x20 DUP7 ADD PUSH2 0x416F JUMP JUMPDEST SWAP2 POP POP SWAP3 SWAP2 POP POP JUMP JUMPDEST PUSH1 0x0 PUSH1 0x20 DUP3 DUP5 SUB SLT ISZERO PUSH2 0x423A JUMPI PUSH2 0x4239 PUSH2 0x3FEE JUMP JUMPDEST JUMPDEST PUSH1 0x0 DUP3 ADD CALLDATALOAD PUSH8 0xFFFFFFFFFFFFFFFF DUP2 GT ISZERO PUSH2 0x4258 JUMPI PUSH2 0x4257 PUSH2 0x3FF3 JUMP JUMPDEST JUMPDEST PUSH2 0x4264 DUP5 DUP3 DUP6 ADD PUSH2 0x41F6 JUMP JUMPDEST SWAP2 POP POP SWAP3 SWAP2 POP POP JUMP JUMPDEST PUSH1 0x0 DUP2 SWAP1 POP SWAP2 SWAP1 POP JUMP JUMPDEST PUSH2 0x4280 DUP2 PUSH2 0x426D JUMP JUMPDEST DUP3 MSTORE POP POP JUMP JUMPDEST PUSH1 0x0 PUSH1 0x20 DUP3 ADD SWAP1 POP PUSH2 0x429B PUSH1 0x0 DUP4 ADD DUP5 PUSH2 0x4277 JUMP JUMPDEST SWAP3 SWAP2 POP POP JUMP JUMPDEST PUSH1 0x0 PUSH20 0xFFFFFFFFFFFFFFFFFFFFFFFFFFFFFFFFFFFFFFFF DUP3 AND SWAP1 POP SWAP2 SWAP1 POP JUMP JUMPDEST PUSH1 0x0 PUSH2 0x42CC DUP3 PUSH2 0x42A1 JUMP JUMPDEST SWAP1 POP SWAP2 SWAP1 POP JUMP JUMPDEST PUSH2 0x42DC DUP2 PUSH2 0x42C1 JUMP JUMPDEST DUP3 MSTORE POP POP JUMP JUMPDEST PUSH1 0x0 PUSH1 0x20 DUP3 ADD SWAP1 POP PUSH2 0x42F7 PUSH1 0x0 DUP4 ADD DUP5 PUSH2 0x42D3 JUMP JUMPDEST SWAP3 SWAP2 POP POP JUMP JUMPDEST PUSH1 0x0 PUSH1 0xFF DUP3 AND SWAP1 POP SWAP2 SWAP1 POP JUMP JUMPDEST PUSH2 0x4313 DUP2 PUSH2 0x42FD JUMP JUMPDEST DUP2 EQ PUSH2 0x431E JUMPI PUSH1 0x0 DUP1 REVERT JUMPDEST POP JUMP JUMPDEST PUSH1 0x0 DUP2 CALLDATALOAD SWAP1 POP PUSH2 0x4330 DUP2 PUSH2 0x430A JUMP JUMPDEST SWAP3 SWAP2 POP POP JUMP JUMPDEST PUSH1 0x0 PUSH1 0x20 DUP3 DUP5 SUB SLT ISZERO PUSH2 0x434C JUMPI PUSH2 0x434B PUSH2 0x3FEE JUMP JUMPDEST JUMPDEST PUSH1 0x0 PUSH2 0x435A DUP5 DUP3 DUP6 ADD PUSH2 0x4321 JUMP JUMPDEST SWAP2 POP POP SWAP3 SWAP2 POP POP JUMP JUMPDEST PUSH1 0x0 DUP2 MLOAD SWAP1 POP SWAP2 SWAP1 POP JUMP JUMPDEST PUSH1 0x0 DUP3 DUP3 MSTORE PUSH1 0x20 DUP3 ADD SWAP1 POP SWAP3 SWAP2 POP POP JUMP JUMPDEST PUSH1 0x0 DUP2 SWAP1 POP PUSH1 0x20 DUP3 ADD SWAP1 POP SWAP2 SWAP1 POP JUMP JUMPDEST PUSH2 0x4398 DUP2 PUSH2 0x42C1 JUMP JUMPDEST DUP3 MSTORE POP POP JUMP JUMPDEST PUSH1 0x0 PUSH2 0x43AA DUP4 DUP4 PUSH2 0x438F JUMP JUMPDEST PUSH1 0x20 DUP4 ADD SWAP1 POP SWAP3 SWAP2 POP POP JUMP JUMPDEST PUSH1 0x0 PUSH1 0x20 DUP3 ADD SWAP1 POP SWAP2 SWAP1 POP JUMP JUMPDEST PUSH1 0x0 PUSH2 0x43CE DUP3 PUSH2 0x4363 JUMP JUMPDEST PUSH2 0x43D8 DUP2 DUP6 PUSH2 0x436E JUMP JUMPDEST SWAP4 POP PUSH2 0x43E3 DUP4 PUSH2 0x437F JUMP JUMPDEST DUP1 PUSH1 0x0 JUMPDEST DUP4 DUP2 LT ISZERO PUSH2 0x4414 JUMPI DUP2 MLOAD PUSH2 0x43FB DUP9 DUP3 PUSH2 0x439E JUMP JUMPDEST SWAP8 POP PUSH2 0x4406 DUP4 PUSH2 0x43B6 JUMP JUMPDEST SWAP3 POP POP PUSH1 0x1 DUP2 ADD SWAP1 POP PUSH2 0x43E7 JUMP JUMPDEST POP DUP6 SWAP4 POP POP POP POP SWAP3 SWAP2 POP POP JUMP JUMPDEST PUSH1 0x0 PUSH1 0x20 DUP3 ADD SWAP1 POP DUP2 DUP2 SUB PUSH1 0x0 DUP4 ADD MSTORE PUSH2 0x443B DUP2 DUP5 PUSH2 0x43C3 JUMP JUMPDEST SWAP1 POP SWAP3 SWAP2 POP POP JUMP JUMPDEST PUSH1 0x0 PUSH2 0x444E DUP3 PUSH2 0x42A1 JUMP JUMPDEST SWAP1 POP SWAP2 SWAP1 POP JUMP JUMPDEST PUSH2 0x445E DUP2 PUSH2 0x4443 JUMP JUMPDEST DUP3 MSTORE POP POP JUMP JUMPDEST PUSH1 0x0 PUSH1 0x20 DUP3 ADD SWAP1 POP PUSH2 0x4479 PUSH1 0x0 DUP4 ADD DUP5 PUSH2 0x4455 JUMP JUMPDEST SWAP3 SWAP2 POP POP JUMP JUMPDEST PUSH2 0x4488 DUP2 PUSH2 0x42FD JUMP JUMPDEST DUP3 MSTORE POP POP JUMP JUMPDEST PUSH1 0x0 PUSH1 0x20 DUP3 ADD SWAP1 POP PUSH2 0x44A3 PUSH1 0x0 DUP4 ADD DUP5 PUSH2 0x447F JUMP JUMPDEST SWAP3 SWAP2 POP POP JUMP JUMPDEST PUSH32 0x4E487B7100000000000000000000000000000000000000000000000000000000 PUSH1 0x0 MSTORE PUSH1 0x32 PUSH1 0x4 MSTORE PUSH1 0x24 PUSH1 0x0 REVERT JUMPDEST PUSH32 0x4E487B7100000000000000000000000000000000000000000000000000000000 PUSH1 0x0 MSTORE PUSH1 0x11 PUSH1 0x4 MSTORE PUSH1 0x24 PUSH1 0x0 REVERT JUMPDEST PUSH1 0x0 PUSH2 0x4512 DUP3 PUSH2 0x42FD JUMP JUMPDEST SWAP2 POP PUSH1 0xFF DUP3 EQ ISZERO PUSH2 0x4526 JUMPI PUSH2 0x4525 PUSH2 0x44D8 JUMP JUMPDEST JUMPDEST PUSH1 0x1 DUP3 ADD SWAP1 POP SWAP2 SWAP1 POP JUMP JUMPDEST PUSH1 0x0 PUSH2 0x453C DUP3 PUSH2 0x426D JUMP JUMPDEST SWAP2 POP PUSH2 0x4547 DUP4 PUSH2 0x426D JUMP JUMPDEST SWAP3 POP DUP3 PUSH32 0xFFFFFFFFFFFFFFFFFFFFFFFFFFFFFFFFFFFFFFFFFFFFFFFFFFFFFFFFFFFFFFFF SUB DUP3 GT ISZERO PUSH2 0x457C JUMPI PUSH2 0x457B PUSH2 0x44D8 JUMP JUMPDEST JUMPDEST DUP3 DUP3 ADD SWAP1 POP SWAP3 SWAP2 POP POP JUMP JUMPDEST PUSH32 0x4E487B7100000000000000000000000000000000000000000000000000000000 PUSH1 0x0 MSTORE PUSH1 0x12 PUSH1 0x4 MSTORE PUSH1 0x24 PUSH1 0x0 REVERT JUMPDEST PUSH1 0x0 PUSH2 0x45C1 DUP3 PUSH2 0x426D JUMP JUMPDEST SWAP2 POP PUSH2 0x45CC DUP4 PUSH2 0x426D JUMP JUMPDEST SWAP3 POP DUP3 PUSH2 0x45DC JUMPI PUSH2 0x45DB PUSH2 0x4587 JUMP JUMPDEST JUMPDEST DUP3 DUP3 DIV SWAP1 POP SWAP3 SWAP2 POP POP JUMP JUMPDEST PUSH1 0x0 DUP3 DUP3 MSTORE PUSH1 0x20 DUP3 ADD SWAP1 POP SWAP3 SWAP2 POP POP JUMP JUMPDEST PUSH32 0x436F6E74657374616E7420697320616C7261647920696E207468652062657400 PUSH1 0x0 DUP3 ADD MSTORE POP JUMP JUMPDEST PUSH1 0x0 PUSH2 0x462E PUSH1 0x1F DUP4 PUSH2 0x45E7 JUMP JUMPDEST SWAP2 POP PUSH2 0x4639 DUP3 PUSH2 0x45F8 JUMP JUMPDEST PUSH1 0x20 DUP3 ADD SWAP1 POP SWAP2 SWAP1 POP JUMP JUMPDEST PUSH1 0x0 PUSH1 0x20 DUP3 ADD SWAP1 POP DUP2 DUP2 SUB PUSH1 0x0 DUP4 ADD MSTORE PUSH2 0x465D DUP2 PUSH2 0x4621 JUMP JUMPDEST SWAP1 POP SWAP2 SWAP1 POP JUMP JUMPDEST PUSH32 0x4E487B7100000000000000000000000000000000000000000000000000000000 PUSH1 0x0 MSTORE PUSH1 0x22 PUSH1 0x4 MSTORE PUSH1 0x24 PUSH1 0x0 REVERT JUMPDEST PUSH1 0x0 PUSH1 0x2 DUP3 DIV SWAP1 POP PUSH1 0x1 DUP3 AND DUP1 PUSH2 0x46AB JUMPI PUSH1 0x7F DUP3 AND SWAP2 POP JUMPDEST PUSH1 0x20 DUP3 LT DUP2 EQ ISZERO PUSH2 0x46BF JUMPI PUSH2 0x46BE PUSH2 0x4664 JUMP JUMPDEST JUMPDEST POP SWAP2 SWAP1 POP JUMP JUMPDEST PUSH1 0x0 PUSH2 0x46D0 DUP3 PUSH2 0x42FD JUMP JUMPDEST SWAP2 POP PUSH2 0x46DB DUP4 PUSH2 0x42FD JUMP JUMPDEST SWAP3 POP DUP3 PUSH1 0xFF SUB DUP3 GT ISZERO PUSH2 0x46F1 JUMPI PUSH2 0x46F0 PUSH2 0x44D8 JUMP JUMPDEST JUMPDEST DUP3 DUP3 ADD SWAP1 POP SWAP3 SWAP2 POP POP JUMP JUMPDEST PUSH1 0x0 PUSH2 0x4707 DUP3 PUSH2 0x42FD JUMP JUMPDEST SWAP2 POP PUSH2 0x4712 DUP4 PUSH2 0x42FD JUMP JUMPDEST SWAP3 POP DUP3 DUP3 LT ISZERO PUSH2 0x4725 JUMPI PUSH2 0x4724 PUSH2 0x44D8 JUMP JUMPDEST JUMPDEST DUP3 DUP3 SUB SWAP1 POP SWAP3 SWAP2 POP POP JUMP JUMPDEST PUSH1 0x0 PUSH2 0x473B DUP3 PUSH2 0x426D JUMP JUMPDEST SWAP2 POP PUSH2 0x4746 DUP4 PUSH2 0x426D JUMP JUMPDEST SWAP3 POP DUP3 DUP3 LT ISZERO PUSH2 0x4759 JUMPI PUSH2 0x4758 PUSH2 0x44D8 JUMP JUMPDEST JUMPDEST DUP3 DUP3 SUB SWAP1 POP SWAP3 SWAP2 POP POP JUMP JUMPDEST PUSH1 0x0 DUP2 MLOAD SWAP1 POP SWAP2 SWAP1 POP JUMP JUMPDEST PUSH1 0x0 DUP2 SWAP1 POP SWAP3 SWAP2 POP POP JUMP JUMPDEST PUSH1 0x0 JUMPDEST DUP4 DUP2 LT ISZERO PUSH2 0x4798 JUMPI DUP1 DUP3 ADD MLOAD DUP2 DUP5 ADD MSTORE PUSH1 0x20 DUP2 ADD SWAP1 POP PUSH2 0x477D JUMP JUMPDEST DUP4 DUP2 GT ISZERO PUSH2 0x47A7 JUMPI PUSH1 0x0 DUP5 DUP5 ADD MSTORE JUMPDEST POP POP POP POP JUMP JUMPDEST PUSH1 0x0 PUSH2 0x47B8 DUP3 PUSH2 0x4764 JUMP JUMPDEST PUSH2 0x47C2 DUP2 DUP6 PUSH2 0x476F JUMP JUMPDEST SWAP4 POP PUSH2 0x47D2 DUP2 DUP6 PUSH1 0x20 DUP7 ADD PUSH2 0x477A JUMP JUMPDEST DUP1 DUP5 ADD SWAP2 POP POP SWAP3 SWAP2 POP POP JUMP JUMPDEST PUSH1 0x0 PUSH2 0x47EA DUP3 DUP5 PUSH2 0x47AD JUMP JUMPDEST SWAP2 POP DUP2 SWAP1 POP SWAP3 SWAP2 POP POP JUMP INVALID LOG2 PUSH5 0x6970667358 0x22 SLT KECCAK256 0xEE 0xCE KECCAK256 0xF8 GAS 0xDD 0xDF 0xC1 0xC0 0xDF EXP PUSH18 0x85351B26B29C91603A1BEFF206CA78666ADA CHAINID SELFBALANCE PUSH5 0x736F6C6343 STOP ADDMOD SIGNEXTEND STOP CALLER "},"gasEstimates":{"creation":{"codeDepositCost":"3695000","executionCost":"infinite","totalCost":"infinite"},"external":{"acceptWinner()":"infinite","bet()":"2497","calculateResults()":"infinite","checoWins()":"2581","enterBet()":"infinite","getContestansCPoints()":"infinite","getContestansChPoints()":"infinite","getContestansDPoints()":"infinite","getContestansTPoints()":"infinite","getContestants()":"infinite","manager()":"2587","predictChecoWins(uint8)":"infinite","predictConstructorsTable(string[])":"infinite","predictDriversTable(string[])":"infinite","setChecoWins(uint8)":"26944","setConstructorsTable(string[])":"infinite","setDriversTable(string[])":"infinite","winner()":"2580"},"internal":{"calculateChecoPoints()":"infinite","calculateConstructorsTable()":"infinite","calculateDriversTable()":"infinite","calculateFinalPoints()":"infinite","checkStingEquality(string memory,string memory)":"infinite"}},"methodIdentifiers":{"acceptWinner()":"7f36ea24","bet()":"11610c25","calculateResults()":"2ccb0d1e","checoWins()":"f1d78c84","enterBet()":"bb427d8a","getContestansCPoints()":"7af448f2","getContestansChPoints()":"a388d1cd","getContestansDPoints()":"096c705d","getContestansTPoints()":"ef9884e4","getContestants()":"c10196fa","manager()":"481c6a75","predictChecoWins(uint8)":"77bc91f5","predictConstructorsTable(string[])":"09221b3a","predictDriversTable(string[])":"b12038f4","setChecoWins(uint8)":"55db72ea","setConstructorsTable(string[])":"c8fe2134","setDriversTable(string[])":"65046e8c","winner()":"dfbf53ae"}},"storageLayout":{"storage":[{"astId":23,"contract":"/home/rocha/Proyects/Solidity/F1Bet/ethereum/contracts/F1.sol:FormulaBet","label":"predictions","offset":0,"slot":"0","type":"t_mapping(t_address,t_struct(ContestantPrediction)18_storage)"},{"astId":26,"contract":"/home/rocha/Proyects/Solidity/F1Bet/ethereum/contracts/F1.sol:FormulaBet","label":"contestants","offset":0,"slot":"1","type":"t_array(t_address)dyn_storage"},{"astId":28,"contract":"/home/rocha/Proyects/Solidity/F1Bet/ethereum/contracts/F1.sol:FormulaBet","label":"winner","offset":0,"slot":"2","type":"t_address_payable"},{"astId":30,"contract":"/home/rocha/Proyects/Solidity/F1Bet/ethereum/contracts/F1.sol:FormulaBet","label":"price","offset":0,"slot":"3","type":"t_uint256"},{"astId":33,"contract":"/home/rocha/Proyects/Solidity/F1Bet/ethereum/contracts/F1.sol:FormulaBet","label":"constructors","offset":0,"slot":"4","type":"t_array(t_string_storage)dyn_storage"},{"astId":36,"contract":"/home/rocha/Proyects/Solidity/F1Bet/ethereum/contracts/F1.sol:FormulaBet","label":"drivers","offset":0,"slot":"5","type":"t_array(t_string_storage)dyn_storage"},{"astId":38,"contract":"/home/rocha/Proyects/Solidity/F1Bet/ethereum/contracts/F1.sol:FormulaBet","label":"checoWins","offset":0,"slot":"6","type":"t_uint8"},{"astId":40,"contract":"/home/rocha/Proyects/Solidity/F1Bet/ethereum/contracts/F1.sol:FormulaBet","label":"manager","offset":1,"slot":"6","type":"t_address"},{"astId":42,"contract":"/home/rocha/Proyects/Solidity/F1Bet/ethereum/contracts/F1.sol:FormulaBet","label":"bet","offset":0,"slot":"7","type":"t_uint256"},{"astId":46,"contract":"/home/rocha/Proyects/Solidity/F1Bet/ethereum/contracts/F1.sol:FormulaBet","label":"hasVoted","offset":0,"slot":"8","type":"t_mapping(t_address,t_bool)"},{"astId":48,"contract":"/home/rocha/Proyects/Solidity/F1Bet/ethereum/contracts/F1.sol:FormulaBet","label":"approvers","offset":0,"slot":"9","type":"t_uint256"}],"types":{"t_address":{"encoding":"inplace","label":"address","numberOfBytes":"20"},"t_address_payable":{"encoding":"inplace","label":"address payable","numberOfBytes":"20"},"t_array(t_address)dyn_storage":{"base":"t_address","encoding":"dynamic_array","label":"address[]","numberOfBytes":"32"},"t_array(t_string_storage)dyn_storage":{"base":"t_string_storage","encoding":"dynamic_array","label":"string[]","numberOfBytes":"32"},"t_bool":{"encoding":"inplace","label":"bool","numberOfBytes":"1"},"t_mapping(t_address,t_bool)":{"encoding":"mapping","key":"t_address","label":"mapping(address => bool)","numberOfBytes":"32","value":"t_bool"},"t_mapping(t_address,t_struct(ContestantPrediction)18_storage)":{"encoding":"mapping","key":"t_address","label":"mapping(address => struct FormulaBet.ContestantPrediction)","numberOfBytes":"32","value":"t_struct(ContestantPrediction)18_storage"},"t_string_storage":{"encoding":"bytes","label":"string","numberOfBytes":"32"},"t_struct(ContestantPrediction)18_storage":{"encoding":"inplace","label":"struct FormulaBet.ContestantPrediction","members":[{"astId":4,"contract":"/home/rocha/Proyects/Solidity/F1Bet/ethereum/contracts/F1.sol:FormulaBet","label":"constructors","offset":0,"slot":"0","type":"t_array(t_string_storage)dyn_storage"},{"astId":7,"contract":"/home/rocha/Proyects/Solidity/F1Bet/ethereum/contracts/F1.sol:FormulaBet","label":"drivers","offset":0,"slot":"1","type":"t_array(t_string_storage)dyn_storage"},{"astId":9,"contract":"/home/rocha/Proyects/Solidity/F1Bet/ethereum/contracts/F1.sol:FormulaBet","label":"checoWins","offset":0,"slot":"2","type":"t_uint8"},{"astId":11,"contract":"/home/rocha/Proyects/Solidity/F1Bet/ethereum/contracts/F1.sol:FormulaBet","label":"constructorsPoints","offset":0,"slot":"3","type":"t_uint256"},{"astId":13,"contract":"/home/rocha/Proyects/Solidity/F1Bet/ethereum/contracts/F1.sol:FormulaBet","label":"driversPoints","offset":0,"slot":"4","type":"t_uint256"},{"astId":15,"contract":"/home/rocha/Proyects/Solidity/F1Bet/ethereum/contracts/F1.sol:FormulaBet","label":"checoPoints","offset":0,"slot":"5","type":"t_uint256"},{"astId":17,"contract":"/home/rocha/Proyects/Solidity/F1Bet/ethereum/contracts/F1.sol:FormulaBet","label":"totalPoints","offset":0,"slot":"6","type":"t_uint256"}],"numberOfBytes":"224"},"t_uint256":{"encoding":"inplace","label":"uint256","numberOfBytes":"32"},"t_uint8":{"encoding":"inplace","label":"uint8","numberOfBytes":"1"}}},"userdoc":{"kind":"user","methods":{},"version":1}}